{
	"data": {
		"bytecode": {
			"linkReferences": {},
			"object": "60806040526000600160006101000a81548163ffffffff021916908363ffffffff1602179055506000600160046101000a81548163ffffffff021916908363ffffffff16021790555034801561005457600080fd5b50610d7e806100646000396000f3fe608060405234801561001057600080fd5b50600436106100575760003560e01c80632ddbd13a1461005c57806368d748ca1461007a578063b19a4635146100ab578063e9e7ff0c146100c7578063feaeb5ab146100e3575b600080fd5b6100646100ff565b60405161007191906105fb565b60405180910390f35b610094600480360381019061008f9190610656565b610115565b6040516100a2929190610730565b60405180910390f35b6100c560048036038101906100c09190610937565b6101cf565b005b6100e160048036038101906100dc9190610656565b6102c1565b005b6100fd60048036038101906100f89190610980565b610388565b005b600160049054906101000a900463ffffffff1681565b600060205280600052604060002060009150905080600001805461013890610a0b565b80601f016020809104026020016040519081016040528092919081815260200182805461016490610a0b565b80156101b15780601f10610186576101008083540402835291602001916101b1565b820191906000526020600020905b81548152906001019060200180831161019457829003601f168201915b5050505050908060010160009054906101000a900461ffff16905082565b6001600081819054906101000a900463ffffffff16809291906101f190610a6b565b91906101000a81548163ffffffff021916908363ffffffff1602179055505080600080600160009054906101000a900463ffffffff1663ffffffff1663ffffffff16815260200190815260200160002060008201518160000190816102569190610c4d565b5060208201518160010160006101000a81548161ffff021916908361ffff1602179055509050506001600481819054906101000a900463ffffffff168092919061029f90610a6b565b91906101000a81548163ffffffff021916908363ffffffff1602179055505050565b60008060008363ffffffff1663ffffffff16815260200190815260200160002060010160009054906101000a900461ffff1661ffff161115610385576000808263ffffffff1663ffffffff1681526020019081526020016000206000808201600061032c919061057f565b6001820160006101000a81549061ffff021916905550506001600481819054906101000a900463ffffffff168092919061036590610d1f565b91906101000a81548163ffffffff021916908363ffffffff160217905550505b50565b60008060008463ffffffff1663ffffffff1681526020019081526020016000206040518060400160405290816000820180546103c390610a0b565b80601f01602080910402602001604051908101604052809291908181526020018280546103ef90610a0b565b801561043c5780601f106104115761010080835404028352916020019161043c565b820191906000526020600020905b81548152906001019060200180831161041f57829003601f168201915b505050505081526020016001820160009054906101000a900461ffff1661ffff1661ffff1681525050905061048482600001516040518060200160405280600081525061054c565b1580156104a0575061049e8160000151836000015161054c565b155b156104d95781600001516000808563ffffffff1663ffffffff16815260200190815260200160002060000190816104d79190610c4d565b505b6000826020015161ffff161180156105015750816020015161ffff16816020015161ffff1614155b156105475781602001516000808563ffffffff1663ffffffff16815260200190815260200160002060010160006101000a81548161ffff021916908361ffff1602179055505b505050565b600080839050600083905080518251148015610575575080805190602001208280519060200120145b9250505092915050565b50805461058b90610a0b565b6000825580601f1061059d57506105bc565b601f0160209004906000526020600020908101906105bb91906105bf565b5b50565b5b808211156105d85760008160009055506001016105c0565b5090565b600063ffffffff82169050919050565b6105f5816105dc565b82525050565b600060208201905061061060008301846105ec565b92915050565b6000604051905090565b600080fd5b600080fd5b610633816105dc565b811461063e57600080fd5b50565b6000813590506106508161062a565b92915050565b60006020828403121561066c5761066b610620565b5b600061067a84828501610641565b91505092915050565b600081519050919050565b600082825260208201905092915050565b60005b838110156106bd5780820151818401526020810190506106a2565b60008484015250505050565b6000601f19601f8301169050919050565b60006106e582610683565b6106ef818561068e565b93506106ff81856020860161069f565b610708816106c9565b840191505092915050565b600061ffff82169050919050565b61072a81610713565b82525050565b6000604082019050818103600083015261074a81856106da565b90506107596020830184610721565b9392505050565b600080fd5b7f4e487b7100000000000000000000000000000000000000000000000000000000600052604160045260246000fd5b61079d826106c9565b810181811067ffffffffffffffff821117156107bc576107bb610765565b5b80604052505050565b60006107cf610616565b90506107db8282610794565b919050565b600080fd5b600080fd5b600080fd5b600067ffffffffffffffff82111561080a57610809610765565b5b610813826106c9565b9050602081019050919050565b82818337600083830152505050565b600061084261083d846107ef565b6107c5565b90508281526020810184848401111561085e5761085d6107ea565b5b610869848285610820565b509392505050565b600082601f830112610886576108856107e5565b5b813561089684826020860161082f565b91505092915050565b6108a881610713565b81146108b357600080fd5b50565b6000813590506108c58161089f565b92915050565b6000604082840312156108e1576108e0610760565b5b6108eb60406107c5565b9050600082013567ffffffffffffffff81111561090b5761090a6107e0565b5b61091784828501610871565b600083015250602061092b848285016108b6565b60208301525092915050565b60006020828403121561094d5761094c610620565b5b600082013567ffffffffffffffff81111561096b5761096a610625565b5b610977848285016108cb565b91505092915050565b6000806040838503121561099757610996610620565b5b60006109a585828601610641565b925050602083013567ffffffffffffffff8111156109c6576109c5610625565b5b6109d2858286016108cb565b9150509250929050565b7f4e487b7100000000000000000000000000000000000000000000000000000000600052602260045260246000fd5b60006002820490506001821680610a2357607f821691505b602082108103610a3657610a356109dc565b5b50919050565b7f4e487b7100000000000000000000000000000000000000000000000000000000600052601160045260246000fd5b6000610a76826105dc565b915063ffffffff8203610a8c57610a8b610a3c565b5b600182019050919050565b60008190508160005260206000209050919050565b60006020601f8301049050919050565b600082821b905092915050565b600060088302610af97fffffffffffffffffffffffffffffffffffffffffffffffffffffffffffffffff82610abc565b610b038683610abc565b95508019841693508086168417925050509392505050565b6000819050919050565b6000819050919050565b6000610b4a610b45610b4084610b1b565b610b25565b610b1b565b9050919050565b6000819050919050565b610b6483610b2f565b610b78610b7082610b51565b848454610ac9565b825550505050565b600090565b610b8d610b80565b610b98818484610b5b565b505050565b5b81811015610bbc57610bb1600082610b85565b600181019050610b9e565b5050565b601f821115610c0157610bd281610a97565b610bdb84610aac565b81016020851015610bea578190505b610bfe610bf685610aac565b830182610b9d565b50505b505050565b600082821c905092915050565b6000610c2460001984600802610c06565b1980831691505092915050565b6000610c3d8383610c13565b9150826002028217905092915050565b610c5682610683565b67ffffffffffffffff811115610c6f57610c6e610765565b5b610c798254610a0b565b610c84828285610bc0565b600060209050601f831160018114610cb75760008415610ca5578287015190505b610caf8582610c31565b865550610d17565b601f198416610cc586610a97565b60005b82811015610ced57848901518255600182019150602085019450602081019050610cc8565b86831015610d0a5784890151610d06601f891682610c13565b8355505b6001600288020188555050505b505050505050565b6000610d2a826105dc565b915060008203610d3d57610d3c610a3c565b5b60018203905091905056fea2646970667358221220d724df31373a96a0f5f6c305e7e916f462197b22fa74decbd6e56364f2dbd2c364736f6c63430008120033",
			"opcodes": "PUSH1 0x80 PUSH1 0x40 MSTORE PUSH1 0x0 PUSH1 0x1 PUSH1 0x0 PUSH2 0x100 EXP DUP2 SLOAD DUP2 PUSH4 0xFFFFFFFF MUL NOT AND SWAP1 DUP4 PUSH4 0xFFFFFFFF AND MUL OR SWAP1 SSTORE POP PUSH1 0x0 PUSH1 0x1 PUSH1 0x4 PUSH2 0x100 EXP DUP2 SLOAD DUP2 PUSH4 0xFFFFFFFF MUL NOT AND SWAP1 DUP4 PUSH4 0xFFFFFFFF AND MUL OR SWAP1 SSTORE POP CALLVALUE DUP1 ISZERO PUSH2 0x54 JUMPI PUSH1 0x0 DUP1 REVERT JUMPDEST POP PUSH2 0xD7E DUP1 PUSH2 0x64 PUSH1 0x0 CODECOPY PUSH1 0x0 RETURN INVALID PUSH1 0x80 PUSH1 0x40 MSTORE CALLVALUE DUP1 ISZERO PUSH2 0x10 JUMPI PUSH1 0x0 DUP1 REVERT JUMPDEST POP PUSH1 0x4 CALLDATASIZE LT PUSH2 0x57 JUMPI PUSH1 0x0 CALLDATALOAD PUSH1 0xE0 SHR DUP1 PUSH4 0x2DDBD13A EQ PUSH2 0x5C JUMPI DUP1 PUSH4 0x68D748CA EQ PUSH2 0x7A JUMPI DUP1 PUSH4 0xB19A4635 EQ PUSH2 0xAB JUMPI DUP1 PUSH4 0xE9E7FF0C EQ PUSH2 0xC7 JUMPI DUP1 PUSH4 0xFEAEB5AB EQ PUSH2 0xE3 JUMPI JUMPDEST PUSH1 0x0 DUP1 REVERT JUMPDEST PUSH2 0x64 PUSH2 0xFF JUMP JUMPDEST PUSH1 0x40 MLOAD PUSH2 0x71 SWAP2 SWAP1 PUSH2 0x5FB JUMP JUMPDEST PUSH1 0x40 MLOAD DUP1 SWAP2 SUB SWAP1 RETURN JUMPDEST PUSH2 0x94 PUSH1 0x4 DUP1 CALLDATASIZE SUB DUP2 ADD SWAP1 PUSH2 0x8F SWAP2 SWAP1 PUSH2 0x656 JUMP JUMPDEST PUSH2 0x115 JUMP JUMPDEST PUSH1 0x40 MLOAD PUSH2 0xA2 SWAP3 SWAP2 SWAP1 PUSH2 0x730 JUMP JUMPDEST PUSH1 0x40 MLOAD DUP1 SWAP2 SUB SWAP1 RETURN JUMPDEST PUSH2 0xC5 PUSH1 0x4 DUP1 CALLDATASIZE SUB DUP2 ADD SWAP1 PUSH2 0xC0 SWAP2 SWAP1 PUSH2 0x937 JUMP JUMPDEST PUSH2 0x1CF JUMP JUMPDEST STOP JUMPDEST PUSH2 0xE1 PUSH1 0x4 DUP1 CALLDATASIZE SUB DUP2 ADD SWAP1 PUSH2 0xDC SWAP2 SWAP1 PUSH2 0x656 JUMP JUMPDEST PUSH2 0x2C1 JUMP JUMPDEST STOP JUMPDEST PUSH2 0xFD PUSH1 0x4 DUP1 CALLDATASIZE SUB DUP2 ADD SWAP1 PUSH2 0xF8 SWAP2 SWAP1 PUSH2 0x980 JUMP JUMPDEST PUSH2 0x388 JUMP JUMPDEST STOP JUMPDEST PUSH1 0x1 PUSH1 0x4 SWAP1 SLOAD SWAP1 PUSH2 0x100 EXP SWAP1 DIV PUSH4 0xFFFFFFFF AND DUP2 JUMP JUMPDEST PUSH1 0x0 PUSH1 0x20 MSTORE DUP1 PUSH1 0x0 MSTORE PUSH1 0x40 PUSH1 0x0 KECCAK256 PUSH1 0x0 SWAP2 POP SWAP1 POP DUP1 PUSH1 0x0 ADD DUP1 SLOAD PUSH2 0x138 SWAP1 PUSH2 0xA0B JUMP JUMPDEST DUP1 PUSH1 0x1F ADD PUSH1 0x20 DUP1 SWAP2 DIV MUL PUSH1 0x20 ADD PUSH1 0x40 MLOAD SWAP1 DUP2 ADD PUSH1 0x40 MSTORE DUP1 SWAP3 SWAP2 SWAP1 DUP2 DUP2 MSTORE PUSH1 0x20 ADD DUP3 DUP1 SLOAD PUSH2 0x164 SWAP1 PUSH2 0xA0B JUMP JUMPDEST DUP1 ISZERO PUSH2 0x1B1 JUMPI DUP1 PUSH1 0x1F LT PUSH2 0x186 JUMPI PUSH2 0x100 DUP1 DUP4 SLOAD DIV MUL DUP4 MSTORE SWAP2 PUSH1 0x20 ADD SWAP2 PUSH2 0x1B1 JUMP JUMPDEST DUP3 ADD SWAP2 SWAP1 PUSH1 0x0 MSTORE PUSH1 0x20 PUSH1 0x0 KECCAK256 SWAP1 JUMPDEST DUP2 SLOAD DUP2 MSTORE SWAP1 PUSH1 0x1 ADD SWAP1 PUSH1 0x20 ADD DUP1 DUP4 GT PUSH2 0x194 JUMPI DUP3 SWAP1 SUB PUSH1 0x1F AND DUP3 ADD SWAP2 JUMPDEST POP POP POP POP POP SWAP1 DUP1 PUSH1 0x1 ADD PUSH1 0x0 SWAP1 SLOAD SWAP1 PUSH2 0x100 EXP SWAP1 DIV PUSH2 0xFFFF AND SWAP1 POP DUP3 JUMP JUMPDEST PUSH1 0x1 PUSH1 0x0 DUP2 DUP2 SWAP1 SLOAD SWAP1 PUSH2 0x100 EXP SWAP1 DIV PUSH4 0xFFFFFFFF AND DUP1 SWAP3 SWAP2 SWAP1 PUSH2 0x1F1 SWAP1 PUSH2 0xA6B JUMP JUMPDEST SWAP2 SWAP1 PUSH2 0x100 EXP DUP2 SLOAD DUP2 PUSH4 0xFFFFFFFF MUL NOT AND SWAP1 DUP4 PUSH4 0xFFFFFFFF AND MUL OR SWAP1 SSTORE POP POP DUP1 PUSH1 0x0 DUP1 PUSH1 0x1 PUSH1 0x0 SWAP1 SLOAD SWAP1 PUSH2 0x100 EXP SWAP1 DIV PUSH4 0xFFFFFFFF AND PUSH4 0xFFFFFFFF AND PUSH4 0xFFFFFFFF AND DUP2 MSTORE PUSH1 0x20 ADD SWAP1 DUP2 MSTORE PUSH1 0x20 ADD PUSH1 0x0 KECCAK256 PUSH1 0x0 DUP3 ADD MLOAD DUP2 PUSH1 0x0 ADD SWAP1 DUP2 PUSH2 0x256 SWAP2 SWAP1 PUSH2 0xC4D JUMP JUMPDEST POP PUSH1 0x20 DUP3 ADD MLOAD DUP2 PUSH1 0x1 ADD PUSH1 0x0 PUSH2 0x100 EXP DUP2 SLOAD DUP2 PUSH2 0xFFFF MUL NOT AND SWAP1 DUP4 PUSH2 0xFFFF AND MUL OR SWAP1 SSTORE POP SWAP1 POP POP PUSH1 0x1 PUSH1 0x4 DUP2 DUP2 SWAP1 SLOAD SWAP1 PUSH2 0x100 EXP SWAP1 DIV PUSH4 0xFFFFFFFF AND DUP1 SWAP3 SWAP2 SWAP1 PUSH2 0x29F SWAP1 PUSH2 0xA6B JUMP JUMPDEST SWAP2 SWAP1 PUSH2 0x100 EXP DUP2 SLOAD DUP2 PUSH4 0xFFFFFFFF MUL NOT AND SWAP1 DUP4 PUSH4 0xFFFFFFFF AND MUL OR SWAP1 SSTORE POP POP POP JUMP JUMPDEST PUSH1 0x0 DUP1 PUSH1 0x0 DUP4 PUSH4 0xFFFFFFFF AND PUSH4 0xFFFFFFFF AND DUP2 MSTORE PUSH1 0x20 ADD SWAP1 DUP2 MSTORE PUSH1 0x20 ADD PUSH1 0x0 KECCAK256 PUSH1 0x1 ADD PUSH1 0x0 SWAP1 SLOAD SWAP1 PUSH2 0x100 EXP SWAP1 DIV PUSH2 0xFFFF AND PUSH2 0xFFFF AND GT ISZERO PUSH2 0x385 JUMPI PUSH1 0x0 DUP1 DUP3 PUSH4 0xFFFFFFFF AND PUSH4 0xFFFFFFFF AND DUP2 MSTORE PUSH1 0x20 ADD SWAP1 DUP2 MSTORE PUSH1 0x20 ADD PUSH1 0x0 KECCAK256 PUSH1 0x0 DUP1 DUP3 ADD PUSH1 0x0 PUSH2 0x32C SWAP2 SWAP1 PUSH2 0x57F JUMP JUMPDEST PUSH1 0x1 DUP3 ADD PUSH1 0x0 PUSH2 0x100 EXP DUP2 SLOAD SWAP1 PUSH2 0xFFFF MUL NOT AND SWAP1 SSTORE POP POP PUSH1 0x1 PUSH1 0x4 DUP2 DUP2 SWAP1 SLOAD SWAP1 PUSH2 0x100 EXP SWAP1 DIV PUSH4 0xFFFFFFFF AND DUP1 SWAP3 SWAP2 SWAP1 PUSH2 0x365 SWAP1 PUSH2 0xD1F JUMP JUMPDEST SWAP2 SWAP1 PUSH2 0x100 EXP DUP2 SLOAD DUP2 PUSH4 0xFFFFFFFF MUL NOT AND SWAP1 DUP4 PUSH4 0xFFFFFFFF AND MUL OR SWAP1 SSTORE POP POP JUMPDEST POP JUMP JUMPDEST PUSH1 0x0 DUP1 PUSH1 0x0 DUP5 PUSH4 0xFFFFFFFF AND PUSH4 0xFFFFFFFF AND DUP2 MSTORE PUSH1 0x20 ADD SWAP1 DUP2 MSTORE PUSH1 0x20 ADD PUSH1 0x0 KECCAK256 PUSH1 0x40 MLOAD DUP1 PUSH1 0x40 ADD PUSH1 0x40 MSTORE SWAP1 DUP2 PUSH1 0x0 DUP3 ADD DUP1 SLOAD PUSH2 0x3C3 SWAP1 PUSH2 0xA0B JUMP JUMPDEST DUP1 PUSH1 0x1F ADD PUSH1 0x20 DUP1 SWAP2 DIV MUL PUSH1 0x20 ADD PUSH1 0x40 MLOAD SWAP1 DUP2 ADD PUSH1 0x40 MSTORE DUP1 SWAP3 SWAP2 SWAP1 DUP2 DUP2 MSTORE PUSH1 0x20 ADD DUP3 DUP1 SLOAD PUSH2 0x3EF SWAP1 PUSH2 0xA0B JUMP JUMPDEST DUP1 ISZERO PUSH2 0x43C JUMPI DUP1 PUSH1 0x1F LT PUSH2 0x411 JUMPI PUSH2 0x100 DUP1 DUP4 SLOAD DIV MUL DUP4 MSTORE SWAP2 PUSH1 0x20 ADD SWAP2 PUSH2 0x43C JUMP JUMPDEST DUP3 ADD SWAP2 SWAP1 PUSH1 0x0 MSTORE PUSH1 0x20 PUSH1 0x0 KECCAK256 SWAP1 JUMPDEST DUP2 SLOAD DUP2 MSTORE SWAP1 PUSH1 0x1 ADD SWAP1 PUSH1 0x20 ADD DUP1 DUP4 GT PUSH2 0x41F JUMPI DUP3 SWAP1 SUB PUSH1 0x1F AND DUP3 ADD SWAP2 JUMPDEST POP POP POP POP POP DUP2 MSTORE PUSH1 0x20 ADD PUSH1 0x1 DUP3 ADD PUSH1 0x0 SWAP1 SLOAD SWAP1 PUSH2 0x100 EXP SWAP1 DIV PUSH2 0xFFFF AND PUSH2 0xFFFF AND PUSH2 0xFFFF AND DUP2 MSTORE POP POP SWAP1 POP PUSH2 0x484 DUP3 PUSH1 0x0 ADD MLOAD PUSH1 0x40 MLOAD DUP1 PUSH1 0x20 ADD PUSH1 0x40 MSTORE DUP1 PUSH1 0x0 DUP2 MSTORE POP PUSH2 0x54C JUMP JUMPDEST ISZERO DUP1 ISZERO PUSH2 0x4A0 JUMPI POP PUSH2 0x49E DUP2 PUSH1 0x0 ADD MLOAD DUP4 PUSH1 0x0 ADD MLOAD PUSH2 0x54C JUMP JUMPDEST ISZERO JUMPDEST ISZERO PUSH2 0x4D9 JUMPI DUP2 PUSH1 0x0 ADD MLOAD PUSH1 0x0 DUP1 DUP6 PUSH4 0xFFFFFFFF AND PUSH4 0xFFFFFFFF AND DUP2 MSTORE PUSH1 0x20 ADD SWAP1 DUP2 MSTORE PUSH1 0x20 ADD PUSH1 0x0 KECCAK256 PUSH1 0x0 ADD SWAP1 DUP2 PUSH2 0x4D7 SWAP2 SWAP1 PUSH2 0xC4D JUMP JUMPDEST POP JUMPDEST PUSH1 0x0 DUP3 PUSH1 0x20 ADD MLOAD PUSH2 0xFFFF AND GT DUP1 ISZERO PUSH2 0x501 JUMPI POP DUP2 PUSH1 0x20 ADD MLOAD PUSH2 0xFFFF AND DUP2 PUSH1 0x20 ADD MLOAD PUSH2 0xFFFF AND EQ ISZERO JUMPDEST ISZERO PUSH2 0x547 JUMPI DUP2 PUSH1 0x20 ADD MLOAD PUSH1 0x0 DUP1 DUP6 PUSH4 0xFFFFFFFF AND PUSH4 0xFFFFFFFF AND DUP2 MSTORE PUSH1 0x20 ADD SWAP1 DUP2 MSTORE PUSH1 0x20 ADD PUSH1 0x0 KECCAK256 PUSH1 0x1 ADD PUSH1 0x0 PUSH2 0x100 EXP DUP2 SLOAD DUP2 PUSH2 0xFFFF MUL NOT AND SWAP1 DUP4 PUSH2 0xFFFF AND MUL OR SWAP1 SSTORE POP JUMPDEST POP POP POP JUMP JUMPDEST PUSH1 0x0 DUP1 DUP4 SWAP1 POP PUSH1 0x0 DUP4 SWAP1 POP DUP1 MLOAD DUP3 MLOAD EQ DUP1 ISZERO PUSH2 0x575 JUMPI POP DUP1 DUP1 MLOAD SWAP1 PUSH1 0x20 ADD KECCAK256 DUP3 DUP1 MLOAD SWAP1 PUSH1 0x20 ADD KECCAK256 EQ JUMPDEST SWAP3 POP POP POP SWAP3 SWAP2 POP POP JUMP JUMPDEST POP DUP1 SLOAD PUSH2 0x58B SWAP1 PUSH2 0xA0B JUMP JUMPDEST PUSH1 0x0 DUP3 SSTORE DUP1 PUSH1 0x1F LT PUSH2 0x59D JUMPI POP PUSH2 0x5BC JUMP JUMPDEST PUSH1 0x1F ADD PUSH1 0x20 SWAP1 DIV SWAP1 PUSH1 0x0 MSTORE PUSH1 0x20 PUSH1 0x0 KECCAK256 SWAP1 DUP2 ADD SWAP1 PUSH2 0x5BB SWAP2 SWAP1 PUSH2 0x5BF JUMP JUMPDEST JUMPDEST POP JUMP JUMPDEST JUMPDEST DUP1 DUP3 GT ISZERO PUSH2 0x5D8 JUMPI PUSH1 0x0 DUP2 PUSH1 0x0 SWAP1 SSTORE POP PUSH1 0x1 ADD PUSH2 0x5C0 JUMP JUMPDEST POP SWAP1 JUMP JUMPDEST PUSH1 0x0 PUSH4 0xFFFFFFFF DUP3 AND SWAP1 POP SWAP2 SWAP1 POP JUMP JUMPDEST PUSH2 0x5F5 DUP2 PUSH2 0x5DC JUMP JUMPDEST DUP3 MSTORE POP POP JUMP JUMPDEST PUSH1 0x0 PUSH1 0x20 DUP3 ADD SWAP1 POP PUSH2 0x610 PUSH1 0x0 DUP4 ADD DUP5 PUSH2 0x5EC JUMP JUMPDEST SWAP3 SWAP2 POP POP JUMP JUMPDEST PUSH1 0x0 PUSH1 0x40 MLOAD SWAP1 POP SWAP1 JUMP JUMPDEST PUSH1 0x0 DUP1 REVERT JUMPDEST PUSH1 0x0 DUP1 REVERT JUMPDEST PUSH2 0x633 DUP2 PUSH2 0x5DC JUMP JUMPDEST DUP2 EQ PUSH2 0x63E JUMPI PUSH1 0x0 DUP1 REVERT JUMPDEST POP JUMP JUMPDEST PUSH1 0x0 DUP2 CALLDATALOAD SWAP1 POP PUSH2 0x650 DUP2 PUSH2 0x62A JUMP JUMPDEST SWAP3 SWAP2 POP POP JUMP JUMPDEST PUSH1 0x0 PUSH1 0x20 DUP3 DUP5 SUB SLT ISZERO PUSH2 0x66C JUMPI PUSH2 0x66B PUSH2 0x620 JUMP JUMPDEST JUMPDEST PUSH1 0x0 PUSH2 0x67A DUP5 DUP3 DUP6 ADD PUSH2 0x641 JUMP JUMPDEST SWAP2 POP POP SWAP3 SWAP2 POP POP JUMP JUMPDEST PUSH1 0x0 DUP2 MLOAD SWAP1 POP SWAP2 SWAP1 POP JUMP JUMPDEST PUSH1 0x0 DUP3 DUP3 MSTORE PUSH1 0x20 DUP3 ADD SWAP1 POP SWAP3 SWAP2 POP POP JUMP JUMPDEST PUSH1 0x0 JUMPDEST DUP4 DUP2 LT ISZERO PUSH2 0x6BD JUMPI DUP1 DUP3 ADD MLOAD DUP2 DUP5 ADD MSTORE PUSH1 0x20 DUP2 ADD SWAP1 POP PUSH2 0x6A2 JUMP JUMPDEST PUSH1 0x0 DUP5 DUP5 ADD MSTORE POP POP POP POP JUMP JUMPDEST PUSH1 0x0 PUSH1 0x1F NOT PUSH1 0x1F DUP4 ADD AND SWAP1 POP SWAP2 SWAP1 POP JUMP JUMPDEST PUSH1 0x0 PUSH2 0x6E5 DUP3 PUSH2 0x683 JUMP JUMPDEST PUSH2 0x6EF DUP2 DUP6 PUSH2 0x68E JUMP JUMPDEST SWAP4 POP PUSH2 0x6FF DUP2 DUP6 PUSH1 0x20 DUP7 ADD PUSH2 0x69F JUMP JUMPDEST PUSH2 0x708 DUP2 PUSH2 0x6C9 JUMP JUMPDEST DUP5 ADD SWAP2 POP POP SWAP3 SWAP2 POP POP JUMP JUMPDEST PUSH1 0x0 PUSH2 0xFFFF DUP3 AND SWAP1 POP SWAP2 SWAP1 POP JUMP JUMPDEST PUSH2 0x72A DUP2 PUSH2 0x713 JUMP JUMPDEST DUP3 MSTORE POP POP JUMP JUMPDEST PUSH1 0x0 PUSH1 0x40 DUP3 ADD SWAP1 POP DUP2 DUP2 SUB PUSH1 0x0 DUP4 ADD MSTORE PUSH2 0x74A DUP2 DUP6 PUSH2 0x6DA JUMP JUMPDEST SWAP1 POP PUSH2 0x759 PUSH1 0x20 DUP4 ADD DUP5 PUSH2 0x721 JUMP JUMPDEST SWAP4 SWAP3 POP POP POP JUMP JUMPDEST PUSH1 0x0 DUP1 REVERT JUMPDEST PUSH32 0x4E487B7100000000000000000000000000000000000000000000000000000000 PUSH1 0x0 MSTORE PUSH1 0x41 PUSH1 0x4 MSTORE PUSH1 0x24 PUSH1 0x0 REVERT JUMPDEST PUSH2 0x79D DUP3 PUSH2 0x6C9 JUMP JUMPDEST DUP2 ADD DUP2 DUP2 LT PUSH8 0xFFFFFFFFFFFFFFFF DUP3 GT OR ISZERO PUSH2 0x7BC JUMPI PUSH2 0x7BB PUSH2 0x765 JUMP JUMPDEST JUMPDEST DUP1 PUSH1 0x40 MSTORE POP POP POP JUMP JUMPDEST PUSH1 0x0 PUSH2 0x7CF PUSH2 0x616 JUMP JUMPDEST SWAP1 POP PUSH2 0x7DB DUP3 DUP3 PUSH2 0x794 JUMP JUMPDEST SWAP2 SWAP1 POP JUMP JUMPDEST PUSH1 0x0 DUP1 REVERT JUMPDEST PUSH1 0x0 DUP1 REVERT JUMPDEST PUSH1 0x0 DUP1 REVERT JUMPDEST PUSH1 0x0 PUSH8 0xFFFFFFFFFFFFFFFF DUP3 GT ISZERO PUSH2 0x80A JUMPI PUSH2 0x809 PUSH2 0x765 JUMP JUMPDEST JUMPDEST PUSH2 0x813 DUP3 PUSH2 0x6C9 JUMP JUMPDEST SWAP1 POP PUSH1 0x20 DUP2 ADD SWAP1 POP SWAP2 SWAP1 POP JUMP JUMPDEST DUP3 DUP2 DUP4 CALLDATACOPY PUSH1 0x0 DUP4 DUP4 ADD MSTORE POP POP POP JUMP JUMPDEST PUSH1 0x0 PUSH2 0x842 PUSH2 0x83D DUP5 PUSH2 0x7EF JUMP JUMPDEST PUSH2 0x7C5 JUMP JUMPDEST SWAP1 POP DUP3 DUP2 MSTORE PUSH1 0x20 DUP2 ADD DUP5 DUP5 DUP5 ADD GT ISZERO PUSH2 0x85E JUMPI PUSH2 0x85D PUSH2 0x7EA JUMP JUMPDEST JUMPDEST PUSH2 0x869 DUP5 DUP3 DUP6 PUSH2 0x820 JUMP JUMPDEST POP SWAP4 SWAP3 POP POP POP JUMP JUMPDEST PUSH1 0x0 DUP3 PUSH1 0x1F DUP4 ADD SLT PUSH2 0x886 JUMPI PUSH2 0x885 PUSH2 0x7E5 JUMP JUMPDEST JUMPDEST DUP2 CALLDATALOAD PUSH2 0x896 DUP5 DUP3 PUSH1 0x20 DUP7 ADD PUSH2 0x82F JUMP JUMPDEST SWAP2 POP POP SWAP3 SWAP2 POP POP JUMP JUMPDEST PUSH2 0x8A8 DUP2 PUSH2 0x713 JUMP JUMPDEST DUP2 EQ PUSH2 0x8B3 JUMPI PUSH1 0x0 DUP1 REVERT JUMPDEST POP JUMP JUMPDEST PUSH1 0x0 DUP2 CALLDATALOAD SWAP1 POP PUSH2 0x8C5 DUP2 PUSH2 0x89F JUMP JUMPDEST SWAP3 SWAP2 POP POP JUMP JUMPDEST PUSH1 0x0 PUSH1 0x40 DUP3 DUP5 SUB SLT ISZERO PUSH2 0x8E1 JUMPI PUSH2 0x8E0 PUSH2 0x760 JUMP JUMPDEST JUMPDEST PUSH2 0x8EB PUSH1 0x40 PUSH2 0x7C5 JUMP JUMPDEST SWAP1 POP PUSH1 0x0 DUP3 ADD CALLDATALOAD PUSH8 0xFFFFFFFFFFFFFFFF DUP2 GT ISZERO PUSH2 0x90B JUMPI PUSH2 0x90A PUSH2 0x7E0 JUMP JUMPDEST JUMPDEST PUSH2 0x917 DUP5 DUP3 DUP6 ADD PUSH2 0x871 JUMP JUMPDEST PUSH1 0x0 DUP4 ADD MSTORE POP PUSH1 0x20 PUSH2 0x92B DUP5 DUP3 DUP6 ADD PUSH2 0x8B6 JUMP JUMPDEST PUSH1 0x20 DUP4 ADD MSTORE POP SWAP3 SWAP2 POP POP JUMP JUMPDEST PUSH1 0x0 PUSH1 0x20 DUP3 DUP5 SUB SLT ISZERO PUSH2 0x94D JUMPI PUSH2 0x94C PUSH2 0x620 JUMP JUMPDEST JUMPDEST PUSH1 0x0 DUP3 ADD CALLDATALOAD PUSH8 0xFFFFFFFFFFFFFFFF DUP2 GT ISZERO PUSH2 0x96B JUMPI PUSH2 0x96A PUSH2 0x625 JUMP JUMPDEST JUMPDEST PUSH2 0x977 DUP5 DUP3 DUP6 ADD PUSH2 0x8CB JUMP JUMPDEST SWAP2 POP POP SWAP3 SWAP2 POP POP JUMP JUMPDEST PUSH1 0x0 DUP1 PUSH1 0x40 DUP4 DUP6 SUB SLT ISZERO PUSH2 0x997 JUMPI PUSH2 0x996 PUSH2 0x620 JUMP JUMPDEST JUMPDEST PUSH1 0x0 PUSH2 0x9A5 DUP6 DUP3 DUP7 ADD PUSH2 0x641 JUMP JUMPDEST SWAP3 POP POP PUSH1 0x20 DUP4 ADD CALLDATALOAD PUSH8 0xFFFFFFFFFFFFFFFF DUP2 GT ISZERO PUSH2 0x9C6 JUMPI PUSH2 0x9C5 PUSH2 0x625 JUMP JUMPDEST JUMPDEST PUSH2 0x9D2 DUP6 DUP3 DUP7 ADD PUSH2 0x8CB JUMP JUMPDEST SWAP2 POP POP SWAP3 POP SWAP3 SWAP1 POP JUMP JUMPDEST PUSH32 0x4E487B7100000000000000000000000000000000000000000000000000000000 PUSH1 0x0 MSTORE PUSH1 0x22 PUSH1 0x4 MSTORE PUSH1 0x24 PUSH1 0x0 REVERT JUMPDEST PUSH1 0x0 PUSH1 0x2 DUP3 DIV SWAP1 POP PUSH1 0x1 DUP3 AND DUP1 PUSH2 0xA23 JUMPI PUSH1 0x7F DUP3 AND SWAP2 POP JUMPDEST PUSH1 0x20 DUP3 LT DUP2 SUB PUSH2 0xA36 JUMPI PUSH2 0xA35 PUSH2 0x9DC JUMP JUMPDEST JUMPDEST POP SWAP2 SWAP1 POP JUMP JUMPDEST PUSH32 0x4E487B7100000000000000000000000000000000000000000000000000000000 PUSH1 0x0 MSTORE PUSH1 0x11 PUSH1 0x4 MSTORE PUSH1 0x24 PUSH1 0x0 REVERT JUMPDEST PUSH1 0x0 PUSH2 0xA76 DUP3 PUSH2 0x5DC JUMP JUMPDEST SWAP2 POP PUSH4 0xFFFFFFFF DUP3 SUB PUSH2 0xA8C JUMPI PUSH2 0xA8B PUSH2 0xA3C JUMP JUMPDEST JUMPDEST PUSH1 0x1 DUP3 ADD SWAP1 POP SWAP2 SWAP1 POP JUMP JUMPDEST PUSH1 0x0 DUP2 SWAP1 POP DUP2 PUSH1 0x0 MSTORE PUSH1 0x20 PUSH1 0x0 KECCAK256 SWAP1 POP SWAP2 SWAP1 POP JUMP JUMPDEST PUSH1 0x0 PUSH1 0x20 PUSH1 0x1F DUP4 ADD DIV SWAP1 POP SWAP2 SWAP1 POP JUMP JUMPDEST PUSH1 0x0 DUP3 DUP3 SHL SWAP1 POP SWAP3 SWAP2 POP POP JUMP JUMPDEST PUSH1 0x0 PUSH1 0x8 DUP4 MUL PUSH2 0xAF9 PUSH32 0xFFFFFFFFFFFFFFFFFFFFFFFFFFFFFFFFFFFFFFFFFFFFFFFFFFFFFFFFFFFFFFFF DUP3 PUSH2 0xABC JUMP JUMPDEST PUSH2 0xB03 DUP7 DUP4 PUSH2 0xABC JUMP JUMPDEST SWAP6 POP DUP1 NOT DUP5 AND SWAP4 POP DUP1 DUP7 AND DUP5 OR SWAP3 POP POP POP SWAP4 SWAP3 POP POP POP JUMP JUMPDEST PUSH1 0x0 DUP2 SWAP1 POP SWAP2 SWAP1 POP JUMP JUMPDEST PUSH1 0x0 DUP2 SWAP1 POP SWAP2 SWAP1 POP JUMP JUMPDEST PUSH1 0x0 PUSH2 0xB4A PUSH2 0xB45 PUSH2 0xB40 DUP5 PUSH2 0xB1B JUMP JUMPDEST PUSH2 0xB25 JUMP JUMPDEST PUSH2 0xB1B JUMP JUMPDEST SWAP1 POP SWAP2 SWAP1 POP JUMP JUMPDEST PUSH1 0x0 DUP2 SWAP1 POP SWAP2 SWAP1 POP JUMP JUMPDEST PUSH2 0xB64 DUP4 PUSH2 0xB2F JUMP JUMPDEST PUSH2 0xB78 PUSH2 0xB70 DUP3 PUSH2 0xB51 JUMP JUMPDEST DUP5 DUP5 SLOAD PUSH2 0xAC9 JUMP JUMPDEST DUP3 SSTORE POP POP POP POP JUMP JUMPDEST PUSH1 0x0 SWAP1 JUMP JUMPDEST PUSH2 0xB8D PUSH2 0xB80 JUMP JUMPDEST PUSH2 0xB98 DUP2 DUP5 DUP5 PUSH2 0xB5B JUMP JUMPDEST POP POP POP JUMP JUMPDEST JUMPDEST DUP2 DUP2 LT ISZERO PUSH2 0xBBC JUMPI PUSH2 0xBB1 PUSH1 0x0 DUP3 PUSH2 0xB85 JUMP JUMPDEST PUSH1 0x1 DUP2 ADD SWAP1 POP PUSH2 0xB9E JUMP JUMPDEST POP POP JUMP JUMPDEST PUSH1 0x1F DUP3 GT ISZERO PUSH2 0xC01 JUMPI PUSH2 0xBD2 DUP2 PUSH2 0xA97 JUMP JUMPDEST PUSH2 0xBDB DUP5 PUSH2 0xAAC JUMP JUMPDEST DUP2 ADD PUSH1 0x20 DUP6 LT ISZERO PUSH2 0xBEA JUMPI DUP2 SWAP1 POP JUMPDEST PUSH2 0xBFE PUSH2 0xBF6 DUP6 PUSH2 0xAAC JUMP JUMPDEST DUP4 ADD DUP3 PUSH2 0xB9D JUMP JUMPDEST POP POP JUMPDEST POP POP POP JUMP JUMPDEST PUSH1 0x0 DUP3 DUP3 SHR SWAP1 POP SWAP3 SWAP2 POP POP JUMP JUMPDEST PUSH1 0x0 PUSH2 0xC24 PUSH1 0x0 NOT DUP5 PUSH1 0x8 MUL PUSH2 0xC06 JUMP JUMPDEST NOT DUP1 DUP4 AND SWAP2 POP POP SWAP3 SWAP2 POP POP JUMP JUMPDEST PUSH1 0x0 PUSH2 0xC3D DUP4 DUP4 PUSH2 0xC13 JUMP JUMPDEST SWAP2 POP DUP3 PUSH1 0x2 MUL DUP3 OR SWAP1 POP SWAP3 SWAP2 POP POP JUMP JUMPDEST PUSH2 0xC56 DUP3 PUSH2 0x683 JUMP JUMPDEST PUSH8 0xFFFFFFFFFFFFFFFF DUP2 GT ISZERO PUSH2 0xC6F JUMPI PUSH2 0xC6E PUSH2 0x765 JUMP JUMPDEST JUMPDEST PUSH2 0xC79 DUP3 SLOAD PUSH2 0xA0B JUMP JUMPDEST PUSH2 0xC84 DUP3 DUP3 DUP6 PUSH2 0xBC0 JUMP JUMPDEST PUSH1 0x0 PUSH1 0x20 SWAP1 POP PUSH1 0x1F DUP4 GT PUSH1 0x1 DUP2 EQ PUSH2 0xCB7 JUMPI PUSH1 0x0 DUP5 ISZERO PUSH2 0xCA5 JUMPI DUP3 DUP8 ADD MLOAD SWAP1 POP JUMPDEST PUSH2 0xCAF DUP6 DUP3 PUSH2 0xC31 JUMP JUMPDEST DUP7 SSTORE POP PUSH2 0xD17 JUMP JUMPDEST PUSH1 0x1F NOT DUP5 AND PUSH2 0xCC5 DUP7 PUSH2 0xA97 JUMP JUMPDEST PUSH1 0x0 JUMPDEST DUP3 DUP2 LT ISZERO PUSH2 0xCED JUMPI DUP5 DUP10 ADD MLOAD DUP3 SSTORE PUSH1 0x1 DUP3 ADD SWAP2 POP PUSH1 0x20 DUP6 ADD SWAP5 POP PUSH1 0x20 DUP2 ADD SWAP1 POP PUSH2 0xCC8 JUMP JUMPDEST DUP7 DUP4 LT ISZERO PUSH2 0xD0A JUMPI DUP5 DUP10 ADD MLOAD PUSH2 0xD06 PUSH1 0x1F DUP10 AND DUP3 PUSH2 0xC13 JUMP JUMPDEST DUP4 SSTORE POP JUMPDEST PUSH1 0x1 PUSH1 0x2 DUP9 MUL ADD DUP9 SSTORE POP POP POP JUMPDEST POP POP POP POP POP POP JUMP JUMPDEST PUSH1 0x0 PUSH2 0xD2A DUP3 PUSH2 0x5DC JUMP JUMPDEST SWAP2 POP PUSH1 0x0 DUP3 SUB PUSH2 0xD3D JUMPI PUSH2 0xD3C PUSH2 0xA3C JUMP JUMPDEST JUMPDEST PUSH1 0x1 DUP3 SUB SWAP1 POP SWAP2 SWAP1 POP JUMP INVALID LOG2 PUSH5 0x6970667358 0x22 SLT KECCAK256 0xD7 0x24 0xDF BALANCE CALLDATACOPY GASPRICE SWAP7 LOG0 CREATE2 0xF6 0xC3 SDIV 0xE7 0xE9 AND DELEGATECALL PUSH3 0x197B22 STATICCALL PUSH21 0xDECBD6E56364F2DBD2C364736F6C63430008120033 "
		},
		"gasEstimates": {
			"creation": {
				"codeDepositCost": "690800",
				"executionCost": "49305",
				"totalCost": "740105"
			},
			"external": {
				"addBook((string,uint16))": "infinite",
				"books(uint32)": "infinite",
				"editBook(uint32,(string,uint16))": "infinite",
				"removeBook(uint32)": "infinite",
				"total()": "2499"
			},
			"internal": {
				"compare(string memory,string memory)": "infinite"
			}
		},
		"methodIdentifiers": {
			"addBook((string,uint16))": "b19a4635",
			"books(uint32)": "68d748ca",
			"editBook(uint32,(string,uint16))": "feaeb5ab",
			"removeBook(uint32)": "e9e7ff0c",
			"total()": "2ddbd13a"
		}
	},
	"abi": [
		{
			"inputs": [
				{
					"components": [
						{
							"internalType": "string",
							"name": "title",
							"type": "string"
						},
						{
							"internalType": "uint16",
							"name": "year",
							"type": "uint16"
						}
					],
					"internalType": "struct BookDatabase.Book",
					"name": "newBook",
					"type": "tuple"
				}
			],
			"name": "addBook",
			"outputs": [],
			"stateMutability": "nonpayable",
			"type": "function"
		},
		{
			"inputs": [
				{
					"internalType": "uint32",
					"name": "",
					"type": "uint32"
				}
			],
			"name": "books",
			"outputs": [
				{
					"internalType": "string",
					"name": "title",
					"type": "string"
				},
				{
					"internalType": "uint16",
					"name": "year",
					"type": "uint16"
				}
			],
			"stateMutability": "view",
			"type": "function"
		},
		{
			"inputs": [
				{
					"internalType": "uint32",
					"name": "id",
					"type": "uint32"
				},
				{
					"components": [
						{
							"internalType": "string",
							"name": "title",
							"type": "string"
						},
						{
							"internalType": "uint16",
							"name": "year",
							"type": "uint16"
						}
					],
					"internalType": "struct BookDatabase.Book",
					"name": "newBook",
					"type": "tuple"
				}
			],
			"name": "editBook",
			"outputs": [],
			"stateMutability": "nonpayable",
			"type": "function"
		},
		{
			"inputs": [
				{
					"internalType": "uint32",
					"name": "id",
					"type": "uint32"
				}
			],
			"name": "removeBook",
			"outputs": [],
			"stateMutability": "nonpayable",
			"type": "function"
		},
		{
			"inputs": [],
			"name": "total",
			"outputs": [
				{
					"internalType": "uint32",
					"name": "",
					"type": "uint32"
				}
			],
			"stateMutability": "view",
			"type": "function"
		}
	]
}