{
	"data": {
		"bytecode": {
			"linkReferences": {},
			"object": "60a06040526000600160006101000a81548163ffffffff021916908363ffffffff1602179055506000600160046101000a81548163ffffffff021916908363ffffffff16021790555034801561005457600080fd5b503373ffffffffffffffffffffffffffffffffffffffff1660808173ffffffffffffffffffffffffffffffffffffffff1681525050608051610e786100a460003960006102da0152610e786000f3fe608060405234801561001057600080fd5b50600436106100575760003560e01c80632ddbd13a1461005c57806368d748ca1461007a578063b19a4635146100ab578063e9e7ff0c146100c7578063feaeb5ab146100e3575b600080fd5b6100646100ff565b6040516100719190610689565b60405180910390f35b610094600480360381019061008f91906106e4565b610115565b6040516100a29291906107be565b60405180910390f35b6100c560048036038101906100c091906109c5565b6101cf565b005b6100e160048036038101906100dc91906106e4565b6102c1565b005b6100fd60048036038101906100f89190610a0e565b610416565b005b600160049054906101000a900463ffffffff1681565b600060205280600052604060002060009150905080600001805461013890610a99565b80601f016020809104026020016040519081016040528092919081815260200182805461016490610a99565b80156101b15780601f10610186576101008083540402835291602001916101b1565b820191906000526020600020905b81548152906001019060200180831161019457829003601f168201915b5050505050908060010160009054906101000a900461ffff16905082565b6001600081819054906101000a900463ffffffff16809291906101f190610af9565b91906101000a81548163ffffffff021916908363ffffffff1602179055505080600080600160009054906101000a900463ffffffff1663ffffffff1663ffffffff16815260200190815260200160002060008201518160000190816102569190610cdb565b5060208201518160010160006101000a81548161ffff021916908361ffff1602179055509050506001600481819054906101000a900463ffffffff168092919061029f90610af9565b91906101000a81548163ffffffff021916908363ffffffff1602179055505050565b3373ffffffffffffffffffffffffffffffffffffffff167f000000000000000000000000000000000000000000000000000000000000000073ffffffffffffffffffffffffffffffffffffffff161461034f576040517f08c379a000000000000000000000000000000000000000000000000000000000815260040161034690610df9565b60405180910390fd5b60008060008363ffffffff1663ffffffff16815260200190815260200160002060010160009054906101000a900461ffff1661ffff161115610413576000808263ffffffff1663ffffffff168152602001908152602001600020600080820160006103ba919061060d565b6001820160006101000a81549061ffff021916905550506001600481819054906101000a900463ffffffff16809291906103f390610e19565b91906101000a81548163ffffffff021916908363ffffffff160217905550505b50565b60008060008463ffffffff1663ffffffff16815260200190815260200160002060405180604001604052908160008201805461045190610a99565b80601f016020809104026020016040519081016040528092919081815260200182805461047d90610a99565b80156104ca5780601f1061049f576101008083540402835291602001916104ca565b820191906000526020600020905b8154815290600101906020018083116104ad57829003601f168201915b505050505081526020016001820160009054906101000a900461ffff1661ffff1661ffff168152505090506105128260000151604051806020016040528060008152506105da565b15801561052e575061052c816000015183600001516105da565b155b156105675781600001516000808563ffffffff1663ffffffff16815260200190815260200160002060000190816105659190610cdb565b505b6000826020015161ffff1611801561058f5750816020015161ffff16816020015161ffff1614155b156105d55781602001516000808563ffffffff1663ffffffff16815260200190815260200160002060010160006101000a81548161ffff021916908361ffff1602179055505b505050565b600080839050600083905080518251148015610603575080805190602001208280519060200120145b9250505092915050565b50805461061990610a99565b6000825580601f1061062b575061064a565b601f016020900490600052602060002090810190610649919061064d565b5b50565b5b8082111561066657600081600090555060010161064e565b5090565b600063ffffffff82169050919050565b6106838161066a565b82525050565b600060208201905061069e600083018461067a565b92915050565b6000604051905090565b600080fd5b600080fd5b6106c18161066a565b81146106cc57600080fd5b50565b6000813590506106de816106b8565b92915050565b6000602082840312156106fa576106f96106ae565b5b6000610708848285016106cf565b91505092915050565b600081519050919050565b600082825260208201905092915050565b60005b8381101561074b578082015181840152602081019050610730565b60008484015250505050565b6000601f19601f8301169050919050565b600061077382610711565b61077d818561071c565b935061078d81856020860161072d565b61079681610757565b840191505092915050565b600061ffff82169050919050565b6107b8816107a1565b82525050565b600060408201905081810360008301526107d88185610768565b90506107e760208301846107af565b9392505050565b600080fd5b7f4e487b7100000000000000000000000000000000000000000000000000000000600052604160045260246000fd5b61082b82610757565b810181811067ffffffffffffffff8211171561084a576108496107f3565b5b80604052505050565b600061085d6106a4565b90506108698282610822565b919050565b600080fd5b600080fd5b600080fd5b600067ffffffffffffffff821115610898576108976107f3565b5b6108a182610757565b9050602081019050919050565b82818337600083830152505050565b60006108d06108cb8461087d565b610853565b9050828152602081018484840111156108ec576108eb610878565b5b6108f78482856108ae565b509392505050565b600082601f83011261091457610913610873565b5b81356109248482602086016108bd565b91505092915050565b610936816107a1565b811461094157600080fd5b50565b6000813590506109538161092d565b92915050565b60006040828403121561096f5761096e6107ee565b5b6109796040610853565b9050600082013567ffffffffffffffff8111156109995761099861086e565b5b6109a5848285016108ff565b60008301525060206109b984828501610944565b60208301525092915050565b6000602082840312156109db576109da6106ae565b5b600082013567ffffffffffffffff8111156109f9576109f86106b3565b5b610a0584828501610959565b91505092915050565b60008060408385031215610a2557610a246106ae565b5b6000610a33858286016106cf565b925050602083013567ffffffffffffffff811115610a5457610a536106b3565b5b610a6085828601610959565b9150509250929050565b7f4e487b7100000000000000000000000000000000000000000000000000000000600052602260045260246000fd5b60006002820490506001821680610ab157607f821691505b602082108103610ac457610ac3610a6a565b5b50919050565b7f4e487b7100000000000000000000000000000000000000000000000000000000600052601160045260246000fd5b6000610b048261066a565b915063ffffffff8203610b1a57610b19610aca565b5b600182019050919050565b60008190508160005260206000209050919050565b60006020601f8301049050919050565b600082821b905092915050565b600060088302610b877fffffffffffffffffffffffffffffffffffffffffffffffffffffffffffffffff82610b4a565b610b918683610b4a565b95508019841693508086168417925050509392505050565b6000819050919050565b6000819050919050565b6000610bd8610bd3610bce84610ba9565b610bb3565b610ba9565b9050919050565b6000819050919050565b610bf283610bbd565b610c06610bfe82610bdf565b848454610b57565b825550505050565b600090565b610c1b610c0e565b610c26818484610be9565b505050565b5b81811015610c4a57610c3f600082610c13565b600181019050610c2c565b5050565b601f821115610c8f57610c6081610b25565b610c6984610b3a565b81016020851015610c78578190505b610c8c610c8485610b3a565b830182610c2b565b50505b505050565b600082821c905092915050565b6000610cb260001984600802610c94565b1980831691505092915050565b6000610ccb8383610ca1565b9150826002028217905092915050565b610ce482610711565b67ffffffffffffffff811115610cfd57610cfc6107f3565b5b610d078254610a99565b610d12828285610c4e565b600060209050601f831160018114610d455760008415610d33578287015190505b610d3d8582610cbf565b865550610da5565b601f198416610d5386610b25565b60005b82811015610d7b57848901518255600182019150602085019450602081019050610d56565b86831015610d985784890151610d94601f891682610ca1565b8355505b6001600288020188555050505b505050505050565b7f596f7520646f6e27742068617665207065726d697373696f6e2e000000000000600082015250565b6000610de3601a8361071c565b9150610dee82610dad565b602082019050919050565b60006020820190508181036000830152610e1281610dd6565b9050919050565b6000610e248261066a565b915060008203610e3757610e36610aca565b5b60018203905091905056fea2646970667358221220cc48bcb1a14d8832a39c0392cdfa5525a63e7d84f62a969d384421c2dfe37f1864736f6c63430008120033",
			"opcodes": "PUSH1 0xA0 PUSH1 0x40 MSTORE PUSH1 0x0 PUSH1 0x1 PUSH1 0x0 PUSH2 0x100 EXP DUP2 SLOAD DUP2 PUSH4 0xFFFFFFFF MUL NOT AND SWAP1 DUP4 PUSH4 0xFFFFFFFF AND MUL OR SWAP1 SSTORE POP PUSH1 0x0 PUSH1 0x1 PUSH1 0x4 PUSH2 0x100 EXP DUP2 SLOAD DUP2 PUSH4 0xFFFFFFFF MUL NOT AND SWAP1 DUP4 PUSH4 0xFFFFFFFF AND MUL OR SWAP1 SSTORE POP CALLVALUE DUP1 ISZERO PUSH2 0x54 JUMPI PUSH1 0x0 DUP1 REVERT JUMPDEST POP CALLER PUSH20 0xFFFFFFFFFFFFFFFFFFFFFFFFFFFFFFFFFFFFFFFF AND PUSH1 0x80 DUP2 PUSH20 0xFFFFFFFFFFFFFFFFFFFFFFFFFFFFFFFFFFFFFFFF AND DUP2 MSTORE POP POP PUSH1 0x80 MLOAD PUSH2 0xE78 PUSH2 0xA4 PUSH1 0x0 CODECOPY PUSH1 0x0 PUSH2 0x2DA ADD MSTORE PUSH2 0xE78 PUSH1 0x0 RETURN INVALID PUSH1 0x80 PUSH1 0x40 MSTORE CALLVALUE DUP1 ISZERO PUSH2 0x10 JUMPI PUSH1 0x0 DUP1 REVERT JUMPDEST POP PUSH1 0x4 CALLDATASIZE LT PUSH2 0x57 JUMPI PUSH1 0x0 CALLDATALOAD PUSH1 0xE0 SHR DUP1 PUSH4 0x2DDBD13A EQ PUSH2 0x5C JUMPI DUP1 PUSH4 0x68D748CA EQ PUSH2 0x7A JUMPI DUP1 PUSH4 0xB19A4635 EQ PUSH2 0xAB JUMPI DUP1 PUSH4 0xE9E7FF0C EQ PUSH2 0xC7 JUMPI DUP1 PUSH4 0xFEAEB5AB EQ PUSH2 0xE3 JUMPI JUMPDEST PUSH1 0x0 DUP1 REVERT JUMPDEST PUSH2 0x64 PUSH2 0xFF JUMP JUMPDEST PUSH1 0x40 MLOAD PUSH2 0x71 SWAP2 SWAP1 PUSH2 0x689 JUMP JUMPDEST PUSH1 0x40 MLOAD DUP1 SWAP2 SUB SWAP1 RETURN JUMPDEST PUSH2 0x94 PUSH1 0x4 DUP1 CALLDATASIZE SUB DUP2 ADD SWAP1 PUSH2 0x8F SWAP2 SWAP1 PUSH2 0x6E4 JUMP JUMPDEST PUSH2 0x115 JUMP JUMPDEST PUSH1 0x40 MLOAD PUSH2 0xA2 SWAP3 SWAP2 SWAP1 PUSH2 0x7BE JUMP JUMPDEST PUSH1 0x40 MLOAD DUP1 SWAP2 SUB SWAP1 RETURN JUMPDEST PUSH2 0xC5 PUSH1 0x4 DUP1 CALLDATASIZE SUB DUP2 ADD SWAP1 PUSH2 0xC0 SWAP2 SWAP1 PUSH2 0x9C5 JUMP JUMPDEST PUSH2 0x1CF JUMP JUMPDEST STOP JUMPDEST PUSH2 0xE1 PUSH1 0x4 DUP1 CALLDATASIZE SUB DUP2 ADD SWAP1 PUSH2 0xDC SWAP2 SWAP1 PUSH2 0x6E4 JUMP JUMPDEST PUSH2 0x2C1 JUMP JUMPDEST STOP JUMPDEST PUSH2 0xFD PUSH1 0x4 DUP1 CALLDATASIZE SUB DUP2 ADD SWAP1 PUSH2 0xF8 SWAP2 SWAP1 PUSH2 0xA0E JUMP JUMPDEST PUSH2 0x416 JUMP JUMPDEST STOP JUMPDEST PUSH1 0x1 PUSH1 0x4 SWAP1 SLOAD SWAP1 PUSH2 0x100 EXP SWAP1 DIV PUSH4 0xFFFFFFFF AND DUP2 JUMP JUMPDEST PUSH1 0x0 PUSH1 0x20 MSTORE DUP1 PUSH1 0x0 MSTORE PUSH1 0x40 PUSH1 0x0 KECCAK256 PUSH1 0x0 SWAP2 POP SWAP1 POP DUP1 PUSH1 0x0 ADD DUP1 SLOAD PUSH2 0x138 SWAP1 PUSH2 0xA99 JUMP JUMPDEST DUP1 PUSH1 0x1F ADD PUSH1 0x20 DUP1 SWAP2 DIV MUL PUSH1 0x20 ADD PUSH1 0x40 MLOAD SWAP1 DUP2 ADD PUSH1 0x40 MSTORE DUP1 SWAP3 SWAP2 SWAP1 DUP2 DUP2 MSTORE PUSH1 0x20 ADD DUP3 DUP1 SLOAD PUSH2 0x164 SWAP1 PUSH2 0xA99 JUMP JUMPDEST DUP1 ISZERO PUSH2 0x1B1 JUMPI DUP1 PUSH1 0x1F LT PUSH2 0x186 JUMPI PUSH2 0x100 DUP1 DUP4 SLOAD DIV MUL DUP4 MSTORE SWAP2 PUSH1 0x20 ADD SWAP2 PUSH2 0x1B1 JUMP JUMPDEST DUP3 ADD SWAP2 SWAP1 PUSH1 0x0 MSTORE PUSH1 0x20 PUSH1 0x0 KECCAK256 SWAP1 JUMPDEST DUP2 SLOAD DUP2 MSTORE SWAP1 PUSH1 0x1 ADD SWAP1 PUSH1 0x20 ADD DUP1 DUP4 GT PUSH2 0x194 JUMPI DUP3 SWAP1 SUB PUSH1 0x1F AND DUP3 ADD SWAP2 JUMPDEST POP POP POP POP POP SWAP1 DUP1 PUSH1 0x1 ADD PUSH1 0x0 SWAP1 SLOAD SWAP1 PUSH2 0x100 EXP SWAP1 DIV PUSH2 0xFFFF AND SWAP1 POP DUP3 JUMP JUMPDEST PUSH1 0x1 PUSH1 0x0 DUP2 DUP2 SWAP1 SLOAD SWAP1 PUSH2 0x100 EXP SWAP1 DIV PUSH4 0xFFFFFFFF AND DUP1 SWAP3 SWAP2 SWAP1 PUSH2 0x1F1 SWAP1 PUSH2 0xAF9 JUMP JUMPDEST SWAP2 SWAP1 PUSH2 0x100 EXP DUP2 SLOAD DUP2 PUSH4 0xFFFFFFFF MUL NOT AND SWAP1 DUP4 PUSH4 0xFFFFFFFF AND MUL OR SWAP1 SSTORE POP POP DUP1 PUSH1 0x0 DUP1 PUSH1 0x1 PUSH1 0x0 SWAP1 SLOAD SWAP1 PUSH2 0x100 EXP SWAP1 DIV PUSH4 0xFFFFFFFF AND PUSH4 0xFFFFFFFF AND PUSH4 0xFFFFFFFF AND DUP2 MSTORE PUSH1 0x20 ADD SWAP1 DUP2 MSTORE PUSH1 0x20 ADD PUSH1 0x0 KECCAK256 PUSH1 0x0 DUP3 ADD MLOAD DUP2 PUSH1 0x0 ADD SWAP1 DUP2 PUSH2 0x256 SWAP2 SWAP1 PUSH2 0xCDB JUMP JUMPDEST POP PUSH1 0x20 DUP3 ADD MLOAD DUP2 PUSH1 0x1 ADD PUSH1 0x0 PUSH2 0x100 EXP DUP2 SLOAD DUP2 PUSH2 0xFFFF MUL NOT AND SWAP1 DUP4 PUSH2 0xFFFF AND MUL OR SWAP1 SSTORE POP SWAP1 POP POP PUSH1 0x1 PUSH1 0x4 DUP2 DUP2 SWAP1 SLOAD SWAP1 PUSH2 0x100 EXP SWAP1 DIV PUSH4 0xFFFFFFFF AND DUP1 SWAP3 SWAP2 SWAP1 PUSH2 0x29F SWAP1 PUSH2 0xAF9 JUMP JUMPDEST SWAP2 SWAP1 PUSH2 0x100 EXP DUP2 SLOAD DUP2 PUSH4 0xFFFFFFFF MUL NOT AND SWAP1 DUP4 PUSH4 0xFFFFFFFF AND MUL OR SWAP1 SSTORE POP POP POP JUMP JUMPDEST CALLER PUSH20 0xFFFFFFFFFFFFFFFFFFFFFFFFFFFFFFFFFFFFFFFF AND PUSH32 0x0 PUSH20 0xFFFFFFFFFFFFFFFFFFFFFFFFFFFFFFFFFFFFFFFF AND EQ PUSH2 0x34F JUMPI PUSH1 0x40 MLOAD PUSH32 0x8C379A000000000000000000000000000000000000000000000000000000000 DUP2 MSTORE PUSH1 0x4 ADD PUSH2 0x346 SWAP1 PUSH2 0xDF9 JUMP JUMPDEST PUSH1 0x40 MLOAD DUP1 SWAP2 SUB SWAP1 REVERT JUMPDEST PUSH1 0x0 DUP1 PUSH1 0x0 DUP4 PUSH4 0xFFFFFFFF AND PUSH4 0xFFFFFFFF AND DUP2 MSTORE PUSH1 0x20 ADD SWAP1 DUP2 MSTORE PUSH1 0x20 ADD PUSH1 0x0 KECCAK256 PUSH1 0x1 ADD PUSH1 0x0 SWAP1 SLOAD SWAP1 PUSH2 0x100 EXP SWAP1 DIV PUSH2 0xFFFF AND PUSH2 0xFFFF AND GT ISZERO PUSH2 0x413 JUMPI PUSH1 0x0 DUP1 DUP3 PUSH4 0xFFFFFFFF AND PUSH4 0xFFFFFFFF AND DUP2 MSTORE PUSH1 0x20 ADD SWAP1 DUP2 MSTORE PUSH1 0x20 ADD PUSH1 0x0 KECCAK256 PUSH1 0x0 DUP1 DUP3 ADD PUSH1 0x0 PUSH2 0x3BA SWAP2 SWAP1 PUSH2 0x60D JUMP JUMPDEST PUSH1 0x1 DUP3 ADD PUSH1 0x0 PUSH2 0x100 EXP DUP2 SLOAD SWAP1 PUSH2 0xFFFF MUL NOT AND SWAP1 SSTORE POP POP PUSH1 0x1 PUSH1 0x4 DUP2 DUP2 SWAP1 SLOAD SWAP1 PUSH2 0x100 EXP SWAP1 DIV PUSH4 0xFFFFFFFF AND DUP1 SWAP3 SWAP2 SWAP1 PUSH2 0x3F3 SWAP1 PUSH2 0xE19 JUMP JUMPDEST SWAP2 SWAP1 PUSH2 0x100 EXP DUP2 SLOAD DUP2 PUSH4 0xFFFFFFFF MUL NOT AND SWAP1 DUP4 PUSH4 0xFFFFFFFF AND MUL OR SWAP1 SSTORE POP POP JUMPDEST POP JUMP JUMPDEST PUSH1 0x0 DUP1 PUSH1 0x0 DUP5 PUSH4 0xFFFFFFFF AND PUSH4 0xFFFFFFFF AND DUP2 MSTORE PUSH1 0x20 ADD SWAP1 DUP2 MSTORE PUSH1 0x20 ADD PUSH1 0x0 KECCAK256 PUSH1 0x40 MLOAD DUP1 PUSH1 0x40 ADD PUSH1 0x40 MSTORE SWAP1 DUP2 PUSH1 0x0 DUP3 ADD DUP1 SLOAD PUSH2 0x451 SWAP1 PUSH2 0xA99 JUMP JUMPDEST DUP1 PUSH1 0x1F ADD PUSH1 0x20 DUP1 SWAP2 DIV MUL PUSH1 0x20 ADD PUSH1 0x40 MLOAD SWAP1 DUP2 ADD PUSH1 0x40 MSTORE DUP1 SWAP3 SWAP2 SWAP1 DUP2 DUP2 MSTORE PUSH1 0x20 ADD DUP3 DUP1 SLOAD PUSH2 0x47D SWAP1 PUSH2 0xA99 JUMP JUMPDEST DUP1 ISZERO PUSH2 0x4CA JUMPI DUP1 PUSH1 0x1F LT PUSH2 0x49F JUMPI PUSH2 0x100 DUP1 DUP4 SLOAD DIV MUL DUP4 MSTORE SWAP2 PUSH1 0x20 ADD SWAP2 PUSH2 0x4CA JUMP JUMPDEST DUP3 ADD SWAP2 SWAP1 PUSH1 0x0 MSTORE PUSH1 0x20 PUSH1 0x0 KECCAK256 SWAP1 JUMPDEST DUP2 SLOAD DUP2 MSTORE SWAP1 PUSH1 0x1 ADD SWAP1 PUSH1 0x20 ADD DUP1 DUP4 GT PUSH2 0x4AD JUMPI DUP3 SWAP1 SUB PUSH1 0x1F AND DUP3 ADD SWAP2 JUMPDEST POP POP POP POP POP DUP2 MSTORE PUSH1 0x20 ADD PUSH1 0x1 DUP3 ADD PUSH1 0x0 SWAP1 SLOAD SWAP1 PUSH2 0x100 EXP SWAP1 DIV PUSH2 0xFFFF AND PUSH2 0xFFFF AND PUSH2 0xFFFF AND DUP2 MSTORE POP POP SWAP1 POP PUSH2 0x512 DUP3 PUSH1 0x0 ADD MLOAD PUSH1 0x40 MLOAD DUP1 PUSH1 0x20 ADD PUSH1 0x40 MSTORE DUP1 PUSH1 0x0 DUP2 MSTORE POP PUSH2 0x5DA JUMP JUMPDEST ISZERO DUP1 ISZERO PUSH2 0x52E JUMPI POP PUSH2 0x52C DUP2 PUSH1 0x0 ADD MLOAD DUP4 PUSH1 0x0 ADD MLOAD PUSH2 0x5DA JUMP JUMPDEST ISZERO JUMPDEST ISZERO PUSH2 0x567 JUMPI DUP2 PUSH1 0x0 ADD MLOAD PUSH1 0x0 DUP1 DUP6 PUSH4 0xFFFFFFFF AND PUSH4 0xFFFFFFFF AND DUP2 MSTORE PUSH1 0x20 ADD SWAP1 DUP2 MSTORE PUSH1 0x20 ADD PUSH1 0x0 KECCAK256 PUSH1 0x0 ADD SWAP1 DUP2 PUSH2 0x565 SWAP2 SWAP1 PUSH2 0xCDB JUMP JUMPDEST POP JUMPDEST PUSH1 0x0 DUP3 PUSH1 0x20 ADD MLOAD PUSH2 0xFFFF AND GT DUP1 ISZERO PUSH2 0x58F JUMPI POP DUP2 PUSH1 0x20 ADD MLOAD PUSH2 0xFFFF AND DUP2 PUSH1 0x20 ADD MLOAD PUSH2 0xFFFF AND EQ ISZERO JUMPDEST ISZERO PUSH2 0x5D5 JUMPI DUP2 PUSH1 0x20 ADD MLOAD PUSH1 0x0 DUP1 DUP6 PUSH4 0xFFFFFFFF AND PUSH4 0xFFFFFFFF AND DUP2 MSTORE PUSH1 0x20 ADD SWAP1 DUP2 MSTORE PUSH1 0x20 ADD PUSH1 0x0 KECCAK256 PUSH1 0x1 ADD PUSH1 0x0 PUSH2 0x100 EXP DUP2 SLOAD DUP2 PUSH2 0xFFFF MUL NOT AND SWAP1 DUP4 PUSH2 0xFFFF AND MUL OR SWAP1 SSTORE POP JUMPDEST POP POP POP JUMP JUMPDEST PUSH1 0x0 DUP1 DUP4 SWAP1 POP PUSH1 0x0 DUP4 SWAP1 POP DUP1 MLOAD DUP3 MLOAD EQ DUP1 ISZERO PUSH2 0x603 JUMPI POP DUP1 DUP1 MLOAD SWAP1 PUSH1 0x20 ADD KECCAK256 DUP3 DUP1 MLOAD SWAP1 PUSH1 0x20 ADD KECCAK256 EQ JUMPDEST SWAP3 POP POP POP SWAP3 SWAP2 POP POP JUMP JUMPDEST POP DUP1 SLOAD PUSH2 0x619 SWAP1 PUSH2 0xA99 JUMP JUMPDEST PUSH1 0x0 DUP3 SSTORE DUP1 PUSH1 0x1F LT PUSH2 0x62B JUMPI POP PUSH2 0x64A JUMP JUMPDEST PUSH1 0x1F ADD PUSH1 0x20 SWAP1 DIV SWAP1 PUSH1 0x0 MSTORE PUSH1 0x20 PUSH1 0x0 KECCAK256 SWAP1 DUP2 ADD SWAP1 PUSH2 0x649 SWAP2 SWAP1 PUSH2 0x64D JUMP JUMPDEST JUMPDEST POP JUMP JUMPDEST JUMPDEST DUP1 DUP3 GT ISZERO PUSH2 0x666 JUMPI PUSH1 0x0 DUP2 PUSH1 0x0 SWAP1 SSTORE POP PUSH1 0x1 ADD PUSH2 0x64E JUMP JUMPDEST POP SWAP1 JUMP JUMPDEST PUSH1 0x0 PUSH4 0xFFFFFFFF DUP3 AND SWAP1 POP SWAP2 SWAP1 POP JUMP JUMPDEST PUSH2 0x683 DUP2 PUSH2 0x66A JUMP JUMPDEST DUP3 MSTORE POP POP JUMP JUMPDEST PUSH1 0x0 PUSH1 0x20 DUP3 ADD SWAP1 POP PUSH2 0x69E PUSH1 0x0 DUP4 ADD DUP5 PUSH2 0x67A JUMP JUMPDEST SWAP3 SWAP2 POP POP JUMP JUMPDEST PUSH1 0x0 PUSH1 0x40 MLOAD SWAP1 POP SWAP1 JUMP JUMPDEST PUSH1 0x0 DUP1 REVERT JUMPDEST PUSH1 0x0 DUP1 REVERT JUMPDEST PUSH2 0x6C1 DUP2 PUSH2 0x66A JUMP JUMPDEST DUP2 EQ PUSH2 0x6CC JUMPI PUSH1 0x0 DUP1 REVERT JUMPDEST POP JUMP JUMPDEST PUSH1 0x0 DUP2 CALLDATALOAD SWAP1 POP PUSH2 0x6DE DUP2 PUSH2 0x6B8 JUMP JUMPDEST SWAP3 SWAP2 POP POP JUMP JUMPDEST PUSH1 0x0 PUSH1 0x20 DUP3 DUP5 SUB SLT ISZERO PUSH2 0x6FA JUMPI PUSH2 0x6F9 PUSH2 0x6AE JUMP JUMPDEST JUMPDEST PUSH1 0x0 PUSH2 0x708 DUP5 DUP3 DUP6 ADD PUSH2 0x6CF JUMP JUMPDEST SWAP2 POP POP SWAP3 SWAP2 POP POP JUMP JUMPDEST PUSH1 0x0 DUP2 MLOAD SWAP1 POP SWAP2 SWAP1 POP JUMP JUMPDEST PUSH1 0x0 DUP3 DUP3 MSTORE PUSH1 0x20 DUP3 ADD SWAP1 POP SWAP3 SWAP2 POP POP JUMP JUMPDEST PUSH1 0x0 JUMPDEST DUP4 DUP2 LT ISZERO PUSH2 0x74B JUMPI DUP1 DUP3 ADD MLOAD DUP2 DUP5 ADD MSTORE PUSH1 0x20 DUP2 ADD SWAP1 POP PUSH2 0x730 JUMP JUMPDEST PUSH1 0x0 DUP5 DUP5 ADD MSTORE POP POP POP POP JUMP JUMPDEST PUSH1 0x0 PUSH1 0x1F NOT PUSH1 0x1F DUP4 ADD AND SWAP1 POP SWAP2 SWAP1 POP JUMP JUMPDEST PUSH1 0x0 PUSH2 0x773 DUP3 PUSH2 0x711 JUMP JUMPDEST PUSH2 0x77D DUP2 DUP6 PUSH2 0x71C JUMP JUMPDEST SWAP4 POP PUSH2 0x78D DUP2 DUP6 PUSH1 0x20 DUP7 ADD PUSH2 0x72D JUMP JUMPDEST PUSH2 0x796 DUP2 PUSH2 0x757 JUMP JUMPDEST DUP5 ADD SWAP2 POP POP SWAP3 SWAP2 POP POP JUMP JUMPDEST PUSH1 0x0 PUSH2 0xFFFF DUP3 AND SWAP1 POP SWAP2 SWAP1 POP JUMP JUMPDEST PUSH2 0x7B8 DUP2 PUSH2 0x7A1 JUMP JUMPDEST DUP3 MSTORE POP POP JUMP JUMPDEST PUSH1 0x0 PUSH1 0x40 DUP3 ADD SWAP1 POP DUP2 DUP2 SUB PUSH1 0x0 DUP4 ADD MSTORE PUSH2 0x7D8 DUP2 DUP6 PUSH2 0x768 JUMP JUMPDEST SWAP1 POP PUSH2 0x7E7 PUSH1 0x20 DUP4 ADD DUP5 PUSH2 0x7AF JUMP JUMPDEST SWAP4 SWAP3 POP POP POP JUMP JUMPDEST PUSH1 0x0 DUP1 REVERT JUMPDEST PUSH32 0x4E487B7100000000000000000000000000000000000000000000000000000000 PUSH1 0x0 MSTORE PUSH1 0x41 PUSH1 0x4 MSTORE PUSH1 0x24 PUSH1 0x0 REVERT JUMPDEST PUSH2 0x82B DUP3 PUSH2 0x757 JUMP JUMPDEST DUP2 ADD DUP2 DUP2 LT PUSH8 0xFFFFFFFFFFFFFFFF DUP3 GT OR ISZERO PUSH2 0x84A JUMPI PUSH2 0x849 PUSH2 0x7F3 JUMP JUMPDEST JUMPDEST DUP1 PUSH1 0x40 MSTORE POP POP POP JUMP JUMPDEST PUSH1 0x0 PUSH2 0x85D PUSH2 0x6A4 JUMP JUMPDEST SWAP1 POP PUSH2 0x869 DUP3 DUP3 PUSH2 0x822 JUMP JUMPDEST SWAP2 SWAP1 POP JUMP JUMPDEST PUSH1 0x0 DUP1 REVERT JUMPDEST PUSH1 0x0 DUP1 REVERT JUMPDEST PUSH1 0x0 DUP1 REVERT JUMPDEST PUSH1 0x0 PUSH8 0xFFFFFFFFFFFFFFFF DUP3 GT ISZERO PUSH2 0x898 JUMPI PUSH2 0x897 PUSH2 0x7F3 JUMP JUMPDEST JUMPDEST PUSH2 0x8A1 DUP3 PUSH2 0x757 JUMP JUMPDEST SWAP1 POP PUSH1 0x20 DUP2 ADD SWAP1 POP SWAP2 SWAP1 POP JUMP JUMPDEST DUP3 DUP2 DUP4 CALLDATACOPY PUSH1 0x0 DUP4 DUP4 ADD MSTORE POP POP POP JUMP JUMPDEST PUSH1 0x0 PUSH2 0x8D0 PUSH2 0x8CB DUP5 PUSH2 0x87D JUMP JUMPDEST PUSH2 0x853 JUMP JUMPDEST SWAP1 POP DUP3 DUP2 MSTORE PUSH1 0x20 DUP2 ADD DUP5 DUP5 DUP5 ADD GT ISZERO PUSH2 0x8EC JUMPI PUSH2 0x8EB PUSH2 0x878 JUMP JUMPDEST JUMPDEST PUSH2 0x8F7 DUP5 DUP3 DUP6 PUSH2 0x8AE JUMP JUMPDEST POP SWAP4 SWAP3 POP POP POP JUMP JUMPDEST PUSH1 0x0 DUP3 PUSH1 0x1F DUP4 ADD SLT PUSH2 0x914 JUMPI PUSH2 0x913 PUSH2 0x873 JUMP JUMPDEST JUMPDEST DUP2 CALLDATALOAD PUSH2 0x924 DUP5 DUP3 PUSH1 0x20 DUP7 ADD PUSH2 0x8BD JUMP JUMPDEST SWAP2 POP POP SWAP3 SWAP2 POP POP JUMP JUMPDEST PUSH2 0x936 DUP2 PUSH2 0x7A1 JUMP JUMPDEST DUP2 EQ PUSH2 0x941 JUMPI PUSH1 0x0 DUP1 REVERT JUMPDEST POP JUMP JUMPDEST PUSH1 0x0 DUP2 CALLDATALOAD SWAP1 POP PUSH2 0x953 DUP2 PUSH2 0x92D JUMP JUMPDEST SWAP3 SWAP2 POP POP JUMP JUMPDEST PUSH1 0x0 PUSH1 0x40 DUP3 DUP5 SUB SLT ISZERO PUSH2 0x96F JUMPI PUSH2 0x96E PUSH2 0x7EE JUMP JUMPDEST JUMPDEST PUSH2 0x979 PUSH1 0x40 PUSH2 0x853 JUMP JUMPDEST SWAP1 POP PUSH1 0x0 DUP3 ADD CALLDATALOAD PUSH8 0xFFFFFFFFFFFFFFFF DUP2 GT ISZERO PUSH2 0x999 JUMPI PUSH2 0x998 PUSH2 0x86E JUMP JUMPDEST JUMPDEST PUSH2 0x9A5 DUP5 DUP3 DUP6 ADD PUSH2 0x8FF JUMP JUMPDEST PUSH1 0x0 DUP4 ADD MSTORE POP PUSH1 0x20 PUSH2 0x9B9 DUP5 DUP3 DUP6 ADD PUSH2 0x944 JUMP JUMPDEST PUSH1 0x20 DUP4 ADD MSTORE POP SWAP3 SWAP2 POP POP JUMP JUMPDEST PUSH1 0x0 PUSH1 0x20 DUP3 DUP5 SUB SLT ISZERO PUSH2 0x9DB JUMPI PUSH2 0x9DA PUSH2 0x6AE JUMP JUMPDEST JUMPDEST PUSH1 0x0 DUP3 ADD CALLDATALOAD PUSH8 0xFFFFFFFFFFFFFFFF DUP2 GT ISZERO PUSH2 0x9F9 JUMPI PUSH2 0x9F8 PUSH2 0x6B3 JUMP JUMPDEST JUMPDEST PUSH2 0xA05 DUP5 DUP3 DUP6 ADD PUSH2 0x959 JUMP JUMPDEST SWAP2 POP POP SWAP3 SWAP2 POP POP JUMP JUMPDEST PUSH1 0x0 DUP1 PUSH1 0x40 DUP4 DUP6 SUB SLT ISZERO PUSH2 0xA25 JUMPI PUSH2 0xA24 PUSH2 0x6AE JUMP JUMPDEST JUMPDEST PUSH1 0x0 PUSH2 0xA33 DUP6 DUP3 DUP7 ADD PUSH2 0x6CF JUMP JUMPDEST SWAP3 POP POP PUSH1 0x20 DUP4 ADD CALLDATALOAD PUSH8 0xFFFFFFFFFFFFFFFF DUP2 GT ISZERO PUSH2 0xA54 JUMPI PUSH2 0xA53 PUSH2 0x6B3 JUMP JUMPDEST JUMPDEST PUSH2 0xA60 DUP6 DUP3 DUP7 ADD PUSH2 0x959 JUMP JUMPDEST SWAP2 POP POP SWAP3 POP SWAP3 SWAP1 POP JUMP JUMPDEST PUSH32 0x4E487B7100000000000000000000000000000000000000000000000000000000 PUSH1 0x0 MSTORE PUSH1 0x22 PUSH1 0x4 MSTORE PUSH1 0x24 PUSH1 0x0 REVERT JUMPDEST PUSH1 0x0 PUSH1 0x2 DUP3 DIV SWAP1 POP PUSH1 0x1 DUP3 AND DUP1 PUSH2 0xAB1 JUMPI PUSH1 0x7F DUP3 AND SWAP2 POP JUMPDEST PUSH1 0x20 DUP3 LT DUP2 SUB PUSH2 0xAC4 JUMPI PUSH2 0xAC3 PUSH2 0xA6A JUMP JUMPDEST JUMPDEST POP SWAP2 SWAP1 POP JUMP JUMPDEST PUSH32 0x4E487B7100000000000000000000000000000000000000000000000000000000 PUSH1 0x0 MSTORE PUSH1 0x11 PUSH1 0x4 MSTORE PUSH1 0x24 PUSH1 0x0 REVERT JUMPDEST PUSH1 0x0 PUSH2 0xB04 DUP3 PUSH2 0x66A JUMP JUMPDEST SWAP2 POP PUSH4 0xFFFFFFFF DUP3 SUB PUSH2 0xB1A JUMPI PUSH2 0xB19 PUSH2 0xACA JUMP JUMPDEST JUMPDEST PUSH1 0x1 DUP3 ADD SWAP1 POP SWAP2 SWAP1 POP JUMP JUMPDEST PUSH1 0x0 DUP2 SWAP1 POP DUP2 PUSH1 0x0 MSTORE PUSH1 0x20 PUSH1 0x0 KECCAK256 SWAP1 POP SWAP2 SWAP1 POP JUMP JUMPDEST PUSH1 0x0 PUSH1 0x20 PUSH1 0x1F DUP4 ADD DIV SWAP1 POP SWAP2 SWAP1 POP JUMP JUMPDEST PUSH1 0x0 DUP3 DUP3 SHL SWAP1 POP SWAP3 SWAP2 POP POP JUMP JUMPDEST PUSH1 0x0 PUSH1 0x8 DUP4 MUL PUSH2 0xB87 PUSH32 0xFFFFFFFFFFFFFFFFFFFFFFFFFFFFFFFFFFFFFFFFFFFFFFFFFFFFFFFFFFFFFFFF DUP3 PUSH2 0xB4A JUMP JUMPDEST PUSH2 0xB91 DUP7 DUP4 PUSH2 0xB4A JUMP JUMPDEST SWAP6 POP DUP1 NOT DUP5 AND SWAP4 POP DUP1 DUP7 AND DUP5 OR SWAP3 POP POP POP SWAP4 SWAP3 POP POP POP JUMP JUMPDEST PUSH1 0x0 DUP2 SWAP1 POP SWAP2 SWAP1 POP JUMP JUMPDEST PUSH1 0x0 DUP2 SWAP1 POP SWAP2 SWAP1 POP JUMP JUMPDEST PUSH1 0x0 PUSH2 0xBD8 PUSH2 0xBD3 PUSH2 0xBCE DUP5 PUSH2 0xBA9 JUMP JUMPDEST PUSH2 0xBB3 JUMP JUMPDEST PUSH2 0xBA9 JUMP JUMPDEST SWAP1 POP SWAP2 SWAP1 POP JUMP JUMPDEST PUSH1 0x0 DUP2 SWAP1 POP SWAP2 SWAP1 POP JUMP JUMPDEST PUSH2 0xBF2 DUP4 PUSH2 0xBBD JUMP JUMPDEST PUSH2 0xC06 PUSH2 0xBFE DUP3 PUSH2 0xBDF JUMP JUMPDEST DUP5 DUP5 SLOAD PUSH2 0xB57 JUMP JUMPDEST DUP3 SSTORE POP POP POP POP JUMP JUMPDEST PUSH1 0x0 SWAP1 JUMP JUMPDEST PUSH2 0xC1B PUSH2 0xC0E JUMP JUMPDEST PUSH2 0xC26 DUP2 DUP5 DUP5 PUSH2 0xBE9 JUMP JUMPDEST POP POP POP JUMP JUMPDEST JUMPDEST DUP2 DUP2 LT ISZERO PUSH2 0xC4A JUMPI PUSH2 0xC3F PUSH1 0x0 DUP3 PUSH2 0xC13 JUMP JUMPDEST PUSH1 0x1 DUP2 ADD SWAP1 POP PUSH2 0xC2C JUMP JUMPDEST POP POP JUMP JUMPDEST PUSH1 0x1F DUP3 GT ISZERO PUSH2 0xC8F JUMPI PUSH2 0xC60 DUP2 PUSH2 0xB25 JUMP JUMPDEST PUSH2 0xC69 DUP5 PUSH2 0xB3A JUMP JUMPDEST DUP2 ADD PUSH1 0x20 DUP6 LT ISZERO PUSH2 0xC78 JUMPI DUP2 SWAP1 POP JUMPDEST PUSH2 0xC8C PUSH2 0xC84 DUP6 PUSH2 0xB3A JUMP JUMPDEST DUP4 ADD DUP3 PUSH2 0xC2B JUMP JUMPDEST POP POP JUMPDEST POP POP POP JUMP JUMPDEST PUSH1 0x0 DUP3 DUP3 SHR SWAP1 POP SWAP3 SWAP2 POP POP JUMP JUMPDEST PUSH1 0x0 PUSH2 0xCB2 PUSH1 0x0 NOT DUP5 PUSH1 0x8 MUL PUSH2 0xC94 JUMP JUMPDEST NOT DUP1 DUP4 AND SWAP2 POP POP SWAP3 SWAP2 POP POP JUMP JUMPDEST PUSH1 0x0 PUSH2 0xCCB DUP4 DUP4 PUSH2 0xCA1 JUMP JUMPDEST SWAP2 POP DUP3 PUSH1 0x2 MUL DUP3 OR SWAP1 POP SWAP3 SWAP2 POP POP JUMP JUMPDEST PUSH2 0xCE4 DUP3 PUSH2 0x711 JUMP JUMPDEST PUSH8 0xFFFFFFFFFFFFFFFF DUP2 GT ISZERO PUSH2 0xCFD JUMPI PUSH2 0xCFC PUSH2 0x7F3 JUMP JUMPDEST JUMPDEST PUSH2 0xD07 DUP3 SLOAD PUSH2 0xA99 JUMP JUMPDEST PUSH2 0xD12 DUP3 DUP3 DUP6 PUSH2 0xC4E JUMP JUMPDEST PUSH1 0x0 PUSH1 0x20 SWAP1 POP PUSH1 0x1F DUP4 GT PUSH1 0x1 DUP2 EQ PUSH2 0xD45 JUMPI PUSH1 0x0 DUP5 ISZERO PUSH2 0xD33 JUMPI DUP3 DUP8 ADD MLOAD SWAP1 POP JUMPDEST PUSH2 0xD3D DUP6 DUP3 PUSH2 0xCBF JUMP JUMPDEST DUP7 SSTORE POP PUSH2 0xDA5 JUMP JUMPDEST PUSH1 0x1F NOT DUP5 AND PUSH2 0xD53 DUP7 PUSH2 0xB25 JUMP JUMPDEST PUSH1 0x0 JUMPDEST DUP3 DUP2 LT ISZERO PUSH2 0xD7B JUMPI DUP5 DUP10 ADD MLOAD DUP3 SSTORE PUSH1 0x1 DUP3 ADD SWAP2 POP PUSH1 0x20 DUP6 ADD SWAP5 POP PUSH1 0x20 DUP2 ADD SWAP1 POP PUSH2 0xD56 JUMP JUMPDEST DUP7 DUP4 LT ISZERO PUSH2 0xD98 JUMPI DUP5 DUP10 ADD MLOAD PUSH2 0xD94 PUSH1 0x1F DUP10 AND DUP3 PUSH2 0xCA1 JUMP JUMPDEST DUP4 SSTORE POP JUMPDEST PUSH1 0x1 PUSH1 0x2 DUP9 MUL ADD DUP9 SSTORE POP POP POP JUMPDEST POP POP POP POP POP POP JUMP JUMPDEST PUSH32 0x596F7520646F6E27742068617665207065726D697373696F6E2E000000000000 PUSH1 0x0 DUP3 ADD MSTORE POP JUMP JUMPDEST PUSH1 0x0 PUSH2 0xDE3 PUSH1 0x1A DUP4 PUSH2 0x71C JUMP JUMPDEST SWAP2 POP PUSH2 0xDEE DUP3 PUSH2 0xDAD JUMP JUMPDEST PUSH1 0x20 DUP3 ADD SWAP1 POP SWAP2 SWAP1 POP JUMP JUMPDEST PUSH1 0x0 PUSH1 0x20 DUP3 ADD SWAP1 POP DUP2 DUP2 SUB PUSH1 0x0 DUP4 ADD MSTORE PUSH2 0xE12 DUP2 PUSH2 0xDD6 JUMP JUMPDEST SWAP1 POP SWAP2 SWAP1 POP JUMP JUMPDEST PUSH1 0x0 PUSH2 0xE24 DUP3 PUSH2 0x66A JUMP JUMPDEST SWAP2 POP PUSH1 0x0 DUP3 SUB PUSH2 0xE37 JUMPI PUSH2 0xE36 PUSH2 0xACA JUMP JUMPDEST JUMPDEST PUSH1 0x1 DUP3 SUB SWAP1 POP SWAP2 SWAP1 POP JUMP INVALID LOG2 PUSH5 0x6970667358 0x22 SLT KECCAK256 0xCC BASEFEE 0xBC 0xB1 LOG1 0x4D DUP9 ORIGIN LOG3 SWAP13 SUB SWAP3 0xCD STATICCALL SSTORE 0x25 0xA6 RETURNDATACOPY PUSH30 0x84F62A969D384421C2DFE37F1864736F6C63430008120033000000000000 "
		},
		"gasEstimates": {
			"creation": {
				"codeDepositCost": "740800",
				"executionCost": "infinite",
				"totalCost": "infinite"
			},
			"external": {
				"addBook((string,uint16))": "infinite",
				"books(uint32)": "infinite",
				"editBook(uint32,(string,uint16))": "infinite",
				"removeBook(uint32)": "infinite",
				"total()": "2499"
			},
			"internal": {
				"compare(string memory,string memory)": "infinite"
			}
		},
		"methodIdentifiers": {
			"addBook((string,uint16))": "b19a4635",
			"books(uint32)": "68d748ca",
			"editBook(uint32,(string,uint16))": "feaeb5ab",
			"removeBook(uint32)": "e9e7ff0c",
			"total()": "2ddbd13a"
		}
	},
	"abi": [
		{
			"inputs": [],
			"stateMutability": "nonpayable",
			"type": "constructor"
		},
		{
			"inputs": [
				{
					"components": [
						{
							"internalType": "string",
							"name": "title",
							"type": "string"
						},
						{
							"internalType": "uint16",
							"name": "year",
							"type": "uint16"
						}
					],
					"internalType": "struct BookDatabase.Book",
					"name": "newBook",
					"type": "tuple"
				}
			],
			"name": "addBook",
			"outputs": [],
			"stateMutability": "nonpayable",
			"type": "function"
		},
		{
			"inputs": [
				{
					"internalType": "uint32",
					"name": "",
					"type": "uint32"
				}
			],
			"name": "books",
			"outputs": [
				{
					"internalType": "string",
					"name": "title",
					"type": "string"
				},
				{
					"internalType": "uint16",
					"name": "year",
					"type": "uint16"
				}
			],
			"stateMutability": "view",
			"type": "function"
		},
		{
			"inputs": [
				{
					"internalType": "uint32",
					"name": "id",
					"type": "uint32"
				},
				{
					"components": [
						{
							"internalType": "string",
							"name": "title",
							"type": "string"
						},
						{
							"internalType": "uint16",
							"name": "year",
							"type": "uint16"
						}
					],
					"internalType": "struct BookDatabase.Book",
					"name": "newBook",
					"type": "tuple"
				}
			],
			"name": "editBook",
			"outputs": [],
			"stateMutability": "nonpayable",
			"type": "function"
		},
		{
			"inputs": [
				{
					"internalType": "uint32",
					"name": "id",
					"type": "uint32"
				}
			],
			"name": "removeBook",
			"outputs": [],
			"stateMutability": "nonpayable",
			"type": "function"
		},
		{
			"inputs": [],
			"name": "total",
			"outputs": [
				{
					"internalType": "uint32",
					"name": "",
					"type": "uint32"
				}
			],
			"stateMutability": "view",
			"type": "function"
		}
	]
}