{
	"Contracts/JoKenPo.sol": {
		"JoKenPo": {
			"abi": [
				{
					"inputs": [
						{
							"internalType": "enum JoKenPo.Options",
							"name": "newChoice",
							"type": "uint8"
						}
					],
					"name": "play",
					"outputs": [],
					"stateMutability": "nonpayable",
					"type": "function"
				},
				{
					"inputs": [],
					"name": "status",
					"outputs": [
						{
							"internalType": "string",
							"name": "",
							"type": "string"
						}
					],
					"stateMutability": "view",
					"type": "function"
				}
			],
			"devdoc": {
				"kind": "dev",
				"methods": {},
				"version": 1
			},
			"evm": {
				"assembly": "    /* \"Contracts/JoKenPo.sol\":62:2168  contract JoKenPo {\r... */\n  mstore(0x40, 0x80)\n    /* \"Contracts/JoKenPo.sol\":220:232  Options.NONE */\n  0x00\n    /* \"Contracts/JoKenPo.sol\":194:232  Options private choice1 = Options.NONE */\n  dup1\n  exp(0x0100, 0x00)\n  dup2\n  sload\n  dup2\n  0xff\n  mul\n  not\n  and\n  swap1\n  dup4\n  0x03\n  dup2\n  gt\n  iszero\n  tag_1\n  jumpi\n  tag_2\n  tag_3\n  jump\t// in\ntag_2:\ntag_1:\n  mul\n  or\n  swap1\n  sstore\n  pop\n    /* \"Contracts/JoKenPo.sol\":275:285  msg.sender */\n  caller\n    /* \"Contracts/JoKenPo.sol\":249:285  address private player1 = msg.sender */\n  0x00\n  exp(0x0100, 0x01)\n  dup2\n  sload\n  dup2\n  0xffffffffffffffffffffffffffffffffffffffff\n  mul\n  not\n  and\n  swap1\n  dup4\n  0xffffffffffffffffffffffffffffffffffffffff\n  and\n  mul\n  or\n  swap1\n  sstore\n  pop\n    /* \"Contracts/JoKenPo.sol\":343:368  string public status = \"\" */\n  mload(0x40)\n  dup1\n  0x20\n  add\n  0x40\n  mstore\n  dup1\n  0x00\n  dup2\n  mstore\n  pop\n  0x01\n  swap1\n  dup1\n  mload\n  swap1\n  0x20\n  add\n  swap1\n  tag_4\n  swap3\n  swap2\n  swap1\n  tag_5\n  jump\t// in\ntag_4:\n  pop\n    /* \"Contracts/JoKenPo.sol\":62:2168  contract JoKenPo {\r... */\n  callvalue\n  dup1\n  iszero\n  tag_6\n  jumpi\n  0x00\n  dup1\n  revert\ntag_6:\n  pop\n  jump(tag_7)\ntag_5:\n  dup3\n  dup1\n  sload\n  tag_8\n  swap1\n  tag_9\n  jump\t// in\ntag_8:\n  swap1\n  0x00\n  mstore\n  keccak256(0x00, 0x20)\n  swap1\n  0x1f\n  add\n  0x20\n  swap1\n  div\n  dup2\n  add\n  swap3\n  dup3\n  tag_11\n  jumpi\n  0x00\n  dup6\n  sstore\n  jump(tag_10)\ntag_11:\n  dup3\n  0x1f\n  lt\n  tag_12\n  jumpi\n  dup1\n  mload\n  not(0xff)\n  and\n  dup4\n  dup1\n  add\n  or\n  dup6\n  sstore\n  jump(tag_10)\ntag_12:\n  dup3\n  dup1\n  add\n  0x01\n  add\n  dup6\n  sstore\n  dup3\n  iszero\n  tag_10\n  jumpi\n  swap2\n  dup3\n  add\ntag_13:\n  dup3\n  dup2\n  gt\n  iszero\n  tag_14\n  jumpi\n  dup3\n  mload\n  dup3\n  sstore\n  swap2\n  0x20\n  add\n  swap2\n  swap1\n  0x01\n  add\n  swap1\n  jump(tag_13)\ntag_14:\ntag_10:\n  pop\n  swap1\n  pop\n  tag_15\n  swap2\n  swap1\n  tag_16\n  jump\t// in\ntag_15:\n  pop\n  swap1\n  jump\t// out\ntag_16:\ntag_17:\n  dup1\n  dup3\n  gt\n  iszero\n  tag_18\n  jumpi\n  0x00\n  dup2\n  0x00\n  swap1\n  sstore\n  pop\n  0x01\n  add\n  jump(tag_17)\ntag_18:\n  pop\n  swap1\n  jump\t// out\n    /* \"#utility.yul\":7:327   */\ntag_9:\n    /* \"#utility.yul\":51:57   */\n  0x00\n    /* \"#utility.yul\":88:89   */\n  0x02\n    /* \"#utility.yul\":82:86   */\n  dup3\n    /* \"#utility.yul\":78:90   */\n  div\n    /* \"#utility.yul\":68:90   */\n  swap1\n  pop\n    /* \"#utility.yul\":135:136   */\n  0x01\n    /* \"#utility.yul\":129:133   */\n  dup3\n    /* \"#utility.yul\":125:137   */\n  and\n    /* \"#utility.yul\":156:174   */\n  dup1\n    /* \"#utility.yul\":146:227   */\n  tag_21\n  jumpi\n    /* \"#utility.yul\":212:216   */\n  0x7f\n    /* \"#utility.yul\":204:210   */\n  dup3\n    /* \"#utility.yul\":200:217   */\n  and\n    /* \"#utility.yul\":190:217   */\n  swap2\n  pop\n    /* \"#utility.yul\":146:227   */\ntag_21:\n    /* \"#utility.yul\":274:276   */\n  0x20\n    /* \"#utility.yul\":266:272   */\n  dup3\n    /* \"#utility.yul\":263:277   */\n  lt\n    /* \"#utility.yul\":243:261   */\n  dup2\n    /* \"#utility.yul\":240:278   */\n  eq\n    /* \"#utility.yul\":237:321   */\n  iszero\n  tag_22\n  jumpi\n    /* \"#utility.yul\":293:311   */\n  tag_23\n  tag_24\n  jump\t// in\ntag_23:\n    /* \"#utility.yul\":237:321   */\ntag_22:\n    /* \"#utility.yul\":58:327   */\n  pop\n    /* \"#utility.yul\":7:327   */\n  swap2\n  swap1\n  pop\n  jump\t// out\n    /* \"#utility.yul\":333:513   */\ntag_3:\n    /* \"#utility.yul\":381:458   */\n  0x4e487b7100000000000000000000000000000000000000000000000000000000\n    /* \"#utility.yul\":378:379   */\n  0x00\n    /* \"#utility.yul\":371:459   */\n  mstore\n    /* \"#utility.yul\":478:482   */\n  0x21\n    /* \"#utility.yul\":475:476   */\n  0x04\n    /* \"#utility.yul\":468:483   */\n  mstore\n    /* \"#utility.yul\":502:506   */\n  0x24\n    /* \"#utility.yul\":499:500   */\n  0x00\n    /* \"#utility.yul\":492:507   */\n  revert\n    /* \"#utility.yul\":519:699   */\ntag_24:\n    /* \"#utility.yul\":567:644   */\n  0x4e487b7100000000000000000000000000000000000000000000000000000000\n    /* \"#utility.yul\":564:565   */\n  0x00\n    /* \"#utility.yul\":557:645   */\n  mstore\n    /* \"#utility.yul\":664:668   */\n  0x22\n    /* \"#utility.yul\":661:662   */\n  0x04\n    /* \"#utility.yul\":654:669   */\n  mstore\n    /* \"#utility.yul\":688:692   */\n  0x24\n    /* \"#utility.yul\":685:686   */\n  0x00\n    /* \"#utility.yul\":678:693   */\n  revert\n    /* \"Contracts/JoKenPo.sol\":62:2168  contract JoKenPo {\r... */\ntag_7:\n  dataSize(sub_0)\n  dup1\n  dataOffset(sub_0)\n  0x00\n  codecopy\n  0x00\n  return\nstop\n\nsub_0: assembly {\n        /* \"Contracts/JoKenPo.sol\":62:2168  contract JoKenPo {\r... */\n      mstore(0x40, 0x80)\n      callvalue\n      dup1\n      iszero\n      tag_1\n      jumpi\n      0x00\n      dup1\n      revert\n    tag_1:\n      pop\n      jumpi(tag_2, lt(calldatasize, 0x04))\n      shr(0xe0, calldataload(0x00))\n      dup1\n      0x200d2ed2\n      eq\n      tag_3\n      jumpi\n      dup1\n      0x53a04b05\n      eq\n      tag_4\n      jumpi\n    tag_2:\n      0x00\n      dup1\n      revert\n        /* \"Contracts/JoKenPo.sol\":343:368  string public status = \"\" */\n    tag_3:\n      tag_5\n      tag_6\n      jump\t// in\n    tag_5:\n      mload(0x40)\n      tag_7\n      swap2\n      swap1\n      tag_8\n      jump\t// in\n    tag_7:\n      mload(0x40)\n      dup1\n      swap2\n      sub\n      swap1\n      return\n        /* \"Contracts/JoKenPo.sol\":699:2165  function play(Options newChoice) public {\r... */\n    tag_4:\n      tag_9\n      0x04\n      dup1\n      calldatasize\n      sub\n      dup2\n      add\n      swap1\n      tag_10\n      swap2\n      swap1\n      tag_11\n      jump\t// in\n    tag_10:\n      tag_12\n      jump\t// in\n    tag_9:\n      stop\n        /* \"Contracts/JoKenPo.sol\":343:368  string public status = \"\" */\n    tag_6:\n      0x01\n      dup1\n      sload\n      tag_13\n      swap1\n      tag_14\n      jump\t// in\n    tag_13:\n      dup1\n      0x1f\n      add\n      0x20\n      dup1\n      swap2\n      div\n      mul\n      0x20\n      add\n      mload(0x40)\n      swap1\n      dup2\n      add\n      0x40\n      mstore\n      dup1\n      swap3\n      swap2\n      swap1\n      dup2\n      dup2\n      mstore\n      0x20\n      add\n      dup3\n      dup1\n      sload\n      tag_15\n      swap1\n      tag_14\n      jump\t// in\n    tag_15:\n      dup1\n      iszero\n      tag_16\n      jumpi\n      dup1\n      0x1f\n      lt\n      tag_17\n      jumpi\n      0x0100\n      dup1\n      dup4\n      sload\n      div\n      mul\n      dup4\n      mstore\n      swap2\n      0x20\n      add\n      swap2\n      jump(tag_16)\n    tag_17:\n      dup3\n      add\n      swap2\n      swap1\n      0x00\n      mstore\n      keccak256(0x00, 0x20)\n      swap1\n    tag_18:\n      dup2\n      sload\n      dup2\n      mstore\n      swap1\n      0x01\n      add\n      swap1\n      0x20\n      add\n      dup1\n      dup4\n      gt\n      tag_18\n      jumpi\n      dup3\n      swap1\n      sub\n      0x1f\n      and\n      dup3\n      add\n      swap2\n    tag_16:\n      pop\n      pop\n      pop\n      pop\n      pop\n      dup2\n      jump\t// out\n        /* \"Contracts/JoKenPo.sol\":699:2165  function play(Options newChoice) public {\r... */\n    tag_12:\n        /* \"Contracts/JoKenPo.sol\":796:808  Options.NONE */\n      0x00\n        /* \"Contracts/JoKenPo.sol\":783:808  newChoice != Options.NONE */\n      0x03\n      dup2\n      gt\n      iszero\n      tag_20\n      jumpi\n      tag_21\n      tag_22\n      jump\t// in\n    tag_21:\n    tag_20:\n        /* \"Contracts/JoKenPo.sol\":783:792  newChoice */\n      dup2\n        /* \"Contracts/JoKenPo.sol\":783:808  newChoice != Options.NONE */\n      0x03\n      dup2\n      gt\n      iszero\n      tag_23\n      jumpi\n      tag_24\n      tag_22\n      jump\t// in\n    tag_24:\n    tag_23:\n      eq\n      iszero\n        /* \"Contracts/JoKenPo.sol\":775:828  require(newChoice != Options.NONE, \"Invalid choice!\") */\n      tag_25\n      jumpi\n      mload(0x40)\n      0x08c379a000000000000000000000000000000000000000000000000000000000\n      dup2\n      mstore\n      0x04\n      add\n      tag_26\n      swap1\n      tag_27\n      jump\t// in\n    tag_26:\n      mload(0x40)\n      dup1\n      swap2\n      sub\n      swap1\n      revert\n    tag_25:\n        /* \"Contracts/JoKenPo.sol\":858:868  msg.sender */\n      caller\n        /* \"Contracts/JoKenPo.sol\":847:868  player1 != msg.sender */\n      0xffffffffffffffffffffffffffffffffffffffff\n      and\n        /* \"Contracts/JoKenPo.sol\":847:854  player1 */\n      0x00\n      0x01\n      swap1\n      sload\n      swap1\n      0x0100\n      exp\n      swap1\n      div\n      0xffffffffffffffffffffffffffffffffffffffff\n      and\n        /* \"Contracts/JoKenPo.sol\":847:868  player1 != msg.sender */\n      0xffffffffffffffffffffffffffffffffffffffff\n      and\n      eq\n      iszero\n        /* \"Contracts/JoKenPo.sol\":839:894  require(player1 != msg.sender, \"Await another player.\") */\n      tag_28\n      jumpi\n      mload(0x40)\n      0x08c379a000000000000000000000000000000000000000000000000000000000\n      dup2\n      mstore\n      0x04\n      add\n      tag_29\n      swap1\n      tag_30\n      jump\t// in\n    tag_29:\n      mload(0x40)\n      dup1\n      swap2\n      sub\n      swap1\n      revert\n    tag_28:\n        /* \"Contracts/JoKenPo.sol\":946:958  Options.NONE */\n      0x00\n        /* \"Contracts/JoKenPo.sol\":935:958  choice1 == Options.NONE */\n      0x03\n      dup2\n      gt\n      iszero\n      tag_31\n      jumpi\n      tag_32\n      tag_22\n      jump\t// in\n    tag_32:\n    tag_31:\n        /* \"Contracts/JoKenPo.sol\":935:942  choice1 */\n      0x00\n      dup1\n      sload\n      swap1\n      0x0100\n      exp\n      swap1\n      div\n      0xff\n      and\n        /* \"Contracts/JoKenPo.sol\":935:958  choice1 == Options.NONE */\n      0x03\n      dup2\n      gt\n      iszero\n      tag_33\n      jumpi\n      tag_34\n      tag_22\n      jump\t// in\n    tag_34:\n    tag_33:\n      eq\n        /* \"Contracts/JoKenPo.sol\":932:2158  if(choice1 == Options.NONE){\r... */\n      iszero\n      tag_35\n      jumpi\n        /* \"Contracts/JoKenPo.sol\":984:994  msg.sender */\n      caller\n        /* \"Contracts/JoKenPo.sol\":974:981  player1 */\n      0x00\n      0x01\n        /* \"Contracts/JoKenPo.sol\":974:994  player1 = msg.sender */\n      0x0100\n      exp\n      dup2\n      sload\n      dup2\n      0xffffffffffffffffffffffffffffffffffffffff\n      mul\n      not\n      and\n      swap1\n      dup4\n      0xffffffffffffffffffffffffffffffffffffffff\n      and\n      mul\n      or\n      swap1\n      sstore\n      pop\n        /* \"Contracts/JoKenPo.sol\":1019:1028  newChoice */\n      dup1\n        /* \"Contracts/JoKenPo.sol\":1009:1016  choice1 */\n      0x00\n      dup1\n        /* \"Contracts/JoKenPo.sol\":1009:1028  choice1 = newChoice */\n      0x0100\n      exp\n      dup2\n      sload\n      dup2\n      0xff\n      mul\n      not\n      and\n      swap1\n      dup4\n      0x03\n      dup2\n      gt\n      iszero\n      tag_36\n      jumpi\n      tag_37\n      tag_22\n      jump\t// in\n    tag_37:\n    tag_36:\n      mul\n      or\n      swap1\n      sstore\n      pop\n        /* \"Contracts/JoKenPo.sol\":1043:1102  status = \"Player 1 chose his option. Waiting for player 2.\" */\n      mload(0x40)\n      dup1\n      0x60\n      add\n      0x40\n      mstore\n      dup1\n      0x30\n      dup2\n      mstore\n      0x20\n      add\n      data_891c3d6e5adde30875c07acfcca8d06d5be6cf84c2f0053d1a896b105617b25d\n      0x30\n      swap2\n      codecopy\n        /* \"Contracts/JoKenPo.sol\":1043:1049  status */\n      0x01\n        /* \"Contracts/JoKenPo.sol\":1043:1102  status = \"Player 1 chose his option. Waiting for player 2.\" */\n      swap1\n      dup1\n      mload\n      swap1\n      0x20\n      add\n      swap1\n      tag_38\n      swap3\n      swap2\n      swap1\n      tag_39\n      jump\t// in\n    tag_38:\n      pop\n        /* \"Contracts/JoKenPo.sol\":932:2158  if(choice1 == Options.NONE){\r... */\n      jump(tag_40)\n    tag_35:\n        /* \"Contracts/JoKenPo.sol\":1171:1183  Options.ROCK */\n      0x01\n        /* \"Contracts/JoKenPo.sol\":1160:1183  choice1 == Options.ROCK */\n      0x03\n      dup2\n      gt\n      iszero\n      tag_41\n      jumpi\n      tag_42\n      tag_22\n      jump\t// in\n    tag_42:\n    tag_41:\n        /* \"Contracts/JoKenPo.sol\":1160:1167  choice1 */\n      0x00\n      dup1\n      sload\n      swap1\n      0x0100\n      exp\n      swap1\n      div\n      0xff\n      and\n        /* \"Contracts/JoKenPo.sol\":1160:1183  choice1 == Options.ROCK */\n      0x03\n      dup2\n      gt\n      iszero\n      tag_43\n      jumpi\n      tag_44\n      tag_22\n      jump\t// in\n    tag_44:\n    tag_43:\n      eq\n        /* \"Contracts/JoKenPo.sol\":1160:1216  choice1 == Options.ROCK && newChoice == Options.SCISSORS */\n      dup1\n      iszero\n      tag_45\n      jumpi\n      pop\n        /* \"Contracts/JoKenPo.sol\":1200:1216  Options.SCISSORS */\n      0x03\n        /* \"Contracts/JoKenPo.sol\":1187:1216  newChoice == Options.SCISSORS */\n      dup1\n      dup2\n      gt\n      iszero\n      tag_46\n      jumpi\n      tag_47\n      tag_22\n      jump\t// in\n    tag_47:\n    tag_46:\n        /* \"Contracts/JoKenPo.sol\":1187:1196  newChoice */\n      dup2\n        /* \"Contracts/JoKenPo.sol\":1187:1216  newChoice == Options.SCISSORS */\n      0x03\n      dup2\n      gt\n      iszero\n      tag_48\n      jumpi\n      tag_49\n      tag_22\n      jump\t// in\n    tag_49:\n    tag_48:\n      eq\n        /* \"Contracts/JoKenPo.sol\":1160:1216  choice1 == Options.ROCK && newChoice == Options.SCISSORS */\n    tag_45:\n        /* \"Contracts/JoKenPo.sol\":1157:2158  if(choice1 == Options.ROCK && newChoice == Options.SCISSORS){ \r... */\n      iszero\n      tag_50\n      jumpi\n        /* \"Contracts/JoKenPo.sol\":1233:1281  setStatus(\"Rock breaks Scissors. Player 1 WON!\") */\n      tag_51\n      mload(0x40)\n      dup1\n      0x60\n      add\n      0x40\n      mstore\n      dup1\n      0x23\n      dup2\n      mstore\n      0x20\n      add\n      data_9056477a8043385bd4eedf29b3b65eaa4f879760f1d1dac4e0b1e2f1c5a5e34c\n      0x23\n      swap2\n      codecopy\n        /* \"Contracts/JoKenPo.sol\":1233:1242  setStatus */\n      tag_52\n        /* \"Contracts/JoKenPo.sol\":1233:1281  setStatus(\"Rock breaks Scissors. Player 1 WON!\") */\n      jump\t// in\n    tag_51:\n        /* \"Contracts/JoKenPo.sol\":1157:2158  if(choice1 == Options.ROCK && newChoice == Options.SCISSORS){ \r... */\n      jump(tag_53)\n    tag_50:\n        /* \"Contracts/JoKenPo.sol\":1322:1335  Options.PAPER */\n      0x02\n        /* \"Contracts/JoKenPo.sol\":1311:1335  choice1 == Options.PAPER */\n      0x03\n      dup2\n      gt\n      iszero\n      tag_54\n      jumpi\n      tag_55\n      tag_22\n      jump\t// in\n    tag_55:\n    tag_54:\n        /* \"Contracts/JoKenPo.sol\":1311:1318  choice1 */\n      0x00\n      dup1\n      sload\n      swap1\n      0x0100\n      exp\n      swap1\n      div\n      0xff\n      and\n        /* \"Contracts/JoKenPo.sol\":1311:1335  choice1 == Options.PAPER */\n      0x03\n      dup2\n      gt\n      iszero\n      tag_56\n      jumpi\n      tag_57\n      tag_22\n      jump\t// in\n    tag_57:\n    tag_56:\n      eq\n        /* \"Contracts/JoKenPo.sol\":1311:1364  choice1 == Options.PAPER && newChoice == Options.ROCK */\n      dup1\n      iszero\n      tag_58\n      jumpi\n      pop\n        /* \"Contracts/JoKenPo.sol\":1352:1364  Options.ROCK */\n      0x01\n        /* \"Contracts/JoKenPo.sol\":1339:1364  newChoice == Options.ROCK */\n      0x03\n      dup2\n      gt\n      iszero\n      tag_59\n      jumpi\n      tag_60\n      tag_22\n      jump\t// in\n    tag_60:\n    tag_59:\n        /* \"Contracts/JoKenPo.sol\":1339:1348  newChoice */\n      dup2\n        /* \"Contracts/JoKenPo.sol\":1339:1364  newChoice == Options.ROCK */\n      0x03\n      dup2\n      gt\n      iszero\n      tag_61\n      jumpi\n      tag_62\n      tag_22\n      jump\t// in\n    tag_62:\n    tag_61:\n      eq\n        /* \"Contracts/JoKenPo.sol\":1311:1364  choice1 == Options.PAPER && newChoice == Options.ROCK */\n    tag_58:\n        /* \"Contracts/JoKenPo.sol\":1308:2158  if(choice1 == Options.PAPER && newChoice == Options.ROCK){ \r... */\n      iszero\n      tag_63\n      jumpi\n        /* \"Contracts/JoKenPo.sol\":1381:1425  setStatus(\"Paper wraps Rock. Player 1 WON!\") */\n      tag_64\n      mload(0x40)\n      dup1\n      0x40\n      add\n      0x40\n      mstore\n      dup1\n      0x1f\n      dup2\n      mstore\n      0x20\n      add\n      0x506170657220777261707320526f636b2e20506c61796572203120574f4e2100\n      dup2\n      mstore\n      pop\n        /* \"Contracts/JoKenPo.sol\":1381:1390  setStatus */\n      tag_52\n        /* \"Contracts/JoKenPo.sol\":1381:1425  setStatus(\"Paper wraps Rock. Player 1 WON!\") */\n      jump\t// in\n    tag_64:\n        /* \"Contracts/JoKenPo.sol\":1308:2158  if(choice1 == Options.PAPER && newChoice == Options.ROCK){ \r... */\n      jump(tag_65)\n    tag_63:\n        /* \"Contracts/JoKenPo.sol\":1466:1482  Options.SCISSORS */\n      0x03\n        /* \"Contracts/JoKenPo.sol\":1455:1482  choice1 == Options.SCISSORS */\n      dup1\n      dup2\n      gt\n      iszero\n      tag_66\n      jumpi\n      tag_67\n      tag_22\n      jump\t// in\n    tag_67:\n    tag_66:\n        /* \"Contracts/JoKenPo.sol\":1455:1462  choice1 */\n      0x00\n      dup1\n      sload\n      swap1\n      0x0100\n      exp\n      swap1\n      div\n      0xff\n      and\n        /* \"Contracts/JoKenPo.sol\":1455:1482  choice1 == Options.SCISSORS */\n      0x03\n      dup2\n      gt\n      iszero\n      tag_68\n      jumpi\n      tag_69\n      tag_22\n      jump\t// in\n    tag_69:\n    tag_68:\n      eq\n        /* \"Contracts/JoKenPo.sol\":1455:1512  choice1 == Options.SCISSORS && newChoice == Options.PAPER */\n      dup1\n      iszero\n      tag_70\n      jumpi\n      pop\n        /* \"Contracts/JoKenPo.sol\":1499:1512  Options.PAPER */\n      0x02\n        /* \"Contracts/JoKenPo.sol\":1486:1512  newChoice == Options.PAPER */\n      0x03\n      dup2\n      gt\n      iszero\n      tag_71\n      jumpi\n      tag_72\n      tag_22\n      jump\t// in\n    tag_72:\n    tag_71:\n        /* \"Contracts/JoKenPo.sol\":1486:1495  newChoice */\n      dup2\n        /* \"Contracts/JoKenPo.sol\":1486:1512  newChoice == Options.PAPER */\n      0x03\n      dup2\n      gt\n      iszero\n      tag_73\n      jumpi\n      tag_74\n      tag_22\n      jump\t// in\n    tag_74:\n    tag_73:\n      eq\n        /* \"Contracts/JoKenPo.sol\":1455:1512  choice1 == Options.SCISSORS && newChoice == Options.PAPER */\n    tag_70:\n        /* \"Contracts/JoKenPo.sol\":1452:2158  if(choice1 == Options.SCISSORS && newChoice == Options.PAPER){ \r... */\n      iszero\n      tag_75\n      jumpi\n        /* \"Contracts/JoKenPo.sol\":1529:1576  setStatus(\"Scissors cuts Paper. Player 1 WON!\") */\n      tag_76\n      mload(0x40)\n      dup1\n      0x60\n      add\n      0x40\n      mstore\n      dup1\n      0x22\n      dup2\n      mstore\n      0x20\n      add\n      data_91015f70aacd548b1cf82057021b45f79e16ba2ae54c369de1244ab075c90b63\n      0x22\n      swap2\n      codecopy\n        /* \"Contracts/JoKenPo.sol\":1529:1538  setStatus */\n      tag_52\n        /* \"Contracts/JoKenPo.sol\":1529:1576  setStatus(\"Scissors cuts Paper. Player 1 WON!\") */\n      jump\t// in\n    tag_76:\n        /* \"Contracts/JoKenPo.sol\":1452:2158  if(choice1 == Options.SCISSORS && newChoice == Options.PAPER){ \r... */\n      jump(tag_77)\n    tag_75:\n        /* \"Contracts/JoKenPo.sol\":1645:1661  Options.SCISSORS */\n      0x03\n        /* \"Contracts/JoKenPo.sol\":1634:1661  choice1 == Options.SCISSORS */\n      dup1\n      dup2\n      gt\n      iszero\n      tag_78\n      jumpi\n      tag_79\n      tag_22\n      jump\t// in\n    tag_79:\n    tag_78:\n        /* \"Contracts/JoKenPo.sol\":1634:1641  choice1 */\n      0x00\n      dup1\n      sload\n      swap1\n      0x0100\n      exp\n      swap1\n      div\n      0xff\n      and\n        /* \"Contracts/JoKenPo.sol\":1634:1661  choice1 == Options.SCISSORS */\n      0x03\n      dup2\n      gt\n      iszero\n      tag_80\n      jumpi\n      tag_81\n      tag_22\n      jump\t// in\n    tag_81:\n    tag_80:\n      eq\n        /* \"Contracts/JoKenPo.sol\":1634:1690  choice1 == Options.SCISSORS && newChoice == Options.ROCK */\n      dup1\n      iszero\n      tag_82\n      jumpi\n      pop\n        /* \"Contracts/JoKenPo.sol\":1678:1690  Options.ROCK */\n      0x01\n        /* \"Contracts/JoKenPo.sol\":1665:1690  newChoice == Options.ROCK */\n      0x03\n      dup2\n      gt\n      iszero\n      tag_83\n      jumpi\n      tag_84\n      tag_22\n      jump\t// in\n    tag_84:\n    tag_83:\n        /* \"Contracts/JoKenPo.sol\":1665:1674  newChoice */\n      dup2\n        /* \"Contracts/JoKenPo.sol\":1665:1690  newChoice == Options.ROCK */\n      0x03\n      dup2\n      gt\n      iszero\n      tag_85\n      jumpi\n      tag_86\n      tag_22\n      jump\t// in\n    tag_86:\n    tag_85:\n      eq\n        /* \"Contracts/JoKenPo.sol\":1634:1690  choice1 == Options.SCISSORS && newChoice == Options.ROCK */\n    tag_82:\n        /* \"Contracts/JoKenPo.sol\":1631:2158  if(choice1 == Options.SCISSORS && newChoice == Options.ROCK){ \r... */\n      iszero\n      tag_87\n      jumpi\n        /* \"Contracts/JoKenPo.sol\":1707:1755  setStatus(\"Rock breaks Scissors. Player 2 WON!\") */\n      tag_88\n      mload(0x40)\n      dup1\n      0x60\n      add\n      0x40\n      mstore\n      dup1\n      0x23\n      dup2\n      mstore\n      0x20\n      add\n      data_578a9428a54c800af9c02139d74432994ad47bb29704d23f809566a331855d2f\n      0x23\n      swap2\n      codecopy\n        /* \"Contracts/JoKenPo.sol\":1707:1716  setStatus */\n      tag_52\n        /* \"Contracts/JoKenPo.sol\":1707:1755  setStatus(\"Rock breaks Scissors. Player 2 WON!\") */\n      jump\t// in\n    tag_88:\n        /* \"Contracts/JoKenPo.sol\":1631:2158  if(choice1 == Options.SCISSORS && newChoice == Options.ROCK){ \r... */\n      jump(tag_89)\n    tag_87:\n        /* \"Contracts/JoKenPo.sol\":1796:1808  Options.ROCK */\n      0x01\n        /* \"Contracts/JoKenPo.sol\":1785:1808  choice1 == Options.ROCK */\n      0x03\n      dup2\n      gt\n      iszero\n      tag_90\n      jumpi\n      tag_91\n      tag_22\n      jump\t// in\n    tag_91:\n    tag_90:\n        /* \"Contracts/JoKenPo.sol\":1785:1792  choice1 */\n      0x00\n      dup1\n      sload\n      swap1\n      0x0100\n      exp\n      swap1\n      div\n      0xff\n      and\n        /* \"Contracts/JoKenPo.sol\":1785:1808  choice1 == Options.ROCK */\n      0x03\n      dup2\n      gt\n      iszero\n      tag_92\n      jumpi\n      tag_93\n      tag_22\n      jump\t// in\n    tag_93:\n    tag_92:\n      eq\n        /* \"Contracts/JoKenPo.sol\":1785:1838  choice1 == Options.ROCK && newChoice == Options.PAPER */\n      dup1\n      iszero\n      tag_94\n      jumpi\n      pop\n        /* \"Contracts/JoKenPo.sol\":1825:1838  Options.PAPER */\n      0x02\n        /* \"Contracts/JoKenPo.sol\":1812:1838  newChoice == Options.PAPER */\n      0x03\n      dup2\n      gt\n      iszero\n      tag_95\n      jumpi\n      tag_96\n      tag_22\n      jump\t// in\n    tag_96:\n    tag_95:\n        /* \"Contracts/JoKenPo.sol\":1812:1821  newChoice */\n      dup2\n        /* \"Contracts/JoKenPo.sol\":1812:1838  newChoice == Options.PAPER */\n      0x03\n      dup2\n      gt\n      iszero\n      tag_97\n      jumpi\n      tag_98\n      tag_22\n      jump\t// in\n    tag_98:\n    tag_97:\n      eq\n        /* \"Contracts/JoKenPo.sol\":1785:1838  choice1 == Options.ROCK && newChoice == Options.PAPER */\n    tag_94:\n        /* \"Contracts/JoKenPo.sol\":1782:2158  if(choice1 == Options.ROCK && newChoice == Options.PAPER){ \r... */\n      iszero\n      tag_99\n      jumpi\n        /* \"Contracts/JoKenPo.sol\":1855:1899  setStatus(\"Paper wraps Rock. Player 2 WON!\") */\n      tag_100\n      mload(0x40)\n      dup1\n      0x40\n      add\n      0x40\n      mstore\n      dup1\n      0x1f\n      dup2\n      mstore\n      0x20\n      add\n      0x506170657220777261707320526f636b2e20506c61796572203220574f4e2100\n      dup2\n      mstore\n      pop\n        /* \"Contracts/JoKenPo.sol\":1855:1864  setStatus */\n      tag_52\n        /* \"Contracts/JoKenPo.sol\":1855:1899  setStatus(\"Paper wraps Rock. Player 2 WON!\") */\n      jump\t// in\n    tag_100:\n        /* \"Contracts/JoKenPo.sol\":1782:2158  if(choice1 == Options.ROCK && newChoice == Options.PAPER){ \r... */\n      jump(tag_101)\n    tag_99:\n        /* \"Contracts/JoKenPo.sol\":1940:1953  Options.PAPER */\n      0x02\n        /* \"Contracts/JoKenPo.sol\":1929:1953  choice1 == Options.PAPER */\n      0x03\n      dup2\n      gt\n      iszero\n      tag_102\n      jumpi\n      tag_103\n      tag_22\n      jump\t// in\n    tag_103:\n    tag_102:\n        /* \"Contracts/JoKenPo.sol\":1929:1936  choice1 */\n      0x00\n      dup1\n      sload\n      swap1\n      0x0100\n      exp\n      swap1\n      div\n      0xff\n      and\n        /* \"Contracts/JoKenPo.sol\":1929:1953  choice1 == Options.PAPER */\n      0x03\n      dup2\n      gt\n      iszero\n      tag_104\n      jumpi\n      tag_105\n      tag_22\n      jump\t// in\n    tag_105:\n    tag_104:\n      eq\n        /* \"Contracts/JoKenPo.sol\":1929:1986  choice1 == Options.PAPER && newChoice == Options.SCISSORS */\n      dup1\n      iszero\n      tag_106\n      jumpi\n      pop\n        /* \"Contracts/JoKenPo.sol\":1970:1986  Options.SCISSORS */\n      0x03\n        /* \"Contracts/JoKenPo.sol\":1957:1986  newChoice == Options.SCISSORS */\n      dup1\n      dup2\n      gt\n      iszero\n      tag_107\n      jumpi\n      tag_108\n      tag_22\n      jump\t// in\n    tag_108:\n    tag_107:\n        /* \"Contracts/JoKenPo.sol\":1957:1966  newChoice */\n      dup2\n        /* \"Contracts/JoKenPo.sol\":1957:1986  newChoice == Options.SCISSORS */\n      0x03\n      dup2\n      gt\n      iszero\n      tag_109\n      jumpi\n      tag_110\n      tag_22\n      jump\t// in\n    tag_110:\n    tag_109:\n      eq\n        /* \"Contracts/JoKenPo.sol\":1929:1986  choice1 == Options.PAPER && newChoice == Options.SCISSORS */\n    tag_106:\n        /* \"Contracts/JoKenPo.sol\":1926:2158  if(choice1 == Options.PAPER && newChoice == Options.SCISSORS){ \r... */\n      iszero\n      tag_111\n      jumpi\n        /* \"Contracts/JoKenPo.sol\":2003:2050  setStatus(\"Scissors cuts Paper. Player 2 WON!\") */\n      tag_112\n      mload(0x40)\n      dup1\n      0x60\n      add\n      0x40\n      mstore\n      dup1\n      0x22\n      dup2\n      mstore\n      0x20\n      add\n      data_933bdbc870e421c751aaa16e694cd13fd9fe7932556621cc4aca333dcc976580\n      0x22\n      swap2\n      codecopy\n        /* \"Contracts/JoKenPo.sol\":2003:2012  setStatus */\n      tag_52\n        /* \"Contracts/JoKenPo.sol\":2003:2050  setStatus(\"Scissors cuts Paper. Player 2 WON!\") */\n      jump\t// in\n    tag_112:\n        /* \"Contracts/JoKenPo.sol\":1926:2158  if(choice1 == Options.PAPER && newChoice == Options.SCISSORS){ \r... */\n      jump(tag_113)\n    tag_111:\n        /* \"Contracts/JoKenPo.sol\":2123:2146  setStatus(\"Draw game!\") */\n      tag_114\n      mload(0x40)\n      dup1\n      0x40\n      add\n      0x40\n      mstore\n      dup1\n      0x0a\n      dup2\n      mstore\n      0x20\n      add\n      0x447261772067616d652100000000000000000000000000000000000000000000\n      dup2\n      mstore\n      pop\n        /* \"Contracts/JoKenPo.sol\":2123:2132  setStatus */\n      tag_52\n        /* \"Contracts/JoKenPo.sol\":2123:2146  setStatus(\"Draw game!\") */\n      jump\t// in\n    tag_114:\n        /* \"Contracts/JoKenPo.sol\":1926:2158  if(choice1 == Options.PAPER && newChoice == Options.SCISSORS){ \r... */\n    tag_113:\n        /* \"Contracts/JoKenPo.sol\":1782:2158  if(choice1 == Options.ROCK && newChoice == Options.PAPER){ \r... */\n    tag_101:\n        /* \"Contracts/JoKenPo.sol\":1631:2158  if(choice1 == Options.SCISSORS && newChoice == Options.ROCK){ \r... */\n    tag_89:\n        /* \"Contracts/JoKenPo.sol\":1452:2158  if(choice1 == Options.SCISSORS && newChoice == Options.PAPER){ \r... */\n    tag_77:\n        /* \"Contracts/JoKenPo.sol\":1308:2158  if(choice1 == Options.PAPER && newChoice == Options.ROCK){ \r... */\n    tag_65:\n        /* \"Contracts/JoKenPo.sol\":1157:2158  if(choice1 == Options.ROCK && newChoice == Options.SCISSORS){ \r... */\n    tag_53:\n        /* \"Contracts/JoKenPo.sol\":932:2158  if(choice1 == Options.NONE){\r... */\n    tag_40:\n        /* \"Contracts/JoKenPo.sol\":699:2165  function play(Options newChoice) public {\r... */\n      pop\n      jump\t// out\n        /* \"Contracts/JoKenPo.sol\":445:616  function setStatus(string memory newStatus) private {\r... */\n    tag_52:\n        /* \"Contracts/JoKenPo.sol\":517:526  newStatus */\n      dup1\n        /* \"Contracts/JoKenPo.sol\":508:514  status */\n      0x01\n        /* \"Contracts/JoKenPo.sol\":508:526  status = newStatus */\n      swap1\n      dup1\n      mload\n      swap1\n      0x20\n      add\n      swap1\n      tag_116\n      swap3\n      swap2\n      swap1\n      tag_39\n      jump\t// in\n    tag_116:\n      pop\n        /* \"Contracts/JoKenPo.sol\":573:574  0 */\n      0x00\n        /* \"Contracts/JoKenPo.sol\":555:562  player1 */\n      dup1\n      0x01\n        /* \"Contracts/JoKenPo.sol\":555:575  player1 = address(0) */\n      0x0100\n      exp\n      dup2\n      sload\n      dup2\n      0xffffffffffffffffffffffffffffffffffffffff\n      mul\n      not\n      and\n      swap1\n      dup4\n      0xffffffffffffffffffffffffffffffffffffffff\n      and\n      mul\n      or\n      swap1\n      sstore\n      pop\n        /* \"Contracts/JoKenPo.sol\":596:608  Options.NONE */\n      0x00\n        /* \"Contracts/JoKenPo.sol\":586:593  choice1 */\n      dup1\n      0x00\n        /* \"Contracts/JoKenPo.sol\":586:608  choice1 = Options.NONE */\n      0x0100\n      exp\n      dup2\n      sload\n      dup2\n      0xff\n      mul\n      not\n      and\n      swap1\n      dup4\n      0x03\n      dup2\n      gt\n      iszero\n      tag_117\n      jumpi\n      tag_118\n      tag_22\n      jump\t// in\n    tag_118:\n    tag_117:\n      mul\n      or\n      swap1\n      sstore\n      pop\n        /* \"Contracts/JoKenPo.sol\":445:616  function setStatus(string memory newStatus) private {\r... */\n      pop\n      jump\t// out\n    tag_39:\n      dup3\n      dup1\n      sload\n      tag_119\n      swap1\n      tag_14\n      jump\t// in\n    tag_119:\n      swap1\n      0x00\n      mstore\n      keccak256(0x00, 0x20)\n      swap1\n      0x1f\n      add\n      0x20\n      swap1\n      div\n      dup2\n      add\n      swap3\n      dup3\n      tag_121\n      jumpi\n      0x00\n      dup6\n      sstore\n      jump(tag_120)\n    tag_121:\n      dup3\n      0x1f\n      lt\n      tag_122\n      jumpi\n      dup1\n      mload\n      not(0xff)\n      and\n      dup4\n      dup1\n      add\n      or\n      dup6\n      sstore\n      jump(tag_120)\n    tag_122:\n      dup3\n      dup1\n      add\n      0x01\n      add\n      dup6\n      sstore\n      dup3\n      iszero\n      tag_120\n      jumpi\n      swap2\n      dup3\n      add\n    tag_123:\n      dup3\n      dup2\n      gt\n      iszero\n      tag_124\n      jumpi\n      dup3\n      mload\n      dup3\n      sstore\n      swap2\n      0x20\n      add\n      swap2\n      swap1\n      0x01\n      add\n      swap1\n      jump(tag_123)\n    tag_124:\n    tag_120:\n      pop\n      swap1\n      pop\n      tag_125\n      swap2\n      swap1\n      tag_126\n      jump\t// in\n    tag_125:\n      pop\n      swap1\n      jump\t// out\n    tag_126:\n    tag_127:\n      dup1\n      dup3\n      gt\n      iszero\n      tag_128\n      jumpi\n      0x00\n      dup2\n      0x00\n      swap1\n      sstore\n      pop\n      0x01\n      add\n      jump(tag_127)\n    tag_128:\n      pop\n      swap1\n      jump\t// out\n        /* \"#utility.yul\":7:164   */\n    tag_130:\n        /* \"#utility.yul\":62:67   */\n      0x00\n        /* \"#utility.yul\":100:106   */\n      dup2\n        /* \"#utility.yul\":87:107   */\n      calldataload\n        /* \"#utility.yul\":78:107   */\n      swap1\n      pop\n        /* \"#utility.yul\":116:158   */\n      tag_132\n        /* \"#utility.yul\":152:157   */\n      dup2\n        /* \"#utility.yul\":116:158   */\n      tag_133\n      jump\t// in\n    tag_132:\n        /* \"#utility.yul\":7:164   */\n      swap3\n      swap2\n      pop\n      pop\n      jump\t// out\n        /* \"#utility.yul\":170:517   */\n    tag_11:\n        /* \"#utility.yul\":238:244   */\n      0x00\n        /* \"#utility.yul\":287:289   */\n      0x20\n        /* \"#utility.yul\":275:284   */\n      dup3\n        /* \"#utility.yul\":266:273   */\n      dup5\n        /* \"#utility.yul\":262:285   */\n      sub\n        /* \"#utility.yul\":258:290   */\n      slt\n        /* \"#utility.yul\":255:374   */\n      iszero\n      tag_135\n      jumpi\n        /* \"#utility.yul\":293:372   */\n      tag_136\n      tag_137\n      jump\t// in\n    tag_136:\n        /* \"#utility.yul\":255:374   */\n    tag_135:\n        /* \"#utility.yul\":413:414   */\n      0x00\n        /* \"#utility.yul\":438:500   */\n      tag_138\n        /* \"#utility.yul\":492:499   */\n      dup5\n        /* \"#utility.yul\":483:489   */\n      dup3\n        /* \"#utility.yul\":472:481   */\n      dup6\n        /* \"#utility.yul\":468:490   */\n      add\n        /* \"#utility.yul\":438:500   */\n      tag_130\n      jump\t// in\n    tag_138:\n        /* \"#utility.yul\":428:500   */\n      swap2\n      pop\n        /* \"#utility.yul\":384:510   */\n      pop\n        /* \"#utility.yul\":170:517   */\n      swap3\n      swap2\n      pop\n      pop\n      jump\t// out\n        /* \"#utility.yul\":523:887   */\n    tag_139:\n        /* \"#utility.yul\":611:614   */\n      0x00\n        /* \"#utility.yul\":639:678   */\n      tag_141\n        /* \"#utility.yul\":672:677   */\n      dup3\n        /* \"#utility.yul\":639:678   */\n      tag_142\n      jump\t// in\n    tag_141:\n        /* \"#utility.yul\":694:765   */\n      tag_143\n        /* \"#utility.yul\":758:764   */\n      dup2\n        /* \"#utility.yul\":753:756   */\n      dup6\n        /* \"#utility.yul\":694:765   */\n      tag_144\n      jump\t// in\n    tag_143:\n        /* \"#utility.yul\":687:765   */\n      swap4\n      pop\n        /* \"#utility.yul\":774:826   */\n      tag_145\n        /* \"#utility.yul\":819:825   */\n      dup2\n        /* \"#utility.yul\":814:817   */\n      dup6\n        /* \"#utility.yul\":807:811   */\n      0x20\n        /* \"#utility.yul\":800:805   */\n      dup7\n        /* \"#utility.yul\":796:812   */\n      add\n        /* \"#utility.yul\":774:826   */\n      tag_146\n      jump\t// in\n    tag_145:\n        /* \"#utility.yul\":851:880   */\n      tag_147\n        /* \"#utility.yul\":873:879   */\n      dup2\n        /* \"#utility.yul\":851:880   */\n      tag_148\n      jump\t// in\n    tag_147:\n        /* \"#utility.yul\":846:849   */\n      dup5\n        /* \"#utility.yul\":842:881   */\n      add\n        /* \"#utility.yul\":835:881   */\n      swap2\n      pop\n        /* \"#utility.yul\":615:887   */\n      pop\n        /* \"#utility.yul\":523:887   */\n      swap3\n      swap2\n      pop\n      pop\n      jump\t// out\n        /* \"#utility.yul\":893:1259   */\n    tag_149:\n        /* \"#utility.yul\":1035:1038   */\n      0x00\n        /* \"#utility.yul\":1056:1123   */\n      tag_151\n        /* \"#utility.yul\":1120:1122   */\n      0x0f\n        /* \"#utility.yul\":1115:1118   */\n      dup4\n        /* \"#utility.yul\":1056:1123   */\n      tag_144\n      jump\t// in\n    tag_151:\n        /* \"#utility.yul\":1049:1123   */\n      swap2\n      pop\n        /* \"#utility.yul\":1132:1225   */\n      tag_152\n        /* \"#utility.yul\":1221:1224   */\n      dup3\n        /* \"#utility.yul\":1132:1225   */\n      tag_153\n      jump\t// in\n    tag_152:\n        /* \"#utility.yul\":1250:1252   */\n      0x20\n        /* \"#utility.yul\":1245:1248   */\n      dup3\n        /* \"#utility.yul\":1241:1253   */\n      add\n        /* \"#utility.yul\":1234:1253   */\n      swap1\n      pop\n        /* \"#utility.yul\":893:1259   */\n      swap2\n      swap1\n      pop\n      jump\t// out\n        /* \"#utility.yul\":1265:1631   */\n    tag_154:\n        /* \"#utility.yul\":1407:1410   */\n      0x00\n        /* \"#utility.yul\":1428:1495   */\n      tag_156\n        /* \"#utility.yul\":1492:1494   */\n      0x15\n        /* \"#utility.yul\":1487:1490   */\n      dup4\n        /* \"#utility.yul\":1428:1495   */\n      tag_144\n      jump\t// in\n    tag_156:\n        /* \"#utility.yul\":1421:1495   */\n      swap2\n      pop\n        /* \"#utility.yul\":1504:1597   */\n      tag_157\n        /* \"#utility.yul\":1593:1596   */\n      dup3\n        /* \"#utility.yul\":1504:1597   */\n      tag_158\n      jump\t// in\n    tag_157:\n        /* \"#utility.yul\":1622:1624   */\n      0x20\n        /* \"#utility.yul\":1617:1620   */\n      dup3\n        /* \"#utility.yul\":1613:1625   */\n      add\n        /* \"#utility.yul\":1606:1625   */\n      swap1\n      pop\n        /* \"#utility.yul\":1265:1631   */\n      swap2\n      swap1\n      pop\n      jump\t// out\n        /* \"#utility.yul\":1637:1950   */\n    tag_8:\n        /* \"#utility.yul\":1750:1754   */\n      0x00\n        /* \"#utility.yul\":1788:1790   */\n      0x20\n        /* \"#utility.yul\":1777:1786   */\n      dup3\n        /* \"#utility.yul\":1773:1791   */\n      add\n        /* \"#utility.yul\":1765:1791   */\n      swap1\n      pop\n        /* \"#utility.yul\":1837:1846   */\n      dup2\n        /* \"#utility.yul\":1831:1835   */\n      dup2\n        /* \"#utility.yul\":1827:1847   */\n      sub\n        /* \"#utility.yul\":1823:1824   */\n      0x00\n        /* \"#utility.yul\":1812:1821   */\n      dup4\n        /* \"#utility.yul\":1808:1825   */\n      add\n        /* \"#utility.yul\":1801:1848   */\n      mstore\n        /* \"#utility.yul\":1865:1943   */\n      tag_160\n        /* \"#utility.yul\":1938:1942   */\n      dup2\n        /* \"#utility.yul\":1929:1935   */\n      dup5\n        /* \"#utility.yul\":1865:1943   */\n      tag_139\n      jump\t// in\n    tag_160:\n        /* \"#utility.yul\":1857:1943   */\n      swap1\n      pop\n        /* \"#utility.yul\":1637:1950   */\n      swap3\n      swap2\n      pop\n      pop\n      jump\t// out\n        /* \"#utility.yul\":1956:2375   */\n    tag_27:\n        /* \"#utility.yul\":2122:2126   */\n      0x00\n        /* \"#utility.yul\":2160:2162   */\n      0x20\n        /* \"#utility.yul\":2149:2158   */\n      dup3\n        /* \"#utility.yul\":2145:2163   */\n      add\n        /* \"#utility.yul\":2137:2163   */\n      swap1\n      pop\n        /* \"#utility.yul\":2209:2218   */\n      dup2\n        /* \"#utility.yul\":2203:2207   */\n      dup2\n        /* \"#utility.yul\":2199:2219   */\n      sub\n        /* \"#utility.yul\":2195:2196   */\n      0x00\n        /* \"#utility.yul\":2184:2193   */\n      dup4\n        /* \"#utility.yul\":2180:2197   */\n      add\n        /* \"#utility.yul\":2173:2220   */\n      mstore\n        /* \"#utility.yul\":2237:2368   */\n      tag_162\n        /* \"#utility.yul\":2363:2367   */\n      dup2\n        /* \"#utility.yul\":2237:2368   */\n      tag_149\n      jump\t// in\n    tag_162:\n        /* \"#utility.yul\":2229:2368   */\n      swap1\n      pop\n        /* \"#utility.yul\":1956:2375   */\n      swap2\n      swap1\n      pop\n      jump\t// out\n        /* \"#utility.yul\":2381:2800   */\n    tag_30:\n        /* \"#utility.yul\":2547:2551   */\n      0x00\n        /* \"#utility.yul\":2585:2587   */\n      0x20\n        /* \"#utility.yul\":2574:2583   */\n      dup3\n        /* \"#utility.yul\":2570:2588   */\n      add\n        /* \"#utility.yul\":2562:2588   */\n      swap1\n      pop\n        /* \"#utility.yul\":2634:2643   */\n      dup2\n        /* \"#utility.yul\":2628:2632   */\n      dup2\n        /* \"#utility.yul\":2624:2644   */\n      sub\n        /* \"#utility.yul\":2620:2621   */\n      0x00\n        /* \"#utility.yul\":2609:2618   */\n      dup4\n        /* \"#utility.yul\":2605:2622   */\n      add\n        /* \"#utility.yul\":2598:2645   */\n      mstore\n        /* \"#utility.yul\":2662:2793   */\n      tag_164\n        /* \"#utility.yul\":2788:2792   */\n      dup2\n        /* \"#utility.yul\":2662:2793   */\n      tag_154\n      jump\t// in\n    tag_164:\n        /* \"#utility.yul\":2654:2793   */\n      swap1\n      pop\n        /* \"#utility.yul\":2381:2800   */\n      swap2\n      swap1\n      pop\n      jump\t// out\n        /* \"#utility.yul\":2887:2986   */\n    tag_142:\n        /* \"#utility.yul\":2939:2945   */\n      0x00\n        /* \"#utility.yul\":2973:2978   */\n      dup2\n        /* \"#utility.yul\":2967:2979   */\n      mload\n        /* \"#utility.yul\":2957:2979   */\n      swap1\n      pop\n        /* \"#utility.yul\":2887:2986   */\n      swap2\n      swap1\n      pop\n      jump\t// out\n        /* \"#utility.yul\":2992:3161   */\n    tag_144:\n        /* \"#utility.yul\":3076:3087   */\n      0x00\n        /* \"#utility.yul\":3110:3116   */\n      dup3\n        /* \"#utility.yul\":3105:3108   */\n      dup3\n        /* \"#utility.yul\":3098:3117   */\n      mstore\n        /* \"#utility.yul\":3150:3154   */\n      0x20\n        /* \"#utility.yul\":3145:3148   */\n      dup3\n        /* \"#utility.yul\":3141:3155   */\n      add\n        /* \"#utility.yul\":3126:3155   */\n      swap1\n      pop\n        /* \"#utility.yul\":2992:3161   */\n      swap3\n      swap2\n      pop\n      pop\n      jump\t// out\n        /* \"#utility.yul\":3167:3474   */\n    tag_146:\n        /* \"#utility.yul\":3235:3236   */\n      0x00\n        /* \"#utility.yul\":3245:3358   */\n    tag_170:\n        /* \"#utility.yul\":3259:3265   */\n      dup4\n        /* \"#utility.yul\":3256:3257   */\n      dup2\n        /* \"#utility.yul\":3253:3266   */\n      lt\n        /* \"#utility.yul\":3245:3358   */\n      iszero\n      tag_172\n      jumpi\n        /* \"#utility.yul\":3344:3345   */\n      dup1\n        /* \"#utility.yul\":3339:3342   */\n      dup3\n        /* \"#utility.yul\":3335:3346   */\n      add\n        /* \"#utility.yul\":3329:3347   */\n      mload\n        /* \"#utility.yul\":3325:3326   */\n      dup2\n        /* \"#utility.yul\":3320:3323   */\n      dup5\n        /* \"#utility.yul\":3316:3327   */\n      add\n        /* \"#utility.yul\":3309:3348   */\n      mstore\n        /* \"#utility.yul\":3281:3283   */\n      0x20\n        /* \"#utility.yul\":3278:3279   */\n      dup2\n        /* \"#utility.yul\":3274:3284   */\n      add\n        /* \"#utility.yul\":3269:3284   */\n      swap1\n      pop\n        /* \"#utility.yul\":3245:3358   */\n      jump(tag_170)\n    tag_172:\n        /* \"#utility.yul\":3376:3382   */\n      dup4\n        /* \"#utility.yul\":3373:3374   */\n      dup2\n        /* \"#utility.yul\":3370:3383   */\n      gt\n        /* \"#utility.yul\":3367:3468   */\n      iszero\n      tag_173\n      jumpi\n        /* \"#utility.yul\":3456:3457   */\n      0x00\n        /* \"#utility.yul\":3447:3453   */\n      dup5\n        /* \"#utility.yul\":3442:3445   */\n      dup5\n        /* \"#utility.yul\":3438:3454   */\n      add\n        /* \"#utility.yul\":3431:3458   */\n      mstore\n        /* \"#utility.yul\":3367:3468   */\n    tag_173:\n        /* \"#utility.yul\":3216:3474   */\n      pop\n        /* \"#utility.yul\":3167:3474   */\n      pop\n      pop\n      pop\n      jump\t// out\n        /* \"#utility.yul\":3480:3800   */\n    tag_14:\n        /* \"#utility.yul\":3524:3530   */\n      0x00\n        /* \"#utility.yul\":3561:3562   */\n      0x02\n        /* \"#utility.yul\":3555:3559   */\n      dup3\n        /* \"#utility.yul\":3551:3563   */\n      div\n        /* \"#utility.yul\":3541:3563   */\n      swap1\n      pop\n        /* \"#utility.yul\":3608:3609   */\n      0x01\n        /* \"#utility.yul\":3602:3606   */\n      dup3\n        /* \"#utility.yul\":3598:3610   */\n      and\n        /* \"#utility.yul\":3629:3647   */\n      dup1\n        /* \"#utility.yul\":3619:3700   */\n      tag_175\n      jumpi\n        /* \"#utility.yul\":3685:3689   */\n      0x7f\n        /* \"#utility.yul\":3677:3683   */\n      dup3\n        /* \"#utility.yul\":3673:3690   */\n      and\n        /* \"#utility.yul\":3663:3690   */\n      swap2\n      pop\n        /* \"#utility.yul\":3619:3700   */\n    tag_175:\n        /* \"#utility.yul\":3747:3749   */\n      0x20\n        /* \"#utility.yul\":3739:3745   */\n      dup3\n        /* \"#utility.yul\":3736:3750   */\n      lt\n        /* \"#utility.yul\":3716:3734   */\n      dup2\n        /* \"#utility.yul\":3713:3751   */\n      eq\n        /* \"#utility.yul\":3710:3794   */\n      iszero\n      tag_176\n      jumpi\n        /* \"#utility.yul\":3766:3784   */\n      tag_177\n      tag_178\n      jump\t// in\n    tag_177:\n        /* \"#utility.yul\":3710:3794   */\n    tag_176:\n        /* \"#utility.yul\":3531:3800   */\n      pop\n        /* \"#utility.yul\":3480:3800   */\n      swap2\n      swap1\n      pop\n      jump\t// out\n        /* \"#utility.yul\":3806:3986   */\n    tag_22:\n        /* \"#utility.yul\":3854:3931   */\n      0x4e487b7100000000000000000000000000000000000000000000000000000000\n        /* \"#utility.yul\":3851:3852   */\n      0x00\n        /* \"#utility.yul\":3844:3932   */\n      mstore\n        /* \"#utility.yul\":3951:3955   */\n      0x21\n        /* \"#utility.yul\":3948:3949   */\n      0x04\n        /* \"#utility.yul\":3941:3956   */\n      mstore\n        /* \"#utility.yul\":3975:3979   */\n      0x24\n        /* \"#utility.yul\":3972:3973   */\n      0x00\n        /* \"#utility.yul\":3965:3980   */\n      revert\n        /* \"#utility.yul\":3992:4172   */\n    tag_178:\n        /* \"#utility.yul\":4040:4117   */\n      0x4e487b7100000000000000000000000000000000000000000000000000000000\n        /* \"#utility.yul\":4037:4038   */\n      0x00\n        /* \"#utility.yul\":4030:4118   */\n      mstore\n        /* \"#utility.yul\":4137:4141   */\n      0x22\n        /* \"#utility.yul\":4134:4135   */\n      0x04\n        /* \"#utility.yul\":4127:4142   */\n      mstore\n        /* \"#utility.yul\":4161:4165   */\n      0x24\n        /* \"#utility.yul\":4158:4159   */\n      0x00\n        /* \"#utility.yul\":4151:4166   */\n      revert\n        /* \"#utility.yul\":4301:4418   */\n    tag_137:\n        /* \"#utility.yul\":4410:4411   */\n      0x00\n        /* \"#utility.yul\":4407:4408   */\n      dup1\n        /* \"#utility.yul\":4400:4412   */\n      revert\n        /* \"#utility.yul\":4424:4526   */\n    tag_148:\n        /* \"#utility.yul\":4465:4471   */\n      0x00\n        /* \"#utility.yul\":4516:4518   */\n      0x1f\n        /* \"#utility.yul\":4512:4519   */\n      not\n        /* \"#utility.yul\":4507:4509   */\n      0x1f\n        /* \"#utility.yul\":4500:4505   */\n      dup4\n        /* \"#utility.yul\":4496:4510   */\n      add\n        /* \"#utility.yul\":4492:4520   */\n      and\n        /* \"#utility.yul\":4482:4520   */\n      swap1\n      pop\n        /* \"#utility.yul\":4424:4526   */\n      swap2\n      swap1\n      pop\n      jump\t// out\n        /* \"#utility.yul\":4532:4697   */\n    tag_153:\n        /* \"#utility.yul\":4672:4689   */\n      0x496e76616c69642063686f696365210000000000000000000000000000000000\n        /* \"#utility.yul\":4668:4669   */\n      0x00\n        /* \"#utility.yul\":4660:4666   */\n      dup3\n        /* \"#utility.yul\":4656:4670   */\n      add\n        /* \"#utility.yul\":4649:4690   */\n      mstore\n        /* \"#utility.yul\":4532:4697   */\n      pop\n      jump\t// out\n        /* \"#utility.yul\":4703:4874   */\n    tag_158:\n        /* \"#utility.yul\":4843:4866   */\n      0x417761697420616e6f7468657220706c617965722e0000000000000000000000\n        /* \"#utility.yul\":4839:4840   */\n      0x00\n        /* \"#utility.yul\":4831:4837   */\n      dup3\n        /* \"#utility.yul\":4827:4841   */\n      add\n        /* \"#utility.yul\":4820:4867   */\n      mstore\n        /* \"#utility.yul\":4703:4874   */\n      pop\n      jump\t// out\n        /* \"#utility.yul\":4880:4988   */\n    tag_133:\n        /* \"#utility.yul\":4962:4963   */\n      0x04\n        /* \"#utility.yul\":4955:4960   */\n      dup2\n        /* \"#utility.yul\":4952:4964   */\n      lt\n        /* \"#utility.yul\":4942:4982   */\n      tag_188\n      jumpi\n        /* \"#utility.yul\":4978:4979   */\n      0x00\n        /* \"#utility.yul\":4975:4976   */\n      dup1\n        /* \"#utility.yul\":4968:4980   */\n      revert\n        /* \"#utility.yul\":4942:4982   */\n    tag_188:\n        /* \"#utility.yul\":4880:4988   */\n      pop\n      jump\t// out\n    stop\n    data_578a9428a54c800af9c02139d74432994ad47bb29704d23f809566a331855d2f 526f636b20627265616b732053636973736f72732e20506c61796572203220574f4e21\n    data_891c3d6e5adde30875c07acfcca8d06d5be6cf84c2f0053d1a896b105617b25d 506c6179657220312063686f736520686973206f7074696f6e2e2057616974696e6720666f7220706c6179657220322e\n    data_9056477a8043385bd4eedf29b3b65eaa4f879760f1d1dac4e0b1e2f1c5a5e34c 526f636b20627265616b732053636973736f72732e20506c61796572203120574f4e21\n    data_91015f70aacd548b1cf82057021b45f79e16ba2ae54c369de1244ab075c90b63 53636973736f727320637574732050617065722e20506c61796572203120574f4e21\n    data_933bdbc870e421c751aaa16e694cd13fd9fe7932556621cc4aca333dcc976580 53636973736f727320637574732050617065722e20506c61796572203220574f4e21\n\n    auxdata: 0xa26469706673582212203759b579be35a8737399fd42e5b66380ace264159e68ef16bf349ac9a25c0afe64736f6c63430008070033\n}\n",
				"bytecode": {
					"linkReferences": {},
					"object": "608060405260008060006101000a81548160ff021916908360038111156200002c576200002b62000194565b5b021790555033600060016101000a81548173ffffffffffffffffffffffffffffffffffffffff021916908373ffffffffffffffffffffffffffffffffffffffff160217905550604051806020016040528060008152506001908051906020019062000099929190620000ae565b50348015620000a757600080fd5b50620001f2565b828054620000bc906200015e565b90600052602060002090601f016020900481019282620000e057600085556200012c565b82601f10620000fb57805160ff19168380011785556200012c565b828001600101855582156200012c579182015b828111156200012b5782518255916020019190600101906200010e565b5b5090506200013b91906200013f565b5090565b5b808211156200015a57600081600090555060010162000140565b5090565b600060028204905060018216806200017757607f821691505b602082108114156200018e576200018d620001c3565b5b50919050565b7f4e487b7100000000000000000000000000000000000000000000000000000000600052602160045260246000fd5b7f4e487b7100000000000000000000000000000000000000000000000000000000600052602260045260246000fd5b610b4480620002026000396000f3fe608060405234801561001057600080fd5b50600436106100365760003560e01c8063200d2ed21461003b57806353a04b0514610059575b600080fd5b610043610075565b604051610050919061089b565b60405180910390f35b610073600480360381019061006e91906107ef565b610103565b005b600180546100829061094c565b80601f01602080910402602001604051908101604052809291908181526020018280546100ae9061094c565b80156100fb5780601f106100d0576101008083540402835291602001916100fb565b820191906000526020600020905b8154815290600101906020018083116100de57829003601f168201915b505050505081565b600060038111156101175761011661097e565b5b81600381111561012a5761012961097e565b5b141561016b576040517f08c379a0000000000000000000000000000000000000000000000000000000008152600401610162906108bd565b60405180910390fd5b3373ffffffffffffffffffffffffffffffffffffffff16600060019054906101000a900473ffffffffffffffffffffffffffffffffffffffff1673ffffffffffffffffffffffffffffffffffffffff1614156101fc576040517f08c379a00000000000000000000000000000000000000000000000000000000081526004016101f3906108dd565b60405180910390fd5b600060038111156102105761020f61097e565b5b60008054906101000a900460ff1660038111156102305761022f61097e565b5b14156102d45733600060016101000a81548173ffffffffffffffffffffffffffffffffffffffff021916908373ffffffffffffffffffffffffffffffffffffffff160217905550806000806101000a81548160ff0219169083600381111561029b5761029a61097e565b5b0217905550604051806060016040528060308152602001610a7860309139600190805190602001906102ce929190610737565b506106af565b600160038111156102e8576102e761097e565b5b60008054906101000a900460ff1660038111156103085761030761097e565b5b14801561033857506003808111156103235761032261097e565b5b8160038111156103365761033561097e565b5b145b156103635761035e604051806060016040528060238152602001610aa8602391396106b2565b6106ae565b600260038111156103775761037661097e565b5b60008054906101000a900460ff1660038111156103975761039661097e565b5b1480156103c85750600160038111156103b3576103b261097e565b5b8160038111156103c6576103c561097e565b5b145b156104105761040b6040518060400160405280601f81526020017f506170657220777261707320526f636b2e20506c61796572203120574f4e21008152506106b2565b6106ad565b6003808111156104235761042261097e565b5b60008054906101000a900460ff1660038111156104435761044261097e565b5b14801561047457506002600381111561045f5761045e61097e565b5b8160038111156104725761047161097e565b5b145b1561049f5761049a604051806060016040528060228152602001610acb602291396106b2565b6106ac565b6003808111156104b2576104b161097e565b5b60008054906101000a900460ff1660038111156104d2576104d161097e565b5b1480156105035750600160038111156104ee576104ed61097e565b5b8160038111156105015761050061097e565b5b145b1561052e57610529604051806060016040528060238152602001610a55602391396106b2565b6106ab565b600160038111156105425761054161097e565b5b60008054906101000a900460ff1660038111156105625761056161097e565b5b14801561059357506002600381111561057e5761057d61097e565b5b8160038111156105915761059061097e565b5b145b156105db576105d66040518060400160405280601f81526020017f506170657220777261707320526f636b2e20506c61796572203220574f4e21008152506106b2565b6106aa565b600260038111156105ef576105ee61097e565b5b60008054906101000a900460ff16600381111561060f5761060e61097e565b5b14801561063f575060038081111561062a5761062961097e565b5b81600381111561063d5761063c61097e565b5b145b1561066a57610665604051806060016040528060228152602001610aed602291396106b2565b6106a9565b6106a86040518060400160405280600a81526020017f447261772067616d6521000000000000000000000000000000000000000000008152506106b2565b5b5b5b5b5b5b5b50565b80600190805190602001906106c8929190610737565b5060008060016101000a81548173ffffffffffffffffffffffffffffffffffffffff021916908373ffffffffffffffffffffffffffffffffffffffff16021790555060008060006101000a81548160ff0219169083600381111561072f5761072e61097e565b5b021790555050565b8280546107439061094c565b90600052602060002090601f01602090048101928261076557600085556107ac565b82601f1061077e57805160ff19168380011785556107ac565b828001600101855582156107ac579182015b828111156107ab578251825591602001919060010190610790565b5b5090506107b991906107bd565b5090565b5b808211156107d65760008160009055506001016107be565b5090565b6000813590506107e981610a44565b92915050565b600060208284031215610805576108046109dc565b5b6000610813848285016107da565b91505092915050565b6000610827826108fd565b6108318185610908565b9350610841818560208601610919565b61084a816109e1565b840191505092915050565b6000610862600f83610908565b915061086d826109f2565b602082019050919050565b6000610885601583610908565b915061089082610a1b565b602082019050919050565b600060208201905081810360008301526108b5818461081c565b905092915050565b600060208201905081810360008301526108d681610855565b9050919050565b600060208201905081810360008301526108f681610878565b9050919050565b600081519050919050565b600082825260208201905092915050565b60005b8381101561093757808201518184015260208101905061091c565b83811115610946576000848401525b50505050565b6000600282049050600182168061096457607f821691505b60208210811415610978576109776109ad565b5b50919050565b7f4e487b7100000000000000000000000000000000000000000000000000000000600052602160045260246000fd5b7f4e487b7100000000000000000000000000000000000000000000000000000000600052602260045260246000fd5b600080fd5b6000601f19601f8301169050919050565b7f496e76616c69642063686f696365210000000000000000000000000000000000600082015250565b7f417761697420616e6f7468657220706c617965722e0000000000000000000000600082015250565b60048110610a5157600080fd5b5056fe526f636b20627265616b732053636973736f72732e20506c61796572203220574f4e21506c6179657220312063686f736520686973206f7074696f6e2e2057616974696e6720666f7220706c6179657220322e526f636b20627265616b732053636973736f72732e20506c61796572203120574f4e2153636973736f727320637574732050617065722e20506c61796572203120574f4e2153636973736f727320637574732050617065722e20506c61796572203220574f4e21a26469706673582212203759b579be35a8737399fd42e5b66380ace264159e68ef16bf349ac9a25c0afe64736f6c63430008070033",
					"opcodes": "PUSH1 0x80 PUSH1 0x40 MSTORE PUSH1 0x0 DUP1 PUSH1 0x0 PUSH2 0x100 EXP DUP2 SLOAD DUP2 PUSH1 0xFF MUL NOT AND SWAP1 DUP4 PUSH1 0x3 DUP2 GT ISZERO PUSH3 0x2C JUMPI PUSH3 0x2B PUSH3 0x194 JUMP JUMPDEST JUMPDEST MUL OR SWAP1 SSTORE POP CALLER PUSH1 0x0 PUSH1 0x1 PUSH2 0x100 EXP DUP2 SLOAD DUP2 PUSH20 0xFFFFFFFFFFFFFFFFFFFFFFFFFFFFFFFFFFFFFFFF MUL NOT AND SWAP1 DUP4 PUSH20 0xFFFFFFFFFFFFFFFFFFFFFFFFFFFFFFFFFFFFFFFF AND MUL OR SWAP1 SSTORE POP PUSH1 0x40 MLOAD DUP1 PUSH1 0x20 ADD PUSH1 0x40 MSTORE DUP1 PUSH1 0x0 DUP2 MSTORE POP PUSH1 0x1 SWAP1 DUP1 MLOAD SWAP1 PUSH1 0x20 ADD SWAP1 PUSH3 0x99 SWAP3 SWAP2 SWAP1 PUSH3 0xAE JUMP JUMPDEST POP CALLVALUE DUP1 ISZERO PUSH3 0xA7 JUMPI PUSH1 0x0 DUP1 REVERT JUMPDEST POP PUSH3 0x1F2 JUMP JUMPDEST DUP3 DUP1 SLOAD PUSH3 0xBC SWAP1 PUSH3 0x15E JUMP JUMPDEST SWAP1 PUSH1 0x0 MSTORE PUSH1 0x20 PUSH1 0x0 KECCAK256 SWAP1 PUSH1 0x1F ADD PUSH1 0x20 SWAP1 DIV DUP2 ADD SWAP3 DUP3 PUSH3 0xE0 JUMPI PUSH1 0x0 DUP6 SSTORE PUSH3 0x12C JUMP JUMPDEST DUP3 PUSH1 0x1F LT PUSH3 0xFB JUMPI DUP1 MLOAD PUSH1 0xFF NOT AND DUP4 DUP1 ADD OR DUP6 SSTORE PUSH3 0x12C JUMP JUMPDEST DUP3 DUP1 ADD PUSH1 0x1 ADD DUP6 SSTORE DUP3 ISZERO PUSH3 0x12C JUMPI SWAP2 DUP3 ADD JUMPDEST DUP3 DUP2 GT ISZERO PUSH3 0x12B JUMPI DUP3 MLOAD DUP3 SSTORE SWAP2 PUSH1 0x20 ADD SWAP2 SWAP1 PUSH1 0x1 ADD SWAP1 PUSH3 0x10E JUMP JUMPDEST JUMPDEST POP SWAP1 POP PUSH3 0x13B SWAP2 SWAP1 PUSH3 0x13F JUMP JUMPDEST POP SWAP1 JUMP JUMPDEST JUMPDEST DUP1 DUP3 GT ISZERO PUSH3 0x15A JUMPI PUSH1 0x0 DUP2 PUSH1 0x0 SWAP1 SSTORE POP PUSH1 0x1 ADD PUSH3 0x140 JUMP JUMPDEST POP SWAP1 JUMP JUMPDEST PUSH1 0x0 PUSH1 0x2 DUP3 DIV SWAP1 POP PUSH1 0x1 DUP3 AND DUP1 PUSH3 0x177 JUMPI PUSH1 0x7F DUP3 AND SWAP2 POP JUMPDEST PUSH1 0x20 DUP3 LT DUP2 EQ ISZERO PUSH3 0x18E JUMPI PUSH3 0x18D PUSH3 0x1C3 JUMP JUMPDEST JUMPDEST POP SWAP2 SWAP1 POP JUMP JUMPDEST PUSH32 0x4E487B7100000000000000000000000000000000000000000000000000000000 PUSH1 0x0 MSTORE PUSH1 0x21 PUSH1 0x4 MSTORE PUSH1 0x24 PUSH1 0x0 REVERT JUMPDEST PUSH32 0x4E487B7100000000000000000000000000000000000000000000000000000000 PUSH1 0x0 MSTORE PUSH1 0x22 PUSH1 0x4 MSTORE PUSH1 0x24 PUSH1 0x0 REVERT JUMPDEST PUSH2 0xB44 DUP1 PUSH3 0x202 PUSH1 0x0 CODECOPY PUSH1 0x0 RETURN INVALID PUSH1 0x80 PUSH1 0x40 MSTORE CALLVALUE DUP1 ISZERO PUSH2 0x10 JUMPI PUSH1 0x0 DUP1 REVERT JUMPDEST POP PUSH1 0x4 CALLDATASIZE LT PUSH2 0x36 JUMPI PUSH1 0x0 CALLDATALOAD PUSH1 0xE0 SHR DUP1 PUSH4 0x200D2ED2 EQ PUSH2 0x3B JUMPI DUP1 PUSH4 0x53A04B05 EQ PUSH2 0x59 JUMPI JUMPDEST PUSH1 0x0 DUP1 REVERT JUMPDEST PUSH2 0x43 PUSH2 0x75 JUMP JUMPDEST PUSH1 0x40 MLOAD PUSH2 0x50 SWAP2 SWAP1 PUSH2 0x89B JUMP JUMPDEST PUSH1 0x40 MLOAD DUP1 SWAP2 SUB SWAP1 RETURN JUMPDEST PUSH2 0x73 PUSH1 0x4 DUP1 CALLDATASIZE SUB DUP2 ADD SWAP1 PUSH2 0x6E SWAP2 SWAP1 PUSH2 0x7EF JUMP JUMPDEST PUSH2 0x103 JUMP JUMPDEST STOP JUMPDEST PUSH1 0x1 DUP1 SLOAD PUSH2 0x82 SWAP1 PUSH2 0x94C JUMP JUMPDEST DUP1 PUSH1 0x1F ADD PUSH1 0x20 DUP1 SWAP2 DIV MUL PUSH1 0x20 ADD PUSH1 0x40 MLOAD SWAP1 DUP2 ADD PUSH1 0x40 MSTORE DUP1 SWAP3 SWAP2 SWAP1 DUP2 DUP2 MSTORE PUSH1 0x20 ADD DUP3 DUP1 SLOAD PUSH2 0xAE SWAP1 PUSH2 0x94C JUMP JUMPDEST DUP1 ISZERO PUSH2 0xFB JUMPI DUP1 PUSH1 0x1F LT PUSH2 0xD0 JUMPI PUSH2 0x100 DUP1 DUP4 SLOAD DIV MUL DUP4 MSTORE SWAP2 PUSH1 0x20 ADD SWAP2 PUSH2 0xFB JUMP JUMPDEST DUP3 ADD SWAP2 SWAP1 PUSH1 0x0 MSTORE PUSH1 0x20 PUSH1 0x0 KECCAK256 SWAP1 JUMPDEST DUP2 SLOAD DUP2 MSTORE SWAP1 PUSH1 0x1 ADD SWAP1 PUSH1 0x20 ADD DUP1 DUP4 GT PUSH2 0xDE JUMPI DUP3 SWAP1 SUB PUSH1 0x1F AND DUP3 ADD SWAP2 JUMPDEST POP POP POP POP POP DUP2 JUMP JUMPDEST PUSH1 0x0 PUSH1 0x3 DUP2 GT ISZERO PUSH2 0x117 JUMPI PUSH2 0x116 PUSH2 0x97E JUMP JUMPDEST JUMPDEST DUP2 PUSH1 0x3 DUP2 GT ISZERO PUSH2 0x12A JUMPI PUSH2 0x129 PUSH2 0x97E JUMP JUMPDEST JUMPDEST EQ ISZERO PUSH2 0x16B JUMPI PUSH1 0x40 MLOAD PUSH32 0x8C379A000000000000000000000000000000000000000000000000000000000 DUP2 MSTORE PUSH1 0x4 ADD PUSH2 0x162 SWAP1 PUSH2 0x8BD JUMP JUMPDEST PUSH1 0x40 MLOAD DUP1 SWAP2 SUB SWAP1 REVERT JUMPDEST CALLER PUSH20 0xFFFFFFFFFFFFFFFFFFFFFFFFFFFFFFFFFFFFFFFF AND PUSH1 0x0 PUSH1 0x1 SWAP1 SLOAD SWAP1 PUSH2 0x100 EXP SWAP1 DIV PUSH20 0xFFFFFFFFFFFFFFFFFFFFFFFFFFFFFFFFFFFFFFFF AND PUSH20 0xFFFFFFFFFFFFFFFFFFFFFFFFFFFFFFFFFFFFFFFF AND EQ ISZERO PUSH2 0x1FC JUMPI PUSH1 0x40 MLOAD PUSH32 0x8C379A000000000000000000000000000000000000000000000000000000000 DUP2 MSTORE PUSH1 0x4 ADD PUSH2 0x1F3 SWAP1 PUSH2 0x8DD JUMP JUMPDEST PUSH1 0x40 MLOAD DUP1 SWAP2 SUB SWAP1 REVERT JUMPDEST PUSH1 0x0 PUSH1 0x3 DUP2 GT ISZERO PUSH2 0x210 JUMPI PUSH2 0x20F PUSH2 0x97E JUMP JUMPDEST JUMPDEST PUSH1 0x0 DUP1 SLOAD SWAP1 PUSH2 0x100 EXP SWAP1 DIV PUSH1 0xFF AND PUSH1 0x3 DUP2 GT ISZERO PUSH2 0x230 JUMPI PUSH2 0x22F PUSH2 0x97E JUMP JUMPDEST JUMPDEST EQ ISZERO PUSH2 0x2D4 JUMPI CALLER PUSH1 0x0 PUSH1 0x1 PUSH2 0x100 EXP DUP2 SLOAD DUP2 PUSH20 0xFFFFFFFFFFFFFFFFFFFFFFFFFFFFFFFFFFFFFFFF MUL NOT AND SWAP1 DUP4 PUSH20 0xFFFFFFFFFFFFFFFFFFFFFFFFFFFFFFFFFFFFFFFF AND MUL OR SWAP1 SSTORE POP DUP1 PUSH1 0x0 DUP1 PUSH2 0x100 EXP DUP2 SLOAD DUP2 PUSH1 0xFF MUL NOT AND SWAP1 DUP4 PUSH1 0x3 DUP2 GT ISZERO PUSH2 0x29B JUMPI PUSH2 0x29A PUSH2 0x97E JUMP JUMPDEST JUMPDEST MUL OR SWAP1 SSTORE POP PUSH1 0x40 MLOAD DUP1 PUSH1 0x60 ADD PUSH1 0x40 MSTORE DUP1 PUSH1 0x30 DUP2 MSTORE PUSH1 0x20 ADD PUSH2 0xA78 PUSH1 0x30 SWAP2 CODECOPY PUSH1 0x1 SWAP1 DUP1 MLOAD SWAP1 PUSH1 0x20 ADD SWAP1 PUSH2 0x2CE SWAP3 SWAP2 SWAP1 PUSH2 0x737 JUMP JUMPDEST POP PUSH2 0x6AF JUMP JUMPDEST PUSH1 0x1 PUSH1 0x3 DUP2 GT ISZERO PUSH2 0x2E8 JUMPI PUSH2 0x2E7 PUSH2 0x97E JUMP JUMPDEST JUMPDEST PUSH1 0x0 DUP1 SLOAD SWAP1 PUSH2 0x100 EXP SWAP1 DIV PUSH1 0xFF AND PUSH1 0x3 DUP2 GT ISZERO PUSH2 0x308 JUMPI PUSH2 0x307 PUSH2 0x97E JUMP JUMPDEST JUMPDEST EQ DUP1 ISZERO PUSH2 0x338 JUMPI POP PUSH1 0x3 DUP1 DUP2 GT ISZERO PUSH2 0x323 JUMPI PUSH2 0x322 PUSH2 0x97E JUMP JUMPDEST JUMPDEST DUP2 PUSH1 0x3 DUP2 GT ISZERO PUSH2 0x336 JUMPI PUSH2 0x335 PUSH2 0x97E JUMP JUMPDEST JUMPDEST EQ JUMPDEST ISZERO PUSH2 0x363 JUMPI PUSH2 0x35E PUSH1 0x40 MLOAD DUP1 PUSH1 0x60 ADD PUSH1 0x40 MSTORE DUP1 PUSH1 0x23 DUP2 MSTORE PUSH1 0x20 ADD PUSH2 0xAA8 PUSH1 0x23 SWAP2 CODECOPY PUSH2 0x6B2 JUMP JUMPDEST PUSH2 0x6AE JUMP JUMPDEST PUSH1 0x2 PUSH1 0x3 DUP2 GT ISZERO PUSH2 0x377 JUMPI PUSH2 0x376 PUSH2 0x97E JUMP JUMPDEST JUMPDEST PUSH1 0x0 DUP1 SLOAD SWAP1 PUSH2 0x100 EXP SWAP1 DIV PUSH1 0xFF AND PUSH1 0x3 DUP2 GT ISZERO PUSH2 0x397 JUMPI PUSH2 0x396 PUSH2 0x97E JUMP JUMPDEST JUMPDEST EQ DUP1 ISZERO PUSH2 0x3C8 JUMPI POP PUSH1 0x1 PUSH1 0x3 DUP2 GT ISZERO PUSH2 0x3B3 JUMPI PUSH2 0x3B2 PUSH2 0x97E JUMP JUMPDEST JUMPDEST DUP2 PUSH1 0x3 DUP2 GT ISZERO PUSH2 0x3C6 JUMPI PUSH2 0x3C5 PUSH2 0x97E JUMP JUMPDEST JUMPDEST EQ JUMPDEST ISZERO PUSH2 0x410 JUMPI PUSH2 0x40B PUSH1 0x40 MLOAD DUP1 PUSH1 0x40 ADD PUSH1 0x40 MSTORE DUP1 PUSH1 0x1F DUP2 MSTORE PUSH1 0x20 ADD PUSH32 0x506170657220777261707320526F636B2E20506C61796572203120574F4E2100 DUP2 MSTORE POP PUSH2 0x6B2 JUMP JUMPDEST PUSH2 0x6AD JUMP JUMPDEST PUSH1 0x3 DUP1 DUP2 GT ISZERO PUSH2 0x423 JUMPI PUSH2 0x422 PUSH2 0x97E JUMP JUMPDEST JUMPDEST PUSH1 0x0 DUP1 SLOAD SWAP1 PUSH2 0x100 EXP SWAP1 DIV PUSH1 0xFF AND PUSH1 0x3 DUP2 GT ISZERO PUSH2 0x443 JUMPI PUSH2 0x442 PUSH2 0x97E JUMP JUMPDEST JUMPDEST EQ DUP1 ISZERO PUSH2 0x474 JUMPI POP PUSH1 0x2 PUSH1 0x3 DUP2 GT ISZERO PUSH2 0x45F JUMPI PUSH2 0x45E PUSH2 0x97E JUMP JUMPDEST JUMPDEST DUP2 PUSH1 0x3 DUP2 GT ISZERO PUSH2 0x472 JUMPI PUSH2 0x471 PUSH2 0x97E JUMP JUMPDEST JUMPDEST EQ JUMPDEST ISZERO PUSH2 0x49F JUMPI PUSH2 0x49A PUSH1 0x40 MLOAD DUP1 PUSH1 0x60 ADD PUSH1 0x40 MSTORE DUP1 PUSH1 0x22 DUP2 MSTORE PUSH1 0x20 ADD PUSH2 0xACB PUSH1 0x22 SWAP2 CODECOPY PUSH2 0x6B2 JUMP JUMPDEST PUSH2 0x6AC JUMP JUMPDEST PUSH1 0x3 DUP1 DUP2 GT ISZERO PUSH2 0x4B2 JUMPI PUSH2 0x4B1 PUSH2 0x97E JUMP JUMPDEST JUMPDEST PUSH1 0x0 DUP1 SLOAD SWAP1 PUSH2 0x100 EXP SWAP1 DIV PUSH1 0xFF AND PUSH1 0x3 DUP2 GT ISZERO PUSH2 0x4D2 JUMPI PUSH2 0x4D1 PUSH2 0x97E JUMP JUMPDEST JUMPDEST EQ DUP1 ISZERO PUSH2 0x503 JUMPI POP PUSH1 0x1 PUSH1 0x3 DUP2 GT ISZERO PUSH2 0x4EE JUMPI PUSH2 0x4ED PUSH2 0x97E JUMP JUMPDEST JUMPDEST DUP2 PUSH1 0x3 DUP2 GT ISZERO PUSH2 0x501 JUMPI PUSH2 0x500 PUSH2 0x97E JUMP JUMPDEST JUMPDEST EQ JUMPDEST ISZERO PUSH2 0x52E JUMPI PUSH2 0x529 PUSH1 0x40 MLOAD DUP1 PUSH1 0x60 ADD PUSH1 0x40 MSTORE DUP1 PUSH1 0x23 DUP2 MSTORE PUSH1 0x20 ADD PUSH2 0xA55 PUSH1 0x23 SWAP2 CODECOPY PUSH2 0x6B2 JUMP JUMPDEST PUSH2 0x6AB JUMP JUMPDEST PUSH1 0x1 PUSH1 0x3 DUP2 GT ISZERO PUSH2 0x542 JUMPI PUSH2 0x541 PUSH2 0x97E JUMP JUMPDEST JUMPDEST PUSH1 0x0 DUP1 SLOAD SWAP1 PUSH2 0x100 EXP SWAP1 DIV PUSH1 0xFF AND PUSH1 0x3 DUP2 GT ISZERO PUSH2 0x562 JUMPI PUSH2 0x561 PUSH2 0x97E JUMP JUMPDEST JUMPDEST EQ DUP1 ISZERO PUSH2 0x593 JUMPI POP PUSH1 0x2 PUSH1 0x3 DUP2 GT ISZERO PUSH2 0x57E JUMPI PUSH2 0x57D PUSH2 0x97E JUMP JUMPDEST JUMPDEST DUP2 PUSH1 0x3 DUP2 GT ISZERO PUSH2 0x591 JUMPI PUSH2 0x590 PUSH2 0x97E JUMP JUMPDEST JUMPDEST EQ JUMPDEST ISZERO PUSH2 0x5DB JUMPI PUSH2 0x5D6 PUSH1 0x40 MLOAD DUP1 PUSH1 0x40 ADD PUSH1 0x40 MSTORE DUP1 PUSH1 0x1F DUP2 MSTORE PUSH1 0x20 ADD PUSH32 0x506170657220777261707320526F636B2E20506C61796572203220574F4E2100 DUP2 MSTORE POP PUSH2 0x6B2 JUMP JUMPDEST PUSH2 0x6AA JUMP JUMPDEST PUSH1 0x2 PUSH1 0x3 DUP2 GT ISZERO PUSH2 0x5EF JUMPI PUSH2 0x5EE PUSH2 0x97E JUMP JUMPDEST JUMPDEST PUSH1 0x0 DUP1 SLOAD SWAP1 PUSH2 0x100 EXP SWAP1 DIV PUSH1 0xFF AND PUSH1 0x3 DUP2 GT ISZERO PUSH2 0x60F JUMPI PUSH2 0x60E PUSH2 0x97E JUMP JUMPDEST JUMPDEST EQ DUP1 ISZERO PUSH2 0x63F JUMPI POP PUSH1 0x3 DUP1 DUP2 GT ISZERO PUSH2 0x62A JUMPI PUSH2 0x629 PUSH2 0x97E JUMP JUMPDEST JUMPDEST DUP2 PUSH1 0x3 DUP2 GT ISZERO PUSH2 0x63D JUMPI PUSH2 0x63C PUSH2 0x97E JUMP JUMPDEST JUMPDEST EQ JUMPDEST ISZERO PUSH2 0x66A JUMPI PUSH2 0x665 PUSH1 0x40 MLOAD DUP1 PUSH1 0x60 ADD PUSH1 0x40 MSTORE DUP1 PUSH1 0x22 DUP2 MSTORE PUSH1 0x20 ADD PUSH2 0xAED PUSH1 0x22 SWAP2 CODECOPY PUSH2 0x6B2 JUMP JUMPDEST PUSH2 0x6A9 JUMP JUMPDEST PUSH2 0x6A8 PUSH1 0x40 MLOAD DUP1 PUSH1 0x40 ADD PUSH1 0x40 MSTORE DUP1 PUSH1 0xA DUP2 MSTORE PUSH1 0x20 ADD PUSH32 0x447261772067616D652100000000000000000000000000000000000000000000 DUP2 MSTORE POP PUSH2 0x6B2 JUMP JUMPDEST JUMPDEST JUMPDEST JUMPDEST JUMPDEST JUMPDEST JUMPDEST JUMPDEST POP JUMP JUMPDEST DUP1 PUSH1 0x1 SWAP1 DUP1 MLOAD SWAP1 PUSH1 0x20 ADD SWAP1 PUSH2 0x6C8 SWAP3 SWAP2 SWAP1 PUSH2 0x737 JUMP JUMPDEST POP PUSH1 0x0 DUP1 PUSH1 0x1 PUSH2 0x100 EXP DUP2 SLOAD DUP2 PUSH20 0xFFFFFFFFFFFFFFFFFFFFFFFFFFFFFFFFFFFFFFFF MUL NOT AND SWAP1 DUP4 PUSH20 0xFFFFFFFFFFFFFFFFFFFFFFFFFFFFFFFFFFFFFFFF AND MUL OR SWAP1 SSTORE POP PUSH1 0x0 DUP1 PUSH1 0x0 PUSH2 0x100 EXP DUP2 SLOAD DUP2 PUSH1 0xFF MUL NOT AND SWAP1 DUP4 PUSH1 0x3 DUP2 GT ISZERO PUSH2 0x72F JUMPI PUSH2 0x72E PUSH2 0x97E JUMP JUMPDEST JUMPDEST MUL OR SWAP1 SSTORE POP POP JUMP JUMPDEST DUP3 DUP1 SLOAD PUSH2 0x743 SWAP1 PUSH2 0x94C JUMP JUMPDEST SWAP1 PUSH1 0x0 MSTORE PUSH1 0x20 PUSH1 0x0 KECCAK256 SWAP1 PUSH1 0x1F ADD PUSH1 0x20 SWAP1 DIV DUP2 ADD SWAP3 DUP3 PUSH2 0x765 JUMPI PUSH1 0x0 DUP6 SSTORE PUSH2 0x7AC JUMP JUMPDEST DUP3 PUSH1 0x1F LT PUSH2 0x77E JUMPI DUP1 MLOAD PUSH1 0xFF NOT AND DUP4 DUP1 ADD OR DUP6 SSTORE PUSH2 0x7AC JUMP JUMPDEST DUP3 DUP1 ADD PUSH1 0x1 ADD DUP6 SSTORE DUP3 ISZERO PUSH2 0x7AC JUMPI SWAP2 DUP3 ADD JUMPDEST DUP3 DUP2 GT ISZERO PUSH2 0x7AB JUMPI DUP3 MLOAD DUP3 SSTORE SWAP2 PUSH1 0x20 ADD SWAP2 SWAP1 PUSH1 0x1 ADD SWAP1 PUSH2 0x790 JUMP JUMPDEST JUMPDEST POP SWAP1 POP PUSH2 0x7B9 SWAP2 SWAP1 PUSH2 0x7BD JUMP JUMPDEST POP SWAP1 JUMP JUMPDEST JUMPDEST DUP1 DUP3 GT ISZERO PUSH2 0x7D6 JUMPI PUSH1 0x0 DUP2 PUSH1 0x0 SWAP1 SSTORE POP PUSH1 0x1 ADD PUSH2 0x7BE JUMP JUMPDEST POP SWAP1 JUMP JUMPDEST PUSH1 0x0 DUP2 CALLDATALOAD SWAP1 POP PUSH2 0x7E9 DUP2 PUSH2 0xA44 JUMP JUMPDEST SWAP3 SWAP2 POP POP JUMP JUMPDEST PUSH1 0x0 PUSH1 0x20 DUP3 DUP5 SUB SLT ISZERO PUSH2 0x805 JUMPI PUSH2 0x804 PUSH2 0x9DC JUMP JUMPDEST JUMPDEST PUSH1 0x0 PUSH2 0x813 DUP5 DUP3 DUP6 ADD PUSH2 0x7DA JUMP JUMPDEST SWAP2 POP POP SWAP3 SWAP2 POP POP JUMP JUMPDEST PUSH1 0x0 PUSH2 0x827 DUP3 PUSH2 0x8FD JUMP JUMPDEST PUSH2 0x831 DUP2 DUP6 PUSH2 0x908 JUMP JUMPDEST SWAP4 POP PUSH2 0x841 DUP2 DUP6 PUSH1 0x20 DUP7 ADD PUSH2 0x919 JUMP JUMPDEST PUSH2 0x84A DUP2 PUSH2 0x9E1 JUMP JUMPDEST DUP5 ADD SWAP2 POP POP SWAP3 SWAP2 POP POP JUMP JUMPDEST PUSH1 0x0 PUSH2 0x862 PUSH1 0xF DUP4 PUSH2 0x908 JUMP JUMPDEST SWAP2 POP PUSH2 0x86D DUP3 PUSH2 0x9F2 JUMP JUMPDEST PUSH1 0x20 DUP3 ADD SWAP1 POP SWAP2 SWAP1 POP JUMP JUMPDEST PUSH1 0x0 PUSH2 0x885 PUSH1 0x15 DUP4 PUSH2 0x908 JUMP JUMPDEST SWAP2 POP PUSH2 0x890 DUP3 PUSH2 0xA1B JUMP JUMPDEST PUSH1 0x20 DUP3 ADD SWAP1 POP SWAP2 SWAP1 POP JUMP JUMPDEST PUSH1 0x0 PUSH1 0x20 DUP3 ADD SWAP1 POP DUP2 DUP2 SUB PUSH1 0x0 DUP4 ADD MSTORE PUSH2 0x8B5 DUP2 DUP5 PUSH2 0x81C JUMP JUMPDEST SWAP1 POP SWAP3 SWAP2 POP POP JUMP JUMPDEST PUSH1 0x0 PUSH1 0x20 DUP3 ADD SWAP1 POP DUP2 DUP2 SUB PUSH1 0x0 DUP4 ADD MSTORE PUSH2 0x8D6 DUP2 PUSH2 0x855 JUMP JUMPDEST SWAP1 POP SWAP2 SWAP1 POP JUMP JUMPDEST PUSH1 0x0 PUSH1 0x20 DUP3 ADD SWAP1 POP DUP2 DUP2 SUB PUSH1 0x0 DUP4 ADD MSTORE PUSH2 0x8F6 DUP2 PUSH2 0x878 JUMP JUMPDEST SWAP1 POP SWAP2 SWAP1 POP JUMP JUMPDEST PUSH1 0x0 DUP2 MLOAD SWAP1 POP SWAP2 SWAP1 POP JUMP JUMPDEST PUSH1 0x0 DUP3 DUP3 MSTORE PUSH1 0x20 DUP3 ADD SWAP1 POP SWAP3 SWAP2 POP POP JUMP JUMPDEST PUSH1 0x0 JUMPDEST DUP4 DUP2 LT ISZERO PUSH2 0x937 JUMPI DUP1 DUP3 ADD MLOAD DUP2 DUP5 ADD MSTORE PUSH1 0x20 DUP2 ADD SWAP1 POP PUSH2 0x91C JUMP JUMPDEST DUP4 DUP2 GT ISZERO PUSH2 0x946 JUMPI PUSH1 0x0 DUP5 DUP5 ADD MSTORE JUMPDEST POP POP POP POP JUMP JUMPDEST PUSH1 0x0 PUSH1 0x2 DUP3 DIV SWAP1 POP PUSH1 0x1 DUP3 AND DUP1 PUSH2 0x964 JUMPI PUSH1 0x7F DUP3 AND SWAP2 POP JUMPDEST PUSH1 0x20 DUP3 LT DUP2 EQ ISZERO PUSH2 0x978 JUMPI PUSH2 0x977 PUSH2 0x9AD JUMP JUMPDEST JUMPDEST POP SWAP2 SWAP1 POP JUMP JUMPDEST PUSH32 0x4E487B7100000000000000000000000000000000000000000000000000000000 PUSH1 0x0 MSTORE PUSH1 0x21 PUSH1 0x4 MSTORE PUSH1 0x24 PUSH1 0x0 REVERT JUMPDEST PUSH32 0x4E487B7100000000000000000000000000000000000000000000000000000000 PUSH1 0x0 MSTORE PUSH1 0x22 PUSH1 0x4 MSTORE PUSH1 0x24 PUSH1 0x0 REVERT JUMPDEST PUSH1 0x0 DUP1 REVERT JUMPDEST PUSH1 0x0 PUSH1 0x1F NOT PUSH1 0x1F DUP4 ADD AND SWAP1 POP SWAP2 SWAP1 POP JUMP JUMPDEST PUSH32 0x496E76616C69642063686F696365210000000000000000000000000000000000 PUSH1 0x0 DUP3 ADD MSTORE POP JUMP JUMPDEST PUSH32 0x417761697420616E6F7468657220706C617965722E0000000000000000000000 PUSH1 0x0 DUP3 ADD MSTORE POP JUMP JUMPDEST PUSH1 0x4 DUP2 LT PUSH2 0xA51 JUMPI PUSH1 0x0 DUP1 REVERT JUMPDEST POP JUMP INVALID MSTORE PUSH16 0x636B20627265616B732053636973736F PUSH19 0x732E20506C61796572203220574F4E21506C61 PUSH26 0x657220312063686F736520686973206F7074696F6E2E20576169 PUSH21 0x696E6720666F7220706C6179657220322E526F636B KECCAK256 PUSH3 0x726561 PUSH12 0x732053636973736F72732E20 POP PUSH13 0x61796572203120574F4E215363 PUSH10 0x73736F72732063757473 KECCAK256 POP PUSH2 0x7065 PUSH19 0x2E20506C61796572203120574F4E2153636973 PUSH20 0x6F727320637574732050617065722E20506C6179 PUSH6 0x72203220574F 0x4E 0x21 LOG2 PUSH5 0x6970667358 0x22 SLT KECCAK256 CALLDATACOPY MSIZE 0xB5 PUSH26 0xBE35A8737399FD42E5B66380ACE264159E68EF16BF349AC9A25C EXP INVALID PUSH5 0x736F6C6343 STOP ADDMOD SMOD STOP CALLER "
				},
				"gasEstimates": {
					"creation": {
						"codeDepositCost": "576800",
						"executionCost": "infinite",
						"totalCost": "infinite"
					},
					"external": {
						"play(uint8)": "infinite",
						"status()": "infinite"
					},
					"internal": {
						"setStatus(string memory)": "infinite"
					}
				},
				"methodIdentifiers": {
					"play(uint8)": "53a04b05",
					"status()": "200d2ed2"
				}
			},
			"storageLayout": {
				"storage": [
					{
						"astId": 11,
						"contract": "Contracts/JoKenPo.sol:JoKenPo",
						"label": "choice1",
						"offset": 0,
						"slot": "0",
						"type": "t_enum(Options)6"
					},
					{
						"astId": 15,
						"contract": "Contracts/JoKenPo.sol:JoKenPo",
						"label": "player1",
						"offset": 1,
						"slot": "0",
						"type": "t_address"
					},
					{
						"astId": 18,
						"contract": "Contracts/JoKenPo.sol:JoKenPo",
						"label": "status",
						"offset": 0,
						"slot": "1",
						"type": "t_string_storage"
					}
				],
				"types": {
					"t_address": {
						"encoding": "inplace",
						"label": "address",
						"numberOfBytes": "20"
					},
					"t_enum(Options)6": {
						"encoding": "inplace",
						"label": "enum JoKenPo.Options",
						"numberOfBytes": "1"
					},
					"t_string_storage": {
						"encoding": "bytes",
						"label": "string",
						"numberOfBytes": "32"
					}
				}
			},
			"userdoc": {
				"kind": "user",
				"methods": {
					"play(uint8)": {
						"notice": "The game param newChoice = 0, 1, 2 or 3 "
					}
				},
				"version": 1
			}
		}
	}
}