{
	"Contracts/JoKenPo.sol": {
		"JoKenPo": {
			"abi": [
				{
					"inputs": [],
					"stateMutability": "nonpayable",
					"type": "constructor"
				},
				{
					"inputs": [],
					"name": "getBalance",
					"outputs": [
						{
							"internalType": "uint256",
							"name": "",
							"type": "uint256"
						}
					],
					"stateMutability": "view",
					"type": "function"
				},
				{
					"inputs": [],
					"name": "getRanking",
					"outputs": [
						{
							"components": [
								{
									"internalType": "address",
									"name": "wallet",
									"type": "address"
								},
								{
									"internalType": "uint32",
									"name": "wins",
									"type": "uint32"
								}
							],
							"internalType": "struct JoKenPo.Player[]",
							"name": "",
							"type": "tuple[]"
						}
					],
					"stateMutability": "view",
					"type": "function"
				},
				{
					"inputs": [
						{
							"internalType": "enum JoKenPo.Options",
							"name": "newChoice",
							"type": "uint8"
						}
					],
					"name": "play",
					"outputs": [],
					"stateMutability": "payable",
					"type": "function"
				},
				{
					"inputs": [
						{
							"internalType": "uint256",
							"name": "",
							"type": "uint256"
						}
					],
					"name": "players",
					"outputs": [
						{
							"internalType": "address",
							"name": "wallet",
							"type": "address"
						},
						{
							"internalType": "uint32",
							"name": "wins",
							"type": "uint32"
						}
					],
					"stateMutability": "view",
					"type": "function"
				},
				{
					"inputs": [],
					"name": "status",
					"outputs": [
						{
							"internalType": "string",
							"name": "",
							"type": "string"
						}
					],
					"stateMutability": "view",
					"type": "function"
				}
			],
			"devdoc": {
				"kind": "dev",
				"methods": {},
				"version": 1
			},
			"evm": {
				"assembly": "    /* \"Contracts/JoKenPo.sol\":62:5348  contract JoKenPo {... */\n  mstore(0x40, 0xa0)\n    /* \"Contracts/JoKenPo.sol\":220:232  Options.NONE */\n  0x00\n    /* \"Contracts/JoKenPo.sol\":194:232  Options private choice1 = Options.NONE */\n  dup1\n  exp(0x0100, 0x00)\n  dup2\n  sload\n  dup2\n  0xff\n  mul\n  not\n  and\n  swap1\n  dup4\n  0x03\n  dup2\n  gt\n  iszero\n  tag_1\n  jumpi\n  tag_2\n  tag_3\n  jump\t// in\ntag_2:\ntag_1:\n  mul\n  or\n  swap1\n  sstore\n  pop\n    /* \"Contracts/JoKenPo.sol\":275:285  msg.sender */\n  caller\n    /* \"Contracts/JoKenPo.sol\":249:285  address private player1 = msg.sender */\n  0x00\n  exp(0x0100, 0x01)\n  dup2\n  sload\n  dup2\n  0xffffffffffffffffffffffffffffffffffffffff\n  mul\n  not\n  and\n  swap1\n  dup4\n  0xffffffffffffffffffffffffffffffffffffffff\n  and\n  mul\n  or\n  swap1\n  sstore\n  pop\n    /* \"Contracts/JoKenPo.sol\":343:368  string public status = \"\" */\n  mload(0x40)\n  dup1\n  0x20\n  add\n  0x40\n  mstore\n  dup1\n  0x00\n  dup2\n  mstore\n  pop\n  0x01\n  swap1\n  dup2\n  tag_4\n  swap2\n  swap1\n  tag_5\n  jump\t// in\ntag_4:\n  pop\n    /* \"Contracts/JoKenPo.sol\":650:763  constructor(){... */\n  callvalue\n  dup1\n  iszero\n  tag_6\n  jumpi\n  0x00\n  dup1\n  revert\ntag_6:\n  pop\n    /* \"Contracts/JoKenPo.sol\":744:754  msg.sender */\n  caller\n    /* \"Contracts/JoKenPo.sol\":728:755  owner = payable(msg.sender) */\n  0xffffffffffffffffffffffffffffffffffffffff\n  and\n  0x80\n  dup2\n  0xffffffffffffffffffffffffffffffffffffffff\n  and\n  dup2\n  mstore\n  pop\n  pop\n    /* \"Contracts/JoKenPo.sol\":62:5348  contract JoKenPo {... */\n  jump(tag_9)\n    /* \"#utility.yul\":7:187   */\ntag_3:\n    /* \"#utility.yul\":55:132   */\n  0x4e487b7100000000000000000000000000000000000000000000000000000000\n    /* \"#utility.yul\":52:53   */\n  0x00\n    /* \"#utility.yul\":45:133   */\n  mstore\n    /* \"#utility.yul\":152:156   */\n  0x21\n    /* \"#utility.yul\":149:150   */\n  0x04\n    /* \"#utility.yul\":142:157   */\n  mstore\n    /* \"#utility.yul\":176:180   */\n  0x24\n    /* \"#utility.yul\":173:174   */\n  0x00\n    /* \"#utility.yul\":166:181   */\n  revert\n    /* \"#utility.yul\":193:292   */\ntag_10:\n    /* \"#utility.yul\":245:251   */\n  0x00\n    /* \"#utility.yul\":279:284   */\n  dup2\n    /* \"#utility.yul\":273:285   */\n  mload\n    /* \"#utility.yul\":263:285   */\n  swap1\n  pop\n    /* \"#utility.yul\":193:292   */\n  swap2\n  swap1\n  pop\n  jump\t// out\n    /* \"#utility.yul\":298:478   */\ntag_11:\n    /* \"#utility.yul\":346:423   */\n  0x4e487b7100000000000000000000000000000000000000000000000000000000\n    /* \"#utility.yul\":343:344   */\n  0x00\n    /* \"#utility.yul\":336:424   */\n  mstore\n    /* \"#utility.yul\":443:447   */\n  0x41\n    /* \"#utility.yul\":440:441   */\n  0x04\n    /* \"#utility.yul\":433:448   */\n  mstore\n    /* \"#utility.yul\":467:471   */\n  0x24\n    /* \"#utility.yul\":464:465   */\n  0x00\n    /* \"#utility.yul\":457:472   */\n  revert\n    /* \"#utility.yul\":484:664   */\ntag_12:\n    /* \"#utility.yul\":532:609   */\n  0x4e487b7100000000000000000000000000000000000000000000000000000000\n    /* \"#utility.yul\":529:530   */\n  0x00\n    /* \"#utility.yul\":522:610   */\n  mstore\n    /* \"#utility.yul\":629:633   */\n  0x22\n    /* \"#utility.yul\":626:627   */\n  0x04\n    /* \"#utility.yul\":619:634   */\n  mstore\n    /* \"#utility.yul\":653:657   */\n  0x24\n    /* \"#utility.yul\":650:651   */\n  0x00\n    /* \"#utility.yul\":643:658   */\n  revert\n    /* \"#utility.yul\":670:990   */\ntag_13:\n    /* \"#utility.yul\":714:720   */\n  0x00\n    /* \"#utility.yul\":751:752   */\n  0x02\n    /* \"#utility.yul\":745:749   */\n  dup3\n    /* \"#utility.yul\":741:753   */\n  div\n    /* \"#utility.yul\":731:753   */\n  swap1\n  pop\n    /* \"#utility.yul\":798:799   */\n  0x01\n    /* \"#utility.yul\":792:796   */\n  dup3\n    /* \"#utility.yul\":788:800   */\n  and\n    /* \"#utility.yul\":819:837   */\n  dup1\n    /* \"#utility.yul\":809:890   */\n  tag_36\n  jumpi\n    /* \"#utility.yul\":875:879   */\n  0x7f\n    /* \"#utility.yul\":867:873   */\n  dup3\n    /* \"#utility.yul\":863:880   */\n  and\n    /* \"#utility.yul\":853:880   */\n  swap2\n  pop\n    /* \"#utility.yul\":809:890   */\ntag_36:\n    /* \"#utility.yul\":937:939   */\n  0x20\n    /* \"#utility.yul\":929:935   */\n  dup3\n    /* \"#utility.yul\":926:940   */\n  lt\n    /* \"#utility.yul\":906:924   */\n  dup2\n    /* \"#utility.yul\":903:941   */\n  sub\n    /* \"#utility.yul\":900:984   */\n  tag_37\n  jumpi\n    /* \"#utility.yul\":956:974   */\n  tag_38\n  tag_12\n  jump\t// in\ntag_38:\n    /* \"#utility.yul\":900:984   */\ntag_37:\n    /* \"#utility.yul\":721:990   */\n  pop\n    /* \"#utility.yul\":670:990   */\n  swap2\n  swap1\n  pop\n  jump\t// out\n    /* \"#utility.yul\":996:1137   */\ntag_14:\n    /* \"#utility.yul\":1045:1049   */\n  0x00\n    /* \"#utility.yul\":1068:1071   */\n  dup2\n    /* \"#utility.yul\":1060:1071   */\n  swap1\n  pop\n    /* \"#utility.yul\":1091:1094   */\n  dup2\n    /* \"#utility.yul\":1088:1089   */\n  0x00\n    /* \"#utility.yul\":1081:1095   */\n  mstore\n    /* \"#utility.yul\":1125:1129   */\n  0x20\n    /* \"#utility.yul\":1122:1123   */\n  0x00\n    /* \"#utility.yul\":1112:1130   */\n  keccak256\n    /* \"#utility.yul\":1104:1130   */\n  swap1\n  pop\n    /* \"#utility.yul\":996:1137   */\n  swap2\n  swap1\n  pop\n  jump\t// out\n    /* \"#utility.yul\":1143:1236   */\ntag_15:\n    /* \"#utility.yul\":1180:1186   */\n  0x00\n    /* \"#utility.yul\":1227:1229   */\n  0x20\n    /* \"#utility.yul\":1222:1224   */\n  0x1f\n    /* \"#utility.yul\":1215:1220   */\n  dup4\n    /* \"#utility.yul\":1211:1225   */\n  add\n    /* \"#utility.yul\":1207:1230   */\n  div\n    /* \"#utility.yul\":1197:1230   */\n  swap1\n  pop\n    /* \"#utility.yul\":1143:1236   */\n  swap2\n  swap1\n  pop\n  jump\t// out\n    /* \"#utility.yul\":1242:1349   */\ntag_16:\n    /* \"#utility.yul\":1286:1294   */\n  0x00\n    /* \"#utility.yul\":1336:1341   */\n  dup3\n    /* \"#utility.yul\":1330:1334   */\n  dup3\n    /* \"#utility.yul\":1326:1342   */\n  shl\n    /* \"#utility.yul\":1305:1342   */\n  swap1\n  pop\n    /* \"#utility.yul\":1242:1349   */\n  swap3\n  swap2\n  pop\n  pop\n  jump\t// out\n    /* \"#utility.yul\":1355:1748   */\ntag_17:\n    /* \"#utility.yul\":1424:1430   */\n  0x00\n    /* \"#utility.yul\":1474:1475   */\n  0x08\n    /* \"#utility.yul\":1462:1472   */\n  dup4\n    /* \"#utility.yul\":1458:1476   */\n  mul\n    /* \"#utility.yul\":1497:1594   */\n  tag_43\n    /* \"#utility.yul\":1527:1593   */\n  0xffffffffffffffffffffffffffffffffffffffffffffffffffffffffffffffff\n    /* \"#utility.yul\":1516:1525   */\n  dup3\n    /* \"#utility.yul\":1497:1594   */\n  tag_16\n  jump\t// in\ntag_43:\n    /* \"#utility.yul\":1615:1654   */\n  tag_44\n    /* \"#utility.yul\":1645:1653   */\n  dup7\n    /* \"#utility.yul\":1634:1643   */\n  dup4\n    /* \"#utility.yul\":1615:1654   */\n  tag_16\n  jump\t// in\ntag_44:\n    /* \"#utility.yul\":1603:1654   */\n  swap6\n  pop\n    /* \"#utility.yul\":1687:1691   */\n  dup1\n    /* \"#utility.yul\":1683:1692   */\n  not\n    /* \"#utility.yul\":1676:1681   */\n  dup5\n    /* \"#utility.yul\":1672:1693   */\n  and\n    /* \"#utility.yul\":1663:1693   */\n  swap4\n  pop\n    /* \"#utility.yul\":1736:1740   */\n  dup1\n    /* \"#utility.yul\":1726:1734   */\n  dup7\n    /* \"#utility.yul\":1722:1741   */\n  and\n    /* \"#utility.yul\":1715:1720   */\n  dup5\n    /* \"#utility.yul\":1712:1742   */\n  or\n    /* \"#utility.yul\":1702:1742   */\n  swap3\n  pop\n    /* \"#utility.yul\":1431:1748   */\n  pop\n  pop\n    /* \"#utility.yul\":1355:1748   */\n  swap4\n  swap3\n  pop\n  pop\n  pop\n  jump\t// out\n    /* \"#utility.yul\":1754:1831   */\ntag_18:\n    /* \"#utility.yul\":1791:1798   */\n  0x00\n    /* \"#utility.yul\":1820:1825   */\n  dup2\n    /* \"#utility.yul\":1809:1825   */\n  swap1\n  pop\n    /* \"#utility.yul\":1754:1831   */\n  swap2\n  swap1\n  pop\n  jump\t// out\n    /* \"#utility.yul\":1837:1897   */\ntag_19:\n    /* \"#utility.yul\":1865:1868   */\n  0x00\n    /* \"#utility.yul\":1886:1891   */\n  dup2\n    /* \"#utility.yul\":1879:1891   */\n  swap1\n  pop\n    /* \"#utility.yul\":1837:1897   */\n  swap2\n  swap1\n  pop\n  jump\t// out\n    /* \"#utility.yul\":1903:2045   */\ntag_20:\n    /* \"#utility.yul\":1953:1962   */\n  0x00\n    /* \"#utility.yul\":1986:2039   */\n  tag_48\n    /* \"#utility.yul\":2004:2038   */\n  tag_49\n    /* \"#utility.yul\":2013:2037   */\n  tag_50\n    /* \"#utility.yul\":2031:2036   */\n  dup5\n    /* \"#utility.yul\":2013:2037   */\n  tag_18\n  jump\t// in\ntag_50:\n    /* \"#utility.yul\":2004:2038   */\n  tag_19\n  jump\t// in\ntag_49:\n    /* \"#utility.yul\":1986:2039   */\n  tag_18\n  jump\t// in\ntag_48:\n    /* \"#utility.yul\":1973:2039   */\n  swap1\n  pop\n    /* \"#utility.yul\":1903:2045   */\n  swap2\n  swap1\n  pop\n  jump\t// out\n    /* \"#utility.yul\":2051:2126   */\ntag_21:\n    /* \"#utility.yul\":2094:2097   */\n  0x00\n    /* \"#utility.yul\":2115:2120   */\n  dup2\n    /* \"#utility.yul\":2108:2120   */\n  swap1\n  pop\n    /* \"#utility.yul\":2051:2126   */\n  swap2\n  swap1\n  pop\n  jump\t// out\n    /* \"#utility.yul\":2132:2401   */\ntag_22:\n    /* \"#utility.yul\":2242:2281   */\n  tag_53\n    /* \"#utility.yul\":2273:2280   */\n  dup4\n    /* \"#utility.yul\":2242:2281   */\n  tag_20\n  jump\t// in\ntag_53:\n    /* \"#utility.yul\":2303:2394   */\n  tag_54\n    /* \"#utility.yul\":2352:2393   */\n  tag_55\n    /* \"#utility.yul\":2376:2392   */\n  dup3\n    /* \"#utility.yul\":2352:2393   */\n  tag_21\n  jump\t// in\ntag_55:\n    /* \"#utility.yul\":2344:2350   */\n  dup5\n    /* \"#utility.yul\":2337:2341   */\n  dup5\n    /* \"#utility.yul\":2331:2342   */\n  sload\n    /* \"#utility.yul\":2303:2394   */\n  tag_17\n  jump\t// in\ntag_54:\n    /* \"#utility.yul\":2297:2301   */\n  dup3\n    /* \"#utility.yul\":2290:2395   */\n  sstore\n    /* \"#utility.yul\":2208:2401   */\n  pop\n    /* \"#utility.yul\":2132:2401   */\n  pop\n  pop\n  pop\n  jump\t// out\n    /* \"#utility.yul\":2407:2480   */\ntag_23:\n    /* \"#utility.yul\":2452:2455   */\n  0x00\n    /* \"#utility.yul\":2407:2480   */\n  swap1\n  jump\t// out\n    /* \"#utility.yul\":2486:2675   */\ntag_24:\n    /* \"#utility.yul\":2563:2595   */\n  tag_58\n  tag_23\n  jump\t// in\ntag_58:\n    /* \"#utility.yul\":2604:2669   */\n  tag_59\n    /* \"#utility.yul\":2662:2668   */\n  dup2\n    /* \"#utility.yul\":2654:2660   */\n  dup5\n    /* \"#utility.yul\":2648:2652   */\n  dup5\n    /* \"#utility.yul\":2604:2669   */\n  tag_22\n  jump\t// in\ntag_59:\n    /* \"#utility.yul\":2539:2675   */\n  pop\n    /* \"#utility.yul\":2486:2675   */\n  pop\n  pop\n  jump\t// out\n    /* \"#utility.yul\":2681:2867   */\ntag_25:\n    /* \"#utility.yul\":2741:2861   */\ntag_61:\n    /* \"#utility.yul\":2758:2761   */\n  dup2\n    /* \"#utility.yul\":2751:2756   */\n  dup2\n    /* \"#utility.yul\":2748:2762   */\n  lt\n    /* \"#utility.yul\":2741:2861   */\n  iszero\n  tag_63\n  jumpi\n    /* \"#utility.yul\":2812:2851   */\n  tag_64\n    /* \"#utility.yul\":2849:2850   */\n  0x00\n    /* \"#utility.yul\":2842:2847   */\n  dup3\n    /* \"#utility.yul\":2812:2851   */\n  tag_24\n  jump\t// in\ntag_64:\n    /* \"#utility.yul\":2785:2786   */\n  0x01\n    /* \"#utility.yul\":2778:2783   */\n  dup2\n    /* \"#utility.yul\":2774:2787   */\n  add\n    /* \"#utility.yul\":2765:2787   */\n  swap1\n  pop\n    /* \"#utility.yul\":2741:2861   */\n  jump(tag_61)\ntag_63:\n    /* \"#utility.yul\":2681:2867   */\n  pop\n  pop\n  jump\t// out\n    /* \"#utility.yul\":2873:3416   */\ntag_26:\n    /* \"#utility.yul\":2974:2976   */\n  0x1f\n    /* \"#utility.yul\":2969:2972   */\n  dup3\n    /* \"#utility.yul\":2966:2977   */\n  gt\n    /* \"#utility.yul\":2963:3409   */\n  iszero\n  tag_66\n  jumpi\n    /* \"#utility.yul\":3008:3046   */\n  tag_67\n    /* \"#utility.yul\":3040:3045   */\n  dup2\n    /* \"#utility.yul\":3008:3046   */\n  tag_14\n  jump\t// in\ntag_67:\n    /* \"#utility.yul\":3092:3121   */\n  tag_68\n    /* \"#utility.yul\":3110:3120   */\n  dup5\n    /* \"#utility.yul\":3092:3121   */\n  tag_15\n  jump\t// in\ntag_68:\n    /* \"#utility.yul\":3082:3090   */\n  dup2\n    /* \"#utility.yul\":3078:3122   */\n  add\n    /* \"#utility.yul\":3275:3277   */\n  0x20\n    /* \"#utility.yul\":3263:3273   */\n  dup6\n    /* \"#utility.yul\":3260:3278   */\n  lt\n    /* \"#utility.yul\":3257:3306   */\n  iszero\n  tag_69\n  jumpi\n    /* \"#utility.yul\":3296:3304   */\n  dup2\n    /* \"#utility.yul\":3281:3304   */\n  swap1\n  pop\n    /* \"#utility.yul\":3257:3306   */\ntag_69:\n    /* \"#utility.yul\":3319:3399   */\n  tag_70\n    /* \"#utility.yul\":3375:3397   */\n  tag_71\n    /* \"#utility.yul\":3393:3396   */\n  dup6\n    /* \"#utility.yul\":3375:3397   */\n  tag_15\n  jump\t// in\ntag_71:\n    /* \"#utility.yul\":3365:3373   */\n  dup4\n    /* \"#utility.yul\":3361:3398   */\n  add\n    /* \"#utility.yul\":3348:3359   */\n  dup3\n    /* \"#utility.yul\":3319:3399   */\n  tag_25\n  jump\t// in\ntag_70:\n    /* \"#utility.yul\":2978:3409   */\n  pop\n  pop\n    /* \"#utility.yul\":2963:3409   */\ntag_66:\n    /* \"#utility.yul\":2873:3416   */\n  pop\n  pop\n  pop\n  jump\t// out\n    /* \"#utility.yul\":3422:3539   */\ntag_27:\n    /* \"#utility.yul\":3476:3484   */\n  0x00\n    /* \"#utility.yul\":3526:3531   */\n  dup3\n    /* \"#utility.yul\":3520:3524   */\n  dup3\n    /* \"#utility.yul\":3516:3532   */\n  shr\n    /* \"#utility.yul\":3495:3532   */\n  swap1\n  pop\n    /* \"#utility.yul\":3422:3539   */\n  swap3\n  swap2\n  pop\n  pop\n  jump\t// out\n    /* \"#utility.yul\":3545:3714   */\ntag_28:\n    /* \"#utility.yul\":3589:3595   */\n  0x00\n    /* \"#utility.yul\":3622:3673   */\n  tag_74\n    /* \"#utility.yul\":3670:3671   */\n  0x00\n    /* \"#utility.yul\":3666:3672   */\n  not\n    /* \"#utility.yul\":3658:3663   */\n  dup5\n    /* \"#utility.yul\":3655:3656   */\n  0x08\n    /* \"#utility.yul\":3651:3664   */\n  mul\n    /* \"#utility.yul\":3622:3673   */\n  tag_27\n  jump\t// in\ntag_74:\n    /* \"#utility.yul\":3618:3674   */\n  not\n    /* \"#utility.yul\":3703:3707   */\n  dup1\n    /* \"#utility.yul\":3697:3701   */\n  dup4\n    /* \"#utility.yul\":3693:3708   */\n  and\n    /* \"#utility.yul\":3683:3708   */\n  swap2\n  pop\n    /* \"#utility.yul\":3596:3714   */\n  pop\n    /* \"#utility.yul\":3545:3714   */\n  swap3\n  swap2\n  pop\n  pop\n  jump\t// out\n    /* \"#utility.yul\":3719:4014   */\ntag_29:\n    /* \"#utility.yul\":3795:3799   */\n  0x00\n    /* \"#utility.yul\":3941:3970   */\n  tag_76\n    /* \"#utility.yul\":3966:3969   */\n  dup4\n    /* \"#utility.yul\":3960:3964   */\n  dup4\n    /* \"#utility.yul\":3941:3970   */\n  tag_28\n  jump\t// in\ntag_76:\n    /* \"#utility.yul\":3933:3970   */\n  swap2\n  pop\n    /* \"#utility.yul\":4003:4006   */\n  dup3\n    /* \"#utility.yul\":4000:4001   */\n  0x02\n    /* \"#utility.yul\":3996:4007   */\n  mul\n    /* \"#utility.yul\":3990:3994   */\n  dup3\n    /* \"#utility.yul\":3987:4008   */\n  or\n    /* \"#utility.yul\":3979:4008   */\n  swap1\n  pop\n    /* \"#utility.yul\":3719:4014   */\n  swap3\n  swap2\n  pop\n  pop\n  jump\t// out\n    /* \"#utility.yul\":4019:5414   */\ntag_5:\n    /* \"#utility.yul\":4136:4173   */\n  tag_78\n    /* \"#utility.yul\":4169:4172   */\n  dup3\n    /* \"#utility.yul\":4136:4173   */\n  tag_10\n  jump\t// in\ntag_78:\n    /* \"#utility.yul\":4238:4256   */\n  0xffffffffffffffff\n    /* \"#utility.yul\":4230:4236   */\n  dup2\n    /* \"#utility.yul\":4227:4257   */\n  gt\n    /* \"#utility.yul\":4224:4280   */\n  iszero\n  tag_79\n  jumpi\n    /* \"#utility.yul\":4260:4278   */\n  tag_80\n  tag_11\n  jump\t// in\ntag_80:\n    /* \"#utility.yul\":4224:4280   */\ntag_79:\n    /* \"#utility.yul\":4304:4342   */\n  tag_81\n    /* \"#utility.yul\":4336:4340   */\n  dup3\n    /* \"#utility.yul\":4330:4341   */\n  sload\n    /* \"#utility.yul\":4304:4342   */\n  tag_13\n  jump\t// in\ntag_81:\n    /* \"#utility.yul\":4389:4456   */\n  tag_82\n    /* \"#utility.yul\":4449:4455   */\n  dup3\n    /* \"#utility.yul\":4441:4447   */\n  dup3\n    /* \"#utility.yul\":4435:4439   */\n  dup6\n    /* \"#utility.yul\":4389:4456   */\n  tag_26\n  jump\t// in\ntag_82:\n    /* \"#utility.yul\":4483:4484   */\n  0x00\n    /* \"#utility.yul\":4507:4511   */\n  0x20\n    /* \"#utility.yul\":4494:4511   */\n  swap1\n  pop\n    /* \"#utility.yul\":4539:4541   */\n  0x1f\n    /* \"#utility.yul\":4531:4537   */\n  dup4\n    /* \"#utility.yul\":4528:4542   */\n  gt\n    /* \"#utility.yul\":4556:4557   */\n  0x01\n    /* \"#utility.yul\":4551:5169   */\n  dup2\n  eq\n  tag_84\n  jumpi\n    /* \"#utility.yul\":5213:5214   */\n  0x00\n    /* \"#utility.yul\":5230:5236   */\n  dup5\n    /* \"#utility.yul\":5227:5304   */\n  iszero\n  tag_85\n  jumpi\n    /* \"#utility.yul\":5279:5288   */\n  dup3\n    /* \"#utility.yul\":5274:5277   */\n  dup8\n    /* \"#utility.yul\":5270:5289   */\n  add\n    /* \"#utility.yul\":5264:5290   */\n  mload\n    /* \"#utility.yul\":5255:5290   */\n  swap1\n  pop\n    /* \"#utility.yul\":5227:5304   */\ntag_85:\n    /* \"#utility.yul\":5330:5397   */\n  tag_86\n    /* \"#utility.yul\":5390:5396   */\n  dup6\n    /* \"#utility.yul\":5383:5388   */\n  dup3\n    /* \"#utility.yul\":5330:5397   */\n  tag_29\n  jump\t// in\ntag_86:\n    /* \"#utility.yul\":5324:5328   */\n  dup7\n    /* \"#utility.yul\":5317:5398   */\n  sstore\n    /* \"#utility.yul\":5186:5408   */\n  pop\n    /* \"#utility.yul\":4521:5408   */\n  jump(tag_83)\n    /* \"#utility.yul\":4551:5169   */\ntag_84:\n    /* \"#utility.yul\":4603:4607   */\n  0x1f\n    /* \"#utility.yul\":4599:4608   */\n  not\n    /* \"#utility.yul\":4591:4597   */\n  dup5\n    /* \"#utility.yul\":4587:4609   */\n  and\n    /* \"#utility.yul\":4637:4674   */\n  tag_87\n    /* \"#utility.yul\":4669:4673   */\n  dup7\n    /* \"#utility.yul\":4637:4674   */\n  tag_14\n  jump\t// in\ntag_87:\n    /* \"#utility.yul\":4696:4697   */\n  0x00\n    /* \"#utility.yul\":4710:4918   */\ntag_88:\n    /* \"#utility.yul\":4724:4731   */\n  dup3\n    /* \"#utility.yul\":4721:4722   */\n  dup2\n    /* \"#utility.yul\":4718:4732   */\n  lt\n    /* \"#utility.yul\":4710:4918   */\n  iszero\n  tag_90\n  jumpi\n    /* \"#utility.yul\":4803:4812   */\n  dup5\n    /* \"#utility.yul\":4798:4801   */\n  dup10\n    /* \"#utility.yul\":4794:4813   */\n  add\n    /* \"#utility.yul\":4788:4814   */\n  mload\n    /* \"#utility.yul\":4780:4786   */\n  dup3\n    /* \"#utility.yul\":4773:4815   */\n  sstore\n    /* \"#utility.yul\":4854:4855   */\n  0x01\n    /* \"#utility.yul\":4846:4852   */\n  dup3\n    /* \"#utility.yul\":4842:4856   */\n  add\n    /* \"#utility.yul\":4832:4856   */\n  swap2\n  pop\n    /* \"#utility.yul\":4901:4903   */\n  0x20\n    /* \"#utility.yul\":4890:4899   */\n  dup6\n    /* \"#utility.yul\":4886:4904   */\n  add\n    /* \"#utility.yul\":4873:4904   */\n  swap5\n  pop\n    /* \"#utility.yul\":4747:4751   */\n  0x20\n    /* \"#utility.yul\":4744:4745   */\n  dup2\n    /* \"#utility.yul\":4740:4752   */\n  add\n    /* \"#utility.yul\":4735:4752   */\n  swap1\n  pop\n    /* \"#utility.yul\":4710:4918   */\n  jump(tag_88)\ntag_90:\n    /* \"#utility.yul\":4946:4952   */\n  dup7\n    /* \"#utility.yul\":4937:4944   */\n  dup4\n    /* \"#utility.yul\":4934:4953   */\n  lt\n    /* \"#utility.yul\":4931:5110   */\n  iszero\n  tag_91\n  jumpi\n    /* \"#utility.yul\":5004:5013   */\n  dup5\n    /* \"#utility.yul\":4999:5002   */\n  dup10\n    /* \"#utility.yul\":4995:5014   */\n  add\n    /* \"#utility.yul\":4989:5015   */\n  mload\n    /* \"#utility.yul\":5047:5095   */\n  tag_92\n    /* \"#utility.yul\":5089:5093   */\n  0x1f\n    /* \"#utility.yul\":5081:5087   */\n  dup10\n    /* \"#utility.yul\":5077:5094   */\n  and\n    /* \"#utility.yul\":5066:5075   */\n  dup3\n    /* \"#utility.yul\":5047:5095   */\n  tag_28\n  jump\t// in\ntag_92:\n    /* \"#utility.yul\":5039:5045   */\n  dup4\n    /* \"#utility.yul\":5032:5096   */\n  sstore\n    /* \"#utility.yul\":4954:5110   */\n  pop\n    /* \"#utility.yul\":4931:5110   */\ntag_91:\n    /* \"#utility.yul\":5156:5157   */\n  0x01\n    /* \"#utility.yul\":5152:5153   */\n  0x02\n    /* \"#utility.yul\":5144:5150   */\n  dup9\n    /* \"#utility.yul\":5140:5154   */\n  mul\n    /* \"#utility.yul\":5136:5158   */\n  add\n    /* \"#utility.yul\":5130:5134   */\n  dup9\n    /* \"#utility.yul\":5123:5159   */\n  sstore\n    /* \"#utility.yul\":4558:5169   */\n  pop\n  pop\n  pop\n    /* \"#utility.yul\":4521:5408   */\ntag_83:\n  pop\n    /* \"#utility.yul\":4111:5414   */\n  pop\n  pop\n  pop\n    /* \"#utility.yul\":4019:5414   */\n  pop\n  pop\n  jump\t// out\n    /* \"Contracts/JoKenPo.sol\":62:5348  contract JoKenPo {... */\ntag_9:\n  mload(0x80)\n  codecopy(0x00, dataOffset(sub_0), dataSize(sub_0))\n  0x00\n  assignImmutable(\"0x731dc163f73d31d8c68f9917ce4ff967753939f70432973c04fd2c2a48148607\")\n  return(0x00, dataSize(sub_0))\nstop\n\nsub_0: assembly {\n        /* \"Contracts/JoKenPo.sol\":62:5348  contract JoKenPo {... */\n      mstore(0x40, 0x80)\n      jumpi(tag_1, lt(calldatasize, 0x04))\n      shr(0xe0, calldataload(0x00))\n      dup1\n      0x12065fe0\n      eq\n      tag_2\n      jumpi\n      dup1\n      0x1398bbf7\n      eq\n      tag_3\n      jumpi\n      dup1\n      0x200d2ed2\n      eq\n      tag_4\n      jumpi\n      dup1\n      0x53a04b05\n      eq\n      tag_5\n      jumpi\n      dup1\n      0xf71d96cb\n      eq\n      tag_6\n      jumpi\n    tag_1:\n      0x00\n      dup1\n      revert\n        /* \"Contracts/JoKenPo.sol\":840:1136  function getBalance() public view returns (uint){... */\n    tag_2:\n      callvalue\n      dup1\n      iszero\n      tag_7\n      jumpi\n      0x00\n      dup1\n      revert\n    tag_7:\n      pop\n      tag_8\n      tag_9\n      jump\t// in\n    tag_8:\n      mload(0x40)\n      tag_10\n      swap2\n      swap1\n      tag_11\n      jump\t// in\n    tag_10:\n      mload(0x40)\n      dup1\n      swap2\n      sub\n      swap1\n      return\n        /* \"Contracts/JoKenPo.sol\":4127:5345  function getRanking() public view returns(Player[] memory){... */\n    tag_3:\n      callvalue\n      dup1\n      iszero\n      tag_12\n      jumpi\n      0x00\n      dup1\n      revert\n    tag_12:\n      pop\n      tag_13\n      tag_14\n      jump\t// in\n    tag_13:\n      mload(0x40)\n      tag_15\n      swap2\n      swap1\n      tag_16\n      jump\t// in\n    tag_15:\n      mload(0x40)\n      dup1\n      swap2\n      sub\n      swap1\n      return\n        /* \"Contracts/JoKenPo.sol\":343:368  string public status = \"\" */\n    tag_4:\n      callvalue\n      dup1\n      iszero\n      tag_17\n      jumpi\n      0x00\n      dup1\n      revert\n    tag_17:\n      pop\n      tag_18\n      tag_19\n      jump\t// in\n    tag_18:\n      mload(0x40)\n      tag_20\n      swap2\n      swap1\n      tag_21\n      jump\t// in\n    tag_20:\n      mload(0x40)\n      dup1\n      swap2\n      sub\n      swap1\n      return\n        /* \"Contracts/JoKenPo.sol\":2358:4055  function play(Options newChoice) public payable {... */\n    tag_5:\n      tag_22\n      0x04\n      dup1\n      calldatasize\n      sub\n      dup2\n      add\n      swap1\n      tag_23\n      swap2\n      swap1\n      tag_24\n      jump\t// in\n    tag_23:\n      tag_25\n      jump\t// in\n    tag_22:\n      stop\n        /* \"Contracts/JoKenPo.sol\":569:592  Player[] public players */\n    tag_6:\n      callvalue\n      dup1\n      iszero\n      tag_26\n      jumpi\n      0x00\n      dup1\n      revert\n    tag_26:\n      pop\n      tag_27\n      0x04\n      dup1\n      calldatasize\n      sub\n      dup2\n      add\n      swap1\n      tag_28\n      swap2\n      swap1\n      tag_29\n      jump\t// in\n    tag_28:\n      tag_30\n      jump\t// in\n    tag_27:\n      mload(0x40)\n      tag_31\n      swap3\n      swap2\n      swap1\n      tag_32\n      jump\t// in\n    tag_31:\n      mload(0x40)\n      dup1\n      swap2\n      sub\n      swap1\n      return\n        /* \"Contracts/JoKenPo.sol\":840:1136  function getBalance() public view returns (uint){... */\n    tag_9:\n        /* \"Contracts/JoKenPo.sol\":883:887  uint */\n      0x00\n        /* \"Contracts/JoKenPo.sol\":991:1001  msg.sender */\n      caller\n        /* \"Contracts/JoKenPo.sol\":982:1001  owner == msg.sender */\n      0xffffffffffffffffffffffffffffffffffffffff\n      and\n        /* \"Contracts/JoKenPo.sol\":982:987  owner */\n      immutable(\"0x731dc163f73d31d8c68f9917ce4ff967753939f70432973c04fd2c2a48148607\")\n        /* \"Contracts/JoKenPo.sol\":982:1001  owner == msg.sender */\n      0xffffffffffffffffffffffffffffffffffffffff\n      and\n      eq\n        /* \"Contracts/JoKenPo.sol\":974:1048  require(owner == msg.sender, \"You don't have permissions to access this.\") */\n      tag_34\n      jumpi\n      mload(0x40)\n      0x08c379a000000000000000000000000000000000000000000000000000000000\n      dup2\n      mstore\n      0x04\n      add\n      tag_35\n      swap1\n      tag_36\n      jump\t// in\n    tag_35:\n      mload(0x40)\n      dup1\n      swap2\n      sub\n      swap1\n      revert\n    tag_34:\n        /* \"Contracts/JoKenPo.sol\":1107:1128  address(this).balance */\n      selfbalance\n        /* \"Contracts/JoKenPo.sol\":1100:1128  return address(this).balance */\n      swap1\n      pop\n        /* \"Contracts/JoKenPo.sol\":840:1136  function getBalance() public view returns (uint){... */\n      swap1\n      jump\t// out\n        /* \"Contracts/JoKenPo.sol\":4127:5345  function getRanking() public view returns(Player[] memory){... */\n    tag_14:\n        /* \"Contracts/JoKenPo.sol\":4169:4184  Player[] memory */\n      0x60\n        /* \"Contracts/JoKenPo.sol\":4216:4217  2 */\n      0x02\n        /* \"Contracts/JoKenPo.sol\":4199:4206  players */\n      dup1\n        /* \"Contracts/JoKenPo.sol\":4199:4213  players.length */\n      dup1\n      sload\n      swap1\n      pop\n        /* \"Contracts/JoKenPo.sol\":4199:4217  players.length < 2 */\n      lt\n        /* \"Contracts/JoKenPo.sol\":4196:5338  if(players.length < 2){... */\n      iszero\n      tag_38\n      jumpi\n        /* \"Contracts/JoKenPo.sol\":4240:4247  players */\n      0x02\n        /* \"Contracts/JoKenPo.sol\":4233:4247  return players */\n      dup1\n      sload\n      dup1\n      0x20\n      mul\n      0x20\n      add\n      mload(0x40)\n      swap1\n      dup2\n      add\n      0x40\n      mstore\n      dup1\n      swap3\n      swap2\n      swap1\n      dup2\n      dup2\n      mstore\n      0x20\n      add\n      0x00\n      swap1\n    tag_39:\n      dup3\n      dup3\n      lt\n      iszero\n      tag_40\n      jumpi\n      dup4\n      dup3\n      swap1\n      0x00\n      mstore\n      keccak256(0x00, 0x20)\n      add\n      mload(0x40)\n      dup1\n      0x40\n      add\n      0x40\n      mstore\n      swap1\n      dup2\n      0x00\n      dup3\n      add\n      0x00\n      swap1\n      sload\n      swap1\n      0x0100\n      exp\n      swap1\n      div\n      0xffffffffffffffffffffffffffffffffffffffff\n      and\n      0xffffffffffffffffffffffffffffffffffffffff\n      and\n      0xffffffffffffffffffffffffffffffffffffffff\n      and\n      dup2\n      mstore\n      0x20\n      add\n      0x00\n      dup3\n      add\n      0x14\n      swap1\n      sload\n      swap1\n      0x0100\n      exp\n      swap1\n      div\n      0xffffffff\n      and\n      0xffffffff\n      and\n      0xffffffff\n      and\n      dup2\n      mstore\n      pop\n      pop\n      dup2\n      mstore\n      0x20\n      add\n      swap1\n      0x01\n      add\n      swap1\n      jump(tag_39)\n    tag_40:\n      pop\n      pop\n      pop\n      pop\n      swap1\n      pop\n      jump(tag_37)\n        /* \"Contracts/JoKenPo.sol\":4196:5338  if(players.length < 2){... */\n    tag_38:\n        /* \"Contracts/JoKenPo.sol\":4460:4483  Player[] memory ranking */\n      0x00\n        /* \"Contracts/JoKenPo.sol\":4499:4506  players */\n      0x02\n        /* \"Contracts/JoKenPo.sol\":4499:4513  players.length */\n      dup1\n      sload\n      swap1\n      pop\n        /* \"Contracts/JoKenPo.sol\":4486:4514  new Player[](players.length) */\n      0xffffffffffffffff\n      dup2\n      gt\n      iszero\n      tag_43\n      jumpi\n      tag_44\n      tag_45\n      jump\t// in\n    tag_44:\n    tag_43:\n      mload(0x40)\n      swap1\n      dup1\n      dup3\n      mstore\n      dup1\n      0x20\n      mul\n      0x20\n      add\n      dup3\n      add\n      0x40\n      mstore\n      dup1\n      iszero\n      tag_46\n      jumpi\n      dup2\n      0x20\n      add\n    tag_47:\n      tag_48\n      tag_49\n      jump\t// in\n    tag_48:\n      dup2\n      mstore\n      0x20\n      add\n      swap1\n      0x01\n      swap1\n      sub\n      swap1\n      dup2\n      tag_47\n      jumpi\n      swap1\n      pop\n    tag_46:\n      pop\n        /* \"Contracts/JoKenPo.sol\":4460:4514  Player[] memory ranking = new Player[](players.length) */\n      swap1\n      pop\n        /* \"Contracts/JoKenPo.sol\":4563:4569  uint i */\n      0x00\n        /* \"Contracts/JoKenPo.sol\":4559:4657  for(uint i = 0; i < players.length; i++){... */\n    tag_50:\n        /* \"Contracts/JoKenPo.sol\":4579:4586  players */\n      0x02\n        /* \"Contracts/JoKenPo.sol\":4579:4593  players.length */\n      dup1\n      sload\n      swap1\n      pop\n        /* \"Contracts/JoKenPo.sol\":4575:4576  i */\n      dup2\n        /* \"Contracts/JoKenPo.sol\":4575:4593  i < players.length */\n      lt\n        /* \"Contracts/JoKenPo.sol\":4559:4657  for(uint i = 0; i < players.length; i++){... */\n      iszero\n      tag_51\n      jumpi\n        /* \"Contracts/JoKenPo.sol\":4631:4638  players */\n      0x02\n        /* \"Contracts/JoKenPo.sol\":4639:4640  i */\n      dup2\n        /* \"Contracts/JoKenPo.sol\":4631:4641  players[i] */\n      dup2\n      sload\n      dup2\n      lt\n      tag_53\n      jumpi\n      tag_54\n      tag_55\n      jump\t// in\n    tag_54:\n    tag_53:\n      swap1\n      0x00\n      mstore\n      keccak256(0x00, 0x20)\n      add\n        /* \"Contracts/JoKenPo.sol\":4618:4641  ranking[i] = players[i] */\n      mload(0x40)\n      dup1\n      0x40\n      add\n      0x40\n      mstore\n      swap1\n      dup2\n      0x00\n      dup3\n      add\n      0x00\n      swap1\n      sload\n      swap1\n      0x0100\n      exp\n      swap1\n      div\n      0xffffffffffffffffffffffffffffffffffffffff\n      and\n      0xffffffffffffffffffffffffffffffffffffffff\n      and\n      0xffffffffffffffffffffffffffffffffffffffff\n      and\n      dup2\n      mstore\n      0x20\n      add\n      0x00\n      dup3\n      add\n      0x14\n      swap1\n      sload\n      swap1\n      0x0100\n      exp\n      swap1\n      div\n      0xffffffff\n      and\n      0xffffffff\n      and\n      0xffffffff\n      and\n      dup2\n      mstore\n      pop\n      pop\n        /* \"Contracts/JoKenPo.sol\":4618:4625  ranking */\n      dup3\n        /* \"Contracts/JoKenPo.sol\":4626:4627  i */\n      dup3\n        /* \"Contracts/JoKenPo.sol\":4618:4628  ranking[i] */\n      dup2\n      mload\n      dup2\n      lt\n      tag_57\n      jumpi\n      tag_58\n      tag_55\n      jump\t// in\n    tag_58:\n    tag_57:\n      0x20\n      mul\n      0x20\n      add\n      add\n        /* \"Contracts/JoKenPo.sol\":4618:4641  ranking[i] = players[i] */\n      dup2\n      swap1\n      mstore\n      pop\n        /* \"Contracts/JoKenPo.sol\":4595:4598  i++ */\n      dup1\n      dup1\n      tag_59\n      swap1\n      tag_60\n      jump\t// in\n    tag_59:\n      swap2\n      pop\n      pop\n        /* \"Contracts/JoKenPo.sol\":4559:4657  for(uint i = 0; i < players.length; i++){... */\n      jump(tag_50)\n    tag_51:\n      pop\n        /* \"Contracts/JoKenPo.sol\":4711:4717  uint i */\n      0x00\n        /* \"Contracts/JoKenPo.sol\":4707:5297  for(uint i = 0; i < ranking.length -1; i++){... */\n    tag_61:\n        /* \"Contracts/JoKenPo.sol\":4743:4744  1 */\n      0x01\n        /* \"Contracts/JoKenPo.sol\":4727:4734  ranking */\n      dup3\n        /* \"Contracts/JoKenPo.sol\":4727:4741  ranking.length */\n      mload\n        /* \"Contracts/JoKenPo.sol\":4727:4744  ranking.length -1 */\n      tag_64\n      swap2\n      swap1\n      tag_65\n      jump\t// in\n    tag_64:\n        /* \"Contracts/JoKenPo.sol\":4723:4724  i */\n      dup2\n        /* \"Contracts/JoKenPo.sol\":4723:4744  i < ranking.length -1 */\n      lt\n        /* \"Contracts/JoKenPo.sol\":4707:5297  for(uint i = 0; i < ranking.length -1; i++){... */\n      iszero\n      tag_62\n      jumpi\n        /* \"Contracts/JoKenPo.sol\":4773:4779  uint j */\n      0x00\n        /* \"Contracts/JoKenPo.sol\":4782:4783  1 */\n      0x01\n        /* \"Contracts/JoKenPo.sol\":4773:4783  uint j = 1 */\n      swap1\n      pop\n        /* \"Contracts/JoKenPo.sol\":4769:5282  for(uint j = 1; j < ranking.length ; j++){... */\n    tag_66:\n        /* \"Contracts/JoKenPo.sol\":4789:4796  ranking */\n      dup3\n        /* \"Contracts/JoKenPo.sol\":4789:4803  ranking.length */\n      mload\n        /* \"Contracts/JoKenPo.sol\":4785:4786  j */\n      dup2\n        /* \"Contracts/JoKenPo.sol\":4785:4803  j < ranking.length */\n      lt\n        /* \"Contracts/JoKenPo.sol\":4769:5282  for(uint j = 1; j < ranking.length ; j++){... */\n      iszero\n      tag_67\n      jumpi\n        /* \"Contracts/JoKenPo.sol\":4909:4916  ranking */\n      dup3\n        /* \"Contracts/JoKenPo.sol\":4917:4918  j */\n      dup2\n        /* \"Contracts/JoKenPo.sol\":4909:4919  ranking[j] */\n      dup2\n      mload\n      dup2\n      lt\n      tag_69\n      jumpi\n      tag_70\n      tag_55\n      jump\t// in\n    tag_70:\n    tag_69:\n      0x20\n      mul\n      0x20\n      add\n      add\n      mload\n        /* \"Contracts/JoKenPo.sol\":4909:4924  ranking[j].wins */\n      0x20\n      add\n      mload\n        /* \"Contracts/JoKenPo.sol\":4891:4924  ranking[i].wins < ranking[j].wins */\n      0xffffffff\n      and\n        /* \"Contracts/JoKenPo.sol\":4891:4898  ranking */\n      dup4\n        /* \"Contracts/JoKenPo.sol\":4899:4900  i */\n      dup4\n        /* \"Contracts/JoKenPo.sol\":4891:4901  ranking[i] */\n      dup2\n      mload\n      dup2\n      lt\n      tag_71\n      jumpi\n      tag_72\n      tag_55\n      jump\t// in\n    tag_72:\n    tag_71:\n      0x20\n      mul\n      0x20\n      add\n      add\n      mload\n        /* \"Contracts/JoKenPo.sol\":4891:4906  ranking[i].wins */\n      0x20\n      add\n      mload\n        /* \"Contracts/JoKenPo.sol\":4891:4924  ranking[i].wins < ranking[j].wins */\n      0xffffffff\n      and\n      lt\n        /* \"Contracts/JoKenPo.sol\":4888:5263  if(ranking[i].wins < ranking[j].wins){... */\n      iszero\n      tag_73\n      jumpi\n        /* \"Contracts/JoKenPo.sol\":5013:5031  Player memory next */\n      0x00\n        /* \"Contracts/JoKenPo.sol\":5034:5041  ranking */\n      dup4\n        /* \"Contracts/JoKenPo.sol\":5042:5043  i */\n      dup4\n        /* \"Contracts/JoKenPo.sol\":5034:5044  ranking[i] */\n      dup2\n      mload\n      dup2\n      lt\n      tag_74\n      jumpi\n      tag_75\n      tag_55\n      jump\t// in\n    tag_75:\n    tag_74:\n      0x20\n      mul\n      0x20\n      add\n      add\n      mload\n        /* \"Contracts/JoKenPo.sol\":5013:5044  Player memory next = ranking[i] */\n      swap1\n      pop\n        /* \"Contracts/JoKenPo.sol\":5135:5142  ranking */\n      dup4\n        /* \"Contracts/JoKenPo.sol\":5143:5144  j */\n      dup3\n        /* \"Contracts/JoKenPo.sol\":5135:5145  ranking[j] */\n      dup2\n      mload\n      dup2\n      lt\n      tag_76\n      jumpi\n      tag_77\n      tag_55\n      jump\t// in\n    tag_77:\n    tag_76:\n      0x20\n      mul\n      0x20\n      add\n      add\n      mload\n        /* \"Contracts/JoKenPo.sol\":5122:5129  ranking */\n      dup5\n        /* \"Contracts/JoKenPo.sol\":5130:5131  i */\n      dup5\n        /* \"Contracts/JoKenPo.sol\":5122:5132  ranking[i] */\n      dup2\n      mload\n      dup2\n      lt\n      tag_78\n      jumpi\n      tag_79\n      tag_55\n      jump\t// in\n    tag_79:\n    tag_78:\n      0x20\n      mul\n      0x20\n      add\n      add\n        /* \"Contracts/JoKenPo.sol\":5122:5145  ranking[i] = ranking[j] */\n      dup2\n      swap1\n      mstore\n      pop\n        /* \"Contracts/JoKenPo.sol\":5235:5239  next */\n      dup1\n        /* \"Contracts/JoKenPo.sol\":5222:5229  ranking */\n      dup5\n        /* \"Contracts/JoKenPo.sol\":5230:5231  j */\n      dup4\n        /* \"Contracts/JoKenPo.sol\":5222:5232  ranking[j] */\n      dup2\n      mload\n      dup2\n      lt\n      tag_80\n      jumpi\n      tag_81\n      tag_55\n      jump\t// in\n    tag_81:\n    tag_80:\n      0x20\n      mul\n      0x20\n      add\n      add\n        /* \"Contracts/JoKenPo.sol\":5222:5239  ranking[j] = next */\n      dup2\n      swap1\n      mstore\n      pop\n        /* \"Contracts/JoKenPo.sol\":4925:5263  {... */\n      pop\n        /* \"Contracts/JoKenPo.sol\":4888:5263  if(ranking[i].wins < ranking[j].wins){... */\n    tag_73:\n        /* \"Contracts/JoKenPo.sol\":4806:4809  j++ */\n      dup1\n      dup1\n      tag_82\n      swap1\n      tag_60\n      jump\t// in\n    tag_82:\n      swap2\n      pop\n      pop\n        /* \"Contracts/JoKenPo.sol\":4769:5282  for(uint j = 1; j < ranking.length ; j++){... */\n      jump(tag_66)\n    tag_67:\n      pop\n        /* \"Contracts/JoKenPo.sol\":4746:4749  i++ */\n      dup1\n      dup1\n      tag_83\n      swap1\n      tag_60\n      jump\t// in\n    tag_83:\n      swap2\n      pop\n      pop\n        /* \"Contracts/JoKenPo.sol\":4707:5297  for(uint i = 0; i < ranking.length -1; i++){... */\n      jump(tag_61)\n    tag_62:\n      pop\n        /* \"Contracts/JoKenPo.sol\":5319:5326  ranking */\n      dup1\n        /* \"Contracts/JoKenPo.sol\":5311:5326  return  ranking */\n      swap2\n      pop\n      pop\n        /* \"Contracts/JoKenPo.sol\":4127:5345  function getRanking() public view returns(Player[] memory){... */\n    tag_37:\n      swap1\n      jump\t// out\n        /* \"Contracts/JoKenPo.sol\":343:368  string public status = \"\" */\n    tag_19:\n      0x01\n      dup1\n      sload\n      tag_84\n      swap1\n      tag_85\n      jump\t// in\n    tag_84:\n      dup1\n      0x1f\n      add\n      0x20\n      dup1\n      swap2\n      div\n      mul\n      0x20\n      add\n      mload(0x40)\n      swap1\n      dup2\n      add\n      0x40\n      mstore\n      dup1\n      swap3\n      swap2\n      swap1\n      dup2\n      dup2\n      mstore\n      0x20\n      add\n      dup3\n      dup1\n      sload\n      tag_86\n      swap1\n      tag_85\n      jump\t// in\n    tag_86:\n      dup1\n      iszero\n      tag_87\n      jumpi\n      dup1\n      0x1f\n      lt\n      tag_88\n      jumpi\n      0x0100\n      dup1\n      dup4\n      sload\n      div\n      mul\n      dup4\n      mstore\n      swap2\n      0x20\n      add\n      swap2\n      jump(tag_87)\n    tag_88:\n      dup3\n      add\n      swap2\n      swap1\n      0x00\n      mstore\n      keccak256(0x00, 0x20)\n      swap1\n    tag_89:\n      dup2\n      sload\n      dup2\n      mstore\n      swap1\n      0x01\n      add\n      swap1\n      0x20\n      add\n      dup1\n      dup4\n      gt\n      tag_89\n      jumpi\n      dup3\n      swap1\n      sub\n      0x1f\n      and\n      dup3\n      add\n      swap2\n    tag_87:\n      pop\n      pop\n      pop\n      pop\n      pop\n      dup2\n      jump\t// out\n        /* \"Contracts/JoKenPo.sol\":2358:4055  function play(Options newChoice) public payable {... */\n    tag_25:\n        /* \"Contracts/JoKenPo.sol\":2463:2475  Options.NONE */\n      0x00\n        /* \"Contracts/JoKenPo.sol\":2450:2475  newChoice != Options.NONE */\n      0x03\n      dup2\n      gt\n      iszero\n      tag_91\n      jumpi\n      tag_92\n      tag_93\n      jump\t// in\n    tag_92:\n    tag_91:\n        /* \"Contracts/JoKenPo.sol\":2450:2459  newChoice */\n      dup2\n        /* \"Contracts/JoKenPo.sol\":2450:2475  newChoice != Options.NONE */\n      0x03\n      dup2\n      gt\n      iszero\n      tag_94\n      jumpi\n      tag_95\n      tag_93\n      jump\t// in\n    tag_95:\n    tag_94:\n      sub\n        /* \"Contracts/JoKenPo.sol\":2442:2495  require(newChoice != Options.NONE, \"Invalid choice!\") */\n      tag_96\n      jumpi\n      mload(0x40)\n      0x08c379a000000000000000000000000000000000000000000000000000000000\n      dup2\n      mstore\n      0x04\n      add\n      tag_97\n      swap1\n      tag_98\n      jump\t// in\n    tag_97:\n      mload(0x40)\n      dup1\n      swap2\n      sub\n      swap1\n      revert\n    tag_96:\n        /* \"Contracts/JoKenPo.sol\":2525:2535  msg.sender */\n      caller\n        /* \"Contracts/JoKenPo.sol\":2514:2535  player1 != msg.sender */\n      0xffffffffffffffffffffffffffffffffffffffff\n      and\n        /* \"Contracts/JoKenPo.sol\":2514:2521  player1 */\n      0x00\n      0x01\n      swap1\n      sload\n      swap1\n      0x0100\n      exp\n      swap1\n      div\n      0xffffffffffffffffffffffffffffffffffffffff\n      and\n        /* \"Contracts/JoKenPo.sol\":2514:2535  player1 != msg.sender */\n      0xffffffffffffffffffffffffffffffffffffffff\n      and\n      sub\n        /* \"Contracts/JoKenPo.sol\":2506:2561  require(player1 != msg.sender, \"Await another player.\") */\n      tag_99\n      jumpi\n      mload(0x40)\n      0x08c379a000000000000000000000000000000000000000000000000000000000\n      dup2\n      mstore\n      0x04\n      add\n      tag_100\n      swap1\n      tag_101\n      jump\t// in\n    tag_100:\n      mload(0x40)\n      dup1\n      swap2\n      sub\n      swap1\n      revert\n    tag_99:\n        /* \"Contracts/JoKenPo.sol\":2622:2632  0.01 ether */\n      0x2386f26fc10000\n        /* \"Contracts/JoKenPo.sol\":2609:2618  msg.value */\n      callvalue\n        /* \"Contracts/JoKenPo.sol\":2609:2632  msg.value >= 0.01 ether */\n      lt\n      iszero\n        /* \"Contracts/JoKenPo.sol\":2601:2650  require(msg.value >= 0.01 ether , \"Invalid bid.\") */\n      tag_102\n      jumpi\n      mload(0x40)\n      0x08c379a000000000000000000000000000000000000000000000000000000000\n      dup2\n      mstore\n      0x04\n      add\n      tag_103\n      swap1\n      tag_104\n      jump\t// in\n    tag_103:\n      mload(0x40)\n      dup1\n      swap2\n      sub\n      swap1\n      revert\n    tag_102:\n        /* \"Contracts/JoKenPo.sol\":2728:2740  Options.NONE */\n      0x00\n        /* \"Contracts/JoKenPo.sol\":2717:2740  choice1 == Options.NONE */\n      0x03\n      dup2\n      gt\n      iszero\n      tag_105\n      jumpi\n      tag_106\n      tag_93\n      jump\t// in\n    tag_106:\n    tag_105:\n        /* \"Contracts/JoKenPo.sol\":2717:2724  choice1 */\n      0x00\n      dup1\n      sload\n      swap1\n      0x0100\n      exp\n      swap1\n      div\n      0xff\n      and\n        /* \"Contracts/JoKenPo.sol\":2717:2740  choice1 == Options.NONE */\n      0x03\n      dup2\n      gt\n      iszero\n      tag_107\n      jumpi\n      tag_108\n      tag_93\n      jump\t// in\n    tag_108:\n    tag_107:\n      sub\n        /* \"Contracts/JoKenPo.sol\":2714:4048  if(choice1 == Options.NONE){... */\n      tag_109\n      jumpi\n        /* \"Contracts/JoKenPo.sol\":2766:2776  msg.sender */\n      caller\n        /* \"Contracts/JoKenPo.sol\":2756:2763  player1 */\n      0x00\n      0x01\n        /* \"Contracts/JoKenPo.sol\":2756:2776  player1 = msg.sender */\n      0x0100\n      exp\n      dup2\n      sload\n      dup2\n      0xffffffffffffffffffffffffffffffffffffffff\n      mul\n      not\n      and\n      swap1\n      dup4\n      0xffffffffffffffffffffffffffffffffffffffff\n      and\n      mul\n      or\n      swap1\n      sstore\n      pop\n        /* \"Contracts/JoKenPo.sol\":2801:2810  newChoice */\n      dup1\n        /* \"Contracts/JoKenPo.sol\":2791:2798  choice1 */\n      0x00\n      dup1\n        /* \"Contracts/JoKenPo.sol\":2791:2810  choice1 = newChoice */\n      0x0100\n      exp\n      dup2\n      sload\n      dup2\n      0xff\n      mul\n      not\n      and\n      swap1\n      dup4\n      0x03\n      dup2\n      gt\n      iszero\n      tag_110\n      jumpi\n      tag_111\n      tag_93\n      jump\t// in\n    tag_111:\n    tag_110:\n      mul\n      or\n      swap1\n      sstore\n      pop\n        /* \"Contracts/JoKenPo.sol\":2825:2884  status = \"Player 1 chose his option. Waiting for player 2.\" */\n      mload(0x40)\n      dup1\n      0x60\n      add\n      0x40\n      mstore\n      dup1\n      0x30\n      dup2\n      mstore\n      0x20\n      add\n      data_891c3d6e5adde30875c07acfcca8d06d5be6cf84c2f0053d1a896b105617b25d\n      0x30\n      swap2\n      codecopy\n        /* \"Contracts/JoKenPo.sol\":2825:2831  status */\n      0x01\n        /* \"Contracts/JoKenPo.sol\":2825:2884  status = \"Player 1 chose his option. Waiting for player 2.\" */\n      swap1\n      dup2\n      tag_112\n      swap2\n      swap1\n      tag_113\n      jump\t// in\n    tag_112:\n      pop\n        /* \"Contracts/JoKenPo.sol\":2714:4048  if(choice1 == Options.NONE){... */\n      jump(tag_114)\n    tag_109:\n        /* \"Contracts/JoKenPo.sol\":2953:2965  Options.ROCK */\n      0x01\n        /* \"Contracts/JoKenPo.sol\":2942:2965  choice1 == Options.ROCK */\n      0x03\n      dup2\n      gt\n      iszero\n      tag_115\n      jumpi\n      tag_116\n      tag_93\n      jump\t// in\n    tag_116:\n    tag_115:\n        /* \"Contracts/JoKenPo.sol\":2942:2949  choice1 */\n      0x00\n      dup1\n      sload\n      swap1\n      0x0100\n      exp\n      swap1\n      div\n      0xff\n      and\n        /* \"Contracts/JoKenPo.sol\":2942:2965  choice1 == Options.ROCK */\n      0x03\n      dup2\n      gt\n      iszero\n      tag_117\n      jumpi\n      tag_118\n      tag_93\n      jump\t// in\n    tag_118:\n    tag_117:\n      eq\n        /* \"Contracts/JoKenPo.sol\":2942:2998  choice1 == Options.ROCK && newChoice == Options.SCISSORS */\n      dup1\n      iszero\n      tag_119\n      jumpi\n      pop\n        /* \"Contracts/JoKenPo.sol\":2982:2998  Options.SCISSORS */\n      0x03\n        /* \"Contracts/JoKenPo.sol\":2969:2998  newChoice == Options.SCISSORS */\n      dup1\n      dup2\n      gt\n      iszero\n      tag_120\n      jumpi\n      tag_121\n      tag_93\n      jump\t// in\n    tag_121:\n    tag_120:\n        /* \"Contracts/JoKenPo.sol\":2969:2978  newChoice */\n      dup2\n        /* \"Contracts/JoKenPo.sol\":2969:2998  newChoice == Options.SCISSORS */\n      0x03\n      dup2\n      gt\n      iszero\n      tag_122\n      jumpi\n      tag_123\n      tag_93\n      jump\t// in\n    tag_123:\n    tag_122:\n      eq\n        /* \"Contracts/JoKenPo.sol\":2942:2998  choice1 == Options.ROCK && newChoice == Options.SCISSORS */\n    tag_119:\n        /* \"Contracts/JoKenPo.sol\":2939:4048  if(choice1 == Options.ROCK && newChoice == Options.SCISSORS){ ... */\n      iszero\n      tag_124\n      jumpi\n        /* \"Contracts/JoKenPo.sol\":3015:3073  finishGame(player1, \"Rock breaks Scissors. Player 1 WON!\") */\n      tag_125\n        /* \"Contracts/JoKenPo.sol\":3026:3033  player1 */\n      0x00\n      0x01\n      swap1\n      sload\n      swap1\n      0x0100\n      exp\n      swap1\n      div\n      0xffffffffffffffffffffffffffffffffffffffff\n      and\n        /* \"Contracts/JoKenPo.sol\":3015:3073  finishGame(player1, \"Rock breaks Scissors. Player 1 WON!\") */\n      mload(0x40)\n      dup1\n      0x60\n      add\n      0x40\n      mstore\n      dup1\n      0x23\n      dup2\n      mstore\n      0x20\n      add\n      data_9056477a8043385bd4eedf29b3b65eaa4f879760f1d1dac4e0b1e2f1c5a5e34c\n      0x23\n      swap2\n      codecopy\n        /* \"Contracts/JoKenPo.sol\":3015:3025  finishGame */\n      tag_126\n        /* \"Contracts/JoKenPo.sol\":3015:3073  finishGame(player1, \"Rock breaks Scissors. Player 1 WON!\") */\n      jump\t// in\n    tag_125:\n        /* \"Contracts/JoKenPo.sol\":2939:4048  if(choice1 == Options.ROCK && newChoice == Options.SCISSORS){ ... */\n      jump(tag_127)\n    tag_124:\n        /* \"Contracts/JoKenPo.sol\":3114:3127  Options.PAPER */\n      0x02\n        /* \"Contracts/JoKenPo.sol\":3103:3127  choice1 == Options.PAPER */\n      0x03\n      dup2\n      gt\n      iszero\n      tag_128\n      jumpi\n      tag_129\n      tag_93\n      jump\t// in\n    tag_129:\n    tag_128:\n        /* \"Contracts/JoKenPo.sol\":3103:3110  choice1 */\n      0x00\n      dup1\n      sload\n      swap1\n      0x0100\n      exp\n      swap1\n      div\n      0xff\n      and\n        /* \"Contracts/JoKenPo.sol\":3103:3127  choice1 == Options.PAPER */\n      0x03\n      dup2\n      gt\n      iszero\n      tag_130\n      jumpi\n      tag_131\n      tag_93\n      jump\t// in\n    tag_131:\n    tag_130:\n      eq\n        /* \"Contracts/JoKenPo.sol\":3103:3156  choice1 == Options.PAPER && newChoice == Options.ROCK */\n      dup1\n      iszero\n      tag_132\n      jumpi\n      pop\n        /* \"Contracts/JoKenPo.sol\":3144:3156  Options.ROCK */\n      0x01\n        /* \"Contracts/JoKenPo.sol\":3131:3156  newChoice == Options.ROCK */\n      0x03\n      dup2\n      gt\n      iszero\n      tag_133\n      jumpi\n      tag_134\n      tag_93\n      jump\t// in\n    tag_134:\n    tag_133:\n        /* \"Contracts/JoKenPo.sol\":3131:3140  newChoice */\n      dup2\n        /* \"Contracts/JoKenPo.sol\":3131:3156  newChoice == Options.ROCK */\n      0x03\n      dup2\n      gt\n      iszero\n      tag_135\n      jumpi\n      tag_136\n      tag_93\n      jump\t// in\n    tag_136:\n    tag_135:\n      eq\n        /* \"Contracts/JoKenPo.sol\":3103:3156  choice1 == Options.PAPER && newChoice == Options.ROCK */\n    tag_132:\n        /* \"Contracts/JoKenPo.sol\":3100:4048  if(choice1 == Options.PAPER && newChoice == Options.ROCK){ ... */\n      iszero\n      tag_137\n      jumpi\n        /* \"Contracts/JoKenPo.sol\":3173:3227  finishGame(player1, \"Paper wraps Rock. Player 1 WON!\") */\n      tag_138\n        /* \"Contracts/JoKenPo.sol\":3184:3191  player1 */\n      0x00\n      0x01\n      swap1\n      sload\n      swap1\n      0x0100\n      exp\n      swap1\n      div\n      0xffffffffffffffffffffffffffffffffffffffff\n      and\n        /* \"Contracts/JoKenPo.sol\":3173:3227  finishGame(player1, \"Paper wraps Rock. Player 1 WON!\") */\n      mload(0x40)\n      dup1\n      0x40\n      add\n      0x40\n      mstore\n      dup1\n      0x1f\n      dup2\n      mstore\n      0x20\n      add\n      0x506170657220777261707320526f636b2e20506c61796572203120574f4e2100\n      dup2\n      mstore\n      pop\n        /* \"Contracts/JoKenPo.sol\":3173:3183  finishGame */\n      tag_126\n        /* \"Contracts/JoKenPo.sol\":3173:3227  finishGame(player1, \"Paper wraps Rock. Player 1 WON!\") */\n      jump\t// in\n    tag_138:\n        /* \"Contracts/JoKenPo.sol\":3100:4048  if(choice1 == Options.PAPER && newChoice == Options.ROCK){ ... */\n      jump(tag_139)\n    tag_137:\n        /* \"Contracts/JoKenPo.sol\":3268:3284  Options.SCISSORS */\n      0x03\n        /* \"Contracts/JoKenPo.sol\":3257:3284  choice1 == Options.SCISSORS */\n      dup1\n      dup2\n      gt\n      iszero\n      tag_140\n      jumpi\n      tag_141\n      tag_93\n      jump\t// in\n    tag_141:\n    tag_140:\n        /* \"Contracts/JoKenPo.sol\":3257:3264  choice1 */\n      0x00\n      dup1\n      sload\n      swap1\n      0x0100\n      exp\n      swap1\n      div\n      0xff\n      and\n        /* \"Contracts/JoKenPo.sol\":3257:3284  choice1 == Options.SCISSORS */\n      0x03\n      dup2\n      gt\n      iszero\n      tag_142\n      jumpi\n      tag_143\n      tag_93\n      jump\t// in\n    tag_143:\n    tag_142:\n      eq\n        /* \"Contracts/JoKenPo.sol\":3257:3314  choice1 == Options.SCISSORS && newChoice == Options.PAPER */\n      dup1\n      iszero\n      tag_144\n      jumpi\n      pop\n        /* \"Contracts/JoKenPo.sol\":3301:3314  Options.PAPER */\n      0x02\n        /* \"Contracts/JoKenPo.sol\":3288:3314  newChoice == Options.PAPER */\n      0x03\n      dup2\n      gt\n      iszero\n      tag_145\n      jumpi\n      tag_146\n      tag_93\n      jump\t// in\n    tag_146:\n    tag_145:\n        /* \"Contracts/JoKenPo.sol\":3288:3297  newChoice */\n      dup2\n        /* \"Contracts/JoKenPo.sol\":3288:3314  newChoice == Options.PAPER */\n      0x03\n      dup2\n      gt\n      iszero\n      tag_147\n      jumpi\n      tag_148\n      tag_93\n      jump\t// in\n    tag_148:\n    tag_147:\n      eq\n        /* \"Contracts/JoKenPo.sol\":3257:3314  choice1 == Options.SCISSORS && newChoice == Options.PAPER */\n    tag_144:\n        /* \"Contracts/JoKenPo.sol\":3254:4048  if(choice1 == Options.SCISSORS && newChoice == Options.PAPER){ ... */\n      iszero\n      tag_149\n      jumpi\n        /* \"Contracts/JoKenPo.sol\":3331:3388  finishGame(player1, \"Scissors cuts Paper. Player 1 WON!\") */\n      tag_150\n        /* \"Contracts/JoKenPo.sol\":3342:3349  player1 */\n      0x00\n      0x01\n      swap1\n      sload\n      swap1\n      0x0100\n      exp\n      swap1\n      div\n      0xffffffffffffffffffffffffffffffffffffffff\n      and\n        /* \"Contracts/JoKenPo.sol\":3331:3388  finishGame(player1, \"Scissors cuts Paper. Player 1 WON!\") */\n      mload(0x40)\n      dup1\n      0x60\n      add\n      0x40\n      mstore\n      dup1\n      0x22\n      dup2\n      mstore\n      0x20\n      add\n      data_91015f70aacd548b1cf82057021b45f79e16ba2ae54c369de1244ab075c90b63\n      0x22\n      swap2\n      codecopy\n        /* \"Contracts/JoKenPo.sol\":3331:3341  finishGame */\n      tag_126\n        /* \"Contracts/JoKenPo.sol\":3331:3388  finishGame(player1, \"Scissors cuts Paper. Player 1 WON!\") */\n      jump\t// in\n    tag_150:\n        /* \"Contracts/JoKenPo.sol\":3254:4048  if(choice1 == Options.SCISSORS && newChoice == Options.PAPER){ ... */\n      jump(tag_151)\n    tag_149:\n        /* \"Contracts/JoKenPo.sol\":3457:3473  Options.SCISSORS */\n      0x03\n        /* \"Contracts/JoKenPo.sol\":3446:3473  choice1 == Options.SCISSORS */\n      dup1\n      dup2\n      gt\n      iszero\n      tag_152\n      jumpi\n      tag_153\n      tag_93\n      jump\t// in\n    tag_153:\n    tag_152:\n        /* \"Contracts/JoKenPo.sol\":3446:3453  choice1 */\n      0x00\n      dup1\n      sload\n      swap1\n      0x0100\n      exp\n      swap1\n      div\n      0xff\n      and\n        /* \"Contracts/JoKenPo.sol\":3446:3473  choice1 == Options.SCISSORS */\n      0x03\n      dup2\n      gt\n      iszero\n      tag_154\n      jumpi\n      tag_155\n      tag_93\n      jump\t// in\n    tag_155:\n    tag_154:\n      eq\n        /* \"Contracts/JoKenPo.sol\":3446:3502  choice1 == Options.SCISSORS && newChoice == Options.ROCK */\n      dup1\n      iszero\n      tag_156\n      jumpi\n      pop\n        /* \"Contracts/JoKenPo.sol\":3490:3502  Options.ROCK */\n      0x01\n        /* \"Contracts/JoKenPo.sol\":3477:3502  newChoice == Options.ROCK */\n      0x03\n      dup2\n      gt\n      iszero\n      tag_157\n      jumpi\n      tag_158\n      tag_93\n      jump\t// in\n    tag_158:\n    tag_157:\n        /* \"Contracts/JoKenPo.sol\":3477:3486  newChoice */\n      dup2\n        /* \"Contracts/JoKenPo.sol\":3477:3502  newChoice == Options.ROCK */\n      0x03\n      dup2\n      gt\n      iszero\n      tag_159\n      jumpi\n      tag_160\n      tag_93\n      jump\t// in\n    tag_160:\n    tag_159:\n      eq\n        /* \"Contracts/JoKenPo.sol\":3446:3502  choice1 == Options.SCISSORS && newChoice == Options.ROCK */\n    tag_156:\n        /* \"Contracts/JoKenPo.sol\":3443:4048  if(choice1 == Options.SCISSORS && newChoice == Options.ROCK){ ... */\n      iszero\n      tag_161\n      jumpi\n        /* \"Contracts/JoKenPo.sol\":3519:3580  finishGame(msg.sender, \"Rock breaks Scissors. Player 2 WON!\") */\n      tag_162\n        /* \"Contracts/JoKenPo.sol\":3530:3540  msg.sender */\n      caller\n        /* \"Contracts/JoKenPo.sol\":3519:3580  finishGame(msg.sender, \"Rock breaks Scissors. Player 2 WON!\") */\n      mload(0x40)\n      dup1\n      0x60\n      add\n      0x40\n      mstore\n      dup1\n      0x23\n      dup2\n      mstore\n      0x20\n      add\n      data_578a9428a54c800af9c02139d74432994ad47bb29704d23f809566a331855d2f\n      0x23\n      swap2\n      codecopy\n        /* \"Contracts/JoKenPo.sol\":3519:3529  finishGame */\n      tag_126\n        /* \"Contracts/JoKenPo.sol\":3519:3580  finishGame(msg.sender, \"Rock breaks Scissors. Player 2 WON!\") */\n      jump\t// in\n    tag_162:\n        /* \"Contracts/JoKenPo.sol\":3443:4048  if(choice1 == Options.SCISSORS && newChoice == Options.ROCK){ ... */\n      jump(tag_163)\n    tag_161:\n        /* \"Contracts/JoKenPo.sol\":3621:3633  Options.ROCK */\n      0x01\n        /* \"Contracts/JoKenPo.sol\":3610:3633  choice1 == Options.ROCK */\n      0x03\n      dup2\n      gt\n      iszero\n      tag_164\n      jumpi\n      tag_165\n      tag_93\n      jump\t// in\n    tag_165:\n    tag_164:\n        /* \"Contracts/JoKenPo.sol\":3610:3617  choice1 */\n      0x00\n      dup1\n      sload\n      swap1\n      0x0100\n      exp\n      swap1\n      div\n      0xff\n      and\n        /* \"Contracts/JoKenPo.sol\":3610:3633  choice1 == Options.ROCK */\n      0x03\n      dup2\n      gt\n      iszero\n      tag_166\n      jumpi\n      tag_167\n      tag_93\n      jump\t// in\n    tag_167:\n    tag_166:\n      eq\n        /* \"Contracts/JoKenPo.sol\":3610:3663  choice1 == Options.ROCK && newChoice == Options.PAPER */\n      dup1\n      iszero\n      tag_168\n      jumpi\n      pop\n        /* \"Contracts/JoKenPo.sol\":3650:3663  Options.PAPER */\n      0x02\n        /* \"Contracts/JoKenPo.sol\":3637:3663  newChoice == Options.PAPER */\n      0x03\n      dup2\n      gt\n      iszero\n      tag_169\n      jumpi\n      tag_170\n      tag_93\n      jump\t// in\n    tag_170:\n    tag_169:\n        /* \"Contracts/JoKenPo.sol\":3637:3646  newChoice */\n      dup2\n        /* \"Contracts/JoKenPo.sol\":3637:3663  newChoice == Options.PAPER */\n      0x03\n      dup2\n      gt\n      iszero\n      tag_171\n      jumpi\n      tag_172\n      tag_93\n      jump\t// in\n    tag_172:\n    tag_171:\n      eq\n        /* \"Contracts/JoKenPo.sol\":3610:3663  choice1 == Options.ROCK && newChoice == Options.PAPER */\n    tag_168:\n        /* \"Contracts/JoKenPo.sol\":3607:4048  if(choice1 == Options.ROCK && newChoice == Options.PAPER){ ... */\n      iszero\n      tag_173\n      jumpi\n        /* \"Contracts/JoKenPo.sol\":3680:3737  finishGame(msg.sender, \"Paper wraps Rock. Player 2 WON!\") */\n      tag_174\n        /* \"Contracts/JoKenPo.sol\":3691:3701  msg.sender */\n      caller\n        /* \"Contracts/JoKenPo.sol\":3680:3737  finishGame(msg.sender, \"Paper wraps Rock. Player 2 WON!\") */\n      mload(0x40)\n      dup1\n      0x40\n      add\n      0x40\n      mstore\n      dup1\n      0x1f\n      dup2\n      mstore\n      0x20\n      add\n      0x506170657220777261707320526f636b2e20506c61796572203220574f4e2100\n      dup2\n      mstore\n      pop\n        /* \"Contracts/JoKenPo.sol\":3680:3690  finishGame */\n      tag_126\n        /* \"Contracts/JoKenPo.sol\":3680:3737  finishGame(msg.sender, \"Paper wraps Rock. Player 2 WON!\") */\n      jump\t// in\n    tag_174:\n        /* \"Contracts/JoKenPo.sol\":3607:4048  if(choice1 == Options.ROCK && newChoice == Options.PAPER){ ... */\n      jump(tag_175)\n    tag_173:\n        /* \"Contracts/JoKenPo.sol\":3778:3791  Options.PAPER */\n      0x02\n        /* \"Contracts/JoKenPo.sol\":3767:3791  choice1 == Options.PAPER */\n      0x03\n      dup2\n      gt\n      iszero\n      tag_176\n      jumpi\n      tag_177\n      tag_93\n      jump\t// in\n    tag_177:\n    tag_176:\n        /* \"Contracts/JoKenPo.sol\":3767:3774  choice1 */\n      0x00\n      dup1\n      sload\n      swap1\n      0x0100\n      exp\n      swap1\n      div\n      0xff\n      and\n        /* \"Contracts/JoKenPo.sol\":3767:3791  choice1 == Options.PAPER */\n      0x03\n      dup2\n      gt\n      iszero\n      tag_178\n      jumpi\n      tag_179\n      tag_93\n      jump\t// in\n    tag_179:\n    tag_178:\n      eq\n        /* \"Contracts/JoKenPo.sol\":3767:3824  choice1 == Options.PAPER && newChoice == Options.SCISSORS */\n      dup1\n      iszero\n      tag_180\n      jumpi\n      pop\n        /* \"Contracts/JoKenPo.sol\":3808:3824  Options.SCISSORS */\n      0x03\n        /* \"Contracts/JoKenPo.sol\":3795:3824  newChoice == Options.SCISSORS */\n      dup1\n      dup2\n      gt\n      iszero\n      tag_181\n      jumpi\n      tag_182\n      tag_93\n      jump\t// in\n    tag_182:\n    tag_181:\n        /* \"Contracts/JoKenPo.sol\":3795:3804  newChoice */\n      dup2\n        /* \"Contracts/JoKenPo.sol\":3795:3824  newChoice == Options.SCISSORS */\n      0x03\n      dup2\n      gt\n      iszero\n      tag_183\n      jumpi\n      tag_184\n      tag_93\n      jump\t// in\n    tag_184:\n    tag_183:\n      eq\n        /* \"Contracts/JoKenPo.sol\":3767:3824  choice1 == Options.PAPER && newChoice == Options.SCISSORS */\n    tag_180:\n        /* \"Contracts/JoKenPo.sol\":3764:4048  if(choice1 == Options.PAPER && newChoice == Options.SCISSORS){ ... */\n      iszero\n      tag_185\n      jumpi\n        /* \"Contracts/JoKenPo.sol\":3841:3901  finishGame(msg.sender, \"Scissors cuts Paper. Player 2 WON!\") */\n      tag_186\n        /* \"Contracts/JoKenPo.sol\":3852:3862  msg.sender */\n      caller\n        /* \"Contracts/JoKenPo.sol\":3841:3901  finishGame(msg.sender, \"Scissors cuts Paper. Player 2 WON!\") */\n      mload(0x40)\n      dup1\n      0x60\n      add\n      0x40\n      mstore\n      dup1\n      0x22\n      dup2\n      mstore\n      0x20\n      add\n      data_933bdbc870e421c751aaa16e694cd13fd9fe7932556621cc4aca333dcc976580\n      0x22\n      swap2\n      codecopy\n        /* \"Contracts/JoKenPo.sol\":3841:3851  finishGame */\n      tag_126\n        /* \"Contracts/JoKenPo.sol\":3841:3901  finishGame(msg.sender, \"Scissors cuts Paper. Player 2 WON!\") */\n      jump\t// in\n    tag_186:\n        /* \"Contracts/JoKenPo.sol\":3764:4048  if(choice1 == Options.PAPER && newChoice == Options.SCISSORS){ ... */\n      jump(tag_187)\n    tag_185:\n        /* \"Contracts/JoKenPo.sol\":4000:4036  finishGame(address(0), \"Draw game!\") */\n      tag_188\n        /* \"Contracts/JoKenPo.sol\":4019:4020  0 */\n      0x00\n        /* \"Contracts/JoKenPo.sol\":4000:4036  finishGame(address(0), \"Draw game!\") */\n      mload(0x40)\n      dup1\n      0x40\n      add\n      0x40\n      mstore\n      dup1\n      0x0a\n      dup2\n      mstore\n      0x20\n      add\n      0x447261772067616d652100000000000000000000000000000000000000000000\n      dup2\n      mstore\n      pop\n        /* \"Contracts/JoKenPo.sol\":4000:4010  finishGame */\n      tag_126\n        /* \"Contracts/JoKenPo.sol\":4000:4036  finishGame(address(0), \"Draw game!\") */\n      jump\t// in\n    tag_188:\n        /* \"Contracts/JoKenPo.sol\":3764:4048  if(choice1 == Options.PAPER && newChoice == Options.SCISSORS){ ... */\n    tag_187:\n        /* \"Contracts/JoKenPo.sol\":3607:4048  if(choice1 == Options.ROCK && newChoice == Options.PAPER){ ... */\n    tag_175:\n        /* \"Contracts/JoKenPo.sol\":3443:4048  if(choice1 == Options.SCISSORS && newChoice == Options.ROCK){ ... */\n    tag_163:\n        /* \"Contracts/JoKenPo.sol\":3254:4048  if(choice1 == Options.SCISSORS && newChoice == Options.PAPER){ ... */\n    tag_151:\n        /* \"Contracts/JoKenPo.sol\":3100:4048  if(choice1 == Options.PAPER && newChoice == Options.ROCK){ ... */\n    tag_139:\n        /* \"Contracts/JoKenPo.sol\":2939:4048  if(choice1 == Options.ROCK && newChoice == Options.SCISSORS){ ... */\n    tag_127:\n        /* \"Contracts/JoKenPo.sol\":2714:4048  if(choice1 == Options.NONE){... */\n    tag_114:\n        /* \"Contracts/JoKenPo.sol\":2358:4055  function play(Options newChoice) public payable {... */\n      pop\n      jump\t// out\n        /* \"Contracts/JoKenPo.sol\":569:592  Player[] public players */\n    tag_30:\n      0x02\n      dup2\n      dup2\n      sload\n      dup2\n      lt\n      tag_189\n      jumpi\n      0x00\n      dup1\n      revert\n    tag_189:\n      swap1\n      0x00\n      mstore\n      keccak256(0x00, 0x20)\n      add\n      0x00\n      swap2\n      pop\n      swap1\n      pop\n      dup1\n      0x00\n      add\n      0x00\n      swap1\n      sload\n      swap1\n      0x0100\n      exp\n      swap1\n      div\n      0xffffffffffffffffffffffffffffffffffffffff\n      and\n      swap1\n      dup1\n      0x00\n      add\n      0x14\n      swap1\n      sload\n      swap1\n      0x0100\n      exp\n      swap1\n      div\n      0xffffffff\n      and\n      swap1\n      pop\n      dup3\n      jump\t// out\n        /* \"Contracts/JoKenPo.sol\":1615:2273  function finishGame(address winner, string memory newStatus) private {... */\n    tag_126:\n        /* \"Contracts/JoKenPo.sol\":1748:1749  0 */\n      0x00\n        /* \"Contracts/JoKenPo.sol\":1730:1750  winner != address(0) */\n      0xffffffffffffffffffffffffffffffffffffffff\n      and\n        /* \"Contracts/JoKenPo.sol\":1730:1736  winner */\n      dup3\n        /* \"Contracts/JoKenPo.sol\":1730:1750  winner != address(0) */\n      0xffffffffffffffffffffffffffffffffffffffff\n      and\n      eq\n        /* \"Contracts/JoKenPo.sol\":1727:2066  if(winner != address(0)){... */\n      tag_192\n      jumpi\n        /* \"Contracts/JoKenPo.sol\":1803:1823  address contractAddr */\n      0x00\n        /* \"Contracts/JoKenPo.sol\":1834:1838  this */\n      address\n        /* \"Contracts/JoKenPo.sol\":1803:1839  address contractAddr = address(this) */\n      swap1\n      pop\n        /* \"Contracts/JoKenPo.sol\":1892:1897  owner */\n      immutable(\"0x731dc163f73d31d8c68f9917ce4ff967753939f70432973c04fd2c2a48148607\")\n        /* \"Contracts/JoKenPo.sol\":1892:1906  owner.transfer */\n      0xffffffffffffffffffffffffffffffffffffffff\n      and\n        /* \"Contracts/JoKenPo.sol\":1892:1941  owner.transfer((contractAddr.balance / 100) * 10) */\n      0x08fc\n        /* \"Contracts/JoKenPo.sol\":1938:1940  10 */\n      0x0a\n        /* \"Contracts/JoKenPo.sol\":1931:1934  100 */\n      0x64\n        /* \"Contracts/JoKenPo.sol\":1908:1920  contractAddr */\n      dup5\n        /* \"Contracts/JoKenPo.sol\":1908:1928  contractAddr.balance */\n      0xffffffffffffffffffffffffffffffffffffffff\n      and\n      balance\n        /* \"Contracts/JoKenPo.sol\":1908:1934  contractAddr.balance / 100 */\n      tag_193\n      swap2\n      swap1\n      tag_194\n      jump\t// in\n    tag_193:\n        /* \"Contracts/JoKenPo.sol\":1907:1940  (contractAddr.balance / 100) * 10 */\n      tag_195\n      swap2\n      swap1\n      tag_196\n      jump\t// in\n    tag_195:\n        /* \"Contracts/JoKenPo.sol\":1892:1941  owner.transfer((contractAddr.balance / 100) * 10) */\n      swap1\n      dup2\n      iszero\n      mul\n      swap1\n      mload(0x40)\n      0x00\n      mload(0x40)\n      dup1\n      dup4\n      sub\n      dup2\n      dup6\n      dup9\n      dup9\n      call\n      swap4\n      pop\n      pop\n      pop\n      pop\n      iszero\n      dup1\n      iszero\n      tag_198\n      jumpi\n      returndatasize\n      0x00\n      dup1\n      returndatacopy\n      revert(0x00, returndatasize)\n    tag_198:\n      pop\n        /* \"Contracts/JoKenPo.sol\":2003:2009  winner */\n      dup3\n        /* \"Contracts/JoKenPo.sol\":1995:2019  payable(winner).transfer */\n      0xffffffffffffffffffffffffffffffffffffffff\n      and\n        /* \"Contracts/JoKenPo.sol\":1995:2054  payable(winner).transfer((contractAddr.balance / 100) * 90) */\n      0x08fc\n        /* \"Contracts/JoKenPo.sol\":2051:2053  90 */\n      0x5a\n        /* \"Contracts/JoKenPo.sol\":2044:2047  100 */\n      0x64\n        /* \"Contracts/JoKenPo.sol\":2021:2033  contractAddr */\n      dup5\n        /* \"Contracts/JoKenPo.sol\":2021:2041  contractAddr.balance */\n      0xffffffffffffffffffffffffffffffffffffffff\n      and\n      balance\n        /* \"Contracts/JoKenPo.sol\":2021:2047  contractAddr.balance / 100 */\n      tag_199\n      swap2\n      swap1\n      tag_194\n      jump\t// in\n    tag_199:\n        /* \"Contracts/JoKenPo.sol\":2020:2053  (contractAddr.balance / 100) * 90 */\n      tag_200\n      swap2\n      swap1\n      tag_196\n      jump\t// in\n    tag_200:\n        /* \"Contracts/JoKenPo.sol\":1995:2054  payable(winner).transfer((contractAddr.balance / 100) * 90) */\n      swap1\n      dup2\n      iszero\n      mul\n      swap1\n      mload(0x40)\n      0x00\n      mload(0x40)\n      dup1\n      dup4\n      sub\n      dup2\n      dup6\n      dup9\n      dup9\n      call\n      swap4\n      pop\n      pop\n      pop\n      pop\n      iszero\n      dup1\n      iszero\n      tag_202\n      jumpi\n      returndatasize\n      0x00\n      dup1\n      returndatacopy\n      revert(0x00, returndatasize)\n    tag_202:\n      pop\n        /* \"Contracts/JoKenPo.sol\":1751:2066  {... */\n      pop\n        /* \"Contracts/JoKenPo.sol\":1727:2066  if(winner != address(0)){... */\n    tag_192:\n        /* \"Contracts/JoKenPo.sol\":2110:2131  updateWinners(winner) */\n      tag_203\n        /* \"Contracts/JoKenPo.sol\":2124:2130  winner */\n      dup3\n        /* \"Contracts/JoKenPo.sol\":2110:2123  updateWinners */\n      tag_204\n        /* \"Contracts/JoKenPo.sol\":2110:2131  updateWinners(winner) */\n      jump\t// in\n    tag_203:\n        /* \"Contracts/JoKenPo.sol\":2172:2181  newStatus */\n      dup1\n        /* \"Contracts/JoKenPo.sol\":2163:2169  status */\n      0x01\n        /* \"Contracts/JoKenPo.sol\":2163:2181  status = newStatus */\n      swap1\n      dup2\n      tag_205\n      swap2\n      swap1\n      tag_113\n      jump\t// in\n    tag_205:\n      pop\n        /* \"Contracts/JoKenPo.sol\":2230:2231  0 */\n      0x00\n        /* \"Contracts/JoKenPo.sol\":2212:2219  player1 */\n      dup1\n      0x01\n        /* \"Contracts/JoKenPo.sol\":2212:2232  player1 = address(0) */\n      0x0100\n      exp\n      dup2\n      sload\n      dup2\n      0xffffffffffffffffffffffffffffffffffffffff\n      mul\n      not\n      and\n      swap1\n      dup4\n      0xffffffffffffffffffffffffffffffffffffffff\n      and\n      mul\n      or\n      swap1\n      sstore\n      pop\n        /* \"Contracts/JoKenPo.sol\":2253:2265  Options.NONE */\n      0x00\n        /* \"Contracts/JoKenPo.sol\":2243:2250  choice1 */\n      dup1\n      0x00\n        /* \"Contracts/JoKenPo.sol\":2243:2265  choice1 = Options.NONE */\n      0x0100\n      exp\n      dup2\n      sload\n      dup2\n      0xff\n      mul\n      not\n      and\n      swap1\n      dup4\n      0x03\n      dup2\n      gt\n      iszero\n      tag_206\n      jumpi\n      tag_207\n      tag_93\n      jump\t// in\n    tag_207:\n    tag_206:\n      mul\n      or\n      swap1\n      sstore\n      pop\n        /* \"Contracts/JoKenPo.sol\":1615:2273  function finishGame(address winner, string memory newStatus) private {... */\n      pop\n      pop\n      jump\t// out\n        /* \"Contracts/JoKenPo.sol\":1203:1536  function updateWinners(address winner) private {... */\n    tag_204:\n        /* \"Contracts/JoKenPo.sol\":1265:1271  uint i */\n      0x00\n        /* \"Contracts/JoKenPo.sol\":1261:1487  for(uint i = 0; i < players.length; i++){... */\n    tag_209:\n        /* \"Contracts/JoKenPo.sol\":1281:1288  players */\n      0x02\n        /* \"Contracts/JoKenPo.sol\":1281:1295  players.length */\n      dup1\n      sload\n      swap1\n      pop\n        /* \"Contracts/JoKenPo.sol\":1277:1278  i */\n      dup2\n        /* \"Contracts/JoKenPo.sol\":1277:1295  i < players.length */\n      lt\n        /* \"Contracts/JoKenPo.sol\":1261:1487  for(uint i = 0; i < players.length; i++){... */\n      iszero\n      tag_210\n      jumpi\n        /* \"Contracts/JoKenPo.sol\":1366:1372  winner */\n      dup2\n        /* \"Contracts/JoKenPo.sol\":1345:1372  players[i].wallet == winner */\n      0xffffffffffffffffffffffffffffffffffffffff\n      and\n        /* \"Contracts/JoKenPo.sol\":1345:1352  players */\n      0x02\n        /* \"Contracts/JoKenPo.sol\":1353:1354  i */\n      dup3\n        /* \"Contracts/JoKenPo.sol\":1345:1355  players[i] */\n      dup2\n      sload\n      dup2\n      lt\n      tag_212\n      jumpi\n      tag_213\n      tag_55\n      jump\t// in\n    tag_213:\n    tag_212:\n      swap1\n      0x00\n      mstore\n      keccak256(0x00, 0x20)\n      add\n        /* \"Contracts/JoKenPo.sol\":1345:1362  players[i].wallet */\n      0x00\n      add\n      0x00\n      swap1\n      sload\n      swap1\n      0x0100\n      exp\n      swap1\n      div\n      0xffffffffffffffffffffffffffffffffffffffff\n      and\n        /* \"Contracts/JoKenPo.sol\":1345:1372  players[i].wallet == winner */\n      0xffffffffffffffffffffffffffffffffffffffff\n      and\n      sub\n        /* \"Contracts/JoKenPo.sol\":1342:1476  if(players[i].wallet == winner){... */\n      tag_215\n      jumpi\n        /* \"Contracts/JoKenPo.sol\":1392:1399  players */\n      0x02\n        /* \"Contracts/JoKenPo.sol\":1400:1401  i */\n      dup2\n        /* \"Contracts/JoKenPo.sol\":1392:1402  players[i] */\n      dup2\n      sload\n      dup2\n      lt\n      tag_216\n      jumpi\n      tag_217\n      tag_55\n      jump\t// in\n    tag_217:\n    tag_216:\n      swap1\n      0x00\n      mstore\n      keccak256(0x00, 0x20)\n      add\n        /* \"Contracts/JoKenPo.sol\":1392:1407  players[i].wins */\n      0x00\n      add\n      0x14\n        /* \"Contracts/JoKenPo.sol\":1392:1409  players[i].wins++ */\n      dup2\n      dup2\n      swap1\n      sload\n      swap1\n      0x0100\n      exp\n      swap1\n      div\n      0xffffffff\n      and\n      dup1\n      swap3\n      swap2\n      swap1\n      tag_219\n      swap1\n      tag_220\n      jump\t// in\n    tag_219:\n      swap2\n      swap1\n      0x0100\n      exp\n      dup2\n      sload\n      dup2\n      0xffffffff\n      mul\n      not\n      and\n      swap1\n      dup4\n      0xffffffff\n      and\n      mul\n      or\n      swap1\n      sstore\n      pop\n      pop\n        /* \"Contracts/JoKenPo.sol\":1428:1435  return; */\n      pop\n      jump(tag_208)\n        /* \"Contracts/JoKenPo.sol\":1342:1476  if(players[i].wallet == winner){... */\n    tag_215:\n        /* \"Contracts/JoKenPo.sol\":1297:1300  i++ */\n      dup1\n      dup1\n      tag_221\n      swap1\n      tag_60\n      jump\t// in\n    tag_221:\n      swap2\n      pop\n      pop\n        /* \"Contracts/JoKenPo.sol\":1261:1487  for(uint i = 0; i < players.length; i++){... */\n      jump(tag_209)\n    tag_210:\n      pop\n        /* \"Contracts/JoKenPo.sol\":1497:1504  players */\n      0x02\n        /* \"Contracts/JoKenPo.sol\":1510:1527  Player(winner, 1) */\n      mload(0x40)\n      dup1\n      0x40\n      add\n      0x40\n      mstore\n      dup1\n        /* \"Contracts/JoKenPo.sol\":1517:1523  winner */\n      dup4\n        /* \"Contracts/JoKenPo.sol\":1510:1527  Player(winner, 1) */\n      0xffffffffffffffffffffffffffffffffffffffff\n      and\n      dup2\n      mstore\n      0x20\n      add\n        /* \"Contracts/JoKenPo.sol\":1525:1526  1 */\n      0x01\n        /* \"Contracts/JoKenPo.sol\":1510:1527  Player(winner, 1) */\n      0xffffffff\n      and\n      dup2\n      mstore\n      pop\n        /* \"Contracts/JoKenPo.sol\":1497:1528  players.push(Player(winner, 1)) */\n      swap1\n      dup1\n      0x01\n      dup2\n      sload\n      add\n      dup1\n      dup3\n      sstore\n      dup1\n      swap2\n      pop\n      pop\n      0x01\n      swap1\n      sub\n      swap1\n      0x00\n      mstore\n      keccak256(0x00, 0x20)\n      add\n      0x00\n      swap1\n      swap2\n      swap1\n      swap2\n      swap1\n      swap2\n      pop\n      0x00\n      dup3\n      add\n      mload\n      dup2\n      0x00\n      add\n      exp(0x0100, 0x00)\n      dup2\n      sload\n      dup2\n      0xffffffffffffffffffffffffffffffffffffffff\n      mul\n      not\n      and\n      swap1\n      dup4\n      0xffffffffffffffffffffffffffffffffffffffff\n      and\n      mul\n      or\n      swap1\n      sstore\n      pop\n      0x20\n      dup3\n      add\n      mload\n      dup2\n      0x00\n      add\n      exp(0x0100, 0x14)\n      dup2\n      sload\n      dup2\n      0xffffffff\n      mul\n      not\n      and\n      swap1\n      dup4\n      0xffffffff\n      and\n      mul\n      or\n      swap1\n      sstore\n      pop\n      pop\n      pop\n        /* \"Contracts/JoKenPo.sol\":1203:1536  function updateWinners(address winner) private {... */\n    tag_208:\n      pop\n      jump\t// out\n    tag_49:\n      mload(0x40)\n      dup1\n      0x40\n      add\n      0x40\n      mstore\n      dup1\n      and(0xffffffffffffffffffffffffffffffffffffffff, 0x00)\n      dup2\n      mstore\n      0x20\n      add\n      and(0xffffffff, 0x00)\n      dup2\n      mstore\n      pop\n      swap1\n      jump\t// out\n        /* \"#utility.yul\":7:84   */\n    tag_223:\n        /* \"#utility.yul\":44:51   */\n      0x00\n        /* \"#utility.yul\":73:78   */\n      dup2\n        /* \"#utility.yul\":62:78   */\n      swap1\n      pop\n        /* \"#utility.yul\":7:84   */\n      swap2\n      swap1\n      pop\n      jump\t// out\n        /* \"#utility.yul\":90:208   */\n    tag_224:\n        /* \"#utility.yul\":177:201   */\n      tag_280\n        /* \"#utility.yul\":195:200   */\n      dup2\n        /* \"#utility.yul\":177:201   */\n      tag_223\n      jump\t// in\n    tag_280:\n        /* \"#utility.yul\":172:175   */\n      dup3\n        /* \"#utility.yul\":165:202   */\n      mstore\n        /* \"#utility.yul\":90:208   */\n      pop\n      pop\n      jump\t// out\n        /* \"#utility.yul\":214:436   */\n    tag_11:\n        /* \"#utility.yul\":307:311   */\n      0x00\n        /* \"#utility.yul\":345:347   */\n      0x20\n        /* \"#utility.yul\":334:343   */\n      dup3\n        /* \"#utility.yul\":330:348   */\n      add\n        /* \"#utility.yul\":322:348   */\n      swap1\n      pop\n        /* \"#utility.yul\":358:429   */\n      tag_282\n        /* \"#utility.yul\":426:427   */\n      0x00\n        /* \"#utility.yul\":415:424   */\n      dup4\n        /* \"#utility.yul\":411:428   */\n      add\n        /* \"#utility.yul\":402:408   */\n      dup5\n        /* \"#utility.yul\":358:429   */\n      tag_224\n      jump\t// in\n    tag_282:\n        /* \"#utility.yul\":214:436   */\n      swap3\n      swap2\n      pop\n      pop\n      jump\t// out\n        /* \"#utility.yul\":442:578   */\n    tag_225:\n        /* \"#utility.yul\":531:537   */\n      0x00\n        /* \"#utility.yul\":565:570   */\n      dup2\n        /* \"#utility.yul\":559:571   */\n      mload\n        /* \"#utility.yul\":549:571   */\n      swap1\n      pop\n        /* \"#utility.yul\":442:578   */\n      swap2\n      swap1\n      pop\n      jump\t// out\n        /* \"#utility.yul\":584:790   */\n    tag_226:\n        /* \"#utility.yul\":705:716   */\n      0x00\n        /* \"#utility.yul\":739:745   */\n      dup3\n        /* \"#utility.yul\":734:737   */\n      dup3\n        /* \"#utility.yul\":727:746   */\n      mstore\n        /* \"#utility.yul\":779:783   */\n      0x20\n        /* \"#utility.yul\":774:777   */\n      dup3\n        /* \"#utility.yul\":770:784   */\n      add\n        /* \"#utility.yul\":755:784   */\n      swap1\n      pop\n        /* \"#utility.yul\":584:790   */\n      swap3\n      swap2\n      pop\n      pop\n      jump\t// out\n        /* \"#utility.yul\":796:950   */\n    tag_227:\n        /* \"#utility.yul\":885:889   */\n      0x00\n        /* \"#utility.yul\":908:911   */\n      dup2\n        /* \"#utility.yul\":900:911   */\n      swap1\n      pop\n        /* \"#utility.yul\":938:942   */\n      0x20\n        /* \"#utility.yul\":933:936   */\n      dup3\n        /* \"#utility.yul\":929:943   */\n      add\n        /* \"#utility.yul\":921:943   */\n      swap1\n      pop\n        /* \"#utility.yul\":796:950   */\n      swap2\n      swap1\n      pop\n      jump\t// out\n        /* \"#utility.yul\":956:1082   */\n    tag_228:\n        /* \"#utility.yul\":993:1000   */\n      0x00\n        /* \"#utility.yul\":1033:1075   */\n      0xffffffffffffffffffffffffffffffffffffffff\n        /* \"#utility.yul\":1026:1031   */\n      dup3\n        /* \"#utility.yul\":1022:1076   */\n      and\n        /* \"#utility.yul\":1011:1076   */\n      swap1\n      pop\n        /* \"#utility.yul\":956:1082   */\n      swap2\n      swap1\n      pop\n      jump\t// out\n        /* \"#utility.yul\":1088:1184   */\n    tag_229:\n        /* \"#utility.yul\":1125:1132   */\n      0x00\n        /* \"#utility.yul\":1154:1178   */\n      tag_288\n        /* \"#utility.yul\":1172:1177   */\n      dup3\n        /* \"#utility.yul\":1154:1178   */\n      tag_228\n      jump\t// in\n    tag_288:\n        /* \"#utility.yul\":1143:1178   */\n      swap1\n      pop\n        /* \"#utility.yul\":1088:1184   */\n      swap2\n      swap1\n      pop\n      jump\t// out\n        /* \"#utility.yul\":1190:1298   */\n    tag_230:\n        /* \"#utility.yul\":1267:1291   */\n      tag_290\n        /* \"#utility.yul\":1285:1290   */\n      dup2\n        /* \"#utility.yul\":1267:1291   */\n      tag_229\n      jump\t// in\n    tag_290:\n        /* \"#utility.yul\":1262:1265   */\n      dup3\n        /* \"#utility.yul\":1255:1292   */\n      mstore\n        /* \"#utility.yul\":1190:1298   */\n      pop\n      pop\n      jump\t// out\n        /* \"#utility.yul\":1304:1397   */\n    tag_231:\n        /* \"#utility.yul\":1340:1347   */\n      0x00\n        /* \"#utility.yul\":1380:1390   */\n      0xffffffff\n        /* \"#utility.yul\":1373:1378   */\n      dup3\n        /* \"#utility.yul\":1369:1391   */\n      and\n        /* \"#utility.yul\":1358:1391   */\n      swap1\n      pop\n        /* \"#utility.yul\":1304:1397   */\n      swap2\n      swap1\n      pop\n      jump\t// out\n        /* \"#utility.yul\":1403:1508   */\n    tag_232:\n        /* \"#utility.yul\":1478:1501   */\n      tag_293\n        /* \"#utility.yul\":1495:1500   */\n      dup2\n        /* \"#utility.yul\":1478:1501   */\n      tag_231\n      jump\t// in\n    tag_293:\n        /* \"#utility.yul\":1473:1476   */\n      dup3\n        /* \"#utility.yul\":1466:1502   */\n      mstore\n        /* \"#utility.yul\":1403:1508   */\n      pop\n      pop\n      jump\t// out\n        /* \"#utility.yul\":1568:2059   */\n    tag_233:\n        /* \"#utility.yul\":1699:1703   */\n      0x40\n        /* \"#utility.yul\":1694:1697   */\n      dup3\n        /* \"#utility.yul\":1690:1704   */\n      add\n        /* \"#utility.yul\":1788:1792   */\n      0x00\n        /* \"#utility.yul\":1781:1786   */\n      dup3\n        /* \"#utility.yul\":1777:1793   */\n      add\n        /* \"#utility.yul\":1771:1794   */\n      mload\n        /* \"#utility.yul\":1807:1870   */\n      tag_295\n        /* \"#utility.yul\":1864:1868   */\n      0x00\n        /* \"#utility.yul\":1859:1862   */\n      dup6\n        /* \"#utility.yul\":1855:1869   */\n      add\n        /* \"#utility.yul\":1841:1853   */\n      dup3\n        /* \"#utility.yul\":1807:1870   */\n      tag_230\n      jump\t// in\n    tag_295:\n        /* \"#utility.yul\":1714:1880   */\n      pop\n        /* \"#utility.yul\":1962:1966   */\n      0x20\n        /* \"#utility.yul\":1955:1960   */\n      dup3\n        /* \"#utility.yul\":1951:1967   */\n      add\n        /* \"#utility.yul\":1945:1968   */\n      mload\n        /* \"#utility.yul\":1981:2042   */\n      tag_296\n        /* \"#utility.yul\":2036:2040   */\n      0x20\n        /* \"#utility.yul\":2031:2034   */\n      dup6\n        /* \"#utility.yul\":2027:2041   */\n      add\n        /* \"#utility.yul\":2013:2025   */\n      dup3\n        /* \"#utility.yul\":1981:2042   */\n      tag_232\n      jump\t// in\n    tag_296:\n        /* \"#utility.yul\":1890:2052   */\n      pop\n        /* \"#utility.yul\":1668:2059   */\n      pop\n        /* \"#utility.yul\":1568:2059   */\n      pop\n      pop\n      jump\t// out\n        /* \"#utility.yul\":2065:2332   */\n    tag_234:\n        /* \"#utility.yul\":2178:2188   */\n      0x00\n        /* \"#utility.yul\":2199:2289   */\n      tag_298\n        /* \"#utility.yul\":2285:2288   */\n      dup4\n        /* \"#utility.yul\":2277:2283   */\n      dup4\n        /* \"#utility.yul\":2199:2289   */\n      tag_233\n      jump\t// in\n    tag_298:\n        /* \"#utility.yul\":2321:2325   */\n      0x40\n        /* \"#utility.yul\":2316:2319   */\n      dup4\n        /* \"#utility.yul\":2312:2326   */\n      add\n        /* \"#utility.yul\":2298:2326   */\n      swap1\n      pop\n        /* \"#utility.yul\":2065:2332   */\n      swap3\n      swap2\n      pop\n      pop\n      jump\t// out\n        /* \"#utility.yul\":2338:2473   */\n    tag_235:\n        /* \"#utility.yul\":2430:2434   */\n      0x00\n        /* \"#utility.yul\":2462:2466   */\n      0x20\n        /* \"#utility.yul\":2457:2460   */\n      dup3\n        /* \"#utility.yul\":2453:2467   */\n      add\n        /* \"#utility.yul\":2445:2467   */\n      swap1\n      pop\n        /* \"#utility.yul\":2338:2473   */\n      swap2\n      swap1\n      pop\n      jump\t// out\n        /* \"#utility.yul\":2537:3445   */\n    tag_236:\n        /* \"#utility.yul\":2700:2703   */\n      0x00\n        /* \"#utility.yul\":2729:2805   */\n      tag_301\n        /* \"#utility.yul\":2799:2804   */\n      dup3\n        /* \"#utility.yul\":2729:2805   */\n      tag_225\n      jump\t// in\n    tag_301:\n        /* \"#utility.yul\":2821:2929   */\n      tag_302\n        /* \"#utility.yul\":2922:2928   */\n      dup2\n        /* \"#utility.yul\":2917:2920   */\n      dup6\n        /* \"#utility.yul\":2821:2929   */\n      tag_226\n      jump\t// in\n    tag_302:\n        /* \"#utility.yul\":2814:2929   */\n      swap4\n      pop\n        /* \"#utility.yul\":2953:3031   */\n      tag_303\n        /* \"#utility.yul\":3025:3030   */\n      dup4\n        /* \"#utility.yul\":2953:3031   */\n      tag_227\n      jump\t// in\n    tag_303:\n        /* \"#utility.yul\":3054:3061   */\n      dup1\n        /* \"#utility.yul\":3085:3086   */\n      0x00\n        /* \"#utility.yul\":3070:3420   */\n    tag_304:\n        /* \"#utility.yul\":3095:3101   */\n      dup4\n        /* \"#utility.yul\":3092:3093   */\n      dup2\n        /* \"#utility.yul\":3089:3102   */\n      lt\n        /* \"#utility.yul\":3070:3420   */\n      iszero\n      tag_306\n      jumpi\n        /* \"#utility.yul\":3171:3177   */\n      dup2\n        /* \"#utility.yul\":3165:3178   */\n      mload\n        /* \"#utility.yul\":3198:3305   */\n      tag_307\n        /* \"#utility.yul\":3301:3304   */\n      dup9\n        /* \"#utility.yul\":3286:3299   */\n      dup3\n        /* \"#utility.yul\":3198:3305   */\n      tag_234\n      jump\t// in\n    tag_307:\n        /* \"#utility.yul\":3191:3305   */\n      swap8\n      pop\n        /* \"#utility.yul\":3328:3410   */\n      tag_308\n        /* \"#utility.yul\":3403:3409   */\n      dup4\n        /* \"#utility.yul\":3328:3410   */\n      tag_235\n      jump\t// in\n    tag_308:\n        /* \"#utility.yul\":3318:3410   */\n      swap3\n      pop\n        /* \"#utility.yul\":3130:3420   */\n      pop\n        /* \"#utility.yul\":3117:3118   */\n      0x01\n        /* \"#utility.yul\":3114:3115   */\n      dup2\n        /* \"#utility.yul\":3110:3119   */\n      add\n        /* \"#utility.yul\":3105:3119   */\n      swap1\n      pop\n        /* \"#utility.yul\":3070:3420   */\n      jump(tag_304)\n    tag_306:\n        /* \"#utility.yul\":3074:3088   */\n      pop\n        /* \"#utility.yul\":3436:3439   */\n      dup6\n        /* \"#utility.yul\":3429:3439   */\n      swap4\n      pop\n        /* \"#utility.yul\":2705:3445   */\n      pop\n      pop\n      pop\n        /* \"#utility.yul\":2537:3445   */\n      swap3\n      swap2\n      pop\n      pop\n      jump\t// out\n        /* \"#utility.yul\":3451:3912   */\n    tag_16:\n        /* \"#utility.yul\":3638:3642   */\n      0x00\n        /* \"#utility.yul\":3676:3678   */\n      0x20\n        /* \"#utility.yul\":3665:3674   */\n      dup3\n        /* \"#utility.yul\":3661:3679   */\n      add\n        /* \"#utility.yul\":3653:3679   */\n      swap1\n      pop\n        /* \"#utility.yul\":3725:3734   */\n      dup2\n        /* \"#utility.yul\":3719:3723   */\n      dup2\n        /* \"#utility.yul\":3715:3735   */\n      sub\n        /* \"#utility.yul\":3711:3712   */\n      0x00\n        /* \"#utility.yul\":3700:3709   */\n      dup4\n        /* \"#utility.yul\":3696:3713   */\n      add\n        /* \"#utility.yul\":3689:3736   */\n      mstore\n        /* \"#utility.yul\":3753:3905   */\n      tag_310\n        /* \"#utility.yul\":3900:3904   */\n      dup2\n        /* \"#utility.yul\":3891:3897   */\n      dup5\n        /* \"#utility.yul\":3753:3905   */\n      tag_236\n      jump\t// in\n    tag_310:\n        /* \"#utility.yul\":3745:3905   */\n      swap1\n      pop\n        /* \"#utility.yul\":3451:3912   */\n      swap3\n      swap2\n      pop\n      pop\n      jump\t// out\n        /* \"#utility.yul\":3918:4017   */\n    tag_237:\n        /* \"#utility.yul\":3970:3976   */\n      0x00\n        /* \"#utility.yul\":4004:4009   */\n      dup2\n        /* \"#utility.yul\":3998:4010   */\n      mload\n        /* \"#utility.yul\":3988:4010   */\n      swap1\n      pop\n        /* \"#utility.yul\":3918:4017   */\n      swap2\n      swap1\n      pop\n      jump\t// out\n        /* \"#utility.yul\":4023:4192   */\n    tag_238:\n        /* \"#utility.yul\":4107:4118   */\n      0x00\n        /* \"#utility.yul\":4141:4147   */\n      dup3\n        /* \"#utility.yul\":4136:4139   */\n      dup3\n        /* \"#utility.yul\":4129:4148   */\n      mstore\n        /* \"#utility.yul\":4181:4185   */\n      0x20\n        /* \"#utility.yul\":4176:4179   */\n      dup3\n        /* \"#utility.yul\":4172:4186   */\n      add\n        /* \"#utility.yul\":4157:4186   */\n      swap1\n      pop\n        /* \"#utility.yul\":4023:4192   */\n      swap3\n      swap2\n      pop\n      pop\n      jump\t// out\n        /* \"#utility.yul\":4198:4444   */\n    tag_239:\n        /* \"#utility.yul\":4279:4280   */\n      0x00\n        /* \"#utility.yul\":4289:4402   */\n    tag_314:\n        /* \"#utility.yul\":4303:4309   */\n      dup4\n        /* \"#utility.yul\":4300:4301   */\n      dup2\n        /* \"#utility.yul\":4297:4310   */\n      lt\n        /* \"#utility.yul\":4289:4402   */\n      iszero\n      tag_316\n      jumpi\n        /* \"#utility.yul\":4388:4389   */\n      dup1\n        /* \"#utility.yul\":4383:4386   */\n      dup3\n        /* \"#utility.yul\":4379:4390   */\n      add\n        /* \"#utility.yul\":4373:4391   */\n      mload\n        /* \"#utility.yul\":4369:4370   */\n      dup2\n        /* \"#utility.yul\":4364:4367   */\n      dup5\n        /* \"#utility.yul\":4360:4371   */\n      add\n        /* \"#utility.yul\":4353:4392   */\n      mstore\n        /* \"#utility.yul\":4325:4327   */\n      0x20\n        /* \"#utility.yul\":4322:4323   */\n      dup2\n        /* \"#utility.yul\":4318:4328   */\n      add\n        /* \"#utility.yul\":4313:4328   */\n      swap1\n      pop\n        /* \"#utility.yul\":4289:4402   */\n      jump(tag_314)\n    tag_316:\n        /* \"#utility.yul\":4436:4437   */\n      0x00\n        /* \"#utility.yul\":4427:4433   */\n      dup5\n        /* \"#utility.yul\":4422:4425   */\n      dup5\n        /* \"#utility.yul\":4418:4434   */\n      add\n        /* \"#utility.yul\":4411:4438   */\n      mstore\n        /* \"#utility.yul\":4260:4444   */\n      pop\n        /* \"#utility.yul\":4198:4444   */\n      pop\n      pop\n      pop\n      jump\t// out\n        /* \"#utility.yul\":4450:4552   */\n    tag_240:\n        /* \"#utility.yul\":4491:4497   */\n      0x00\n        /* \"#utility.yul\":4542:4544   */\n      0x1f\n        /* \"#utility.yul\":4538:4545   */\n      not\n        /* \"#utility.yul\":4533:4535   */\n      0x1f\n        /* \"#utility.yul\":4526:4531   */\n      dup4\n        /* \"#utility.yul\":4522:4536   */\n      add\n        /* \"#utility.yul\":4518:4546   */\n      and\n        /* \"#utility.yul\":4508:4546   */\n      swap1\n      pop\n        /* \"#utility.yul\":4450:4552   */\n      swap2\n      swap1\n      pop\n      jump\t// out\n        /* \"#utility.yul\":4558:4935   */\n    tag_241:\n        /* \"#utility.yul\":4646:4649   */\n      0x00\n        /* \"#utility.yul\":4674:4713   */\n      tag_319\n        /* \"#utility.yul\":4707:4712   */\n      dup3\n        /* \"#utility.yul\":4674:4713   */\n      tag_237\n      jump\t// in\n    tag_319:\n        /* \"#utility.yul\":4729:4800   */\n      tag_320\n        /* \"#utility.yul\":4793:4799   */\n      dup2\n        /* \"#utility.yul\":4788:4791   */\n      dup6\n        /* \"#utility.yul\":4729:4800   */\n      tag_238\n      jump\t// in\n    tag_320:\n        /* \"#utility.yul\":4722:4800   */\n      swap4\n      pop\n        /* \"#utility.yul\":4809:4874   */\n      tag_321\n        /* \"#utility.yul\":4867:4873   */\n      dup2\n        /* \"#utility.yul\":4862:4865   */\n      dup6\n        /* \"#utility.yul\":4855:4859   */\n      0x20\n        /* \"#utility.yul\":4848:4853   */\n      dup7\n        /* \"#utility.yul\":4844:4860   */\n      add\n        /* \"#utility.yul\":4809:4874   */\n      tag_239\n      jump\t// in\n    tag_321:\n        /* \"#utility.yul\":4899:4928   */\n      tag_322\n        /* \"#utility.yul\":4921:4927   */\n      dup2\n        /* \"#utility.yul\":4899:4928   */\n      tag_240\n      jump\t// in\n    tag_322:\n        /* \"#utility.yul\":4894:4897   */\n      dup5\n        /* \"#utility.yul\":4890:4929   */\n      add\n        /* \"#utility.yul\":4883:4929   */\n      swap2\n      pop\n        /* \"#utility.yul\":4650:4935   */\n      pop\n        /* \"#utility.yul\":4558:4935   */\n      swap3\n      swap2\n      pop\n      pop\n      jump\t// out\n        /* \"#utility.yul\":4941:5254   */\n    tag_21:\n        /* \"#utility.yul\":5054:5058   */\n      0x00\n        /* \"#utility.yul\":5092:5094   */\n      0x20\n        /* \"#utility.yul\":5081:5090   */\n      dup3\n        /* \"#utility.yul\":5077:5095   */\n      add\n        /* \"#utility.yul\":5069:5095   */\n      swap1\n      pop\n        /* \"#utility.yul\":5141:5150   */\n      dup2\n        /* \"#utility.yul\":5135:5139   */\n      dup2\n        /* \"#utility.yul\":5131:5151   */\n      sub\n        /* \"#utility.yul\":5127:5128   */\n      0x00\n        /* \"#utility.yul\":5116:5125   */\n      dup4\n        /* \"#utility.yul\":5112:5129   */\n      add\n        /* \"#utility.yul\":5105:5152   */\n      mstore\n        /* \"#utility.yul\":5169:5247   */\n      tag_324\n        /* \"#utility.yul\":5242:5246   */\n      dup2\n        /* \"#utility.yul\":5233:5239   */\n      dup5\n        /* \"#utility.yul\":5169:5247   */\n      tag_241\n      jump\t// in\n    tag_324:\n        /* \"#utility.yul\":5161:5247   */\n      swap1\n      pop\n        /* \"#utility.yul\":4941:5254   */\n      swap3\n      swap2\n      pop\n      pop\n      jump\t// out\n        /* \"#utility.yul\":5341:5458   */\n    tag_243:\n        /* \"#utility.yul\":5450:5451   */\n      0x00\n        /* \"#utility.yul\":5447:5448   */\n      dup1\n        /* \"#utility.yul\":5440:5452   */\n      revert\n        /* \"#utility.yul\":5587:5695   */\n    tag_245:\n        /* \"#utility.yul\":5669:5670   */\n      0x04\n        /* \"#utility.yul\":5662:5667   */\n      dup2\n        /* \"#utility.yul\":5659:5671   */\n      lt\n        /* \"#utility.yul\":5649:5689   */\n      tag_329\n      jumpi\n        /* \"#utility.yul\":5685:5686   */\n      0x00\n        /* \"#utility.yul\":5682:5683   */\n      dup1\n        /* \"#utility.yul\":5675:5687   */\n      revert\n        /* \"#utility.yul\":5649:5689   */\n    tag_329:\n        /* \"#utility.yul\":5587:5695   */\n      pop\n      jump\t// out\n        /* \"#utility.yul\":5701:5858   */\n    tag_246:\n        /* \"#utility.yul\":5756:5761   */\n      0x00\n        /* \"#utility.yul\":5794:5800   */\n      dup2\n        /* \"#utility.yul\":5781:5801   */\n      calldataload\n        /* \"#utility.yul\":5772:5801   */\n      swap1\n      pop\n        /* \"#utility.yul\":5810:5852   */\n      tag_331\n        /* \"#utility.yul\":5846:5851   */\n      dup2\n        /* \"#utility.yul\":5810:5852   */\n      tag_245\n      jump\t// in\n    tag_331:\n        /* \"#utility.yul\":5701:5858   */\n      swap3\n      swap2\n      pop\n      pop\n      jump\t// out\n        /* \"#utility.yul\":5864:6211   */\n    tag_24:\n        /* \"#utility.yul\":5932:5938   */\n      0x00\n        /* \"#utility.yul\":5981:5983   */\n      0x20\n        /* \"#utility.yul\":5969:5978   */\n      dup3\n        /* \"#utility.yul\":5960:5967   */\n      dup5\n        /* \"#utility.yul\":5956:5979   */\n      sub\n        /* \"#utility.yul\":5952:5984   */\n      slt\n        /* \"#utility.yul\":5949:6068   */\n      iszero\n      tag_333\n      jumpi\n        /* \"#utility.yul\":5987:6066   */\n      tag_334\n      tag_243\n      jump\t// in\n    tag_334:\n        /* \"#utility.yul\":5949:6068   */\n    tag_333:\n        /* \"#utility.yul\":6107:6108   */\n      0x00\n        /* \"#utility.yul\":6132:6194   */\n      tag_335\n        /* \"#utility.yul\":6186:6193   */\n      dup5\n        /* \"#utility.yul\":6177:6183   */\n      dup3\n        /* \"#utility.yul\":6166:6175   */\n      dup6\n        /* \"#utility.yul\":6162:6184   */\n      add\n        /* \"#utility.yul\":6132:6194   */\n      tag_246\n      jump\t// in\n    tag_335:\n        /* \"#utility.yul\":6122:6194   */\n      swap2\n      pop\n        /* \"#utility.yul\":6078:6204   */\n      pop\n        /* \"#utility.yul\":5864:6211   */\n      swap3\n      swap2\n      pop\n      pop\n      jump\t// out\n        /* \"#utility.yul\":6217:6339   */\n    tag_247:\n        /* \"#utility.yul\":6290:6314   */\n      tag_337\n        /* \"#utility.yul\":6308:6313   */\n      dup2\n        /* \"#utility.yul\":6290:6314   */\n      tag_223\n      jump\t// in\n    tag_337:\n        /* \"#utility.yul\":6283:6288   */\n      dup2\n        /* \"#utility.yul\":6280:6315   */\n      eq\n        /* \"#utility.yul\":6270:6333   */\n      tag_338\n      jumpi\n        /* \"#utility.yul\":6329:6330   */\n      0x00\n        /* \"#utility.yul\":6326:6327   */\n      dup1\n        /* \"#utility.yul\":6319:6331   */\n      revert\n        /* \"#utility.yul\":6270:6333   */\n    tag_338:\n        /* \"#utility.yul\":6217:6339   */\n      pop\n      jump\t// out\n        /* \"#utility.yul\":6345:6484   */\n    tag_248:\n        /* \"#utility.yul\":6391:6396   */\n      0x00\n        /* \"#utility.yul\":6429:6435   */\n      dup2\n        /* \"#utility.yul\":6416:6436   */\n      calldataload\n        /* \"#utility.yul\":6407:6436   */\n      swap1\n      pop\n        /* \"#utility.yul\":6445:6478   */\n      tag_340\n        /* \"#utility.yul\":6472:6477   */\n      dup2\n        /* \"#utility.yul\":6445:6478   */\n      tag_247\n      jump\t// in\n    tag_340:\n        /* \"#utility.yul\":6345:6484   */\n      swap3\n      swap2\n      pop\n      pop\n      jump\t// out\n        /* \"#utility.yul\":6490:6819   */\n    tag_29:\n        /* \"#utility.yul\":6549:6555   */\n      0x00\n        /* \"#utility.yul\":6598:6600   */\n      0x20\n        /* \"#utility.yul\":6586:6595   */\n      dup3\n        /* \"#utility.yul\":6577:6584   */\n      dup5\n        /* \"#utility.yul\":6573:6596   */\n      sub\n        /* \"#utility.yul\":6569:6601   */\n      slt\n        /* \"#utility.yul\":6566:6685   */\n      iszero\n      tag_342\n      jumpi\n        /* \"#utility.yul\":6604:6683   */\n      tag_343\n      tag_243\n      jump\t// in\n    tag_343:\n        /* \"#utility.yul\":6566:6685   */\n    tag_342:\n        /* \"#utility.yul\":6724:6725   */\n      0x00\n        /* \"#utility.yul\":6749:6802   */\n      tag_344\n        /* \"#utility.yul\":6794:6801   */\n      dup5\n        /* \"#utility.yul\":6785:6791   */\n      dup3\n        /* \"#utility.yul\":6774:6783   */\n      dup6\n        /* \"#utility.yul\":6770:6792   */\n      add\n        /* \"#utility.yul\":6749:6802   */\n      tag_248\n      jump\t// in\n    tag_344:\n        /* \"#utility.yul\":6739:6802   */\n      swap2\n      pop\n        /* \"#utility.yul\":6695:6812   */\n      pop\n        /* \"#utility.yul\":6490:6819   */\n      swap3\n      swap2\n      pop\n      pop\n      jump\t// out\n        /* \"#utility.yul\":6825:6943   */\n    tag_249:\n        /* \"#utility.yul\":6912:6936   */\n      tag_346\n        /* \"#utility.yul\":6930:6935   */\n      dup2\n        /* \"#utility.yul\":6912:6936   */\n      tag_229\n      jump\t// in\n    tag_346:\n        /* \"#utility.yul\":6907:6910   */\n      dup3\n        /* \"#utility.yul\":6900:6937   */\n      mstore\n        /* \"#utility.yul\":6825:6943   */\n      pop\n      pop\n      jump\t// out\n        /* \"#utility.yul\":6949:7064   */\n    tag_250:\n        /* \"#utility.yul\":7034:7057   */\n      tag_348\n        /* \"#utility.yul\":7051:7056   */\n      dup2\n        /* \"#utility.yul\":7034:7057   */\n      tag_231\n      jump\t// in\n    tag_348:\n        /* \"#utility.yul\":7029:7032   */\n      dup3\n        /* \"#utility.yul\":7022:7058   */\n      mstore\n        /* \"#utility.yul\":6949:7064   */\n      pop\n      pop\n      jump\t// out\n        /* \"#utility.yul\":7070:7398   */\n    tag_32:\n        /* \"#utility.yul\":7189:7193   */\n      0x00\n        /* \"#utility.yul\":7227:7229   */\n      0x40\n        /* \"#utility.yul\":7216:7225   */\n      dup3\n        /* \"#utility.yul\":7212:7230   */\n      add\n        /* \"#utility.yul\":7204:7230   */\n      swap1\n      pop\n        /* \"#utility.yul\":7240:7311   */\n      tag_350\n        /* \"#utility.yul\":7308:7309   */\n      0x00\n        /* \"#utility.yul\":7297:7306   */\n      dup4\n        /* \"#utility.yul\":7293:7310   */\n      add\n        /* \"#utility.yul\":7284:7290   */\n      dup6\n        /* \"#utility.yul\":7240:7311   */\n      tag_249\n      jump\t// in\n    tag_350:\n        /* \"#utility.yul\":7321:7391   */\n      tag_351\n        /* \"#utility.yul\":7387:7389   */\n      0x20\n        /* \"#utility.yul\":7376:7385   */\n      dup4\n        /* \"#utility.yul\":7372:7390   */\n      add\n        /* \"#utility.yul\":7363:7369   */\n      dup5\n        /* \"#utility.yul\":7321:7391   */\n      tag_250\n      jump\t// in\n    tag_351:\n        /* \"#utility.yul\":7070:7398   */\n      swap4\n      swap3\n      pop\n      pop\n      pop\n      jump\t// out\n        /* \"#utility.yul\":7404:7633   */\n    tag_251:\n        /* \"#utility.yul\":7544:7578   */\n      0x596f7520646f6e27742068617665207065726d697373696f6e7320746f206163\n        /* \"#utility.yul\":7540:7541   */\n      0x00\n        /* \"#utility.yul\":7532:7538   */\n      dup3\n        /* \"#utility.yul\":7528:7542   */\n      add\n        /* \"#utility.yul\":7521:7579   */\n      mstore\n        /* \"#utility.yul\":7613:7625   */\n      0x6365737320746869732e00000000000000000000000000000000000000000000\n        /* \"#utility.yul\":7608:7610   */\n      0x20\n        /* \"#utility.yul\":7600:7606   */\n      dup3\n        /* \"#utility.yul\":7596:7611   */\n      add\n        /* \"#utility.yul\":7589:7626   */\n      mstore\n        /* \"#utility.yul\":7404:7633   */\n      pop\n      jump\t// out\n        /* \"#utility.yul\":7639:8005   */\n    tag_252:\n        /* \"#utility.yul\":7781:7784   */\n      0x00\n        /* \"#utility.yul\":7802:7869   */\n      tag_354\n        /* \"#utility.yul\":7866:7868   */\n      0x2a\n        /* \"#utility.yul\":7861:7864   */\n      dup4\n        /* \"#utility.yul\":7802:7869   */\n      tag_238\n      jump\t// in\n    tag_354:\n        /* \"#utility.yul\":7795:7869   */\n      swap2\n      pop\n        /* \"#utility.yul\":7878:7971   */\n      tag_355\n        /* \"#utility.yul\":7967:7970   */\n      dup3\n        /* \"#utility.yul\":7878:7971   */\n      tag_251\n      jump\t// in\n    tag_355:\n        /* \"#utility.yul\":7996:7998   */\n      0x40\n        /* \"#utility.yul\":7991:7994   */\n      dup3\n        /* \"#utility.yul\":7987:7999   */\n      add\n        /* \"#utility.yul\":7980:7999   */\n      swap1\n      pop\n        /* \"#utility.yul\":7639:8005   */\n      swap2\n      swap1\n      pop\n      jump\t// out\n        /* \"#utility.yul\":8011:8430   */\n    tag_36:\n        /* \"#utility.yul\":8177:8181   */\n      0x00\n        /* \"#utility.yul\":8215:8217   */\n      0x20\n        /* \"#utility.yul\":8204:8213   */\n      dup3\n        /* \"#utility.yul\":8200:8218   */\n      add\n        /* \"#utility.yul\":8192:8218   */\n      swap1\n      pop\n        /* \"#utility.yul\":8264:8273   */\n      dup2\n        /* \"#utility.yul\":8258:8262   */\n      dup2\n        /* \"#utility.yul\":8254:8274   */\n      sub\n        /* \"#utility.yul\":8250:8251   */\n      0x00\n        /* \"#utility.yul\":8239:8248   */\n      dup4\n        /* \"#utility.yul\":8235:8252   */\n      add\n        /* \"#utility.yul\":8228:8275   */\n      mstore\n        /* \"#utility.yul\":8292:8423   */\n      tag_357\n        /* \"#utility.yul\":8418:8422   */\n      dup2\n        /* \"#utility.yul\":8292:8423   */\n      tag_252\n      jump\t// in\n    tag_357:\n        /* \"#utility.yul\":8284:8423   */\n      swap1\n      pop\n        /* \"#utility.yul\":8011:8430   */\n      swap2\n      swap1\n      pop\n      jump\t// out\n        /* \"#utility.yul\":8436:8616   */\n    tag_45:\n        /* \"#utility.yul\":8484:8561   */\n      0x4e487b7100000000000000000000000000000000000000000000000000000000\n        /* \"#utility.yul\":8481:8482   */\n      0x00\n        /* \"#utility.yul\":8474:8562   */\n      mstore\n        /* \"#utility.yul\":8581:8585   */\n      0x41\n        /* \"#utility.yul\":8578:8579   */\n      0x04\n        /* \"#utility.yul\":8571:8586   */\n      mstore\n        /* \"#utility.yul\":8605:8609   */\n      0x24\n        /* \"#utility.yul\":8602:8603   */\n      0x00\n        /* \"#utility.yul\":8595:8610   */\n      revert\n        /* \"#utility.yul\":8622:8802   */\n    tag_55:\n        /* \"#utility.yul\":8670:8747   */\n      0x4e487b7100000000000000000000000000000000000000000000000000000000\n        /* \"#utility.yul\":8667:8668   */\n      0x00\n        /* \"#utility.yul\":8660:8748   */\n      mstore\n        /* \"#utility.yul\":8767:8771   */\n      0x32\n        /* \"#utility.yul\":8764:8765   */\n      0x04\n        /* \"#utility.yul\":8757:8772   */\n      mstore\n        /* \"#utility.yul\":8791:8795   */\n      0x24\n        /* \"#utility.yul\":8788:8789   */\n      0x00\n        /* \"#utility.yul\":8781:8796   */\n      revert\n        /* \"#utility.yul\":8808:8988   */\n    tag_253:\n        /* \"#utility.yul\":8856:8933   */\n      0x4e487b7100000000000000000000000000000000000000000000000000000000\n        /* \"#utility.yul\":8853:8854   */\n      0x00\n        /* \"#utility.yul\":8846:8934   */\n      mstore\n        /* \"#utility.yul\":8953:8957   */\n      0x11\n        /* \"#utility.yul\":8950:8951   */\n      0x04\n        /* \"#utility.yul\":8943:8958   */\n      mstore\n        /* \"#utility.yul\":8977:8981   */\n      0x24\n        /* \"#utility.yul\":8974:8975   */\n      0x00\n        /* \"#utility.yul\":8967:8982   */\n      revert\n        /* \"#utility.yul\":8994:9227   */\n    tag_60:\n        /* \"#utility.yul\":9033:9036   */\n      0x00\n        /* \"#utility.yul\":9056:9080   */\n      tag_362\n        /* \"#utility.yul\":9074:9079   */\n      dup3\n        /* \"#utility.yul\":9056:9080   */\n      tag_223\n      jump\t// in\n    tag_362:\n        /* \"#utility.yul\":9047:9080   */\n      swap2\n      pop\n        /* \"#utility.yul\":9102:9168   */\n      0xffffffffffffffffffffffffffffffffffffffffffffffffffffffffffffffff\n        /* \"#utility.yul\":9095:9100   */\n      dup3\n        /* \"#utility.yul\":9092:9169   */\n      sub\n        /* \"#utility.yul\":9089:9192   */\n      tag_363\n      jumpi\n        /* \"#utility.yul\":9172:9190   */\n      tag_364\n      tag_253\n      jump\t// in\n    tag_364:\n        /* \"#utility.yul\":9089:9192   */\n    tag_363:\n        /* \"#utility.yul\":9219:9220   */\n      0x01\n        /* \"#utility.yul\":9212:9217   */\n      dup3\n        /* \"#utility.yul\":9208:9221   */\n      add\n        /* \"#utility.yul\":9201:9221   */\n      swap1\n      pop\n        /* \"#utility.yul\":8994:9227   */\n      swap2\n      swap1\n      pop\n      jump\t// out\n        /* \"#utility.yul\":9233:9427   */\n    tag_65:\n        /* \"#utility.yul\":9273:9277   */\n      0x00\n        /* \"#utility.yul\":9293:9313   */\n      tag_366\n        /* \"#utility.yul\":9311:9312   */\n      dup3\n        /* \"#utility.yul\":9293:9313   */\n      tag_223\n      jump\t// in\n    tag_366:\n        /* \"#utility.yul\":9288:9313   */\n      swap2\n      pop\n        /* \"#utility.yul\":9327:9347   */\n      tag_367\n        /* \"#utility.yul\":9345:9346   */\n      dup4\n        /* \"#utility.yul\":9327:9347   */\n      tag_223\n      jump\t// in\n    tag_367:\n        /* \"#utility.yul\":9322:9347   */\n      swap3\n      pop\n        /* \"#utility.yul\":9371:9372   */\n      dup3\n        /* \"#utility.yul\":9368:9369   */\n      dup3\n        /* \"#utility.yul\":9364:9373   */\n      sub\n        /* \"#utility.yul\":9356:9373   */\n      swap1\n      pop\n        /* \"#utility.yul\":9395:9396   */\n      dup2\n        /* \"#utility.yul\":9389:9393   */\n      dup2\n        /* \"#utility.yul\":9386:9397   */\n      gt\n        /* \"#utility.yul\":9383:9420   */\n      iszero\n      tag_368\n      jumpi\n        /* \"#utility.yul\":9400:9418   */\n      tag_369\n      tag_253\n      jump\t// in\n    tag_369:\n        /* \"#utility.yul\":9383:9420   */\n    tag_368:\n        /* \"#utility.yul\":9233:9427   */\n      swap3\n      swap2\n      pop\n      pop\n      jump\t// out\n        /* \"#utility.yul\":9433:9613   */\n    tag_254:\n        /* \"#utility.yul\":9481:9558   */\n      0x4e487b7100000000000000000000000000000000000000000000000000000000\n        /* \"#utility.yul\":9478:9479   */\n      0x00\n        /* \"#utility.yul\":9471:9559   */\n      mstore\n        /* \"#utility.yul\":9578:9582   */\n      0x22\n        /* \"#utility.yul\":9575:9576   */\n      0x04\n        /* \"#utility.yul\":9568:9583   */\n      mstore\n        /* \"#utility.yul\":9602:9606   */\n      0x24\n        /* \"#utility.yul\":9599:9600   */\n      0x00\n        /* \"#utility.yul\":9592:9607   */\n      revert\n        /* \"#utility.yul\":9619:9939   */\n    tag_85:\n        /* \"#utility.yul\":9663:9669   */\n      0x00\n        /* \"#utility.yul\":9700:9701   */\n      0x02\n        /* \"#utility.yul\":9694:9698   */\n      dup3\n        /* \"#utility.yul\":9690:9702   */\n      div\n        /* \"#utility.yul\":9680:9702   */\n      swap1\n      pop\n        /* \"#utility.yul\":9747:9748   */\n      0x01\n        /* \"#utility.yul\":9741:9745   */\n      dup3\n        /* \"#utility.yul\":9737:9749   */\n      and\n        /* \"#utility.yul\":9768:9786   */\n      dup1\n        /* \"#utility.yul\":9758:9839   */\n      tag_372\n      jumpi\n        /* \"#utility.yul\":9824:9828   */\n      0x7f\n        /* \"#utility.yul\":9816:9822   */\n      dup3\n        /* \"#utility.yul\":9812:9829   */\n      and\n        /* \"#utility.yul\":9802:9829   */\n      swap2\n      pop\n        /* \"#utility.yul\":9758:9839   */\n    tag_372:\n        /* \"#utility.yul\":9886:9888   */\n      0x20\n        /* \"#utility.yul\":9878:9884   */\n      dup3\n        /* \"#utility.yul\":9875:9889   */\n      lt\n        /* \"#utility.yul\":9855:9873   */\n      dup2\n        /* \"#utility.yul\":9852:9890   */\n      sub\n        /* \"#utility.yul\":9849:9933   */\n      tag_373\n      jumpi\n        /* \"#utility.yul\":9905:9923   */\n      tag_374\n      tag_254\n      jump\t// in\n    tag_374:\n        /* \"#utility.yul\":9849:9933   */\n    tag_373:\n        /* \"#utility.yul\":9670:9939   */\n      pop\n        /* \"#utility.yul\":9619:9939   */\n      swap2\n      swap1\n      pop\n      jump\t// out\n        /* \"#utility.yul\":9945:10125   */\n    tag_93:\n        /* \"#utility.yul\":9993:10070   */\n      0x4e487b7100000000000000000000000000000000000000000000000000000000\n        /* \"#utility.yul\":9990:9991   */\n      0x00\n        /* \"#utility.yul\":9983:10071   */\n      mstore\n        /* \"#utility.yul\":10090:10094   */\n      0x21\n        /* \"#utility.yul\":10087:10088   */\n      0x04\n        /* \"#utility.yul\":10080:10095   */\n      mstore\n        /* \"#utility.yul\":10114:10118   */\n      0x24\n        /* \"#utility.yul\":10111:10112   */\n      0x00\n        /* \"#utility.yul\":10104:10119   */\n      revert\n        /* \"#utility.yul\":10131:10296   */\n    tag_255:\n        /* \"#utility.yul\":10271:10288   */\n      0x496e76616c69642063686f696365210000000000000000000000000000000000\n        /* \"#utility.yul\":10267:10268   */\n      0x00\n        /* \"#utility.yul\":10259:10265   */\n      dup3\n        /* \"#utility.yul\":10255:10269   */\n      add\n        /* \"#utility.yul\":10248:10289   */\n      mstore\n        /* \"#utility.yul\":10131:10296   */\n      pop\n      jump\t// out\n        /* \"#utility.yul\":10302:10668   */\n    tag_256:\n        /* \"#utility.yul\":10444:10447   */\n      0x00\n        /* \"#utility.yul\":10465:10532   */\n      tag_378\n        /* \"#utility.yul\":10529:10531   */\n      0x0f\n        /* \"#utility.yul\":10524:10527   */\n      dup4\n        /* \"#utility.yul\":10465:10532   */\n      tag_238\n      jump\t// in\n    tag_378:\n        /* \"#utility.yul\":10458:10532   */\n      swap2\n      pop\n        /* \"#utility.yul\":10541:10634   */\n      tag_379\n        /* \"#utility.yul\":10630:10633   */\n      dup3\n        /* \"#utility.yul\":10541:10634   */\n      tag_255\n      jump\t// in\n    tag_379:\n        /* \"#utility.yul\":10659:10661   */\n      0x20\n        /* \"#utility.yul\":10654:10657   */\n      dup3\n        /* \"#utility.yul\":10650:10662   */\n      add\n        /* \"#utility.yul\":10643:10662   */\n      swap1\n      pop\n        /* \"#utility.yul\":10302:10668   */\n      swap2\n      swap1\n      pop\n      jump\t// out\n        /* \"#utility.yul\":10674:11093   */\n    tag_98:\n        /* \"#utility.yul\":10840:10844   */\n      0x00\n        /* \"#utility.yul\":10878:10880   */\n      0x20\n        /* \"#utility.yul\":10867:10876   */\n      dup3\n        /* \"#utility.yul\":10863:10881   */\n      add\n        /* \"#utility.yul\":10855:10881   */\n      swap1\n      pop\n        /* \"#utility.yul\":10927:10936   */\n      dup2\n        /* \"#utility.yul\":10921:10925   */\n      dup2\n        /* \"#utility.yul\":10917:10937   */\n      sub\n        /* \"#utility.yul\":10913:10914   */\n      0x00\n        /* \"#utility.yul\":10902:10911   */\n      dup4\n        /* \"#utility.yul\":10898:10915   */\n      add\n        /* \"#utility.yul\":10891:10938   */\n      mstore\n        /* \"#utility.yul\":10955:11086   */\n      tag_381\n        /* \"#utility.yul\":11081:11085   */\n      dup2\n        /* \"#utility.yul\":10955:11086   */\n      tag_256\n      jump\t// in\n    tag_381:\n        /* \"#utility.yul\":10947:11086   */\n      swap1\n      pop\n        /* \"#utility.yul\":10674:11093   */\n      swap2\n      swap1\n      pop\n      jump\t// out\n        /* \"#utility.yul\":11099:11270   */\n    tag_257:\n        /* \"#utility.yul\":11239:11262   */\n      0x417761697420616e6f7468657220706c617965722e0000000000000000000000\n        /* \"#utility.yul\":11235:11236   */\n      0x00\n        /* \"#utility.yul\":11227:11233   */\n      dup3\n        /* \"#utility.yul\":11223:11237   */\n      add\n        /* \"#utility.yul\":11216:11263   */\n      mstore\n        /* \"#utility.yul\":11099:11270   */\n      pop\n      jump\t// out\n        /* \"#utility.yul\":11276:11642   */\n    tag_258:\n        /* \"#utility.yul\":11418:11421   */\n      0x00\n        /* \"#utility.yul\":11439:11506   */\n      tag_384\n        /* \"#utility.yul\":11503:11505   */\n      0x15\n        /* \"#utility.yul\":11498:11501   */\n      dup4\n        /* \"#utility.yul\":11439:11506   */\n      tag_238\n      jump\t// in\n    tag_384:\n        /* \"#utility.yul\":11432:11506   */\n      swap2\n      pop\n        /* \"#utility.yul\":11515:11608   */\n      tag_385\n        /* \"#utility.yul\":11604:11607   */\n      dup3\n        /* \"#utility.yul\":11515:11608   */\n      tag_257\n      jump\t// in\n    tag_385:\n        /* \"#utility.yul\":11633:11635   */\n      0x20\n        /* \"#utility.yul\":11628:11631   */\n      dup3\n        /* \"#utility.yul\":11624:11636   */\n      add\n        /* \"#utility.yul\":11617:11636   */\n      swap1\n      pop\n        /* \"#utility.yul\":11276:11642   */\n      swap2\n      swap1\n      pop\n      jump\t// out\n        /* \"#utility.yul\":11648:12067   */\n    tag_101:\n        /* \"#utility.yul\":11814:11818   */\n      0x00\n        /* \"#utility.yul\":11852:11854   */\n      0x20\n        /* \"#utility.yul\":11841:11850   */\n      dup3\n        /* \"#utility.yul\":11837:11855   */\n      add\n        /* \"#utility.yul\":11829:11855   */\n      swap1\n      pop\n        /* \"#utility.yul\":11901:11910   */\n      dup2\n        /* \"#utility.yul\":11895:11899   */\n      dup2\n        /* \"#utility.yul\":11891:11911   */\n      sub\n        /* \"#utility.yul\":11887:11888   */\n      0x00\n        /* \"#utility.yul\":11876:11885   */\n      dup4\n        /* \"#utility.yul\":11872:11889   */\n      add\n        /* \"#utility.yul\":11865:11912   */\n      mstore\n        /* \"#utility.yul\":11929:12060   */\n      tag_387\n        /* \"#utility.yul\":12055:12059   */\n      dup2\n        /* \"#utility.yul\":11929:12060   */\n      tag_258\n      jump\t// in\n    tag_387:\n        /* \"#utility.yul\":11921:12060   */\n      swap1\n      pop\n        /* \"#utility.yul\":11648:12067   */\n      swap2\n      swap1\n      pop\n      jump\t// out\n        /* \"#utility.yul\":12073:12235   */\n    tag_259:\n        /* \"#utility.yul\":12213:12227   */\n      0x496e76616c6964206269642e0000000000000000000000000000000000000000\n        /* \"#utility.yul\":12209:12210   */\n      0x00\n        /* \"#utility.yul\":12201:12207   */\n      dup3\n        /* \"#utility.yul\":12197:12211   */\n      add\n        /* \"#utility.yul\":12190:12228   */\n      mstore\n        /* \"#utility.yul\":12073:12235   */\n      pop\n      jump\t// out\n        /* \"#utility.yul\":12241:12607   */\n    tag_260:\n        /* \"#utility.yul\":12383:12386   */\n      0x00\n        /* \"#utility.yul\":12404:12471   */\n      tag_390\n        /* \"#utility.yul\":12468:12470   */\n      0x0c\n        /* \"#utility.yul\":12463:12466   */\n      dup4\n        /* \"#utility.yul\":12404:12471   */\n      tag_238\n      jump\t// in\n    tag_390:\n        /* \"#utility.yul\":12397:12471   */\n      swap2\n      pop\n        /* \"#utility.yul\":12480:12573   */\n      tag_391\n        /* \"#utility.yul\":12569:12572   */\n      dup3\n        /* \"#utility.yul\":12480:12573   */\n      tag_259\n      jump\t// in\n    tag_391:\n        /* \"#utility.yul\":12598:12600   */\n      0x20\n        /* \"#utility.yul\":12593:12596   */\n      dup3\n        /* \"#utility.yul\":12589:12601   */\n      add\n        /* \"#utility.yul\":12582:12601   */\n      swap1\n      pop\n        /* \"#utility.yul\":12241:12607   */\n      swap2\n      swap1\n      pop\n      jump\t// out\n        /* \"#utility.yul\":12613:13032   */\n    tag_104:\n        /* \"#utility.yul\":12779:12783   */\n      0x00\n        /* \"#utility.yul\":12817:12819   */\n      0x20\n        /* \"#utility.yul\":12806:12815   */\n      dup3\n        /* \"#utility.yul\":12802:12820   */\n      add\n        /* \"#utility.yul\":12794:12820   */\n      swap1\n      pop\n        /* \"#utility.yul\":12866:12875   */\n      dup2\n        /* \"#utility.yul\":12860:12864   */\n      dup2\n        /* \"#utility.yul\":12856:12876   */\n      sub\n        /* \"#utility.yul\":12852:12853   */\n      0x00\n        /* \"#utility.yul\":12841:12850   */\n      dup4\n        /* \"#utility.yul\":12837:12854   */\n      add\n        /* \"#utility.yul\":12830:12877   */\n      mstore\n        /* \"#utility.yul\":12894:13025   */\n      tag_393\n        /* \"#utility.yul\":13020:13024   */\n      dup2\n        /* \"#utility.yul\":12894:13025   */\n      tag_260\n      jump\t// in\n    tag_393:\n        /* \"#utility.yul\":12886:13025   */\n      swap1\n      pop\n        /* \"#utility.yul\":12613:13032   */\n      swap2\n      swap1\n      pop\n      jump\t// out\n        /* \"#utility.yul\":13038:13179   */\n    tag_261:\n        /* \"#utility.yul\":13087:13091   */\n      0x00\n        /* \"#utility.yul\":13110:13113   */\n      dup2\n        /* \"#utility.yul\":13102:13113   */\n      swap1\n      pop\n        /* \"#utility.yul\":13133:13136   */\n      dup2\n        /* \"#utility.yul\":13130:13131   */\n      0x00\n        /* \"#utility.yul\":13123:13137   */\n      mstore\n        /* \"#utility.yul\":13167:13171   */\n      0x20\n        /* \"#utility.yul\":13164:13165   */\n      0x00\n        /* \"#utility.yul\":13154:13172   */\n      keccak256\n        /* \"#utility.yul\":13146:13172   */\n      swap1\n      pop\n        /* \"#utility.yul\":13038:13179   */\n      swap2\n      swap1\n      pop\n      jump\t// out\n        /* \"#utility.yul\":13185:13278   */\n    tag_262:\n        /* \"#utility.yul\":13222:13228   */\n      0x00\n        /* \"#utility.yul\":13269:13271   */\n      0x20\n        /* \"#utility.yul\":13264:13266   */\n      0x1f\n        /* \"#utility.yul\":13257:13262   */\n      dup4\n        /* \"#utility.yul\":13253:13267   */\n      add\n        /* \"#utility.yul\":13249:13272   */\n      div\n        /* \"#utility.yul\":13239:13272   */\n      swap1\n      pop\n        /* \"#utility.yul\":13185:13278   */\n      swap2\n      swap1\n      pop\n      jump\t// out\n        /* \"#utility.yul\":13284:13391   */\n    tag_263:\n        /* \"#utility.yul\":13328:13336   */\n      0x00\n        /* \"#utility.yul\":13378:13383   */\n      dup3\n        /* \"#utility.yul\":13372:13376   */\n      dup3\n        /* \"#utility.yul\":13368:13384   */\n      shl\n        /* \"#utility.yul\":13347:13384   */\n      swap1\n      pop\n        /* \"#utility.yul\":13284:13391   */\n      swap3\n      swap2\n      pop\n      pop\n      jump\t// out\n        /* \"#utility.yul\":13397:13790   */\n    tag_264:\n        /* \"#utility.yul\":13466:13472   */\n      0x00\n        /* \"#utility.yul\":13516:13517   */\n      0x08\n        /* \"#utility.yul\":13504:13514   */\n      dup4\n        /* \"#utility.yul\":13500:13518   */\n      mul\n        /* \"#utility.yul\":13539:13636   */\n      tag_398\n        /* \"#utility.yul\":13569:13635   */\n      0xffffffffffffffffffffffffffffffffffffffffffffffffffffffffffffffff\n        /* \"#utility.yul\":13558:13567   */\n      dup3\n        /* \"#utility.yul\":13539:13636   */\n      tag_263\n      jump\t// in\n    tag_398:\n        /* \"#utility.yul\":13657:13696   */\n      tag_399\n        /* \"#utility.yul\":13687:13695   */\n      dup7\n        /* \"#utility.yul\":13676:13685   */\n      dup4\n        /* \"#utility.yul\":13657:13696   */\n      tag_263\n      jump\t// in\n    tag_399:\n        /* \"#utility.yul\":13645:13696   */\n      swap6\n      pop\n        /* \"#utility.yul\":13729:13733   */\n      dup1\n        /* \"#utility.yul\":13725:13734   */\n      not\n        /* \"#utility.yul\":13718:13723   */\n      dup5\n        /* \"#utility.yul\":13714:13735   */\n      and\n        /* \"#utility.yul\":13705:13735   */\n      swap4\n      pop\n        /* \"#utility.yul\":13778:13782   */\n      dup1\n        /* \"#utility.yul\":13768:13776   */\n      dup7\n        /* \"#utility.yul\":13764:13783   */\n      and\n        /* \"#utility.yul\":13757:13762   */\n      dup5\n        /* \"#utility.yul\":13754:13784   */\n      or\n        /* \"#utility.yul\":13744:13784   */\n      swap3\n      pop\n        /* \"#utility.yul\":13473:13790   */\n      pop\n      pop\n        /* \"#utility.yul\":13397:13790   */\n      swap4\n      swap3\n      pop\n      pop\n      pop\n      jump\t// out\n        /* \"#utility.yul\":13796:13856   */\n    tag_265:\n        /* \"#utility.yul\":13824:13827   */\n      0x00\n        /* \"#utility.yul\":13845:13850   */\n      dup2\n        /* \"#utility.yul\":13838:13850   */\n      swap1\n      pop\n        /* \"#utility.yul\":13796:13856   */\n      swap2\n      swap1\n      pop\n      jump\t// out\n        /* \"#utility.yul\":13862:14004   */\n    tag_266:\n        /* \"#utility.yul\":13912:13921   */\n      0x00\n        /* \"#utility.yul\":13945:13998   */\n      tag_402\n        /* \"#utility.yul\":13963:13997   */\n      tag_403\n        /* \"#utility.yul\":13972:13996   */\n      tag_404\n        /* \"#utility.yul\":13990:13995   */\n      dup5\n        /* \"#utility.yul\":13972:13996   */\n      tag_223\n      jump\t// in\n    tag_404:\n        /* \"#utility.yul\":13963:13997   */\n      tag_265\n      jump\t// in\n    tag_403:\n        /* \"#utility.yul\":13945:13998   */\n      tag_223\n      jump\t// in\n    tag_402:\n        /* \"#utility.yul\":13932:13998   */\n      swap1\n      pop\n        /* \"#utility.yul\":13862:14004   */\n      swap2\n      swap1\n      pop\n      jump\t// out\n        /* \"#utility.yul\":14010:14085   */\n    tag_267:\n        /* \"#utility.yul\":14053:14056   */\n      0x00\n        /* \"#utility.yul\":14074:14079   */\n      dup2\n        /* \"#utility.yul\":14067:14079   */\n      swap1\n      pop\n        /* \"#utility.yul\":14010:14085   */\n      swap2\n      swap1\n      pop\n      jump\t// out\n        /* \"#utility.yul\":14091:14360   */\n    tag_268:\n        /* \"#utility.yul\":14201:14240   */\n      tag_407\n        /* \"#utility.yul\":14232:14239   */\n      dup4\n        /* \"#utility.yul\":14201:14240   */\n      tag_266\n      jump\t// in\n    tag_407:\n        /* \"#utility.yul\":14262:14353   */\n      tag_408\n        /* \"#utility.yul\":14311:14352   */\n      tag_409\n        /* \"#utility.yul\":14335:14351   */\n      dup3\n        /* \"#utility.yul\":14311:14352   */\n      tag_267\n      jump\t// in\n    tag_409:\n        /* \"#utility.yul\":14303:14309   */\n      dup5\n        /* \"#utility.yul\":14296:14300   */\n      dup5\n        /* \"#utility.yul\":14290:14301   */\n      sload\n        /* \"#utility.yul\":14262:14353   */\n      tag_264\n      jump\t// in\n    tag_408:\n        /* \"#utility.yul\":14256:14260   */\n      dup3\n        /* \"#utility.yul\":14249:14354   */\n      sstore\n        /* \"#utility.yul\":14167:14360   */\n      pop\n        /* \"#utility.yul\":14091:14360   */\n      pop\n      pop\n      pop\n      jump\t// out\n        /* \"#utility.yul\":14366:14439   */\n    tag_269:\n        /* \"#utility.yul\":14411:14414   */\n      0x00\n        /* \"#utility.yul\":14366:14439   */\n      swap1\n      jump\t// out\n        /* \"#utility.yul\":14445:14634   */\n    tag_270:\n        /* \"#utility.yul\":14522:14554   */\n      tag_412\n      tag_269\n      jump\t// in\n    tag_412:\n        /* \"#utility.yul\":14563:14628   */\n      tag_413\n        /* \"#utility.yul\":14621:14627   */\n      dup2\n        /* \"#utility.yul\":14613:14619   */\n      dup5\n        /* \"#utility.yul\":14607:14611   */\n      dup5\n        /* \"#utility.yul\":14563:14628   */\n      tag_268\n      jump\t// in\n    tag_413:\n        /* \"#utility.yul\":14498:14634   */\n      pop\n        /* \"#utility.yul\":14445:14634   */\n      pop\n      pop\n      jump\t// out\n        /* \"#utility.yul\":14640:14826   */\n    tag_271:\n        /* \"#utility.yul\":14700:14820   */\n    tag_415:\n        /* \"#utility.yul\":14717:14720   */\n      dup2\n        /* \"#utility.yul\":14710:14715   */\n      dup2\n        /* \"#utility.yul\":14707:14721   */\n      lt\n        /* \"#utility.yul\":14700:14820   */\n      iszero\n      tag_417\n      jumpi\n        /* \"#utility.yul\":14771:14810   */\n      tag_418\n        /* \"#utility.yul\":14808:14809   */\n      0x00\n        /* \"#utility.yul\":14801:14806   */\n      dup3\n        /* \"#utility.yul\":14771:14810   */\n      tag_270\n      jump\t// in\n    tag_418:\n        /* \"#utility.yul\":14744:14745   */\n      0x01\n        /* \"#utility.yul\":14737:14742   */\n      dup2\n        /* \"#utility.yul\":14733:14746   */\n      add\n        /* \"#utility.yul\":14724:14746   */\n      swap1\n      pop\n        /* \"#utility.yul\":14700:14820   */\n      jump(tag_415)\n    tag_417:\n        /* \"#utility.yul\":14640:14826   */\n      pop\n      pop\n      jump\t// out\n        /* \"#utility.yul\":14832:15375   */\n    tag_272:\n        /* \"#utility.yul\":14933:14935   */\n      0x1f\n        /* \"#utility.yul\":14928:14931   */\n      dup3\n        /* \"#utility.yul\":14925:14936   */\n      gt\n        /* \"#utility.yul\":14922:15368   */\n      iszero\n      tag_420\n      jumpi\n        /* \"#utility.yul\":14967:15005   */\n      tag_421\n        /* \"#utility.yul\":14999:15004   */\n      dup2\n        /* \"#utility.yul\":14967:15005   */\n      tag_261\n      jump\t// in\n    tag_421:\n        /* \"#utility.yul\":15051:15080   */\n      tag_422\n        /* \"#utility.yul\":15069:15079   */\n      dup5\n        /* \"#utility.yul\":15051:15080   */\n      tag_262\n      jump\t// in\n    tag_422:\n        /* \"#utility.yul\":15041:15049   */\n      dup2\n        /* \"#utility.yul\":15037:15081   */\n      add\n        /* \"#utility.yul\":15234:15236   */\n      0x20\n        /* \"#utility.yul\":15222:15232   */\n      dup6\n        /* \"#utility.yul\":15219:15237   */\n      lt\n        /* \"#utility.yul\":15216:15265   */\n      iszero\n      tag_423\n      jumpi\n        /* \"#utility.yul\":15255:15263   */\n      dup2\n        /* \"#utility.yul\":15240:15263   */\n      swap1\n      pop\n        /* \"#utility.yul\":15216:15265   */\n    tag_423:\n        /* \"#utility.yul\":15278:15358   */\n      tag_424\n        /* \"#utility.yul\":15334:15356   */\n      tag_425\n        /* \"#utility.yul\":15352:15355   */\n      dup6\n        /* \"#utility.yul\":15334:15356   */\n      tag_262\n      jump\t// in\n    tag_425:\n        /* \"#utility.yul\":15324:15332   */\n      dup4\n        /* \"#utility.yul\":15320:15357   */\n      add\n        /* \"#utility.yul\":15307:15318   */\n      dup3\n        /* \"#utility.yul\":15278:15358   */\n      tag_271\n      jump\t// in\n    tag_424:\n        /* \"#utility.yul\":14937:15368   */\n      pop\n      pop\n        /* \"#utility.yul\":14922:15368   */\n    tag_420:\n        /* \"#utility.yul\":14832:15375   */\n      pop\n      pop\n      pop\n      jump\t// out\n        /* \"#utility.yul\":15381:15498   */\n    tag_273:\n        /* \"#utility.yul\":15435:15443   */\n      0x00\n        /* \"#utility.yul\":15485:15490   */\n      dup3\n        /* \"#utility.yul\":15479:15483   */\n      dup3\n        /* \"#utility.yul\":15475:15491   */\n      shr\n        /* \"#utility.yul\":15454:15491   */\n      swap1\n      pop\n        /* \"#utility.yul\":15381:15498   */\n      swap3\n      swap2\n      pop\n      pop\n      jump\t// out\n        /* \"#utility.yul\":15504:15673   */\n    tag_274:\n        /* \"#utility.yul\":15548:15554   */\n      0x00\n        /* \"#utility.yul\":15581:15632   */\n      tag_428\n        /* \"#utility.yul\":15629:15630   */\n      0x00\n        /* \"#utility.yul\":15625:15631   */\n      not\n        /* \"#utility.yul\":15617:15622   */\n      dup5\n        /* \"#utility.yul\":15614:15615   */\n      0x08\n        /* \"#utility.yul\":15610:15623   */\n      mul\n        /* \"#utility.yul\":15581:15632   */\n      tag_273\n      jump\t// in\n    tag_428:\n        /* \"#utility.yul\":15577:15633   */\n      not\n        /* \"#utility.yul\":15662:15666   */\n      dup1\n        /* \"#utility.yul\":15656:15660   */\n      dup4\n        /* \"#utility.yul\":15652:15667   */\n      and\n        /* \"#utility.yul\":15642:15667   */\n      swap2\n      pop\n        /* \"#utility.yul\":15555:15673   */\n      pop\n        /* \"#utility.yul\":15504:15673   */\n      swap3\n      swap2\n      pop\n      pop\n      jump\t// out\n        /* \"#utility.yul\":15678:15973   */\n    tag_275:\n        /* \"#utility.yul\":15754:15758   */\n      0x00\n        /* \"#utility.yul\":15900:15929   */\n      tag_430\n        /* \"#utility.yul\":15925:15928   */\n      dup4\n        /* \"#utility.yul\":15919:15923   */\n      dup4\n        /* \"#utility.yul\":15900:15929   */\n      tag_274\n      jump\t// in\n    tag_430:\n        /* \"#utility.yul\":15892:15929   */\n      swap2\n      pop\n        /* \"#utility.yul\":15962:15965   */\n      dup3\n        /* \"#utility.yul\":15959:15960   */\n      0x02\n        /* \"#utility.yul\":15955:15966   */\n      mul\n        /* \"#utility.yul\":15949:15953   */\n      dup3\n        /* \"#utility.yul\":15946:15967   */\n      or\n        /* \"#utility.yul\":15938:15967   */\n      swap1\n      pop\n        /* \"#utility.yul\":15678:15973   */\n      swap3\n      swap2\n      pop\n      pop\n      jump\t// out\n        /* \"#utility.yul\":15978:17373   */\n    tag_113:\n        /* \"#utility.yul\":16095:16132   */\n      tag_432\n        /* \"#utility.yul\":16128:16131   */\n      dup3\n        /* \"#utility.yul\":16095:16132   */\n      tag_237\n      jump\t// in\n    tag_432:\n        /* \"#utility.yul\":16197:16215   */\n      0xffffffffffffffff\n        /* \"#utility.yul\":16189:16195   */\n      dup2\n        /* \"#utility.yul\":16186:16216   */\n      gt\n        /* \"#utility.yul\":16183:16239   */\n      iszero\n      tag_433\n      jumpi\n        /* \"#utility.yul\":16219:16237   */\n      tag_434\n      tag_45\n      jump\t// in\n    tag_434:\n        /* \"#utility.yul\":16183:16239   */\n    tag_433:\n        /* \"#utility.yul\":16263:16301   */\n      tag_435\n        /* \"#utility.yul\":16295:16299   */\n      dup3\n        /* \"#utility.yul\":16289:16300   */\n      sload\n        /* \"#utility.yul\":16263:16301   */\n      tag_85\n      jump\t// in\n    tag_435:\n        /* \"#utility.yul\":16348:16415   */\n      tag_436\n        /* \"#utility.yul\":16408:16414   */\n      dup3\n        /* \"#utility.yul\":16400:16406   */\n      dup3\n        /* \"#utility.yul\":16394:16398   */\n      dup6\n        /* \"#utility.yul\":16348:16415   */\n      tag_272\n      jump\t// in\n    tag_436:\n        /* \"#utility.yul\":16442:16443   */\n      0x00\n        /* \"#utility.yul\":16466:16470   */\n      0x20\n        /* \"#utility.yul\":16453:16470   */\n      swap1\n      pop\n        /* \"#utility.yul\":16498:16500   */\n      0x1f\n        /* \"#utility.yul\":16490:16496   */\n      dup4\n        /* \"#utility.yul\":16487:16501   */\n      gt\n        /* \"#utility.yul\":16515:16516   */\n      0x01\n        /* \"#utility.yul\":16510:17128   */\n      dup2\n      eq\n      tag_438\n      jumpi\n        /* \"#utility.yul\":17172:17173   */\n      0x00\n        /* \"#utility.yul\":17189:17195   */\n      dup5\n        /* \"#utility.yul\":17186:17263   */\n      iszero\n      tag_439\n      jumpi\n        /* \"#utility.yul\":17238:17247   */\n      dup3\n        /* \"#utility.yul\":17233:17236   */\n      dup8\n        /* \"#utility.yul\":17229:17248   */\n      add\n        /* \"#utility.yul\":17223:17249   */\n      mload\n        /* \"#utility.yul\":17214:17249   */\n      swap1\n      pop\n        /* \"#utility.yul\":17186:17263   */\n    tag_439:\n        /* \"#utility.yul\":17289:17356   */\n      tag_440\n        /* \"#utility.yul\":17349:17355   */\n      dup6\n        /* \"#utility.yul\":17342:17347   */\n      dup3\n        /* \"#utility.yul\":17289:17356   */\n      tag_275\n      jump\t// in\n    tag_440:\n        /* \"#utility.yul\":17283:17287   */\n      dup7\n        /* \"#utility.yul\":17276:17357   */\n      sstore\n        /* \"#utility.yul\":17145:17367   */\n      pop\n        /* \"#utility.yul\":16480:17367   */\n      jump(tag_437)\n        /* \"#utility.yul\":16510:17128   */\n    tag_438:\n        /* \"#utility.yul\":16562:16566   */\n      0x1f\n        /* \"#utility.yul\":16558:16567   */\n      not\n        /* \"#utility.yul\":16550:16556   */\n      dup5\n        /* \"#utility.yul\":16546:16568   */\n      and\n        /* \"#utility.yul\":16596:16633   */\n      tag_441\n        /* \"#utility.yul\":16628:16632   */\n      dup7\n        /* \"#utility.yul\":16596:16633   */\n      tag_261\n      jump\t// in\n    tag_441:\n        /* \"#utility.yul\":16655:16656   */\n      0x00\n        /* \"#utility.yul\":16669:16877   */\n    tag_442:\n        /* \"#utility.yul\":16683:16690   */\n      dup3\n        /* \"#utility.yul\":16680:16681   */\n      dup2\n        /* \"#utility.yul\":16677:16691   */\n      lt\n        /* \"#utility.yul\":16669:16877   */\n      iszero\n      tag_444\n      jumpi\n        /* \"#utility.yul\":16762:16771   */\n      dup5\n        /* \"#utility.yul\":16757:16760   */\n      dup10\n        /* \"#utility.yul\":16753:16772   */\n      add\n        /* \"#utility.yul\":16747:16773   */\n      mload\n        /* \"#utility.yul\":16739:16745   */\n      dup3\n        /* \"#utility.yul\":16732:16774   */\n      sstore\n        /* \"#utility.yul\":16813:16814   */\n      0x01\n        /* \"#utility.yul\":16805:16811   */\n      dup3\n        /* \"#utility.yul\":16801:16815   */\n      add\n        /* \"#utility.yul\":16791:16815   */\n      swap2\n      pop\n        /* \"#utility.yul\":16860:16862   */\n      0x20\n        /* \"#utility.yul\":16849:16858   */\n      dup6\n        /* \"#utility.yul\":16845:16863   */\n      add\n        /* \"#utility.yul\":16832:16863   */\n      swap5\n      pop\n        /* \"#utility.yul\":16706:16710   */\n      0x20\n        /* \"#utility.yul\":16703:16704   */\n      dup2\n        /* \"#utility.yul\":16699:16711   */\n      add\n        /* \"#utility.yul\":16694:16711   */\n      swap1\n      pop\n        /* \"#utility.yul\":16669:16877   */\n      jump(tag_442)\n    tag_444:\n        /* \"#utility.yul\":16905:16911   */\n      dup7\n        /* \"#utility.yul\":16896:16903   */\n      dup4\n        /* \"#utility.yul\":16893:16912   */\n      lt\n        /* \"#utility.yul\":16890:17069   */\n      iszero\n      tag_445\n      jumpi\n        /* \"#utility.yul\":16963:16972   */\n      dup5\n        /* \"#utility.yul\":16958:16961   */\n      dup10\n        /* \"#utility.yul\":16954:16973   */\n      add\n        /* \"#utility.yul\":16948:16974   */\n      mload\n        /* \"#utility.yul\":17006:17054   */\n      tag_446\n        /* \"#utility.yul\":17048:17052   */\n      0x1f\n        /* \"#utility.yul\":17040:17046   */\n      dup10\n        /* \"#utility.yul\":17036:17053   */\n      and\n        /* \"#utility.yul\":17025:17034   */\n      dup3\n        /* \"#utility.yul\":17006:17054   */\n      tag_274\n      jump\t// in\n    tag_446:\n        /* \"#utility.yul\":16998:17004   */\n      dup4\n        /* \"#utility.yul\":16991:17055   */\n      sstore\n        /* \"#utility.yul\":16913:17069   */\n      pop\n        /* \"#utility.yul\":16890:17069   */\n    tag_445:\n        /* \"#utility.yul\":17115:17116   */\n      0x01\n        /* \"#utility.yul\":17111:17112   */\n      0x02\n        /* \"#utility.yul\":17103:17109   */\n      dup9\n        /* \"#utility.yul\":17099:17113   */\n      mul\n        /* \"#utility.yul\":17095:17117   */\n      add\n        /* \"#utility.yul\":17089:17093   */\n      dup9\n        /* \"#utility.yul\":17082:17118   */\n      sstore\n        /* \"#utility.yul\":16517:17128   */\n      pop\n      pop\n      pop\n        /* \"#utility.yul\":16480:17367   */\n    tag_437:\n      pop\n        /* \"#utility.yul\":16070:17373   */\n      pop\n      pop\n      pop\n        /* \"#utility.yul\":15978:17373   */\n      pop\n      pop\n      jump\t// out\n        /* \"#utility.yul\":17379:17559   */\n    tag_276:\n        /* \"#utility.yul\":17427:17504   */\n      0x4e487b7100000000000000000000000000000000000000000000000000000000\n        /* \"#utility.yul\":17424:17425   */\n      0x00\n        /* \"#utility.yul\":17417:17505   */\n      mstore\n        /* \"#utility.yul\":17524:17528   */\n      0x12\n        /* \"#utility.yul\":17521:17522   */\n      0x04\n        /* \"#utility.yul\":17514:17529   */\n      mstore\n        /* \"#utility.yul\":17548:17552   */\n      0x24\n        /* \"#utility.yul\":17545:17546   */\n      0x00\n        /* \"#utility.yul\":17538:17553   */\n      revert\n        /* \"#utility.yul\":17565:17750   */\n    tag_194:\n        /* \"#utility.yul\":17605:17606   */\n      0x00\n        /* \"#utility.yul\":17622:17642   */\n      tag_449\n        /* \"#utility.yul\":17640:17641   */\n      dup3\n        /* \"#utility.yul\":17622:17642   */\n      tag_223\n      jump\t// in\n    tag_449:\n        /* \"#utility.yul\":17617:17642   */\n      swap2\n      pop\n        /* \"#utility.yul\":17656:17676   */\n      tag_450\n        /* \"#utility.yul\":17674:17675   */\n      dup4\n        /* \"#utility.yul\":17656:17676   */\n      tag_223\n      jump\t// in\n    tag_450:\n        /* \"#utility.yul\":17651:17676   */\n      swap3\n      pop\n        /* \"#utility.yul\":17695:17696   */\n      dup3\n        /* \"#utility.yul\":17685:17720   */\n      tag_451\n      jumpi\n        /* \"#utility.yul\":17700:17718   */\n      tag_452\n      tag_276\n      jump\t// in\n    tag_452:\n        /* \"#utility.yul\":17685:17720   */\n    tag_451:\n        /* \"#utility.yul\":17742:17743   */\n      dup3\n        /* \"#utility.yul\":17739:17740   */\n      dup3\n        /* \"#utility.yul\":17735:17744   */\n      div\n        /* \"#utility.yul\":17730:17744   */\n      swap1\n      pop\n        /* \"#utility.yul\":17565:17750   */\n      swap3\n      swap2\n      pop\n      pop\n      jump\t// out\n        /* \"#utility.yul\":17756:18166   */\n    tag_196:\n        /* \"#utility.yul\":17796:17803   */\n      0x00\n        /* \"#utility.yul\":17819:17839   */\n      tag_454\n        /* \"#utility.yul\":17837:17838   */\n      dup3\n        /* \"#utility.yul\":17819:17839   */\n      tag_223\n      jump\t// in\n    tag_454:\n        /* \"#utility.yul\":17814:17839   */\n      swap2\n      pop\n        /* \"#utility.yul\":17853:17873   */\n      tag_455\n        /* \"#utility.yul\":17871:17872   */\n      dup4\n        /* \"#utility.yul\":17853:17873   */\n      tag_223\n      jump\t// in\n    tag_455:\n        /* \"#utility.yul\":17848:17873   */\n      swap3\n      pop\n        /* \"#utility.yul\":17908:17909   */\n      dup3\n        /* \"#utility.yul\":17905:17906   */\n      dup3\n        /* \"#utility.yul\":17901:17910   */\n      mul\n        /* \"#utility.yul\":17930:17960   */\n      tag_456\n        /* \"#utility.yul\":17948:17959   */\n      dup2\n        /* \"#utility.yul\":17930:17960   */\n      tag_223\n      jump\t// in\n    tag_456:\n        /* \"#utility.yul\":17919:17960   */\n      swap2\n      pop\n        /* \"#utility.yul\":18109:18110   */\n      dup3\n        /* \"#utility.yul\":18100:18107   */\n      dup3\n        /* \"#utility.yul\":18096:18111   */\n      div\n        /* \"#utility.yul\":18093:18094   */\n      dup5\n        /* \"#utility.yul\":18090:18112   */\n      eq\n        /* \"#utility.yul\":18070:18071   */\n      dup4\n        /* \"#utility.yul\":18063:18072   */\n      iszero\n        /* \"#utility.yul\":18043:18126   */\n      or\n        /* \"#utility.yul\":18020:18159   */\n      tag_457\n      jumpi\n        /* \"#utility.yul\":18139:18157   */\n      tag_458\n      tag_253\n      jump\t// in\n    tag_458:\n        /* \"#utility.yul\":18020:18159   */\n    tag_457:\n        /* \"#utility.yul\":17804:18166   */\n      pop\n        /* \"#utility.yul\":17756:18166   */\n      swap3\n      swap2\n      pop\n      pop\n      jump\t// out\n        /* \"#utility.yul\":18172:18347   */\n    tag_220:\n        /* \"#utility.yul\":18210:18213   */\n      0x00\n        /* \"#utility.yul\":18233:18256   */\n      tag_460\n        /* \"#utility.yul\":18250:18255   */\n      dup3\n        /* \"#utility.yul\":18233:18256   */\n      tag_231\n      jump\t// in\n    tag_460:\n        /* \"#utility.yul\":18224:18256   */\n      swap2\n      pop\n        /* \"#utility.yul\":18278:18288   */\n      0xffffffff\n        /* \"#utility.yul\":18271:18276   */\n      dup3\n        /* \"#utility.yul\":18268:18289   */\n      sub\n        /* \"#utility.yul\":18265:18312   */\n      tag_461\n      jumpi\n        /* \"#utility.yul\":18292:18310   */\n      tag_462\n      tag_253\n      jump\t// in\n    tag_462:\n        /* \"#utility.yul\":18265:18312   */\n    tag_461:\n        /* \"#utility.yul\":18339:18340   */\n      0x01\n        /* \"#utility.yul\":18332:18337   */\n      dup3\n        /* \"#utility.yul\":18328:18341   */\n      add\n        /* \"#utility.yul\":18321:18341   */\n      swap1\n      pop\n        /* \"#utility.yul\":18172:18347   */\n      swap2\n      swap1\n      pop\n      jump\t// out\n    stop\n    data_578a9428a54c800af9c02139d74432994ad47bb29704d23f809566a331855d2f 526f636b20627265616b732053636973736f72732e20506c61796572203220574f4e21\n    data_891c3d6e5adde30875c07acfcca8d06d5be6cf84c2f0053d1a896b105617b25d 506c6179657220312063686f736520686973206f7074696f6e2e2057616974696e6720666f7220706c6179657220322e\n    data_9056477a8043385bd4eedf29b3b65eaa4f879760f1d1dac4e0b1e2f1c5a5e34c 526f636b20627265616b732053636973736f72732e20506c61796572203120574f4e21\n    data_91015f70aacd548b1cf82057021b45f79e16ba2ae54c369de1244ab075c90b63 53636973736f727320637574732050617065722e20506c61796572203120574f4e21\n    data_933bdbc870e421c751aaa16e694cd13fd9fe7932556621cc4aca333dcc976580 53636973736f727320637574732050617065722e20506c61796572203220574f4e21\n\n    auxdata: 0xa2646970667358221220539751192578d50a37b15d2600e0fd904f56f039e41f5b24b7f3125abc621b6d64736f6c63430008120033\n}\n",
				"bytecode": {
					"linkReferences": {},
					"object": "60a060405260008060006101000a81548160ff021916908360038111156200002c576200002b620000db565b5b021790555033600060016101000a81548173ffffffffffffffffffffffffffffffffffffffff021916908373ffffffffffffffffffffffffffffffffffffffff160217905550604051806020016040528060008152506001908162000092919062000384565b50348015620000a057600080fd5b503373ffffffffffffffffffffffffffffffffffffffff1660808173ffffffffffffffffffffffffffffffffffffffff16815250506200046b565b7f4e487b7100000000000000000000000000000000000000000000000000000000600052602160045260246000fd5b600081519050919050565b7f4e487b7100000000000000000000000000000000000000000000000000000000600052604160045260246000fd5b7f4e487b7100000000000000000000000000000000000000000000000000000000600052602260045260246000fd5b600060028204905060018216806200018c57607f821691505b602082108103620001a257620001a162000144565b5b50919050565b60008190508160005260206000209050919050565b60006020601f8301049050919050565b600082821b905092915050565b6000600883026200020c7fffffffffffffffffffffffffffffffffffffffffffffffffffffffffffffffff82620001cd565b620002188683620001cd565b95508019841693508086168417925050509392505050565b6000819050919050565b6000819050919050565b6000620002656200025f620002598462000230565b6200023a565b62000230565b9050919050565b6000819050919050565b620002818362000244565b6200029962000290826200026c565b848454620001da565b825550505050565b600090565b620002b0620002a1565b620002bd81848462000276565b505050565b5b81811015620002e557620002d9600082620002a6565b600181019050620002c3565b5050565b601f8211156200033457620002fe81620001a8565b6200030984620001bd565b8101602085101562000319578190505b620003316200032885620001bd565b830182620002c2565b50505b505050565b600082821c905092915050565b6000620003596000198460080262000339565b1980831691505092915050565b600062000374838362000346565b9150826002028217905092915050565b6200038f826200010a565b67ffffffffffffffff811115620003ab57620003aa62000115565b5b620003b7825462000173565b620003c4828285620002e9565b600060209050601f831160018114620003fc5760008415620003e7578287015190505b620003f3858262000366565b86555062000463565b601f1984166200040c86620001a8565b60005b8281101562000436578489015182556001820191506020850194506020810190506200040f565b8683101562000456578489015162000452601f89168262000346565b8355505b6001600288020188555050505b505050505050565b608051611b0d6200048e600039600081816101450152610c910152611b0d6000f3fe60806040526004361061004a5760003560e01c806312065fe01461004f5780631398bbf71461007a578063200d2ed2146100a557806353a04b05146100d0578063f71d96cb146100ec575b600080fd5b34801561005b57600080fd5b5061006461012a565b604051610071919061103f565b60405180910390f35b34801561008657600080fd5b5061008f6101c0565b60405161009c9190611198565b60405180910390f35b3480156100b157600080fd5b506100ba61050b565b6040516100c7919061124a565b60405180910390f35b6100ea60048036038101906100e59190611296565b610599565b005b3480156100f857600080fd5b50610113600480360381019061010e91906112ef565b610bf6565b60405161012192919061133a565b60405180910390f35b60003373ffffffffffffffffffffffffffffffffffffffff167f000000000000000000000000000000000000000000000000000000000000000073ffffffffffffffffffffffffffffffffffffffff16146101ba576040517f08c379a00000000000000000000000000000000000000000000000000000000081526004016101b1906113d5565b60405180910390fd5b47905090565b60606002808054905010156102a6576002805480602002602001604051908101604052809291908181526020016000905b8282101561029b578382906000526020600020016040518060400160405290816000820160009054906101000a900473ffffffffffffffffffffffffffffffffffffffff1673ffffffffffffffffffffffffffffffffffffffff1673ffffffffffffffffffffffffffffffffffffffff1681526020016000820160149054906101000a900463ffffffff1663ffffffff1663ffffffff1681525050815260200190600101906101f1565b505050509050610508565b600060028054905067ffffffffffffffff8111156102c7576102c66113f5565b5b60405190808252806020026020018201604052801561030057816020015b6102ed610ff0565b8152602001906001900390816102e55790505b50905060005b6002805490508110156103e9576002818154811061032757610326611424565b5b906000526020600020016040518060400160405290816000820160009054906101000a900473ffffffffffffffffffffffffffffffffffffffff1673ffffffffffffffffffffffffffffffffffffffff1673ffffffffffffffffffffffffffffffffffffffff1681526020016000820160149054906101000a900463ffffffff1663ffffffff1663ffffffff16815250508282815181106103cb576103ca611424565b5b602002602001018190525080806103e190611482565b915050610306565b5060005b600182516103fb91906114ca565b811015610502576000600190505b82518110156104ee5782818151811061042557610424611424565b5b60200260200101516020015163ffffffff1683838151811061044a57610449611424565b5b60200260200101516020015163ffffffff1610156104db57600083838151811061047757610476611424565b5b6020026020010151905083828151811061049457610493611424565b5b60200260200101518484815181106104af576104ae611424565b5b6020026020010181905250808483815181106104ce576104cd611424565b5b6020026020010181905250505b80806104e690611482565b915050610409565b5080806104fa90611482565b9150506103ed565b50809150505b90565b600180546105189061152d565b80601f01602080910402602001604051908101604052809291908181526020018280546105449061152d565b80156105915780601f1061056657610100808354040283529160200191610591565b820191906000526020600020905b81548152906001019060200180831161057457829003601f168201915b505050505081565b600060038111156105ad576105ac61155e565b5b8160038111156105c0576105bf61155e565b5b03610600576040517f08c379a00000000000000000000000000000000000000000000000000000000081526004016105f7906115d9565b60405180910390fd5b3373ffffffffffffffffffffffffffffffffffffffff16600060019054906101000a900473ffffffffffffffffffffffffffffffffffffffff1673ffffffffffffffffffffffffffffffffffffffff1603610690576040517f08c379a000000000000000000000000000000000000000000000000000000000815260040161068790611645565b60405180910390fd5b662386f26fc100003410156106da576040517f08c379a00000000000000000000000000000000000000000000000000000000081526004016106d1906116b1565b60405180910390fd5b600060038111156106ee576106ed61155e565b5b60008054906101000a900460ff16600381111561070e5761070d61155e565b5b036107aa5733600060016101000a81548173ffffffffffffffffffffffffffffffffffffffff021916908373ffffffffffffffffffffffffffffffffffffffff160217905550806000806101000a81548160ff021916908360038111156107785761077761155e565b5b0217905550604051806060016040528060308152602001611a4160309139600190816107a4919061187d565b50610bf3565b600160038111156107be576107bd61155e565b5b60008054906101000a900460ff1660038111156107de576107dd61155e565b5b14801561080e57506003808111156107f9576107f861155e565b5b81600381111561080c5761080b61155e565b5b145b1561085c57610857600060019054906101000a900473ffffffffffffffffffffffffffffffffffffffff16604051806060016040528060238152602001611a7160239139610c56565b610bf2565b600260038111156108705761086f61155e565b5b60008054906101000a900460ff1660038111156108905761088f61155e565b5b1480156108c15750600160038111156108ac576108ab61155e565b5b8160038111156108bf576108be61155e565b5b145b1561092c57610927600060019054906101000a900473ffffffffffffffffffffffffffffffffffffffff166040518060400160405280601f81526020017f506170657220777261707320526f636b2e20506c61796572203120574f4e2100815250610c56565b610bf1565b60038081111561093f5761093e61155e565b5b60008054906101000a900460ff16600381111561095f5761095e61155e565b5b14801561099057506002600381111561097b5761097a61155e565b5b81600381111561098e5761098d61155e565b5b145b156109de576109d9600060019054906101000a900473ffffffffffffffffffffffffffffffffffffffff16604051806060016040528060228152602001611a9460229139610c56565b610bf0565b6003808111156109f1576109f061155e565b5b60008054906101000a900460ff166003811115610a1157610a1061155e565b5b148015610a42575060016003811115610a2d57610a2c61155e565b5b816003811115610a4057610a3f61155e565b5b145b15610a6e57610a6933604051806060016040528060238152602001611a1e60239139610c56565b610bef565b60016003811115610a8257610a8161155e565b5b60008054906101000a900460ff166003811115610aa257610aa161155e565b5b148015610ad3575060026003811115610abe57610abd61155e565b5b816003811115610ad157610ad061155e565b5b145b15610b1c57610b17336040518060400160405280601f81526020017f506170657220777261707320526f636b2e20506c61796572203220574f4e2100815250610c56565b610bee565b60026003811115610b3057610b2f61155e565b5b60008054906101000a900460ff166003811115610b5057610b4f61155e565b5b148015610b805750600380811115610b6b57610b6a61155e565b5b816003811115610b7e57610b7d61155e565b5b145b15610bac57610ba733604051806060016040528060228152602001611ab660229139610c56565b610bed565b610bec60006040518060400160405280600a81526020017f447261772067616d652100000000000000000000000000000000000000000000815250610c56565b5b5b5b5b5b5b5b50565b60028181548110610c0657600080fd5b906000526020600020016000915090508060000160009054906101000a900473ffffffffffffffffffffffffffffffffffffffff16908060000160149054906101000a900463ffffffff16905082565b600073ffffffffffffffffffffffffffffffffffffffff168273ffffffffffffffffffffffffffffffffffffffff1614610d9d5760003090507f000000000000000000000000000000000000000000000000000000000000000073ffffffffffffffffffffffffffffffffffffffff166108fc600a60648473ffffffffffffffffffffffffffffffffffffffff1631610cef919061197e565b610cf991906119af565b9081150290604051600060405180830381858888f19350505050158015610d24573d6000803e3d6000fd5b508273ffffffffffffffffffffffffffffffffffffffff166108fc605a60648473ffffffffffffffffffffffffffffffffffffffff1631610d65919061197e565b610d6f91906119af565b9081150290604051600060405180830381858888f19350505050158015610d9a573d6000803e3d6000fd5b50505b610da682610e25565b8060019081610db5919061187d565b5060008060016101000a81548173ffffffffffffffffffffffffffffffffffffffff021916908373ffffffffffffffffffffffffffffffffffffffff16021790555060008060006101000a81548160ff02191690836003811115610e1c57610e1b61155e565b5b02179055505050565b60005b600280549050811015610f22578173ffffffffffffffffffffffffffffffffffffffff1660028281548110610e6057610e5f611424565b5b9060005260206000200160000160009054906101000a900473ffffffffffffffffffffffffffffffffffffffff1673ffffffffffffffffffffffffffffffffffffffff1603610f0f5760028181548110610ebd57610ebc611424565b5b90600052602060002001600001601481819054906101000a900463ffffffff1680929190610eea906119f1565b91906101000a81548163ffffffff021916908363ffffffff1602179055505050610fed565b8080610f1a90611482565b915050610e28565b50600260405180604001604052808373ffffffffffffffffffffffffffffffffffffffff168152602001600163ffffffff168152509080600181540180825580915050600190039060005260206000200160009091909190915060008201518160000160006101000a81548173ffffffffffffffffffffffffffffffffffffffff021916908373ffffffffffffffffffffffffffffffffffffffff16021790555060208201518160000160146101000a81548163ffffffff021916908363ffffffff16021790555050505b50565b6040518060400160405280600073ffffffffffffffffffffffffffffffffffffffff168152602001600063ffffffff1681525090565b6000819050919050565b61103981611026565b82525050565b60006020820190506110546000830184611030565b92915050565b600081519050919050565b600082825260208201905092915050565b6000819050602082019050919050565b600073ffffffffffffffffffffffffffffffffffffffff82169050919050565b60006110b182611086565b9050919050565b6110c1816110a6565b82525050565b600063ffffffff82169050919050565b6110e0816110c7565b82525050565b6040820160008201516110fc60008501826110b8565b50602082015161110f60208501826110d7565b50505050565b600061112183836110e6565b60408301905092915050565b6000602082019050919050565b60006111458261105a565b61114f8185611065565b935061115a83611076565b8060005b8381101561118b5781516111728882611115565b975061117d8361112d565b92505060018101905061115e565b5085935050505092915050565b600060208201905081810360008301526111b2818461113a565b905092915050565b600081519050919050565b600082825260208201905092915050565b60005b838110156111f45780820151818401526020810190506111d9565b60008484015250505050565b6000601f19601f8301169050919050565b600061121c826111ba565b61122681856111c5565b93506112368185602086016111d6565b61123f81611200565b840191505092915050565b600060208201905081810360008301526112648184611211565b905092915050565b600080fd5b6004811061127e57600080fd5b50565b60008135905061129081611271565b92915050565b6000602082840312156112ac576112ab61126c565b5b60006112ba84828501611281565b91505092915050565b6112cc81611026565b81146112d757600080fd5b50565b6000813590506112e9816112c3565b92915050565b6000602082840312156113055761130461126c565b5b6000611313848285016112da565b91505092915050565b611325816110a6565b82525050565b611334816110c7565b82525050565b600060408201905061134f600083018561131c565b61135c602083018461132b565b9392505050565b7f596f7520646f6e27742068617665207065726d697373696f6e7320746f20616360008201527f6365737320746869732e00000000000000000000000000000000000000000000602082015250565b60006113bf602a836111c5565b91506113ca82611363565b604082019050919050565b600060208201905081810360008301526113ee816113b2565b9050919050565b7f4e487b7100000000000000000000000000000000000000000000000000000000600052604160045260246000fd5b7f4e487b7100000000000000000000000000000000000000000000000000000000600052603260045260246000fd5b7f4e487b7100000000000000000000000000000000000000000000000000000000600052601160045260246000fd5b600061148d82611026565b91507fffffffffffffffffffffffffffffffffffffffffffffffffffffffffffffffff82036114bf576114be611453565b5b600182019050919050565b60006114d582611026565b91506114e083611026565b92508282039050818111156114f8576114f7611453565b5b92915050565b7f4e487b7100000000000000000000000000000000000000000000000000000000600052602260045260246000fd5b6000600282049050600182168061154557607f821691505b602082108103611558576115576114fe565b5b50919050565b7f4e487b7100000000000000000000000000000000000000000000000000000000600052602160045260246000fd5b7f496e76616c69642063686f696365210000000000000000000000000000000000600082015250565b60006115c3600f836111c5565b91506115ce8261158d565b602082019050919050565b600060208201905081810360008301526115f2816115b6565b9050919050565b7f417761697420616e6f7468657220706c617965722e0000000000000000000000600082015250565b600061162f6015836111c5565b915061163a826115f9565b602082019050919050565b6000602082019050818103600083015261165e81611622565b9050919050565b7f496e76616c6964206269642e0000000000000000000000000000000000000000600082015250565b600061169b600c836111c5565b91506116a682611665565b602082019050919050565b600060208201905081810360008301526116ca8161168e565b9050919050565b60008190508160005260206000209050919050565b60006020601f8301049050919050565b600082821b905092915050565b6000600883026117337fffffffffffffffffffffffffffffffffffffffffffffffffffffffffffffffff826116f6565b61173d86836116f6565b95508019841693508086168417925050509392505050565b6000819050919050565b600061177a61177561177084611026565b611755565b611026565b9050919050565b6000819050919050565b6117948361175f565b6117a86117a082611781565b848454611703565b825550505050565b600090565b6117bd6117b0565b6117c881848461178b565b505050565b5b818110156117ec576117e16000826117b5565b6001810190506117ce565b5050565b601f82111561183157611802816116d1565b61180b846116e6565b8101602085101561181a578190505b61182e611826856116e6565b8301826117cd565b50505b505050565b600082821c905092915050565b600061185460001984600802611836565b1980831691505092915050565b600061186d8383611843565b9150826002028217905092915050565b611886826111ba565b67ffffffffffffffff81111561189f5761189e6113f5565b5b6118a9825461152d565b6118b48282856117f0565b600060209050601f8311600181146118e757600084156118d5578287015190505b6118df8582611861565b865550611947565b601f1984166118f5866116d1565b60005b8281101561191d578489015182556001820191506020850194506020810190506118f8565b8683101561193a5784890151611936601f891682611843565b8355505b6001600288020188555050505b505050505050565b7f4e487b7100000000000000000000000000000000000000000000000000000000600052601260045260246000fd5b600061198982611026565b915061199483611026565b9250826119a4576119a361194f565b5b828204905092915050565b60006119ba82611026565b91506119c583611026565b92508282026119d381611026565b915082820484148315176119ea576119e9611453565b5b5092915050565b60006119fc826110c7565b915063ffffffff8203611a1257611a11611453565b5b60018201905091905056fe526f636b20627265616b732053636973736f72732e20506c61796572203220574f4e21506c6179657220312063686f736520686973206f7074696f6e2e2057616974696e6720666f7220706c6179657220322e526f636b20627265616b732053636973736f72732e20506c61796572203120574f4e2153636973736f727320637574732050617065722e20506c61796572203120574f4e2153636973736f727320637574732050617065722e20506c61796572203220574f4e21a2646970667358221220539751192578d50a37b15d2600e0fd904f56f039e41f5b24b7f3125abc621b6d64736f6c63430008120033",
					"opcodes": "PUSH1 0xA0 PUSH1 0x40 MSTORE PUSH1 0x0 DUP1 PUSH1 0x0 PUSH2 0x100 EXP DUP2 SLOAD DUP2 PUSH1 0xFF MUL NOT AND SWAP1 DUP4 PUSH1 0x3 DUP2 GT ISZERO PUSH3 0x2C JUMPI PUSH3 0x2B PUSH3 0xDB JUMP JUMPDEST JUMPDEST MUL OR SWAP1 SSTORE POP CALLER PUSH1 0x0 PUSH1 0x1 PUSH2 0x100 EXP DUP2 SLOAD DUP2 PUSH20 0xFFFFFFFFFFFFFFFFFFFFFFFFFFFFFFFFFFFFFFFF MUL NOT AND SWAP1 DUP4 PUSH20 0xFFFFFFFFFFFFFFFFFFFFFFFFFFFFFFFFFFFFFFFF AND MUL OR SWAP1 SSTORE POP PUSH1 0x40 MLOAD DUP1 PUSH1 0x20 ADD PUSH1 0x40 MSTORE DUP1 PUSH1 0x0 DUP2 MSTORE POP PUSH1 0x1 SWAP1 DUP2 PUSH3 0x92 SWAP2 SWAP1 PUSH3 0x384 JUMP JUMPDEST POP CALLVALUE DUP1 ISZERO PUSH3 0xA0 JUMPI PUSH1 0x0 DUP1 REVERT JUMPDEST POP CALLER PUSH20 0xFFFFFFFFFFFFFFFFFFFFFFFFFFFFFFFFFFFFFFFF AND PUSH1 0x80 DUP2 PUSH20 0xFFFFFFFFFFFFFFFFFFFFFFFFFFFFFFFFFFFFFFFF AND DUP2 MSTORE POP POP PUSH3 0x46B JUMP JUMPDEST PUSH32 0x4E487B7100000000000000000000000000000000000000000000000000000000 PUSH1 0x0 MSTORE PUSH1 0x21 PUSH1 0x4 MSTORE PUSH1 0x24 PUSH1 0x0 REVERT JUMPDEST PUSH1 0x0 DUP2 MLOAD SWAP1 POP SWAP2 SWAP1 POP JUMP JUMPDEST PUSH32 0x4E487B7100000000000000000000000000000000000000000000000000000000 PUSH1 0x0 MSTORE PUSH1 0x41 PUSH1 0x4 MSTORE PUSH1 0x24 PUSH1 0x0 REVERT JUMPDEST PUSH32 0x4E487B7100000000000000000000000000000000000000000000000000000000 PUSH1 0x0 MSTORE PUSH1 0x22 PUSH1 0x4 MSTORE PUSH1 0x24 PUSH1 0x0 REVERT JUMPDEST PUSH1 0x0 PUSH1 0x2 DUP3 DIV SWAP1 POP PUSH1 0x1 DUP3 AND DUP1 PUSH3 0x18C JUMPI PUSH1 0x7F DUP3 AND SWAP2 POP JUMPDEST PUSH1 0x20 DUP3 LT DUP2 SUB PUSH3 0x1A2 JUMPI PUSH3 0x1A1 PUSH3 0x144 JUMP JUMPDEST JUMPDEST POP SWAP2 SWAP1 POP JUMP JUMPDEST PUSH1 0x0 DUP2 SWAP1 POP DUP2 PUSH1 0x0 MSTORE PUSH1 0x20 PUSH1 0x0 KECCAK256 SWAP1 POP SWAP2 SWAP1 POP JUMP JUMPDEST PUSH1 0x0 PUSH1 0x20 PUSH1 0x1F DUP4 ADD DIV SWAP1 POP SWAP2 SWAP1 POP JUMP JUMPDEST PUSH1 0x0 DUP3 DUP3 SHL SWAP1 POP SWAP3 SWAP2 POP POP JUMP JUMPDEST PUSH1 0x0 PUSH1 0x8 DUP4 MUL PUSH3 0x20C PUSH32 0xFFFFFFFFFFFFFFFFFFFFFFFFFFFFFFFFFFFFFFFFFFFFFFFFFFFFFFFFFFFFFFFF DUP3 PUSH3 0x1CD JUMP JUMPDEST PUSH3 0x218 DUP7 DUP4 PUSH3 0x1CD JUMP JUMPDEST SWAP6 POP DUP1 NOT DUP5 AND SWAP4 POP DUP1 DUP7 AND DUP5 OR SWAP3 POP POP POP SWAP4 SWAP3 POP POP POP JUMP JUMPDEST PUSH1 0x0 DUP2 SWAP1 POP SWAP2 SWAP1 POP JUMP JUMPDEST PUSH1 0x0 DUP2 SWAP1 POP SWAP2 SWAP1 POP JUMP JUMPDEST PUSH1 0x0 PUSH3 0x265 PUSH3 0x25F PUSH3 0x259 DUP5 PUSH3 0x230 JUMP JUMPDEST PUSH3 0x23A JUMP JUMPDEST PUSH3 0x230 JUMP JUMPDEST SWAP1 POP SWAP2 SWAP1 POP JUMP JUMPDEST PUSH1 0x0 DUP2 SWAP1 POP SWAP2 SWAP1 POP JUMP JUMPDEST PUSH3 0x281 DUP4 PUSH3 0x244 JUMP JUMPDEST PUSH3 0x299 PUSH3 0x290 DUP3 PUSH3 0x26C JUMP JUMPDEST DUP5 DUP5 SLOAD PUSH3 0x1DA JUMP JUMPDEST DUP3 SSTORE POP POP POP POP JUMP JUMPDEST PUSH1 0x0 SWAP1 JUMP JUMPDEST PUSH3 0x2B0 PUSH3 0x2A1 JUMP JUMPDEST PUSH3 0x2BD DUP2 DUP5 DUP5 PUSH3 0x276 JUMP JUMPDEST POP POP POP JUMP JUMPDEST JUMPDEST DUP2 DUP2 LT ISZERO PUSH3 0x2E5 JUMPI PUSH3 0x2D9 PUSH1 0x0 DUP3 PUSH3 0x2A6 JUMP JUMPDEST PUSH1 0x1 DUP2 ADD SWAP1 POP PUSH3 0x2C3 JUMP JUMPDEST POP POP JUMP JUMPDEST PUSH1 0x1F DUP3 GT ISZERO PUSH3 0x334 JUMPI PUSH3 0x2FE DUP2 PUSH3 0x1A8 JUMP JUMPDEST PUSH3 0x309 DUP5 PUSH3 0x1BD JUMP JUMPDEST DUP2 ADD PUSH1 0x20 DUP6 LT ISZERO PUSH3 0x319 JUMPI DUP2 SWAP1 POP JUMPDEST PUSH3 0x331 PUSH3 0x328 DUP6 PUSH3 0x1BD JUMP JUMPDEST DUP4 ADD DUP3 PUSH3 0x2C2 JUMP JUMPDEST POP POP JUMPDEST POP POP POP JUMP JUMPDEST PUSH1 0x0 DUP3 DUP3 SHR SWAP1 POP SWAP3 SWAP2 POP POP JUMP JUMPDEST PUSH1 0x0 PUSH3 0x359 PUSH1 0x0 NOT DUP5 PUSH1 0x8 MUL PUSH3 0x339 JUMP JUMPDEST NOT DUP1 DUP4 AND SWAP2 POP POP SWAP3 SWAP2 POP POP JUMP JUMPDEST PUSH1 0x0 PUSH3 0x374 DUP4 DUP4 PUSH3 0x346 JUMP JUMPDEST SWAP2 POP DUP3 PUSH1 0x2 MUL DUP3 OR SWAP1 POP SWAP3 SWAP2 POP POP JUMP JUMPDEST PUSH3 0x38F DUP3 PUSH3 0x10A JUMP JUMPDEST PUSH8 0xFFFFFFFFFFFFFFFF DUP2 GT ISZERO PUSH3 0x3AB JUMPI PUSH3 0x3AA PUSH3 0x115 JUMP JUMPDEST JUMPDEST PUSH3 0x3B7 DUP3 SLOAD PUSH3 0x173 JUMP JUMPDEST PUSH3 0x3C4 DUP3 DUP3 DUP6 PUSH3 0x2E9 JUMP JUMPDEST PUSH1 0x0 PUSH1 0x20 SWAP1 POP PUSH1 0x1F DUP4 GT PUSH1 0x1 DUP2 EQ PUSH3 0x3FC JUMPI PUSH1 0x0 DUP5 ISZERO PUSH3 0x3E7 JUMPI DUP3 DUP8 ADD MLOAD SWAP1 POP JUMPDEST PUSH3 0x3F3 DUP6 DUP3 PUSH3 0x366 JUMP JUMPDEST DUP7 SSTORE POP PUSH3 0x463 JUMP JUMPDEST PUSH1 0x1F NOT DUP5 AND PUSH3 0x40C DUP7 PUSH3 0x1A8 JUMP JUMPDEST PUSH1 0x0 JUMPDEST DUP3 DUP2 LT ISZERO PUSH3 0x436 JUMPI DUP5 DUP10 ADD MLOAD DUP3 SSTORE PUSH1 0x1 DUP3 ADD SWAP2 POP PUSH1 0x20 DUP6 ADD SWAP5 POP PUSH1 0x20 DUP2 ADD SWAP1 POP PUSH3 0x40F JUMP JUMPDEST DUP7 DUP4 LT ISZERO PUSH3 0x456 JUMPI DUP5 DUP10 ADD MLOAD PUSH3 0x452 PUSH1 0x1F DUP10 AND DUP3 PUSH3 0x346 JUMP JUMPDEST DUP4 SSTORE POP JUMPDEST PUSH1 0x1 PUSH1 0x2 DUP9 MUL ADD DUP9 SSTORE POP POP POP JUMPDEST POP POP POP POP POP POP JUMP JUMPDEST PUSH1 0x80 MLOAD PUSH2 0x1B0D PUSH3 0x48E PUSH1 0x0 CODECOPY PUSH1 0x0 DUP2 DUP2 PUSH2 0x145 ADD MSTORE PUSH2 0xC91 ADD MSTORE PUSH2 0x1B0D PUSH1 0x0 RETURN INVALID PUSH1 0x80 PUSH1 0x40 MSTORE PUSH1 0x4 CALLDATASIZE LT PUSH2 0x4A JUMPI PUSH1 0x0 CALLDATALOAD PUSH1 0xE0 SHR DUP1 PUSH4 0x12065FE0 EQ PUSH2 0x4F JUMPI DUP1 PUSH4 0x1398BBF7 EQ PUSH2 0x7A JUMPI DUP1 PUSH4 0x200D2ED2 EQ PUSH2 0xA5 JUMPI DUP1 PUSH4 0x53A04B05 EQ PUSH2 0xD0 JUMPI DUP1 PUSH4 0xF71D96CB EQ PUSH2 0xEC JUMPI JUMPDEST PUSH1 0x0 DUP1 REVERT JUMPDEST CALLVALUE DUP1 ISZERO PUSH2 0x5B JUMPI PUSH1 0x0 DUP1 REVERT JUMPDEST POP PUSH2 0x64 PUSH2 0x12A JUMP JUMPDEST PUSH1 0x40 MLOAD PUSH2 0x71 SWAP2 SWAP1 PUSH2 0x103F JUMP JUMPDEST PUSH1 0x40 MLOAD DUP1 SWAP2 SUB SWAP1 RETURN JUMPDEST CALLVALUE DUP1 ISZERO PUSH2 0x86 JUMPI PUSH1 0x0 DUP1 REVERT JUMPDEST POP PUSH2 0x8F PUSH2 0x1C0 JUMP JUMPDEST PUSH1 0x40 MLOAD PUSH2 0x9C SWAP2 SWAP1 PUSH2 0x1198 JUMP JUMPDEST PUSH1 0x40 MLOAD DUP1 SWAP2 SUB SWAP1 RETURN JUMPDEST CALLVALUE DUP1 ISZERO PUSH2 0xB1 JUMPI PUSH1 0x0 DUP1 REVERT JUMPDEST POP PUSH2 0xBA PUSH2 0x50B JUMP JUMPDEST PUSH1 0x40 MLOAD PUSH2 0xC7 SWAP2 SWAP1 PUSH2 0x124A JUMP JUMPDEST PUSH1 0x40 MLOAD DUP1 SWAP2 SUB SWAP1 RETURN JUMPDEST PUSH2 0xEA PUSH1 0x4 DUP1 CALLDATASIZE SUB DUP2 ADD SWAP1 PUSH2 0xE5 SWAP2 SWAP1 PUSH2 0x1296 JUMP JUMPDEST PUSH2 0x599 JUMP JUMPDEST STOP JUMPDEST CALLVALUE DUP1 ISZERO PUSH2 0xF8 JUMPI PUSH1 0x0 DUP1 REVERT JUMPDEST POP PUSH2 0x113 PUSH1 0x4 DUP1 CALLDATASIZE SUB DUP2 ADD SWAP1 PUSH2 0x10E SWAP2 SWAP1 PUSH2 0x12EF JUMP JUMPDEST PUSH2 0xBF6 JUMP JUMPDEST PUSH1 0x40 MLOAD PUSH2 0x121 SWAP3 SWAP2 SWAP1 PUSH2 0x133A JUMP JUMPDEST PUSH1 0x40 MLOAD DUP1 SWAP2 SUB SWAP1 RETURN JUMPDEST PUSH1 0x0 CALLER PUSH20 0xFFFFFFFFFFFFFFFFFFFFFFFFFFFFFFFFFFFFFFFF AND PUSH32 0x0 PUSH20 0xFFFFFFFFFFFFFFFFFFFFFFFFFFFFFFFFFFFFFFFF AND EQ PUSH2 0x1BA JUMPI PUSH1 0x40 MLOAD PUSH32 0x8C379A000000000000000000000000000000000000000000000000000000000 DUP2 MSTORE PUSH1 0x4 ADD PUSH2 0x1B1 SWAP1 PUSH2 0x13D5 JUMP JUMPDEST PUSH1 0x40 MLOAD DUP1 SWAP2 SUB SWAP1 REVERT JUMPDEST SELFBALANCE SWAP1 POP SWAP1 JUMP JUMPDEST PUSH1 0x60 PUSH1 0x2 DUP1 DUP1 SLOAD SWAP1 POP LT ISZERO PUSH2 0x2A6 JUMPI PUSH1 0x2 DUP1 SLOAD DUP1 PUSH1 0x20 MUL PUSH1 0x20 ADD PUSH1 0x40 MLOAD SWAP1 DUP2 ADD PUSH1 0x40 MSTORE DUP1 SWAP3 SWAP2 SWAP1 DUP2 DUP2 MSTORE PUSH1 0x20 ADD PUSH1 0x0 SWAP1 JUMPDEST DUP3 DUP3 LT ISZERO PUSH2 0x29B JUMPI DUP4 DUP3 SWAP1 PUSH1 0x0 MSTORE PUSH1 0x20 PUSH1 0x0 KECCAK256 ADD PUSH1 0x40 MLOAD DUP1 PUSH1 0x40 ADD PUSH1 0x40 MSTORE SWAP1 DUP2 PUSH1 0x0 DUP3 ADD PUSH1 0x0 SWAP1 SLOAD SWAP1 PUSH2 0x100 EXP SWAP1 DIV PUSH20 0xFFFFFFFFFFFFFFFFFFFFFFFFFFFFFFFFFFFFFFFF AND PUSH20 0xFFFFFFFFFFFFFFFFFFFFFFFFFFFFFFFFFFFFFFFF AND PUSH20 0xFFFFFFFFFFFFFFFFFFFFFFFFFFFFFFFFFFFFFFFF AND DUP2 MSTORE PUSH1 0x20 ADD PUSH1 0x0 DUP3 ADD PUSH1 0x14 SWAP1 SLOAD SWAP1 PUSH2 0x100 EXP SWAP1 DIV PUSH4 0xFFFFFFFF AND PUSH4 0xFFFFFFFF AND PUSH4 0xFFFFFFFF AND DUP2 MSTORE POP POP DUP2 MSTORE PUSH1 0x20 ADD SWAP1 PUSH1 0x1 ADD SWAP1 PUSH2 0x1F1 JUMP JUMPDEST POP POP POP POP SWAP1 POP PUSH2 0x508 JUMP JUMPDEST PUSH1 0x0 PUSH1 0x2 DUP1 SLOAD SWAP1 POP PUSH8 0xFFFFFFFFFFFFFFFF DUP2 GT ISZERO PUSH2 0x2C7 JUMPI PUSH2 0x2C6 PUSH2 0x13F5 JUMP JUMPDEST JUMPDEST PUSH1 0x40 MLOAD SWAP1 DUP1 DUP3 MSTORE DUP1 PUSH1 0x20 MUL PUSH1 0x20 ADD DUP3 ADD PUSH1 0x40 MSTORE DUP1 ISZERO PUSH2 0x300 JUMPI DUP2 PUSH1 0x20 ADD JUMPDEST PUSH2 0x2ED PUSH2 0xFF0 JUMP JUMPDEST DUP2 MSTORE PUSH1 0x20 ADD SWAP1 PUSH1 0x1 SWAP1 SUB SWAP1 DUP2 PUSH2 0x2E5 JUMPI SWAP1 POP JUMPDEST POP SWAP1 POP PUSH1 0x0 JUMPDEST PUSH1 0x2 DUP1 SLOAD SWAP1 POP DUP2 LT ISZERO PUSH2 0x3E9 JUMPI PUSH1 0x2 DUP2 DUP2 SLOAD DUP2 LT PUSH2 0x327 JUMPI PUSH2 0x326 PUSH2 0x1424 JUMP JUMPDEST JUMPDEST SWAP1 PUSH1 0x0 MSTORE PUSH1 0x20 PUSH1 0x0 KECCAK256 ADD PUSH1 0x40 MLOAD DUP1 PUSH1 0x40 ADD PUSH1 0x40 MSTORE SWAP1 DUP2 PUSH1 0x0 DUP3 ADD PUSH1 0x0 SWAP1 SLOAD SWAP1 PUSH2 0x100 EXP SWAP1 DIV PUSH20 0xFFFFFFFFFFFFFFFFFFFFFFFFFFFFFFFFFFFFFFFF AND PUSH20 0xFFFFFFFFFFFFFFFFFFFFFFFFFFFFFFFFFFFFFFFF AND PUSH20 0xFFFFFFFFFFFFFFFFFFFFFFFFFFFFFFFFFFFFFFFF AND DUP2 MSTORE PUSH1 0x20 ADD PUSH1 0x0 DUP3 ADD PUSH1 0x14 SWAP1 SLOAD SWAP1 PUSH2 0x100 EXP SWAP1 DIV PUSH4 0xFFFFFFFF AND PUSH4 0xFFFFFFFF AND PUSH4 0xFFFFFFFF AND DUP2 MSTORE POP POP DUP3 DUP3 DUP2 MLOAD DUP2 LT PUSH2 0x3CB JUMPI PUSH2 0x3CA PUSH2 0x1424 JUMP JUMPDEST JUMPDEST PUSH1 0x20 MUL PUSH1 0x20 ADD ADD DUP2 SWAP1 MSTORE POP DUP1 DUP1 PUSH2 0x3E1 SWAP1 PUSH2 0x1482 JUMP JUMPDEST SWAP2 POP POP PUSH2 0x306 JUMP JUMPDEST POP PUSH1 0x0 JUMPDEST PUSH1 0x1 DUP3 MLOAD PUSH2 0x3FB SWAP2 SWAP1 PUSH2 0x14CA JUMP JUMPDEST DUP2 LT ISZERO PUSH2 0x502 JUMPI PUSH1 0x0 PUSH1 0x1 SWAP1 POP JUMPDEST DUP3 MLOAD DUP2 LT ISZERO PUSH2 0x4EE JUMPI DUP3 DUP2 DUP2 MLOAD DUP2 LT PUSH2 0x425 JUMPI PUSH2 0x424 PUSH2 0x1424 JUMP JUMPDEST JUMPDEST PUSH1 0x20 MUL PUSH1 0x20 ADD ADD MLOAD PUSH1 0x20 ADD MLOAD PUSH4 0xFFFFFFFF AND DUP4 DUP4 DUP2 MLOAD DUP2 LT PUSH2 0x44A JUMPI PUSH2 0x449 PUSH2 0x1424 JUMP JUMPDEST JUMPDEST PUSH1 0x20 MUL PUSH1 0x20 ADD ADD MLOAD PUSH1 0x20 ADD MLOAD PUSH4 0xFFFFFFFF AND LT ISZERO PUSH2 0x4DB JUMPI PUSH1 0x0 DUP4 DUP4 DUP2 MLOAD DUP2 LT PUSH2 0x477 JUMPI PUSH2 0x476 PUSH2 0x1424 JUMP JUMPDEST JUMPDEST PUSH1 0x20 MUL PUSH1 0x20 ADD ADD MLOAD SWAP1 POP DUP4 DUP3 DUP2 MLOAD DUP2 LT PUSH2 0x494 JUMPI PUSH2 0x493 PUSH2 0x1424 JUMP JUMPDEST JUMPDEST PUSH1 0x20 MUL PUSH1 0x20 ADD ADD MLOAD DUP5 DUP5 DUP2 MLOAD DUP2 LT PUSH2 0x4AF JUMPI PUSH2 0x4AE PUSH2 0x1424 JUMP JUMPDEST JUMPDEST PUSH1 0x20 MUL PUSH1 0x20 ADD ADD DUP2 SWAP1 MSTORE POP DUP1 DUP5 DUP4 DUP2 MLOAD DUP2 LT PUSH2 0x4CE JUMPI PUSH2 0x4CD PUSH2 0x1424 JUMP JUMPDEST JUMPDEST PUSH1 0x20 MUL PUSH1 0x20 ADD ADD DUP2 SWAP1 MSTORE POP POP JUMPDEST DUP1 DUP1 PUSH2 0x4E6 SWAP1 PUSH2 0x1482 JUMP JUMPDEST SWAP2 POP POP PUSH2 0x409 JUMP JUMPDEST POP DUP1 DUP1 PUSH2 0x4FA SWAP1 PUSH2 0x1482 JUMP JUMPDEST SWAP2 POP POP PUSH2 0x3ED JUMP JUMPDEST POP DUP1 SWAP2 POP POP JUMPDEST SWAP1 JUMP JUMPDEST PUSH1 0x1 DUP1 SLOAD PUSH2 0x518 SWAP1 PUSH2 0x152D JUMP JUMPDEST DUP1 PUSH1 0x1F ADD PUSH1 0x20 DUP1 SWAP2 DIV MUL PUSH1 0x20 ADD PUSH1 0x40 MLOAD SWAP1 DUP2 ADD PUSH1 0x40 MSTORE DUP1 SWAP3 SWAP2 SWAP1 DUP2 DUP2 MSTORE PUSH1 0x20 ADD DUP3 DUP1 SLOAD PUSH2 0x544 SWAP1 PUSH2 0x152D JUMP JUMPDEST DUP1 ISZERO PUSH2 0x591 JUMPI DUP1 PUSH1 0x1F LT PUSH2 0x566 JUMPI PUSH2 0x100 DUP1 DUP4 SLOAD DIV MUL DUP4 MSTORE SWAP2 PUSH1 0x20 ADD SWAP2 PUSH2 0x591 JUMP JUMPDEST DUP3 ADD SWAP2 SWAP1 PUSH1 0x0 MSTORE PUSH1 0x20 PUSH1 0x0 KECCAK256 SWAP1 JUMPDEST DUP2 SLOAD DUP2 MSTORE SWAP1 PUSH1 0x1 ADD SWAP1 PUSH1 0x20 ADD DUP1 DUP4 GT PUSH2 0x574 JUMPI DUP3 SWAP1 SUB PUSH1 0x1F AND DUP3 ADD SWAP2 JUMPDEST POP POP POP POP POP DUP2 JUMP JUMPDEST PUSH1 0x0 PUSH1 0x3 DUP2 GT ISZERO PUSH2 0x5AD JUMPI PUSH2 0x5AC PUSH2 0x155E JUMP JUMPDEST JUMPDEST DUP2 PUSH1 0x3 DUP2 GT ISZERO PUSH2 0x5C0 JUMPI PUSH2 0x5BF PUSH2 0x155E JUMP JUMPDEST JUMPDEST SUB PUSH2 0x600 JUMPI PUSH1 0x40 MLOAD PUSH32 0x8C379A000000000000000000000000000000000000000000000000000000000 DUP2 MSTORE PUSH1 0x4 ADD PUSH2 0x5F7 SWAP1 PUSH2 0x15D9 JUMP JUMPDEST PUSH1 0x40 MLOAD DUP1 SWAP2 SUB SWAP1 REVERT JUMPDEST CALLER PUSH20 0xFFFFFFFFFFFFFFFFFFFFFFFFFFFFFFFFFFFFFFFF AND PUSH1 0x0 PUSH1 0x1 SWAP1 SLOAD SWAP1 PUSH2 0x100 EXP SWAP1 DIV PUSH20 0xFFFFFFFFFFFFFFFFFFFFFFFFFFFFFFFFFFFFFFFF AND PUSH20 0xFFFFFFFFFFFFFFFFFFFFFFFFFFFFFFFFFFFFFFFF AND SUB PUSH2 0x690 JUMPI PUSH1 0x40 MLOAD PUSH32 0x8C379A000000000000000000000000000000000000000000000000000000000 DUP2 MSTORE PUSH1 0x4 ADD PUSH2 0x687 SWAP1 PUSH2 0x1645 JUMP JUMPDEST PUSH1 0x40 MLOAD DUP1 SWAP2 SUB SWAP1 REVERT JUMPDEST PUSH7 0x2386F26FC10000 CALLVALUE LT ISZERO PUSH2 0x6DA JUMPI PUSH1 0x40 MLOAD PUSH32 0x8C379A000000000000000000000000000000000000000000000000000000000 DUP2 MSTORE PUSH1 0x4 ADD PUSH2 0x6D1 SWAP1 PUSH2 0x16B1 JUMP JUMPDEST PUSH1 0x40 MLOAD DUP1 SWAP2 SUB SWAP1 REVERT JUMPDEST PUSH1 0x0 PUSH1 0x3 DUP2 GT ISZERO PUSH2 0x6EE JUMPI PUSH2 0x6ED PUSH2 0x155E JUMP JUMPDEST JUMPDEST PUSH1 0x0 DUP1 SLOAD SWAP1 PUSH2 0x100 EXP SWAP1 DIV PUSH1 0xFF AND PUSH1 0x3 DUP2 GT ISZERO PUSH2 0x70E JUMPI PUSH2 0x70D PUSH2 0x155E JUMP JUMPDEST JUMPDEST SUB PUSH2 0x7AA JUMPI CALLER PUSH1 0x0 PUSH1 0x1 PUSH2 0x100 EXP DUP2 SLOAD DUP2 PUSH20 0xFFFFFFFFFFFFFFFFFFFFFFFFFFFFFFFFFFFFFFFF MUL NOT AND SWAP1 DUP4 PUSH20 0xFFFFFFFFFFFFFFFFFFFFFFFFFFFFFFFFFFFFFFFF AND MUL OR SWAP1 SSTORE POP DUP1 PUSH1 0x0 DUP1 PUSH2 0x100 EXP DUP2 SLOAD DUP2 PUSH1 0xFF MUL NOT AND SWAP1 DUP4 PUSH1 0x3 DUP2 GT ISZERO PUSH2 0x778 JUMPI PUSH2 0x777 PUSH2 0x155E JUMP JUMPDEST JUMPDEST MUL OR SWAP1 SSTORE POP PUSH1 0x40 MLOAD DUP1 PUSH1 0x60 ADD PUSH1 0x40 MSTORE DUP1 PUSH1 0x30 DUP2 MSTORE PUSH1 0x20 ADD PUSH2 0x1A41 PUSH1 0x30 SWAP2 CODECOPY PUSH1 0x1 SWAP1 DUP2 PUSH2 0x7A4 SWAP2 SWAP1 PUSH2 0x187D JUMP JUMPDEST POP PUSH2 0xBF3 JUMP JUMPDEST PUSH1 0x1 PUSH1 0x3 DUP2 GT ISZERO PUSH2 0x7BE JUMPI PUSH2 0x7BD PUSH2 0x155E JUMP JUMPDEST JUMPDEST PUSH1 0x0 DUP1 SLOAD SWAP1 PUSH2 0x100 EXP SWAP1 DIV PUSH1 0xFF AND PUSH1 0x3 DUP2 GT ISZERO PUSH2 0x7DE JUMPI PUSH2 0x7DD PUSH2 0x155E JUMP JUMPDEST JUMPDEST EQ DUP1 ISZERO PUSH2 0x80E JUMPI POP PUSH1 0x3 DUP1 DUP2 GT ISZERO PUSH2 0x7F9 JUMPI PUSH2 0x7F8 PUSH2 0x155E JUMP JUMPDEST JUMPDEST DUP2 PUSH1 0x3 DUP2 GT ISZERO PUSH2 0x80C JUMPI PUSH2 0x80B PUSH2 0x155E JUMP JUMPDEST JUMPDEST EQ JUMPDEST ISZERO PUSH2 0x85C JUMPI PUSH2 0x857 PUSH1 0x0 PUSH1 0x1 SWAP1 SLOAD SWAP1 PUSH2 0x100 EXP SWAP1 DIV PUSH20 0xFFFFFFFFFFFFFFFFFFFFFFFFFFFFFFFFFFFFFFFF AND PUSH1 0x40 MLOAD DUP1 PUSH1 0x60 ADD PUSH1 0x40 MSTORE DUP1 PUSH1 0x23 DUP2 MSTORE PUSH1 0x20 ADD PUSH2 0x1A71 PUSH1 0x23 SWAP2 CODECOPY PUSH2 0xC56 JUMP JUMPDEST PUSH2 0xBF2 JUMP JUMPDEST PUSH1 0x2 PUSH1 0x3 DUP2 GT ISZERO PUSH2 0x870 JUMPI PUSH2 0x86F PUSH2 0x155E JUMP JUMPDEST JUMPDEST PUSH1 0x0 DUP1 SLOAD SWAP1 PUSH2 0x100 EXP SWAP1 DIV PUSH1 0xFF AND PUSH1 0x3 DUP2 GT ISZERO PUSH2 0x890 JUMPI PUSH2 0x88F PUSH2 0x155E JUMP JUMPDEST JUMPDEST EQ DUP1 ISZERO PUSH2 0x8C1 JUMPI POP PUSH1 0x1 PUSH1 0x3 DUP2 GT ISZERO PUSH2 0x8AC JUMPI PUSH2 0x8AB PUSH2 0x155E JUMP JUMPDEST JUMPDEST DUP2 PUSH1 0x3 DUP2 GT ISZERO PUSH2 0x8BF JUMPI PUSH2 0x8BE PUSH2 0x155E JUMP JUMPDEST JUMPDEST EQ JUMPDEST ISZERO PUSH2 0x92C JUMPI PUSH2 0x927 PUSH1 0x0 PUSH1 0x1 SWAP1 SLOAD SWAP1 PUSH2 0x100 EXP SWAP1 DIV PUSH20 0xFFFFFFFFFFFFFFFFFFFFFFFFFFFFFFFFFFFFFFFF AND PUSH1 0x40 MLOAD DUP1 PUSH1 0x40 ADD PUSH1 0x40 MSTORE DUP1 PUSH1 0x1F DUP2 MSTORE PUSH1 0x20 ADD PUSH32 0x506170657220777261707320526F636B2E20506C61796572203120574F4E2100 DUP2 MSTORE POP PUSH2 0xC56 JUMP JUMPDEST PUSH2 0xBF1 JUMP JUMPDEST PUSH1 0x3 DUP1 DUP2 GT ISZERO PUSH2 0x93F JUMPI PUSH2 0x93E PUSH2 0x155E JUMP JUMPDEST JUMPDEST PUSH1 0x0 DUP1 SLOAD SWAP1 PUSH2 0x100 EXP SWAP1 DIV PUSH1 0xFF AND PUSH1 0x3 DUP2 GT ISZERO PUSH2 0x95F JUMPI PUSH2 0x95E PUSH2 0x155E JUMP JUMPDEST JUMPDEST EQ DUP1 ISZERO PUSH2 0x990 JUMPI POP PUSH1 0x2 PUSH1 0x3 DUP2 GT ISZERO PUSH2 0x97B JUMPI PUSH2 0x97A PUSH2 0x155E JUMP JUMPDEST JUMPDEST DUP2 PUSH1 0x3 DUP2 GT ISZERO PUSH2 0x98E JUMPI PUSH2 0x98D PUSH2 0x155E JUMP JUMPDEST JUMPDEST EQ JUMPDEST ISZERO PUSH2 0x9DE JUMPI PUSH2 0x9D9 PUSH1 0x0 PUSH1 0x1 SWAP1 SLOAD SWAP1 PUSH2 0x100 EXP SWAP1 DIV PUSH20 0xFFFFFFFFFFFFFFFFFFFFFFFFFFFFFFFFFFFFFFFF AND PUSH1 0x40 MLOAD DUP1 PUSH1 0x60 ADD PUSH1 0x40 MSTORE DUP1 PUSH1 0x22 DUP2 MSTORE PUSH1 0x20 ADD PUSH2 0x1A94 PUSH1 0x22 SWAP2 CODECOPY PUSH2 0xC56 JUMP JUMPDEST PUSH2 0xBF0 JUMP JUMPDEST PUSH1 0x3 DUP1 DUP2 GT ISZERO PUSH2 0x9F1 JUMPI PUSH2 0x9F0 PUSH2 0x155E JUMP JUMPDEST JUMPDEST PUSH1 0x0 DUP1 SLOAD SWAP1 PUSH2 0x100 EXP SWAP1 DIV PUSH1 0xFF AND PUSH1 0x3 DUP2 GT ISZERO PUSH2 0xA11 JUMPI PUSH2 0xA10 PUSH2 0x155E JUMP JUMPDEST JUMPDEST EQ DUP1 ISZERO PUSH2 0xA42 JUMPI POP PUSH1 0x1 PUSH1 0x3 DUP2 GT ISZERO PUSH2 0xA2D JUMPI PUSH2 0xA2C PUSH2 0x155E JUMP JUMPDEST JUMPDEST DUP2 PUSH1 0x3 DUP2 GT ISZERO PUSH2 0xA40 JUMPI PUSH2 0xA3F PUSH2 0x155E JUMP JUMPDEST JUMPDEST EQ JUMPDEST ISZERO PUSH2 0xA6E JUMPI PUSH2 0xA69 CALLER PUSH1 0x40 MLOAD DUP1 PUSH1 0x60 ADD PUSH1 0x40 MSTORE DUP1 PUSH1 0x23 DUP2 MSTORE PUSH1 0x20 ADD PUSH2 0x1A1E PUSH1 0x23 SWAP2 CODECOPY PUSH2 0xC56 JUMP JUMPDEST PUSH2 0xBEF JUMP JUMPDEST PUSH1 0x1 PUSH1 0x3 DUP2 GT ISZERO PUSH2 0xA82 JUMPI PUSH2 0xA81 PUSH2 0x155E JUMP JUMPDEST JUMPDEST PUSH1 0x0 DUP1 SLOAD SWAP1 PUSH2 0x100 EXP SWAP1 DIV PUSH1 0xFF AND PUSH1 0x3 DUP2 GT ISZERO PUSH2 0xAA2 JUMPI PUSH2 0xAA1 PUSH2 0x155E JUMP JUMPDEST JUMPDEST EQ DUP1 ISZERO PUSH2 0xAD3 JUMPI POP PUSH1 0x2 PUSH1 0x3 DUP2 GT ISZERO PUSH2 0xABE JUMPI PUSH2 0xABD PUSH2 0x155E JUMP JUMPDEST JUMPDEST DUP2 PUSH1 0x3 DUP2 GT ISZERO PUSH2 0xAD1 JUMPI PUSH2 0xAD0 PUSH2 0x155E JUMP JUMPDEST JUMPDEST EQ JUMPDEST ISZERO PUSH2 0xB1C JUMPI PUSH2 0xB17 CALLER PUSH1 0x40 MLOAD DUP1 PUSH1 0x40 ADD PUSH1 0x40 MSTORE DUP1 PUSH1 0x1F DUP2 MSTORE PUSH1 0x20 ADD PUSH32 0x506170657220777261707320526F636B2E20506C61796572203220574F4E2100 DUP2 MSTORE POP PUSH2 0xC56 JUMP JUMPDEST PUSH2 0xBEE JUMP JUMPDEST PUSH1 0x2 PUSH1 0x3 DUP2 GT ISZERO PUSH2 0xB30 JUMPI PUSH2 0xB2F PUSH2 0x155E JUMP JUMPDEST JUMPDEST PUSH1 0x0 DUP1 SLOAD SWAP1 PUSH2 0x100 EXP SWAP1 DIV PUSH1 0xFF AND PUSH1 0x3 DUP2 GT ISZERO PUSH2 0xB50 JUMPI PUSH2 0xB4F PUSH2 0x155E JUMP JUMPDEST JUMPDEST EQ DUP1 ISZERO PUSH2 0xB80 JUMPI POP PUSH1 0x3 DUP1 DUP2 GT ISZERO PUSH2 0xB6B JUMPI PUSH2 0xB6A PUSH2 0x155E JUMP JUMPDEST JUMPDEST DUP2 PUSH1 0x3 DUP2 GT ISZERO PUSH2 0xB7E JUMPI PUSH2 0xB7D PUSH2 0x155E JUMP JUMPDEST JUMPDEST EQ JUMPDEST ISZERO PUSH2 0xBAC JUMPI PUSH2 0xBA7 CALLER PUSH1 0x40 MLOAD DUP1 PUSH1 0x60 ADD PUSH1 0x40 MSTORE DUP1 PUSH1 0x22 DUP2 MSTORE PUSH1 0x20 ADD PUSH2 0x1AB6 PUSH1 0x22 SWAP2 CODECOPY PUSH2 0xC56 JUMP JUMPDEST PUSH2 0xBED JUMP JUMPDEST PUSH2 0xBEC PUSH1 0x0 PUSH1 0x40 MLOAD DUP1 PUSH1 0x40 ADD PUSH1 0x40 MSTORE DUP1 PUSH1 0xA DUP2 MSTORE PUSH1 0x20 ADD PUSH32 0x447261772067616D652100000000000000000000000000000000000000000000 DUP2 MSTORE POP PUSH2 0xC56 JUMP JUMPDEST JUMPDEST JUMPDEST JUMPDEST JUMPDEST JUMPDEST JUMPDEST JUMPDEST POP JUMP JUMPDEST PUSH1 0x2 DUP2 DUP2 SLOAD DUP2 LT PUSH2 0xC06 JUMPI PUSH1 0x0 DUP1 REVERT JUMPDEST SWAP1 PUSH1 0x0 MSTORE PUSH1 0x20 PUSH1 0x0 KECCAK256 ADD PUSH1 0x0 SWAP2 POP SWAP1 POP DUP1 PUSH1 0x0 ADD PUSH1 0x0 SWAP1 SLOAD SWAP1 PUSH2 0x100 EXP SWAP1 DIV PUSH20 0xFFFFFFFFFFFFFFFFFFFFFFFFFFFFFFFFFFFFFFFF AND SWAP1 DUP1 PUSH1 0x0 ADD PUSH1 0x14 SWAP1 SLOAD SWAP1 PUSH2 0x100 EXP SWAP1 DIV PUSH4 0xFFFFFFFF AND SWAP1 POP DUP3 JUMP JUMPDEST PUSH1 0x0 PUSH20 0xFFFFFFFFFFFFFFFFFFFFFFFFFFFFFFFFFFFFFFFF AND DUP3 PUSH20 0xFFFFFFFFFFFFFFFFFFFFFFFFFFFFFFFFFFFFFFFF AND EQ PUSH2 0xD9D JUMPI PUSH1 0x0 ADDRESS SWAP1 POP PUSH32 0x0 PUSH20 0xFFFFFFFFFFFFFFFFFFFFFFFFFFFFFFFFFFFFFFFF AND PUSH2 0x8FC PUSH1 0xA PUSH1 0x64 DUP5 PUSH20 0xFFFFFFFFFFFFFFFFFFFFFFFFFFFFFFFFFFFFFFFF AND BALANCE PUSH2 0xCEF SWAP2 SWAP1 PUSH2 0x197E JUMP JUMPDEST PUSH2 0xCF9 SWAP2 SWAP1 PUSH2 0x19AF JUMP JUMPDEST SWAP1 DUP2 ISZERO MUL SWAP1 PUSH1 0x40 MLOAD PUSH1 0x0 PUSH1 0x40 MLOAD DUP1 DUP4 SUB DUP2 DUP6 DUP9 DUP9 CALL SWAP4 POP POP POP POP ISZERO DUP1 ISZERO PUSH2 0xD24 JUMPI RETURNDATASIZE PUSH1 0x0 DUP1 RETURNDATACOPY RETURNDATASIZE PUSH1 0x0 REVERT JUMPDEST POP DUP3 PUSH20 0xFFFFFFFFFFFFFFFFFFFFFFFFFFFFFFFFFFFFFFFF AND PUSH2 0x8FC PUSH1 0x5A PUSH1 0x64 DUP5 PUSH20 0xFFFFFFFFFFFFFFFFFFFFFFFFFFFFFFFFFFFFFFFF AND BALANCE PUSH2 0xD65 SWAP2 SWAP1 PUSH2 0x197E JUMP JUMPDEST PUSH2 0xD6F SWAP2 SWAP1 PUSH2 0x19AF JUMP JUMPDEST SWAP1 DUP2 ISZERO MUL SWAP1 PUSH1 0x40 MLOAD PUSH1 0x0 PUSH1 0x40 MLOAD DUP1 DUP4 SUB DUP2 DUP6 DUP9 DUP9 CALL SWAP4 POP POP POP POP ISZERO DUP1 ISZERO PUSH2 0xD9A JUMPI RETURNDATASIZE PUSH1 0x0 DUP1 RETURNDATACOPY RETURNDATASIZE PUSH1 0x0 REVERT JUMPDEST POP POP JUMPDEST PUSH2 0xDA6 DUP3 PUSH2 0xE25 JUMP JUMPDEST DUP1 PUSH1 0x1 SWAP1 DUP2 PUSH2 0xDB5 SWAP2 SWAP1 PUSH2 0x187D JUMP JUMPDEST POP PUSH1 0x0 DUP1 PUSH1 0x1 PUSH2 0x100 EXP DUP2 SLOAD DUP2 PUSH20 0xFFFFFFFFFFFFFFFFFFFFFFFFFFFFFFFFFFFFFFFF MUL NOT AND SWAP1 DUP4 PUSH20 0xFFFFFFFFFFFFFFFFFFFFFFFFFFFFFFFFFFFFFFFF AND MUL OR SWAP1 SSTORE POP PUSH1 0x0 DUP1 PUSH1 0x0 PUSH2 0x100 EXP DUP2 SLOAD DUP2 PUSH1 0xFF MUL NOT AND SWAP1 DUP4 PUSH1 0x3 DUP2 GT ISZERO PUSH2 0xE1C JUMPI PUSH2 0xE1B PUSH2 0x155E JUMP JUMPDEST JUMPDEST MUL OR SWAP1 SSTORE POP POP POP JUMP JUMPDEST PUSH1 0x0 JUMPDEST PUSH1 0x2 DUP1 SLOAD SWAP1 POP DUP2 LT ISZERO PUSH2 0xF22 JUMPI DUP2 PUSH20 0xFFFFFFFFFFFFFFFFFFFFFFFFFFFFFFFFFFFFFFFF AND PUSH1 0x2 DUP3 DUP2 SLOAD DUP2 LT PUSH2 0xE60 JUMPI PUSH2 0xE5F PUSH2 0x1424 JUMP JUMPDEST JUMPDEST SWAP1 PUSH1 0x0 MSTORE PUSH1 0x20 PUSH1 0x0 KECCAK256 ADD PUSH1 0x0 ADD PUSH1 0x0 SWAP1 SLOAD SWAP1 PUSH2 0x100 EXP SWAP1 DIV PUSH20 0xFFFFFFFFFFFFFFFFFFFFFFFFFFFFFFFFFFFFFFFF AND PUSH20 0xFFFFFFFFFFFFFFFFFFFFFFFFFFFFFFFFFFFFFFFF AND SUB PUSH2 0xF0F JUMPI PUSH1 0x2 DUP2 DUP2 SLOAD DUP2 LT PUSH2 0xEBD JUMPI PUSH2 0xEBC PUSH2 0x1424 JUMP JUMPDEST JUMPDEST SWAP1 PUSH1 0x0 MSTORE PUSH1 0x20 PUSH1 0x0 KECCAK256 ADD PUSH1 0x0 ADD PUSH1 0x14 DUP2 DUP2 SWAP1 SLOAD SWAP1 PUSH2 0x100 EXP SWAP1 DIV PUSH4 0xFFFFFFFF AND DUP1 SWAP3 SWAP2 SWAP1 PUSH2 0xEEA SWAP1 PUSH2 0x19F1 JUMP JUMPDEST SWAP2 SWAP1 PUSH2 0x100 EXP DUP2 SLOAD DUP2 PUSH4 0xFFFFFFFF MUL NOT AND SWAP1 DUP4 PUSH4 0xFFFFFFFF AND MUL OR SWAP1 SSTORE POP POP POP PUSH2 0xFED JUMP JUMPDEST DUP1 DUP1 PUSH2 0xF1A SWAP1 PUSH2 0x1482 JUMP JUMPDEST SWAP2 POP POP PUSH2 0xE28 JUMP JUMPDEST POP PUSH1 0x2 PUSH1 0x40 MLOAD DUP1 PUSH1 0x40 ADD PUSH1 0x40 MSTORE DUP1 DUP4 PUSH20 0xFFFFFFFFFFFFFFFFFFFFFFFFFFFFFFFFFFFFFFFF AND DUP2 MSTORE PUSH1 0x20 ADD PUSH1 0x1 PUSH4 0xFFFFFFFF AND DUP2 MSTORE POP SWAP1 DUP1 PUSH1 0x1 DUP2 SLOAD ADD DUP1 DUP3 SSTORE DUP1 SWAP2 POP POP PUSH1 0x1 SWAP1 SUB SWAP1 PUSH1 0x0 MSTORE PUSH1 0x20 PUSH1 0x0 KECCAK256 ADD PUSH1 0x0 SWAP1 SWAP2 SWAP1 SWAP2 SWAP1 SWAP2 POP PUSH1 0x0 DUP3 ADD MLOAD DUP2 PUSH1 0x0 ADD PUSH1 0x0 PUSH2 0x100 EXP DUP2 SLOAD DUP2 PUSH20 0xFFFFFFFFFFFFFFFFFFFFFFFFFFFFFFFFFFFFFFFF MUL NOT AND SWAP1 DUP4 PUSH20 0xFFFFFFFFFFFFFFFFFFFFFFFFFFFFFFFFFFFFFFFF AND MUL OR SWAP1 SSTORE POP PUSH1 0x20 DUP3 ADD MLOAD DUP2 PUSH1 0x0 ADD PUSH1 0x14 PUSH2 0x100 EXP DUP2 SLOAD DUP2 PUSH4 0xFFFFFFFF MUL NOT AND SWAP1 DUP4 PUSH4 0xFFFFFFFF AND MUL OR SWAP1 SSTORE POP POP POP JUMPDEST POP JUMP JUMPDEST PUSH1 0x40 MLOAD DUP1 PUSH1 0x40 ADD PUSH1 0x40 MSTORE DUP1 PUSH1 0x0 PUSH20 0xFFFFFFFFFFFFFFFFFFFFFFFFFFFFFFFFFFFFFFFF AND DUP2 MSTORE PUSH1 0x20 ADD PUSH1 0x0 PUSH4 0xFFFFFFFF AND DUP2 MSTORE POP SWAP1 JUMP JUMPDEST PUSH1 0x0 DUP2 SWAP1 POP SWAP2 SWAP1 POP JUMP JUMPDEST PUSH2 0x1039 DUP2 PUSH2 0x1026 JUMP JUMPDEST DUP3 MSTORE POP POP JUMP JUMPDEST PUSH1 0x0 PUSH1 0x20 DUP3 ADD SWAP1 POP PUSH2 0x1054 PUSH1 0x0 DUP4 ADD DUP5 PUSH2 0x1030 JUMP JUMPDEST SWAP3 SWAP2 POP POP JUMP JUMPDEST PUSH1 0x0 DUP2 MLOAD SWAP1 POP SWAP2 SWAP1 POP JUMP JUMPDEST PUSH1 0x0 DUP3 DUP3 MSTORE PUSH1 0x20 DUP3 ADD SWAP1 POP SWAP3 SWAP2 POP POP JUMP JUMPDEST PUSH1 0x0 DUP2 SWAP1 POP PUSH1 0x20 DUP3 ADD SWAP1 POP SWAP2 SWAP1 POP JUMP JUMPDEST PUSH1 0x0 PUSH20 0xFFFFFFFFFFFFFFFFFFFFFFFFFFFFFFFFFFFFFFFF DUP3 AND SWAP1 POP SWAP2 SWAP1 POP JUMP JUMPDEST PUSH1 0x0 PUSH2 0x10B1 DUP3 PUSH2 0x1086 JUMP JUMPDEST SWAP1 POP SWAP2 SWAP1 POP JUMP JUMPDEST PUSH2 0x10C1 DUP2 PUSH2 0x10A6 JUMP JUMPDEST DUP3 MSTORE POP POP JUMP JUMPDEST PUSH1 0x0 PUSH4 0xFFFFFFFF DUP3 AND SWAP1 POP SWAP2 SWAP1 POP JUMP JUMPDEST PUSH2 0x10E0 DUP2 PUSH2 0x10C7 JUMP JUMPDEST DUP3 MSTORE POP POP JUMP JUMPDEST PUSH1 0x40 DUP3 ADD PUSH1 0x0 DUP3 ADD MLOAD PUSH2 0x10FC PUSH1 0x0 DUP6 ADD DUP3 PUSH2 0x10B8 JUMP JUMPDEST POP PUSH1 0x20 DUP3 ADD MLOAD PUSH2 0x110F PUSH1 0x20 DUP6 ADD DUP3 PUSH2 0x10D7 JUMP JUMPDEST POP POP POP POP JUMP JUMPDEST PUSH1 0x0 PUSH2 0x1121 DUP4 DUP4 PUSH2 0x10E6 JUMP JUMPDEST PUSH1 0x40 DUP4 ADD SWAP1 POP SWAP3 SWAP2 POP POP JUMP JUMPDEST PUSH1 0x0 PUSH1 0x20 DUP3 ADD SWAP1 POP SWAP2 SWAP1 POP JUMP JUMPDEST PUSH1 0x0 PUSH2 0x1145 DUP3 PUSH2 0x105A JUMP JUMPDEST PUSH2 0x114F DUP2 DUP6 PUSH2 0x1065 JUMP JUMPDEST SWAP4 POP PUSH2 0x115A DUP4 PUSH2 0x1076 JUMP JUMPDEST DUP1 PUSH1 0x0 JUMPDEST DUP4 DUP2 LT ISZERO PUSH2 0x118B JUMPI DUP2 MLOAD PUSH2 0x1172 DUP9 DUP3 PUSH2 0x1115 JUMP JUMPDEST SWAP8 POP PUSH2 0x117D DUP4 PUSH2 0x112D JUMP JUMPDEST SWAP3 POP POP PUSH1 0x1 DUP2 ADD SWAP1 POP PUSH2 0x115E JUMP JUMPDEST POP DUP6 SWAP4 POP POP POP POP SWAP3 SWAP2 POP POP JUMP JUMPDEST PUSH1 0x0 PUSH1 0x20 DUP3 ADD SWAP1 POP DUP2 DUP2 SUB PUSH1 0x0 DUP4 ADD MSTORE PUSH2 0x11B2 DUP2 DUP5 PUSH2 0x113A JUMP JUMPDEST SWAP1 POP SWAP3 SWAP2 POP POP JUMP JUMPDEST PUSH1 0x0 DUP2 MLOAD SWAP1 POP SWAP2 SWAP1 POP JUMP JUMPDEST PUSH1 0x0 DUP3 DUP3 MSTORE PUSH1 0x20 DUP3 ADD SWAP1 POP SWAP3 SWAP2 POP POP JUMP JUMPDEST PUSH1 0x0 JUMPDEST DUP4 DUP2 LT ISZERO PUSH2 0x11F4 JUMPI DUP1 DUP3 ADD MLOAD DUP2 DUP5 ADD MSTORE PUSH1 0x20 DUP2 ADD SWAP1 POP PUSH2 0x11D9 JUMP JUMPDEST PUSH1 0x0 DUP5 DUP5 ADD MSTORE POP POP POP POP JUMP JUMPDEST PUSH1 0x0 PUSH1 0x1F NOT PUSH1 0x1F DUP4 ADD AND SWAP1 POP SWAP2 SWAP1 POP JUMP JUMPDEST PUSH1 0x0 PUSH2 0x121C DUP3 PUSH2 0x11BA JUMP JUMPDEST PUSH2 0x1226 DUP2 DUP6 PUSH2 0x11C5 JUMP JUMPDEST SWAP4 POP PUSH2 0x1236 DUP2 DUP6 PUSH1 0x20 DUP7 ADD PUSH2 0x11D6 JUMP JUMPDEST PUSH2 0x123F DUP2 PUSH2 0x1200 JUMP JUMPDEST DUP5 ADD SWAP2 POP POP SWAP3 SWAP2 POP POP JUMP JUMPDEST PUSH1 0x0 PUSH1 0x20 DUP3 ADD SWAP1 POP DUP2 DUP2 SUB PUSH1 0x0 DUP4 ADD MSTORE PUSH2 0x1264 DUP2 DUP5 PUSH2 0x1211 JUMP JUMPDEST SWAP1 POP SWAP3 SWAP2 POP POP JUMP JUMPDEST PUSH1 0x0 DUP1 REVERT JUMPDEST PUSH1 0x4 DUP2 LT PUSH2 0x127E JUMPI PUSH1 0x0 DUP1 REVERT JUMPDEST POP JUMP JUMPDEST PUSH1 0x0 DUP2 CALLDATALOAD SWAP1 POP PUSH2 0x1290 DUP2 PUSH2 0x1271 JUMP JUMPDEST SWAP3 SWAP2 POP POP JUMP JUMPDEST PUSH1 0x0 PUSH1 0x20 DUP3 DUP5 SUB SLT ISZERO PUSH2 0x12AC JUMPI PUSH2 0x12AB PUSH2 0x126C JUMP JUMPDEST JUMPDEST PUSH1 0x0 PUSH2 0x12BA DUP5 DUP3 DUP6 ADD PUSH2 0x1281 JUMP JUMPDEST SWAP2 POP POP SWAP3 SWAP2 POP POP JUMP JUMPDEST PUSH2 0x12CC DUP2 PUSH2 0x1026 JUMP JUMPDEST DUP2 EQ PUSH2 0x12D7 JUMPI PUSH1 0x0 DUP1 REVERT JUMPDEST POP JUMP JUMPDEST PUSH1 0x0 DUP2 CALLDATALOAD SWAP1 POP PUSH2 0x12E9 DUP2 PUSH2 0x12C3 JUMP JUMPDEST SWAP3 SWAP2 POP POP JUMP JUMPDEST PUSH1 0x0 PUSH1 0x20 DUP3 DUP5 SUB SLT ISZERO PUSH2 0x1305 JUMPI PUSH2 0x1304 PUSH2 0x126C JUMP JUMPDEST JUMPDEST PUSH1 0x0 PUSH2 0x1313 DUP5 DUP3 DUP6 ADD PUSH2 0x12DA JUMP JUMPDEST SWAP2 POP POP SWAP3 SWAP2 POP POP JUMP JUMPDEST PUSH2 0x1325 DUP2 PUSH2 0x10A6 JUMP JUMPDEST DUP3 MSTORE POP POP JUMP JUMPDEST PUSH2 0x1334 DUP2 PUSH2 0x10C7 JUMP JUMPDEST DUP3 MSTORE POP POP JUMP JUMPDEST PUSH1 0x0 PUSH1 0x40 DUP3 ADD SWAP1 POP PUSH2 0x134F PUSH1 0x0 DUP4 ADD DUP6 PUSH2 0x131C JUMP JUMPDEST PUSH2 0x135C PUSH1 0x20 DUP4 ADD DUP5 PUSH2 0x132B JUMP JUMPDEST SWAP4 SWAP3 POP POP POP JUMP JUMPDEST PUSH32 0x596F7520646F6E27742068617665207065726D697373696F6E7320746F206163 PUSH1 0x0 DUP3 ADD MSTORE PUSH32 0x6365737320746869732E00000000000000000000000000000000000000000000 PUSH1 0x20 DUP3 ADD MSTORE POP JUMP JUMPDEST PUSH1 0x0 PUSH2 0x13BF PUSH1 0x2A DUP4 PUSH2 0x11C5 JUMP JUMPDEST SWAP2 POP PUSH2 0x13CA DUP3 PUSH2 0x1363 JUMP JUMPDEST PUSH1 0x40 DUP3 ADD SWAP1 POP SWAP2 SWAP1 POP JUMP JUMPDEST PUSH1 0x0 PUSH1 0x20 DUP3 ADD SWAP1 POP DUP2 DUP2 SUB PUSH1 0x0 DUP4 ADD MSTORE PUSH2 0x13EE DUP2 PUSH2 0x13B2 JUMP JUMPDEST SWAP1 POP SWAP2 SWAP1 POP JUMP JUMPDEST PUSH32 0x4E487B7100000000000000000000000000000000000000000000000000000000 PUSH1 0x0 MSTORE PUSH1 0x41 PUSH1 0x4 MSTORE PUSH1 0x24 PUSH1 0x0 REVERT JUMPDEST PUSH32 0x4E487B7100000000000000000000000000000000000000000000000000000000 PUSH1 0x0 MSTORE PUSH1 0x32 PUSH1 0x4 MSTORE PUSH1 0x24 PUSH1 0x0 REVERT JUMPDEST PUSH32 0x4E487B7100000000000000000000000000000000000000000000000000000000 PUSH1 0x0 MSTORE PUSH1 0x11 PUSH1 0x4 MSTORE PUSH1 0x24 PUSH1 0x0 REVERT JUMPDEST PUSH1 0x0 PUSH2 0x148D DUP3 PUSH2 0x1026 JUMP JUMPDEST SWAP2 POP PUSH32 0xFFFFFFFFFFFFFFFFFFFFFFFFFFFFFFFFFFFFFFFFFFFFFFFFFFFFFFFFFFFFFFFF DUP3 SUB PUSH2 0x14BF JUMPI PUSH2 0x14BE PUSH2 0x1453 JUMP JUMPDEST JUMPDEST PUSH1 0x1 DUP3 ADD SWAP1 POP SWAP2 SWAP1 POP JUMP JUMPDEST PUSH1 0x0 PUSH2 0x14D5 DUP3 PUSH2 0x1026 JUMP JUMPDEST SWAP2 POP PUSH2 0x14E0 DUP4 PUSH2 0x1026 JUMP JUMPDEST SWAP3 POP DUP3 DUP3 SUB SWAP1 POP DUP2 DUP2 GT ISZERO PUSH2 0x14F8 JUMPI PUSH2 0x14F7 PUSH2 0x1453 JUMP JUMPDEST JUMPDEST SWAP3 SWAP2 POP POP JUMP JUMPDEST PUSH32 0x4E487B7100000000000000000000000000000000000000000000000000000000 PUSH1 0x0 MSTORE PUSH1 0x22 PUSH1 0x4 MSTORE PUSH1 0x24 PUSH1 0x0 REVERT JUMPDEST PUSH1 0x0 PUSH1 0x2 DUP3 DIV SWAP1 POP PUSH1 0x1 DUP3 AND DUP1 PUSH2 0x1545 JUMPI PUSH1 0x7F DUP3 AND SWAP2 POP JUMPDEST PUSH1 0x20 DUP3 LT DUP2 SUB PUSH2 0x1558 JUMPI PUSH2 0x1557 PUSH2 0x14FE JUMP JUMPDEST JUMPDEST POP SWAP2 SWAP1 POP JUMP JUMPDEST PUSH32 0x4E487B7100000000000000000000000000000000000000000000000000000000 PUSH1 0x0 MSTORE PUSH1 0x21 PUSH1 0x4 MSTORE PUSH1 0x24 PUSH1 0x0 REVERT JUMPDEST PUSH32 0x496E76616C69642063686F696365210000000000000000000000000000000000 PUSH1 0x0 DUP3 ADD MSTORE POP JUMP JUMPDEST PUSH1 0x0 PUSH2 0x15C3 PUSH1 0xF DUP4 PUSH2 0x11C5 JUMP JUMPDEST SWAP2 POP PUSH2 0x15CE DUP3 PUSH2 0x158D JUMP JUMPDEST PUSH1 0x20 DUP3 ADD SWAP1 POP SWAP2 SWAP1 POP JUMP JUMPDEST PUSH1 0x0 PUSH1 0x20 DUP3 ADD SWAP1 POP DUP2 DUP2 SUB PUSH1 0x0 DUP4 ADD MSTORE PUSH2 0x15F2 DUP2 PUSH2 0x15B6 JUMP JUMPDEST SWAP1 POP SWAP2 SWAP1 POP JUMP JUMPDEST PUSH32 0x417761697420616E6F7468657220706C617965722E0000000000000000000000 PUSH1 0x0 DUP3 ADD MSTORE POP JUMP JUMPDEST PUSH1 0x0 PUSH2 0x162F PUSH1 0x15 DUP4 PUSH2 0x11C5 JUMP JUMPDEST SWAP2 POP PUSH2 0x163A DUP3 PUSH2 0x15F9 JUMP JUMPDEST PUSH1 0x20 DUP3 ADD SWAP1 POP SWAP2 SWAP1 POP JUMP JUMPDEST PUSH1 0x0 PUSH1 0x20 DUP3 ADD SWAP1 POP DUP2 DUP2 SUB PUSH1 0x0 DUP4 ADD MSTORE PUSH2 0x165E DUP2 PUSH2 0x1622 JUMP JUMPDEST SWAP1 POP SWAP2 SWAP1 POP JUMP JUMPDEST PUSH32 0x496E76616C6964206269642E0000000000000000000000000000000000000000 PUSH1 0x0 DUP3 ADD MSTORE POP JUMP JUMPDEST PUSH1 0x0 PUSH2 0x169B PUSH1 0xC DUP4 PUSH2 0x11C5 JUMP JUMPDEST SWAP2 POP PUSH2 0x16A6 DUP3 PUSH2 0x1665 JUMP JUMPDEST PUSH1 0x20 DUP3 ADD SWAP1 POP SWAP2 SWAP1 POP JUMP JUMPDEST PUSH1 0x0 PUSH1 0x20 DUP3 ADD SWAP1 POP DUP2 DUP2 SUB PUSH1 0x0 DUP4 ADD MSTORE PUSH2 0x16CA DUP2 PUSH2 0x168E JUMP JUMPDEST SWAP1 POP SWAP2 SWAP1 POP JUMP JUMPDEST PUSH1 0x0 DUP2 SWAP1 POP DUP2 PUSH1 0x0 MSTORE PUSH1 0x20 PUSH1 0x0 KECCAK256 SWAP1 POP SWAP2 SWAP1 POP JUMP JUMPDEST PUSH1 0x0 PUSH1 0x20 PUSH1 0x1F DUP4 ADD DIV SWAP1 POP SWAP2 SWAP1 POP JUMP JUMPDEST PUSH1 0x0 DUP3 DUP3 SHL SWAP1 POP SWAP3 SWAP2 POP POP JUMP JUMPDEST PUSH1 0x0 PUSH1 0x8 DUP4 MUL PUSH2 0x1733 PUSH32 0xFFFFFFFFFFFFFFFFFFFFFFFFFFFFFFFFFFFFFFFFFFFFFFFFFFFFFFFFFFFFFFFF DUP3 PUSH2 0x16F6 JUMP JUMPDEST PUSH2 0x173D DUP7 DUP4 PUSH2 0x16F6 JUMP JUMPDEST SWAP6 POP DUP1 NOT DUP5 AND SWAP4 POP DUP1 DUP7 AND DUP5 OR SWAP3 POP POP POP SWAP4 SWAP3 POP POP POP JUMP JUMPDEST PUSH1 0x0 DUP2 SWAP1 POP SWAP2 SWAP1 POP JUMP JUMPDEST PUSH1 0x0 PUSH2 0x177A PUSH2 0x1775 PUSH2 0x1770 DUP5 PUSH2 0x1026 JUMP JUMPDEST PUSH2 0x1755 JUMP JUMPDEST PUSH2 0x1026 JUMP JUMPDEST SWAP1 POP SWAP2 SWAP1 POP JUMP JUMPDEST PUSH1 0x0 DUP2 SWAP1 POP SWAP2 SWAP1 POP JUMP JUMPDEST PUSH2 0x1794 DUP4 PUSH2 0x175F JUMP JUMPDEST PUSH2 0x17A8 PUSH2 0x17A0 DUP3 PUSH2 0x1781 JUMP JUMPDEST DUP5 DUP5 SLOAD PUSH2 0x1703 JUMP JUMPDEST DUP3 SSTORE POP POP POP POP JUMP JUMPDEST PUSH1 0x0 SWAP1 JUMP JUMPDEST PUSH2 0x17BD PUSH2 0x17B0 JUMP JUMPDEST PUSH2 0x17C8 DUP2 DUP5 DUP5 PUSH2 0x178B JUMP JUMPDEST POP POP POP JUMP JUMPDEST JUMPDEST DUP2 DUP2 LT ISZERO PUSH2 0x17EC JUMPI PUSH2 0x17E1 PUSH1 0x0 DUP3 PUSH2 0x17B5 JUMP JUMPDEST PUSH1 0x1 DUP2 ADD SWAP1 POP PUSH2 0x17CE JUMP JUMPDEST POP POP JUMP JUMPDEST PUSH1 0x1F DUP3 GT ISZERO PUSH2 0x1831 JUMPI PUSH2 0x1802 DUP2 PUSH2 0x16D1 JUMP JUMPDEST PUSH2 0x180B DUP5 PUSH2 0x16E6 JUMP JUMPDEST DUP2 ADD PUSH1 0x20 DUP6 LT ISZERO PUSH2 0x181A JUMPI DUP2 SWAP1 POP JUMPDEST PUSH2 0x182E PUSH2 0x1826 DUP6 PUSH2 0x16E6 JUMP JUMPDEST DUP4 ADD DUP3 PUSH2 0x17CD JUMP JUMPDEST POP POP JUMPDEST POP POP POP JUMP JUMPDEST PUSH1 0x0 DUP3 DUP3 SHR SWAP1 POP SWAP3 SWAP2 POP POP JUMP JUMPDEST PUSH1 0x0 PUSH2 0x1854 PUSH1 0x0 NOT DUP5 PUSH1 0x8 MUL PUSH2 0x1836 JUMP JUMPDEST NOT DUP1 DUP4 AND SWAP2 POP POP SWAP3 SWAP2 POP POP JUMP JUMPDEST PUSH1 0x0 PUSH2 0x186D DUP4 DUP4 PUSH2 0x1843 JUMP JUMPDEST SWAP2 POP DUP3 PUSH1 0x2 MUL DUP3 OR SWAP1 POP SWAP3 SWAP2 POP POP JUMP JUMPDEST PUSH2 0x1886 DUP3 PUSH2 0x11BA JUMP JUMPDEST PUSH8 0xFFFFFFFFFFFFFFFF DUP2 GT ISZERO PUSH2 0x189F JUMPI PUSH2 0x189E PUSH2 0x13F5 JUMP JUMPDEST JUMPDEST PUSH2 0x18A9 DUP3 SLOAD PUSH2 0x152D JUMP JUMPDEST PUSH2 0x18B4 DUP3 DUP3 DUP6 PUSH2 0x17F0 JUMP JUMPDEST PUSH1 0x0 PUSH1 0x20 SWAP1 POP PUSH1 0x1F DUP4 GT PUSH1 0x1 DUP2 EQ PUSH2 0x18E7 JUMPI PUSH1 0x0 DUP5 ISZERO PUSH2 0x18D5 JUMPI DUP3 DUP8 ADD MLOAD SWAP1 POP JUMPDEST PUSH2 0x18DF DUP6 DUP3 PUSH2 0x1861 JUMP JUMPDEST DUP7 SSTORE POP PUSH2 0x1947 JUMP JUMPDEST PUSH1 0x1F NOT DUP5 AND PUSH2 0x18F5 DUP7 PUSH2 0x16D1 JUMP JUMPDEST PUSH1 0x0 JUMPDEST DUP3 DUP2 LT ISZERO PUSH2 0x191D JUMPI DUP5 DUP10 ADD MLOAD DUP3 SSTORE PUSH1 0x1 DUP3 ADD SWAP2 POP PUSH1 0x20 DUP6 ADD SWAP5 POP PUSH1 0x20 DUP2 ADD SWAP1 POP PUSH2 0x18F8 JUMP JUMPDEST DUP7 DUP4 LT ISZERO PUSH2 0x193A JUMPI DUP5 DUP10 ADD MLOAD PUSH2 0x1936 PUSH1 0x1F DUP10 AND DUP3 PUSH2 0x1843 JUMP JUMPDEST DUP4 SSTORE POP JUMPDEST PUSH1 0x1 PUSH1 0x2 DUP9 MUL ADD DUP9 SSTORE POP POP POP JUMPDEST POP POP POP POP POP POP JUMP JUMPDEST PUSH32 0x4E487B7100000000000000000000000000000000000000000000000000000000 PUSH1 0x0 MSTORE PUSH1 0x12 PUSH1 0x4 MSTORE PUSH1 0x24 PUSH1 0x0 REVERT JUMPDEST PUSH1 0x0 PUSH2 0x1989 DUP3 PUSH2 0x1026 JUMP JUMPDEST SWAP2 POP PUSH2 0x1994 DUP4 PUSH2 0x1026 JUMP JUMPDEST SWAP3 POP DUP3 PUSH2 0x19A4 JUMPI PUSH2 0x19A3 PUSH2 0x194F JUMP JUMPDEST JUMPDEST DUP3 DUP3 DIV SWAP1 POP SWAP3 SWAP2 POP POP JUMP JUMPDEST PUSH1 0x0 PUSH2 0x19BA DUP3 PUSH2 0x1026 JUMP JUMPDEST SWAP2 POP PUSH2 0x19C5 DUP4 PUSH2 0x1026 JUMP JUMPDEST SWAP3 POP DUP3 DUP3 MUL PUSH2 0x19D3 DUP2 PUSH2 0x1026 JUMP JUMPDEST SWAP2 POP DUP3 DUP3 DIV DUP5 EQ DUP4 ISZERO OR PUSH2 0x19EA JUMPI PUSH2 0x19E9 PUSH2 0x1453 JUMP JUMPDEST JUMPDEST POP SWAP3 SWAP2 POP POP JUMP JUMPDEST PUSH1 0x0 PUSH2 0x19FC DUP3 PUSH2 0x10C7 JUMP JUMPDEST SWAP2 POP PUSH4 0xFFFFFFFF DUP3 SUB PUSH2 0x1A12 JUMPI PUSH2 0x1A11 PUSH2 0x1453 JUMP JUMPDEST JUMPDEST PUSH1 0x1 DUP3 ADD SWAP1 POP SWAP2 SWAP1 POP JUMP INVALID MSTORE PUSH16 0x636B20627265616B732053636973736F PUSH19 0x732E20506C61796572203220574F4E21506C61 PUSH26 0x657220312063686F736520686973206F7074696F6E2E20576169 PUSH21 0x696E6720666F7220706C6179657220322E526F636B KECCAK256 PUSH3 0x726561 PUSH12 0x732053636973736F72732E20 POP PUSH13 0x61796572203120574F4E215363 PUSH10 0x73736F72732063757473 KECCAK256 POP PUSH2 0x7065 PUSH19 0x2E20506C61796572203120574F4E2153636973 PUSH20 0x6F727320637574732050617065722E20506C6179 PUSH6 0x72203220574F 0x4E 0x21 LOG2 PUSH5 0x6970667358 0x22 SLT KECCAK256 MSTORE8 SWAP8 MLOAD NOT 0x25 PUSH25 0xD50A37B15D2600E0FD904F56F039E41F5B24B7F3125ABC621B PUSH14 0x64736F6C63430008120033000000 "
				},
				"gasEstimates": {
					"creation": {
						"codeDepositCost": "1385000",
						"executionCost": "infinite",
						"totalCost": "infinite"
					},
					"external": {
						"getBalance()": "infinite",
						"getRanking()": "infinite",
						"play(uint8)": "infinite",
						"players(uint256)": "7351",
						"status()": "infinite"
					},
					"internal": {
						"finishGame(address,string memory)": "infinite",
						"updateWinners(address)": "infinite"
					}
				},
				"methodIdentifiers": {
					"getBalance()": "12065fe0",
					"getRanking()": "1398bbf7",
					"play(uint8)": "53a04b05",
					"players(uint256)": "f71d96cb",
					"status()": "200d2ed2"
				}
			},
			"storageLayout": {
				"storage": [
					{
						"astId": 11,
						"contract": "Contracts/JoKenPo.sol:JoKenPo",
						"label": "choice1",
						"offset": 0,
						"slot": "0",
						"type": "t_enum(Options)6"
					},
					{
						"astId": 15,
						"contract": "Contracts/JoKenPo.sol:JoKenPo",
						"label": "player1",
						"offset": 1,
						"slot": "0",
						"type": "t_address"
					},
					{
						"astId": 18,
						"contract": "Contracts/JoKenPo.sol:JoKenPo",
						"label": "status",
						"offset": 0,
						"slot": "1",
						"type": "t_string_storage"
					},
					{
						"astId": 29,
						"contract": "Contracts/JoKenPo.sol:JoKenPo",
						"label": "players",
						"offset": 0,
						"slot": "2",
						"type": "t_array(t_struct(Player)25_storage)dyn_storage"
					}
				],
				"types": {
					"t_address": {
						"encoding": "inplace",
						"label": "address",
						"numberOfBytes": "20"
					},
					"t_array(t_struct(Player)25_storage)dyn_storage": {
						"base": "t_struct(Player)25_storage",
						"encoding": "dynamic_array",
						"label": "struct JoKenPo.Player[]",
						"numberOfBytes": "32"
					},
					"t_enum(Options)6": {
						"encoding": "inplace",
						"label": "enum JoKenPo.Options",
						"numberOfBytes": "1"
					},
					"t_string_storage": {
						"encoding": "bytes",
						"label": "string",
						"numberOfBytes": "32"
					},
					"t_struct(Player)25_storage": {
						"encoding": "inplace",
						"label": "struct JoKenPo.Player",
						"members": [
							{
								"astId": 22,
								"contract": "Contracts/JoKenPo.sol:JoKenPo",
								"label": "wallet",
								"offset": 0,
								"slot": "0",
								"type": "t_address"
							},
							{
								"astId": 24,
								"contract": "Contracts/JoKenPo.sol:JoKenPo",
								"label": "wins",
								"offset": 20,
								"slot": "0",
								"type": "t_uint32"
							}
						],
						"numberOfBytes": "32"
					},
					"t_uint32": {
						"encoding": "inplace",
						"label": "uint32",
						"numberOfBytes": "4"
					}
				}
			},
			"userdoc": {
				"kind": "user",
				"methods": {
					"constructor": {
						"notice": "Contract constructor"
					},
					"getBalance()": {
						"notice": "Get Balance - only contract owner access"
					},
					"getRanking()": {
						"notice": "Returns the sorted list of winners "
					},
					"play(uint8)": {
						"notice": "The game param newChoice = 0, 1, 2 or 3 "
					}
				},
				"version": 1
			}
		}
	}
}