{
	"Contracts/PickEvenOrOdd.sol": {
		"PickEvenOrOdd": {
			"abi": [
				{
					"inputs": [],
					"name": "choice",
					"outputs": [
						{
							"internalType": "string",
							"name": "",
							"type": "string"
						}
					],
					"stateMutability": "view",
					"type": "function"
				},
				{
					"inputs": [
						{
							"internalType": "string",
							"name": "newChoice",
							"type": "string"
						}
					],
					"name": "choose",
					"outputs": [],
					"stateMutability": "nonpayable",
					"type": "function"
				},
				{
					"inputs": [
						{
							"internalType": "uint8",
							"name": "number",
							"type": "uint8"
						}
					],
					"name": "play",
					"outputs": [
						{
							"internalType": "string",
							"name": "",
							"type": "string"
						}
					],
					"stateMutability": "view",
					"type": "function"
				}
			],
			"devdoc": {
				"kind": "dev",
				"methods": {},
				"version": 1
			},
			"evm": {
				"assembly": "    /* \"Contracts/PickEvenOrOdd.sol\":159:2489  contract PickEvenOrOdd{... */\n  mstore(0x40, 0x80)\n    /* \"Contracts/PickEvenOrOdd.sol\":190:216  string public  choice = \"\" */\n  mload(0x40)\n  dup1\n  0x20\n  add\n  0x40\n  mstore\n  dup1\n  0x00\n  dup2\n  mstore\n  pop\n  0x00\n  swap1\n  dup1\n  mload\n  swap1\n  0x20\n  add\n  swap1\n  tag_1\n  swap3\n  swap2\n  swap1\n  tag_2\n  jump\t// in\ntag_1:\n  pop\n    /* \"Contracts/PickEvenOrOdd.sol\":159:2489  contract PickEvenOrOdd{... */\n  callvalue\n  dup1\n  iszero\n  tag_3\n  jumpi\n  0x00\n  dup1\n  revert\ntag_3:\n  pop\n  jump(tag_4)\ntag_2:\n  dup3\n  dup1\n  sload\n  tag_5\n  swap1\n  tag_6\n  jump\t// in\ntag_5:\n  swap1\n  0x00\n  mstore\n  keccak256(0x00, 0x20)\n  swap1\n  0x1f\n  add\n  0x20\n  swap1\n  div\n  dup2\n  add\n  swap3\n  dup3\n  tag_8\n  jumpi\n  0x00\n  dup6\n  sstore\n  jump(tag_7)\ntag_8:\n  dup3\n  0x1f\n  lt\n  tag_9\n  jumpi\n  dup1\n  mload\n  not(0xff)\n  and\n  dup4\n  dup1\n  add\n  or\n  dup6\n  sstore\n  jump(tag_7)\ntag_9:\n  dup3\n  dup1\n  add\n  0x01\n  add\n  dup6\n  sstore\n  dup3\n  iszero\n  tag_7\n  jumpi\n  swap2\n  dup3\n  add\ntag_10:\n  dup3\n  dup2\n  gt\n  iszero\n  tag_11\n  jumpi\n  dup3\n  mload\n  dup3\n  sstore\n  swap2\n  0x20\n  add\n  swap2\n  swap1\n  0x01\n  add\n  swap1\n  jump(tag_10)\ntag_11:\ntag_7:\n  pop\n  swap1\n  pop\n  tag_12\n  swap2\n  swap1\n  tag_13\n  jump\t// in\ntag_12:\n  pop\n  swap1\n  jump\t// out\ntag_13:\ntag_14:\n  dup1\n  dup3\n  gt\n  iszero\n  tag_15\n  jumpi\n  0x00\n  dup2\n  0x00\n  swap1\n  sstore\n  pop\n  0x01\n  add\n  jump(tag_14)\ntag_15:\n  pop\n  swap1\n  jump\t// out\n    /* \"#utility.yul\":7:187   */\ntag_16:\n    /* \"#utility.yul\":55:132   */\n  0x4e487b7100000000000000000000000000000000000000000000000000000000\n    /* \"#utility.yul\":52:53   */\n  0x00\n    /* \"#utility.yul\":45:133   */\n  mstore\n    /* \"#utility.yul\":152:156   */\n  0x22\n    /* \"#utility.yul\":149:150   */\n  0x04\n    /* \"#utility.yul\":142:157   */\n  mstore\n    /* \"#utility.yul\":176:180   */\n  0x24\n    /* \"#utility.yul\":173:174   */\n  0x00\n    /* \"#utility.yul\":166:181   */\n  revert\n    /* \"#utility.yul\":193:513   */\ntag_6:\n    /* \"#utility.yul\":237:243   */\n  0x00\n    /* \"#utility.yul\":274:275   */\n  0x02\n    /* \"#utility.yul\":268:272   */\n  dup3\n    /* \"#utility.yul\":264:276   */\n  div\n    /* \"#utility.yul\":254:276   */\n  swap1\n  pop\n    /* \"#utility.yul\":321:322   */\n  0x01\n    /* \"#utility.yul\":315:319   */\n  dup3\n    /* \"#utility.yul\":311:323   */\n  and\n    /* \"#utility.yul\":342:360   */\n  dup1\n    /* \"#utility.yul\":332:413   */\n  tag_20\n  jumpi\n    /* \"#utility.yul\":398:402   */\n  0x7f\n    /* \"#utility.yul\":390:396   */\n  dup3\n    /* \"#utility.yul\":386:403   */\n  and\n    /* \"#utility.yul\":376:403   */\n  swap2\n  pop\n    /* \"#utility.yul\":332:413   */\ntag_20:\n    /* \"#utility.yul\":460:462   */\n  0x20\n    /* \"#utility.yul\":452:458   */\n  dup3\n    /* \"#utility.yul\":449:463   */\n  lt\n    /* \"#utility.yul\":429:447   */\n  dup2\n    /* \"#utility.yul\":426:464   */\n  eq\n    /* \"#utility.yul\":423:507   */\n  iszero\n  tag_21\n  jumpi\n    /* \"#utility.yul\":479:497   */\n  tag_22\n  tag_16\n  jump\t// in\ntag_22:\n    /* \"#utility.yul\":423:507   */\ntag_21:\n    /* \"#utility.yul\":244:513   */\n  pop\n    /* \"#utility.yul\":193:513   */\n  swap2\n  swap1\n  pop\n  jump\t// out\n    /* \"Contracts/PickEvenOrOdd.sol\":159:2489  contract PickEvenOrOdd{... */\ntag_4:\n  dataSize(sub_0)\n  dup1\n  dataOffset(sub_0)\n  0x00\n  codecopy\n  0x00\n  return\nstop\n\nsub_0: assembly {\n        /* \"Contracts/PickEvenOrOdd.sol\":159:2489  contract PickEvenOrOdd{... */\n      mstore(0x40, 0x80)\n      callvalue\n      dup1\n      iszero\n      tag_1\n      jumpi\n      0x00\n      dup1\n      revert\n    tag_1:\n      pop\n      jumpi(tag_2, lt(calldatasize, 0x04))\n      shr(0xe0, calldataload(0x00))\n      dup1\n      0x53a04b05\n      eq\n      tag_3\n      jumpi\n      dup1\n      0x98c8d81f\n      eq\n      tag_4\n      jumpi\n      dup1\n      0x98f42fe3\n      eq\n      tag_5\n      jumpi\n    tag_2:\n      0x00\n      dup1\n      revert\n        /* \"Contracts/PickEvenOrOdd.sol\":1396:2486  function play(uint8 number) public view returns(string memory) {... */\n    tag_3:\n      tag_6\n      0x04\n      dup1\n      calldatasize\n      sub\n      dup2\n      add\n      swap1\n      tag_7\n      swap2\n      swap1\n      tag_8\n      jump\t// in\n    tag_7:\n      tag_9\n      jump\t// in\n    tag_6:\n      mload(0x40)\n      tag_10\n      swap2\n      swap1\n      tag_11\n      jump\t// in\n    tag_10:\n      mload(0x40)\n      dup1\n      swap2\n      sub\n      swap1\n      return\n        /* \"Contracts/PickEvenOrOdd.sol\":720:1038  function choose(string memory newChoice) public{... */\n    tag_4:\n      tag_12\n      0x04\n      dup1\n      calldatasize\n      sub\n      dup2\n      add\n      swap1\n      tag_13\n      swap2\n      swap1\n      tag_14\n      jump\t// in\n    tag_13:\n      tag_15\n      jump\t// in\n    tag_12:\n      stop\n        /* \"Contracts/PickEvenOrOdd.sol\":190:216  string public  choice = \"\" */\n    tag_5:\n      tag_16\n      tag_17\n      jump\t// in\n    tag_16:\n      mload(0x40)\n      tag_18\n      swap2\n      swap1\n      tag_11\n      jump\t// in\n    tag_18:\n      mload(0x40)\n      dup1\n      swap2\n      sub\n      swap1\n      return\n        /* \"Contracts/PickEvenOrOdd.sol\":1396:2486  function play(uint8 number) public view returns(string memory) {... */\n    tag_9:\n        /* \"Contracts/PickEvenOrOdd.sol\":1444:1457  string memory */\n      0x60\n        /* \"Contracts/PickEvenOrOdd.sol\":1519:1520  0 */\n      0x00\n        /* \"Contracts/PickEvenOrOdd.sol\":1509:1515  number */\n      dup3\n        /* \"Contracts/PickEvenOrOdd.sol\":1509:1520  number >= 0 */\n      0xff\n      and\n      lt\n      iszero\n        /* \"Contracts/PickEvenOrOdd.sol\":1509:1535  number >= 0 && number <= 2 */\n      dup1\n      iszero\n      tag_20\n      jumpi\n      pop\n        /* \"Contracts/PickEvenOrOdd.sol\":1534:1535  2 */\n      0x02\n        /* \"Contracts/PickEvenOrOdd.sol\":1524:1530  number */\n      dup3\n        /* \"Contracts/PickEvenOrOdd.sol\":1524:1535  number <= 2 */\n      0xff\n      and\n      gt\n      iszero\n        /* \"Contracts/PickEvenOrOdd.sol\":1509:1535  number >= 0 && number <= 2 */\n    tag_20:\n        /* \"Contracts/PickEvenOrOdd.sol\":1501:1560  require(number >= 0 && number <= 2, \"Play with: 0, 1 or 2\") */\n      tag_21\n      jumpi\n      mload(0x40)\n      0x08c379a000000000000000000000000000000000000000000000000000000000\n      dup2\n      mstore\n      0x04\n      add\n      tag_22\n      swap1\n      tag_23\n      jump\t// in\n    tag_22:\n      mload(0x40)\n      dup1\n      swap2\n      sub\n      swap1\n      revert\n    tag_21:\n        /* \"Contracts/PickEvenOrOdd.sol\":1612:1637  compareString(choice, \"\") */\n      tag_24\n        /* \"Contracts/PickEvenOrOdd.sol\":1626:1632  choice */\n      0x00\n        /* \"Contracts/PickEvenOrOdd.sol\":1612:1637  compareString(choice, \"\") */\n      dup1\n      sload\n      tag_25\n      swap1\n      tag_26\n      jump\t// in\n    tag_25:\n      dup1\n      0x1f\n      add\n      0x20\n      dup1\n      swap2\n      div\n      mul\n      0x20\n      add\n      mload(0x40)\n      swap1\n      dup2\n      add\n      0x40\n      mstore\n      dup1\n      swap3\n      swap2\n      swap1\n      dup2\n      dup2\n      mstore\n      0x20\n      add\n      dup3\n      dup1\n      sload\n      tag_27\n      swap1\n      tag_26\n      jump\t// in\n    tag_27:\n      dup1\n      iszero\n      tag_28\n      jumpi\n      dup1\n      0x1f\n      lt\n      tag_29\n      jumpi\n      0x0100\n      dup1\n      dup4\n      sload\n      div\n      mul\n      dup4\n      mstore\n      swap2\n      0x20\n      add\n      swap2\n      jump(tag_28)\n    tag_29:\n      dup3\n      add\n      swap2\n      swap1\n      0x00\n      mstore\n      keccak256(0x00, 0x20)\n      swap1\n    tag_30:\n      dup2\n      sload\n      dup2\n      mstore\n      swap1\n      0x01\n      add\n      swap1\n      0x20\n      add\n      dup1\n      dup4\n      gt\n      tag_30\n      jumpi\n      dup3\n      swap1\n      sub\n      0x1f\n      and\n      dup3\n      add\n      swap2\n    tag_28:\n      pop\n      pop\n      pop\n      pop\n      pop\n      mload(0x40)\n      dup1\n      0x20\n      add\n      0x40\n      mstore\n      dup1\n      0x00\n      dup2\n      mstore\n      pop\n        /* \"Contracts/PickEvenOrOdd.sol\":1612:1625  compareString */\n      tag_31\n        /* \"Contracts/PickEvenOrOdd.sol\":1612:1637  compareString(choice, \"\") */\n      jump\t// in\n    tag_24:\n        /* \"Contracts/PickEvenOrOdd.sol\":1611:1637  !compareString(choice, \"\") */\n      iszero\n        /* \"Contracts/PickEvenOrOdd.sol\":1603:1668  require(!compareString(choice, \"\"), \"First, choose: EVEN or ODD\") */\n      tag_32\n      jumpi\n      mload(0x40)\n      0x08c379a000000000000000000000000000000000000000000000000000000000\n      dup2\n      mstore\n      0x04\n      add\n      tag_33\n      swap1\n      tag_34\n      jump\t// in\n    tag_33:\n      mload(0x40)\n      dup1\n      swap2\n      sub\n      swap1\n      revert\n    tag_32:\n        /* \"Contracts/PickEvenOrOdd.sol\":1715:1729  uint cpuNumber */\n      0x00\n        /* \"Contracts/PickEvenOrOdd.sol\":1732:1740  random() */\n      tag_35\n        /* \"Contracts/PickEvenOrOdd.sol\":1732:1738  random */\n      tag_36\n        /* \"Contracts/PickEvenOrOdd.sol\":1732:1740  random() */\n      jump\t// in\n    tag_35:\n        /* \"Contracts/PickEvenOrOdd.sol\":1715:1740  uint cpuNumber = random() */\n      swap1\n      pop\n        /* \"Contracts/PickEvenOrOdd.sol\":1777:1788  bool isEven */\n      0x00\n        /* \"Contracts/PickEvenOrOdd.sol\":1819:1820  0 */\n      dup1\n        /* \"Contracts/PickEvenOrOdd.sol\":1814:1815  2 */\n      0x02\n        /* \"Contracts/PickEvenOrOdd.sol\":1804:1810  number */\n      dup6\n        /* \"Contracts/PickEvenOrOdd.sol\":1792:1810  cpuNumber + number */\n      0xff\n      and\n        /* \"Contracts/PickEvenOrOdd.sol\":1792:1801  cpuNumber */\n      dup5\n        /* \"Contracts/PickEvenOrOdd.sol\":1792:1810  cpuNumber + number */\n      tag_37\n      swap2\n      swap1\n      tag_38\n      jump\t// in\n    tag_37:\n        /* \"Contracts/PickEvenOrOdd.sol\":1791:1815  (cpuNumber + number) % 2 */\n      tag_39\n      swap2\n      swap1\n      tag_40\n      jump\t// in\n    tag_39:\n        /* \"Contracts/PickEvenOrOdd.sol\":1791:1820  (cpuNumber + number) % 2 == 0 */\n      eq\n        /* \"Contracts/PickEvenOrOdd.sol\":1777:1820  bool isEven = (cpuNumber + number) % 2 == 0 */\n      swap1\n      pop\n        /* \"Contracts/PickEvenOrOdd.sol\":1860:1881  string memory message */\n      0x00\n        /* \"Contracts/PickEvenOrOdd.sol\":1917:1923  choice */\n      dup1\n        /* \"Contracts/PickEvenOrOdd.sol\":1990:2014  Strings.toString(number) */\n      tag_41\n        /* \"Contracts/PickEvenOrOdd.sol\":2007:2013  number */\n      dup7\n        /* \"Contracts/PickEvenOrOdd.sol\":1990:2014  Strings.toString(number) */\n      0xff\n      and\n        /* \"Contracts/PickEvenOrOdd.sol\":1990:2006  Strings.toString */\n      tag_42\n        /* \"Contracts/PickEvenOrOdd.sol\":1990:2014  Strings.toString(number) */\n      jump\t// in\n    tag_41:\n        /* \"Contracts/PickEvenOrOdd.sol\":2081:2108  Strings.toString(cpuNumber) */\n      tag_43\n        /* \"Contracts/PickEvenOrOdd.sol\":2098:2107  cpuNumber */\n      dup6\n        /* \"Contracts/PickEvenOrOdd.sol\":2081:2097  Strings.toString */\n      tag_42\n        /* \"Contracts/PickEvenOrOdd.sol\":2081:2108  Strings.toString(cpuNumber) */\n      jump\t// in\n    tag_43:\n        /* \"Contracts/PickEvenOrOdd.sol\":1884:2109  string.concat(\"Player choose: \", choice, ... */\n      add(0x20, mload(0x40))\n      tag_44\n      swap4\n      swap3\n      swap2\n      swap1\n      tag_45\n      jump\t// in\n    tag_44:\n      mload(0x40)\n      0x20\n      dup2\n      dup4\n      sub\n      sub\n      dup2\n      mstore\n      swap1\n      0x40\n      mstore\n        /* \"Contracts/PickEvenOrOdd.sol\":1860:2109  string memory message = string.concat(\"Player choose: \", choice, ... */\n      swap1\n      pop\n        /* \"Contracts/PickEvenOrOdd.sol\":2145:2151  isEven */\n      dup2\n        /* \"Contracts/PickEvenOrOdd.sol\":2145:2184  isEven && compareString(choice, \"EVEN\") */\n      dup1\n      iszero\n      tag_46\n      jumpi\n      pop\n        /* \"Contracts/PickEvenOrOdd.sol\":2155:2184  compareString(choice, \"EVEN\") */\n      tag_47\n        /* \"Contracts/PickEvenOrOdd.sol\":2169:2175  choice */\n      0x00\n        /* \"Contracts/PickEvenOrOdd.sol\":2155:2184  compareString(choice, \"EVEN\") */\n      dup1\n      sload\n      tag_48\n      swap1\n      tag_26\n      jump\t// in\n    tag_48:\n      dup1\n      0x1f\n      add\n      0x20\n      dup1\n      swap2\n      div\n      mul\n      0x20\n      add\n      mload(0x40)\n      swap1\n      dup2\n      add\n      0x40\n      mstore\n      dup1\n      swap3\n      swap2\n      swap1\n      dup2\n      dup2\n      mstore\n      0x20\n      add\n      dup3\n      dup1\n      sload\n      tag_49\n      swap1\n      tag_26\n      jump\t// in\n    tag_49:\n      dup1\n      iszero\n      tag_50\n      jumpi\n      dup1\n      0x1f\n      lt\n      tag_51\n      jumpi\n      0x0100\n      dup1\n      dup4\n      sload\n      div\n      mul\n      dup4\n      mstore\n      swap2\n      0x20\n      add\n      swap2\n      jump(tag_50)\n    tag_51:\n      dup3\n      add\n      swap2\n      swap1\n      0x00\n      mstore\n      keccak256(0x00, 0x20)\n      swap1\n    tag_52:\n      dup2\n      sload\n      dup2\n      mstore\n      swap1\n      0x01\n      add\n      swap1\n      0x20\n      add\n      dup1\n      dup4\n      gt\n      tag_52\n      jumpi\n      dup3\n      swap1\n      sub\n      0x1f\n      and\n      dup3\n      add\n      swap2\n    tag_50:\n      pop\n      pop\n      pop\n      pop\n      pop\n      mload(0x40)\n      dup1\n      0x40\n      add\n      0x40\n      mstore\n      dup1\n      0x04\n      dup2\n      mstore\n      0x20\n      add\n      0x4556454e00000000000000000000000000000000000000000000000000000000\n      dup2\n      mstore\n      pop\n        /* \"Contracts/PickEvenOrOdd.sol\":2155:2168  compareString */\n      tag_31\n        /* \"Contracts/PickEvenOrOdd.sol\":2155:2184  compareString(choice, \"EVEN\") */\n      jump\t// in\n    tag_47:\n        /* \"Contracts/PickEvenOrOdd.sol\":2145:2184  isEven && compareString(choice, \"EVEN\") */\n    tag_46:\n        /* \"Contracts/PickEvenOrOdd.sol\":2142:2471  if(isEven && compareString(choice, \"EVEN\")){... */\n      iszero\n      tag_53\n      jumpi\n        /* \"Contracts/PickEvenOrOdd.sol\":2221:2228  message */\n      dup1\n        /* \"Contracts/PickEvenOrOdd.sol\":2207:2245  string.concat(message, \" Player WON!\") */\n      add(0x20, mload(0x40))\n      tag_54\n      swap2\n      swap1\n      tag_55\n      jump\t// in\n    tag_54:\n      mload(0x40)\n      0x20\n      dup2\n      dup4\n      sub\n      sub\n      dup2\n      mstore\n      swap1\n      0x40\n      mstore\n        /* \"Contracts/PickEvenOrOdd.sol\":2200:2245  return string.concat(message, \" Player WON!\") */\n      swap4\n      pop\n      pop\n      pop\n      pop\n      jump(tag_19)\n        /* \"Contracts/PickEvenOrOdd.sol\":2142:2471  if(isEven && compareString(choice, \"EVEN\")){... */\n    tag_53:\n        /* \"Contracts/PickEvenOrOdd.sol\":2276:2282  isEven */\n      dup2\n        /* \"Contracts/PickEvenOrOdd.sol\":2275:2282  !isEven */\n      iszero\n        /* \"Contracts/PickEvenOrOdd.sol\":2275:2314  !isEven && compareString(choice, \"ODD\") */\n      dup1\n      iszero\n      tag_57\n      jumpi\n      pop\n        /* \"Contracts/PickEvenOrOdd.sol\":2286:2314  compareString(choice, \"ODD\") */\n      tag_58\n        /* \"Contracts/PickEvenOrOdd.sol\":2300:2306  choice */\n      0x00\n        /* \"Contracts/PickEvenOrOdd.sol\":2286:2314  compareString(choice, \"ODD\") */\n      dup1\n      sload\n      tag_59\n      swap1\n      tag_26\n      jump\t// in\n    tag_59:\n      dup1\n      0x1f\n      add\n      0x20\n      dup1\n      swap2\n      div\n      mul\n      0x20\n      add\n      mload(0x40)\n      swap1\n      dup2\n      add\n      0x40\n      mstore\n      dup1\n      swap3\n      swap2\n      swap1\n      dup2\n      dup2\n      mstore\n      0x20\n      add\n      dup3\n      dup1\n      sload\n      tag_60\n      swap1\n      tag_26\n      jump\t// in\n    tag_60:\n      dup1\n      iszero\n      tag_61\n      jumpi\n      dup1\n      0x1f\n      lt\n      tag_62\n      jumpi\n      0x0100\n      dup1\n      dup4\n      sload\n      div\n      mul\n      dup4\n      mstore\n      swap2\n      0x20\n      add\n      swap2\n      jump(tag_61)\n    tag_62:\n      dup3\n      add\n      swap2\n      swap1\n      0x00\n      mstore\n      keccak256(0x00, 0x20)\n      swap1\n    tag_63:\n      dup2\n      sload\n      dup2\n      mstore\n      swap1\n      0x01\n      add\n      swap1\n      0x20\n      add\n      dup1\n      dup4\n      gt\n      tag_63\n      jumpi\n      dup3\n      swap1\n      sub\n      0x1f\n      and\n      dup3\n      add\n      swap2\n    tag_61:\n      pop\n      pop\n      pop\n      pop\n      pop\n      mload(0x40)\n      dup1\n      0x40\n      add\n      0x40\n      mstore\n      dup1\n      0x03\n      dup2\n      mstore\n      0x20\n      add\n      0x4f44440000000000000000000000000000000000000000000000000000000000\n      dup2\n      mstore\n      pop\n        /* \"Contracts/PickEvenOrOdd.sol\":2286:2299  compareString */\n      tag_31\n        /* \"Contracts/PickEvenOrOdd.sol\":2286:2314  compareString(choice, \"ODD\") */\n      jump\t// in\n    tag_58:\n        /* \"Contracts/PickEvenOrOdd.sol\":2275:2314  !isEven && compareString(choice, \"ODD\") */\n    tag_57:\n        /* \"Contracts/PickEvenOrOdd.sol\":2272:2471  if(!isEven && compareString(choice, \"ODD\")) {... */\n      iszero\n      tag_64\n      jumpi\n        /* \"Contracts/PickEvenOrOdd.sol\":2352:2359  message */\n      dup1\n        /* \"Contracts/PickEvenOrOdd.sol\":2338:2376  string.concat(message, \" Player WON!\") */\n      add(0x20, mload(0x40))\n      tag_65\n      swap2\n      swap1\n      tag_55\n      jump\t// in\n    tag_65:\n      mload(0x40)\n      0x20\n      dup2\n      dup4\n      sub\n      sub\n      dup2\n      mstore\n      swap1\n      0x40\n      mstore\n        /* \"Contracts/PickEvenOrOdd.sol\":2331:2376  return string.concat(message, \" Player WON!\") */\n      swap4\n      pop\n      pop\n      pop\n      pop\n      jump(tag_19)\n        /* \"Contracts/PickEvenOrOdd.sol\":2272:2471  if(!isEven && compareString(choice, \"ODD\")) {... */\n    tag_64:\n        /* \"Contracts/PickEvenOrOdd.sol\":2438:2445  message */\n      dup1\n        /* \"Contracts/PickEvenOrOdd.sol\":2424:2459  string.concat(message, \" CPU WON!\") */\n      add(0x20, mload(0x40))\n      tag_67\n      swap2\n      swap1\n      tag_68\n      jump\t// in\n    tag_67:\n      mload(0x40)\n      0x20\n      dup2\n      dup4\n      sub\n      sub\n      dup2\n      mstore\n      swap1\n      0x40\n      mstore\n        /* \"Contracts/PickEvenOrOdd.sol\":2417:2459  return string.concat(message, \" CPU WON!\") */\n      swap4\n      pop\n      pop\n      pop\n      pop\n        /* \"Contracts/PickEvenOrOdd.sol\":1396:2486  function play(uint8 number) public view returns(string memory) {... */\n    tag_19:\n      swap2\n      swap1\n      pop\n      jump\t// out\n        /* \"Contracts/PickEvenOrOdd.sol\":720:1038  function choose(string memory newChoice) public{... */\n    tag_15:\n        /* \"Contracts/PickEvenOrOdd.sol\":892:924  compareString(newChoice, \"EVEN\") */\n      tag_70\n        /* \"Contracts/PickEvenOrOdd.sol\":906:915  newChoice */\n      dup2\n        /* \"Contracts/PickEvenOrOdd.sol\":892:924  compareString(newChoice, \"EVEN\") */\n      mload(0x40)\n      dup1\n      0x40\n      add\n      0x40\n      mstore\n      dup1\n      0x04\n      dup2\n      mstore\n      0x20\n      add\n      0x4556454e00000000000000000000000000000000000000000000000000000000\n      dup2\n      mstore\n      pop\n        /* \"Contracts/PickEvenOrOdd.sol\":892:905  compareString */\n      tag_31\n        /* \"Contracts/PickEvenOrOdd.sol\":892:924  compareString(newChoice, \"EVEN\") */\n      jump\t// in\n    tag_70:\n        /* \"Contracts/PickEvenOrOdd.sol\":892:959  compareString(newChoice, \"EVEN\") || compareString(newChoice, \"ODD\") */\n      dup1\n      tag_71\n      jumpi\n      pop\n        /* \"Contracts/PickEvenOrOdd.sol\":928:959  compareString(newChoice, \"ODD\") */\n      tag_72\n        /* \"Contracts/PickEvenOrOdd.sol\":942:951  newChoice */\n      dup2\n        /* \"Contracts/PickEvenOrOdd.sol\":928:959  compareString(newChoice, \"ODD\") */\n      mload(0x40)\n      dup1\n      0x40\n      add\n      0x40\n      mstore\n      dup1\n      0x03\n      dup2\n      mstore\n      0x20\n      add\n      0x4f44440000000000000000000000000000000000000000000000000000000000\n      dup2\n      mstore\n      pop\n        /* \"Contracts/PickEvenOrOdd.sol\":928:941  compareString */\n      tag_31\n        /* \"Contracts/PickEvenOrOdd.sol\":928:959  compareString(newChoice, \"ODD\") */\n      jump\t// in\n    tag_72:\n        /* \"Contracts/PickEvenOrOdd.sol\":892:959  compareString(newChoice, \"EVEN\") || compareString(newChoice, \"ODD\") */\n    tag_71:\n        /* \"Contracts/PickEvenOrOdd.sol\":884:983  require(compareString(newChoice, \"EVEN\") || compareString(newChoice, \"ODD\"), \"Choose: EVEN or ODD\") */\n      tag_73\n      jumpi\n      mload(0x40)\n      0x08c379a000000000000000000000000000000000000000000000000000000000\n      dup2\n      mstore\n      0x04\n      add\n      tag_74\n      swap1\n      tag_75\n      jump\t// in\n    tag_74:\n      mload(0x40)\n      dup1\n      swap2\n      sub\n      swap1\n      revert\n    tag_73:\n        /* \"Contracts/PickEvenOrOdd.sol\":1021:1030  newChoice */\n      dup1\n        /* \"Contracts/PickEvenOrOdd.sol\":1012:1018  choice */\n      0x00\n        /* \"Contracts/PickEvenOrOdd.sol\":1012:1030  choice = newChoice */\n      swap1\n      dup1\n      mload\n      swap1\n      0x20\n      add\n      swap1\n      tag_76\n      swap3\n      swap2\n      swap1\n      tag_77\n      jump\t// in\n    tag_76:\n      pop\n        /* \"Contracts/PickEvenOrOdd.sol\":720:1038  function choose(string memory newChoice) public{... */\n      pop\n      jump\t// out\n        /* \"Contracts/PickEvenOrOdd.sol\":190:216  string public  choice = \"\" */\n    tag_17:\n      0x00\n      dup1\n      sload\n      tag_78\n      swap1\n      tag_26\n      jump\t// in\n    tag_78:\n      dup1\n      0x1f\n      add\n      0x20\n      dup1\n      swap2\n      div\n      mul\n      0x20\n      add\n      mload(0x40)\n      swap1\n      dup2\n      add\n      0x40\n      mstore\n      dup1\n      swap3\n      swap2\n      swap1\n      dup2\n      dup2\n      mstore\n      0x20\n      add\n      dup3\n      dup1\n      sload\n      tag_79\n      swap1\n      tag_26\n      jump\t// in\n    tag_79:\n      dup1\n      iszero\n      tag_80\n      jumpi\n      dup1\n      0x1f\n      lt\n      tag_81\n      jumpi\n      0x0100\n      dup1\n      dup4\n      sload\n      div\n      mul\n      dup4\n      mstore\n      swap2\n      0x20\n      add\n      swap2\n      jump(tag_80)\n    tag_81:\n      dup3\n      add\n      swap2\n      swap1\n      0x00\n      mstore\n      keccak256(0x00, 0x20)\n      swap1\n    tag_82:\n      dup2\n      sload\n      dup2\n      mstore\n      swap1\n      0x01\n      add\n      swap1\n      0x20\n      add\n      dup1\n      dup4\n      gt\n      tag_82\n      jumpi\n      dup3\n      swap1\n      sub\n      0x1f\n      and\n      dup3\n      add\n      swap2\n    tag_80:\n      pop\n      pop\n      pop\n      pop\n      pop\n      dup2\n      jump\t// out\n        /* \"Contracts/PickEvenOrOdd.sol\":398:662  function compareString(string memory str1, string memory str2) private pure returns(bool) {... */\n    tag_31:\n        /* \"Contracts/PickEvenOrOdd.sol\":482:486  bool */\n      0x00\n        /* \"Contracts/PickEvenOrOdd.sol\":499:516  bytes memory arrA */\n      dup1\n        /* \"Contracts/PickEvenOrOdd.sol\":525:529  str1 */\n      dup4\n        /* \"Contracts/PickEvenOrOdd.sol\":499:530  bytes memory arrA = bytes(str1) */\n      swap1\n      pop\n        /* \"Contracts/PickEvenOrOdd.sol\":541:558  bytes memory arrB */\n      0x00\n        /* \"Contracts/PickEvenOrOdd.sol\":567:571  str2 */\n      dup4\n        /* \"Contracts/PickEvenOrOdd.sol\":541:572  bytes memory arrB = bytes(str2) */\n      swap1\n      pop\n        /* \"Contracts/PickEvenOrOdd.sol\":605:609  arrB */\n      dup1\n        /* \"Contracts/PickEvenOrOdd.sol\":605:616  arrB.length */\n      mload\n        /* \"Contracts/PickEvenOrOdd.sol\":590:594  arrA */\n      dup3\n        /* \"Contracts/PickEvenOrOdd.sol\":590:601  arrA.length */\n      mload\n        /* \"Contracts/PickEvenOrOdd.sol\":590:616  arrA.length == arrB.length */\n      eq\n        /* \"Contracts/PickEvenOrOdd.sol\":590:654  arrA.length == arrB.length && keccak256(arrA) == keccak256(arrB) */\n      dup1\n      iszero\n      tag_84\n      jumpi\n      pop\n        /* \"Contracts/PickEvenOrOdd.sol\":649:653  arrB */\n      dup1\n        /* \"Contracts/PickEvenOrOdd.sol\":639:654  keccak256(arrB) */\n      dup1\n      mload\n      swap1\n      0x20\n      add\n      keccak256\n        /* \"Contracts/PickEvenOrOdd.sol\":630:634  arrA */\n      dup3\n        /* \"Contracts/PickEvenOrOdd.sol\":620:635  keccak256(arrA) */\n      dup1\n      mload\n      swap1\n      0x20\n      add\n      keccak256\n        /* \"Contracts/PickEvenOrOdd.sol\":620:654  keccak256(arrA) == keccak256(arrB) */\n      eq\n        /* \"Contracts/PickEvenOrOdd.sol\":590:654  arrA.length == arrB.length && keccak256(arrA) == keccak256(arrB) */\n    tag_84:\n        /* \"Contracts/PickEvenOrOdd.sol\":583:654  return arrA.length == arrB.length && keccak256(arrA) == keccak256(arrB) */\n      swap3\n      pop\n      pop\n      pop\n        /* \"Contracts/PickEvenOrOdd.sol\":398:662  function compareString(string memory str1, string memory str2) private pure returns(bool) {... */\n      swap3\n      swap2\n      pop\n      pop\n      jump\t// out\n        /* \"Contracts/PickEvenOrOdd.sol\":1249:1386  function random() private view returns(uint) {... */\n    tag_36:\n        /* \"Contracts/PickEvenOrOdd.sol\":1288:1292  uint */\n      0x00\n        /* \"Contracts/PickEvenOrOdd.sol\":1377:1378  2 */\n      0x02\n        /* \"Contracts/PickEvenOrOdd.sol\":1346:1361  block.timestamp */\n      timestamp\n        /* \"Contracts/PickEvenOrOdd.sol\":1363:1369  choice */\n      0x00\n        /* \"Contracts/PickEvenOrOdd.sol\":1329:1370  abi.encodePacked(block.timestamp, choice) */\n      add(0x20, mload(0x40))\n      tag_86\n      swap3\n      swap2\n      swap1\n      tag_87\n      jump\t// in\n    tag_86:\n      mload(0x40)\n      0x20\n      dup2\n      dup4\n      sub\n      sub\n      dup2\n      mstore\n      swap1\n      0x40\n      mstore\n        /* \"Contracts/PickEvenOrOdd.sol\":1318:1372  keccak256( abi.encodePacked(block.timestamp, choice) ) */\n      dup1\n      mload\n      swap1\n      0x20\n      add\n      keccak256\n        /* \"Contracts/PickEvenOrOdd.sol\":1312:1374  uint( keccak256( abi.encodePacked(block.timestamp, choice) ) ) */\n      0x00\n      shr\n        /* \"Contracts/PickEvenOrOdd.sol\":1312:1378  uint( keccak256( abi.encodePacked(block.timestamp, choice) ) ) % 2 */\n      tag_88\n      swap2\n      swap1\n      tag_40\n      jump\t// in\n    tag_88:\n        /* \"Contracts/PickEvenOrOdd.sol\":1305:1378  return uint( keccak256( abi.encodePacked(block.timestamp, choice) ) ) % 2 */\n      swap1\n      pop\n        /* \"Contracts/PickEvenOrOdd.sol\":1249:1386  function random() private view returns(uint) {... */\n      swap1\n      jump\t// out\n        /* \"@openzeppelin/contracts/utils/Strings.sol\":447:1143  function toString(uint256 value) internal pure returns (string memory) {... */\n    tag_42:\n        /* \"@openzeppelin/contracts/utils/Strings.sol\":503:516  string memory */\n      0x60\n        /* \"@openzeppelin/contracts/utils/Strings.sol\":552:566  uint256 length */\n      0x00\n        /* \"@openzeppelin/contracts/utils/Strings.sol\":589:590  1 */\n      0x01\n        /* \"@openzeppelin/contracts/utils/Strings.sol\":569:586  Math.log10(value) */\n      tag_90\n        /* \"@openzeppelin/contracts/utils/Strings.sol\":580:585  value */\n      dup5\n        /* \"@openzeppelin/contracts/utils/Strings.sol\":569:579  Math.log10 */\n      tag_91\n        /* \"@openzeppelin/contracts/utils/Strings.sol\":569:586  Math.log10(value) */\n      jump\t// in\n    tag_90:\n        /* \"@openzeppelin/contracts/utils/Strings.sol\":569:590  Math.log10(value) + 1 */\n      add\n        /* \"@openzeppelin/contracts/utils/Strings.sol\":552:590  uint256 length = Math.log10(value) + 1 */\n      swap1\n      pop\n        /* \"@openzeppelin/contracts/utils/Strings.sol\":604:624  string memory buffer */\n      0x00\n        /* \"@openzeppelin/contracts/utils/Strings.sol\":638:644  length */\n      dup2\n        /* \"@openzeppelin/contracts/utils/Strings.sol\":627:645  new string(length) */\n      0xffffffffffffffff\n      dup2\n      gt\n      iszero\n      tag_92\n      jumpi\n      tag_93\n      tag_94\n      jump\t// in\n    tag_93:\n    tag_92:\n      mload(0x40)\n      swap1\n      dup1\n      dup3\n      mstore\n      dup1\n      0x1f\n      add\n      not(0x1f)\n      and\n      0x20\n      add\n      dup3\n      add\n      0x40\n      mstore\n      dup1\n      iszero\n      tag_95\n      jumpi\n      dup2\n      0x20\n      add\n      0x01\n      dup3\n      mul\n      dup1\n      calldatasize\n      dup4\n      calldatacopy\n      dup1\n      dup3\n      add\n      swap2\n      pop\n      pop\n      swap1\n      pop\n    tag_95:\n      pop\n        /* \"@openzeppelin/contracts/utils/Strings.sol\":604:645  string memory buffer = new string(length) */\n      swap1\n      pop\n        /* \"@openzeppelin/contracts/utils/Strings.sol\":659:670  uint256 ptr */\n      0x00\n        /* \"@openzeppelin/contracts/utils/Strings.sol\":785:791  length */\n      dup3\n        /* \"@openzeppelin/contracts/utils/Strings.sol\":781:783  32 */\n      0x20\n        /* \"@openzeppelin/contracts/utils/Strings.sol\":777:792  add(32, length) */\n      add\n        /* \"@openzeppelin/contracts/utils/Strings.sol\":769:775  buffer */\n      dup3\n        /* \"@openzeppelin/contracts/utils/Strings.sol\":765:793  add(buffer, add(32, length)) */\n      add\n        /* \"@openzeppelin/contracts/utils/Strings.sol\":758:793  ptr := add(buffer, add(32, length)) */\n      swap1\n      pop\n        /* \"@openzeppelin/contracts/utils/Strings.sol\":820:1100  while (true) {... */\n    tag_96:\n        /* \"@openzeppelin/contracts/utils/Strings.sol\":827:831  true */\n      0x01\n        /* \"@openzeppelin/contracts/utils/Strings.sol\":820:1100  while (true) {... */\n      iszero\n      tag_97\n      jumpi\n        /* \"@openzeppelin/contracts/utils/Strings.sol\":851:856  ptr-- */\n      dup1\n      dup1\n      0x01\n      swap1\n      sub\n      swap2\n      pop\n      pop\n        /* \"@openzeppelin/contracts/utils/Strings.sol\":990:998  _SYMBOLS */\n      0x3031323334353637383961626364656600000000000000000000000000000000\n        /* \"@openzeppelin/contracts/utils/Strings.sol\":985:987  10 */\n      0x0a\n        /* \"@openzeppelin/contracts/utils/Strings.sol\":978:983  value */\n      dup7\n        /* \"@openzeppelin/contracts/utils/Strings.sol\":974:988  mod(value, 10) */\n      mod\n        /* \"@openzeppelin/contracts/utils/Strings.sol\":969:999  byte(mod(value, 10), _SYMBOLS) */\n      byte\n        /* \"@openzeppelin/contracts/utils/Strings.sol\":964:967  ptr */\n      dup2\n        /* \"@openzeppelin/contracts/utils/Strings.sol\":956:1000  mstore8(ptr, byte(mod(value, 10), _SYMBOLS)) */\n      mstore8\n        /* \"@openzeppelin/contracts/utils/Strings.sol\":1044:1046  10 */\n      0x0a\n        /* \"@openzeppelin/contracts/utils/Strings.sol\":1035:1046  value /= 10 */\n      dup6\n      dup2\n      tag_98\n      jumpi\n      tag_99\n      tag_100\n      jump\t// in\n    tag_99:\n    tag_98:\n      div\n      swap5\n      pop\n        /* \"@openzeppelin/contracts/utils/Strings.sol\":1077:1078  0 */\n      0x00\n        /* \"@openzeppelin/contracts/utils/Strings.sol\":1068:1073  value */\n      dup6\n        /* \"@openzeppelin/contracts/utils/Strings.sol\":1068:1078  value == 0 */\n      eq\n        /* \"@openzeppelin/contracts/utils/Strings.sol\":1064:1085  if (value == 0) break */\n      iszero\n      tag_101\n      jumpi\n        /* \"@openzeppelin/contracts/utils/Strings.sol\":1080:1085  break */\n      jump(tag_97)\n        /* \"@openzeppelin/contracts/utils/Strings.sol\":1064:1085  if (value == 0) break */\n    tag_101:\n        /* \"@openzeppelin/contracts/utils/Strings.sol\":820:1100  while (true) {... */\n      jump(tag_96)\n    tag_97:\n        /* \"@openzeppelin/contracts/utils/Strings.sol\":1120:1126  buffer */\n      dup2\n        /* \"@openzeppelin/contracts/utils/Strings.sol\":1113:1126  return buffer */\n      swap4\n      pop\n      pop\n      pop\n      pop\n        /* \"@openzeppelin/contracts/utils/Strings.sol\":447:1143  function toString(uint256 value) internal pure returns (string memory) {... */\n      swap2\n      swap1\n      pop\n      jump\t// out\n        /* \"@openzeppelin/contracts/utils/math/Math.sol\":10139:11055  function log10(uint256 value) internal pure returns (uint256) {... */\n    tag_91:\n        /* \"@openzeppelin/contracts/utils/math/Math.sol\":10192:10199  uint256 */\n      0x00\n        /* \"@openzeppelin/contracts/utils/math/Math.sol\":10211:10225  uint256 result */\n      dup1\n        /* \"@openzeppelin/contracts/utils/math/Math.sol\":10228:10229  0 */\n      0x00\n        /* \"@openzeppelin/contracts/utils/math/Math.sol\":10211:10229  uint256 result = 0 */\n      swap1\n      pop\n        /* \"@openzeppelin/contracts/utils/math/Math.sol\":10276:10284  10 ** 64 */\n      0x184f03e93ff9f4daa797ed6e38ed64bf6a1f010000000000000000\n        /* \"@openzeppelin/contracts/utils/math/Math.sol\":10267:10272  value */\n      dup4\n        /* \"@openzeppelin/contracts/utils/math/Math.sol\":10267:10284  value >= 10 ** 64 */\n      lt\n        /* \"@openzeppelin/contracts/utils/math/Math.sol\":10263:10366  if (value >= 10 ** 64) {... */\n      tag_103\n      jumpi\n        /* \"@openzeppelin/contracts/utils/math/Math.sol\":10313:10321  10 ** 64 */\n      0x184f03e93ff9f4daa797ed6e38ed64bf6a1f010000000000000000\n        /* \"@openzeppelin/contracts/utils/math/Math.sol\":10304:10321  value /= 10 ** 64 */\n      dup4\n      dup2\n      tag_104\n      jumpi\n      tag_105\n      tag_100\n      jump\t// in\n    tag_105:\n    tag_104:\n      div\n      swap3\n      pop\n        /* \"@openzeppelin/contracts/utils/math/Math.sol\":10349:10351  64 */\n      0x40\n        /* \"@openzeppelin/contracts/utils/math/Math.sol\":10339:10351  result += 64 */\n      dup2\n      add\n      swap1\n      pop\n        /* \"@openzeppelin/contracts/utils/math/Math.sol\":10263:10366  if (value >= 10 ** 64) {... */\n    tag_103:\n        /* \"@openzeppelin/contracts/utils/math/Math.sol\":10392:10400  10 ** 32 */\n      0x04ee2d6d415b85acef8100000000\n        /* \"@openzeppelin/contracts/utils/math/Math.sol\":10383:10388  value */\n      dup4\n        /* \"@openzeppelin/contracts/utils/math/Math.sol\":10383:10400  value >= 10 ** 32 */\n      lt\n        /* \"@openzeppelin/contracts/utils/math/Math.sol\":10379:10482  if (value >= 10 ** 32) {... */\n      tag_106\n      jumpi\n        /* \"@openzeppelin/contracts/utils/math/Math.sol\":10429:10437  10 ** 32 */\n      0x04ee2d6d415b85acef8100000000\n        /* \"@openzeppelin/contracts/utils/math/Math.sol\":10420:10437  value /= 10 ** 32 */\n      dup4\n      dup2\n      tag_107\n      jumpi\n      tag_108\n      tag_100\n      jump\t// in\n    tag_108:\n    tag_107:\n      div\n      swap3\n      pop\n        /* \"@openzeppelin/contracts/utils/math/Math.sol\":10465:10467  32 */\n      0x20\n        /* \"@openzeppelin/contracts/utils/math/Math.sol\":10455:10467  result += 32 */\n      dup2\n      add\n      swap1\n      pop\n        /* \"@openzeppelin/contracts/utils/math/Math.sol\":10379:10482  if (value >= 10 ** 32) {... */\n    tag_106:\n        /* \"@openzeppelin/contracts/utils/math/Math.sol\":10508:10516  10 ** 16 */\n      0x2386f26fc10000\n        /* \"@openzeppelin/contracts/utils/math/Math.sol\":10499:10504  value */\n      dup4\n        /* \"@openzeppelin/contracts/utils/math/Math.sol\":10499:10516  value >= 10 ** 16 */\n      lt\n        /* \"@openzeppelin/contracts/utils/math/Math.sol\":10495:10598  if (value >= 10 ** 16) {... */\n      tag_109\n      jumpi\n        /* \"@openzeppelin/contracts/utils/math/Math.sol\":10545:10553  10 ** 16 */\n      0x2386f26fc10000\n        /* \"@openzeppelin/contracts/utils/math/Math.sol\":10536:10553  value /= 10 ** 16 */\n      dup4\n      dup2\n      tag_110\n      jumpi\n      tag_111\n      tag_100\n      jump\t// in\n    tag_111:\n    tag_110:\n      div\n      swap3\n      pop\n        /* \"@openzeppelin/contracts/utils/math/Math.sol\":10581:10583  16 */\n      0x10\n        /* \"@openzeppelin/contracts/utils/math/Math.sol\":10571:10583  result += 16 */\n      dup2\n      add\n      swap1\n      pop\n        /* \"@openzeppelin/contracts/utils/math/Math.sol\":10495:10598  if (value >= 10 ** 16) {... */\n    tag_109:\n        /* \"@openzeppelin/contracts/utils/math/Math.sol\":10624:10631  10 ** 8 */\n      0x05f5e100\n        /* \"@openzeppelin/contracts/utils/math/Math.sol\":10615:10620  value */\n      dup4\n        /* \"@openzeppelin/contracts/utils/math/Math.sol\":10615:10631  value >= 10 ** 8 */\n      lt\n        /* \"@openzeppelin/contracts/utils/math/Math.sol\":10611:10711  if (value >= 10 ** 8) {... */\n      tag_112\n      jumpi\n        /* \"@openzeppelin/contracts/utils/math/Math.sol\":10660:10667  10 ** 8 */\n      0x05f5e100\n        /* \"@openzeppelin/contracts/utils/math/Math.sol\":10651:10667  value /= 10 ** 8 */\n      dup4\n      dup2\n      tag_113\n      jumpi\n      tag_114\n      tag_100\n      jump\t// in\n    tag_114:\n    tag_113:\n      div\n      swap3\n      pop\n        /* \"@openzeppelin/contracts/utils/math/Math.sol\":10695:10696  8 */\n      0x08\n        /* \"@openzeppelin/contracts/utils/math/Math.sol\":10685:10696  result += 8 */\n      dup2\n      add\n      swap1\n      pop\n        /* \"@openzeppelin/contracts/utils/math/Math.sol\":10611:10711  if (value >= 10 ** 8) {... */\n    tag_112:\n        /* \"@openzeppelin/contracts/utils/math/Math.sol\":10737:10744  10 ** 4 */\n      0x2710\n        /* \"@openzeppelin/contracts/utils/math/Math.sol\":10728:10733  value */\n      dup4\n        /* \"@openzeppelin/contracts/utils/math/Math.sol\":10728:10744  value >= 10 ** 4 */\n      lt\n        /* \"@openzeppelin/contracts/utils/math/Math.sol\":10724:10824  if (value >= 10 ** 4) {... */\n      tag_115\n      jumpi\n        /* \"@openzeppelin/contracts/utils/math/Math.sol\":10773:10780  10 ** 4 */\n      0x2710\n        /* \"@openzeppelin/contracts/utils/math/Math.sol\":10764:10780  value /= 10 ** 4 */\n      dup4\n      dup2\n      tag_116\n      jumpi\n      tag_117\n      tag_100\n      jump\t// in\n    tag_117:\n    tag_116:\n      div\n      swap3\n      pop\n        /* \"@openzeppelin/contracts/utils/math/Math.sol\":10808:10809  4 */\n      0x04\n        /* \"@openzeppelin/contracts/utils/math/Math.sol\":10798:10809  result += 4 */\n      dup2\n      add\n      swap1\n      pop\n        /* \"@openzeppelin/contracts/utils/math/Math.sol\":10724:10824  if (value >= 10 ** 4) {... */\n    tag_115:\n        /* \"@openzeppelin/contracts/utils/math/Math.sol\":10850:10857  10 ** 2 */\n      0x64\n        /* \"@openzeppelin/contracts/utils/math/Math.sol\":10841:10846  value */\n      dup4\n        /* \"@openzeppelin/contracts/utils/math/Math.sol\":10841:10857  value >= 10 ** 2 */\n      lt\n        /* \"@openzeppelin/contracts/utils/math/Math.sol\":10837:10937  if (value >= 10 ** 2) {... */\n      tag_118\n      jumpi\n        /* \"@openzeppelin/contracts/utils/math/Math.sol\":10886:10893  10 ** 2 */\n      0x64\n        /* \"@openzeppelin/contracts/utils/math/Math.sol\":10877:10893  value /= 10 ** 2 */\n      dup4\n      dup2\n      tag_119\n      jumpi\n      tag_120\n      tag_100\n      jump\t// in\n    tag_120:\n    tag_119:\n      div\n      swap3\n      pop\n        /* \"@openzeppelin/contracts/utils/math/Math.sol\":10921:10922  2 */\n      0x02\n        /* \"@openzeppelin/contracts/utils/math/Math.sol\":10911:10922  result += 2 */\n      dup2\n      add\n      swap1\n      pop\n        /* \"@openzeppelin/contracts/utils/math/Math.sol\":10837:10937  if (value >= 10 ** 2) {... */\n    tag_118:\n        /* \"@openzeppelin/contracts/utils/math/Math.sol\":10963:10970  10 ** 1 */\n      0x0a\n        /* \"@openzeppelin/contracts/utils/math/Math.sol\":10954:10959  value */\n      dup4\n        /* \"@openzeppelin/contracts/utils/math/Math.sol\":10954:10970  value >= 10 ** 1 */\n      lt\n        /* \"@openzeppelin/contracts/utils/math/Math.sol\":10950:11016  if (value >= 10 ** 1) {... */\n      tag_121\n      jumpi\n        /* \"@openzeppelin/contracts/utils/math/Math.sol\":11000:11001  1 */\n      0x01\n        /* \"@openzeppelin/contracts/utils/math/Math.sol\":10990:11001  result += 1 */\n      dup2\n      add\n      swap1\n      pop\n        /* \"@openzeppelin/contracts/utils/math/Math.sol\":10950:11016  if (value >= 10 ** 1) {... */\n    tag_121:\n        /* \"@openzeppelin/contracts/utils/math/Math.sol\":11042:11048  result */\n      dup1\n        /* \"@openzeppelin/contracts/utils/math/Math.sol\":11035:11048  return result */\n      swap2\n      pop\n      pop\n        /* \"@openzeppelin/contracts/utils/math/Math.sol\":10139:11055  function log10(uint256 value) internal pure returns (uint256) {... */\n      swap2\n      swap1\n      pop\n      jump\t// out\n    tag_77:\n      dup3\n      dup1\n      sload\n      tag_122\n      swap1\n      tag_26\n      jump\t// in\n    tag_122:\n      swap1\n      0x00\n      mstore\n      keccak256(0x00, 0x20)\n      swap1\n      0x1f\n      add\n      0x20\n      swap1\n      div\n      dup2\n      add\n      swap3\n      dup3\n      tag_124\n      jumpi\n      0x00\n      dup6\n      sstore\n      jump(tag_123)\n    tag_124:\n      dup3\n      0x1f\n      lt\n      tag_125\n      jumpi\n      dup1\n      mload\n      not(0xff)\n      and\n      dup4\n      dup1\n      add\n      or\n      dup6\n      sstore\n      jump(tag_123)\n    tag_125:\n      dup3\n      dup1\n      add\n      0x01\n      add\n      dup6\n      sstore\n      dup3\n      iszero\n      tag_123\n      jumpi\n      swap2\n      dup3\n      add\n    tag_126:\n      dup3\n      dup2\n      gt\n      iszero\n      tag_127\n      jumpi\n      dup3\n      mload\n      dup3\n      sstore\n      swap2\n      0x20\n      add\n      swap2\n      swap1\n      0x01\n      add\n      swap1\n      jump(tag_126)\n    tag_127:\n    tag_123:\n      pop\n      swap1\n      pop\n      tag_128\n      swap2\n      swap1\n      tag_129\n      jump\t// in\n    tag_128:\n      pop\n      swap1\n      jump\t// out\n    tag_129:\n    tag_130:\n      dup1\n      dup3\n      gt\n      iszero\n      tag_131\n      jumpi\n      0x00\n      dup2\n      0x00\n      swap1\n      sstore\n      pop\n      0x01\n      add\n      jump(tag_130)\n    tag_131:\n      pop\n      swap1\n      jump\t// out\n        /* \"#utility.yul\":7:82   */\n    tag_132:\n        /* \"#utility.yul\":40:46   */\n      0x00\n        /* \"#utility.yul\":73:75   */\n      0x40\n        /* \"#utility.yul\":67:76   */\n      mload\n        /* \"#utility.yul\":57:76   */\n      swap1\n      pop\n        /* \"#utility.yul\":7:82   */\n      swap1\n      jump\t// out\n        /* \"#utility.yul\":88:205   */\n    tag_133:\n        /* \"#utility.yul\":197:198   */\n      0x00\n        /* \"#utility.yul\":194:195   */\n      dup1\n        /* \"#utility.yul\":187:199   */\n      revert\n        /* \"#utility.yul\":211:328   */\n    tag_134:\n        /* \"#utility.yul\":320:321   */\n      0x00\n        /* \"#utility.yul\":317:318   */\n      dup1\n        /* \"#utility.yul\":310:322   */\n      revert\n        /* \"#utility.yul\":334:420   */\n    tag_135:\n        /* \"#utility.yul\":369:376   */\n      0x00\n        /* \"#utility.yul\":409:413   */\n      0xff\n        /* \"#utility.yul\":402:407   */\n      dup3\n        /* \"#utility.yul\":398:414   */\n      and\n        /* \"#utility.yul\":387:414   */\n      swap1\n      pop\n        /* \"#utility.yul\":334:420   */\n      swap2\n      swap1\n      pop\n      jump\t// out\n        /* \"#utility.yul\":426:544   */\n    tag_136:\n        /* \"#utility.yul\":497:519   */\n      tag_177\n        /* \"#utility.yul\":513:518   */\n      dup2\n        /* \"#utility.yul\":497:519   */\n      tag_135\n      jump\t// in\n    tag_177:\n        /* \"#utility.yul\":490:495   */\n      dup2\n        /* \"#utility.yul\":487:520   */\n      eq\n        /* \"#utility.yul\":477:538   */\n      tag_178\n      jumpi\n        /* \"#utility.yul\":534:535   */\n      0x00\n        /* \"#utility.yul\":531:532   */\n      dup1\n        /* \"#utility.yul\":524:536   */\n      revert\n        /* \"#utility.yul\":477:538   */\n    tag_178:\n        /* \"#utility.yul\":426:544   */\n      pop\n      jump\t// out\n        /* \"#utility.yul\":550:685   */\n    tag_137:\n        /* \"#utility.yul\":594:599   */\n      0x00\n        /* \"#utility.yul\":632:638   */\n      dup2\n        /* \"#utility.yul\":619:639   */\n      calldataload\n        /* \"#utility.yul\":610:639   */\n      swap1\n      pop\n        /* \"#utility.yul\":648:679   */\n      tag_180\n        /* \"#utility.yul\":673:678   */\n      dup2\n        /* \"#utility.yul\":648:679   */\n      tag_136\n      jump\t// in\n    tag_180:\n        /* \"#utility.yul\":550:685   */\n      swap3\n      swap2\n      pop\n      pop\n      jump\t// out\n        /* \"#utility.yul\":691:1016   */\n    tag_8:\n        /* \"#utility.yul\":748:754   */\n      0x00\n        /* \"#utility.yul\":797:799   */\n      0x20\n        /* \"#utility.yul\":785:794   */\n      dup3\n        /* \"#utility.yul\":776:783   */\n      dup5\n        /* \"#utility.yul\":772:795   */\n      sub\n        /* \"#utility.yul\":768:800   */\n      slt\n        /* \"#utility.yul\":765:884   */\n      iszero\n      tag_182\n      jumpi\n        /* \"#utility.yul\":803:882   */\n      tag_183\n      tag_133\n      jump\t// in\n    tag_183:\n        /* \"#utility.yul\":765:884   */\n    tag_182:\n        /* \"#utility.yul\":923:924   */\n      0x00\n        /* \"#utility.yul\":948:999   */\n      tag_184\n        /* \"#utility.yul\":991:998   */\n      dup5\n        /* \"#utility.yul\":982:988   */\n      dup3\n        /* \"#utility.yul\":971:980   */\n      dup6\n        /* \"#utility.yul\":967:989   */\n      add\n        /* \"#utility.yul\":948:999   */\n      tag_137\n      jump\t// in\n    tag_184:\n        /* \"#utility.yul\":938:999   */\n      swap2\n      pop\n        /* \"#utility.yul\":894:1009   */\n      pop\n        /* \"#utility.yul\":691:1016   */\n      swap3\n      swap2\n      pop\n      pop\n      jump\t// out\n        /* \"#utility.yul\":1022:1121   */\n    tag_138:\n        /* \"#utility.yul\":1074:1080   */\n      0x00\n        /* \"#utility.yul\":1108:1113   */\n      dup2\n        /* \"#utility.yul\":1102:1114   */\n      mload\n        /* \"#utility.yul\":1092:1114   */\n      swap1\n      pop\n        /* \"#utility.yul\":1022:1121   */\n      swap2\n      swap1\n      pop\n      jump\t// out\n        /* \"#utility.yul\":1127:1296   */\n    tag_139:\n        /* \"#utility.yul\":1211:1222   */\n      0x00\n        /* \"#utility.yul\":1245:1251   */\n      dup3\n        /* \"#utility.yul\":1240:1243   */\n      dup3\n        /* \"#utility.yul\":1233:1252   */\n      mstore\n        /* \"#utility.yul\":1285:1289   */\n      0x20\n        /* \"#utility.yul\":1280:1283   */\n      dup3\n        /* \"#utility.yul\":1276:1290   */\n      add\n        /* \"#utility.yul\":1261:1290   */\n      swap1\n      pop\n        /* \"#utility.yul\":1127:1296   */\n      swap3\n      swap2\n      pop\n      pop\n      jump\t// out\n        /* \"#utility.yul\":1302:1609   */\n    tag_140:\n        /* \"#utility.yul\":1370:1371   */\n      0x00\n        /* \"#utility.yul\":1380:1493   */\n    tag_188:\n        /* \"#utility.yul\":1394:1400   */\n      dup4\n        /* \"#utility.yul\":1391:1392   */\n      dup2\n        /* \"#utility.yul\":1388:1401   */\n      lt\n        /* \"#utility.yul\":1380:1493   */\n      iszero\n      tag_190\n      jumpi\n        /* \"#utility.yul\":1479:1480   */\n      dup1\n        /* \"#utility.yul\":1474:1477   */\n      dup3\n        /* \"#utility.yul\":1470:1481   */\n      add\n        /* \"#utility.yul\":1464:1482   */\n      mload\n        /* \"#utility.yul\":1460:1461   */\n      dup2\n        /* \"#utility.yul\":1455:1458   */\n      dup5\n        /* \"#utility.yul\":1451:1462   */\n      add\n        /* \"#utility.yul\":1444:1483   */\n      mstore\n        /* \"#utility.yul\":1416:1418   */\n      0x20\n        /* \"#utility.yul\":1413:1414   */\n      dup2\n        /* \"#utility.yul\":1409:1419   */\n      add\n        /* \"#utility.yul\":1404:1419   */\n      swap1\n      pop\n        /* \"#utility.yul\":1380:1493   */\n      jump(tag_188)\n    tag_190:\n        /* \"#utility.yul\":1511:1517   */\n      dup4\n        /* \"#utility.yul\":1508:1509   */\n      dup2\n        /* \"#utility.yul\":1505:1518   */\n      gt\n        /* \"#utility.yul\":1502:1603   */\n      iszero\n      tag_191\n      jumpi\n        /* \"#utility.yul\":1591:1592   */\n      0x00\n        /* \"#utility.yul\":1582:1588   */\n      dup5\n        /* \"#utility.yul\":1577:1580   */\n      dup5\n        /* \"#utility.yul\":1573:1589   */\n      add\n        /* \"#utility.yul\":1566:1593   */\n      mstore\n        /* \"#utility.yul\":1502:1603   */\n    tag_191:\n        /* \"#utility.yul\":1351:1609   */\n      pop\n        /* \"#utility.yul\":1302:1609   */\n      pop\n      pop\n      pop\n      jump\t// out\n        /* \"#utility.yul\":1615:1717   */\n    tag_141:\n        /* \"#utility.yul\":1656:1662   */\n      0x00\n        /* \"#utility.yul\":1707:1709   */\n      0x1f\n        /* \"#utility.yul\":1703:1710   */\n      not\n        /* \"#utility.yul\":1698:1700   */\n      0x1f\n        /* \"#utility.yul\":1691:1696   */\n      dup4\n        /* \"#utility.yul\":1687:1701   */\n      add\n        /* \"#utility.yul\":1683:1711   */\n      and\n        /* \"#utility.yul\":1673:1711   */\n      swap1\n      pop\n        /* \"#utility.yul\":1615:1717   */\n      swap2\n      swap1\n      pop\n      jump\t// out\n        /* \"#utility.yul\":1723:2087   */\n    tag_142:\n        /* \"#utility.yul\":1811:1814   */\n      0x00\n        /* \"#utility.yul\":1839:1878   */\n      tag_194\n        /* \"#utility.yul\":1872:1877   */\n      dup3\n        /* \"#utility.yul\":1839:1878   */\n      tag_138\n      jump\t// in\n    tag_194:\n        /* \"#utility.yul\":1894:1965   */\n      tag_195\n        /* \"#utility.yul\":1958:1964   */\n      dup2\n        /* \"#utility.yul\":1953:1956   */\n      dup6\n        /* \"#utility.yul\":1894:1965   */\n      tag_139\n      jump\t// in\n    tag_195:\n        /* \"#utility.yul\":1887:1965   */\n      swap4\n      pop\n        /* \"#utility.yul\":1974:2026   */\n      tag_196\n        /* \"#utility.yul\":2019:2025   */\n      dup2\n        /* \"#utility.yul\":2014:2017   */\n      dup6\n        /* \"#utility.yul\":2007:2011   */\n      0x20\n        /* \"#utility.yul\":2000:2005   */\n      dup7\n        /* \"#utility.yul\":1996:2012   */\n      add\n        /* \"#utility.yul\":1974:2026   */\n      tag_140\n      jump\t// in\n    tag_196:\n        /* \"#utility.yul\":2051:2080   */\n      tag_197\n        /* \"#utility.yul\":2073:2079   */\n      dup2\n        /* \"#utility.yul\":2051:2080   */\n      tag_141\n      jump\t// in\n    tag_197:\n        /* \"#utility.yul\":2046:2049   */\n      dup5\n        /* \"#utility.yul\":2042:2081   */\n      add\n        /* \"#utility.yul\":2035:2081   */\n      swap2\n      pop\n        /* \"#utility.yul\":1815:2087   */\n      pop\n        /* \"#utility.yul\":1723:2087   */\n      swap3\n      swap2\n      pop\n      pop\n      jump\t// out\n        /* \"#utility.yul\":2093:2406   */\n    tag_11:\n        /* \"#utility.yul\":2206:2210   */\n      0x00\n        /* \"#utility.yul\":2244:2246   */\n      0x20\n        /* \"#utility.yul\":2233:2242   */\n      dup3\n        /* \"#utility.yul\":2229:2247   */\n      add\n        /* \"#utility.yul\":2221:2247   */\n      swap1\n      pop\n        /* \"#utility.yul\":2293:2302   */\n      dup2\n        /* \"#utility.yul\":2287:2291   */\n      dup2\n        /* \"#utility.yul\":2283:2303   */\n      sub\n        /* \"#utility.yul\":2279:2280   */\n      0x00\n        /* \"#utility.yul\":2268:2277   */\n      dup4\n        /* \"#utility.yul\":2264:2281   */\n      add\n        /* \"#utility.yul\":2257:2304   */\n      mstore\n        /* \"#utility.yul\":2321:2399   */\n      tag_199\n        /* \"#utility.yul\":2394:2398   */\n      dup2\n        /* \"#utility.yul\":2385:2391   */\n      dup5\n        /* \"#utility.yul\":2321:2399   */\n      tag_142\n      jump\t// in\n    tag_199:\n        /* \"#utility.yul\":2313:2399   */\n      swap1\n      pop\n        /* \"#utility.yul\":2093:2406   */\n      swap3\n      swap2\n      pop\n      pop\n      jump\t// out\n        /* \"#utility.yul\":2412:2529   */\n    tag_143:\n        /* \"#utility.yul\":2521:2522   */\n      0x00\n        /* \"#utility.yul\":2518:2519   */\n      dup1\n        /* \"#utility.yul\":2511:2523   */\n      revert\n        /* \"#utility.yul\":2535:2652   */\n    tag_144:\n        /* \"#utility.yul\":2644:2645   */\n      0x00\n        /* \"#utility.yul\":2641:2642   */\n      dup1\n        /* \"#utility.yul\":2634:2646   */\n      revert\n        /* \"#utility.yul\":2658:2838   */\n    tag_94:\n        /* \"#utility.yul\":2706:2783   */\n      0x4e487b7100000000000000000000000000000000000000000000000000000000\n        /* \"#utility.yul\":2703:2704   */\n      0x00\n        /* \"#utility.yul\":2696:2784   */\n      mstore\n        /* \"#utility.yul\":2803:2807   */\n      0x41\n        /* \"#utility.yul\":2800:2801   */\n      0x04\n        /* \"#utility.yul\":2793:2808   */\n      mstore\n        /* \"#utility.yul\":2827:2831   */\n      0x24\n        /* \"#utility.yul\":2824:2825   */\n      0x00\n        /* \"#utility.yul\":2817:2832   */\n      revert\n        /* \"#utility.yul\":2844:3125   */\n    tag_145:\n        /* \"#utility.yul\":2927:2954   */\n      tag_204\n        /* \"#utility.yul\":2949:2953   */\n      dup3\n        /* \"#utility.yul\":2927:2954   */\n      tag_141\n      jump\t// in\n    tag_204:\n        /* \"#utility.yul\":2919:2925   */\n      dup2\n        /* \"#utility.yul\":2915:2955   */\n      add\n        /* \"#utility.yul\":3057:3063   */\n      dup2\n        /* \"#utility.yul\":3045:3055   */\n      dup2\n        /* \"#utility.yul\":3042:3064   */\n      lt\n        /* \"#utility.yul\":3021:3039   */\n      0xffffffffffffffff\n        /* \"#utility.yul\":3009:3019   */\n      dup3\n        /* \"#utility.yul\":3006:3040   */\n      gt\n        /* \"#utility.yul\":3003:3065   */\n      or\n        /* \"#utility.yul\":3000:3088   */\n      iszero\n      tag_205\n      jumpi\n        /* \"#utility.yul\":3068:3086   */\n      tag_206\n      tag_94\n      jump\t// in\n    tag_206:\n        /* \"#utility.yul\":3000:3088   */\n    tag_205:\n        /* \"#utility.yul\":3108:3118   */\n      dup1\n        /* \"#utility.yul\":3104:3106   */\n      0x40\n        /* \"#utility.yul\":3097:3119   */\n      mstore\n        /* \"#utility.yul\":2887:3125   */\n      pop\n        /* \"#utility.yul\":2844:3125   */\n      pop\n      pop\n      jump\t// out\n        /* \"#utility.yul\":3131:3260   */\n    tag_146:\n        /* \"#utility.yul\":3165:3171   */\n      0x00\n        /* \"#utility.yul\":3192:3212   */\n      tag_208\n      tag_132\n      jump\t// in\n    tag_208:\n        /* \"#utility.yul\":3182:3212   */\n      swap1\n      pop\n        /* \"#utility.yul\":3221:3254   */\n      tag_209\n        /* \"#utility.yul\":3249:3253   */\n      dup3\n        /* \"#utility.yul\":3241:3247   */\n      dup3\n        /* \"#utility.yul\":3221:3254   */\n      tag_145\n      jump\t// in\n    tag_209:\n        /* \"#utility.yul\":3131:3260   */\n      swap2\n      swap1\n      pop\n      jump\t// out\n        /* \"#utility.yul\":3266:3574   */\n    tag_147:\n        /* \"#utility.yul\":3328:3332   */\n      0x00\n        /* \"#utility.yul\":3418:3436   */\n      0xffffffffffffffff\n        /* \"#utility.yul\":3410:3416   */\n      dup3\n        /* \"#utility.yul\":3407:3437   */\n      gt\n        /* \"#utility.yul\":3404:3460   */\n      iszero\n      tag_211\n      jumpi\n        /* \"#utility.yul\":3440:3458   */\n      tag_212\n      tag_94\n      jump\t// in\n    tag_212:\n        /* \"#utility.yul\":3404:3460   */\n    tag_211:\n        /* \"#utility.yul\":3478:3507   */\n      tag_213\n        /* \"#utility.yul\":3500:3506   */\n      dup3\n        /* \"#utility.yul\":3478:3507   */\n      tag_141\n      jump\t// in\n    tag_213:\n        /* \"#utility.yul\":3470:3507   */\n      swap1\n      pop\n        /* \"#utility.yul\":3562:3566   */\n      0x20\n        /* \"#utility.yul\":3556:3560   */\n      dup2\n        /* \"#utility.yul\":3552:3567   */\n      add\n        /* \"#utility.yul\":3544:3567   */\n      swap1\n      pop\n        /* \"#utility.yul\":3266:3574   */\n      swap2\n      swap1\n      pop\n      jump\t// out\n        /* \"#utility.yul\":3580:3734   */\n    tag_148:\n        /* \"#utility.yul\":3664:3670   */\n      dup3\n        /* \"#utility.yul\":3659:3662   */\n      dup2\n        /* \"#utility.yul\":3654:3657   */\n      dup4\n        /* \"#utility.yul\":3641:3671   */\n      calldatacopy\n        /* \"#utility.yul\":3726:3727   */\n      0x00\n        /* \"#utility.yul\":3717:3723   */\n      dup4\n        /* \"#utility.yul\":3712:3715   */\n      dup4\n        /* \"#utility.yul\":3708:3724   */\n      add\n        /* \"#utility.yul\":3701:3728   */\n      mstore\n        /* \"#utility.yul\":3580:3734   */\n      pop\n      pop\n      pop\n      jump\t// out\n        /* \"#utility.yul\":3740:4152   */\n    tag_149:\n        /* \"#utility.yul\":3818:3823   */\n      0x00\n        /* \"#utility.yul\":3843:3909   */\n      tag_216\n        /* \"#utility.yul\":3859:3908   */\n      tag_217\n        /* \"#utility.yul\":3901:3907   */\n      dup5\n        /* \"#utility.yul\":3859:3908   */\n      tag_147\n      jump\t// in\n    tag_217:\n        /* \"#utility.yul\":3843:3909   */\n      tag_146\n      jump\t// in\n    tag_216:\n        /* \"#utility.yul\":3834:3909   */\n      swap1\n      pop\n        /* \"#utility.yul\":3932:3938   */\n      dup3\n        /* \"#utility.yul\":3925:3930   */\n      dup2\n        /* \"#utility.yul\":3918:3939   */\n      mstore\n        /* \"#utility.yul\":3970:3974   */\n      0x20\n        /* \"#utility.yul\":3963:3968   */\n      dup2\n        /* \"#utility.yul\":3959:3975   */\n      add\n        /* \"#utility.yul\":4008:4011   */\n      dup5\n        /* \"#utility.yul\":3999:4005   */\n      dup5\n        /* \"#utility.yul\":3994:3997   */\n      dup5\n        /* \"#utility.yul\":3990:4006   */\n      add\n        /* \"#utility.yul\":3987:4012   */\n      gt\n        /* \"#utility.yul\":3984:4096   */\n      iszero\n      tag_218\n      jumpi\n        /* \"#utility.yul\":4015:4094   */\n      tag_219\n      tag_144\n      jump\t// in\n    tag_219:\n        /* \"#utility.yul\":3984:4096   */\n    tag_218:\n        /* \"#utility.yul\":4105:4146   */\n      tag_220\n        /* \"#utility.yul\":4139:4145   */\n      dup5\n        /* \"#utility.yul\":4134:4137   */\n      dup3\n        /* \"#utility.yul\":4129:4132   */\n      dup6\n        /* \"#utility.yul\":4105:4146   */\n      tag_148\n      jump\t// in\n    tag_220:\n        /* \"#utility.yul\":3824:4152   */\n      pop\n        /* \"#utility.yul\":3740:4152   */\n      swap4\n      swap3\n      pop\n      pop\n      pop\n      jump\t// out\n        /* \"#utility.yul\":4172:4512   */\n    tag_150:\n        /* \"#utility.yul\":4228:4233   */\n      0x00\n        /* \"#utility.yul\":4277:4280   */\n      dup3\n        /* \"#utility.yul\":4270:4274   */\n      0x1f\n        /* \"#utility.yul\":4262:4268   */\n      dup4\n        /* \"#utility.yul\":4258:4275   */\n      add\n        /* \"#utility.yul\":4254:4281   */\n      slt\n        /* \"#utility.yul\":4244:4366   */\n      tag_222\n      jumpi\n        /* \"#utility.yul\":4285:4364   */\n      tag_223\n      tag_143\n      jump\t// in\n    tag_223:\n        /* \"#utility.yul\":4244:4366   */\n    tag_222:\n        /* \"#utility.yul\":4402:4408   */\n      dup2\n        /* \"#utility.yul\":4389:4409   */\n      calldataload\n        /* \"#utility.yul\":4427:4506   */\n      tag_224\n        /* \"#utility.yul\":4502:4505   */\n      dup5\n        /* \"#utility.yul\":4494:4500   */\n      dup3\n        /* \"#utility.yul\":4487:4491   */\n      0x20\n        /* \"#utility.yul\":4479:4485   */\n      dup7\n        /* \"#utility.yul\":4475:4492   */\n      add\n        /* \"#utility.yul\":4427:4506   */\n      tag_149\n      jump\t// in\n    tag_224:\n        /* \"#utility.yul\":4418:4506   */\n      swap2\n      pop\n        /* \"#utility.yul\":4234:4512   */\n      pop\n        /* \"#utility.yul\":4172:4512   */\n      swap3\n      swap2\n      pop\n      pop\n      jump\t// out\n        /* \"#utility.yul\":4518:5027   */\n    tag_14:\n        /* \"#utility.yul\":4587:4593   */\n      0x00\n        /* \"#utility.yul\":4636:4638   */\n      0x20\n        /* \"#utility.yul\":4624:4633   */\n      dup3\n        /* \"#utility.yul\":4615:4622   */\n      dup5\n        /* \"#utility.yul\":4611:4634   */\n      sub\n        /* \"#utility.yul\":4607:4639   */\n      slt\n        /* \"#utility.yul\":4604:4723   */\n      iszero\n      tag_226\n      jumpi\n        /* \"#utility.yul\":4642:4721   */\n      tag_227\n      tag_133\n      jump\t// in\n    tag_227:\n        /* \"#utility.yul\":4604:4723   */\n    tag_226:\n        /* \"#utility.yul\":4790:4791   */\n      0x00\n        /* \"#utility.yul\":4779:4788   */\n      dup3\n        /* \"#utility.yul\":4775:4792   */\n      add\n        /* \"#utility.yul\":4762:4793   */\n      calldataload\n        /* \"#utility.yul\":4820:4838   */\n      0xffffffffffffffff\n        /* \"#utility.yul\":4812:4818   */\n      dup2\n        /* \"#utility.yul\":4809:4839   */\n      gt\n        /* \"#utility.yul\":4806:4923   */\n      iszero\n      tag_228\n      jumpi\n        /* \"#utility.yul\":4842:4921   */\n      tag_229\n      tag_134\n      jump\t// in\n    tag_229:\n        /* \"#utility.yul\":4806:4923   */\n    tag_228:\n        /* \"#utility.yul\":4947:5010   */\n      tag_230\n        /* \"#utility.yul\":5002:5009   */\n      dup5\n        /* \"#utility.yul\":4993:4999   */\n      dup3\n        /* \"#utility.yul\":4982:4991   */\n      dup6\n        /* \"#utility.yul\":4978:5000   */\n      add\n        /* \"#utility.yul\":4947:5010   */\n      tag_150\n      jump\t// in\n    tag_230:\n        /* \"#utility.yul\":4937:5010   */\n      swap2\n      pop\n        /* \"#utility.yul\":4733:5020   */\n      pop\n        /* \"#utility.yul\":4518:5027   */\n      swap3\n      swap2\n      pop\n      pop\n      jump\t// out\n        /* \"#utility.yul\":5033:5203   */\n    tag_151:\n        /* \"#utility.yul\":5173:5195   */\n      0x506c617920776974683a20302c2031206f722032000000000000000000000000\n        /* \"#utility.yul\":5169:5170   */\n      0x00\n        /* \"#utility.yul\":5161:5167   */\n      dup3\n        /* \"#utility.yul\":5157:5171   */\n      add\n        /* \"#utility.yul\":5150:5196   */\n      mstore\n        /* \"#utility.yul\":5033:5203   */\n      pop\n      jump\t// out\n        /* \"#utility.yul\":5209:5575   */\n    tag_152:\n        /* \"#utility.yul\":5351:5354   */\n      0x00\n        /* \"#utility.yul\":5372:5439   */\n      tag_233\n        /* \"#utility.yul\":5436:5438   */\n      0x14\n        /* \"#utility.yul\":5431:5434   */\n      dup4\n        /* \"#utility.yul\":5372:5439   */\n      tag_139\n      jump\t// in\n    tag_233:\n        /* \"#utility.yul\":5365:5439   */\n      swap2\n      pop\n        /* \"#utility.yul\":5448:5541   */\n      tag_234\n        /* \"#utility.yul\":5537:5540   */\n      dup3\n        /* \"#utility.yul\":5448:5541   */\n      tag_151\n      jump\t// in\n    tag_234:\n        /* \"#utility.yul\":5566:5568   */\n      0x20\n        /* \"#utility.yul\":5561:5564   */\n      dup3\n        /* \"#utility.yul\":5557:5569   */\n      add\n        /* \"#utility.yul\":5550:5569   */\n      swap1\n      pop\n        /* \"#utility.yul\":5209:5575   */\n      swap2\n      swap1\n      pop\n      jump\t// out\n        /* \"#utility.yul\":5581:6000   */\n    tag_23:\n        /* \"#utility.yul\":5747:5751   */\n      0x00\n        /* \"#utility.yul\":5785:5787   */\n      0x20\n        /* \"#utility.yul\":5774:5783   */\n      dup3\n        /* \"#utility.yul\":5770:5788   */\n      add\n        /* \"#utility.yul\":5762:5788   */\n      swap1\n      pop\n        /* \"#utility.yul\":5834:5843   */\n      dup2\n        /* \"#utility.yul\":5828:5832   */\n      dup2\n        /* \"#utility.yul\":5824:5844   */\n      sub\n        /* \"#utility.yul\":5820:5821   */\n      0x00\n        /* \"#utility.yul\":5809:5818   */\n      dup4\n        /* \"#utility.yul\":5805:5822   */\n      add\n        /* \"#utility.yul\":5798:5845   */\n      mstore\n        /* \"#utility.yul\":5862:5993   */\n      tag_236\n        /* \"#utility.yul\":5988:5992   */\n      dup2\n        /* \"#utility.yul\":5862:5993   */\n      tag_152\n      jump\t// in\n    tag_236:\n        /* \"#utility.yul\":5854:5993   */\n      swap1\n      pop\n        /* \"#utility.yul\":5581:6000   */\n      swap2\n      swap1\n      pop\n      jump\t// out\n        /* \"#utility.yul\":6006:6186   */\n    tag_153:\n        /* \"#utility.yul\":6054:6131   */\n      0x4e487b7100000000000000000000000000000000000000000000000000000000\n        /* \"#utility.yul\":6051:6052   */\n      0x00\n        /* \"#utility.yul\":6044:6132   */\n      mstore\n        /* \"#utility.yul\":6151:6155   */\n      0x22\n        /* \"#utility.yul\":6148:6149   */\n      0x04\n        /* \"#utility.yul\":6141:6156   */\n      mstore\n        /* \"#utility.yul\":6175:6179   */\n      0x24\n        /* \"#utility.yul\":6172:6173   */\n      0x00\n        /* \"#utility.yul\":6165:6180   */\n      revert\n        /* \"#utility.yul\":6192:6512   */\n    tag_26:\n        /* \"#utility.yul\":6236:6242   */\n      0x00\n        /* \"#utility.yul\":6273:6274   */\n      0x02\n        /* \"#utility.yul\":6267:6271   */\n      dup3\n        /* \"#utility.yul\":6263:6275   */\n      div\n        /* \"#utility.yul\":6253:6275   */\n      swap1\n      pop\n        /* \"#utility.yul\":6320:6321   */\n      0x01\n        /* \"#utility.yul\":6314:6318   */\n      dup3\n        /* \"#utility.yul\":6310:6322   */\n      and\n        /* \"#utility.yul\":6341:6359   */\n      dup1\n        /* \"#utility.yul\":6331:6412   */\n      tag_239\n      jumpi\n        /* \"#utility.yul\":6397:6401   */\n      0x7f\n        /* \"#utility.yul\":6389:6395   */\n      dup3\n        /* \"#utility.yul\":6385:6402   */\n      and\n        /* \"#utility.yul\":6375:6402   */\n      swap2\n      pop\n        /* \"#utility.yul\":6331:6412   */\n    tag_239:\n        /* \"#utility.yul\":6459:6461   */\n      0x20\n        /* \"#utility.yul\":6451:6457   */\n      dup3\n        /* \"#utility.yul\":6448:6462   */\n      lt\n        /* \"#utility.yul\":6428:6446   */\n      dup2\n        /* \"#utility.yul\":6425:6463   */\n      eq\n        /* \"#utility.yul\":6422:6506   */\n      iszero\n      tag_240\n      jumpi\n        /* \"#utility.yul\":6478:6496   */\n      tag_241\n      tag_153\n      jump\t// in\n    tag_241:\n        /* \"#utility.yul\":6422:6506   */\n    tag_240:\n        /* \"#utility.yul\":6243:6512   */\n      pop\n        /* \"#utility.yul\":6192:6512   */\n      swap2\n      swap1\n      pop\n      jump\t// out\n        /* \"#utility.yul\":6518:6694   */\n    tag_154:\n        /* \"#utility.yul\":6658:6686   */\n      0x46697273742c2063686f6f73653a204556454e206f72204f4444000000000000\n        /* \"#utility.yul\":6654:6655   */\n      0x00\n        /* \"#utility.yul\":6646:6652   */\n      dup3\n        /* \"#utility.yul\":6642:6656   */\n      add\n        /* \"#utility.yul\":6635:6687   */\n      mstore\n        /* \"#utility.yul\":6518:6694   */\n      pop\n      jump\t// out\n        /* \"#utility.yul\":6700:7066   */\n    tag_155:\n        /* \"#utility.yul\":6842:6845   */\n      0x00\n        /* \"#utility.yul\":6863:6930   */\n      tag_244\n        /* \"#utility.yul\":6927:6929   */\n      0x1a\n        /* \"#utility.yul\":6922:6925   */\n      dup4\n        /* \"#utility.yul\":6863:6930   */\n      tag_139\n      jump\t// in\n    tag_244:\n        /* \"#utility.yul\":6856:6930   */\n      swap2\n      pop\n        /* \"#utility.yul\":6939:7032   */\n      tag_245\n        /* \"#utility.yul\":7028:7031   */\n      dup3\n        /* \"#utility.yul\":6939:7032   */\n      tag_154\n      jump\t// in\n    tag_245:\n        /* \"#utility.yul\":7057:7059   */\n      0x20\n        /* \"#utility.yul\":7052:7055   */\n      dup3\n        /* \"#utility.yul\":7048:7060   */\n      add\n        /* \"#utility.yul\":7041:7060   */\n      swap1\n      pop\n        /* \"#utility.yul\":6700:7066   */\n      swap2\n      swap1\n      pop\n      jump\t// out\n        /* \"#utility.yul\":7072:7491   */\n    tag_34:\n        /* \"#utility.yul\":7238:7242   */\n      0x00\n        /* \"#utility.yul\":7276:7278   */\n      0x20\n        /* \"#utility.yul\":7265:7274   */\n      dup3\n        /* \"#utility.yul\":7261:7279   */\n      add\n        /* \"#utility.yul\":7253:7279   */\n      swap1\n      pop\n        /* \"#utility.yul\":7325:7334   */\n      dup2\n        /* \"#utility.yul\":7319:7323   */\n      dup2\n        /* \"#utility.yul\":7315:7335   */\n      sub\n        /* \"#utility.yul\":7311:7312   */\n      0x00\n        /* \"#utility.yul\":7300:7309   */\n      dup4\n        /* \"#utility.yul\":7296:7313   */\n      add\n        /* \"#utility.yul\":7289:7336   */\n      mstore\n        /* \"#utility.yul\":7353:7484   */\n      tag_247\n        /* \"#utility.yul\":7479:7483   */\n      dup2\n        /* \"#utility.yul\":7353:7484   */\n      tag_155\n      jump\t// in\n    tag_247:\n        /* \"#utility.yul\":7345:7484   */\n      swap1\n      pop\n        /* \"#utility.yul\":7072:7491   */\n      swap2\n      swap1\n      pop\n      jump\t// out\n        /* \"#utility.yul\":7497:7574   */\n    tag_156:\n        /* \"#utility.yul\":7534:7541   */\n      0x00\n        /* \"#utility.yul\":7563:7568   */\n      dup2\n        /* \"#utility.yul\":7552:7568   */\n      swap1\n      pop\n        /* \"#utility.yul\":7497:7574   */\n      swap2\n      swap1\n      pop\n      jump\t// out\n        /* \"#utility.yul\":7580:7760   */\n    tag_157:\n        /* \"#utility.yul\":7628:7705   */\n      0x4e487b7100000000000000000000000000000000000000000000000000000000\n        /* \"#utility.yul\":7625:7626   */\n      0x00\n        /* \"#utility.yul\":7618:7706   */\n      mstore\n        /* \"#utility.yul\":7725:7729   */\n      0x11\n        /* \"#utility.yul\":7722:7723   */\n      0x04\n        /* \"#utility.yul\":7715:7730   */\n      mstore\n        /* \"#utility.yul\":7749:7753   */\n      0x24\n        /* \"#utility.yul\":7746:7747   */\n      0x00\n        /* \"#utility.yul\":7739:7754   */\n      revert\n        /* \"#utility.yul\":7766:8071   */\n    tag_38:\n        /* \"#utility.yul\":7806:7809   */\n      0x00\n        /* \"#utility.yul\":7825:7845   */\n      tag_251\n        /* \"#utility.yul\":7843:7844   */\n      dup3\n        /* \"#utility.yul\":7825:7845   */\n      tag_156\n      jump\t// in\n    tag_251:\n        /* \"#utility.yul\":7820:7845   */\n      swap2\n      pop\n        /* \"#utility.yul\":7859:7879   */\n      tag_252\n        /* \"#utility.yul\":7877:7878   */\n      dup4\n        /* \"#utility.yul\":7859:7879   */\n      tag_156\n      jump\t// in\n    tag_252:\n        /* \"#utility.yul\":7854:7879   */\n      swap3\n      pop\n        /* \"#utility.yul\":8013:8014   */\n      dup3\n        /* \"#utility.yul\":7945:8011   */\n      0xffffffffffffffffffffffffffffffffffffffffffffffffffffffffffffffff\n        /* \"#utility.yul\":7941:8015   */\n      sub\n        /* \"#utility.yul\":7938:7939   */\n      dup3\n        /* \"#utility.yul\":7935:8016   */\n      gt\n        /* \"#utility.yul\":7932:8039   */\n      iszero\n      tag_253\n      jumpi\n        /* \"#utility.yul\":8019:8037   */\n      tag_254\n      tag_157\n      jump\t// in\n    tag_254:\n        /* \"#utility.yul\":7932:8039   */\n    tag_253:\n        /* \"#utility.yul\":8063:8064   */\n      dup3\n        /* \"#utility.yul\":8060:8061   */\n      dup3\n        /* \"#utility.yul\":8056:8065   */\n      add\n        /* \"#utility.yul\":8049:8065   */\n      swap1\n      pop\n        /* \"#utility.yul\":7766:8071   */\n      swap3\n      swap2\n      pop\n      pop\n      jump\t// out\n        /* \"#utility.yul\":8077:8257   */\n    tag_100:\n        /* \"#utility.yul\":8125:8202   */\n      0x4e487b7100000000000000000000000000000000000000000000000000000000\n        /* \"#utility.yul\":8122:8123   */\n      0x00\n        /* \"#utility.yul\":8115:8203   */\n      mstore\n        /* \"#utility.yul\":8222:8226   */\n      0x12\n        /* \"#utility.yul\":8219:8220   */\n      0x04\n        /* \"#utility.yul\":8212:8227   */\n      mstore\n        /* \"#utility.yul\":8246:8250   */\n      0x24\n        /* \"#utility.yul\":8243:8244   */\n      0x00\n        /* \"#utility.yul\":8236:8251   */\n      revert\n        /* \"#utility.yul\":8263:8439   */\n    tag_40:\n        /* \"#utility.yul\":8295:8296   */\n      0x00\n        /* \"#utility.yul\":8312:8332   */\n      tag_257\n        /* \"#utility.yul\":8330:8331   */\n      dup3\n        /* \"#utility.yul\":8312:8332   */\n      tag_156\n      jump\t// in\n    tag_257:\n        /* \"#utility.yul\":8307:8332   */\n      swap2\n      pop\n        /* \"#utility.yul\":8346:8366   */\n      tag_258\n        /* \"#utility.yul\":8364:8365   */\n      dup4\n        /* \"#utility.yul\":8346:8366   */\n      tag_156\n      jump\t// in\n    tag_258:\n        /* \"#utility.yul\":8341:8366   */\n      swap3\n      pop\n        /* \"#utility.yul\":8385:8386   */\n      dup3\n        /* \"#utility.yul\":8375:8410   */\n      tag_259\n      jumpi\n        /* \"#utility.yul\":8390:8408   */\n      tag_260\n      tag_100\n      jump\t// in\n    tag_260:\n        /* \"#utility.yul\":8375:8410   */\n    tag_259:\n        /* \"#utility.yul\":8431:8432   */\n      dup3\n        /* \"#utility.yul\":8428:8429   */\n      dup3\n        /* \"#utility.yul\":8424:8433   */\n      mod\n        /* \"#utility.yul\":8419:8433   */\n      swap1\n      pop\n        /* \"#utility.yul\":8263:8439   */\n      swap3\n      swap2\n      pop\n      pop\n      jump\t// out\n        /* \"#utility.yul\":8445:8638   */\n    tag_158:\n        /* \"#utility.yul\":8614:8631   */\n      0x506c617965722063686f6f73653a200000000000000000000000000000000000\n        /* \"#utility.yul\":8609:8612   */\n      dup2\n        /* \"#utility.yul\":8602:8632   */\n      mstore\n        /* \"#utility.yul\":8445:8638   */\n      pop\n      jump\t// out\n        /* \"#utility.yul\":8644:8792   */\n    tag_159:\n        /* \"#utility.yul\":8746:8757   */\n      0x00\n        /* \"#utility.yul\":8783:8786   */\n      dup2\n        /* \"#utility.yul\":8768:8786   */\n      swap1\n      pop\n        /* \"#utility.yul\":8644:8792   */\n      swap3\n      swap2\n      pop\n      pop\n      jump\t// out\n        /* \"#utility.yul\":8798:8939   */\n    tag_160:\n        /* \"#utility.yul\":8847:8851   */\n      0x00\n        /* \"#utility.yul\":8870:8873   */\n      dup2\n        /* \"#utility.yul\":8862:8873   */\n      swap1\n      pop\n        /* \"#utility.yul\":8893:8896   */\n      dup2\n        /* \"#utility.yul\":8890:8891   */\n      0x00\n        /* \"#utility.yul\":8883:8897   */\n      mstore\n        /* \"#utility.yul\":8927:8931   */\n      0x20\n        /* \"#utility.yul\":8924:8925   */\n      0x00\n        /* \"#utility.yul\":8914:8932   */\n      keccak256\n        /* \"#utility.yul\":8906:8932   */\n      swap1\n      pop\n        /* \"#utility.yul\":8798:8939   */\n      swap2\n      swap1\n      pop\n      jump\t// out\n        /* \"#utility.yul\":8969:9814   */\n    tag_161:\n        /* \"#utility.yul\":9072:9075   */\n      0x00\n        /* \"#utility.yul\":9109:9114   */\n      dup2\n        /* \"#utility.yul\":9103:9115   */\n      sload\n        /* \"#utility.yul\":9138:9174   */\n      tag_265\n        /* \"#utility.yul\":9164:9173   */\n      dup2\n        /* \"#utility.yul\":9138:9174   */\n      tag_26\n      jump\t// in\n    tag_265:\n        /* \"#utility.yul\":9190:9279   */\n      tag_266\n        /* \"#utility.yul\":9272:9278   */\n      dup2\n        /* \"#utility.yul\":9267:9270   */\n      dup7\n        /* \"#utility.yul\":9190:9279   */\n      tag_159\n      jump\t// in\n    tag_266:\n        /* \"#utility.yul\":9183:9279   */\n      swap5\n      pop\n        /* \"#utility.yul\":9310:9311   */\n      0x01\n        /* \"#utility.yul\":9299:9308   */\n      dup3\n        /* \"#utility.yul\":9295:9312   */\n      and\n        /* \"#utility.yul\":9326:9327   */\n      0x00\n        /* \"#utility.yul\":9321:9458   */\n      dup2\n      eq\n      tag_268\n      jumpi\n        /* \"#utility.yul\":9472:9473   */\n      0x01\n        /* \"#utility.yul\":9467:9808   */\n      dup2\n      eq\n      tag_269\n      jumpi\n        /* \"#utility.yul\":9288:9808   */\n      jump(tag_267)\n        /* \"#utility.yul\":9321:9458   */\n    tag_268:\n        /* \"#utility.yul\":9405:9409   */\n      0xff\n        /* \"#utility.yul\":9401:9410   */\n      not\n        /* \"#utility.yul\":9390:9399   */\n      dup4\n        /* \"#utility.yul\":9386:9411   */\n      and\n        /* \"#utility.yul\":9381:9384   */\n      dup7\n        /* \"#utility.yul\":9374:9412   */\n      mstore\n        /* \"#utility.yul\":9441:9447   */\n      dup2\n        /* \"#utility.yul\":9436:9439   */\n      dup7\n        /* \"#utility.yul\":9432:9448   */\n      add\n        /* \"#utility.yul\":9425:9448   */\n      swap4\n      pop\n        /* \"#utility.yul\":9321:9458   */\n      jump(tag_267)\n        /* \"#utility.yul\":9467:9808   */\n    tag_269:\n        /* \"#utility.yul\":9534:9572   */\n      tag_270\n        /* \"#utility.yul\":9566:9571   */\n      dup6\n        /* \"#utility.yul\":9534:9572   */\n      tag_160\n      jump\t// in\n    tag_270:\n        /* \"#utility.yul\":9594:9595   */\n      0x00\n        /* \"#utility.yul\":9608:9762   */\n    tag_271:\n        /* \"#utility.yul\":9622:9628   */\n      dup4\n        /* \"#utility.yul\":9619:9620   */\n      dup2\n        /* \"#utility.yul\":9616:9629   */\n      lt\n        /* \"#utility.yul\":9608:9762   */\n      iszero\n      tag_273\n      jumpi\n        /* \"#utility.yul\":9696:9703   */\n      dup2\n        /* \"#utility.yul\":9690:9704   */\n      sload\n        /* \"#utility.yul\":9686:9687   */\n      dup2\n        /* \"#utility.yul\":9681:9684   */\n      dup10\n        /* \"#utility.yul\":9677:9688   */\n      add\n        /* \"#utility.yul\":9670:9705   */\n      mstore\n        /* \"#utility.yul\":9746:9747   */\n      0x01\n        /* \"#utility.yul\":9737:9744   */\n      dup3\n        /* \"#utility.yul\":9733:9748   */\n      add\n        /* \"#utility.yul\":9722:9748   */\n      swap2\n      pop\n        /* \"#utility.yul\":9644:9648   */\n      0x20\n        /* \"#utility.yul\":9641:9642   */\n      dup2\n        /* \"#utility.yul\":9637:9649   */\n      add\n        /* \"#utility.yul\":9632:9649   */\n      swap1\n      pop\n        /* \"#utility.yul\":9608:9762   */\n      jump(tag_271)\n    tag_273:\n        /* \"#utility.yul\":9791:9797   */\n      dup4\n        /* \"#utility.yul\":9786:9789   */\n      dup9\n        /* \"#utility.yul\":9782:9798   */\n      add\n        /* \"#utility.yul\":9775:9798   */\n      swap6\n      pop\n        /* \"#utility.yul\":9474:9808   */\n      pop\n      pop\n        /* \"#utility.yul\":9288:9808   */\n    tag_267:\n      pop\n        /* \"#utility.yul\":9076:9814   */\n      pop\n      pop\n        /* \"#utility.yul\":8969:9814   */\n      swap3\n      swap2\n      pop\n      pop\n      jump\t// out\n        /* \"#utility.yul\":9820:10011   */\n    tag_162:\n        /* \"#utility.yul\":9989:10004   */\n      0x2c20616e6420706c6179733a2000000000000000000000000000000000000000\n        /* \"#utility.yul\":9984:9987   */\n      dup2\n        /* \"#utility.yul\":9977:10005   */\n      mstore\n        /* \"#utility.yul\":9820:10011   */\n      pop\n      jump\t// out\n        /* \"#utility.yul\":10017:10394   */\n    tag_163:\n        /* \"#utility.yul\":10123:10126   */\n      0x00\n        /* \"#utility.yul\":10151:10190   */\n      tag_276\n        /* \"#utility.yul\":10184:10189   */\n      dup3\n        /* \"#utility.yul\":10151:10190   */\n      tag_138\n      jump\t// in\n    tag_276:\n        /* \"#utility.yul\":10206:10295   */\n      tag_277\n        /* \"#utility.yul\":10288:10294   */\n      dup2\n        /* \"#utility.yul\":10283:10286   */\n      dup6\n        /* \"#utility.yul\":10206:10295   */\n      tag_159\n      jump\t// in\n    tag_277:\n        /* \"#utility.yul\":10199:10295   */\n      swap4\n      pop\n        /* \"#utility.yul\":10304:10356   */\n      tag_278\n        /* \"#utility.yul\":10349:10355   */\n      dup2\n        /* \"#utility.yul\":10344:10347   */\n      dup6\n        /* \"#utility.yul\":10337:10341   */\n      0x20\n        /* \"#utility.yul\":10330:10335   */\n      dup7\n        /* \"#utility.yul\":10326:10342   */\n      add\n        /* \"#utility.yul\":10304:10356   */\n      tag_140\n      jump\t// in\n    tag_278:\n        /* \"#utility.yul\":10381:10387   */\n      dup1\n        /* \"#utility.yul\":10376:10379   */\n      dup5\n        /* \"#utility.yul\":10372:10388   */\n      add\n        /* \"#utility.yul\":10365:10388   */\n      swap2\n      pop\n        /* \"#utility.yul\":10127:10394   */\n      pop\n        /* \"#utility.yul\":10017:10394   */\n      swap3\n      swap2\n      pop\n      pop\n      jump\t// out\n        /* \"#utility.yul\":10400:10591   */\n    tag_164:\n        /* \"#utility.yul\":10569:10584   */\n      0x2e2043505520706c6179733a2000000000000000000000000000000000000000\n        /* \"#utility.yul\":10564:10567   */\n      dup2\n        /* \"#utility.yul\":10557:10585   */\n      mstore\n        /* \"#utility.yul\":10400:10591   */\n      pop\n      jump\t// out\n        /* \"#utility.yul\":10597:11987   */\n    tag_45:\n        /* \"#utility.yul\":11095:11098   */\n      0x00\n        /* \"#utility.yul\":11110:11248   */\n      tag_281\n        /* \"#utility.yul\":11244:11247   */\n      dup3\n        /* \"#utility.yul\":11110:11248   */\n      tag_158\n      jump\t// in\n    tag_281:\n        /* \"#utility.yul\":11273:11275   */\n      0x0f\n        /* \"#utility.yul\":11268:11271   */\n      dup3\n        /* \"#utility.yul\":11264:11276   */\n      add\n        /* \"#utility.yul\":11257:11276   */\n      swap2\n      pop\n        /* \"#utility.yul\":11293:11385   */\n      tag_282\n        /* \"#utility.yul\":11381:11384   */\n      dup3\n        /* \"#utility.yul\":11372:11378   */\n      dup7\n        /* \"#utility.yul\":11293:11385   */\n      tag_161\n      jump\t// in\n    tag_282:\n        /* \"#utility.yul\":11286:11385   */\n      swap2\n      pop\n        /* \"#utility.yul\":11395:11533   */\n      tag_283\n        /* \"#utility.yul\":11529:11532   */\n      dup3\n        /* \"#utility.yul\":11395:11533   */\n      tag_162\n      jump\t// in\n    tag_283:\n        /* \"#utility.yul\":11558:11560   */\n      0x0d\n        /* \"#utility.yul\":11553:11556   */\n      dup3\n        /* \"#utility.yul\":11549:11561   */\n      add\n        /* \"#utility.yul\":11542:11561   */\n      swap2\n      pop\n        /* \"#utility.yul\":11578:11673   */\n      tag_284\n        /* \"#utility.yul\":11669:11672   */\n      dup3\n        /* \"#utility.yul\":11660:11666   */\n      dup6\n        /* \"#utility.yul\":11578:11673   */\n      tag_163\n      jump\t// in\n    tag_284:\n        /* \"#utility.yul\":11571:11673   */\n      swap2\n      pop\n        /* \"#utility.yul\":11683:11821   */\n      tag_285\n        /* \"#utility.yul\":11817:11820   */\n      dup3\n        /* \"#utility.yul\":11683:11821   */\n      tag_164\n      jump\t// in\n    tag_285:\n        /* \"#utility.yul\":11846:11848   */\n      0x0d\n        /* \"#utility.yul\":11841:11844   */\n      dup3\n        /* \"#utility.yul\":11837:11849   */\n      add\n        /* \"#utility.yul\":11830:11849   */\n      swap2\n      pop\n        /* \"#utility.yul\":11866:11961   */\n      tag_286\n        /* \"#utility.yul\":11957:11960   */\n      dup3\n        /* \"#utility.yul\":11948:11954   */\n      dup5\n        /* \"#utility.yul\":11866:11961   */\n      tag_163\n      jump\t// in\n    tag_286:\n        /* \"#utility.yul\":11859:11961   */\n      swap2\n      pop\n        /* \"#utility.yul\":11978:11981   */\n      dup2\n        /* \"#utility.yul\":11971:11981   */\n      swap1\n      pop\n        /* \"#utility.yul\":10597:11987   */\n      swap5\n      swap4\n      pop\n      pop\n      pop\n      pop\n      jump\t// out\n        /* \"#utility.yul\":11993:12183   */\n    tag_165:\n        /* \"#utility.yul\":12162:12176   */\n      0x20506c6179657220574f4e210000000000000000000000000000000000000000\n        /* \"#utility.yul\":12157:12160   */\n      dup2\n        /* \"#utility.yul\":12150:12177   */\n      mstore\n        /* \"#utility.yul\":11993:12183   */\n      pop\n      jump\t// out\n        /* \"#utility.yul\":12189:12731   */\n    tag_55:\n        /* \"#utility.yul\":12412:12415   */\n      0x00\n        /* \"#utility.yul\":12434:12529   */\n      tag_289\n        /* \"#utility.yul\":12525:12528   */\n      dup3\n        /* \"#utility.yul\":12516:12522   */\n      dup5\n        /* \"#utility.yul\":12434:12529   */\n      tag_163\n      jump\t// in\n    tag_289:\n        /* \"#utility.yul\":12427:12529   */\n      swap2\n      pop\n        /* \"#utility.yul\":12539:12677   */\n      tag_290\n        /* \"#utility.yul\":12673:12676   */\n      dup3\n        /* \"#utility.yul\":12539:12677   */\n      tag_165\n      jump\t// in\n    tag_290:\n        /* \"#utility.yul\":12702:12704   */\n      0x0c\n        /* \"#utility.yul\":12697:12700   */\n      dup3\n        /* \"#utility.yul\":12693:12705   */\n      add\n        /* \"#utility.yul\":12686:12705   */\n      swap2\n      pop\n        /* \"#utility.yul\":12722:12725   */\n      dup2\n        /* \"#utility.yul\":12715:12725   */\n      swap1\n      pop\n        /* \"#utility.yul\":12189:12731   */\n      swap3\n      swap2\n      pop\n      pop\n      jump\t// out\n        /* \"#utility.yul\":12737:12923   */\n    tag_166:\n        /* \"#utility.yul\":12905:12916   */\n      0x2043505520574f4e210000000000000000000000000000000000000000000000\n        /* \"#utility.yul\":12900:12903   */\n      dup2\n        /* \"#utility.yul\":12893:12917   */\n      mstore\n        /* \"#utility.yul\":12737:12923   */\n      pop\n      jump\t// out\n        /* \"#utility.yul\":12929:13468   */\n    tag_68:\n        /* \"#utility.yul\":13151:13154   */\n      0x00\n        /* \"#utility.yul\":13173:13268   */\n      tag_293\n        /* \"#utility.yul\":13264:13267   */\n      dup3\n        /* \"#utility.yul\":13255:13261   */\n      dup5\n        /* \"#utility.yul\":13173:13268   */\n      tag_163\n      jump\t// in\n    tag_293:\n        /* \"#utility.yul\":13166:13268   */\n      swap2\n      pop\n        /* \"#utility.yul\":13278:13415   */\n      tag_294\n        /* \"#utility.yul\":13411:13414   */\n      dup3\n        /* \"#utility.yul\":13278:13415   */\n      tag_166\n      jump\t// in\n    tag_294:\n        /* \"#utility.yul\":13440:13441   */\n      0x09\n        /* \"#utility.yul\":13435:13438   */\n      dup3\n        /* \"#utility.yul\":13431:13442   */\n      add\n        /* \"#utility.yul\":13424:13442   */\n      swap2\n      pop\n        /* \"#utility.yul\":13459:13462   */\n      dup2\n        /* \"#utility.yul\":13452:13462   */\n      swap1\n      pop\n        /* \"#utility.yul\":12929:13468   */\n      swap3\n      swap2\n      pop\n      pop\n      jump\t// out\n        /* \"#utility.yul\":13474:13643   */\n    tag_167:\n        /* \"#utility.yul\":13614:13635   */\n      0x43686f6f73653a204556454e206f72204f444400000000000000000000000000\n        /* \"#utility.yul\":13610:13611   */\n      0x00\n        /* \"#utility.yul\":13602:13608   */\n      dup3\n        /* \"#utility.yul\":13598:13612   */\n      add\n        /* \"#utility.yul\":13591:13636   */\n      mstore\n        /* \"#utility.yul\":13474:13643   */\n      pop\n      jump\t// out\n        /* \"#utility.yul\":13649:14015   */\n    tag_168:\n        /* \"#utility.yul\":13791:13794   */\n      0x00\n        /* \"#utility.yul\":13812:13879   */\n      tag_297\n        /* \"#utility.yul\":13876:13878   */\n      0x13\n        /* \"#utility.yul\":13871:13874   */\n      dup4\n        /* \"#utility.yul\":13812:13879   */\n      tag_139\n      jump\t// in\n    tag_297:\n        /* \"#utility.yul\":13805:13879   */\n      swap2\n      pop\n        /* \"#utility.yul\":13888:13981   */\n      tag_298\n        /* \"#utility.yul\":13977:13980   */\n      dup3\n        /* \"#utility.yul\":13888:13981   */\n      tag_167\n      jump\t// in\n    tag_298:\n        /* \"#utility.yul\":14006:14008   */\n      0x20\n        /* \"#utility.yul\":14001:14004   */\n      dup3\n        /* \"#utility.yul\":13997:14009   */\n      add\n        /* \"#utility.yul\":13990:14009   */\n      swap1\n      pop\n        /* \"#utility.yul\":13649:14015   */\n      swap2\n      swap1\n      pop\n      jump\t// out\n        /* \"#utility.yul\":14021:14440   */\n    tag_75:\n        /* \"#utility.yul\":14187:14191   */\n      0x00\n        /* \"#utility.yul\":14225:14227   */\n      0x20\n        /* \"#utility.yul\":14214:14223   */\n      dup3\n        /* \"#utility.yul\":14210:14228   */\n      add\n        /* \"#utility.yul\":14202:14228   */\n      swap1\n      pop\n        /* \"#utility.yul\":14274:14283   */\n      dup2\n        /* \"#utility.yul\":14268:14272   */\n      dup2\n        /* \"#utility.yul\":14264:14284   */\n      sub\n        /* \"#utility.yul\":14260:14261   */\n      0x00\n        /* \"#utility.yul\":14249:14258   */\n      dup4\n        /* \"#utility.yul\":14245:14262   */\n      add\n        /* \"#utility.yul\":14238:14285   */\n      mstore\n        /* \"#utility.yul\":14302:14433   */\n      tag_300\n        /* \"#utility.yul\":14428:14432   */\n      dup2\n        /* \"#utility.yul\":14302:14433   */\n      tag_168\n      jump\t// in\n    tag_300:\n        /* \"#utility.yul\":14294:14433   */\n      swap1\n      pop\n        /* \"#utility.yul\":14021:14440   */\n      swap2\n      swap1\n      pop\n      jump\t// out\n        /* \"#utility.yul\":14446:14525   */\n    tag_169:\n        /* \"#utility.yul\":14485:14492   */\n      0x00\n        /* \"#utility.yul\":14514:14519   */\n      dup2\n        /* \"#utility.yul\":14503:14519   */\n      swap1\n      pop\n        /* \"#utility.yul\":14446:14525   */\n      swap2\n      swap1\n      pop\n      jump\t// out\n        /* \"#utility.yul\":14531:14688   */\n    tag_170:\n        /* \"#utility.yul\":14636:14681   */\n      tag_303\n        /* \"#utility.yul\":14656:14680   */\n      tag_304\n        /* \"#utility.yul\":14674:14679   */\n      dup3\n        /* \"#utility.yul\":14656:14680   */\n      tag_156\n      jump\t// in\n    tag_304:\n        /* \"#utility.yul\":14636:14681   */\n      tag_169\n      jump\t// in\n    tag_303:\n        /* \"#utility.yul\":14631:14634   */\n      dup3\n        /* \"#utility.yul\":14624:14682   */\n      mstore\n        /* \"#utility.yul\":14531:14688   */\n      pop\n      pop\n      jump\t// out\n        /* \"#utility.yul\":14694:15104   */\n    tag_87:\n        /* \"#utility.yul\":14851:14854   */\n      0x00\n        /* \"#utility.yul\":14866:14941   */\n      tag_306\n        /* \"#utility.yul\":14937:14940   */\n      dup3\n        /* \"#utility.yul\":14928:14934   */\n      dup6\n        /* \"#utility.yul\":14866:14941   */\n      tag_170\n      jump\t// in\n    tag_306:\n        /* \"#utility.yul\":14966:14968   */\n      0x20\n        /* \"#utility.yul\":14961:14964   */\n      dup3\n        /* \"#utility.yul\":14957:14969   */\n      add\n        /* \"#utility.yul\":14950:14969   */\n      swap2\n      pop\n        /* \"#utility.yul\":14986:15078   */\n      tag_307\n        /* \"#utility.yul\":15074:15077   */\n      dup3\n        /* \"#utility.yul\":15065:15071   */\n      dup5\n        /* \"#utility.yul\":14986:15078   */\n      tag_161\n      jump\t// in\n    tag_307:\n        /* \"#utility.yul\":14979:15078   */\n      swap2\n      pop\n        /* \"#utility.yul\":15095:15098   */\n      dup2\n        /* \"#utility.yul\":15088:15098   */\n      swap1\n      pop\n        /* \"#utility.yul\":14694:15104   */\n      swap4\n      swap3\n      pop\n      pop\n      pop\n      jump\t// out\n\n    auxdata: 0xa2646970667358221220ddacd32b674c16726fb7083682fe0277a6cd09e72567974c587227ed2e71cd3564736f6c634300080c0033\n}\n",
				"bytecode": {
					"linkReferences": {},
					"object": "608060405260405180602001604052806000815250600090805190602001906200002b92919062000040565b503480156200003957600080fd5b5062000155565b8280546200004e906200011f565b90600052602060002090601f016020900481019282620000725760008555620000be565b82601f106200008d57805160ff1916838001178555620000be565b82800160010185558215620000be579182015b82811115620000bd578251825591602001919060010190620000a0565b5b509050620000cd9190620000d1565b5090565b5b80821115620000ec576000816000905550600101620000d2565b5090565b7f4e487b7100000000000000000000000000000000000000000000000000000000600052602260045260246000fd5b600060028204905060018216806200013857607f821691505b602082108114156200014f576200014e620000f0565b5b50919050565b61112d80620001656000396000f3fe608060405234801561001057600080fd5b50600436106100415760003560e01c806353a04b051461004657806398c8d81f1461007657806398f42fe314610092575b600080fd5b610060600480360381019061005b919061097c565b6100b0565b60405161006d9190610a42565b60405180910390f35b610090600480360381019061008b9190610b99565b610482565b005b61009a610560565b6040516100a79190610a42565b60405180910390f35b606060008260ff16101580156100ca575060028260ff1611155b610109576040517f08c379a000000000000000000000000000000000000000000000000000000000815260040161010090610c2e565b60405180910390fd5b6101ac6000805461011990610c7d565b80601f016020809104026020016040519081016040528092919081815260200182805461014590610c7d565b80156101925780601f1061016757610100808354040283529160200191610192565b820191906000526020600020905b81548152906001019060200180831161017557829003601f168201915b5050505050604051806020016040528060008152506105ee565b156101ec576040517f08c379a00000000000000000000000000000000000000000000000000000000081526004016101e390610cfb565b60405180910390fd5b60006101f6610621565b905060008060028560ff168461020c9190610d54565b6102169190610dd9565b1490506000806102288660ff16610661565b61023185610661565b60405160200161024393929190610f4c565b604051602081830303815290604052905081801561032657506103256000805461026c90610c7d565b80601f016020809104026020016040519081016040528092919081815260200182805461029890610c7d565b80156102e55780601f106102ba576101008083540402835291602001916102e5565b820191906000526020600020905b8154815290600101906020018083116102c857829003601f168201915b50505050506040518060400160405280600481526020017f4556454e000000000000000000000000000000000000000000000000000000008152506105ee565b5b15610355578060405160200161033c9190610fd0565b604051602081830303815290604052935050505061047d565b8115801561042857506104276000805461036e90610c7d565b80601f016020809104026020016040519081016040528092919081815260200182805461039a90610c7d565b80156103e75780601f106103bc576101008083540402835291602001916103e7565b820191906000526020600020905b8154815290600101906020018083116103ca57829003601f168201915b50505050506040518060400160405280600381526020017f4f444400000000000000000000000000000000000000000000000000000000008152506105ee565b5b15610457578060405160200161043e9190610fd0565b604051602081830303815290604052935050505061047d565b80604051602001610468919061101c565b60405160208183030381529060405293505050505b919050565b6104c1816040518060400160405280600481526020017f4556454e000000000000000000000000000000000000000000000000000000008152506105ee565b806105075750610506816040518060400160405280600381526020017f4f444400000000000000000000000000000000000000000000000000000000008152506105ee565b5b610546576040517f08c379a000000000000000000000000000000000000000000000000000000000815260040161053d9061108e565b60405180910390fd5b806000908051906020019061055c92919061088c565b5050565b6000805461056d90610c7d565b80601f016020809104026020016040519081016040528092919081815260200182805461059990610c7d565b80156105e65780601f106105bb576101008083540402835291602001916105e6565b820191906000526020600020905b8154815290600101906020018083116105c957829003601f168201915b505050505081565b600080839050600083905080518251148015610617575080805190602001208280519060200120145b9250505092915050565b600060024260006040516020016106399291906110cf565b6040516020818303038152906040528051906020012060001c61065c9190610dd9565b905090565b60606000600161067084610739565b01905060008167ffffffffffffffff81111561068f5761068e610a6e565b5b6040519080825280601f01601f1916602001820160405280156106c15781602001600182028036833780820191505090505b509050600082602001820190505b60011561072e578080600190039150507f3031323334353637383961626364656600000000000000000000000000000000600a86061a8153600a858161071857610717610daa565b5b04945060008514156107295761072e565b6106cf565b819350505050919050565b600080600090507a184f03e93ff9f4daa797ed6e38ed64bf6a1f0100000000000000008310610797577a184f03e93ff9f4daa797ed6e38ed64bf6a1f010000000000000000838161078d5761078c610daa565b5b0492506040810190505b6d04ee2d6d415b85acef810000000083106107d4576d04ee2d6d415b85acef810000000083816107ca576107c9610daa565b5b0492506020810190505b662386f26fc10000831061080357662386f26fc1000083816107f9576107f8610daa565b5b0492506010810190505b6305f5e100831061082c576305f5e100838161082257610821610daa565b5b0492506008810190505b612710831061085157612710838161084757610846610daa565b5b0492506004810190505b60648310610874576064838161086a57610869610daa565b5b0492506002810190505b600a8310610883576001810190505b80915050919050565b82805461089890610c7d565b90600052602060002090601f0160209004810192826108ba5760008555610901565b82601f106108d357805160ff1916838001178555610901565b82800160010185558215610901579182015b828111156109005782518255916020019190600101906108e5565b5b50905061090e9190610912565b5090565b5b8082111561092b576000816000905550600101610913565b5090565b6000604051905090565b600080fd5b600080fd5b600060ff82169050919050565b61095981610943565b811461096457600080fd5b50565b60008135905061097681610950565b92915050565b60006020828403121561099257610991610939565b5b60006109a084828501610967565b91505092915050565b600081519050919050565b600082825260208201905092915050565b60005b838110156109e35780820151818401526020810190506109c8565b838111156109f2576000848401525b50505050565b6000601f19601f8301169050919050565b6000610a14826109a9565b610a1e81856109b4565b9350610a2e8185602086016109c5565b610a37816109f8565b840191505092915050565b60006020820190508181036000830152610a5c8184610a09565b905092915050565b600080fd5b600080fd5b7f4e487b7100000000000000000000000000000000000000000000000000000000600052604160045260246000fd5b610aa6826109f8565b810181811067ffffffffffffffff82111715610ac557610ac4610a6e565b5b80604052505050565b6000610ad861092f565b9050610ae48282610a9d565b919050565b600067ffffffffffffffff821115610b0457610b03610a6e565b5b610b0d826109f8565b9050602081019050919050565b82818337600083830152505050565b6000610b3c610b3784610ae9565b610ace565b905082815260208101848484011115610b5857610b57610a69565b5b610b63848285610b1a565b509392505050565b600082601f830112610b8057610b7f610a64565b5b8135610b90848260208601610b29565b91505092915050565b600060208284031215610baf57610bae610939565b5b600082013567ffffffffffffffff811115610bcd57610bcc61093e565b5b610bd984828501610b6b565b91505092915050565b7f506c617920776974683a20302c2031206f722032000000000000000000000000600082015250565b6000610c186014836109b4565b9150610c2382610be2565b602082019050919050565b60006020820190508181036000830152610c4781610c0b565b9050919050565b7f4e487b7100000000000000000000000000000000000000000000000000000000600052602260045260246000fd5b60006002820490506001821680610c9557607f821691505b60208210811415610ca957610ca8610c4e565b5b50919050565b7f46697273742c2063686f6f73653a204556454e206f72204f4444000000000000600082015250565b6000610ce5601a836109b4565b9150610cf082610caf565b602082019050919050565b60006020820190508181036000830152610d1481610cd8565b9050919050565b6000819050919050565b7f4e487b7100000000000000000000000000000000000000000000000000000000600052601160045260246000fd5b6000610d5f82610d1b565b9150610d6a83610d1b565b9250827fffffffffffffffffffffffffffffffffffffffffffffffffffffffffffffffff03821115610d9f57610d9e610d25565b5b828201905092915050565b7f4e487b7100000000000000000000000000000000000000000000000000000000600052601260045260246000fd5b6000610de482610d1b565b9150610def83610d1b565b925082610dff57610dfe610daa565b5b828206905092915050565b7f506c617965722063686f6f73653a200000000000000000000000000000000000815250565b600081905092915050565b60008190508160005260206000209050919050565b60008154610e5d81610c7d565b610e678186610e30565b94506001821660008114610e825760018114610e9357610ec6565b60ff19831686528186019350610ec6565b610e9c85610e3b565b60005b83811015610ebe57815481890152600182019150602081019050610e9f565b838801955050505b50505092915050565b7f2c20616e6420706c6179733a2000000000000000000000000000000000000000815250565b6000610f00826109a9565b610f0a8185610e30565b9350610f1a8185602086016109c5565b80840191505092915050565b7f2e2043505520706c6179733a2000000000000000000000000000000000000000815250565b6000610f5782610e0a565b600f82019150610f678286610e50565b9150610f7282610ecf565b600d82019150610f828285610ef5565b9150610f8d82610f26565b600d82019150610f9d8284610ef5565b9150819050949350505050565b7f20506c6179657220574f4e210000000000000000000000000000000000000000815250565b6000610fdc8284610ef5565b9150610fe782610faa565b600c8201915081905092915050565b7f2043505520574f4e210000000000000000000000000000000000000000000000815250565b60006110288284610ef5565b915061103382610ff6565b60098201915081905092915050565b7f43686f6f73653a204556454e206f72204f444400000000000000000000000000600082015250565b60006110786013836109b4565b915061108382611042565b602082019050919050565b600060208201905081810360008301526110a78161106b565b9050919050565b6000819050919050565b6110c96110c482610d1b565b6110ae565b82525050565b60006110db82856110b8565b6020820191506110eb8284610e50565b9150819050939250505056fea2646970667358221220ddacd32b674c16726fb7083682fe0277a6cd09e72567974c587227ed2e71cd3564736f6c634300080c0033",
					"opcodes": "PUSH1 0x80 PUSH1 0x40 MSTORE PUSH1 0x40 MLOAD DUP1 PUSH1 0x20 ADD PUSH1 0x40 MSTORE DUP1 PUSH1 0x0 DUP2 MSTORE POP PUSH1 0x0 SWAP1 DUP1 MLOAD SWAP1 PUSH1 0x20 ADD SWAP1 PUSH3 0x2B SWAP3 SWAP2 SWAP1 PUSH3 0x40 JUMP JUMPDEST POP CALLVALUE DUP1 ISZERO PUSH3 0x39 JUMPI PUSH1 0x0 DUP1 REVERT JUMPDEST POP PUSH3 0x155 JUMP JUMPDEST DUP3 DUP1 SLOAD PUSH3 0x4E SWAP1 PUSH3 0x11F JUMP JUMPDEST SWAP1 PUSH1 0x0 MSTORE PUSH1 0x20 PUSH1 0x0 KECCAK256 SWAP1 PUSH1 0x1F ADD PUSH1 0x20 SWAP1 DIV DUP2 ADD SWAP3 DUP3 PUSH3 0x72 JUMPI PUSH1 0x0 DUP6 SSTORE PUSH3 0xBE JUMP JUMPDEST DUP3 PUSH1 0x1F LT PUSH3 0x8D JUMPI DUP1 MLOAD PUSH1 0xFF NOT AND DUP4 DUP1 ADD OR DUP6 SSTORE PUSH3 0xBE JUMP JUMPDEST DUP3 DUP1 ADD PUSH1 0x1 ADD DUP6 SSTORE DUP3 ISZERO PUSH3 0xBE JUMPI SWAP2 DUP3 ADD JUMPDEST DUP3 DUP2 GT ISZERO PUSH3 0xBD JUMPI DUP3 MLOAD DUP3 SSTORE SWAP2 PUSH1 0x20 ADD SWAP2 SWAP1 PUSH1 0x1 ADD SWAP1 PUSH3 0xA0 JUMP JUMPDEST JUMPDEST POP SWAP1 POP PUSH3 0xCD SWAP2 SWAP1 PUSH3 0xD1 JUMP JUMPDEST POP SWAP1 JUMP JUMPDEST JUMPDEST DUP1 DUP3 GT ISZERO PUSH3 0xEC JUMPI PUSH1 0x0 DUP2 PUSH1 0x0 SWAP1 SSTORE POP PUSH1 0x1 ADD PUSH3 0xD2 JUMP JUMPDEST POP SWAP1 JUMP JUMPDEST PUSH32 0x4E487B7100000000000000000000000000000000000000000000000000000000 PUSH1 0x0 MSTORE PUSH1 0x22 PUSH1 0x4 MSTORE PUSH1 0x24 PUSH1 0x0 REVERT JUMPDEST PUSH1 0x0 PUSH1 0x2 DUP3 DIV SWAP1 POP PUSH1 0x1 DUP3 AND DUP1 PUSH3 0x138 JUMPI PUSH1 0x7F DUP3 AND SWAP2 POP JUMPDEST PUSH1 0x20 DUP3 LT DUP2 EQ ISZERO PUSH3 0x14F JUMPI PUSH3 0x14E PUSH3 0xF0 JUMP JUMPDEST JUMPDEST POP SWAP2 SWAP1 POP JUMP JUMPDEST PUSH2 0x112D DUP1 PUSH3 0x165 PUSH1 0x0 CODECOPY PUSH1 0x0 RETURN INVALID PUSH1 0x80 PUSH1 0x40 MSTORE CALLVALUE DUP1 ISZERO PUSH2 0x10 JUMPI PUSH1 0x0 DUP1 REVERT JUMPDEST POP PUSH1 0x4 CALLDATASIZE LT PUSH2 0x41 JUMPI PUSH1 0x0 CALLDATALOAD PUSH1 0xE0 SHR DUP1 PUSH4 0x53A04B05 EQ PUSH2 0x46 JUMPI DUP1 PUSH4 0x98C8D81F EQ PUSH2 0x76 JUMPI DUP1 PUSH4 0x98F42FE3 EQ PUSH2 0x92 JUMPI JUMPDEST PUSH1 0x0 DUP1 REVERT JUMPDEST PUSH2 0x60 PUSH1 0x4 DUP1 CALLDATASIZE SUB DUP2 ADD SWAP1 PUSH2 0x5B SWAP2 SWAP1 PUSH2 0x97C JUMP JUMPDEST PUSH2 0xB0 JUMP JUMPDEST PUSH1 0x40 MLOAD PUSH2 0x6D SWAP2 SWAP1 PUSH2 0xA42 JUMP JUMPDEST PUSH1 0x40 MLOAD DUP1 SWAP2 SUB SWAP1 RETURN JUMPDEST PUSH2 0x90 PUSH1 0x4 DUP1 CALLDATASIZE SUB DUP2 ADD SWAP1 PUSH2 0x8B SWAP2 SWAP1 PUSH2 0xB99 JUMP JUMPDEST PUSH2 0x482 JUMP JUMPDEST STOP JUMPDEST PUSH2 0x9A PUSH2 0x560 JUMP JUMPDEST PUSH1 0x40 MLOAD PUSH2 0xA7 SWAP2 SWAP1 PUSH2 0xA42 JUMP JUMPDEST PUSH1 0x40 MLOAD DUP1 SWAP2 SUB SWAP1 RETURN JUMPDEST PUSH1 0x60 PUSH1 0x0 DUP3 PUSH1 0xFF AND LT ISZERO DUP1 ISZERO PUSH2 0xCA JUMPI POP PUSH1 0x2 DUP3 PUSH1 0xFF AND GT ISZERO JUMPDEST PUSH2 0x109 JUMPI PUSH1 0x40 MLOAD PUSH32 0x8C379A000000000000000000000000000000000000000000000000000000000 DUP2 MSTORE PUSH1 0x4 ADD PUSH2 0x100 SWAP1 PUSH2 0xC2E JUMP JUMPDEST PUSH1 0x40 MLOAD DUP1 SWAP2 SUB SWAP1 REVERT JUMPDEST PUSH2 0x1AC PUSH1 0x0 DUP1 SLOAD PUSH2 0x119 SWAP1 PUSH2 0xC7D JUMP JUMPDEST DUP1 PUSH1 0x1F ADD PUSH1 0x20 DUP1 SWAP2 DIV MUL PUSH1 0x20 ADD PUSH1 0x40 MLOAD SWAP1 DUP2 ADD PUSH1 0x40 MSTORE DUP1 SWAP3 SWAP2 SWAP1 DUP2 DUP2 MSTORE PUSH1 0x20 ADD DUP3 DUP1 SLOAD PUSH2 0x145 SWAP1 PUSH2 0xC7D JUMP JUMPDEST DUP1 ISZERO PUSH2 0x192 JUMPI DUP1 PUSH1 0x1F LT PUSH2 0x167 JUMPI PUSH2 0x100 DUP1 DUP4 SLOAD DIV MUL DUP4 MSTORE SWAP2 PUSH1 0x20 ADD SWAP2 PUSH2 0x192 JUMP JUMPDEST DUP3 ADD SWAP2 SWAP1 PUSH1 0x0 MSTORE PUSH1 0x20 PUSH1 0x0 KECCAK256 SWAP1 JUMPDEST DUP2 SLOAD DUP2 MSTORE SWAP1 PUSH1 0x1 ADD SWAP1 PUSH1 0x20 ADD DUP1 DUP4 GT PUSH2 0x175 JUMPI DUP3 SWAP1 SUB PUSH1 0x1F AND DUP3 ADD SWAP2 JUMPDEST POP POP POP POP POP PUSH1 0x40 MLOAD DUP1 PUSH1 0x20 ADD PUSH1 0x40 MSTORE DUP1 PUSH1 0x0 DUP2 MSTORE POP PUSH2 0x5EE JUMP JUMPDEST ISZERO PUSH2 0x1EC JUMPI PUSH1 0x40 MLOAD PUSH32 0x8C379A000000000000000000000000000000000000000000000000000000000 DUP2 MSTORE PUSH1 0x4 ADD PUSH2 0x1E3 SWAP1 PUSH2 0xCFB JUMP JUMPDEST PUSH1 0x40 MLOAD DUP1 SWAP2 SUB SWAP1 REVERT JUMPDEST PUSH1 0x0 PUSH2 0x1F6 PUSH2 0x621 JUMP JUMPDEST SWAP1 POP PUSH1 0x0 DUP1 PUSH1 0x2 DUP6 PUSH1 0xFF AND DUP5 PUSH2 0x20C SWAP2 SWAP1 PUSH2 0xD54 JUMP JUMPDEST PUSH2 0x216 SWAP2 SWAP1 PUSH2 0xDD9 JUMP JUMPDEST EQ SWAP1 POP PUSH1 0x0 DUP1 PUSH2 0x228 DUP7 PUSH1 0xFF AND PUSH2 0x661 JUMP JUMPDEST PUSH2 0x231 DUP6 PUSH2 0x661 JUMP JUMPDEST PUSH1 0x40 MLOAD PUSH1 0x20 ADD PUSH2 0x243 SWAP4 SWAP3 SWAP2 SWAP1 PUSH2 0xF4C JUMP JUMPDEST PUSH1 0x40 MLOAD PUSH1 0x20 DUP2 DUP4 SUB SUB DUP2 MSTORE SWAP1 PUSH1 0x40 MSTORE SWAP1 POP DUP2 DUP1 ISZERO PUSH2 0x326 JUMPI POP PUSH2 0x325 PUSH1 0x0 DUP1 SLOAD PUSH2 0x26C SWAP1 PUSH2 0xC7D JUMP JUMPDEST DUP1 PUSH1 0x1F ADD PUSH1 0x20 DUP1 SWAP2 DIV MUL PUSH1 0x20 ADD PUSH1 0x40 MLOAD SWAP1 DUP2 ADD PUSH1 0x40 MSTORE DUP1 SWAP3 SWAP2 SWAP1 DUP2 DUP2 MSTORE PUSH1 0x20 ADD DUP3 DUP1 SLOAD PUSH2 0x298 SWAP1 PUSH2 0xC7D JUMP JUMPDEST DUP1 ISZERO PUSH2 0x2E5 JUMPI DUP1 PUSH1 0x1F LT PUSH2 0x2BA JUMPI PUSH2 0x100 DUP1 DUP4 SLOAD DIV MUL DUP4 MSTORE SWAP2 PUSH1 0x20 ADD SWAP2 PUSH2 0x2E5 JUMP JUMPDEST DUP3 ADD SWAP2 SWAP1 PUSH1 0x0 MSTORE PUSH1 0x20 PUSH1 0x0 KECCAK256 SWAP1 JUMPDEST DUP2 SLOAD DUP2 MSTORE SWAP1 PUSH1 0x1 ADD SWAP1 PUSH1 0x20 ADD DUP1 DUP4 GT PUSH2 0x2C8 JUMPI DUP3 SWAP1 SUB PUSH1 0x1F AND DUP3 ADD SWAP2 JUMPDEST POP POP POP POP POP PUSH1 0x40 MLOAD DUP1 PUSH1 0x40 ADD PUSH1 0x40 MSTORE DUP1 PUSH1 0x4 DUP2 MSTORE PUSH1 0x20 ADD PUSH32 0x4556454E00000000000000000000000000000000000000000000000000000000 DUP2 MSTORE POP PUSH2 0x5EE JUMP JUMPDEST JUMPDEST ISZERO PUSH2 0x355 JUMPI DUP1 PUSH1 0x40 MLOAD PUSH1 0x20 ADD PUSH2 0x33C SWAP2 SWAP1 PUSH2 0xFD0 JUMP JUMPDEST PUSH1 0x40 MLOAD PUSH1 0x20 DUP2 DUP4 SUB SUB DUP2 MSTORE SWAP1 PUSH1 0x40 MSTORE SWAP4 POP POP POP POP PUSH2 0x47D JUMP JUMPDEST DUP2 ISZERO DUP1 ISZERO PUSH2 0x428 JUMPI POP PUSH2 0x427 PUSH1 0x0 DUP1 SLOAD PUSH2 0x36E SWAP1 PUSH2 0xC7D JUMP JUMPDEST DUP1 PUSH1 0x1F ADD PUSH1 0x20 DUP1 SWAP2 DIV MUL PUSH1 0x20 ADD PUSH1 0x40 MLOAD SWAP1 DUP2 ADD PUSH1 0x40 MSTORE DUP1 SWAP3 SWAP2 SWAP1 DUP2 DUP2 MSTORE PUSH1 0x20 ADD DUP3 DUP1 SLOAD PUSH2 0x39A SWAP1 PUSH2 0xC7D JUMP JUMPDEST DUP1 ISZERO PUSH2 0x3E7 JUMPI DUP1 PUSH1 0x1F LT PUSH2 0x3BC JUMPI PUSH2 0x100 DUP1 DUP4 SLOAD DIV MUL DUP4 MSTORE SWAP2 PUSH1 0x20 ADD SWAP2 PUSH2 0x3E7 JUMP JUMPDEST DUP3 ADD SWAP2 SWAP1 PUSH1 0x0 MSTORE PUSH1 0x20 PUSH1 0x0 KECCAK256 SWAP1 JUMPDEST DUP2 SLOAD DUP2 MSTORE SWAP1 PUSH1 0x1 ADD SWAP1 PUSH1 0x20 ADD DUP1 DUP4 GT PUSH2 0x3CA JUMPI DUP3 SWAP1 SUB PUSH1 0x1F AND DUP3 ADD SWAP2 JUMPDEST POP POP POP POP POP PUSH1 0x40 MLOAD DUP1 PUSH1 0x40 ADD PUSH1 0x40 MSTORE DUP1 PUSH1 0x3 DUP2 MSTORE PUSH1 0x20 ADD PUSH32 0x4F44440000000000000000000000000000000000000000000000000000000000 DUP2 MSTORE POP PUSH2 0x5EE JUMP JUMPDEST JUMPDEST ISZERO PUSH2 0x457 JUMPI DUP1 PUSH1 0x40 MLOAD PUSH1 0x20 ADD PUSH2 0x43E SWAP2 SWAP1 PUSH2 0xFD0 JUMP JUMPDEST PUSH1 0x40 MLOAD PUSH1 0x20 DUP2 DUP4 SUB SUB DUP2 MSTORE SWAP1 PUSH1 0x40 MSTORE SWAP4 POP POP POP POP PUSH2 0x47D JUMP JUMPDEST DUP1 PUSH1 0x40 MLOAD PUSH1 0x20 ADD PUSH2 0x468 SWAP2 SWAP1 PUSH2 0x101C JUMP JUMPDEST PUSH1 0x40 MLOAD PUSH1 0x20 DUP2 DUP4 SUB SUB DUP2 MSTORE SWAP1 PUSH1 0x40 MSTORE SWAP4 POP POP POP POP JUMPDEST SWAP2 SWAP1 POP JUMP JUMPDEST PUSH2 0x4C1 DUP2 PUSH1 0x40 MLOAD DUP1 PUSH1 0x40 ADD PUSH1 0x40 MSTORE DUP1 PUSH1 0x4 DUP2 MSTORE PUSH1 0x20 ADD PUSH32 0x4556454E00000000000000000000000000000000000000000000000000000000 DUP2 MSTORE POP PUSH2 0x5EE JUMP JUMPDEST DUP1 PUSH2 0x507 JUMPI POP PUSH2 0x506 DUP2 PUSH1 0x40 MLOAD DUP1 PUSH1 0x40 ADD PUSH1 0x40 MSTORE DUP1 PUSH1 0x3 DUP2 MSTORE PUSH1 0x20 ADD PUSH32 0x4F44440000000000000000000000000000000000000000000000000000000000 DUP2 MSTORE POP PUSH2 0x5EE JUMP JUMPDEST JUMPDEST PUSH2 0x546 JUMPI PUSH1 0x40 MLOAD PUSH32 0x8C379A000000000000000000000000000000000000000000000000000000000 DUP2 MSTORE PUSH1 0x4 ADD PUSH2 0x53D SWAP1 PUSH2 0x108E JUMP JUMPDEST PUSH1 0x40 MLOAD DUP1 SWAP2 SUB SWAP1 REVERT JUMPDEST DUP1 PUSH1 0x0 SWAP1 DUP1 MLOAD SWAP1 PUSH1 0x20 ADD SWAP1 PUSH2 0x55C SWAP3 SWAP2 SWAP1 PUSH2 0x88C JUMP JUMPDEST POP POP JUMP JUMPDEST PUSH1 0x0 DUP1 SLOAD PUSH2 0x56D SWAP1 PUSH2 0xC7D JUMP JUMPDEST DUP1 PUSH1 0x1F ADD PUSH1 0x20 DUP1 SWAP2 DIV MUL PUSH1 0x20 ADD PUSH1 0x40 MLOAD SWAP1 DUP2 ADD PUSH1 0x40 MSTORE DUP1 SWAP3 SWAP2 SWAP1 DUP2 DUP2 MSTORE PUSH1 0x20 ADD DUP3 DUP1 SLOAD PUSH2 0x599 SWAP1 PUSH2 0xC7D JUMP JUMPDEST DUP1 ISZERO PUSH2 0x5E6 JUMPI DUP1 PUSH1 0x1F LT PUSH2 0x5BB JUMPI PUSH2 0x100 DUP1 DUP4 SLOAD DIV MUL DUP4 MSTORE SWAP2 PUSH1 0x20 ADD SWAP2 PUSH2 0x5E6 JUMP JUMPDEST DUP3 ADD SWAP2 SWAP1 PUSH1 0x0 MSTORE PUSH1 0x20 PUSH1 0x0 KECCAK256 SWAP1 JUMPDEST DUP2 SLOAD DUP2 MSTORE SWAP1 PUSH1 0x1 ADD SWAP1 PUSH1 0x20 ADD DUP1 DUP4 GT PUSH2 0x5C9 JUMPI DUP3 SWAP1 SUB PUSH1 0x1F AND DUP3 ADD SWAP2 JUMPDEST POP POP POP POP POP DUP2 JUMP JUMPDEST PUSH1 0x0 DUP1 DUP4 SWAP1 POP PUSH1 0x0 DUP4 SWAP1 POP DUP1 MLOAD DUP3 MLOAD EQ DUP1 ISZERO PUSH2 0x617 JUMPI POP DUP1 DUP1 MLOAD SWAP1 PUSH1 0x20 ADD KECCAK256 DUP3 DUP1 MLOAD SWAP1 PUSH1 0x20 ADD KECCAK256 EQ JUMPDEST SWAP3 POP POP POP SWAP3 SWAP2 POP POP JUMP JUMPDEST PUSH1 0x0 PUSH1 0x2 TIMESTAMP PUSH1 0x0 PUSH1 0x40 MLOAD PUSH1 0x20 ADD PUSH2 0x639 SWAP3 SWAP2 SWAP1 PUSH2 0x10CF JUMP JUMPDEST PUSH1 0x40 MLOAD PUSH1 0x20 DUP2 DUP4 SUB SUB DUP2 MSTORE SWAP1 PUSH1 0x40 MSTORE DUP1 MLOAD SWAP1 PUSH1 0x20 ADD KECCAK256 PUSH1 0x0 SHR PUSH2 0x65C SWAP2 SWAP1 PUSH2 0xDD9 JUMP JUMPDEST SWAP1 POP SWAP1 JUMP JUMPDEST PUSH1 0x60 PUSH1 0x0 PUSH1 0x1 PUSH2 0x670 DUP5 PUSH2 0x739 JUMP JUMPDEST ADD SWAP1 POP PUSH1 0x0 DUP2 PUSH8 0xFFFFFFFFFFFFFFFF DUP2 GT ISZERO PUSH2 0x68F JUMPI PUSH2 0x68E PUSH2 0xA6E JUMP JUMPDEST JUMPDEST PUSH1 0x40 MLOAD SWAP1 DUP1 DUP3 MSTORE DUP1 PUSH1 0x1F ADD PUSH1 0x1F NOT AND PUSH1 0x20 ADD DUP3 ADD PUSH1 0x40 MSTORE DUP1 ISZERO PUSH2 0x6C1 JUMPI DUP2 PUSH1 0x20 ADD PUSH1 0x1 DUP3 MUL DUP1 CALLDATASIZE DUP4 CALLDATACOPY DUP1 DUP3 ADD SWAP2 POP POP SWAP1 POP JUMPDEST POP SWAP1 POP PUSH1 0x0 DUP3 PUSH1 0x20 ADD DUP3 ADD SWAP1 POP JUMPDEST PUSH1 0x1 ISZERO PUSH2 0x72E JUMPI DUP1 DUP1 PUSH1 0x1 SWAP1 SUB SWAP2 POP POP PUSH32 0x3031323334353637383961626364656600000000000000000000000000000000 PUSH1 0xA DUP7 MOD BYTE DUP2 MSTORE8 PUSH1 0xA DUP6 DUP2 PUSH2 0x718 JUMPI PUSH2 0x717 PUSH2 0xDAA JUMP JUMPDEST JUMPDEST DIV SWAP5 POP PUSH1 0x0 DUP6 EQ ISZERO PUSH2 0x729 JUMPI PUSH2 0x72E JUMP JUMPDEST PUSH2 0x6CF JUMP JUMPDEST DUP2 SWAP4 POP POP POP POP SWAP2 SWAP1 POP JUMP JUMPDEST PUSH1 0x0 DUP1 PUSH1 0x0 SWAP1 POP PUSH27 0x184F03E93FF9F4DAA797ED6E38ED64BF6A1F010000000000000000 DUP4 LT PUSH2 0x797 JUMPI PUSH27 0x184F03E93FF9F4DAA797ED6E38ED64BF6A1F010000000000000000 DUP4 DUP2 PUSH2 0x78D JUMPI PUSH2 0x78C PUSH2 0xDAA JUMP JUMPDEST JUMPDEST DIV SWAP3 POP PUSH1 0x40 DUP2 ADD SWAP1 POP JUMPDEST PUSH14 0x4EE2D6D415B85ACEF8100000000 DUP4 LT PUSH2 0x7D4 JUMPI PUSH14 0x4EE2D6D415B85ACEF8100000000 DUP4 DUP2 PUSH2 0x7CA JUMPI PUSH2 0x7C9 PUSH2 0xDAA JUMP JUMPDEST JUMPDEST DIV SWAP3 POP PUSH1 0x20 DUP2 ADD SWAP1 POP JUMPDEST PUSH7 0x2386F26FC10000 DUP4 LT PUSH2 0x803 JUMPI PUSH7 0x2386F26FC10000 DUP4 DUP2 PUSH2 0x7F9 JUMPI PUSH2 0x7F8 PUSH2 0xDAA JUMP JUMPDEST JUMPDEST DIV SWAP3 POP PUSH1 0x10 DUP2 ADD SWAP1 POP JUMPDEST PUSH4 0x5F5E100 DUP4 LT PUSH2 0x82C JUMPI PUSH4 0x5F5E100 DUP4 DUP2 PUSH2 0x822 JUMPI PUSH2 0x821 PUSH2 0xDAA JUMP JUMPDEST JUMPDEST DIV SWAP3 POP PUSH1 0x8 DUP2 ADD SWAP1 POP JUMPDEST PUSH2 0x2710 DUP4 LT PUSH2 0x851 JUMPI PUSH2 0x2710 DUP4 DUP2 PUSH2 0x847 JUMPI PUSH2 0x846 PUSH2 0xDAA JUMP JUMPDEST JUMPDEST DIV SWAP3 POP PUSH1 0x4 DUP2 ADD SWAP1 POP JUMPDEST PUSH1 0x64 DUP4 LT PUSH2 0x874 JUMPI PUSH1 0x64 DUP4 DUP2 PUSH2 0x86A JUMPI PUSH2 0x869 PUSH2 0xDAA JUMP JUMPDEST JUMPDEST DIV SWAP3 POP PUSH1 0x2 DUP2 ADD SWAP1 POP JUMPDEST PUSH1 0xA DUP4 LT PUSH2 0x883 JUMPI PUSH1 0x1 DUP2 ADD SWAP1 POP JUMPDEST DUP1 SWAP2 POP POP SWAP2 SWAP1 POP JUMP JUMPDEST DUP3 DUP1 SLOAD PUSH2 0x898 SWAP1 PUSH2 0xC7D JUMP JUMPDEST SWAP1 PUSH1 0x0 MSTORE PUSH1 0x20 PUSH1 0x0 KECCAK256 SWAP1 PUSH1 0x1F ADD PUSH1 0x20 SWAP1 DIV DUP2 ADD SWAP3 DUP3 PUSH2 0x8BA JUMPI PUSH1 0x0 DUP6 SSTORE PUSH2 0x901 JUMP JUMPDEST DUP3 PUSH1 0x1F LT PUSH2 0x8D3 JUMPI DUP1 MLOAD PUSH1 0xFF NOT AND DUP4 DUP1 ADD OR DUP6 SSTORE PUSH2 0x901 JUMP JUMPDEST DUP3 DUP1 ADD PUSH1 0x1 ADD DUP6 SSTORE DUP3 ISZERO PUSH2 0x901 JUMPI SWAP2 DUP3 ADD JUMPDEST DUP3 DUP2 GT ISZERO PUSH2 0x900 JUMPI DUP3 MLOAD DUP3 SSTORE SWAP2 PUSH1 0x20 ADD SWAP2 SWAP1 PUSH1 0x1 ADD SWAP1 PUSH2 0x8E5 JUMP JUMPDEST JUMPDEST POP SWAP1 POP PUSH2 0x90E SWAP2 SWAP1 PUSH2 0x912 JUMP JUMPDEST POP SWAP1 JUMP JUMPDEST JUMPDEST DUP1 DUP3 GT ISZERO PUSH2 0x92B JUMPI PUSH1 0x0 DUP2 PUSH1 0x0 SWAP1 SSTORE POP PUSH1 0x1 ADD PUSH2 0x913 JUMP JUMPDEST POP SWAP1 JUMP JUMPDEST PUSH1 0x0 PUSH1 0x40 MLOAD SWAP1 POP SWAP1 JUMP JUMPDEST PUSH1 0x0 DUP1 REVERT JUMPDEST PUSH1 0x0 DUP1 REVERT JUMPDEST PUSH1 0x0 PUSH1 0xFF DUP3 AND SWAP1 POP SWAP2 SWAP1 POP JUMP JUMPDEST PUSH2 0x959 DUP2 PUSH2 0x943 JUMP JUMPDEST DUP2 EQ PUSH2 0x964 JUMPI PUSH1 0x0 DUP1 REVERT JUMPDEST POP JUMP JUMPDEST PUSH1 0x0 DUP2 CALLDATALOAD SWAP1 POP PUSH2 0x976 DUP2 PUSH2 0x950 JUMP JUMPDEST SWAP3 SWAP2 POP POP JUMP JUMPDEST PUSH1 0x0 PUSH1 0x20 DUP3 DUP5 SUB SLT ISZERO PUSH2 0x992 JUMPI PUSH2 0x991 PUSH2 0x939 JUMP JUMPDEST JUMPDEST PUSH1 0x0 PUSH2 0x9A0 DUP5 DUP3 DUP6 ADD PUSH2 0x967 JUMP JUMPDEST SWAP2 POP POP SWAP3 SWAP2 POP POP JUMP JUMPDEST PUSH1 0x0 DUP2 MLOAD SWAP1 POP SWAP2 SWAP1 POP JUMP JUMPDEST PUSH1 0x0 DUP3 DUP3 MSTORE PUSH1 0x20 DUP3 ADD SWAP1 POP SWAP3 SWAP2 POP POP JUMP JUMPDEST PUSH1 0x0 JUMPDEST DUP4 DUP2 LT ISZERO PUSH2 0x9E3 JUMPI DUP1 DUP3 ADD MLOAD DUP2 DUP5 ADD MSTORE PUSH1 0x20 DUP2 ADD SWAP1 POP PUSH2 0x9C8 JUMP JUMPDEST DUP4 DUP2 GT ISZERO PUSH2 0x9F2 JUMPI PUSH1 0x0 DUP5 DUP5 ADD MSTORE JUMPDEST POP POP POP POP JUMP JUMPDEST PUSH1 0x0 PUSH1 0x1F NOT PUSH1 0x1F DUP4 ADD AND SWAP1 POP SWAP2 SWAP1 POP JUMP JUMPDEST PUSH1 0x0 PUSH2 0xA14 DUP3 PUSH2 0x9A9 JUMP JUMPDEST PUSH2 0xA1E DUP2 DUP6 PUSH2 0x9B4 JUMP JUMPDEST SWAP4 POP PUSH2 0xA2E DUP2 DUP6 PUSH1 0x20 DUP7 ADD PUSH2 0x9C5 JUMP JUMPDEST PUSH2 0xA37 DUP2 PUSH2 0x9F8 JUMP JUMPDEST DUP5 ADD SWAP2 POP POP SWAP3 SWAP2 POP POP JUMP JUMPDEST PUSH1 0x0 PUSH1 0x20 DUP3 ADD SWAP1 POP DUP2 DUP2 SUB PUSH1 0x0 DUP4 ADD MSTORE PUSH2 0xA5C DUP2 DUP5 PUSH2 0xA09 JUMP JUMPDEST SWAP1 POP SWAP3 SWAP2 POP POP JUMP JUMPDEST PUSH1 0x0 DUP1 REVERT JUMPDEST PUSH1 0x0 DUP1 REVERT JUMPDEST PUSH32 0x4E487B7100000000000000000000000000000000000000000000000000000000 PUSH1 0x0 MSTORE PUSH1 0x41 PUSH1 0x4 MSTORE PUSH1 0x24 PUSH1 0x0 REVERT JUMPDEST PUSH2 0xAA6 DUP3 PUSH2 0x9F8 JUMP JUMPDEST DUP2 ADD DUP2 DUP2 LT PUSH8 0xFFFFFFFFFFFFFFFF DUP3 GT OR ISZERO PUSH2 0xAC5 JUMPI PUSH2 0xAC4 PUSH2 0xA6E JUMP JUMPDEST JUMPDEST DUP1 PUSH1 0x40 MSTORE POP POP POP JUMP JUMPDEST PUSH1 0x0 PUSH2 0xAD8 PUSH2 0x92F JUMP JUMPDEST SWAP1 POP PUSH2 0xAE4 DUP3 DUP3 PUSH2 0xA9D JUMP JUMPDEST SWAP2 SWAP1 POP JUMP JUMPDEST PUSH1 0x0 PUSH8 0xFFFFFFFFFFFFFFFF DUP3 GT ISZERO PUSH2 0xB04 JUMPI PUSH2 0xB03 PUSH2 0xA6E JUMP JUMPDEST JUMPDEST PUSH2 0xB0D DUP3 PUSH2 0x9F8 JUMP JUMPDEST SWAP1 POP PUSH1 0x20 DUP2 ADD SWAP1 POP SWAP2 SWAP1 POP JUMP JUMPDEST DUP3 DUP2 DUP4 CALLDATACOPY PUSH1 0x0 DUP4 DUP4 ADD MSTORE POP POP POP JUMP JUMPDEST PUSH1 0x0 PUSH2 0xB3C PUSH2 0xB37 DUP5 PUSH2 0xAE9 JUMP JUMPDEST PUSH2 0xACE JUMP JUMPDEST SWAP1 POP DUP3 DUP2 MSTORE PUSH1 0x20 DUP2 ADD DUP5 DUP5 DUP5 ADD GT ISZERO PUSH2 0xB58 JUMPI PUSH2 0xB57 PUSH2 0xA69 JUMP JUMPDEST JUMPDEST PUSH2 0xB63 DUP5 DUP3 DUP6 PUSH2 0xB1A JUMP JUMPDEST POP SWAP4 SWAP3 POP POP POP JUMP JUMPDEST PUSH1 0x0 DUP3 PUSH1 0x1F DUP4 ADD SLT PUSH2 0xB80 JUMPI PUSH2 0xB7F PUSH2 0xA64 JUMP JUMPDEST JUMPDEST DUP2 CALLDATALOAD PUSH2 0xB90 DUP5 DUP3 PUSH1 0x20 DUP7 ADD PUSH2 0xB29 JUMP JUMPDEST SWAP2 POP POP SWAP3 SWAP2 POP POP JUMP JUMPDEST PUSH1 0x0 PUSH1 0x20 DUP3 DUP5 SUB SLT ISZERO PUSH2 0xBAF JUMPI PUSH2 0xBAE PUSH2 0x939 JUMP JUMPDEST JUMPDEST PUSH1 0x0 DUP3 ADD CALLDATALOAD PUSH8 0xFFFFFFFFFFFFFFFF DUP2 GT ISZERO PUSH2 0xBCD JUMPI PUSH2 0xBCC PUSH2 0x93E JUMP JUMPDEST JUMPDEST PUSH2 0xBD9 DUP5 DUP3 DUP6 ADD PUSH2 0xB6B JUMP JUMPDEST SWAP2 POP POP SWAP3 SWAP2 POP POP JUMP JUMPDEST PUSH32 0x506C617920776974683A20302C2031206F722032000000000000000000000000 PUSH1 0x0 DUP3 ADD MSTORE POP JUMP JUMPDEST PUSH1 0x0 PUSH2 0xC18 PUSH1 0x14 DUP4 PUSH2 0x9B4 JUMP JUMPDEST SWAP2 POP PUSH2 0xC23 DUP3 PUSH2 0xBE2 JUMP JUMPDEST PUSH1 0x20 DUP3 ADD SWAP1 POP SWAP2 SWAP1 POP JUMP JUMPDEST PUSH1 0x0 PUSH1 0x20 DUP3 ADD SWAP1 POP DUP2 DUP2 SUB PUSH1 0x0 DUP4 ADD MSTORE PUSH2 0xC47 DUP2 PUSH2 0xC0B JUMP JUMPDEST SWAP1 POP SWAP2 SWAP1 POP JUMP JUMPDEST PUSH32 0x4E487B7100000000000000000000000000000000000000000000000000000000 PUSH1 0x0 MSTORE PUSH1 0x22 PUSH1 0x4 MSTORE PUSH1 0x24 PUSH1 0x0 REVERT JUMPDEST PUSH1 0x0 PUSH1 0x2 DUP3 DIV SWAP1 POP PUSH1 0x1 DUP3 AND DUP1 PUSH2 0xC95 JUMPI PUSH1 0x7F DUP3 AND SWAP2 POP JUMPDEST PUSH1 0x20 DUP3 LT DUP2 EQ ISZERO PUSH2 0xCA9 JUMPI PUSH2 0xCA8 PUSH2 0xC4E JUMP JUMPDEST JUMPDEST POP SWAP2 SWAP1 POP JUMP JUMPDEST PUSH32 0x46697273742C2063686F6F73653A204556454E206F72204F4444000000000000 PUSH1 0x0 DUP3 ADD MSTORE POP JUMP JUMPDEST PUSH1 0x0 PUSH2 0xCE5 PUSH1 0x1A DUP4 PUSH2 0x9B4 JUMP JUMPDEST SWAP2 POP PUSH2 0xCF0 DUP3 PUSH2 0xCAF JUMP JUMPDEST PUSH1 0x20 DUP3 ADD SWAP1 POP SWAP2 SWAP1 POP JUMP JUMPDEST PUSH1 0x0 PUSH1 0x20 DUP3 ADD SWAP1 POP DUP2 DUP2 SUB PUSH1 0x0 DUP4 ADD MSTORE PUSH2 0xD14 DUP2 PUSH2 0xCD8 JUMP JUMPDEST SWAP1 POP SWAP2 SWAP1 POP JUMP JUMPDEST PUSH1 0x0 DUP2 SWAP1 POP SWAP2 SWAP1 POP JUMP JUMPDEST PUSH32 0x4E487B7100000000000000000000000000000000000000000000000000000000 PUSH1 0x0 MSTORE PUSH1 0x11 PUSH1 0x4 MSTORE PUSH1 0x24 PUSH1 0x0 REVERT JUMPDEST PUSH1 0x0 PUSH2 0xD5F DUP3 PUSH2 0xD1B JUMP JUMPDEST SWAP2 POP PUSH2 0xD6A DUP4 PUSH2 0xD1B JUMP JUMPDEST SWAP3 POP DUP3 PUSH32 0xFFFFFFFFFFFFFFFFFFFFFFFFFFFFFFFFFFFFFFFFFFFFFFFFFFFFFFFFFFFFFFFF SUB DUP3 GT ISZERO PUSH2 0xD9F JUMPI PUSH2 0xD9E PUSH2 0xD25 JUMP JUMPDEST JUMPDEST DUP3 DUP3 ADD SWAP1 POP SWAP3 SWAP2 POP POP JUMP JUMPDEST PUSH32 0x4E487B7100000000000000000000000000000000000000000000000000000000 PUSH1 0x0 MSTORE PUSH1 0x12 PUSH1 0x4 MSTORE PUSH1 0x24 PUSH1 0x0 REVERT JUMPDEST PUSH1 0x0 PUSH2 0xDE4 DUP3 PUSH2 0xD1B JUMP JUMPDEST SWAP2 POP PUSH2 0xDEF DUP4 PUSH2 0xD1B JUMP JUMPDEST SWAP3 POP DUP3 PUSH2 0xDFF JUMPI PUSH2 0xDFE PUSH2 0xDAA JUMP JUMPDEST JUMPDEST DUP3 DUP3 MOD SWAP1 POP SWAP3 SWAP2 POP POP JUMP JUMPDEST PUSH32 0x506C617965722063686F6F73653A200000000000000000000000000000000000 DUP2 MSTORE POP JUMP JUMPDEST PUSH1 0x0 DUP2 SWAP1 POP SWAP3 SWAP2 POP POP JUMP JUMPDEST PUSH1 0x0 DUP2 SWAP1 POP DUP2 PUSH1 0x0 MSTORE PUSH1 0x20 PUSH1 0x0 KECCAK256 SWAP1 POP SWAP2 SWAP1 POP JUMP JUMPDEST PUSH1 0x0 DUP2 SLOAD PUSH2 0xE5D DUP2 PUSH2 0xC7D JUMP JUMPDEST PUSH2 0xE67 DUP2 DUP7 PUSH2 0xE30 JUMP JUMPDEST SWAP5 POP PUSH1 0x1 DUP3 AND PUSH1 0x0 DUP2 EQ PUSH2 0xE82 JUMPI PUSH1 0x1 DUP2 EQ PUSH2 0xE93 JUMPI PUSH2 0xEC6 JUMP JUMPDEST PUSH1 0xFF NOT DUP4 AND DUP7 MSTORE DUP2 DUP7 ADD SWAP4 POP PUSH2 0xEC6 JUMP JUMPDEST PUSH2 0xE9C DUP6 PUSH2 0xE3B JUMP JUMPDEST PUSH1 0x0 JUMPDEST DUP4 DUP2 LT ISZERO PUSH2 0xEBE JUMPI DUP2 SLOAD DUP2 DUP10 ADD MSTORE PUSH1 0x1 DUP3 ADD SWAP2 POP PUSH1 0x20 DUP2 ADD SWAP1 POP PUSH2 0xE9F JUMP JUMPDEST DUP4 DUP9 ADD SWAP6 POP POP POP JUMPDEST POP POP POP SWAP3 SWAP2 POP POP JUMP JUMPDEST PUSH32 0x2C20616E6420706C6179733A2000000000000000000000000000000000000000 DUP2 MSTORE POP JUMP JUMPDEST PUSH1 0x0 PUSH2 0xF00 DUP3 PUSH2 0x9A9 JUMP JUMPDEST PUSH2 0xF0A DUP2 DUP6 PUSH2 0xE30 JUMP JUMPDEST SWAP4 POP PUSH2 0xF1A DUP2 DUP6 PUSH1 0x20 DUP7 ADD PUSH2 0x9C5 JUMP JUMPDEST DUP1 DUP5 ADD SWAP2 POP POP SWAP3 SWAP2 POP POP JUMP JUMPDEST PUSH32 0x2E2043505520706C6179733A2000000000000000000000000000000000000000 DUP2 MSTORE POP JUMP JUMPDEST PUSH1 0x0 PUSH2 0xF57 DUP3 PUSH2 0xE0A JUMP JUMPDEST PUSH1 0xF DUP3 ADD SWAP2 POP PUSH2 0xF67 DUP3 DUP7 PUSH2 0xE50 JUMP JUMPDEST SWAP2 POP PUSH2 0xF72 DUP3 PUSH2 0xECF JUMP JUMPDEST PUSH1 0xD DUP3 ADD SWAP2 POP PUSH2 0xF82 DUP3 DUP6 PUSH2 0xEF5 JUMP JUMPDEST SWAP2 POP PUSH2 0xF8D DUP3 PUSH2 0xF26 JUMP JUMPDEST PUSH1 0xD DUP3 ADD SWAP2 POP PUSH2 0xF9D DUP3 DUP5 PUSH2 0xEF5 JUMP JUMPDEST SWAP2 POP DUP2 SWAP1 POP SWAP5 SWAP4 POP POP POP POP JUMP JUMPDEST PUSH32 0x20506C6179657220574F4E210000000000000000000000000000000000000000 DUP2 MSTORE POP JUMP JUMPDEST PUSH1 0x0 PUSH2 0xFDC DUP3 DUP5 PUSH2 0xEF5 JUMP JUMPDEST SWAP2 POP PUSH2 0xFE7 DUP3 PUSH2 0xFAA JUMP JUMPDEST PUSH1 0xC DUP3 ADD SWAP2 POP DUP2 SWAP1 POP SWAP3 SWAP2 POP POP JUMP JUMPDEST PUSH32 0x2043505520574F4E210000000000000000000000000000000000000000000000 DUP2 MSTORE POP JUMP JUMPDEST PUSH1 0x0 PUSH2 0x1028 DUP3 DUP5 PUSH2 0xEF5 JUMP JUMPDEST SWAP2 POP PUSH2 0x1033 DUP3 PUSH2 0xFF6 JUMP JUMPDEST PUSH1 0x9 DUP3 ADD SWAP2 POP DUP2 SWAP1 POP SWAP3 SWAP2 POP POP JUMP JUMPDEST PUSH32 0x43686F6F73653A204556454E206F72204F444400000000000000000000000000 PUSH1 0x0 DUP3 ADD MSTORE POP JUMP JUMPDEST PUSH1 0x0 PUSH2 0x1078 PUSH1 0x13 DUP4 PUSH2 0x9B4 JUMP JUMPDEST SWAP2 POP PUSH2 0x1083 DUP3 PUSH2 0x1042 JUMP JUMPDEST PUSH1 0x20 DUP3 ADD SWAP1 POP SWAP2 SWAP1 POP JUMP JUMPDEST PUSH1 0x0 PUSH1 0x20 DUP3 ADD SWAP1 POP DUP2 DUP2 SUB PUSH1 0x0 DUP4 ADD MSTORE PUSH2 0x10A7 DUP2 PUSH2 0x106B JUMP JUMPDEST SWAP1 POP SWAP2 SWAP1 POP JUMP JUMPDEST PUSH1 0x0 DUP2 SWAP1 POP SWAP2 SWAP1 POP JUMP JUMPDEST PUSH2 0x10C9 PUSH2 0x10C4 DUP3 PUSH2 0xD1B JUMP JUMPDEST PUSH2 0x10AE JUMP JUMPDEST DUP3 MSTORE POP POP JUMP JUMPDEST PUSH1 0x0 PUSH2 0x10DB DUP3 DUP6 PUSH2 0x10B8 JUMP JUMPDEST PUSH1 0x20 DUP3 ADD SWAP2 POP PUSH2 0x10EB DUP3 DUP5 PUSH2 0xE50 JUMP JUMPDEST SWAP2 POP DUP2 SWAP1 POP SWAP4 SWAP3 POP POP POP JUMP INVALID LOG2 PUSH5 0x6970667358 0x22 SLT KECCAK256 0xDD 0xAC 0xD3 0x2B PUSH8 0x4C16726FB7083682 INVALID MUL PUSH24 0xA6CD09E72567974C587227ED2E71CD3564736F6C63430008 0xC STOP CALLER "
				},
				"gasEstimates": {
					"creation": {
						"codeDepositCost": "879400",
						"executionCost": "infinite",
						"totalCost": "infinite"
					},
					"external": {
						"choice()": "infinite",
						"choose(string)": "infinite",
						"play(uint8)": "infinite"
					},
					"internal": {
						"compareString(string memory,string memory)": "infinite",
						"random()": "infinite"
					}
				},
				"methodIdentifiers": {
					"choice()": "98f42fe3",
					"choose(string)": "98c8d81f",
					"play(uint8)": "53a04b05"
				}
			},
			"storageLayout": {
				"storage": [
					{
						"astId": 1205,
						"contract": "Contracts/PickEvenOrOdd.sol:PickEvenOrOdd",
						"label": "choice",
						"offset": 0,
						"slot": "0",
						"type": "t_string_storage"
					}
				],
				"types": {
					"t_string_storage": {
						"encoding": "bytes",
						"label": "string",
						"numberOfBytes": "32"
					}
				}
			},
			"userdoc": {
				"kind": "user",
				"methods": {
					"choose(string)": {
						"notice": "newChoice EVEN or ODD"
					}
				},
				"version": 1
			}
		}
	}
}