{
	"Contracts/JoKenPo.sol": {
		"JoKenPo": {
			"abi": [
				{
					"inputs": [],
					"stateMutability": "nonpayable",
					"type": "constructor"
				},
				{
					"inputs": [
						{
							"internalType": "enum JoKenPo.Options",
							"name": "newChoice",
							"type": "uint8"
						}
					],
					"name": "play",
					"outputs": [],
					"stateMutability": "nonpayable",
					"type": "function"
				},
				{
					"inputs": [],
					"name": "secretFunction",
					"outputs": [
						{
							"internalType": "string",
							"name": "",
							"type": "string"
						}
					],
					"stateMutability": "view",
					"type": "function"
				},
				{
					"inputs": [],
					"name": "status",
					"outputs": [
						{
							"internalType": "string",
							"name": "",
							"type": "string"
						}
					],
					"stateMutability": "view",
					"type": "function"
				}
			],
			"devdoc": {
				"kind": "dev",
				"methods": {},
				"version": 1
			},
			"evm": {
				"assembly": "    /* \"Contracts/JoKenPo.sol\":62:2673  contract JoKenPo {... */\n  mstore(0x40, 0xa0)\n    /* \"Contracts/JoKenPo.sol\":220:232  Options.NONE */\n  0x00\n    /* \"Contracts/JoKenPo.sol\":194:232  Options private choice1 = Options.NONE */\n  dup1\n  exp(0x0100, 0x00)\n  dup2\n  sload\n  dup2\n  0xff\n  mul\n  not\n  and\n  swap1\n  dup4\n  0x03\n  dup2\n  gt\n  iszero\n  tag_1\n  jumpi\n  tag_2\n  tag_3\n  jump\t// in\ntag_2:\ntag_1:\n  mul\n  or\n  swap1\n  sstore\n  pop\n    /* \"Contracts/JoKenPo.sol\":275:285  msg.sender */\n  caller\n    /* \"Contracts/JoKenPo.sol\":249:285  address private player1 = msg.sender */\n  0x00\n  exp(0x0100, 0x01)\n  dup2\n  sload\n  dup2\n  0xffffffffffffffffffffffffffffffffffffffff\n  mul\n  not\n  and\n  swap1\n  dup4\n  0xffffffffffffffffffffffffffffffffffffffff\n  and\n  mul\n  or\n  swap1\n  sstore\n  pop\n    /* \"Contracts/JoKenPo.sol\":343:368  string public status = \"\" */\n  mload(0x40)\n  dup1\n  0x20\n  add\n  0x40\n  mstore\n  dup1\n  0x00\n  dup2\n  mstore\n  pop\n  0x01\n  swap1\n  dup2\n  tag_4\n  swap2\n  swap1\n  tag_5\n  jump\t// in\ntag_4:\n  pop\n    /* \"Contracts/JoKenPo.sol\":489:593  constructor(){... */\n  callvalue\n  dup1\n  iszero\n  tag_6\n  jumpi\n  0x00\n  dup1\n  revert\ntag_6:\n  pop\n    /* \"Contracts/JoKenPo.sol\":575:585  msg.sender */\n  caller\n    /* \"Contracts/JoKenPo.sol\":567:585  owner = msg.sender */\n  0xffffffffffffffffffffffffffffffffffffffff\n  and\n  0x80\n  dup2\n  0xffffffffffffffffffffffffffffffffffffffff\n  and\n  dup2\n  mstore\n  pop\n  pop\n    /* \"Contracts/JoKenPo.sol\":62:2673  contract JoKenPo {... */\n  jump(tag_9)\n    /* \"#utility.yul\":7:187   */\ntag_3:\n    /* \"#utility.yul\":55:132   */\n  0x4e487b7100000000000000000000000000000000000000000000000000000000\n    /* \"#utility.yul\":52:53   */\n  0x00\n    /* \"#utility.yul\":45:133   */\n  mstore\n    /* \"#utility.yul\":152:156   */\n  0x21\n    /* \"#utility.yul\":149:150   */\n  0x04\n    /* \"#utility.yul\":142:157   */\n  mstore\n    /* \"#utility.yul\":176:180   */\n  0x24\n    /* \"#utility.yul\":173:174   */\n  0x00\n    /* \"#utility.yul\":166:181   */\n  revert\n    /* \"#utility.yul\":193:292   */\ntag_10:\n    /* \"#utility.yul\":245:251   */\n  0x00\n    /* \"#utility.yul\":279:284   */\n  dup2\n    /* \"#utility.yul\":273:285   */\n  mload\n    /* \"#utility.yul\":263:285   */\n  swap1\n  pop\n    /* \"#utility.yul\":193:292   */\n  swap2\n  swap1\n  pop\n  jump\t// out\n    /* \"#utility.yul\":298:478   */\ntag_11:\n    /* \"#utility.yul\":346:423   */\n  0x4e487b7100000000000000000000000000000000000000000000000000000000\n    /* \"#utility.yul\":343:344   */\n  0x00\n    /* \"#utility.yul\":336:424   */\n  mstore\n    /* \"#utility.yul\":443:447   */\n  0x41\n    /* \"#utility.yul\":440:441   */\n  0x04\n    /* \"#utility.yul\":433:448   */\n  mstore\n    /* \"#utility.yul\":467:471   */\n  0x24\n    /* \"#utility.yul\":464:465   */\n  0x00\n    /* \"#utility.yul\":457:472   */\n  revert\n    /* \"#utility.yul\":484:664   */\ntag_12:\n    /* \"#utility.yul\":532:609   */\n  0x4e487b7100000000000000000000000000000000000000000000000000000000\n    /* \"#utility.yul\":529:530   */\n  0x00\n    /* \"#utility.yul\":522:610   */\n  mstore\n    /* \"#utility.yul\":629:633   */\n  0x22\n    /* \"#utility.yul\":626:627   */\n  0x04\n    /* \"#utility.yul\":619:634   */\n  mstore\n    /* \"#utility.yul\":653:657   */\n  0x24\n    /* \"#utility.yul\":650:651   */\n  0x00\n    /* \"#utility.yul\":643:658   */\n  revert\n    /* \"#utility.yul\":670:990   */\ntag_13:\n    /* \"#utility.yul\":714:720   */\n  0x00\n    /* \"#utility.yul\":751:752   */\n  0x02\n    /* \"#utility.yul\":745:749   */\n  dup3\n    /* \"#utility.yul\":741:753   */\n  div\n    /* \"#utility.yul\":731:753   */\n  swap1\n  pop\n    /* \"#utility.yul\":798:799   */\n  0x01\n    /* \"#utility.yul\":792:796   */\n  dup3\n    /* \"#utility.yul\":788:800   */\n  and\n    /* \"#utility.yul\":819:837   */\n  dup1\n    /* \"#utility.yul\":809:890   */\n  tag_36\n  jumpi\n    /* \"#utility.yul\":875:879   */\n  0x7f\n    /* \"#utility.yul\":867:873   */\n  dup3\n    /* \"#utility.yul\":863:880   */\n  and\n    /* \"#utility.yul\":853:880   */\n  swap2\n  pop\n    /* \"#utility.yul\":809:890   */\ntag_36:\n    /* \"#utility.yul\":937:939   */\n  0x20\n    /* \"#utility.yul\":929:935   */\n  dup3\n    /* \"#utility.yul\":926:940   */\n  lt\n    /* \"#utility.yul\":906:924   */\n  dup2\n    /* \"#utility.yul\":903:941   */\n  sub\n    /* \"#utility.yul\":900:984   */\n  tag_37\n  jumpi\n    /* \"#utility.yul\":956:974   */\n  tag_38\n  tag_12\n  jump\t// in\ntag_38:\n    /* \"#utility.yul\":900:984   */\ntag_37:\n    /* \"#utility.yul\":721:990   */\n  pop\n    /* \"#utility.yul\":670:990   */\n  swap2\n  swap1\n  pop\n  jump\t// out\n    /* \"#utility.yul\":996:1137   */\ntag_14:\n    /* \"#utility.yul\":1045:1049   */\n  0x00\n    /* \"#utility.yul\":1068:1071   */\n  dup2\n    /* \"#utility.yul\":1060:1071   */\n  swap1\n  pop\n    /* \"#utility.yul\":1091:1094   */\n  dup2\n    /* \"#utility.yul\":1088:1089   */\n  0x00\n    /* \"#utility.yul\":1081:1095   */\n  mstore\n    /* \"#utility.yul\":1125:1129   */\n  0x20\n    /* \"#utility.yul\":1122:1123   */\n  0x00\n    /* \"#utility.yul\":1112:1130   */\n  keccak256\n    /* \"#utility.yul\":1104:1130   */\n  swap1\n  pop\n    /* \"#utility.yul\":996:1137   */\n  swap2\n  swap1\n  pop\n  jump\t// out\n    /* \"#utility.yul\":1143:1236   */\ntag_15:\n    /* \"#utility.yul\":1180:1186   */\n  0x00\n    /* \"#utility.yul\":1227:1229   */\n  0x20\n    /* \"#utility.yul\":1222:1224   */\n  0x1f\n    /* \"#utility.yul\":1215:1220   */\n  dup4\n    /* \"#utility.yul\":1211:1225   */\n  add\n    /* \"#utility.yul\":1207:1230   */\n  div\n    /* \"#utility.yul\":1197:1230   */\n  swap1\n  pop\n    /* \"#utility.yul\":1143:1236   */\n  swap2\n  swap1\n  pop\n  jump\t// out\n    /* \"#utility.yul\":1242:1349   */\ntag_16:\n    /* \"#utility.yul\":1286:1294   */\n  0x00\n    /* \"#utility.yul\":1336:1341   */\n  dup3\n    /* \"#utility.yul\":1330:1334   */\n  dup3\n    /* \"#utility.yul\":1326:1342   */\n  shl\n    /* \"#utility.yul\":1305:1342   */\n  swap1\n  pop\n    /* \"#utility.yul\":1242:1349   */\n  swap3\n  swap2\n  pop\n  pop\n  jump\t// out\n    /* \"#utility.yul\":1355:1748   */\ntag_17:\n    /* \"#utility.yul\":1424:1430   */\n  0x00\n    /* \"#utility.yul\":1474:1475   */\n  0x08\n    /* \"#utility.yul\":1462:1472   */\n  dup4\n    /* \"#utility.yul\":1458:1476   */\n  mul\n    /* \"#utility.yul\":1497:1594   */\n  tag_43\n    /* \"#utility.yul\":1527:1593   */\n  0xffffffffffffffffffffffffffffffffffffffffffffffffffffffffffffffff\n    /* \"#utility.yul\":1516:1525   */\n  dup3\n    /* \"#utility.yul\":1497:1594   */\n  tag_16\n  jump\t// in\ntag_43:\n    /* \"#utility.yul\":1615:1654   */\n  tag_44\n    /* \"#utility.yul\":1645:1653   */\n  dup7\n    /* \"#utility.yul\":1634:1643   */\n  dup4\n    /* \"#utility.yul\":1615:1654   */\n  tag_16\n  jump\t// in\ntag_44:\n    /* \"#utility.yul\":1603:1654   */\n  swap6\n  pop\n    /* \"#utility.yul\":1687:1691   */\n  dup1\n    /* \"#utility.yul\":1683:1692   */\n  not\n    /* \"#utility.yul\":1676:1681   */\n  dup5\n    /* \"#utility.yul\":1672:1693   */\n  and\n    /* \"#utility.yul\":1663:1693   */\n  swap4\n  pop\n    /* \"#utility.yul\":1736:1740   */\n  dup1\n    /* \"#utility.yul\":1726:1734   */\n  dup7\n    /* \"#utility.yul\":1722:1741   */\n  and\n    /* \"#utility.yul\":1715:1720   */\n  dup5\n    /* \"#utility.yul\":1712:1742   */\n  or\n    /* \"#utility.yul\":1702:1742   */\n  swap3\n  pop\n    /* \"#utility.yul\":1431:1748   */\n  pop\n  pop\n    /* \"#utility.yul\":1355:1748   */\n  swap4\n  swap3\n  pop\n  pop\n  pop\n  jump\t// out\n    /* \"#utility.yul\":1754:1831   */\ntag_18:\n    /* \"#utility.yul\":1791:1798   */\n  0x00\n    /* \"#utility.yul\":1820:1825   */\n  dup2\n    /* \"#utility.yul\":1809:1825   */\n  swap1\n  pop\n    /* \"#utility.yul\":1754:1831   */\n  swap2\n  swap1\n  pop\n  jump\t// out\n    /* \"#utility.yul\":1837:1897   */\ntag_19:\n    /* \"#utility.yul\":1865:1868   */\n  0x00\n    /* \"#utility.yul\":1886:1891   */\n  dup2\n    /* \"#utility.yul\":1879:1891   */\n  swap1\n  pop\n    /* \"#utility.yul\":1837:1897   */\n  swap2\n  swap1\n  pop\n  jump\t// out\n    /* \"#utility.yul\":1903:2045   */\ntag_20:\n    /* \"#utility.yul\":1953:1962   */\n  0x00\n    /* \"#utility.yul\":1986:2039   */\n  tag_48\n    /* \"#utility.yul\":2004:2038   */\n  tag_49\n    /* \"#utility.yul\":2013:2037   */\n  tag_50\n    /* \"#utility.yul\":2031:2036   */\n  dup5\n    /* \"#utility.yul\":2013:2037   */\n  tag_18\n  jump\t// in\ntag_50:\n    /* \"#utility.yul\":2004:2038   */\n  tag_19\n  jump\t// in\ntag_49:\n    /* \"#utility.yul\":1986:2039   */\n  tag_18\n  jump\t// in\ntag_48:\n    /* \"#utility.yul\":1973:2039   */\n  swap1\n  pop\n    /* \"#utility.yul\":1903:2045   */\n  swap2\n  swap1\n  pop\n  jump\t// out\n    /* \"#utility.yul\":2051:2126   */\ntag_21:\n    /* \"#utility.yul\":2094:2097   */\n  0x00\n    /* \"#utility.yul\":2115:2120   */\n  dup2\n    /* \"#utility.yul\":2108:2120   */\n  swap1\n  pop\n    /* \"#utility.yul\":2051:2126   */\n  swap2\n  swap1\n  pop\n  jump\t// out\n    /* \"#utility.yul\":2132:2401   */\ntag_22:\n    /* \"#utility.yul\":2242:2281   */\n  tag_53\n    /* \"#utility.yul\":2273:2280   */\n  dup4\n    /* \"#utility.yul\":2242:2281   */\n  tag_20\n  jump\t// in\ntag_53:\n    /* \"#utility.yul\":2303:2394   */\n  tag_54\n    /* \"#utility.yul\":2352:2393   */\n  tag_55\n    /* \"#utility.yul\":2376:2392   */\n  dup3\n    /* \"#utility.yul\":2352:2393   */\n  tag_21\n  jump\t// in\ntag_55:\n    /* \"#utility.yul\":2344:2350   */\n  dup5\n    /* \"#utility.yul\":2337:2341   */\n  dup5\n    /* \"#utility.yul\":2331:2342   */\n  sload\n    /* \"#utility.yul\":2303:2394   */\n  tag_17\n  jump\t// in\ntag_54:\n    /* \"#utility.yul\":2297:2301   */\n  dup3\n    /* \"#utility.yul\":2290:2395   */\n  sstore\n    /* \"#utility.yul\":2208:2401   */\n  pop\n    /* \"#utility.yul\":2132:2401   */\n  pop\n  pop\n  pop\n  jump\t// out\n    /* \"#utility.yul\":2407:2480   */\ntag_23:\n    /* \"#utility.yul\":2452:2455   */\n  0x00\n    /* \"#utility.yul\":2407:2480   */\n  swap1\n  jump\t// out\n    /* \"#utility.yul\":2486:2675   */\ntag_24:\n    /* \"#utility.yul\":2563:2595   */\n  tag_58\n  tag_23\n  jump\t// in\ntag_58:\n    /* \"#utility.yul\":2604:2669   */\n  tag_59\n    /* \"#utility.yul\":2662:2668   */\n  dup2\n    /* \"#utility.yul\":2654:2660   */\n  dup5\n    /* \"#utility.yul\":2648:2652   */\n  dup5\n    /* \"#utility.yul\":2604:2669   */\n  tag_22\n  jump\t// in\ntag_59:\n    /* \"#utility.yul\":2539:2675   */\n  pop\n    /* \"#utility.yul\":2486:2675   */\n  pop\n  pop\n  jump\t// out\n    /* \"#utility.yul\":2681:2867   */\ntag_25:\n    /* \"#utility.yul\":2741:2861   */\ntag_61:\n    /* \"#utility.yul\":2758:2761   */\n  dup2\n    /* \"#utility.yul\":2751:2756   */\n  dup2\n    /* \"#utility.yul\":2748:2762   */\n  lt\n    /* \"#utility.yul\":2741:2861   */\n  iszero\n  tag_63\n  jumpi\n    /* \"#utility.yul\":2812:2851   */\n  tag_64\n    /* \"#utility.yul\":2849:2850   */\n  0x00\n    /* \"#utility.yul\":2842:2847   */\n  dup3\n    /* \"#utility.yul\":2812:2851   */\n  tag_24\n  jump\t// in\ntag_64:\n    /* \"#utility.yul\":2785:2786   */\n  0x01\n    /* \"#utility.yul\":2778:2783   */\n  dup2\n    /* \"#utility.yul\":2774:2787   */\n  add\n    /* \"#utility.yul\":2765:2787   */\n  swap1\n  pop\n    /* \"#utility.yul\":2741:2861   */\n  jump(tag_61)\ntag_63:\n    /* \"#utility.yul\":2681:2867   */\n  pop\n  pop\n  jump\t// out\n    /* \"#utility.yul\":2873:3416   */\ntag_26:\n    /* \"#utility.yul\":2974:2976   */\n  0x1f\n    /* \"#utility.yul\":2969:2972   */\n  dup3\n    /* \"#utility.yul\":2966:2977   */\n  gt\n    /* \"#utility.yul\":2963:3409   */\n  iszero\n  tag_66\n  jumpi\n    /* \"#utility.yul\":3008:3046   */\n  tag_67\n    /* \"#utility.yul\":3040:3045   */\n  dup2\n    /* \"#utility.yul\":3008:3046   */\n  tag_14\n  jump\t// in\ntag_67:\n    /* \"#utility.yul\":3092:3121   */\n  tag_68\n    /* \"#utility.yul\":3110:3120   */\n  dup5\n    /* \"#utility.yul\":3092:3121   */\n  tag_15\n  jump\t// in\ntag_68:\n    /* \"#utility.yul\":3082:3090   */\n  dup2\n    /* \"#utility.yul\":3078:3122   */\n  add\n    /* \"#utility.yul\":3275:3277   */\n  0x20\n    /* \"#utility.yul\":3263:3273   */\n  dup6\n    /* \"#utility.yul\":3260:3278   */\n  lt\n    /* \"#utility.yul\":3257:3306   */\n  iszero\n  tag_69\n  jumpi\n    /* \"#utility.yul\":3296:3304   */\n  dup2\n    /* \"#utility.yul\":3281:3304   */\n  swap1\n  pop\n    /* \"#utility.yul\":3257:3306   */\ntag_69:\n    /* \"#utility.yul\":3319:3399   */\n  tag_70\n    /* \"#utility.yul\":3375:3397   */\n  tag_71\n    /* \"#utility.yul\":3393:3396   */\n  dup6\n    /* \"#utility.yul\":3375:3397   */\n  tag_15\n  jump\t// in\ntag_71:\n    /* \"#utility.yul\":3365:3373   */\n  dup4\n    /* \"#utility.yul\":3361:3398   */\n  add\n    /* \"#utility.yul\":3348:3359   */\n  dup3\n    /* \"#utility.yul\":3319:3399   */\n  tag_25\n  jump\t// in\ntag_70:\n    /* \"#utility.yul\":2978:3409   */\n  pop\n  pop\n    /* \"#utility.yul\":2963:3409   */\ntag_66:\n    /* \"#utility.yul\":2873:3416   */\n  pop\n  pop\n  pop\n  jump\t// out\n    /* \"#utility.yul\":3422:3539   */\ntag_27:\n    /* \"#utility.yul\":3476:3484   */\n  0x00\n    /* \"#utility.yul\":3526:3531   */\n  dup3\n    /* \"#utility.yul\":3520:3524   */\n  dup3\n    /* \"#utility.yul\":3516:3532   */\n  shr\n    /* \"#utility.yul\":3495:3532   */\n  swap1\n  pop\n    /* \"#utility.yul\":3422:3539   */\n  swap3\n  swap2\n  pop\n  pop\n  jump\t// out\n    /* \"#utility.yul\":3545:3714   */\ntag_28:\n    /* \"#utility.yul\":3589:3595   */\n  0x00\n    /* \"#utility.yul\":3622:3673   */\n  tag_74\n    /* \"#utility.yul\":3670:3671   */\n  0x00\n    /* \"#utility.yul\":3666:3672   */\n  not\n    /* \"#utility.yul\":3658:3663   */\n  dup5\n    /* \"#utility.yul\":3655:3656   */\n  0x08\n    /* \"#utility.yul\":3651:3664   */\n  mul\n    /* \"#utility.yul\":3622:3673   */\n  tag_27\n  jump\t// in\ntag_74:\n    /* \"#utility.yul\":3618:3674   */\n  not\n    /* \"#utility.yul\":3703:3707   */\n  dup1\n    /* \"#utility.yul\":3697:3701   */\n  dup4\n    /* \"#utility.yul\":3693:3708   */\n  and\n    /* \"#utility.yul\":3683:3708   */\n  swap2\n  pop\n    /* \"#utility.yul\":3596:3714   */\n  pop\n    /* \"#utility.yul\":3545:3714   */\n  swap3\n  swap2\n  pop\n  pop\n  jump\t// out\n    /* \"#utility.yul\":3719:4014   */\ntag_29:\n    /* \"#utility.yul\":3795:3799   */\n  0x00\n    /* \"#utility.yul\":3941:3970   */\n  tag_76\n    /* \"#utility.yul\":3966:3969   */\n  dup4\n    /* \"#utility.yul\":3960:3964   */\n  dup4\n    /* \"#utility.yul\":3941:3970   */\n  tag_28\n  jump\t// in\ntag_76:\n    /* \"#utility.yul\":3933:3970   */\n  swap2\n  pop\n    /* \"#utility.yul\":4003:4006   */\n  dup3\n    /* \"#utility.yul\":4000:4001   */\n  0x02\n    /* \"#utility.yul\":3996:4007   */\n  mul\n    /* \"#utility.yul\":3990:3994   */\n  dup3\n    /* \"#utility.yul\":3987:4008   */\n  or\n    /* \"#utility.yul\":3979:4008   */\n  swap1\n  pop\n    /* \"#utility.yul\":3719:4014   */\n  swap3\n  swap2\n  pop\n  pop\n  jump\t// out\n    /* \"#utility.yul\":4019:5414   */\ntag_5:\n    /* \"#utility.yul\":4136:4173   */\n  tag_78\n    /* \"#utility.yul\":4169:4172   */\n  dup3\n    /* \"#utility.yul\":4136:4173   */\n  tag_10\n  jump\t// in\ntag_78:\n    /* \"#utility.yul\":4238:4256   */\n  0xffffffffffffffff\n    /* \"#utility.yul\":4230:4236   */\n  dup2\n    /* \"#utility.yul\":4227:4257   */\n  gt\n    /* \"#utility.yul\":4224:4280   */\n  iszero\n  tag_79\n  jumpi\n    /* \"#utility.yul\":4260:4278   */\n  tag_80\n  tag_11\n  jump\t// in\ntag_80:\n    /* \"#utility.yul\":4224:4280   */\ntag_79:\n    /* \"#utility.yul\":4304:4342   */\n  tag_81\n    /* \"#utility.yul\":4336:4340   */\n  dup3\n    /* \"#utility.yul\":4330:4341   */\n  sload\n    /* \"#utility.yul\":4304:4342   */\n  tag_13\n  jump\t// in\ntag_81:\n    /* \"#utility.yul\":4389:4456   */\n  tag_82\n    /* \"#utility.yul\":4449:4455   */\n  dup3\n    /* \"#utility.yul\":4441:4447   */\n  dup3\n    /* \"#utility.yul\":4435:4439   */\n  dup6\n    /* \"#utility.yul\":4389:4456   */\n  tag_26\n  jump\t// in\ntag_82:\n    /* \"#utility.yul\":4483:4484   */\n  0x00\n    /* \"#utility.yul\":4507:4511   */\n  0x20\n    /* \"#utility.yul\":4494:4511   */\n  swap1\n  pop\n    /* \"#utility.yul\":4539:4541   */\n  0x1f\n    /* \"#utility.yul\":4531:4537   */\n  dup4\n    /* \"#utility.yul\":4528:4542   */\n  gt\n    /* \"#utility.yul\":4556:4557   */\n  0x01\n    /* \"#utility.yul\":4551:5169   */\n  dup2\n  eq\n  tag_84\n  jumpi\n    /* \"#utility.yul\":5213:5214   */\n  0x00\n    /* \"#utility.yul\":5230:5236   */\n  dup5\n    /* \"#utility.yul\":5227:5304   */\n  iszero\n  tag_85\n  jumpi\n    /* \"#utility.yul\":5279:5288   */\n  dup3\n    /* \"#utility.yul\":5274:5277   */\n  dup8\n    /* \"#utility.yul\":5270:5289   */\n  add\n    /* \"#utility.yul\":5264:5290   */\n  mload\n    /* \"#utility.yul\":5255:5290   */\n  swap1\n  pop\n    /* \"#utility.yul\":5227:5304   */\ntag_85:\n    /* \"#utility.yul\":5330:5397   */\n  tag_86\n    /* \"#utility.yul\":5390:5396   */\n  dup6\n    /* \"#utility.yul\":5383:5388   */\n  dup3\n    /* \"#utility.yul\":5330:5397   */\n  tag_29\n  jump\t// in\ntag_86:\n    /* \"#utility.yul\":5324:5328   */\n  dup7\n    /* \"#utility.yul\":5317:5398   */\n  sstore\n    /* \"#utility.yul\":5186:5408   */\n  pop\n    /* \"#utility.yul\":4521:5408   */\n  jump(tag_83)\n    /* \"#utility.yul\":4551:5169   */\ntag_84:\n    /* \"#utility.yul\":4603:4607   */\n  0x1f\n    /* \"#utility.yul\":4599:4608   */\n  not\n    /* \"#utility.yul\":4591:4597   */\n  dup5\n    /* \"#utility.yul\":4587:4609   */\n  and\n    /* \"#utility.yul\":4637:4674   */\n  tag_87\n    /* \"#utility.yul\":4669:4673   */\n  dup7\n    /* \"#utility.yul\":4637:4674   */\n  tag_14\n  jump\t// in\ntag_87:\n    /* \"#utility.yul\":4696:4697   */\n  0x00\n    /* \"#utility.yul\":4710:4918   */\ntag_88:\n    /* \"#utility.yul\":4724:4731   */\n  dup3\n    /* \"#utility.yul\":4721:4722   */\n  dup2\n    /* \"#utility.yul\":4718:4732   */\n  lt\n    /* \"#utility.yul\":4710:4918   */\n  iszero\n  tag_90\n  jumpi\n    /* \"#utility.yul\":4803:4812   */\n  dup5\n    /* \"#utility.yul\":4798:4801   */\n  dup10\n    /* \"#utility.yul\":4794:4813   */\n  add\n    /* \"#utility.yul\":4788:4814   */\n  mload\n    /* \"#utility.yul\":4780:4786   */\n  dup3\n    /* \"#utility.yul\":4773:4815   */\n  sstore\n    /* \"#utility.yul\":4854:4855   */\n  0x01\n    /* \"#utility.yul\":4846:4852   */\n  dup3\n    /* \"#utility.yul\":4842:4856   */\n  add\n    /* \"#utility.yul\":4832:4856   */\n  swap2\n  pop\n    /* \"#utility.yul\":4901:4903   */\n  0x20\n    /* \"#utility.yul\":4890:4899   */\n  dup6\n    /* \"#utility.yul\":4886:4904   */\n  add\n    /* \"#utility.yul\":4873:4904   */\n  swap5\n  pop\n    /* \"#utility.yul\":4747:4751   */\n  0x20\n    /* \"#utility.yul\":4744:4745   */\n  dup2\n    /* \"#utility.yul\":4740:4752   */\n  add\n    /* \"#utility.yul\":4735:4752   */\n  swap1\n  pop\n    /* \"#utility.yul\":4710:4918   */\n  jump(tag_88)\ntag_90:\n    /* \"#utility.yul\":4946:4952   */\n  dup7\n    /* \"#utility.yul\":4937:4944   */\n  dup4\n    /* \"#utility.yul\":4934:4953   */\n  lt\n    /* \"#utility.yul\":4931:5110   */\n  iszero\n  tag_91\n  jumpi\n    /* \"#utility.yul\":5004:5013   */\n  dup5\n    /* \"#utility.yul\":4999:5002   */\n  dup10\n    /* \"#utility.yul\":4995:5014   */\n  add\n    /* \"#utility.yul\":4989:5015   */\n  mload\n    /* \"#utility.yul\":5047:5095   */\n  tag_92\n    /* \"#utility.yul\":5089:5093   */\n  0x1f\n    /* \"#utility.yul\":5081:5087   */\n  dup10\n    /* \"#utility.yul\":5077:5094   */\n  and\n    /* \"#utility.yul\":5066:5075   */\n  dup3\n    /* \"#utility.yul\":5047:5095   */\n  tag_28\n  jump\t// in\ntag_92:\n    /* \"#utility.yul\":5039:5045   */\n  dup4\n    /* \"#utility.yul\":5032:5096   */\n  sstore\n    /* \"#utility.yul\":4954:5110   */\n  pop\n    /* \"#utility.yul\":4931:5110   */\ntag_91:\n    /* \"#utility.yul\":5156:5157   */\n  0x01\n    /* \"#utility.yul\":5152:5153   */\n  0x02\n    /* \"#utility.yul\":5144:5150   */\n  dup9\n    /* \"#utility.yul\":5140:5154   */\n  mul\n    /* \"#utility.yul\":5136:5158   */\n  add\n    /* \"#utility.yul\":5130:5134   */\n  dup9\n    /* \"#utility.yul\":5123:5159   */\n  sstore\n    /* \"#utility.yul\":4558:5169   */\n  pop\n  pop\n  pop\n    /* \"#utility.yul\":4521:5408   */\ntag_83:\n  pop\n    /* \"#utility.yul\":4111:5414   */\n  pop\n  pop\n  pop\n    /* \"#utility.yul\":4019:5414   */\n  pop\n  pop\n  jump\t// out\n    /* \"Contracts/JoKenPo.sol\":62:2673  contract JoKenPo {... */\ntag_9:\n  mload(0x80)\n  codecopy(0x00, dataOffset(sub_0), dataSize(sub_0))\n  0x00\n  assignImmutable(\"0x731dc163f73d31d8c68f9917ce4ff967753939f70432973c04fd2c2a48148607\")\n  return(0x00, dataSize(sub_0))\nstop\n\nsub_0: assembly {\n        /* \"Contracts/JoKenPo.sol\":62:2673  contract JoKenPo {... */\n      mstore(0x40, 0x80)\n      callvalue\n      dup1\n      iszero\n      tag_1\n      jumpi\n      0x00\n      dup1\n      revert\n    tag_1:\n      pop\n      jumpi(tag_2, lt(calldatasize, 0x04))\n      shr(0xe0, calldataload(0x00))\n      dup1\n      0x200d2ed2\n      eq\n      tag_3\n      jumpi\n      dup1\n      0x53a04b05\n      eq\n      tag_4\n      jumpi\n      dup1\n      0xe6df22ee\n      eq\n      tag_5\n      jumpi\n    tag_2:\n      0x00\n      dup1\n      revert\n        /* \"Contracts/JoKenPo.sol\":343:368  string public status = \"\" */\n    tag_3:\n      tag_6\n      tag_7\n      jump\t// in\n    tag_6:\n      mload(0x40)\n      tag_8\n      swap2\n      swap1\n      tag_9\n      jump\t// in\n    tag_8:\n      mload(0x40)\n      dup1\n      swap2\n      sub\n      swap1\n      return\n        /* \"Contracts/JoKenPo.sol\":1204:2670  function play(Options newChoice) public {... */\n    tag_4:\n      tag_10\n      0x04\n      dup1\n      calldatasize\n      sub\n      dup2\n      add\n      swap1\n      tag_11\n      swap2\n      swap1\n      tag_12\n      jump\t// in\n    tag_11:\n      tag_13\n      jump\t// in\n    tag_10:\n      stop\n        /* \"Contracts/JoKenPo.sol\":664:872  function secretFunction() public view returns (string memory){... */\n    tag_5:\n      tag_14\n      tag_15\n      jump\t// in\n    tag_14:\n      mload(0x40)\n      tag_16\n      swap2\n      swap1\n      tag_9\n      jump\t// in\n    tag_16:\n      mload(0x40)\n      dup1\n      swap2\n      sub\n      swap1\n      return\n        /* \"Contracts/JoKenPo.sol\":343:368  string public status = \"\" */\n    tag_7:\n      0x01\n      dup1\n      sload\n      tag_17\n      swap1\n      tag_18\n      jump\t// in\n    tag_17:\n      dup1\n      0x1f\n      add\n      0x20\n      dup1\n      swap2\n      div\n      mul\n      0x20\n      add\n      mload(0x40)\n      swap1\n      dup2\n      add\n      0x40\n      mstore\n      dup1\n      swap3\n      swap2\n      swap1\n      dup2\n      dup2\n      mstore\n      0x20\n      add\n      dup3\n      dup1\n      sload\n      tag_19\n      swap1\n      tag_18\n      jump\t// in\n    tag_19:\n      dup1\n      iszero\n      tag_20\n      jumpi\n      dup1\n      0x1f\n      lt\n      tag_21\n      jumpi\n      0x0100\n      dup1\n      dup4\n      sload\n      div\n      mul\n      dup4\n      mstore\n      swap2\n      0x20\n      add\n      swap2\n      jump(tag_20)\n    tag_21:\n      dup3\n      add\n      swap2\n      swap1\n      0x00\n      mstore\n      keccak256(0x00, 0x20)\n      swap1\n    tag_22:\n      dup2\n      sload\n      dup2\n      mstore\n      swap1\n      0x01\n      add\n      swap1\n      0x20\n      add\n      dup1\n      dup4\n      gt\n      tag_22\n      jumpi\n      dup3\n      swap1\n      sub\n      0x1f\n      and\n      dup3\n      add\n      swap2\n    tag_20:\n      pop\n      pop\n      pop\n      pop\n      pop\n      dup2\n      jump\t// out\n        /* \"Contracts/JoKenPo.sol\":1204:2670  function play(Options newChoice) public {... */\n    tag_13:\n        /* \"Contracts/JoKenPo.sol\":1301:1313  Options.NONE */\n      0x00\n        /* \"Contracts/JoKenPo.sol\":1288:1313  newChoice != Options.NONE */\n      0x03\n      dup2\n      gt\n      iszero\n      tag_24\n      jumpi\n      tag_25\n      tag_26\n      jump\t// in\n    tag_25:\n    tag_24:\n        /* \"Contracts/JoKenPo.sol\":1288:1297  newChoice */\n      dup2\n        /* \"Contracts/JoKenPo.sol\":1288:1313  newChoice != Options.NONE */\n      0x03\n      dup2\n      gt\n      iszero\n      tag_27\n      jumpi\n      tag_28\n      tag_26\n      jump\t// in\n    tag_28:\n    tag_27:\n      sub\n        /* \"Contracts/JoKenPo.sol\":1280:1333  require(newChoice != Options.NONE, \"Invalid choice!\") */\n      tag_29\n      jumpi\n      mload(0x40)\n      0x08c379a000000000000000000000000000000000000000000000000000000000\n      dup2\n      mstore\n      0x04\n      add\n      tag_30\n      swap1\n      tag_31\n      jump\t// in\n    tag_30:\n      mload(0x40)\n      dup1\n      swap2\n      sub\n      swap1\n      revert\n    tag_29:\n        /* \"Contracts/JoKenPo.sol\":1363:1373  msg.sender */\n      caller\n        /* \"Contracts/JoKenPo.sol\":1352:1373  player1 != msg.sender */\n      0xffffffffffffffffffffffffffffffffffffffff\n      and\n        /* \"Contracts/JoKenPo.sol\":1352:1359  player1 */\n      0x00\n      0x01\n      swap1\n      sload\n      swap1\n      0x0100\n      exp\n      swap1\n      div\n      0xffffffffffffffffffffffffffffffffffffffff\n      and\n        /* \"Contracts/JoKenPo.sol\":1352:1373  player1 != msg.sender */\n      0xffffffffffffffffffffffffffffffffffffffff\n      and\n      sub\n        /* \"Contracts/JoKenPo.sol\":1344:1399  require(player1 != msg.sender, \"Await another player.\") */\n      tag_32\n      jumpi\n      mload(0x40)\n      0x08c379a000000000000000000000000000000000000000000000000000000000\n      dup2\n      mstore\n      0x04\n      add\n      tag_33\n      swap1\n      tag_34\n      jump\t// in\n    tag_33:\n      mload(0x40)\n      dup1\n      swap2\n      sub\n      swap1\n      revert\n    tag_32:\n        /* \"Contracts/JoKenPo.sol\":1451:1463  Options.NONE */\n      0x00\n        /* \"Contracts/JoKenPo.sol\":1440:1463  choice1 == Options.NONE */\n      0x03\n      dup2\n      gt\n      iszero\n      tag_35\n      jumpi\n      tag_36\n      tag_26\n      jump\t// in\n    tag_36:\n    tag_35:\n        /* \"Contracts/JoKenPo.sol\":1440:1447  choice1 */\n      0x00\n      dup1\n      sload\n      swap1\n      0x0100\n      exp\n      swap1\n      div\n      0xff\n      and\n        /* \"Contracts/JoKenPo.sol\":1440:1463  choice1 == Options.NONE */\n      0x03\n      dup2\n      gt\n      iszero\n      tag_37\n      jumpi\n      tag_38\n      tag_26\n      jump\t// in\n    tag_38:\n    tag_37:\n      sub\n        /* \"Contracts/JoKenPo.sol\":1437:2663  if(choice1 == Options.NONE){... */\n      tag_39\n      jumpi\n        /* \"Contracts/JoKenPo.sol\":1489:1499  msg.sender */\n      caller\n        /* \"Contracts/JoKenPo.sol\":1479:1486  player1 */\n      0x00\n      0x01\n        /* \"Contracts/JoKenPo.sol\":1479:1499  player1 = msg.sender */\n      0x0100\n      exp\n      dup2\n      sload\n      dup2\n      0xffffffffffffffffffffffffffffffffffffffff\n      mul\n      not\n      and\n      swap1\n      dup4\n      0xffffffffffffffffffffffffffffffffffffffff\n      and\n      mul\n      or\n      swap1\n      sstore\n      pop\n        /* \"Contracts/JoKenPo.sol\":1524:1533  newChoice */\n      dup1\n        /* \"Contracts/JoKenPo.sol\":1514:1521  choice1 */\n      0x00\n      dup1\n        /* \"Contracts/JoKenPo.sol\":1514:1533  choice1 = newChoice */\n      0x0100\n      exp\n      dup2\n      sload\n      dup2\n      0xff\n      mul\n      not\n      and\n      swap1\n      dup4\n      0x03\n      dup2\n      gt\n      iszero\n      tag_40\n      jumpi\n      tag_41\n      tag_26\n      jump\t// in\n    tag_41:\n    tag_40:\n      mul\n      or\n      swap1\n      sstore\n      pop\n        /* \"Contracts/JoKenPo.sol\":1548:1607  status = \"Player 1 chose his option. Waiting for player 2.\" */\n      mload(0x40)\n      dup1\n      0x60\n      add\n      0x40\n      mstore\n      dup1\n      0x30\n      dup2\n      mstore\n      0x20\n      add\n      data_891c3d6e5adde30875c07acfcca8d06d5be6cf84c2f0053d1a896b105617b25d\n      0x30\n      swap2\n      codecopy\n        /* \"Contracts/JoKenPo.sol\":1548:1554  status */\n      0x01\n        /* \"Contracts/JoKenPo.sol\":1548:1607  status = \"Player 1 chose his option. Waiting for player 2.\" */\n      swap1\n      dup2\n      tag_42\n      swap2\n      swap1\n      tag_43\n      jump\t// in\n    tag_42:\n      pop\n        /* \"Contracts/JoKenPo.sol\":1437:2663  if(choice1 == Options.NONE){... */\n      jump(tag_44)\n    tag_39:\n        /* \"Contracts/JoKenPo.sol\":1676:1688  Options.ROCK */\n      0x01\n        /* \"Contracts/JoKenPo.sol\":1665:1688  choice1 == Options.ROCK */\n      0x03\n      dup2\n      gt\n      iszero\n      tag_45\n      jumpi\n      tag_46\n      tag_26\n      jump\t// in\n    tag_46:\n    tag_45:\n        /* \"Contracts/JoKenPo.sol\":1665:1672  choice1 */\n      0x00\n      dup1\n      sload\n      swap1\n      0x0100\n      exp\n      swap1\n      div\n      0xff\n      and\n        /* \"Contracts/JoKenPo.sol\":1665:1688  choice1 == Options.ROCK */\n      0x03\n      dup2\n      gt\n      iszero\n      tag_47\n      jumpi\n      tag_48\n      tag_26\n      jump\t// in\n    tag_48:\n    tag_47:\n      eq\n        /* \"Contracts/JoKenPo.sol\":1665:1721  choice1 == Options.ROCK && newChoice == Options.SCISSORS */\n      dup1\n      iszero\n      tag_49\n      jumpi\n      pop\n        /* \"Contracts/JoKenPo.sol\":1705:1721  Options.SCISSORS */\n      0x03\n        /* \"Contracts/JoKenPo.sol\":1692:1721  newChoice == Options.SCISSORS */\n      dup1\n      dup2\n      gt\n      iszero\n      tag_50\n      jumpi\n      tag_51\n      tag_26\n      jump\t// in\n    tag_51:\n    tag_50:\n        /* \"Contracts/JoKenPo.sol\":1692:1701  newChoice */\n      dup2\n        /* \"Contracts/JoKenPo.sol\":1692:1721  newChoice == Options.SCISSORS */\n      0x03\n      dup2\n      gt\n      iszero\n      tag_52\n      jumpi\n      tag_53\n      tag_26\n      jump\t// in\n    tag_53:\n    tag_52:\n      eq\n        /* \"Contracts/JoKenPo.sol\":1665:1721  choice1 == Options.ROCK && newChoice == Options.SCISSORS */\n    tag_49:\n        /* \"Contracts/JoKenPo.sol\":1662:2663  if(choice1 == Options.ROCK && newChoice == Options.SCISSORS){ ... */\n      iszero\n      tag_54\n      jumpi\n        /* \"Contracts/JoKenPo.sol\":1738:1786  setStatus(\"Rock breaks Scissors. Player 1 WON!\") */\n      tag_55\n      mload(0x40)\n      dup1\n      0x60\n      add\n      0x40\n      mstore\n      dup1\n      0x23\n      dup2\n      mstore\n      0x20\n      add\n      data_9056477a8043385bd4eedf29b3b65eaa4f879760f1d1dac4e0b1e2f1c5a5e34c\n      0x23\n      swap2\n      codecopy\n        /* \"Contracts/JoKenPo.sol\":1738:1747  setStatus */\n      tag_56\n        /* \"Contracts/JoKenPo.sol\":1738:1786  setStatus(\"Rock breaks Scissors. Player 1 WON!\") */\n      jump\t// in\n    tag_55:\n        /* \"Contracts/JoKenPo.sol\":1662:2663  if(choice1 == Options.ROCK && newChoice == Options.SCISSORS){ ... */\n      jump(tag_57)\n    tag_54:\n        /* \"Contracts/JoKenPo.sol\":1827:1840  Options.PAPER */\n      0x02\n        /* \"Contracts/JoKenPo.sol\":1816:1840  choice1 == Options.PAPER */\n      0x03\n      dup2\n      gt\n      iszero\n      tag_58\n      jumpi\n      tag_59\n      tag_26\n      jump\t// in\n    tag_59:\n    tag_58:\n        /* \"Contracts/JoKenPo.sol\":1816:1823  choice1 */\n      0x00\n      dup1\n      sload\n      swap1\n      0x0100\n      exp\n      swap1\n      div\n      0xff\n      and\n        /* \"Contracts/JoKenPo.sol\":1816:1840  choice1 == Options.PAPER */\n      0x03\n      dup2\n      gt\n      iszero\n      tag_60\n      jumpi\n      tag_61\n      tag_26\n      jump\t// in\n    tag_61:\n    tag_60:\n      eq\n        /* \"Contracts/JoKenPo.sol\":1816:1869  choice1 == Options.PAPER && newChoice == Options.ROCK */\n      dup1\n      iszero\n      tag_62\n      jumpi\n      pop\n        /* \"Contracts/JoKenPo.sol\":1857:1869  Options.ROCK */\n      0x01\n        /* \"Contracts/JoKenPo.sol\":1844:1869  newChoice == Options.ROCK */\n      0x03\n      dup2\n      gt\n      iszero\n      tag_63\n      jumpi\n      tag_64\n      tag_26\n      jump\t// in\n    tag_64:\n    tag_63:\n        /* \"Contracts/JoKenPo.sol\":1844:1853  newChoice */\n      dup2\n        /* \"Contracts/JoKenPo.sol\":1844:1869  newChoice == Options.ROCK */\n      0x03\n      dup2\n      gt\n      iszero\n      tag_65\n      jumpi\n      tag_66\n      tag_26\n      jump\t// in\n    tag_66:\n    tag_65:\n      eq\n        /* \"Contracts/JoKenPo.sol\":1816:1869  choice1 == Options.PAPER && newChoice == Options.ROCK */\n    tag_62:\n        /* \"Contracts/JoKenPo.sol\":1813:2663  if(choice1 == Options.PAPER && newChoice == Options.ROCK){ ... */\n      iszero\n      tag_67\n      jumpi\n        /* \"Contracts/JoKenPo.sol\":1886:1930  setStatus(\"Paper wraps Rock. Player 1 WON!\") */\n      tag_68\n      mload(0x40)\n      dup1\n      0x40\n      add\n      0x40\n      mstore\n      dup1\n      0x1f\n      dup2\n      mstore\n      0x20\n      add\n      0x506170657220777261707320526f636b2e20506c61796572203120574f4e2100\n      dup2\n      mstore\n      pop\n        /* \"Contracts/JoKenPo.sol\":1886:1895  setStatus */\n      tag_56\n        /* \"Contracts/JoKenPo.sol\":1886:1930  setStatus(\"Paper wraps Rock. Player 1 WON!\") */\n      jump\t// in\n    tag_68:\n        /* \"Contracts/JoKenPo.sol\":1813:2663  if(choice1 == Options.PAPER && newChoice == Options.ROCK){ ... */\n      jump(tag_69)\n    tag_67:\n        /* \"Contracts/JoKenPo.sol\":1971:1987  Options.SCISSORS */\n      0x03\n        /* \"Contracts/JoKenPo.sol\":1960:1987  choice1 == Options.SCISSORS */\n      dup1\n      dup2\n      gt\n      iszero\n      tag_70\n      jumpi\n      tag_71\n      tag_26\n      jump\t// in\n    tag_71:\n    tag_70:\n        /* \"Contracts/JoKenPo.sol\":1960:1967  choice1 */\n      0x00\n      dup1\n      sload\n      swap1\n      0x0100\n      exp\n      swap1\n      div\n      0xff\n      and\n        /* \"Contracts/JoKenPo.sol\":1960:1987  choice1 == Options.SCISSORS */\n      0x03\n      dup2\n      gt\n      iszero\n      tag_72\n      jumpi\n      tag_73\n      tag_26\n      jump\t// in\n    tag_73:\n    tag_72:\n      eq\n        /* \"Contracts/JoKenPo.sol\":1960:2017  choice1 == Options.SCISSORS && newChoice == Options.PAPER */\n      dup1\n      iszero\n      tag_74\n      jumpi\n      pop\n        /* \"Contracts/JoKenPo.sol\":2004:2017  Options.PAPER */\n      0x02\n        /* \"Contracts/JoKenPo.sol\":1991:2017  newChoice == Options.PAPER */\n      0x03\n      dup2\n      gt\n      iszero\n      tag_75\n      jumpi\n      tag_76\n      tag_26\n      jump\t// in\n    tag_76:\n    tag_75:\n        /* \"Contracts/JoKenPo.sol\":1991:2000  newChoice */\n      dup2\n        /* \"Contracts/JoKenPo.sol\":1991:2017  newChoice == Options.PAPER */\n      0x03\n      dup2\n      gt\n      iszero\n      tag_77\n      jumpi\n      tag_78\n      tag_26\n      jump\t// in\n    tag_78:\n    tag_77:\n      eq\n        /* \"Contracts/JoKenPo.sol\":1960:2017  choice1 == Options.SCISSORS && newChoice == Options.PAPER */\n    tag_74:\n        /* \"Contracts/JoKenPo.sol\":1957:2663  if(choice1 == Options.SCISSORS && newChoice == Options.PAPER){ ... */\n      iszero\n      tag_79\n      jumpi\n        /* \"Contracts/JoKenPo.sol\":2034:2081  setStatus(\"Scissors cuts Paper. Player 1 WON!\") */\n      tag_80\n      mload(0x40)\n      dup1\n      0x60\n      add\n      0x40\n      mstore\n      dup1\n      0x22\n      dup2\n      mstore\n      0x20\n      add\n      data_91015f70aacd548b1cf82057021b45f79e16ba2ae54c369de1244ab075c90b63\n      0x22\n      swap2\n      codecopy\n        /* \"Contracts/JoKenPo.sol\":2034:2043  setStatus */\n      tag_56\n        /* \"Contracts/JoKenPo.sol\":2034:2081  setStatus(\"Scissors cuts Paper. Player 1 WON!\") */\n      jump\t// in\n    tag_80:\n        /* \"Contracts/JoKenPo.sol\":1957:2663  if(choice1 == Options.SCISSORS && newChoice == Options.PAPER){ ... */\n      jump(tag_81)\n    tag_79:\n        /* \"Contracts/JoKenPo.sol\":2150:2166  Options.SCISSORS */\n      0x03\n        /* \"Contracts/JoKenPo.sol\":2139:2166  choice1 == Options.SCISSORS */\n      dup1\n      dup2\n      gt\n      iszero\n      tag_82\n      jumpi\n      tag_83\n      tag_26\n      jump\t// in\n    tag_83:\n    tag_82:\n        /* \"Contracts/JoKenPo.sol\":2139:2146  choice1 */\n      0x00\n      dup1\n      sload\n      swap1\n      0x0100\n      exp\n      swap1\n      div\n      0xff\n      and\n        /* \"Contracts/JoKenPo.sol\":2139:2166  choice1 == Options.SCISSORS */\n      0x03\n      dup2\n      gt\n      iszero\n      tag_84\n      jumpi\n      tag_85\n      tag_26\n      jump\t// in\n    tag_85:\n    tag_84:\n      eq\n        /* \"Contracts/JoKenPo.sol\":2139:2195  choice1 == Options.SCISSORS && newChoice == Options.ROCK */\n      dup1\n      iszero\n      tag_86\n      jumpi\n      pop\n        /* \"Contracts/JoKenPo.sol\":2183:2195  Options.ROCK */\n      0x01\n        /* \"Contracts/JoKenPo.sol\":2170:2195  newChoice == Options.ROCK */\n      0x03\n      dup2\n      gt\n      iszero\n      tag_87\n      jumpi\n      tag_88\n      tag_26\n      jump\t// in\n    tag_88:\n    tag_87:\n        /* \"Contracts/JoKenPo.sol\":2170:2179  newChoice */\n      dup2\n        /* \"Contracts/JoKenPo.sol\":2170:2195  newChoice == Options.ROCK */\n      0x03\n      dup2\n      gt\n      iszero\n      tag_89\n      jumpi\n      tag_90\n      tag_26\n      jump\t// in\n    tag_90:\n    tag_89:\n      eq\n        /* \"Contracts/JoKenPo.sol\":2139:2195  choice1 == Options.SCISSORS && newChoice == Options.ROCK */\n    tag_86:\n        /* \"Contracts/JoKenPo.sol\":2136:2663  if(choice1 == Options.SCISSORS && newChoice == Options.ROCK){ ... */\n      iszero\n      tag_91\n      jumpi\n        /* \"Contracts/JoKenPo.sol\":2212:2260  setStatus(\"Rock breaks Scissors. Player 2 WON!\") */\n      tag_92\n      mload(0x40)\n      dup1\n      0x60\n      add\n      0x40\n      mstore\n      dup1\n      0x23\n      dup2\n      mstore\n      0x20\n      add\n      data_578a9428a54c800af9c02139d74432994ad47bb29704d23f809566a331855d2f\n      0x23\n      swap2\n      codecopy\n        /* \"Contracts/JoKenPo.sol\":2212:2221  setStatus */\n      tag_56\n        /* \"Contracts/JoKenPo.sol\":2212:2260  setStatus(\"Rock breaks Scissors. Player 2 WON!\") */\n      jump\t// in\n    tag_92:\n        /* \"Contracts/JoKenPo.sol\":2136:2663  if(choice1 == Options.SCISSORS && newChoice == Options.ROCK){ ... */\n      jump(tag_93)\n    tag_91:\n        /* \"Contracts/JoKenPo.sol\":2301:2313  Options.ROCK */\n      0x01\n        /* \"Contracts/JoKenPo.sol\":2290:2313  choice1 == Options.ROCK */\n      0x03\n      dup2\n      gt\n      iszero\n      tag_94\n      jumpi\n      tag_95\n      tag_26\n      jump\t// in\n    tag_95:\n    tag_94:\n        /* \"Contracts/JoKenPo.sol\":2290:2297  choice1 */\n      0x00\n      dup1\n      sload\n      swap1\n      0x0100\n      exp\n      swap1\n      div\n      0xff\n      and\n        /* \"Contracts/JoKenPo.sol\":2290:2313  choice1 == Options.ROCK */\n      0x03\n      dup2\n      gt\n      iszero\n      tag_96\n      jumpi\n      tag_97\n      tag_26\n      jump\t// in\n    tag_97:\n    tag_96:\n      eq\n        /* \"Contracts/JoKenPo.sol\":2290:2343  choice1 == Options.ROCK && newChoice == Options.PAPER */\n      dup1\n      iszero\n      tag_98\n      jumpi\n      pop\n        /* \"Contracts/JoKenPo.sol\":2330:2343  Options.PAPER */\n      0x02\n        /* \"Contracts/JoKenPo.sol\":2317:2343  newChoice == Options.PAPER */\n      0x03\n      dup2\n      gt\n      iszero\n      tag_99\n      jumpi\n      tag_100\n      tag_26\n      jump\t// in\n    tag_100:\n    tag_99:\n        /* \"Contracts/JoKenPo.sol\":2317:2326  newChoice */\n      dup2\n        /* \"Contracts/JoKenPo.sol\":2317:2343  newChoice == Options.PAPER */\n      0x03\n      dup2\n      gt\n      iszero\n      tag_101\n      jumpi\n      tag_102\n      tag_26\n      jump\t// in\n    tag_102:\n    tag_101:\n      eq\n        /* \"Contracts/JoKenPo.sol\":2290:2343  choice1 == Options.ROCK && newChoice == Options.PAPER */\n    tag_98:\n        /* \"Contracts/JoKenPo.sol\":2287:2663  if(choice1 == Options.ROCK && newChoice == Options.PAPER){ ... */\n      iszero\n      tag_103\n      jumpi\n        /* \"Contracts/JoKenPo.sol\":2360:2404  setStatus(\"Paper wraps Rock. Player 2 WON!\") */\n      tag_104\n      mload(0x40)\n      dup1\n      0x40\n      add\n      0x40\n      mstore\n      dup1\n      0x1f\n      dup2\n      mstore\n      0x20\n      add\n      0x506170657220777261707320526f636b2e20506c61796572203220574f4e2100\n      dup2\n      mstore\n      pop\n        /* \"Contracts/JoKenPo.sol\":2360:2369  setStatus */\n      tag_56\n        /* \"Contracts/JoKenPo.sol\":2360:2404  setStatus(\"Paper wraps Rock. Player 2 WON!\") */\n      jump\t// in\n    tag_104:\n        /* \"Contracts/JoKenPo.sol\":2287:2663  if(choice1 == Options.ROCK && newChoice == Options.PAPER){ ... */\n      jump(tag_105)\n    tag_103:\n        /* \"Contracts/JoKenPo.sol\":2445:2458  Options.PAPER */\n      0x02\n        /* \"Contracts/JoKenPo.sol\":2434:2458  choice1 == Options.PAPER */\n      0x03\n      dup2\n      gt\n      iszero\n      tag_106\n      jumpi\n      tag_107\n      tag_26\n      jump\t// in\n    tag_107:\n    tag_106:\n        /* \"Contracts/JoKenPo.sol\":2434:2441  choice1 */\n      0x00\n      dup1\n      sload\n      swap1\n      0x0100\n      exp\n      swap1\n      div\n      0xff\n      and\n        /* \"Contracts/JoKenPo.sol\":2434:2458  choice1 == Options.PAPER */\n      0x03\n      dup2\n      gt\n      iszero\n      tag_108\n      jumpi\n      tag_109\n      tag_26\n      jump\t// in\n    tag_109:\n    tag_108:\n      eq\n        /* \"Contracts/JoKenPo.sol\":2434:2491  choice1 == Options.PAPER && newChoice == Options.SCISSORS */\n      dup1\n      iszero\n      tag_110\n      jumpi\n      pop\n        /* \"Contracts/JoKenPo.sol\":2475:2491  Options.SCISSORS */\n      0x03\n        /* \"Contracts/JoKenPo.sol\":2462:2491  newChoice == Options.SCISSORS */\n      dup1\n      dup2\n      gt\n      iszero\n      tag_111\n      jumpi\n      tag_112\n      tag_26\n      jump\t// in\n    tag_112:\n    tag_111:\n        /* \"Contracts/JoKenPo.sol\":2462:2471  newChoice */\n      dup2\n        /* \"Contracts/JoKenPo.sol\":2462:2491  newChoice == Options.SCISSORS */\n      0x03\n      dup2\n      gt\n      iszero\n      tag_113\n      jumpi\n      tag_114\n      tag_26\n      jump\t// in\n    tag_114:\n    tag_113:\n      eq\n        /* \"Contracts/JoKenPo.sol\":2434:2491  choice1 == Options.PAPER && newChoice == Options.SCISSORS */\n    tag_110:\n        /* \"Contracts/JoKenPo.sol\":2431:2663  if(choice1 == Options.PAPER && newChoice == Options.SCISSORS){ ... */\n      iszero\n      tag_115\n      jumpi\n        /* \"Contracts/JoKenPo.sol\":2508:2555  setStatus(\"Scissors cuts Paper. Player 2 WON!\") */\n      tag_116\n      mload(0x40)\n      dup1\n      0x60\n      add\n      0x40\n      mstore\n      dup1\n      0x22\n      dup2\n      mstore\n      0x20\n      add\n      data_933bdbc870e421c751aaa16e694cd13fd9fe7932556621cc4aca333dcc976580\n      0x22\n      swap2\n      codecopy\n        /* \"Contracts/JoKenPo.sol\":2508:2517  setStatus */\n      tag_56\n        /* \"Contracts/JoKenPo.sol\":2508:2555  setStatus(\"Scissors cuts Paper. Player 2 WON!\") */\n      jump\t// in\n    tag_116:\n        /* \"Contracts/JoKenPo.sol\":2431:2663  if(choice1 == Options.PAPER && newChoice == Options.SCISSORS){ ... */\n      jump(tag_117)\n    tag_115:\n        /* \"Contracts/JoKenPo.sol\":2628:2651  setStatus(\"Draw game!\") */\n      tag_118\n      mload(0x40)\n      dup1\n      0x40\n      add\n      0x40\n      mstore\n      dup1\n      0x0a\n      dup2\n      mstore\n      0x20\n      add\n      0x447261772067616d652100000000000000000000000000000000000000000000\n      dup2\n      mstore\n      pop\n        /* \"Contracts/JoKenPo.sol\":2628:2637  setStatus */\n      tag_56\n        /* \"Contracts/JoKenPo.sol\":2628:2651  setStatus(\"Draw game!\") */\n      jump\t// in\n    tag_118:\n        /* \"Contracts/JoKenPo.sol\":2431:2663  if(choice1 == Options.PAPER && newChoice == Options.SCISSORS){ ... */\n    tag_117:\n        /* \"Contracts/JoKenPo.sol\":2287:2663  if(choice1 == Options.ROCK && newChoice == Options.PAPER){ ... */\n    tag_105:\n        /* \"Contracts/JoKenPo.sol\":2136:2663  if(choice1 == Options.SCISSORS && newChoice == Options.ROCK){ ... */\n    tag_93:\n        /* \"Contracts/JoKenPo.sol\":1957:2663  if(choice1 == Options.SCISSORS && newChoice == Options.PAPER){ ... */\n    tag_81:\n        /* \"Contracts/JoKenPo.sol\":1813:2663  if(choice1 == Options.PAPER && newChoice == Options.ROCK){ ... */\n    tag_69:\n        /* \"Contracts/JoKenPo.sol\":1662:2663  if(choice1 == Options.ROCK && newChoice == Options.SCISSORS){ ... */\n    tag_57:\n        /* \"Contracts/JoKenPo.sol\":1437:2663  if(choice1 == Options.NONE){... */\n    tag_44:\n        /* \"Contracts/JoKenPo.sol\":1204:2670  function play(Options newChoice) public {... */\n      pop\n      jump\t// out\n        /* \"Contracts/JoKenPo.sol\":664:872  function secretFunction() public view returns (string memory){... */\n    tag_15:\n        /* \"Contracts/JoKenPo.sol\":711:724  string memory */\n      0x60\n        /* \"Contracts/JoKenPo.sol\":753:763  msg.sender */\n      caller\n        /* \"Contracts/JoKenPo.sol\":744:763  owner == msg.sender */\n      0xffffffffffffffffffffffffffffffffffffffff\n      and\n        /* \"Contracts/JoKenPo.sol\":744:749  owner */\n      immutable(\"0x731dc163f73d31d8c68f9917ce4ff967753939f70432973c04fd2c2a48148607\")\n        /* \"Contracts/JoKenPo.sol\":744:763  owner == msg.sender */\n      0xffffffffffffffffffffffffffffffffffffffff\n      and\n      eq\n        /* \"Contracts/JoKenPo.sol\":736:810  require(owner == msg.sender, \"You don't have permissions to access this.\") */\n      tag_120\n      jumpi\n      mload(0x40)\n      0x08c379a000000000000000000000000000000000000000000000000000000000\n      dup2\n      mstore\n      0x04\n      add\n      tag_121\n      swap1\n      tag_122\n      jump\t// in\n    tag_121:\n      mload(0x40)\n      dup1\n      swap2\n      sub\n      swap1\n      revert\n    tag_120:\n        /* \"Contracts/JoKenPo.sol\":821:864  return \"Hello... from the secret function!\" */\n      mload(0x40)\n      dup1\n      0x60\n      add\n      0x40\n      mstore\n      dup1\n      0x22\n      dup2\n      mstore\n      0x20\n      add\n      data_b94c7b361674559a225474b34f3a500a17dd8451641824e767f482876c08c61a\n      0x22\n      swap2\n      codecopy\n      swap1\n      pop\n        /* \"Contracts/JoKenPo.sol\":664:872  function secretFunction() public view returns (string memory){... */\n      swap1\n      jump\t// out\n        /* \"Contracts/JoKenPo.sol\":950:1121  function setStatus(string memory newStatus) private {... */\n    tag_56:\n        /* \"Contracts/JoKenPo.sol\":1022:1031  newStatus */\n      dup1\n        /* \"Contracts/JoKenPo.sol\":1013:1019  status */\n      0x01\n        /* \"Contracts/JoKenPo.sol\":1013:1031  status = newStatus */\n      swap1\n      dup2\n      tag_124\n      swap2\n      swap1\n      tag_43\n      jump\t// in\n    tag_124:\n      pop\n        /* \"Contracts/JoKenPo.sol\":1078:1079  0 */\n      0x00\n        /* \"Contracts/JoKenPo.sol\":1060:1067  player1 */\n      dup1\n      0x01\n        /* \"Contracts/JoKenPo.sol\":1060:1080  player1 = address(0) */\n      0x0100\n      exp\n      dup2\n      sload\n      dup2\n      0xffffffffffffffffffffffffffffffffffffffff\n      mul\n      not\n      and\n      swap1\n      dup4\n      0xffffffffffffffffffffffffffffffffffffffff\n      and\n      mul\n      or\n      swap1\n      sstore\n      pop\n        /* \"Contracts/JoKenPo.sol\":1101:1113  Options.NONE */\n      0x00\n        /* \"Contracts/JoKenPo.sol\":1091:1098  choice1 */\n      dup1\n      0x00\n        /* \"Contracts/JoKenPo.sol\":1091:1113  choice1 = Options.NONE */\n      0x0100\n      exp\n      dup2\n      sload\n      dup2\n      0xff\n      mul\n      not\n      and\n      swap1\n      dup4\n      0x03\n      dup2\n      gt\n      iszero\n      tag_125\n      jumpi\n      tag_126\n      tag_26\n      jump\t// in\n    tag_126:\n    tag_125:\n      mul\n      or\n      swap1\n      sstore\n      pop\n        /* \"Contracts/JoKenPo.sol\":950:1121  function setStatus(string memory newStatus) private {... */\n      pop\n      jump\t// out\n        /* \"#utility.yul\":7:106   */\n    tag_127:\n        /* \"#utility.yul\":59:65   */\n      0x00\n        /* \"#utility.yul\":93:98   */\n      dup2\n        /* \"#utility.yul\":87:99   */\n      mload\n        /* \"#utility.yul\":77:99   */\n      swap1\n      pop\n        /* \"#utility.yul\":7:106   */\n      swap2\n      swap1\n      pop\n      jump\t// out\n        /* \"#utility.yul\":112:281   */\n    tag_128:\n        /* \"#utility.yul\":196:207   */\n      0x00\n        /* \"#utility.yul\":230:236   */\n      dup3\n        /* \"#utility.yul\":225:228   */\n      dup3\n        /* \"#utility.yul\":218:237   */\n      mstore\n        /* \"#utility.yul\":270:274   */\n      0x20\n        /* \"#utility.yul\":265:268   */\n      dup3\n        /* \"#utility.yul\":261:275   */\n      add\n        /* \"#utility.yul\":246:275   */\n      swap1\n      pop\n        /* \"#utility.yul\":112:281   */\n      swap3\n      swap2\n      pop\n      pop\n      jump\t// out\n        /* \"#utility.yul\":287:533   */\n    tag_129:\n        /* \"#utility.yul\":368:369   */\n      0x00\n        /* \"#utility.yul\":378:491   */\n    tag_165:\n        /* \"#utility.yul\":392:398   */\n      dup4\n        /* \"#utility.yul\":389:390   */\n      dup2\n        /* \"#utility.yul\":386:399   */\n      lt\n        /* \"#utility.yul\":378:491   */\n      iszero\n      tag_167\n      jumpi\n        /* \"#utility.yul\":477:478   */\n      dup1\n        /* \"#utility.yul\":472:475   */\n      dup3\n        /* \"#utility.yul\":468:479   */\n      add\n        /* \"#utility.yul\":462:480   */\n      mload\n        /* \"#utility.yul\":458:459   */\n      dup2\n        /* \"#utility.yul\":453:456   */\n      dup5\n        /* \"#utility.yul\":449:460   */\n      add\n        /* \"#utility.yul\":442:481   */\n      mstore\n        /* \"#utility.yul\":414:416   */\n      0x20\n        /* \"#utility.yul\":411:412   */\n      dup2\n        /* \"#utility.yul\":407:417   */\n      add\n        /* \"#utility.yul\":402:417   */\n      swap1\n      pop\n        /* \"#utility.yul\":378:491   */\n      jump(tag_165)\n    tag_167:\n        /* \"#utility.yul\":525:526   */\n      0x00\n        /* \"#utility.yul\":516:522   */\n      dup5\n        /* \"#utility.yul\":511:514   */\n      dup5\n        /* \"#utility.yul\":507:523   */\n      add\n        /* \"#utility.yul\":500:527   */\n      mstore\n        /* \"#utility.yul\":349:533   */\n      pop\n        /* \"#utility.yul\":287:533   */\n      pop\n      pop\n      pop\n      jump\t// out\n        /* \"#utility.yul\":539:641   */\n    tag_130:\n        /* \"#utility.yul\":580:586   */\n      0x00\n        /* \"#utility.yul\":631:633   */\n      0x1f\n        /* \"#utility.yul\":627:634   */\n      not\n        /* \"#utility.yul\":622:624   */\n      0x1f\n        /* \"#utility.yul\":615:620   */\n      dup4\n        /* \"#utility.yul\":611:625   */\n      add\n        /* \"#utility.yul\":607:635   */\n      and\n        /* \"#utility.yul\":597:635   */\n      swap1\n      pop\n        /* \"#utility.yul\":539:641   */\n      swap2\n      swap1\n      pop\n      jump\t// out\n        /* \"#utility.yul\":647:1024   */\n    tag_131:\n        /* \"#utility.yul\":735:738   */\n      0x00\n        /* \"#utility.yul\":763:802   */\n      tag_170\n        /* \"#utility.yul\":796:801   */\n      dup3\n        /* \"#utility.yul\":763:802   */\n      tag_127\n      jump\t// in\n    tag_170:\n        /* \"#utility.yul\":818:889   */\n      tag_171\n        /* \"#utility.yul\":882:888   */\n      dup2\n        /* \"#utility.yul\":877:880   */\n      dup6\n        /* \"#utility.yul\":818:889   */\n      tag_128\n      jump\t// in\n    tag_171:\n        /* \"#utility.yul\":811:889   */\n      swap4\n      pop\n        /* \"#utility.yul\":898:963   */\n      tag_172\n        /* \"#utility.yul\":956:962   */\n      dup2\n        /* \"#utility.yul\":951:954   */\n      dup6\n        /* \"#utility.yul\":944:948   */\n      0x20\n        /* \"#utility.yul\":937:942   */\n      dup7\n        /* \"#utility.yul\":933:949   */\n      add\n        /* \"#utility.yul\":898:963   */\n      tag_129\n      jump\t// in\n    tag_172:\n        /* \"#utility.yul\":988:1017   */\n      tag_173\n        /* \"#utility.yul\":1010:1016   */\n      dup2\n        /* \"#utility.yul\":988:1017   */\n      tag_130\n      jump\t// in\n    tag_173:\n        /* \"#utility.yul\":983:986   */\n      dup5\n        /* \"#utility.yul\":979:1018   */\n      add\n        /* \"#utility.yul\":972:1018   */\n      swap2\n      pop\n        /* \"#utility.yul\":739:1024   */\n      pop\n        /* \"#utility.yul\":647:1024   */\n      swap3\n      swap2\n      pop\n      pop\n      jump\t// out\n        /* \"#utility.yul\":1030:1343   */\n    tag_9:\n        /* \"#utility.yul\":1143:1147   */\n      0x00\n        /* \"#utility.yul\":1181:1183   */\n      0x20\n        /* \"#utility.yul\":1170:1179   */\n      dup3\n        /* \"#utility.yul\":1166:1184   */\n      add\n        /* \"#utility.yul\":1158:1184   */\n      swap1\n      pop\n        /* \"#utility.yul\":1230:1239   */\n      dup2\n        /* \"#utility.yul\":1224:1228   */\n      dup2\n        /* \"#utility.yul\":1220:1240   */\n      sub\n        /* \"#utility.yul\":1216:1217   */\n      0x00\n        /* \"#utility.yul\":1205:1214   */\n      dup4\n        /* \"#utility.yul\":1201:1218   */\n      add\n        /* \"#utility.yul\":1194:1241   */\n      mstore\n        /* \"#utility.yul\":1258:1336   */\n      tag_175\n        /* \"#utility.yul\":1331:1335   */\n      dup2\n        /* \"#utility.yul\":1322:1328   */\n      dup5\n        /* \"#utility.yul\":1258:1336   */\n      tag_131\n      jump\t// in\n    tag_175:\n        /* \"#utility.yul\":1250:1336   */\n      swap1\n      pop\n        /* \"#utility.yul\":1030:1343   */\n      swap3\n      swap2\n      pop\n      pop\n      jump\t// out\n        /* \"#utility.yul\":1430:1547   */\n    tag_133:\n        /* \"#utility.yul\":1539:1540   */\n      0x00\n        /* \"#utility.yul\":1536:1537   */\n      dup1\n        /* \"#utility.yul\":1529:1541   */\n      revert\n        /* \"#utility.yul\":1676:1784   */\n    tag_135:\n        /* \"#utility.yul\":1758:1759   */\n      0x04\n        /* \"#utility.yul\":1751:1756   */\n      dup2\n        /* \"#utility.yul\":1748:1760   */\n      lt\n        /* \"#utility.yul\":1738:1778   */\n      tag_180\n      jumpi\n        /* \"#utility.yul\":1774:1775   */\n      0x00\n        /* \"#utility.yul\":1771:1772   */\n      dup1\n        /* \"#utility.yul\":1764:1776   */\n      revert\n        /* \"#utility.yul\":1738:1778   */\n    tag_180:\n        /* \"#utility.yul\":1676:1784   */\n      pop\n      jump\t// out\n        /* \"#utility.yul\":1790:1947   */\n    tag_136:\n        /* \"#utility.yul\":1845:1850   */\n      0x00\n        /* \"#utility.yul\":1883:1889   */\n      dup2\n        /* \"#utility.yul\":1870:1890   */\n      calldataload\n        /* \"#utility.yul\":1861:1890   */\n      swap1\n      pop\n        /* \"#utility.yul\":1899:1941   */\n      tag_182\n        /* \"#utility.yul\":1935:1940   */\n      dup2\n        /* \"#utility.yul\":1899:1941   */\n      tag_135\n      jump\t// in\n    tag_182:\n        /* \"#utility.yul\":1790:1947   */\n      swap3\n      swap2\n      pop\n      pop\n      jump\t// out\n        /* \"#utility.yul\":1953:2300   */\n    tag_12:\n        /* \"#utility.yul\":2021:2027   */\n      0x00\n        /* \"#utility.yul\":2070:2072   */\n      0x20\n        /* \"#utility.yul\":2058:2067   */\n      dup3\n        /* \"#utility.yul\":2049:2056   */\n      dup5\n        /* \"#utility.yul\":2045:2068   */\n      sub\n        /* \"#utility.yul\":2041:2073   */\n      slt\n        /* \"#utility.yul\":2038:2157   */\n      iszero\n      tag_184\n      jumpi\n        /* \"#utility.yul\":2076:2155   */\n      tag_185\n      tag_133\n      jump\t// in\n    tag_185:\n        /* \"#utility.yul\":2038:2157   */\n    tag_184:\n        /* \"#utility.yul\":2196:2197   */\n      0x00\n        /* \"#utility.yul\":2221:2283   */\n      tag_186\n        /* \"#utility.yul\":2275:2282   */\n      dup5\n        /* \"#utility.yul\":2266:2272   */\n      dup3\n        /* \"#utility.yul\":2255:2264   */\n      dup6\n        /* \"#utility.yul\":2251:2273   */\n      add\n        /* \"#utility.yul\":2221:2283   */\n      tag_136\n      jump\t// in\n    tag_186:\n        /* \"#utility.yul\":2211:2283   */\n      swap2\n      pop\n        /* \"#utility.yul\":2167:2293   */\n      pop\n        /* \"#utility.yul\":1953:2300   */\n      swap3\n      swap2\n      pop\n      pop\n      jump\t// out\n        /* \"#utility.yul\":2306:2486   */\n    tag_137:\n        /* \"#utility.yul\":2354:2431   */\n      0x4e487b7100000000000000000000000000000000000000000000000000000000\n        /* \"#utility.yul\":2351:2352   */\n      0x00\n        /* \"#utility.yul\":2344:2432   */\n      mstore\n        /* \"#utility.yul\":2451:2455   */\n      0x22\n        /* \"#utility.yul\":2448:2449   */\n      0x04\n        /* \"#utility.yul\":2441:2456   */\n      mstore\n        /* \"#utility.yul\":2475:2479   */\n      0x24\n        /* \"#utility.yul\":2472:2473   */\n      0x00\n        /* \"#utility.yul\":2465:2480   */\n      revert\n        /* \"#utility.yul\":2492:2812   */\n    tag_18:\n        /* \"#utility.yul\":2536:2542   */\n      0x00\n        /* \"#utility.yul\":2573:2574   */\n      0x02\n        /* \"#utility.yul\":2567:2571   */\n      dup3\n        /* \"#utility.yul\":2563:2575   */\n      div\n        /* \"#utility.yul\":2553:2575   */\n      swap1\n      pop\n        /* \"#utility.yul\":2620:2621   */\n      0x01\n        /* \"#utility.yul\":2614:2618   */\n      dup3\n        /* \"#utility.yul\":2610:2622   */\n      and\n        /* \"#utility.yul\":2641:2659   */\n      dup1\n        /* \"#utility.yul\":2631:2712   */\n      tag_189\n      jumpi\n        /* \"#utility.yul\":2697:2701   */\n      0x7f\n        /* \"#utility.yul\":2689:2695   */\n      dup3\n        /* \"#utility.yul\":2685:2702   */\n      and\n        /* \"#utility.yul\":2675:2702   */\n      swap2\n      pop\n        /* \"#utility.yul\":2631:2712   */\n    tag_189:\n        /* \"#utility.yul\":2759:2761   */\n      0x20\n        /* \"#utility.yul\":2751:2757   */\n      dup3\n        /* \"#utility.yul\":2748:2762   */\n      lt\n        /* \"#utility.yul\":2728:2746   */\n      dup2\n        /* \"#utility.yul\":2725:2763   */\n      sub\n        /* \"#utility.yul\":2722:2806   */\n      tag_190\n      jumpi\n        /* \"#utility.yul\":2778:2796   */\n      tag_191\n      tag_137\n      jump\t// in\n    tag_191:\n        /* \"#utility.yul\":2722:2806   */\n    tag_190:\n        /* \"#utility.yul\":2543:2812   */\n      pop\n        /* \"#utility.yul\":2492:2812   */\n      swap2\n      swap1\n      pop\n      jump\t// out\n        /* \"#utility.yul\":2818:2998   */\n    tag_26:\n        /* \"#utility.yul\":2866:2943   */\n      0x4e487b7100000000000000000000000000000000000000000000000000000000\n        /* \"#utility.yul\":2863:2864   */\n      0x00\n        /* \"#utility.yul\":2856:2944   */\n      mstore\n        /* \"#utility.yul\":2963:2967   */\n      0x21\n        /* \"#utility.yul\":2960:2961   */\n      0x04\n        /* \"#utility.yul\":2953:2968   */\n      mstore\n        /* \"#utility.yul\":2987:2991   */\n      0x24\n        /* \"#utility.yul\":2984:2985   */\n      0x00\n        /* \"#utility.yul\":2977:2992   */\n      revert\n        /* \"#utility.yul\":3004:3169   */\n    tag_138:\n        /* \"#utility.yul\":3144:3161   */\n      0x496e76616c69642063686f696365210000000000000000000000000000000000\n        /* \"#utility.yul\":3140:3141   */\n      0x00\n        /* \"#utility.yul\":3132:3138   */\n      dup3\n        /* \"#utility.yul\":3128:3142   */\n      add\n        /* \"#utility.yul\":3121:3162   */\n      mstore\n        /* \"#utility.yul\":3004:3169   */\n      pop\n      jump\t// out\n        /* \"#utility.yul\":3175:3541   */\n    tag_139:\n        /* \"#utility.yul\":3317:3320   */\n      0x00\n        /* \"#utility.yul\":3338:3405   */\n      tag_195\n        /* \"#utility.yul\":3402:3404   */\n      0x0f\n        /* \"#utility.yul\":3397:3400   */\n      dup4\n        /* \"#utility.yul\":3338:3405   */\n      tag_128\n      jump\t// in\n    tag_195:\n        /* \"#utility.yul\":3331:3405   */\n      swap2\n      pop\n        /* \"#utility.yul\":3414:3507   */\n      tag_196\n        /* \"#utility.yul\":3503:3506   */\n      dup3\n        /* \"#utility.yul\":3414:3507   */\n      tag_138\n      jump\t// in\n    tag_196:\n        /* \"#utility.yul\":3532:3534   */\n      0x20\n        /* \"#utility.yul\":3527:3530   */\n      dup3\n        /* \"#utility.yul\":3523:3535   */\n      add\n        /* \"#utility.yul\":3516:3535   */\n      swap1\n      pop\n        /* \"#utility.yul\":3175:3541   */\n      swap2\n      swap1\n      pop\n      jump\t// out\n        /* \"#utility.yul\":3547:3966   */\n    tag_31:\n        /* \"#utility.yul\":3713:3717   */\n      0x00\n        /* \"#utility.yul\":3751:3753   */\n      0x20\n        /* \"#utility.yul\":3740:3749   */\n      dup3\n        /* \"#utility.yul\":3736:3754   */\n      add\n        /* \"#utility.yul\":3728:3754   */\n      swap1\n      pop\n        /* \"#utility.yul\":3800:3809   */\n      dup2\n        /* \"#utility.yul\":3794:3798   */\n      dup2\n        /* \"#utility.yul\":3790:3810   */\n      sub\n        /* \"#utility.yul\":3786:3787   */\n      0x00\n        /* \"#utility.yul\":3775:3784   */\n      dup4\n        /* \"#utility.yul\":3771:3788   */\n      add\n        /* \"#utility.yul\":3764:3811   */\n      mstore\n        /* \"#utility.yul\":3828:3959   */\n      tag_198\n        /* \"#utility.yul\":3954:3958   */\n      dup2\n        /* \"#utility.yul\":3828:3959   */\n      tag_139\n      jump\t// in\n    tag_198:\n        /* \"#utility.yul\":3820:3959   */\n      swap1\n      pop\n        /* \"#utility.yul\":3547:3966   */\n      swap2\n      swap1\n      pop\n      jump\t// out\n        /* \"#utility.yul\":3972:4143   */\n    tag_140:\n        /* \"#utility.yul\":4112:4135   */\n      0x417761697420616e6f7468657220706c617965722e0000000000000000000000\n        /* \"#utility.yul\":4108:4109   */\n      0x00\n        /* \"#utility.yul\":4100:4106   */\n      dup3\n        /* \"#utility.yul\":4096:4110   */\n      add\n        /* \"#utility.yul\":4089:4136   */\n      mstore\n        /* \"#utility.yul\":3972:4143   */\n      pop\n      jump\t// out\n        /* \"#utility.yul\":4149:4515   */\n    tag_141:\n        /* \"#utility.yul\":4291:4294   */\n      0x00\n        /* \"#utility.yul\":4312:4379   */\n      tag_201\n        /* \"#utility.yul\":4376:4378   */\n      0x15\n        /* \"#utility.yul\":4371:4374   */\n      dup4\n        /* \"#utility.yul\":4312:4379   */\n      tag_128\n      jump\t// in\n    tag_201:\n        /* \"#utility.yul\":4305:4379   */\n      swap2\n      pop\n        /* \"#utility.yul\":4388:4481   */\n      tag_202\n        /* \"#utility.yul\":4477:4480   */\n      dup3\n        /* \"#utility.yul\":4388:4481   */\n      tag_140\n      jump\t// in\n    tag_202:\n        /* \"#utility.yul\":4506:4508   */\n      0x20\n        /* \"#utility.yul\":4501:4504   */\n      dup3\n        /* \"#utility.yul\":4497:4509   */\n      add\n        /* \"#utility.yul\":4490:4509   */\n      swap1\n      pop\n        /* \"#utility.yul\":4149:4515   */\n      swap2\n      swap1\n      pop\n      jump\t// out\n        /* \"#utility.yul\":4521:4940   */\n    tag_34:\n        /* \"#utility.yul\":4687:4691   */\n      0x00\n        /* \"#utility.yul\":4725:4727   */\n      0x20\n        /* \"#utility.yul\":4714:4723   */\n      dup3\n        /* \"#utility.yul\":4710:4728   */\n      add\n        /* \"#utility.yul\":4702:4728   */\n      swap1\n      pop\n        /* \"#utility.yul\":4774:4783   */\n      dup2\n        /* \"#utility.yul\":4768:4772   */\n      dup2\n        /* \"#utility.yul\":4764:4784   */\n      sub\n        /* \"#utility.yul\":4760:4761   */\n      0x00\n        /* \"#utility.yul\":4749:4758   */\n      dup4\n        /* \"#utility.yul\":4745:4762   */\n      add\n        /* \"#utility.yul\":4738:4785   */\n      mstore\n        /* \"#utility.yul\":4802:4933   */\n      tag_204\n        /* \"#utility.yul\":4928:4932   */\n      dup2\n        /* \"#utility.yul\":4802:4933   */\n      tag_141\n      jump\t// in\n    tag_204:\n        /* \"#utility.yul\":4794:4933   */\n      swap1\n      pop\n        /* \"#utility.yul\":4521:4940   */\n      swap2\n      swap1\n      pop\n      jump\t// out\n        /* \"#utility.yul\":4946:5126   */\n    tag_142:\n        /* \"#utility.yul\":4994:5071   */\n      0x4e487b7100000000000000000000000000000000000000000000000000000000\n        /* \"#utility.yul\":4991:4992   */\n      0x00\n        /* \"#utility.yul\":4984:5072   */\n      mstore\n        /* \"#utility.yul\":5091:5095   */\n      0x41\n        /* \"#utility.yul\":5088:5089   */\n      0x04\n        /* \"#utility.yul\":5081:5096   */\n      mstore\n        /* \"#utility.yul\":5115:5119   */\n      0x24\n        /* \"#utility.yul\":5112:5113   */\n      0x00\n        /* \"#utility.yul\":5105:5120   */\n      revert\n        /* \"#utility.yul\":5132:5273   */\n    tag_143:\n        /* \"#utility.yul\":5181:5185   */\n      0x00\n        /* \"#utility.yul\":5204:5207   */\n      dup2\n        /* \"#utility.yul\":5196:5207   */\n      swap1\n      pop\n        /* \"#utility.yul\":5227:5230   */\n      dup2\n        /* \"#utility.yul\":5224:5225   */\n      0x00\n        /* \"#utility.yul\":5217:5231   */\n      mstore\n        /* \"#utility.yul\":5261:5265   */\n      0x20\n        /* \"#utility.yul\":5258:5259   */\n      0x00\n        /* \"#utility.yul\":5248:5266   */\n      keccak256\n        /* \"#utility.yul\":5240:5266   */\n      swap1\n      pop\n        /* \"#utility.yul\":5132:5273   */\n      swap2\n      swap1\n      pop\n      jump\t// out\n        /* \"#utility.yul\":5279:5372   */\n    tag_144:\n        /* \"#utility.yul\":5316:5322   */\n      0x00\n        /* \"#utility.yul\":5363:5365   */\n      0x20\n        /* \"#utility.yul\":5358:5360   */\n      0x1f\n        /* \"#utility.yul\":5351:5356   */\n      dup4\n        /* \"#utility.yul\":5347:5361   */\n      add\n        /* \"#utility.yul\":5343:5366   */\n      div\n        /* \"#utility.yul\":5333:5366   */\n      swap1\n      pop\n        /* \"#utility.yul\":5279:5372   */\n      swap2\n      swap1\n      pop\n      jump\t// out\n        /* \"#utility.yul\":5378:5485   */\n    tag_145:\n        /* \"#utility.yul\":5422:5430   */\n      0x00\n        /* \"#utility.yul\":5472:5477   */\n      dup3\n        /* \"#utility.yul\":5466:5470   */\n      dup3\n        /* \"#utility.yul\":5462:5478   */\n      shl\n        /* \"#utility.yul\":5441:5478   */\n      swap1\n      pop\n        /* \"#utility.yul\":5378:5485   */\n      swap3\n      swap2\n      pop\n      pop\n      jump\t// out\n        /* \"#utility.yul\":5491:5884   */\n    tag_146:\n        /* \"#utility.yul\":5560:5566   */\n      0x00\n        /* \"#utility.yul\":5610:5611   */\n      0x08\n        /* \"#utility.yul\":5598:5608   */\n      dup4\n        /* \"#utility.yul\":5594:5612   */\n      mul\n        /* \"#utility.yul\":5633:5730   */\n      tag_210\n        /* \"#utility.yul\":5663:5729   */\n      0xffffffffffffffffffffffffffffffffffffffffffffffffffffffffffffffff\n        /* \"#utility.yul\":5652:5661   */\n      dup3\n        /* \"#utility.yul\":5633:5730   */\n      tag_145\n      jump\t// in\n    tag_210:\n        /* \"#utility.yul\":5751:5790   */\n      tag_211\n        /* \"#utility.yul\":5781:5789   */\n      dup7\n        /* \"#utility.yul\":5770:5779   */\n      dup4\n        /* \"#utility.yul\":5751:5790   */\n      tag_145\n      jump\t// in\n    tag_211:\n        /* \"#utility.yul\":5739:5790   */\n      swap6\n      pop\n        /* \"#utility.yul\":5823:5827   */\n      dup1\n        /* \"#utility.yul\":5819:5828   */\n      not\n        /* \"#utility.yul\":5812:5817   */\n      dup5\n        /* \"#utility.yul\":5808:5829   */\n      and\n        /* \"#utility.yul\":5799:5829   */\n      swap4\n      pop\n        /* \"#utility.yul\":5872:5876   */\n      dup1\n        /* \"#utility.yul\":5862:5870   */\n      dup7\n        /* \"#utility.yul\":5858:5877   */\n      and\n        /* \"#utility.yul\":5851:5856   */\n      dup5\n        /* \"#utility.yul\":5848:5878   */\n      or\n        /* \"#utility.yul\":5838:5878   */\n      swap3\n      pop\n        /* \"#utility.yul\":5567:5884   */\n      pop\n      pop\n        /* \"#utility.yul\":5491:5884   */\n      swap4\n      swap3\n      pop\n      pop\n      pop\n      jump\t// out\n        /* \"#utility.yul\":5890:5967   */\n    tag_147:\n        /* \"#utility.yul\":5927:5934   */\n      0x00\n        /* \"#utility.yul\":5956:5961   */\n      dup2\n        /* \"#utility.yul\":5945:5961   */\n      swap1\n      pop\n        /* \"#utility.yul\":5890:5967   */\n      swap2\n      swap1\n      pop\n      jump\t// out\n        /* \"#utility.yul\":5973:6033   */\n    tag_148:\n        /* \"#utility.yul\":6001:6004   */\n      0x00\n        /* \"#utility.yul\":6022:6027   */\n      dup2\n        /* \"#utility.yul\":6015:6027   */\n      swap1\n      pop\n        /* \"#utility.yul\":5973:6033   */\n      swap2\n      swap1\n      pop\n      jump\t// out\n        /* \"#utility.yul\":6039:6181   */\n    tag_149:\n        /* \"#utility.yul\":6089:6098   */\n      0x00\n        /* \"#utility.yul\":6122:6175   */\n      tag_215\n        /* \"#utility.yul\":6140:6174   */\n      tag_216\n        /* \"#utility.yul\":6149:6173   */\n      tag_217\n        /* \"#utility.yul\":6167:6172   */\n      dup5\n        /* \"#utility.yul\":6149:6173   */\n      tag_147\n      jump\t// in\n    tag_217:\n        /* \"#utility.yul\":6140:6174   */\n      tag_148\n      jump\t// in\n    tag_216:\n        /* \"#utility.yul\":6122:6175   */\n      tag_147\n      jump\t// in\n    tag_215:\n        /* \"#utility.yul\":6109:6175   */\n      swap1\n      pop\n        /* \"#utility.yul\":6039:6181   */\n      swap2\n      swap1\n      pop\n      jump\t// out\n        /* \"#utility.yul\":6187:6262   */\n    tag_150:\n        /* \"#utility.yul\":6230:6233   */\n      0x00\n        /* \"#utility.yul\":6251:6256   */\n      dup2\n        /* \"#utility.yul\":6244:6256   */\n      swap1\n      pop\n        /* \"#utility.yul\":6187:6262   */\n      swap2\n      swap1\n      pop\n      jump\t// out\n        /* \"#utility.yul\":6268:6537   */\n    tag_151:\n        /* \"#utility.yul\":6378:6417   */\n      tag_220\n        /* \"#utility.yul\":6409:6416   */\n      dup4\n        /* \"#utility.yul\":6378:6417   */\n      tag_149\n      jump\t// in\n    tag_220:\n        /* \"#utility.yul\":6439:6530   */\n      tag_221\n        /* \"#utility.yul\":6488:6529   */\n      tag_222\n        /* \"#utility.yul\":6512:6528   */\n      dup3\n        /* \"#utility.yul\":6488:6529   */\n      tag_150\n      jump\t// in\n    tag_222:\n        /* \"#utility.yul\":6480:6486   */\n      dup5\n        /* \"#utility.yul\":6473:6477   */\n      dup5\n        /* \"#utility.yul\":6467:6478   */\n      sload\n        /* \"#utility.yul\":6439:6530   */\n      tag_146\n      jump\t// in\n    tag_221:\n        /* \"#utility.yul\":6433:6437   */\n      dup3\n        /* \"#utility.yul\":6426:6531   */\n      sstore\n        /* \"#utility.yul\":6344:6537   */\n      pop\n        /* \"#utility.yul\":6268:6537   */\n      pop\n      pop\n      pop\n      jump\t// out\n        /* \"#utility.yul\":6543:6616   */\n    tag_152:\n        /* \"#utility.yul\":6588:6591   */\n      0x00\n        /* \"#utility.yul\":6543:6616   */\n      swap1\n      jump\t// out\n        /* \"#utility.yul\":6622:6811   */\n    tag_153:\n        /* \"#utility.yul\":6699:6731   */\n      tag_225\n      tag_152\n      jump\t// in\n    tag_225:\n        /* \"#utility.yul\":6740:6805   */\n      tag_226\n        /* \"#utility.yul\":6798:6804   */\n      dup2\n        /* \"#utility.yul\":6790:6796   */\n      dup5\n        /* \"#utility.yul\":6784:6788   */\n      dup5\n        /* \"#utility.yul\":6740:6805   */\n      tag_151\n      jump\t// in\n    tag_226:\n        /* \"#utility.yul\":6675:6811   */\n      pop\n        /* \"#utility.yul\":6622:6811   */\n      pop\n      pop\n      jump\t// out\n        /* \"#utility.yul\":6817:7003   */\n    tag_154:\n        /* \"#utility.yul\":6877:6997   */\n    tag_228:\n        /* \"#utility.yul\":6894:6897   */\n      dup2\n        /* \"#utility.yul\":6887:6892   */\n      dup2\n        /* \"#utility.yul\":6884:6898   */\n      lt\n        /* \"#utility.yul\":6877:6997   */\n      iszero\n      tag_230\n      jumpi\n        /* \"#utility.yul\":6948:6987   */\n      tag_231\n        /* \"#utility.yul\":6985:6986   */\n      0x00\n        /* \"#utility.yul\":6978:6983   */\n      dup3\n        /* \"#utility.yul\":6948:6987   */\n      tag_153\n      jump\t// in\n    tag_231:\n        /* \"#utility.yul\":6921:6922   */\n      0x01\n        /* \"#utility.yul\":6914:6919   */\n      dup2\n        /* \"#utility.yul\":6910:6923   */\n      add\n        /* \"#utility.yul\":6901:6923   */\n      swap1\n      pop\n        /* \"#utility.yul\":6877:6997   */\n      jump(tag_228)\n    tag_230:\n        /* \"#utility.yul\":6817:7003   */\n      pop\n      pop\n      jump\t// out\n        /* \"#utility.yul\":7009:7552   */\n    tag_155:\n        /* \"#utility.yul\":7110:7112   */\n      0x1f\n        /* \"#utility.yul\":7105:7108   */\n      dup3\n        /* \"#utility.yul\":7102:7113   */\n      gt\n        /* \"#utility.yul\":7099:7545   */\n      iszero\n      tag_233\n      jumpi\n        /* \"#utility.yul\":7144:7182   */\n      tag_234\n        /* \"#utility.yul\":7176:7181   */\n      dup2\n        /* \"#utility.yul\":7144:7182   */\n      tag_143\n      jump\t// in\n    tag_234:\n        /* \"#utility.yul\":7228:7257   */\n      tag_235\n        /* \"#utility.yul\":7246:7256   */\n      dup5\n        /* \"#utility.yul\":7228:7257   */\n      tag_144\n      jump\t// in\n    tag_235:\n        /* \"#utility.yul\":7218:7226   */\n      dup2\n        /* \"#utility.yul\":7214:7258   */\n      add\n        /* \"#utility.yul\":7411:7413   */\n      0x20\n        /* \"#utility.yul\":7399:7409   */\n      dup6\n        /* \"#utility.yul\":7396:7414   */\n      lt\n        /* \"#utility.yul\":7393:7442   */\n      iszero\n      tag_236\n      jumpi\n        /* \"#utility.yul\":7432:7440   */\n      dup2\n        /* \"#utility.yul\":7417:7440   */\n      swap1\n      pop\n        /* \"#utility.yul\":7393:7442   */\n    tag_236:\n        /* \"#utility.yul\":7455:7535   */\n      tag_237\n        /* \"#utility.yul\":7511:7533   */\n      tag_238\n        /* \"#utility.yul\":7529:7532   */\n      dup6\n        /* \"#utility.yul\":7511:7533   */\n      tag_144\n      jump\t// in\n    tag_238:\n        /* \"#utility.yul\":7501:7509   */\n      dup4\n        /* \"#utility.yul\":7497:7534   */\n      add\n        /* \"#utility.yul\":7484:7495   */\n      dup3\n        /* \"#utility.yul\":7455:7535   */\n      tag_154\n      jump\t// in\n    tag_237:\n        /* \"#utility.yul\":7114:7545   */\n      pop\n      pop\n        /* \"#utility.yul\":7099:7545   */\n    tag_233:\n        /* \"#utility.yul\":7009:7552   */\n      pop\n      pop\n      pop\n      jump\t// out\n        /* \"#utility.yul\":7558:7675   */\n    tag_156:\n        /* \"#utility.yul\":7612:7620   */\n      0x00\n        /* \"#utility.yul\":7662:7667   */\n      dup3\n        /* \"#utility.yul\":7656:7660   */\n      dup3\n        /* \"#utility.yul\":7652:7668   */\n      shr\n        /* \"#utility.yul\":7631:7668   */\n      swap1\n      pop\n        /* \"#utility.yul\":7558:7675   */\n      swap3\n      swap2\n      pop\n      pop\n      jump\t// out\n        /* \"#utility.yul\":7681:7850   */\n    tag_157:\n        /* \"#utility.yul\":7725:7731   */\n      0x00\n        /* \"#utility.yul\":7758:7809   */\n      tag_241\n        /* \"#utility.yul\":7806:7807   */\n      0x00\n        /* \"#utility.yul\":7802:7808   */\n      not\n        /* \"#utility.yul\":7794:7799   */\n      dup5\n        /* \"#utility.yul\":7791:7792   */\n      0x08\n        /* \"#utility.yul\":7787:7800   */\n      mul\n        /* \"#utility.yul\":7758:7809   */\n      tag_156\n      jump\t// in\n    tag_241:\n        /* \"#utility.yul\":7754:7810   */\n      not\n        /* \"#utility.yul\":7839:7843   */\n      dup1\n        /* \"#utility.yul\":7833:7837   */\n      dup4\n        /* \"#utility.yul\":7829:7844   */\n      and\n        /* \"#utility.yul\":7819:7844   */\n      swap2\n      pop\n        /* \"#utility.yul\":7732:7850   */\n      pop\n        /* \"#utility.yul\":7681:7850   */\n      swap3\n      swap2\n      pop\n      pop\n      jump\t// out\n        /* \"#utility.yul\":7855:8150   */\n    tag_158:\n        /* \"#utility.yul\":7931:7935   */\n      0x00\n        /* \"#utility.yul\":8077:8106   */\n      tag_243\n        /* \"#utility.yul\":8102:8105   */\n      dup4\n        /* \"#utility.yul\":8096:8100   */\n      dup4\n        /* \"#utility.yul\":8077:8106   */\n      tag_157\n      jump\t// in\n    tag_243:\n        /* \"#utility.yul\":8069:8106   */\n      swap2\n      pop\n        /* \"#utility.yul\":8139:8142   */\n      dup3\n        /* \"#utility.yul\":8136:8137   */\n      0x02\n        /* \"#utility.yul\":8132:8143   */\n      mul\n        /* \"#utility.yul\":8126:8130   */\n      dup3\n        /* \"#utility.yul\":8123:8144   */\n      or\n        /* \"#utility.yul\":8115:8144   */\n      swap1\n      pop\n        /* \"#utility.yul\":7855:8150   */\n      swap3\n      swap2\n      pop\n      pop\n      jump\t// out\n        /* \"#utility.yul\":8155:9550   */\n    tag_43:\n        /* \"#utility.yul\":8272:8309   */\n      tag_245\n        /* \"#utility.yul\":8305:8308   */\n      dup3\n        /* \"#utility.yul\":8272:8309   */\n      tag_127\n      jump\t// in\n    tag_245:\n        /* \"#utility.yul\":8374:8392   */\n      0xffffffffffffffff\n        /* \"#utility.yul\":8366:8372   */\n      dup2\n        /* \"#utility.yul\":8363:8393   */\n      gt\n        /* \"#utility.yul\":8360:8416   */\n      iszero\n      tag_246\n      jumpi\n        /* \"#utility.yul\":8396:8414   */\n      tag_247\n      tag_142\n      jump\t// in\n    tag_247:\n        /* \"#utility.yul\":8360:8416   */\n    tag_246:\n        /* \"#utility.yul\":8440:8478   */\n      tag_248\n        /* \"#utility.yul\":8472:8476   */\n      dup3\n        /* \"#utility.yul\":8466:8477   */\n      sload\n        /* \"#utility.yul\":8440:8478   */\n      tag_18\n      jump\t// in\n    tag_248:\n        /* \"#utility.yul\":8525:8592   */\n      tag_249\n        /* \"#utility.yul\":8585:8591   */\n      dup3\n        /* \"#utility.yul\":8577:8583   */\n      dup3\n        /* \"#utility.yul\":8571:8575   */\n      dup6\n        /* \"#utility.yul\":8525:8592   */\n      tag_155\n      jump\t// in\n    tag_249:\n        /* \"#utility.yul\":8619:8620   */\n      0x00\n        /* \"#utility.yul\":8643:8647   */\n      0x20\n        /* \"#utility.yul\":8630:8647   */\n      swap1\n      pop\n        /* \"#utility.yul\":8675:8677   */\n      0x1f\n        /* \"#utility.yul\":8667:8673   */\n      dup4\n        /* \"#utility.yul\":8664:8678   */\n      gt\n        /* \"#utility.yul\":8692:8693   */\n      0x01\n        /* \"#utility.yul\":8687:9305   */\n      dup2\n      eq\n      tag_251\n      jumpi\n        /* \"#utility.yul\":9349:9350   */\n      0x00\n        /* \"#utility.yul\":9366:9372   */\n      dup5\n        /* \"#utility.yul\":9363:9440   */\n      iszero\n      tag_252\n      jumpi\n        /* \"#utility.yul\":9415:9424   */\n      dup3\n        /* \"#utility.yul\":9410:9413   */\n      dup8\n        /* \"#utility.yul\":9406:9425   */\n      add\n        /* \"#utility.yul\":9400:9426   */\n      mload\n        /* \"#utility.yul\":9391:9426   */\n      swap1\n      pop\n        /* \"#utility.yul\":9363:9440   */\n    tag_252:\n        /* \"#utility.yul\":9466:9533   */\n      tag_253\n        /* \"#utility.yul\":9526:9532   */\n      dup6\n        /* \"#utility.yul\":9519:9524   */\n      dup3\n        /* \"#utility.yul\":9466:9533   */\n      tag_158\n      jump\t// in\n    tag_253:\n        /* \"#utility.yul\":9460:9464   */\n      dup7\n        /* \"#utility.yul\":9453:9534   */\n      sstore\n        /* \"#utility.yul\":9322:9544   */\n      pop\n        /* \"#utility.yul\":8657:9544   */\n      jump(tag_250)\n        /* \"#utility.yul\":8687:9305   */\n    tag_251:\n        /* \"#utility.yul\":8739:8743   */\n      0x1f\n        /* \"#utility.yul\":8735:8744   */\n      not\n        /* \"#utility.yul\":8727:8733   */\n      dup5\n        /* \"#utility.yul\":8723:8745   */\n      and\n        /* \"#utility.yul\":8773:8810   */\n      tag_254\n        /* \"#utility.yul\":8805:8809   */\n      dup7\n        /* \"#utility.yul\":8773:8810   */\n      tag_143\n      jump\t// in\n    tag_254:\n        /* \"#utility.yul\":8832:8833   */\n      0x00\n        /* \"#utility.yul\":8846:9054   */\n    tag_255:\n        /* \"#utility.yul\":8860:8867   */\n      dup3\n        /* \"#utility.yul\":8857:8858   */\n      dup2\n        /* \"#utility.yul\":8854:8868   */\n      lt\n        /* \"#utility.yul\":8846:9054   */\n      iszero\n      tag_257\n      jumpi\n        /* \"#utility.yul\":8939:8948   */\n      dup5\n        /* \"#utility.yul\":8934:8937   */\n      dup10\n        /* \"#utility.yul\":8930:8949   */\n      add\n        /* \"#utility.yul\":8924:8950   */\n      mload\n        /* \"#utility.yul\":8916:8922   */\n      dup3\n        /* \"#utility.yul\":8909:8951   */\n      sstore\n        /* \"#utility.yul\":8990:8991   */\n      0x01\n        /* \"#utility.yul\":8982:8988   */\n      dup3\n        /* \"#utility.yul\":8978:8992   */\n      add\n        /* \"#utility.yul\":8968:8992   */\n      swap2\n      pop\n        /* \"#utility.yul\":9037:9039   */\n      0x20\n        /* \"#utility.yul\":9026:9035   */\n      dup6\n        /* \"#utility.yul\":9022:9040   */\n      add\n        /* \"#utility.yul\":9009:9040   */\n      swap5\n      pop\n        /* \"#utility.yul\":8883:8887   */\n      0x20\n        /* \"#utility.yul\":8880:8881   */\n      dup2\n        /* \"#utility.yul\":8876:8888   */\n      add\n        /* \"#utility.yul\":8871:8888   */\n      swap1\n      pop\n        /* \"#utility.yul\":8846:9054   */\n      jump(tag_255)\n    tag_257:\n        /* \"#utility.yul\":9082:9088   */\n      dup7\n        /* \"#utility.yul\":9073:9080   */\n      dup4\n        /* \"#utility.yul\":9070:9089   */\n      lt\n        /* \"#utility.yul\":9067:9246   */\n      iszero\n      tag_258\n      jumpi\n        /* \"#utility.yul\":9140:9149   */\n      dup5\n        /* \"#utility.yul\":9135:9138   */\n      dup10\n        /* \"#utility.yul\":9131:9150   */\n      add\n        /* \"#utility.yul\":9125:9151   */\n      mload\n        /* \"#utility.yul\":9183:9231   */\n      tag_259\n        /* \"#utility.yul\":9225:9229   */\n      0x1f\n        /* \"#utility.yul\":9217:9223   */\n      dup10\n        /* \"#utility.yul\":9213:9230   */\n      and\n        /* \"#utility.yul\":9202:9211   */\n      dup3\n        /* \"#utility.yul\":9183:9231   */\n      tag_157\n      jump\t// in\n    tag_259:\n        /* \"#utility.yul\":9175:9181   */\n      dup4\n        /* \"#utility.yul\":9168:9232   */\n      sstore\n        /* \"#utility.yul\":9090:9246   */\n      pop\n        /* \"#utility.yul\":9067:9246   */\n    tag_258:\n        /* \"#utility.yul\":9292:9293   */\n      0x01\n        /* \"#utility.yul\":9288:9289   */\n      0x02\n        /* \"#utility.yul\":9280:9286   */\n      dup9\n        /* \"#utility.yul\":9276:9290   */\n      mul\n        /* \"#utility.yul\":9272:9294   */\n      add\n        /* \"#utility.yul\":9266:9270   */\n      dup9\n        /* \"#utility.yul\":9259:9295   */\n      sstore\n        /* \"#utility.yul\":8694:9305   */\n      pop\n      pop\n      pop\n        /* \"#utility.yul\":8657:9544   */\n    tag_250:\n      pop\n        /* \"#utility.yul\":8247:9550   */\n      pop\n      pop\n      pop\n        /* \"#utility.yul\":8155:9550   */\n      pop\n      pop\n      jump\t// out\n        /* \"#utility.yul\":9556:9785   */\n    tag_159:\n        /* \"#utility.yul\":9696:9730   */\n      0x596f7520646f6e27742068617665207065726d697373696f6e7320746f206163\n        /* \"#utility.yul\":9692:9693   */\n      0x00\n        /* \"#utility.yul\":9684:9690   */\n      dup3\n        /* \"#utility.yul\":9680:9694   */\n      add\n        /* \"#utility.yul\":9673:9731   */\n      mstore\n        /* \"#utility.yul\":9765:9777   */\n      0x6365737320746869732e00000000000000000000000000000000000000000000\n        /* \"#utility.yul\":9760:9762   */\n      0x20\n        /* \"#utility.yul\":9752:9758   */\n      dup3\n        /* \"#utility.yul\":9748:9763   */\n      add\n        /* \"#utility.yul\":9741:9778   */\n      mstore\n        /* \"#utility.yul\":9556:9785   */\n      pop\n      jump\t// out\n        /* \"#utility.yul\":9791:10157   */\n    tag_160:\n        /* \"#utility.yul\":9933:9936   */\n      0x00\n        /* \"#utility.yul\":9954:10021   */\n      tag_262\n        /* \"#utility.yul\":10018:10020   */\n      0x2a\n        /* \"#utility.yul\":10013:10016   */\n      dup4\n        /* \"#utility.yul\":9954:10021   */\n      tag_128\n      jump\t// in\n    tag_262:\n        /* \"#utility.yul\":9947:10021   */\n      swap2\n      pop\n        /* \"#utility.yul\":10030:10123   */\n      tag_263\n        /* \"#utility.yul\":10119:10122   */\n      dup3\n        /* \"#utility.yul\":10030:10123   */\n      tag_159\n      jump\t// in\n    tag_263:\n        /* \"#utility.yul\":10148:10150   */\n      0x40\n        /* \"#utility.yul\":10143:10146   */\n      dup3\n        /* \"#utility.yul\":10139:10151   */\n      add\n        /* \"#utility.yul\":10132:10151   */\n      swap1\n      pop\n        /* \"#utility.yul\":9791:10157   */\n      swap2\n      swap1\n      pop\n      jump\t// out\n        /* \"#utility.yul\":10163:10582   */\n    tag_122:\n        /* \"#utility.yul\":10329:10333   */\n      0x00\n        /* \"#utility.yul\":10367:10369   */\n      0x20\n        /* \"#utility.yul\":10356:10365   */\n      dup3\n        /* \"#utility.yul\":10352:10370   */\n      add\n        /* \"#utility.yul\":10344:10370   */\n      swap1\n      pop\n        /* \"#utility.yul\":10416:10425   */\n      dup2\n        /* \"#utility.yul\":10410:10414   */\n      dup2\n        /* \"#utility.yul\":10406:10426   */\n      sub\n        /* \"#utility.yul\":10402:10403   */\n      0x00\n        /* \"#utility.yul\":10391:10400   */\n      dup4\n        /* \"#utility.yul\":10387:10404   */\n      add\n        /* \"#utility.yul\":10380:10427   */\n      mstore\n        /* \"#utility.yul\":10444:10575   */\n      tag_265\n        /* \"#utility.yul\":10570:10574   */\n      dup2\n        /* \"#utility.yul\":10444:10575   */\n      tag_160\n      jump\t// in\n    tag_265:\n        /* \"#utility.yul\":10436:10575   */\n      swap1\n      pop\n        /* \"#utility.yul\":10163:10582   */\n      swap2\n      swap1\n      pop\n      jump\t// out\n    stop\n    data_578a9428a54c800af9c02139d74432994ad47bb29704d23f809566a331855d2f 526f636b20627265616b732053636973736f72732e20506c61796572203220574f4e21\n    data_891c3d6e5adde30875c07acfcca8d06d5be6cf84c2f0053d1a896b105617b25d 506c6179657220312063686f736520686973206f7074696f6e2e2057616974696e6720666f7220706c6179657220322e\n    data_9056477a8043385bd4eedf29b3b65eaa4f879760f1d1dac4e0b1e2f1c5a5e34c 526f636b20627265616b732053636973736f72732e20506c61796572203120574f4e21\n    data_91015f70aacd548b1cf82057021b45f79e16ba2ae54c369de1244ab075c90b63 53636973736f727320637574732050617065722e20506c61796572203120574f4e21\n    data_933bdbc870e421c751aaa16e694cd13fd9fe7932556621cc4aca333dcc976580 53636973736f727320637574732050617065722e20506c61796572203220574f4e21\n    data_b94c7b361674559a225474b34f3a500a17dd8451641824e767f482876c08c61a 48656c6c6f2e2e2e2066726f6d20746865207365637265742066756e6374696f6e21\n\n    auxdata: 0xa26469706673582212200329d848ca9c233abd983df677104f790b88d3a44590e3629dd9c8c19efdc12964736f6c63430008120033\n}\n",
				"bytecode": {
					"linkReferences": {},
					"object": "60a060405260008060006101000a81548160ff021916908360038111156200002c576200002b620000db565b5b021790555033600060016101000a81548173ffffffffffffffffffffffffffffffffffffffff021916908373ffffffffffffffffffffffffffffffffffffffff160217905550604051806020016040528060008152506001908162000092919062000384565b50348015620000a057600080fd5b503373ffffffffffffffffffffffffffffffffffffffff1660808173ffffffffffffffffffffffffffffffffffffffff16815250506200046b565b7f4e487b7100000000000000000000000000000000000000000000000000000000600052602160045260246000fd5b600081519050919050565b7f4e487b7100000000000000000000000000000000000000000000000000000000600052604160045260246000fd5b7f4e487b7100000000000000000000000000000000000000000000000000000000600052602260045260246000fd5b600060028204905060018216806200018c57607f821691505b602082108103620001a257620001a162000144565b5b50919050565b60008190508160005260206000209050919050565b60006020601f8301049050919050565b600082821b905092915050565b6000600883026200020c7fffffffffffffffffffffffffffffffffffffffffffffffffffffffffffffffff82620001cd565b620002188683620001cd565b95508019841693508086168417925050509392505050565b6000819050919050565b6000819050919050565b6000620002656200025f620002598462000230565b6200023a565b62000230565b9050919050565b6000819050919050565b620002818362000244565b6200029962000290826200026c565b848454620001da565b825550505050565b600090565b620002b0620002a1565b620002bd81848462000276565b505050565b5b81811015620002e557620002d9600082620002a6565b600181019050620002c3565b5050565b601f8211156200033457620002fe81620001a8565b6200030984620001bd565b8101602085101562000319578190505b620003316200032885620001bd565b830182620002c2565b50505b505050565b600082821c905092915050565b6000620003596000198460080262000339565b1980831691505092915050565b600062000374838362000346565b9150826002028217905092915050565b6200038f826200010a565b67ffffffffffffffff811115620003ab57620003aa62000115565b5b620003b7825462000173565b620003c4828285620002e9565b600060209050601f831160018114620003fc5760008415620003e7578287015190505b620003f3858262000366565b86555062000463565b601f1984166200040c86620001a8565b60005b8281101562000436578489015182556001820191506020850194506020810190506200040f565b8683101562000456578489015162000452601f89168262000346565b8355505b6001600288020188555050505b505050505050565b608051610ec86200048760003960006106ec0152610ec86000f3fe608060405234801561001057600080fd5b50600436106100415760003560e01c8063200d2ed21461004657806353a04b0514610064578063e6df22ee14610080575b600080fd5b61004e61009e565b60405161005b919061088d565b60405180910390f35b61007e600480360381019061007991906108d9565b61012c565b005b6100886106d1565b604051610095919061088d565b60405180910390f35b600180546100ab90610935565b80601f01602080910402602001604051908101604052809291908181526020018280546100d790610935565b80156101245780601f106100f957610100808354040283529160200191610124565b820191906000526020600020905b81548152906001019060200180831161010757829003601f168201915b505050505081565b600060038111156101405761013f610966565b5b81600381111561015357610152610966565b5b03610193576040517f08c379a000000000000000000000000000000000000000000000000000000000815260040161018a906109e1565b60405180910390fd5b3373ffffffffffffffffffffffffffffffffffffffff16600060019054906101000a900473ffffffffffffffffffffffffffffffffffffffff1673ffffffffffffffffffffffffffffffffffffffff1603610223576040517f08c379a000000000000000000000000000000000000000000000000000000000815260040161021a90610a4d565b60405180910390fd5b6000600381111561023757610236610966565b5b60008054906101000a900460ff16600381111561025757610256610966565b5b036102f35733600060016101000a81548173ffffffffffffffffffffffffffffffffffffffff021916908373ffffffffffffffffffffffffffffffffffffffff160217905550806000806101000a81548160ff021916908360038111156102c1576102c0610966565b5b0217905550604051806060016040528060308152602001610dda60309139600190816102ed9190610c52565b506106ce565b6001600381111561030757610306610966565b5b60008054906101000a900460ff16600381111561032757610326610966565b5b148015610357575060038081111561034257610341610966565b5b81600381111561035557610354610966565b5b145b156103825761037d604051806060016040528060238152602001610e0a6023913961077f565b6106cd565b6002600381111561039657610395610966565b5b60008054906101000a900460ff1660038111156103b6576103b5610966565b5b1480156103e75750600160038111156103d2576103d1610966565b5b8160038111156103e5576103e4610966565b5b145b1561042f5761042a6040518060400160405280601f81526020017f506170657220777261707320526f636b2e20506c61796572203120574f4e210081525061077f565b6106cc565b60038081111561044257610441610966565b5b60008054906101000a900460ff16600381111561046257610461610966565b5b14801561049357506002600381111561047e5761047d610966565b5b81600381111561049157610490610966565b5b145b156104be576104b9604051806060016040528060228152602001610e2d6022913961077f565b6106cb565b6003808111156104d1576104d0610966565b5b60008054906101000a900460ff1660038111156104f1576104f0610966565b5b14801561052257506001600381111561050d5761050c610966565b5b8160038111156105205761051f610966565b5b145b1561054d57610548604051806060016040528060238152602001610db76023913961077f565b6106ca565b6001600381111561056157610560610966565b5b60008054906101000a900460ff16600381111561058157610580610966565b5b1480156105b257506002600381111561059d5761059c610966565b5b8160038111156105b0576105af610966565b5b145b156105fa576105f56040518060400160405280601f81526020017f506170657220777261707320526f636b2e20506c61796572203220574f4e210081525061077f565b6106c9565b6002600381111561060e5761060d610966565b5b60008054906101000a900460ff16600381111561062e5761062d610966565b5b14801561065e575060038081111561064957610648610966565b5b81600381111561065c5761065b610966565b5b145b1561068957610684604051806060016040528060228152602001610e4f6022913961077f565b6106c8565b6106c76040518060400160405280600a81526020017f447261772067616d65210000000000000000000000000000000000000000000081525061077f565b5b5b5b5b5b5b5b50565b60603373ffffffffffffffffffffffffffffffffffffffff167f000000000000000000000000000000000000000000000000000000000000000073ffffffffffffffffffffffffffffffffffffffff1614610761576040517f08c379a000000000000000000000000000000000000000000000000000000000815260040161075890610d96565b60405180910390fd5b604051806060016040528060228152602001610e7160229139905090565b806001908161078e9190610c52565b5060008060016101000a81548173ffffffffffffffffffffffffffffffffffffffff021916908373ffffffffffffffffffffffffffffffffffffffff16021790555060008060006101000a81548160ff021916908360038111156107f5576107f4610966565b5b021790555050565b600081519050919050565b600082825260208201905092915050565b60005b8381101561083757808201518184015260208101905061081c565b60008484015250505050565b6000601f19601f8301169050919050565b600061085f826107fd565b6108698185610808565b9350610879818560208601610819565b61088281610843565b840191505092915050565b600060208201905081810360008301526108a78184610854565b905092915050565b600080fd5b600481106108c157600080fd5b50565b6000813590506108d3816108b4565b92915050565b6000602082840312156108ef576108ee6108af565b5b60006108fd848285016108c4565b91505092915050565b7f4e487b7100000000000000000000000000000000000000000000000000000000600052602260045260246000fd5b6000600282049050600182168061094d57607f821691505b6020821081036109605761095f610906565b5b50919050565b7f4e487b7100000000000000000000000000000000000000000000000000000000600052602160045260246000fd5b7f496e76616c69642063686f696365210000000000000000000000000000000000600082015250565b60006109cb600f83610808565b91506109d682610995565b602082019050919050565b600060208201905081810360008301526109fa816109be565b9050919050565b7f417761697420616e6f7468657220706c617965722e0000000000000000000000600082015250565b6000610a37601583610808565b9150610a4282610a01565b602082019050919050565b60006020820190508181036000830152610a6681610a2a565b9050919050565b7f4e487b7100000000000000000000000000000000000000000000000000000000600052604160045260246000fd5b60008190508160005260206000209050919050565b60006020601f8301049050919050565b600082821b905092915050565b600060088302610afe7fffffffffffffffffffffffffffffffffffffffffffffffffffffffffffffffff82610ac1565b610b088683610ac1565b95508019841693508086168417925050509392505050565b6000819050919050565b6000819050919050565b6000610b4f610b4a610b4584610b20565b610b2a565b610b20565b9050919050565b6000819050919050565b610b6983610b34565b610b7d610b7582610b56565b848454610ace565b825550505050565b600090565b610b92610b85565b610b9d818484610b60565b505050565b5b81811015610bc157610bb6600082610b8a565b600181019050610ba3565b5050565b601f821115610c0657610bd781610a9c565b610be084610ab1565b81016020851015610bef578190505b610c03610bfb85610ab1565b830182610ba2565b50505b505050565b600082821c905092915050565b6000610c2960001984600802610c0b565b1980831691505092915050565b6000610c428383610c18565b9150826002028217905092915050565b610c5b826107fd565b67ffffffffffffffff811115610c7457610c73610a6d565b5b610c7e8254610935565b610c89828285610bc5565b600060209050601f831160018114610cbc5760008415610caa578287015190505b610cb48582610c36565b865550610d1c565b601f198416610cca86610a9c565b60005b82811015610cf257848901518255600182019150602085019450602081019050610ccd565b86831015610d0f5784890151610d0b601f891682610c18565b8355505b6001600288020188555050505b505050505050565b7f596f7520646f6e27742068617665207065726d697373696f6e7320746f20616360008201527f6365737320746869732e00000000000000000000000000000000000000000000602082015250565b6000610d80602a83610808565b9150610d8b82610d24565b604082019050919050565b60006020820190508181036000830152610daf81610d73565b905091905056fe526f636b20627265616b732053636973736f72732e20506c61796572203220574f4e21506c6179657220312063686f736520686973206f7074696f6e2e2057616974696e6720666f7220706c6179657220322e526f636b20627265616b732053636973736f72732e20506c61796572203120574f4e2153636973736f727320637574732050617065722e20506c61796572203120574f4e2153636973736f727320637574732050617065722e20506c61796572203220574f4e2148656c6c6f2e2e2e2066726f6d20746865207365637265742066756e6374696f6e21a26469706673582212200329d848ca9c233abd983df677104f790b88d3a44590e3629dd9c8c19efdc12964736f6c63430008120033",
					"opcodes": "PUSH1 0xA0 PUSH1 0x40 MSTORE PUSH1 0x0 DUP1 PUSH1 0x0 PUSH2 0x100 EXP DUP2 SLOAD DUP2 PUSH1 0xFF MUL NOT AND SWAP1 DUP4 PUSH1 0x3 DUP2 GT ISZERO PUSH3 0x2C JUMPI PUSH3 0x2B PUSH3 0xDB JUMP JUMPDEST JUMPDEST MUL OR SWAP1 SSTORE POP CALLER PUSH1 0x0 PUSH1 0x1 PUSH2 0x100 EXP DUP2 SLOAD DUP2 PUSH20 0xFFFFFFFFFFFFFFFFFFFFFFFFFFFFFFFFFFFFFFFF MUL NOT AND SWAP1 DUP4 PUSH20 0xFFFFFFFFFFFFFFFFFFFFFFFFFFFFFFFFFFFFFFFF AND MUL OR SWAP1 SSTORE POP PUSH1 0x40 MLOAD DUP1 PUSH1 0x20 ADD PUSH1 0x40 MSTORE DUP1 PUSH1 0x0 DUP2 MSTORE POP PUSH1 0x1 SWAP1 DUP2 PUSH3 0x92 SWAP2 SWAP1 PUSH3 0x384 JUMP JUMPDEST POP CALLVALUE DUP1 ISZERO PUSH3 0xA0 JUMPI PUSH1 0x0 DUP1 REVERT JUMPDEST POP CALLER PUSH20 0xFFFFFFFFFFFFFFFFFFFFFFFFFFFFFFFFFFFFFFFF AND PUSH1 0x80 DUP2 PUSH20 0xFFFFFFFFFFFFFFFFFFFFFFFFFFFFFFFFFFFFFFFF AND DUP2 MSTORE POP POP PUSH3 0x46B JUMP JUMPDEST PUSH32 0x4E487B7100000000000000000000000000000000000000000000000000000000 PUSH1 0x0 MSTORE PUSH1 0x21 PUSH1 0x4 MSTORE PUSH1 0x24 PUSH1 0x0 REVERT JUMPDEST PUSH1 0x0 DUP2 MLOAD SWAP1 POP SWAP2 SWAP1 POP JUMP JUMPDEST PUSH32 0x4E487B7100000000000000000000000000000000000000000000000000000000 PUSH1 0x0 MSTORE PUSH1 0x41 PUSH1 0x4 MSTORE PUSH1 0x24 PUSH1 0x0 REVERT JUMPDEST PUSH32 0x4E487B7100000000000000000000000000000000000000000000000000000000 PUSH1 0x0 MSTORE PUSH1 0x22 PUSH1 0x4 MSTORE PUSH1 0x24 PUSH1 0x0 REVERT JUMPDEST PUSH1 0x0 PUSH1 0x2 DUP3 DIV SWAP1 POP PUSH1 0x1 DUP3 AND DUP1 PUSH3 0x18C JUMPI PUSH1 0x7F DUP3 AND SWAP2 POP JUMPDEST PUSH1 0x20 DUP3 LT DUP2 SUB PUSH3 0x1A2 JUMPI PUSH3 0x1A1 PUSH3 0x144 JUMP JUMPDEST JUMPDEST POP SWAP2 SWAP1 POP JUMP JUMPDEST PUSH1 0x0 DUP2 SWAP1 POP DUP2 PUSH1 0x0 MSTORE PUSH1 0x20 PUSH1 0x0 KECCAK256 SWAP1 POP SWAP2 SWAP1 POP JUMP JUMPDEST PUSH1 0x0 PUSH1 0x20 PUSH1 0x1F DUP4 ADD DIV SWAP1 POP SWAP2 SWAP1 POP JUMP JUMPDEST PUSH1 0x0 DUP3 DUP3 SHL SWAP1 POP SWAP3 SWAP2 POP POP JUMP JUMPDEST PUSH1 0x0 PUSH1 0x8 DUP4 MUL PUSH3 0x20C PUSH32 0xFFFFFFFFFFFFFFFFFFFFFFFFFFFFFFFFFFFFFFFFFFFFFFFFFFFFFFFFFFFFFFFF DUP3 PUSH3 0x1CD JUMP JUMPDEST PUSH3 0x218 DUP7 DUP4 PUSH3 0x1CD JUMP JUMPDEST SWAP6 POP DUP1 NOT DUP5 AND SWAP4 POP DUP1 DUP7 AND DUP5 OR SWAP3 POP POP POP SWAP4 SWAP3 POP POP POP JUMP JUMPDEST PUSH1 0x0 DUP2 SWAP1 POP SWAP2 SWAP1 POP JUMP JUMPDEST PUSH1 0x0 DUP2 SWAP1 POP SWAP2 SWAP1 POP JUMP JUMPDEST PUSH1 0x0 PUSH3 0x265 PUSH3 0x25F PUSH3 0x259 DUP5 PUSH3 0x230 JUMP JUMPDEST PUSH3 0x23A JUMP JUMPDEST PUSH3 0x230 JUMP JUMPDEST SWAP1 POP SWAP2 SWAP1 POP JUMP JUMPDEST PUSH1 0x0 DUP2 SWAP1 POP SWAP2 SWAP1 POP JUMP JUMPDEST PUSH3 0x281 DUP4 PUSH3 0x244 JUMP JUMPDEST PUSH3 0x299 PUSH3 0x290 DUP3 PUSH3 0x26C JUMP JUMPDEST DUP5 DUP5 SLOAD PUSH3 0x1DA JUMP JUMPDEST DUP3 SSTORE POP POP POP POP JUMP JUMPDEST PUSH1 0x0 SWAP1 JUMP JUMPDEST PUSH3 0x2B0 PUSH3 0x2A1 JUMP JUMPDEST PUSH3 0x2BD DUP2 DUP5 DUP5 PUSH3 0x276 JUMP JUMPDEST POP POP POP JUMP JUMPDEST JUMPDEST DUP2 DUP2 LT ISZERO PUSH3 0x2E5 JUMPI PUSH3 0x2D9 PUSH1 0x0 DUP3 PUSH3 0x2A6 JUMP JUMPDEST PUSH1 0x1 DUP2 ADD SWAP1 POP PUSH3 0x2C3 JUMP JUMPDEST POP POP JUMP JUMPDEST PUSH1 0x1F DUP3 GT ISZERO PUSH3 0x334 JUMPI PUSH3 0x2FE DUP2 PUSH3 0x1A8 JUMP JUMPDEST PUSH3 0x309 DUP5 PUSH3 0x1BD JUMP JUMPDEST DUP2 ADD PUSH1 0x20 DUP6 LT ISZERO PUSH3 0x319 JUMPI DUP2 SWAP1 POP JUMPDEST PUSH3 0x331 PUSH3 0x328 DUP6 PUSH3 0x1BD JUMP JUMPDEST DUP4 ADD DUP3 PUSH3 0x2C2 JUMP JUMPDEST POP POP JUMPDEST POP POP POP JUMP JUMPDEST PUSH1 0x0 DUP3 DUP3 SHR SWAP1 POP SWAP3 SWAP2 POP POP JUMP JUMPDEST PUSH1 0x0 PUSH3 0x359 PUSH1 0x0 NOT DUP5 PUSH1 0x8 MUL PUSH3 0x339 JUMP JUMPDEST NOT DUP1 DUP4 AND SWAP2 POP POP SWAP3 SWAP2 POP POP JUMP JUMPDEST PUSH1 0x0 PUSH3 0x374 DUP4 DUP4 PUSH3 0x346 JUMP JUMPDEST SWAP2 POP DUP3 PUSH1 0x2 MUL DUP3 OR SWAP1 POP SWAP3 SWAP2 POP POP JUMP JUMPDEST PUSH3 0x38F DUP3 PUSH3 0x10A JUMP JUMPDEST PUSH8 0xFFFFFFFFFFFFFFFF DUP2 GT ISZERO PUSH3 0x3AB JUMPI PUSH3 0x3AA PUSH3 0x115 JUMP JUMPDEST JUMPDEST PUSH3 0x3B7 DUP3 SLOAD PUSH3 0x173 JUMP JUMPDEST PUSH3 0x3C4 DUP3 DUP3 DUP6 PUSH3 0x2E9 JUMP JUMPDEST PUSH1 0x0 PUSH1 0x20 SWAP1 POP PUSH1 0x1F DUP4 GT PUSH1 0x1 DUP2 EQ PUSH3 0x3FC JUMPI PUSH1 0x0 DUP5 ISZERO PUSH3 0x3E7 JUMPI DUP3 DUP8 ADD MLOAD SWAP1 POP JUMPDEST PUSH3 0x3F3 DUP6 DUP3 PUSH3 0x366 JUMP JUMPDEST DUP7 SSTORE POP PUSH3 0x463 JUMP JUMPDEST PUSH1 0x1F NOT DUP5 AND PUSH3 0x40C DUP7 PUSH3 0x1A8 JUMP JUMPDEST PUSH1 0x0 JUMPDEST DUP3 DUP2 LT ISZERO PUSH3 0x436 JUMPI DUP5 DUP10 ADD MLOAD DUP3 SSTORE PUSH1 0x1 DUP3 ADD SWAP2 POP PUSH1 0x20 DUP6 ADD SWAP5 POP PUSH1 0x20 DUP2 ADD SWAP1 POP PUSH3 0x40F JUMP JUMPDEST DUP7 DUP4 LT ISZERO PUSH3 0x456 JUMPI DUP5 DUP10 ADD MLOAD PUSH3 0x452 PUSH1 0x1F DUP10 AND DUP3 PUSH3 0x346 JUMP JUMPDEST DUP4 SSTORE POP JUMPDEST PUSH1 0x1 PUSH1 0x2 DUP9 MUL ADD DUP9 SSTORE POP POP POP JUMPDEST POP POP POP POP POP POP JUMP JUMPDEST PUSH1 0x80 MLOAD PUSH2 0xEC8 PUSH3 0x487 PUSH1 0x0 CODECOPY PUSH1 0x0 PUSH2 0x6EC ADD MSTORE PUSH2 0xEC8 PUSH1 0x0 RETURN INVALID PUSH1 0x80 PUSH1 0x40 MSTORE CALLVALUE DUP1 ISZERO PUSH2 0x10 JUMPI PUSH1 0x0 DUP1 REVERT JUMPDEST POP PUSH1 0x4 CALLDATASIZE LT PUSH2 0x41 JUMPI PUSH1 0x0 CALLDATALOAD PUSH1 0xE0 SHR DUP1 PUSH4 0x200D2ED2 EQ PUSH2 0x46 JUMPI DUP1 PUSH4 0x53A04B05 EQ PUSH2 0x64 JUMPI DUP1 PUSH4 0xE6DF22EE EQ PUSH2 0x80 JUMPI JUMPDEST PUSH1 0x0 DUP1 REVERT JUMPDEST PUSH2 0x4E PUSH2 0x9E JUMP JUMPDEST PUSH1 0x40 MLOAD PUSH2 0x5B SWAP2 SWAP1 PUSH2 0x88D JUMP JUMPDEST PUSH1 0x40 MLOAD DUP1 SWAP2 SUB SWAP1 RETURN JUMPDEST PUSH2 0x7E PUSH1 0x4 DUP1 CALLDATASIZE SUB DUP2 ADD SWAP1 PUSH2 0x79 SWAP2 SWAP1 PUSH2 0x8D9 JUMP JUMPDEST PUSH2 0x12C JUMP JUMPDEST STOP JUMPDEST PUSH2 0x88 PUSH2 0x6D1 JUMP JUMPDEST PUSH1 0x40 MLOAD PUSH2 0x95 SWAP2 SWAP1 PUSH2 0x88D JUMP JUMPDEST PUSH1 0x40 MLOAD DUP1 SWAP2 SUB SWAP1 RETURN JUMPDEST PUSH1 0x1 DUP1 SLOAD PUSH2 0xAB SWAP1 PUSH2 0x935 JUMP JUMPDEST DUP1 PUSH1 0x1F ADD PUSH1 0x20 DUP1 SWAP2 DIV MUL PUSH1 0x20 ADD PUSH1 0x40 MLOAD SWAP1 DUP2 ADD PUSH1 0x40 MSTORE DUP1 SWAP3 SWAP2 SWAP1 DUP2 DUP2 MSTORE PUSH1 0x20 ADD DUP3 DUP1 SLOAD PUSH2 0xD7 SWAP1 PUSH2 0x935 JUMP JUMPDEST DUP1 ISZERO PUSH2 0x124 JUMPI DUP1 PUSH1 0x1F LT PUSH2 0xF9 JUMPI PUSH2 0x100 DUP1 DUP4 SLOAD DIV MUL DUP4 MSTORE SWAP2 PUSH1 0x20 ADD SWAP2 PUSH2 0x124 JUMP JUMPDEST DUP3 ADD SWAP2 SWAP1 PUSH1 0x0 MSTORE PUSH1 0x20 PUSH1 0x0 KECCAK256 SWAP1 JUMPDEST DUP2 SLOAD DUP2 MSTORE SWAP1 PUSH1 0x1 ADD SWAP1 PUSH1 0x20 ADD DUP1 DUP4 GT PUSH2 0x107 JUMPI DUP3 SWAP1 SUB PUSH1 0x1F AND DUP3 ADD SWAP2 JUMPDEST POP POP POP POP POP DUP2 JUMP JUMPDEST PUSH1 0x0 PUSH1 0x3 DUP2 GT ISZERO PUSH2 0x140 JUMPI PUSH2 0x13F PUSH2 0x966 JUMP JUMPDEST JUMPDEST DUP2 PUSH1 0x3 DUP2 GT ISZERO PUSH2 0x153 JUMPI PUSH2 0x152 PUSH2 0x966 JUMP JUMPDEST JUMPDEST SUB PUSH2 0x193 JUMPI PUSH1 0x40 MLOAD PUSH32 0x8C379A000000000000000000000000000000000000000000000000000000000 DUP2 MSTORE PUSH1 0x4 ADD PUSH2 0x18A SWAP1 PUSH2 0x9E1 JUMP JUMPDEST PUSH1 0x40 MLOAD DUP1 SWAP2 SUB SWAP1 REVERT JUMPDEST CALLER PUSH20 0xFFFFFFFFFFFFFFFFFFFFFFFFFFFFFFFFFFFFFFFF AND PUSH1 0x0 PUSH1 0x1 SWAP1 SLOAD SWAP1 PUSH2 0x100 EXP SWAP1 DIV PUSH20 0xFFFFFFFFFFFFFFFFFFFFFFFFFFFFFFFFFFFFFFFF AND PUSH20 0xFFFFFFFFFFFFFFFFFFFFFFFFFFFFFFFFFFFFFFFF AND SUB PUSH2 0x223 JUMPI PUSH1 0x40 MLOAD PUSH32 0x8C379A000000000000000000000000000000000000000000000000000000000 DUP2 MSTORE PUSH1 0x4 ADD PUSH2 0x21A SWAP1 PUSH2 0xA4D JUMP JUMPDEST PUSH1 0x40 MLOAD DUP1 SWAP2 SUB SWAP1 REVERT JUMPDEST PUSH1 0x0 PUSH1 0x3 DUP2 GT ISZERO PUSH2 0x237 JUMPI PUSH2 0x236 PUSH2 0x966 JUMP JUMPDEST JUMPDEST PUSH1 0x0 DUP1 SLOAD SWAP1 PUSH2 0x100 EXP SWAP1 DIV PUSH1 0xFF AND PUSH1 0x3 DUP2 GT ISZERO PUSH2 0x257 JUMPI PUSH2 0x256 PUSH2 0x966 JUMP JUMPDEST JUMPDEST SUB PUSH2 0x2F3 JUMPI CALLER PUSH1 0x0 PUSH1 0x1 PUSH2 0x100 EXP DUP2 SLOAD DUP2 PUSH20 0xFFFFFFFFFFFFFFFFFFFFFFFFFFFFFFFFFFFFFFFF MUL NOT AND SWAP1 DUP4 PUSH20 0xFFFFFFFFFFFFFFFFFFFFFFFFFFFFFFFFFFFFFFFF AND MUL OR SWAP1 SSTORE POP DUP1 PUSH1 0x0 DUP1 PUSH2 0x100 EXP DUP2 SLOAD DUP2 PUSH1 0xFF MUL NOT AND SWAP1 DUP4 PUSH1 0x3 DUP2 GT ISZERO PUSH2 0x2C1 JUMPI PUSH2 0x2C0 PUSH2 0x966 JUMP JUMPDEST JUMPDEST MUL OR SWAP1 SSTORE POP PUSH1 0x40 MLOAD DUP1 PUSH1 0x60 ADD PUSH1 0x40 MSTORE DUP1 PUSH1 0x30 DUP2 MSTORE PUSH1 0x20 ADD PUSH2 0xDDA PUSH1 0x30 SWAP2 CODECOPY PUSH1 0x1 SWAP1 DUP2 PUSH2 0x2ED SWAP2 SWAP1 PUSH2 0xC52 JUMP JUMPDEST POP PUSH2 0x6CE JUMP JUMPDEST PUSH1 0x1 PUSH1 0x3 DUP2 GT ISZERO PUSH2 0x307 JUMPI PUSH2 0x306 PUSH2 0x966 JUMP JUMPDEST JUMPDEST PUSH1 0x0 DUP1 SLOAD SWAP1 PUSH2 0x100 EXP SWAP1 DIV PUSH1 0xFF AND PUSH1 0x3 DUP2 GT ISZERO PUSH2 0x327 JUMPI PUSH2 0x326 PUSH2 0x966 JUMP JUMPDEST JUMPDEST EQ DUP1 ISZERO PUSH2 0x357 JUMPI POP PUSH1 0x3 DUP1 DUP2 GT ISZERO PUSH2 0x342 JUMPI PUSH2 0x341 PUSH2 0x966 JUMP JUMPDEST JUMPDEST DUP2 PUSH1 0x3 DUP2 GT ISZERO PUSH2 0x355 JUMPI PUSH2 0x354 PUSH2 0x966 JUMP JUMPDEST JUMPDEST EQ JUMPDEST ISZERO PUSH2 0x382 JUMPI PUSH2 0x37D PUSH1 0x40 MLOAD DUP1 PUSH1 0x60 ADD PUSH1 0x40 MSTORE DUP1 PUSH1 0x23 DUP2 MSTORE PUSH1 0x20 ADD PUSH2 0xE0A PUSH1 0x23 SWAP2 CODECOPY PUSH2 0x77F JUMP JUMPDEST PUSH2 0x6CD JUMP JUMPDEST PUSH1 0x2 PUSH1 0x3 DUP2 GT ISZERO PUSH2 0x396 JUMPI PUSH2 0x395 PUSH2 0x966 JUMP JUMPDEST JUMPDEST PUSH1 0x0 DUP1 SLOAD SWAP1 PUSH2 0x100 EXP SWAP1 DIV PUSH1 0xFF AND PUSH1 0x3 DUP2 GT ISZERO PUSH2 0x3B6 JUMPI PUSH2 0x3B5 PUSH2 0x966 JUMP JUMPDEST JUMPDEST EQ DUP1 ISZERO PUSH2 0x3E7 JUMPI POP PUSH1 0x1 PUSH1 0x3 DUP2 GT ISZERO PUSH2 0x3D2 JUMPI PUSH2 0x3D1 PUSH2 0x966 JUMP JUMPDEST JUMPDEST DUP2 PUSH1 0x3 DUP2 GT ISZERO PUSH2 0x3E5 JUMPI PUSH2 0x3E4 PUSH2 0x966 JUMP JUMPDEST JUMPDEST EQ JUMPDEST ISZERO PUSH2 0x42F JUMPI PUSH2 0x42A PUSH1 0x40 MLOAD DUP1 PUSH1 0x40 ADD PUSH1 0x40 MSTORE DUP1 PUSH1 0x1F DUP2 MSTORE PUSH1 0x20 ADD PUSH32 0x506170657220777261707320526F636B2E20506C61796572203120574F4E2100 DUP2 MSTORE POP PUSH2 0x77F JUMP JUMPDEST PUSH2 0x6CC JUMP JUMPDEST PUSH1 0x3 DUP1 DUP2 GT ISZERO PUSH2 0x442 JUMPI PUSH2 0x441 PUSH2 0x966 JUMP JUMPDEST JUMPDEST PUSH1 0x0 DUP1 SLOAD SWAP1 PUSH2 0x100 EXP SWAP1 DIV PUSH1 0xFF AND PUSH1 0x3 DUP2 GT ISZERO PUSH2 0x462 JUMPI PUSH2 0x461 PUSH2 0x966 JUMP JUMPDEST JUMPDEST EQ DUP1 ISZERO PUSH2 0x493 JUMPI POP PUSH1 0x2 PUSH1 0x3 DUP2 GT ISZERO PUSH2 0x47E JUMPI PUSH2 0x47D PUSH2 0x966 JUMP JUMPDEST JUMPDEST DUP2 PUSH1 0x3 DUP2 GT ISZERO PUSH2 0x491 JUMPI PUSH2 0x490 PUSH2 0x966 JUMP JUMPDEST JUMPDEST EQ JUMPDEST ISZERO PUSH2 0x4BE JUMPI PUSH2 0x4B9 PUSH1 0x40 MLOAD DUP1 PUSH1 0x60 ADD PUSH1 0x40 MSTORE DUP1 PUSH1 0x22 DUP2 MSTORE PUSH1 0x20 ADD PUSH2 0xE2D PUSH1 0x22 SWAP2 CODECOPY PUSH2 0x77F JUMP JUMPDEST PUSH2 0x6CB JUMP JUMPDEST PUSH1 0x3 DUP1 DUP2 GT ISZERO PUSH2 0x4D1 JUMPI PUSH2 0x4D0 PUSH2 0x966 JUMP JUMPDEST JUMPDEST PUSH1 0x0 DUP1 SLOAD SWAP1 PUSH2 0x100 EXP SWAP1 DIV PUSH1 0xFF AND PUSH1 0x3 DUP2 GT ISZERO PUSH2 0x4F1 JUMPI PUSH2 0x4F0 PUSH2 0x966 JUMP JUMPDEST JUMPDEST EQ DUP1 ISZERO PUSH2 0x522 JUMPI POP PUSH1 0x1 PUSH1 0x3 DUP2 GT ISZERO PUSH2 0x50D JUMPI PUSH2 0x50C PUSH2 0x966 JUMP JUMPDEST JUMPDEST DUP2 PUSH1 0x3 DUP2 GT ISZERO PUSH2 0x520 JUMPI PUSH2 0x51F PUSH2 0x966 JUMP JUMPDEST JUMPDEST EQ JUMPDEST ISZERO PUSH2 0x54D JUMPI PUSH2 0x548 PUSH1 0x40 MLOAD DUP1 PUSH1 0x60 ADD PUSH1 0x40 MSTORE DUP1 PUSH1 0x23 DUP2 MSTORE PUSH1 0x20 ADD PUSH2 0xDB7 PUSH1 0x23 SWAP2 CODECOPY PUSH2 0x77F JUMP JUMPDEST PUSH2 0x6CA JUMP JUMPDEST PUSH1 0x1 PUSH1 0x3 DUP2 GT ISZERO PUSH2 0x561 JUMPI PUSH2 0x560 PUSH2 0x966 JUMP JUMPDEST JUMPDEST PUSH1 0x0 DUP1 SLOAD SWAP1 PUSH2 0x100 EXP SWAP1 DIV PUSH1 0xFF AND PUSH1 0x3 DUP2 GT ISZERO PUSH2 0x581 JUMPI PUSH2 0x580 PUSH2 0x966 JUMP JUMPDEST JUMPDEST EQ DUP1 ISZERO PUSH2 0x5B2 JUMPI POP PUSH1 0x2 PUSH1 0x3 DUP2 GT ISZERO PUSH2 0x59D JUMPI PUSH2 0x59C PUSH2 0x966 JUMP JUMPDEST JUMPDEST DUP2 PUSH1 0x3 DUP2 GT ISZERO PUSH2 0x5B0 JUMPI PUSH2 0x5AF PUSH2 0x966 JUMP JUMPDEST JUMPDEST EQ JUMPDEST ISZERO PUSH2 0x5FA JUMPI PUSH2 0x5F5 PUSH1 0x40 MLOAD DUP1 PUSH1 0x40 ADD PUSH1 0x40 MSTORE DUP1 PUSH1 0x1F DUP2 MSTORE PUSH1 0x20 ADD PUSH32 0x506170657220777261707320526F636B2E20506C61796572203220574F4E2100 DUP2 MSTORE POP PUSH2 0x77F JUMP JUMPDEST PUSH2 0x6C9 JUMP JUMPDEST PUSH1 0x2 PUSH1 0x3 DUP2 GT ISZERO PUSH2 0x60E JUMPI PUSH2 0x60D PUSH2 0x966 JUMP JUMPDEST JUMPDEST PUSH1 0x0 DUP1 SLOAD SWAP1 PUSH2 0x100 EXP SWAP1 DIV PUSH1 0xFF AND PUSH1 0x3 DUP2 GT ISZERO PUSH2 0x62E JUMPI PUSH2 0x62D PUSH2 0x966 JUMP JUMPDEST JUMPDEST EQ DUP1 ISZERO PUSH2 0x65E JUMPI POP PUSH1 0x3 DUP1 DUP2 GT ISZERO PUSH2 0x649 JUMPI PUSH2 0x648 PUSH2 0x966 JUMP JUMPDEST JUMPDEST DUP2 PUSH1 0x3 DUP2 GT ISZERO PUSH2 0x65C JUMPI PUSH2 0x65B PUSH2 0x966 JUMP JUMPDEST JUMPDEST EQ JUMPDEST ISZERO PUSH2 0x689 JUMPI PUSH2 0x684 PUSH1 0x40 MLOAD DUP1 PUSH1 0x60 ADD PUSH1 0x40 MSTORE DUP1 PUSH1 0x22 DUP2 MSTORE PUSH1 0x20 ADD PUSH2 0xE4F PUSH1 0x22 SWAP2 CODECOPY PUSH2 0x77F JUMP JUMPDEST PUSH2 0x6C8 JUMP JUMPDEST PUSH2 0x6C7 PUSH1 0x40 MLOAD DUP1 PUSH1 0x40 ADD PUSH1 0x40 MSTORE DUP1 PUSH1 0xA DUP2 MSTORE PUSH1 0x20 ADD PUSH32 0x447261772067616D652100000000000000000000000000000000000000000000 DUP2 MSTORE POP PUSH2 0x77F JUMP JUMPDEST JUMPDEST JUMPDEST JUMPDEST JUMPDEST JUMPDEST JUMPDEST JUMPDEST POP JUMP JUMPDEST PUSH1 0x60 CALLER PUSH20 0xFFFFFFFFFFFFFFFFFFFFFFFFFFFFFFFFFFFFFFFF AND PUSH32 0x0 PUSH20 0xFFFFFFFFFFFFFFFFFFFFFFFFFFFFFFFFFFFFFFFF AND EQ PUSH2 0x761 JUMPI PUSH1 0x40 MLOAD PUSH32 0x8C379A000000000000000000000000000000000000000000000000000000000 DUP2 MSTORE PUSH1 0x4 ADD PUSH2 0x758 SWAP1 PUSH2 0xD96 JUMP JUMPDEST PUSH1 0x40 MLOAD DUP1 SWAP2 SUB SWAP1 REVERT JUMPDEST PUSH1 0x40 MLOAD DUP1 PUSH1 0x60 ADD PUSH1 0x40 MSTORE DUP1 PUSH1 0x22 DUP2 MSTORE PUSH1 0x20 ADD PUSH2 0xE71 PUSH1 0x22 SWAP2 CODECOPY SWAP1 POP SWAP1 JUMP JUMPDEST DUP1 PUSH1 0x1 SWAP1 DUP2 PUSH2 0x78E SWAP2 SWAP1 PUSH2 0xC52 JUMP JUMPDEST POP PUSH1 0x0 DUP1 PUSH1 0x1 PUSH2 0x100 EXP DUP2 SLOAD DUP2 PUSH20 0xFFFFFFFFFFFFFFFFFFFFFFFFFFFFFFFFFFFFFFFF MUL NOT AND SWAP1 DUP4 PUSH20 0xFFFFFFFFFFFFFFFFFFFFFFFFFFFFFFFFFFFFFFFF AND MUL OR SWAP1 SSTORE POP PUSH1 0x0 DUP1 PUSH1 0x0 PUSH2 0x100 EXP DUP2 SLOAD DUP2 PUSH1 0xFF MUL NOT AND SWAP1 DUP4 PUSH1 0x3 DUP2 GT ISZERO PUSH2 0x7F5 JUMPI PUSH2 0x7F4 PUSH2 0x966 JUMP JUMPDEST JUMPDEST MUL OR SWAP1 SSTORE POP POP JUMP JUMPDEST PUSH1 0x0 DUP2 MLOAD SWAP1 POP SWAP2 SWAP1 POP JUMP JUMPDEST PUSH1 0x0 DUP3 DUP3 MSTORE PUSH1 0x20 DUP3 ADD SWAP1 POP SWAP3 SWAP2 POP POP JUMP JUMPDEST PUSH1 0x0 JUMPDEST DUP4 DUP2 LT ISZERO PUSH2 0x837 JUMPI DUP1 DUP3 ADD MLOAD DUP2 DUP5 ADD MSTORE PUSH1 0x20 DUP2 ADD SWAP1 POP PUSH2 0x81C JUMP JUMPDEST PUSH1 0x0 DUP5 DUP5 ADD MSTORE POP POP POP POP JUMP JUMPDEST PUSH1 0x0 PUSH1 0x1F NOT PUSH1 0x1F DUP4 ADD AND SWAP1 POP SWAP2 SWAP1 POP JUMP JUMPDEST PUSH1 0x0 PUSH2 0x85F DUP3 PUSH2 0x7FD JUMP JUMPDEST PUSH2 0x869 DUP2 DUP6 PUSH2 0x808 JUMP JUMPDEST SWAP4 POP PUSH2 0x879 DUP2 DUP6 PUSH1 0x20 DUP7 ADD PUSH2 0x819 JUMP JUMPDEST PUSH2 0x882 DUP2 PUSH2 0x843 JUMP JUMPDEST DUP5 ADD SWAP2 POP POP SWAP3 SWAP2 POP POP JUMP JUMPDEST PUSH1 0x0 PUSH1 0x20 DUP3 ADD SWAP1 POP DUP2 DUP2 SUB PUSH1 0x0 DUP4 ADD MSTORE PUSH2 0x8A7 DUP2 DUP5 PUSH2 0x854 JUMP JUMPDEST SWAP1 POP SWAP3 SWAP2 POP POP JUMP JUMPDEST PUSH1 0x0 DUP1 REVERT JUMPDEST PUSH1 0x4 DUP2 LT PUSH2 0x8C1 JUMPI PUSH1 0x0 DUP1 REVERT JUMPDEST POP JUMP JUMPDEST PUSH1 0x0 DUP2 CALLDATALOAD SWAP1 POP PUSH2 0x8D3 DUP2 PUSH2 0x8B4 JUMP JUMPDEST SWAP3 SWAP2 POP POP JUMP JUMPDEST PUSH1 0x0 PUSH1 0x20 DUP3 DUP5 SUB SLT ISZERO PUSH2 0x8EF JUMPI PUSH2 0x8EE PUSH2 0x8AF JUMP JUMPDEST JUMPDEST PUSH1 0x0 PUSH2 0x8FD DUP5 DUP3 DUP6 ADD PUSH2 0x8C4 JUMP JUMPDEST SWAP2 POP POP SWAP3 SWAP2 POP POP JUMP JUMPDEST PUSH32 0x4E487B7100000000000000000000000000000000000000000000000000000000 PUSH1 0x0 MSTORE PUSH1 0x22 PUSH1 0x4 MSTORE PUSH1 0x24 PUSH1 0x0 REVERT JUMPDEST PUSH1 0x0 PUSH1 0x2 DUP3 DIV SWAP1 POP PUSH1 0x1 DUP3 AND DUP1 PUSH2 0x94D JUMPI PUSH1 0x7F DUP3 AND SWAP2 POP JUMPDEST PUSH1 0x20 DUP3 LT DUP2 SUB PUSH2 0x960 JUMPI PUSH2 0x95F PUSH2 0x906 JUMP JUMPDEST JUMPDEST POP SWAP2 SWAP1 POP JUMP JUMPDEST PUSH32 0x4E487B7100000000000000000000000000000000000000000000000000000000 PUSH1 0x0 MSTORE PUSH1 0x21 PUSH1 0x4 MSTORE PUSH1 0x24 PUSH1 0x0 REVERT JUMPDEST PUSH32 0x496E76616C69642063686F696365210000000000000000000000000000000000 PUSH1 0x0 DUP3 ADD MSTORE POP JUMP JUMPDEST PUSH1 0x0 PUSH2 0x9CB PUSH1 0xF DUP4 PUSH2 0x808 JUMP JUMPDEST SWAP2 POP PUSH2 0x9D6 DUP3 PUSH2 0x995 JUMP JUMPDEST PUSH1 0x20 DUP3 ADD SWAP1 POP SWAP2 SWAP1 POP JUMP JUMPDEST PUSH1 0x0 PUSH1 0x20 DUP3 ADD SWAP1 POP DUP2 DUP2 SUB PUSH1 0x0 DUP4 ADD MSTORE PUSH2 0x9FA DUP2 PUSH2 0x9BE JUMP JUMPDEST SWAP1 POP SWAP2 SWAP1 POP JUMP JUMPDEST PUSH32 0x417761697420616E6F7468657220706C617965722E0000000000000000000000 PUSH1 0x0 DUP3 ADD MSTORE POP JUMP JUMPDEST PUSH1 0x0 PUSH2 0xA37 PUSH1 0x15 DUP4 PUSH2 0x808 JUMP JUMPDEST SWAP2 POP PUSH2 0xA42 DUP3 PUSH2 0xA01 JUMP JUMPDEST PUSH1 0x20 DUP3 ADD SWAP1 POP SWAP2 SWAP1 POP JUMP JUMPDEST PUSH1 0x0 PUSH1 0x20 DUP3 ADD SWAP1 POP DUP2 DUP2 SUB PUSH1 0x0 DUP4 ADD MSTORE PUSH2 0xA66 DUP2 PUSH2 0xA2A JUMP JUMPDEST SWAP1 POP SWAP2 SWAP1 POP JUMP JUMPDEST PUSH32 0x4E487B7100000000000000000000000000000000000000000000000000000000 PUSH1 0x0 MSTORE PUSH1 0x41 PUSH1 0x4 MSTORE PUSH1 0x24 PUSH1 0x0 REVERT JUMPDEST PUSH1 0x0 DUP2 SWAP1 POP DUP2 PUSH1 0x0 MSTORE PUSH1 0x20 PUSH1 0x0 KECCAK256 SWAP1 POP SWAP2 SWAP1 POP JUMP JUMPDEST PUSH1 0x0 PUSH1 0x20 PUSH1 0x1F DUP4 ADD DIV SWAP1 POP SWAP2 SWAP1 POP JUMP JUMPDEST PUSH1 0x0 DUP3 DUP3 SHL SWAP1 POP SWAP3 SWAP2 POP POP JUMP JUMPDEST PUSH1 0x0 PUSH1 0x8 DUP4 MUL PUSH2 0xAFE PUSH32 0xFFFFFFFFFFFFFFFFFFFFFFFFFFFFFFFFFFFFFFFFFFFFFFFFFFFFFFFFFFFFFFFF DUP3 PUSH2 0xAC1 JUMP JUMPDEST PUSH2 0xB08 DUP7 DUP4 PUSH2 0xAC1 JUMP JUMPDEST SWAP6 POP DUP1 NOT DUP5 AND SWAP4 POP DUP1 DUP7 AND DUP5 OR SWAP3 POP POP POP SWAP4 SWAP3 POP POP POP JUMP JUMPDEST PUSH1 0x0 DUP2 SWAP1 POP SWAP2 SWAP1 POP JUMP JUMPDEST PUSH1 0x0 DUP2 SWAP1 POP SWAP2 SWAP1 POP JUMP JUMPDEST PUSH1 0x0 PUSH2 0xB4F PUSH2 0xB4A PUSH2 0xB45 DUP5 PUSH2 0xB20 JUMP JUMPDEST PUSH2 0xB2A JUMP JUMPDEST PUSH2 0xB20 JUMP JUMPDEST SWAP1 POP SWAP2 SWAP1 POP JUMP JUMPDEST PUSH1 0x0 DUP2 SWAP1 POP SWAP2 SWAP1 POP JUMP JUMPDEST PUSH2 0xB69 DUP4 PUSH2 0xB34 JUMP JUMPDEST PUSH2 0xB7D PUSH2 0xB75 DUP3 PUSH2 0xB56 JUMP JUMPDEST DUP5 DUP5 SLOAD PUSH2 0xACE JUMP JUMPDEST DUP3 SSTORE POP POP POP POP JUMP JUMPDEST PUSH1 0x0 SWAP1 JUMP JUMPDEST PUSH2 0xB92 PUSH2 0xB85 JUMP JUMPDEST PUSH2 0xB9D DUP2 DUP5 DUP5 PUSH2 0xB60 JUMP JUMPDEST POP POP POP JUMP JUMPDEST JUMPDEST DUP2 DUP2 LT ISZERO PUSH2 0xBC1 JUMPI PUSH2 0xBB6 PUSH1 0x0 DUP3 PUSH2 0xB8A JUMP JUMPDEST PUSH1 0x1 DUP2 ADD SWAP1 POP PUSH2 0xBA3 JUMP JUMPDEST POP POP JUMP JUMPDEST PUSH1 0x1F DUP3 GT ISZERO PUSH2 0xC06 JUMPI PUSH2 0xBD7 DUP2 PUSH2 0xA9C JUMP JUMPDEST PUSH2 0xBE0 DUP5 PUSH2 0xAB1 JUMP JUMPDEST DUP2 ADD PUSH1 0x20 DUP6 LT ISZERO PUSH2 0xBEF JUMPI DUP2 SWAP1 POP JUMPDEST PUSH2 0xC03 PUSH2 0xBFB DUP6 PUSH2 0xAB1 JUMP JUMPDEST DUP4 ADD DUP3 PUSH2 0xBA2 JUMP JUMPDEST POP POP JUMPDEST POP POP POP JUMP JUMPDEST PUSH1 0x0 DUP3 DUP3 SHR SWAP1 POP SWAP3 SWAP2 POP POP JUMP JUMPDEST PUSH1 0x0 PUSH2 0xC29 PUSH1 0x0 NOT DUP5 PUSH1 0x8 MUL PUSH2 0xC0B JUMP JUMPDEST NOT DUP1 DUP4 AND SWAP2 POP POP SWAP3 SWAP2 POP POP JUMP JUMPDEST PUSH1 0x0 PUSH2 0xC42 DUP4 DUP4 PUSH2 0xC18 JUMP JUMPDEST SWAP2 POP DUP3 PUSH1 0x2 MUL DUP3 OR SWAP1 POP SWAP3 SWAP2 POP POP JUMP JUMPDEST PUSH2 0xC5B DUP3 PUSH2 0x7FD JUMP JUMPDEST PUSH8 0xFFFFFFFFFFFFFFFF DUP2 GT ISZERO PUSH2 0xC74 JUMPI PUSH2 0xC73 PUSH2 0xA6D JUMP JUMPDEST JUMPDEST PUSH2 0xC7E DUP3 SLOAD PUSH2 0x935 JUMP JUMPDEST PUSH2 0xC89 DUP3 DUP3 DUP6 PUSH2 0xBC5 JUMP JUMPDEST PUSH1 0x0 PUSH1 0x20 SWAP1 POP PUSH1 0x1F DUP4 GT PUSH1 0x1 DUP2 EQ PUSH2 0xCBC JUMPI PUSH1 0x0 DUP5 ISZERO PUSH2 0xCAA JUMPI DUP3 DUP8 ADD MLOAD SWAP1 POP JUMPDEST PUSH2 0xCB4 DUP6 DUP3 PUSH2 0xC36 JUMP JUMPDEST DUP7 SSTORE POP PUSH2 0xD1C JUMP JUMPDEST PUSH1 0x1F NOT DUP5 AND PUSH2 0xCCA DUP7 PUSH2 0xA9C JUMP JUMPDEST PUSH1 0x0 JUMPDEST DUP3 DUP2 LT ISZERO PUSH2 0xCF2 JUMPI DUP5 DUP10 ADD MLOAD DUP3 SSTORE PUSH1 0x1 DUP3 ADD SWAP2 POP PUSH1 0x20 DUP6 ADD SWAP5 POP PUSH1 0x20 DUP2 ADD SWAP1 POP PUSH2 0xCCD JUMP JUMPDEST DUP7 DUP4 LT ISZERO PUSH2 0xD0F JUMPI DUP5 DUP10 ADD MLOAD PUSH2 0xD0B PUSH1 0x1F DUP10 AND DUP3 PUSH2 0xC18 JUMP JUMPDEST DUP4 SSTORE POP JUMPDEST PUSH1 0x1 PUSH1 0x2 DUP9 MUL ADD DUP9 SSTORE POP POP POP JUMPDEST POP POP POP POP POP POP JUMP JUMPDEST PUSH32 0x596F7520646F6E27742068617665207065726D697373696F6E7320746F206163 PUSH1 0x0 DUP3 ADD MSTORE PUSH32 0x6365737320746869732E00000000000000000000000000000000000000000000 PUSH1 0x20 DUP3 ADD MSTORE POP JUMP JUMPDEST PUSH1 0x0 PUSH2 0xD80 PUSH1 0x2A DUP4 PUSH2 0x808 JUMP JUMPDEST SWAP2 POP PUSH2 0xD8B DUP3 PUSH2 0xD24 JUMP JUMPDEST PUSH1 0x40 DUP3 ADD SWAP1 POP SWAP2 SWAP1 POP JUMP JUMPDEST PUSH1 0x0 PUSH1 0x20 DUP3 ADD SWAP1 POP DUP2 DUP2 SUB PUSH1 0x0 DUP4 ADD MSTORE PUSH2 0xDAF DUP2 PUSH2 0xD73 JUMP JUMPDEST SWAP1 POP SWAP2 SWAP1 POP JUMP INVALID MSTORE PUSH16 0x636B20627265616B732053636973736F PUSH19 0x732E20506C61796572203220574F4E21506C61 PUSH26 0x657220312063686F736520686973206F7074696F6E2E20576169 PUSH21 0x696E6720666F7220706C6179657220322E526F636B KECCAK256 PUSH3 0x726561 PUSH12 0x732053636973736F72732E20 POP PUSH13 0x61796572203120574F4E215363 PUSH10 0x73736F72732063757473 KECCAK256 POP PUSH2 0x7065 PUSH19 0x2E20506C61796572203120574F4E2153636973 PUSH20 0x6F727320637574732050617065722E20506C6179 PUSH6 0x72203220574F 0x4E 0x21 BASEFEE PUSH6 0x6C6C6F2E2E2E KECCAK256 PUSH7 0x726F6D20746865 KECCAK256 PUSH20 0x65637265742066756E6374696F6E21A264697066 PUSH20 0x582212200329D848CA9C233ABD983DF677104F79 SIGNEXTEND DUP9 0xD3 LOG4 GASLIMIT SWAP1 0xE3 PUSH3 0x9DD9C8 0xC1 SWAP15 REVERT 0xC1 0x29 PUSH5 0x736F6C6343 STOP ADDMOD SLT STOP CALLER "
				},
				"gasEstimates": {
					"creation": {
						"codeDepositCost": "756800",
						"executionCost": "infinite",
						"totalCost": "infinite"
					},
					"external": {
						"play(uint8)": "infinite",
						"secretFunction()": "infinite",
						"status()": "infinite"
					},
					"internal": {
						"setStatus(string memory)": "infinite"
					}
				},
				"methodIdentifiers": {
					"play(uint8)": "53a04b05",
					"secretFunction()": "e6df22ee",
					"status()": "200d2ed2"
				}
			},
			"storageLayout": {
				"storage": [
					{
						"astId": 11,
						"contract": "Contracts/JoKenPo.sol:JoKenPo",
						"label": "choice1",
						"offset": 0,
						"slot": "0",
						"type": "t_enum(Options)6"
					},
					{
						"astId": 15,
						"contract": "Contracts/JoKenPo.sol:JoKenPo",
						"label": "player1",
						"offset": 1,
						"slot": "0",
						"type": "t_address"
					},
					{
						"astId": 18,
						"contract": "Contracts/JoKenPo.sol:JoKenPo",
						"label": "status",
						"offset": 0,
						"slot": "1",
						"type": "t_string_storage"
					}
				],
				"types": {
					"t_address": {
						"encoding": "inplace",
						"label": "address",
						"numberOfBytes": "20"
					},
					"t_enum(Options)6": {
						"encoding": "inplace",
						"label": "enum JoKenPo.Options",
						"numberOfBytes": "1"
					},
					"t_string_storage": {
						"encoding": "bytes",
						"label": "string",
						"numberOfBytes": "32"
					}
				}
			},
			"userdoc": {
				"kind": "user",
				"methods": {
					"constructor": {
						"notice": "Contract constructor"
					},
					"play(uint8)": {
						"notice": "The game param newChoice = 0, 1, 2 or 3 "
					},
					"secretFunction()": {
						"notice": "Sample, only contract owner access"
					}
				},
				"version": 1
			}
		}
	}
}