{
	"Contracts/Functions.sol": {
		"Functions": {
			"abi": [
				{
					"inputs": [],
					"name": "getAge",
					"outputs": [
						{
							"internalType": "int8",
							"name": "",
							"type": "int8"
						}
					],
					"stateMutability": "view",
					"type": "function"
				},
				{
					"inputs": [
						{
							"internalType": "int8",
							"name": "newAge",
							"type": "int8"
						}
					],
					"name": "setAge",
					"outputs": [],
					"stateMutability": "nonpayable",
					"type": "function"
				}
			],
			"devdoc": {
				"kind": "dev",
				"methods": {},
				"version": 1
			},
			"evm": {
				"assembly": "    /* \"Contracts/Functions.sol\":62:963  contract Functions{... */\n  mstore(0x40, 0x80)\n    /* \"Contracts/Functions.sol\":109:111  48 */\n  0x30\n    /* \"Contracts/Functions.sol\":89:111  int8 private _age = 48 */\n  0x00\n  dup1\n  0x0100\n  exp\n  dup2\n  sload\n  dup2\n  0xff\n  mul\n  not\n  and\n  swap1\n  dup4\n  0x00\n  signextend\n  0xff\n  and\n  mul\n  or\n  swap1\n  sstore\n  pop\n    /* \"Contracts/Functions.sol\":62:963  contract Functions{... */\n  callvalue\n  dup1\n  iszero\n  tag_1\n  jumpi\n  0x00\n  dup1\n  revert\ntag_1:\n  pop\n  dataSize(sub_0)\n  dup1\n  dataOffset(sub_0)\n  0x00\n  codecopy\n  0x00\n  return\nstop\n\nsub_0: assembly {\n        /* \"Contracts/Functions.sol\":62:963  contract Functions{... */\n      mstore(0x40, 0x80)\n      callvalue\n      dup1\n      iszero\n      tag_1\n      jumpi\n      0x00\n      dup1\n      revert\n    tag_1:\n      pop\n      jumpi(tag_2, lt(calldatasize, 0x04))\n      shr(0xe0, calldataload(0x00))\n      dup1\n      0x967e6e65\n      eq\n      tag_3\n      jumpi\n      dup1\n      0xb4a47410\n      eq\n      tag_4\n      jumpi\n    tag_2:\n      0x00\n      dup1\n      revert\n        /* \"Contracts/Functions.sol\":256:330  function getAge() public view returns(int8) {... */\n    tag_3:\n      tag_5\n      tag_6\n      jump\t// in\n    tag_5:\n      mload(0x40)\n      tag_7\n      swap2\n      swap1\n      tag_8\n      jump\t// in\n    tag_7:\n      mload(0x40)\n      dup1\n      swap2\n      sub\n      swap1\n      return\n        /* \"Contracts/Functions.sol\":618:686  function setAge(int8 newAge) public {... */\n    tag_4:\n      tag_9\n      0x04\n      dup1\n      calldatasize\n      sub\n      dup2\n      add\n      swap1\n      tag_10\n      swap2\n      swap1\n      tag_11\n      jump\t// in\n    tag_10:\n      tag_12\n      jump\t// in\n    tag_9:\n      stop\n        /* \"Contracts/Functions.sol\":256:330  function getAge() public view returns(int8) {... */\n    tag_6:\n        /* \"Contracts/Functions.sol\":294:298  int8 */\n      0x00\n        /* \"Contracts/Functions.sol\":318:322  _age */\n      dup1\n      0x00\n      swap1\n      sload\n      swap1\n      0x0100\n      exp\n      swap1\n      div\n      0x00\n      signextend\n        /* \"Contracts/Functions.sol\":311:322  return _age */\n      swap1\n      pop\n        /* \"Contracts/Functions.sol\":256:330  function getAge() public view returns(int8) {... */\n      swap1\n      jump\t// out\n        /* \"Contracts/Functions.sol\":618:686  function setAge(int8 newAge) public {... */\n    tag_12:\n        /* \"Contracts/Functions.sol\":672:678  newAge */\n      dup1\n        /* \"Contracts/Functions.sol\":665:669  _age */\n      0x00\n      dup1\n        /* \"Contracts/Functions.sol\":665:678  _age = newAge */\n      0x0100\n      exp\n      dup2\n      sload\n      dup2\n      0xff\n      mul\n      not\n      and\n      swap1\n      dup4\n      0x00\n      signextend\n      0xff\n      and\n      mul\n      or\n      swap1\n      sstore\n      pop\n        /* \"Contracts/Functions.sol\":618:686  function setAge(int8 newAge) public {... */\n      pop\n      jump\t// out\n        /* \"#utility.yul\":7:96   */\n    tag_15:\n        /* \"#utility.yul\":41:48   */\n      0x00\n        /* \"#utility.yul\":84:89   */\n      dup2\n        /* \"#utility.yul\":81:82   */\n      0x00\n        /* \"#utility.yul\":70:90   */\n      signextend\n        /* \"#utility.yul\":59:90   */\n      swap1\n      pop\n        /* \"#utility.yul\":7:96   */\n      swap2\n      swap1\n      pop\n      jump\t// out\n        /* \"#utility.yul\":102:211   */\n    tag_16:\n        /* \"#utility.yul\":183:204   */\n      tag_25\n        /* \"#utility.yul\":198:203   */\n      dup2\n        /* \"#utility.yul\":183:204   */\n      tag_15\n      jump\t// in\n    tag_25:\n        /* \"#utility.yul\":178:181   */\n      dup3\n        /* \"#utility.yul\":171:205   */\n      mstore\n        /* \"#utility.yul\":102:211   */\n      pop\n      pop\n      jump\t// out\n        /* \"#utility.yul\":217:427   */\n    tag_8:\n        /* \"#utility.yul\":304:308   */\n      0x00\n        /* \"#utility.yul\":342:344   */\n      0x20\n        /* \"#utility.yul\":331:340   */\n      dup3\n        /* \"#utility.yul\":327:345   */\n      add\n        /* \"#utility.yul\":319:345   */\n      swap1\n      pop\n        /* \"#utility.yul\":355:420   */\n      tag_27\n        /* \"#utility.yul\":417:418   */\n      0x00\n        /* \"#utility.yul\":406:415   */\n      dup4\n        /* \"#utility.yul\":402:419   */\n      add\n        /* \"#utility.yul\":393:399   */\n      dup5\n        /* \"#utility.yul\":355:420   */\n      tag_16\n      jump\t// in\n    tag_27:\n        /* \"#utility.yul\":217:427   */\n      swap3\n      swap2\n      pop\n      pop\n      jump\t// out\n        /* \"#utility.yul\":514:631   */\n    tag_18:\n        /* \"#utility.yul\":623:624   */\n      0x00\n        /* \"#utility.yul\":620:621   */\n      dup1\n        /* \"#utility.yul\":613:625   */\n      revert\n        /* \"#utility.yul\":760:876   */\n    tag_20:\n        /* \"#utility.yul\":830:851   */\n      tag_32\n        /* \"#utility.yul\":845:850   */\n      dup2\n        /* \"#utility.yul\":830:851   */\n      tag_15\n      jump\t// in\n    tag_32:\n        /* \"#utility.yul\":823:828   */\n      dup2\n        /* \"#utility.yul\":820:852   */\n      eq\n        /* \"#utility.yul\":810:870   */\n      tag_33\n      jumpi\n        /* \"#utility.yul\":866:867   */\n      0x00\n        /* \"#utility.yul\":863:864   */\n      dup1\n        /* \"#utility.yul\":856:868   */\n      revert\n        /* \"#utility.yul\":810:870   */\n    tag_33:\n        /* \"#utility.yul\":760:876   */\n      pop\n      jump\t// out\n        /* \"#utility.yul\":882:1015   */\n    tag_21:\n        /* \"#utility.yul\":925:930   */\n      0x00\n        /* \"#utility.yul\":963:969   */\n      dup2\n        /* \"#utility.yul\":950:970   */\n      calldataload\n        /* \"#utility.yul\":941:970   */\n      swap1\n      pop\n        /* \"#utility.yul\":979:1009   */\n      tag_35\n        /* \"#utility.yul\":1003:1008   */\n      dup2\n        /* \"#utility.yul\":979:1009   */\n      tag_20\n      jump\t// in\n    tag_35:\n        /* \"#utility.yul\":882:1015   */\n      swap3\n      swap2\n      pop\n      pop\n      jump\t// out\n        /* \"#utility.yul\":1021:1344   */\n    tag_11:\n        /* \"#utility.yul\":1077:1083   */\n      0x00\n        /* \"#utility.yul\":1126:1128   */\n      0x20\n        /* \"#utility.yul\":1114:1123   */\n      dup3\n        /* \"#utility.yul\":1105:1112   */\n      dup5\n        /* \"#utility.yul\":1101:1124   */\n      sub\n        /* \"#utility.yul\":1097:1129   */\n      slt\n        /* \"#utility.yul\":1094:1213   */\n      iszero\n      tag_37\n      jumpi\n        /* \"#utility.yul\":1132:1211   */\n      tag_38\n      tag_18\n      jump\t// in\n    tag_38:\n        /* \"#utility.yul\":1094:1213   */\n    tag_37:\n        /* \"#utility.yul\":1252:1253   */\n      0x00\n        /* \"#utility.yul\":1277:1327   */\n      tag_39\n        /* \"#utility.yul\":1319:1326   */\n      dup5\n        /* \"#utility.yul\":1310:1316   */\n      dup3\n        /* \"#utility.yul\":1299:1308   */\n      dup6\n        /* \"#utility.yul\":1295:1317   */\n      add\n        /* \"#utility.yul\":1277:1327   */\n      tag_21\n      jump\t// in\n    tag_39:\n        /* \"#utility.yul\":1267:1327   */\n      swap2\n      pop\n        /* \"#utility.yul\":1223:1337   */\n      pop\n        /* \"#utility.yul\":1021:1344   */\n      swap3\n      swap2\n      pop\n      pop\n      jump\t// out\n\n    auxdata: 0xa26469706673582212209e4ce9420e3647b695371454d87b29aab02be77945b8cc070906f7a933c78d8764736f6c63430008120033\n}\n",
				"bytecode": {
					"linkReferences": {},
					"object": "608060405260306000806101000a81548160ff021916908360000b60ff16021790555034801561002e57600080fd5b506101768061003e6000396000f3fe608060405234801561001057600080fd5b50600436106100365760003560e01c8063967e6e651461003b578063b4a4741014610059575b600080fd5b610043610075565b60405161005091906100c7565b60405180910390f35b610073600480360381019061006e9190610113565b61008b565b005b60008060009054906101000a900460000b905090565b806000806101000a81548160ff021916908360000b60ff16021790555050565b60008160000b9050919050565b6100c1816100ab565b82525050565b60006020820190506100dc60008301846100b8565b92915050565b600080fd5b6100f0816100ab565b81146100fb57600080fd5b50565b60008135905061010d816100e7565b92915050565b600060208284031215610129576101286100e2565b5b6000610137848285016100fe565b9150509291505056fea26469706673582212209e4ce9420e3647b695371454d87b29aab02be77945b8cc070906f7a933c78d8764736f6c63430008120033",
					"opcodes": "PUSH1 0x80 PUSH1 0x40 MSTORE PUSH1 0x30 PUSH1 0x0 DUP1 PUSH2 0x100 EXP DUP2 SLOAD DUP2 PUSH1 0xFF MUL NOT AND SWAP1 DUP4 PUSH1 0x0 SIGNEXTEND PUSH1 0xFF AND MUL OR SWAP1 SSTORE POP CALLVALUE DUP1 ISZERO PUSH2 0x2E JUMPI PUSH1 0x0 DUP1 REVERT JUMPDEST POP PUSH2 0x176 DUP1 PUSH2 0x3E PUSH1 0x0 CODECOPY PUSH1 0x0 RETURN INVALID PUSH1 0x80 PUSH1 0x40 MSTORE CALLVALUE DUP1 ISZERO PUSH2 0x10 JUMPI PUSH1 0x0 DUP1 REVERT JUMPDEST POP PUSH1 0x4 CALLDATASIZE LT PUSH2 0x36 JUMPI PUSH1 0x0 CALLDATALOAD PUSH1 0xE0 SHR DUP1 PUSH4 0x967E6E65 EQ PUSH2 0x3B JUMPI DUP1 PUSH4 0xB4A47410 EQ PUSH2 0x59 JUMPI JUMPDEST PUSH1 0x0 DUP1 REVERT JUMPDEST PUSH2 0x43 PUSH2 0x75 JUMP JUMPDEST PUSH1 0x40 MLOAD PUSH2 0x50 SWAP2 SWAP1 PUSH2 0xC7 JUMP JUMPDEST PUSH1 0x40 MLOAD DUP1 SWAP2 SUB SWAP1 RETURN JUMPDEST PUSH2 0x73 PUSH1 0x4 DUP1 CALLDATASIZE SUB DUP2 ADD SWAP1 PUSH2 0x6E SWAP2 SWAP1 PUSH2 0x113 JUMP JUMPDEST PUSH2 0x8B JUMP JUMPDEST STOP JUMPDEST PUSH1 0x0 DUP1 PUSH1 0x0 SWAP1 SLOAD SWAP1 PUSH2 0x100 EXP SWAP1 DIV PUSH1 0x0 SIGNEXTEND SWAP1 POP SWAP1 JUMP JUMPDEST DUP1 PUSH1 0x0 DUP1 PUSH2 0x100 EXP DUP2 SLOAD DUP2 PUSH1 0xFF MUL NOT AND SWAP1 DUP4 PUSH1 0x0 SIGNEXTEND PUSH1 0xFF AND MUL OR SWAP1 SSTORE POP POP JUMP JUMPDEST PUSH1 0x0 DUP2 PUSH1 0x0 SIGNEXTEND SWAP1 POP SWAP2 SWAP1 POP JUMP JUMPDEST PUSH2 0xC1 DUP2 PUSH2 0xAB JUMP JUMPDEST DUP3 MSTORE POP POP JUMP JUMPDEST PUSH1 0x0 PUSH1 0x20 DUP3 ADD SWAP1 POP PUSH2 0xDC PUSH1 0x0 DUP4 ADD DUP5 PUSH2 0xB8 JUMP JUMPDEST SWAP3 SWAP2 POP POP JUMP JUMPDEST PUSH1 0x0 DUP1 REVERT JUMPDEST PUSH2 0xF0 DUP2 PUSH2 0xAB JUMP JUMPDEST DUP2 EQ PUSH2 0xFB JUMPI PUSH1 0x0 DUP1 REVERT JUMPDEST POP JUMP JUMPDEST PUSH1 0x0 DUP2 CALLDATALOAD SWAP1 POP PUSH2 0x10D DUP2 PUSH2 0xE7 JUMP JUMPDEST SWAP3 SWAP2 POP POP JUMP JUMPDEST PUSH1 0x0 PUSH1 0x20 DUP3 DUP5 SUB SLT ISZERO PUSH2 0x129 JUMPI PUSH2 0x128 PUSH2 0xE2 JUMP JUMPDEST JUMPDEST PUSH1 0x0 PUSH2 0x137 DUP5 DUP3 DUP6 ADD PUSH2 0xFE JUMP JUMPDEST SWAP2 POP POP SWAP3 SWAP2 POP POP JUMP INVALID LOG2 PUSH5 0x6970667358 0x22 SLT KECCAK256 SWAP15 0x4C 0xE9 TIMESTAMP 0xE CALLDATASIZE SELFBALANCE 0xB6 SWAP6 CALLDATACOPY EQ SLOAD 0xD8 PUSH28 0x29AAB02BE77945B8CC070906F7A933C78D8764736F6C634300081200 CALLER "
				},
				"gasEstimates": {
					"creation": {
						"codeDepositCost": "74800",
						"executionCost": "24398",
						"totalCost": "99198"
					},
					"external": {
						"getAge()": "2461",
						"setAge(int8)": "24689"
					}
				},
				"methodIdentifiers": {
					"getAge()": "967e6e65",
					"setAge(int8)": "b4a47410"
				}
			},
			"storageLayout": {
				"storage": [
					{
						"astId": 4,
						"contract": "Contracts/Functions.sol:Functions",
						"label": "_age",
						"offset": 0,
						"slot": "0",
						"type": "t_int8"
					}
				],
				"types": {
					"t_int8": {
						"encoding": "inplace",
						"label": "int8",
						"numberOfBytes": "1"
					}
				}
			},
			"userdoc": {
				"kind": "user",
				"methods": {},
				"version": 1
			}
		}
	}
}