{
	"Contracts/PickEvenOrOdd.sol": {
		"PickEvenOrOdd": {
			"abi": [
				{
					"inputs": [],
					"name": "choice",
					"outputs": [
						{
							"internalType": "string",
							"name": "",
							"type": "string"
						}
					],
					"stateMutability": "view",
					"type": "function"
				},
				{
					"inputs": [
						{
							"internalType": "string",
							"name": "newChoice",
							"type": "string"
						}
					],
					"name": "choose",
					"outputs": [],
					"stateMutability": "nonpayable",
					"type": "function"
				},
				{
					"inputs": [
						{
							"internalType": "uint8",
							"name": "number",
							"type": "uint8"
						}
					],
					"name": "play",
					"outputs": [
						{
							"internalType": "string",
							"name": "",
							"type": "string"
						}
					],
					"stateMutability": "view",
					"type": "function"
				}
			],
			"devdoc": {
				"kind": "dev",
				"methods": {},
				"version": 1
			},
			"evm": {
				"assembly": "    /* \"Contracts/PickEvenOrOdd.sol\":62:2003  contract PickEvenOrOdd{... */\n  mstore(0x40, 0x80)\n    /* \"Contracts/PickEvenOrOdd.sol\":93:119  string public  choice = \"\" */\n  mload(0x40)\n  dup1\n  0x20\n  add\n  0x40\n  mstore\n  dup1\n  0x00\n  dup2\n  mstore\n  pop\n  0x00\n  swap1\n  dup2\n  tag_1\n  swap2\n  swap1\n  tag_2\n  jump\t// in\ntag_1:\n  pop\n    /* \"Contracts/PickEvenOrOdd.sol\":62:2003  contract PickEvenOrOdd{... */\n  callvalue\n  dup1\n  iszero\n  tag_3\n  jumpi\n  0x00\n  dup1\n  revert\ntag_3:\n  pop\n  jump(tag_4)\n    /* \"#utility.yul\":7:106   */\ntag_5:\n    /* \"#utility.yul\":59:65   */\n  0x00\n    /* \"#utility.yul\":93:98   */\n  dup2\n    /* \"#utility.yul\":87:99   */\n  mload\n    /* \"#utility.yul\":77:99   */\n  swap1\n  pop\n    /* \"#utility.yul\":7:106   */\n  swap2\n  swap1\n  pop\n  jump\t// out\n    /* \"#utility.yul\":112:292   */\ntag_6:\n    /* \"#utility.yul\":160:237   */\n  0x4e487b7100000000000000000000000000000000000000000000000000000000\n    /* \"#utility.yul\":157:158   */\n  0x00\n    /* \"#utility.yul\":150:238   */\n  mstore\n    /* \"#utility.yul\":257:261   */\n  0x41\n    /* \"#utility.yul\":254:255   */\n  0x04\n    /* \"#utility.yul\":247:262   */\n  mstore\n    /* \"#utility.yul\":281:285   */\n  0x24\n    /* \"#utility.yul\":278:279   */\n  0x00\n    /* \"#utility.yul\":271:286   */\n  revert\n    /* \"#utility.yul\":298:478   */\ntag_7:\n    /* \"#utility.yul\":346:423   */\n  0x4e487b7100000000000000000000000000000000000000000000000000000000\n    /* \"#utility.yul\":343:344   */\n  0x00\n    /* \"#utility.yul\":336:424   */\n  mstore\n    /* \"#utility.yul\":443:447   */\n  0x22\n    /* \"#utility.yul\":440:441   */\n  0x04\n    /* \"#utility.yul\":433:448   */\n  mstore\n    /* \"#utility.yul\":467:471   */\n  0x24\n    /* \"#utility.yul\":464:465   */\n  0x00\n    /* \"#utility.yul\":457:472   */\n  revert\n    /* \"#utility.yul\":484:804   */\ntag_8:\n    /* \"#utility.yul\":528:534   */\n  0x00\n    /* \"#utility.yul\":565:566   */\n  0x02\n    /* \"#utility.yul\":559:563   */\n  dup3\n    /* \"#utility.yul\":555:567   */\n  div\n    /* \"#utility.yul\":545:567   */\n  swap1\n  pop\n    /* \"#utility.yul\":612:613   */\n  0x01\n    /* \"#utility.yul\":606:610   */\n  dup3\n    /* \"#utility.yul\":602:614   */\n  and\n    /* \"#utility.yul\":633:651   */\n  dup1\n    /* \"#utility.yul\":623:704   */\n  tag_30\n  jumpi\n    /* \"#utility.yul\":689:693   */\n  0x7f\n    /* \"#utility.yul\":681:687   */\n  dup3\n    /* \"#utility.yul\":677:694   */\n  and\n    /* \"#utility.yul\":667:694   */\n  swap2\n  pop\n    /* \"#utility.yul\":623:704   */\ntag_30:\n    /* \"#utility.yul\":751:753   */\n  0x20\n    /* \"#utility.yul\":743:749   */\n  dup3\n    /* \"#utility.yul\":740:754   */\n  lt\n    /* \"#utility.yul\":720:738   */\n  dup2\n    /* \"#utility.yul\":717:755   */\n  sub\n    /* \"#utility.yul\":714:798   */\n  tag_31\n  jumpi\n    /* \"#utility.yul\":770:788   */\n  tag_32\n  tag_7\n  jump\t// in\ntag_32:\n    /* \"#utility.yul\":714:798   */\ntag_31:\n    /* \"#utility.yul\":535:804   */\n  pop\n    /* \"#utility.yul\":484:804   */\n  swap2\n  swap1\n  pop\n  jump\t// out\n    /* \"#utility.yul\":810:951   */\ntag_9:\n    /* \"#utility.yul\":859:863   */\n  0x00\n    /* \"#utility.yul\":882:885   */\n  dup2\n    /* \"#utility.yul\":874:885   */\n  swap1\n  pop\n    /* \"#utility.yul\":905:908   */\n  dup2\n    /* \"#utility.yul\":902:903   */\n  0x00\n    /* \"#utility.yul\":895:909   */\n  mstore\n    /* \"#utility.yul\":939:943   */\n  0x20\n    /* \"#utility.yul\":936:937   */\n  0x00\n    /* \"#utility.yul\":926:944   */\n  keccak256\n    /* \"#utility.yul\":918:944   */\n  swap1\n  pop\n    /* \"#utility.yul\":810:951   */\n  swap2\n  swap1\n  pop\n  jump\t// out\n    /* \"#utility.yul\":957:1050   */\ntag_10:\n    /* \"#utility.yul\":994:1000   */\n  0x00\n    /* \"#utility.yul\":1041:1043   */\n  0x20\n    /* \"#utility.yul\":1036:1038   */\n  0x1f\n    /* \"#utility.yul\":1029:1034   */\n  dup4\n    /* \"#utility.yul\":1025:1039   */\n  add\n    /* \"#utility.yul\":1021:1044   */\n  div\n    /* \"#utility.yul\":1011:1044   */\n  swap1\n  pop\n    /* \"#utility.yul\":957:1050   */\n  swap2\n  swap1\n  pop\n  jump\t// out\n    /* \"#utility.yul\":1056:1163   */\ntag_11:\n    /* \"#utility.yul\":1100:1108   */\n  0x00\n    /* \"#utility.yul\":1150:1155   */\n  dup3\n    /* \"#utility.yul\":1144:1148   */\n  dup3\n    /* \"#utility.yul\":1140:1156   */\n  shl\n    /* \"#utility.yul\":1119:1156   */\n  swap1\n  pop\n    /* \"#utility.yul\":1056:1163   */\n  swap3\n  swap2\n  pop\n  pop\n  jump\t// out\n    /* \"#utility.yul\":1169:1562   */\ntag_12:\n    /* \"#utility.yul\":1238:1244   */\n  0x00\n    /* \"#utility.yul\":1288:1289   */\n  0x08\n    /* \"#utility.yul\":1276:1286   */\n  dup4\n    /* \"#utility.yul\":1272:1290   */\n  mul\n    /* \"#utility.yul\":1311:1408   */\n  tag_37\n    /* \"#utility.yul\":1341:1407   */\n  0xffffffffffffffffffffffffffffffffffffffffffffffffffffffffffffffff\n    /* \"#utility.yul\":1330:1339   */\n  dup3\n    /* \"#utility.yul\":1311:1408   */\n  tag_11\n  jump\t// in\ntag_37:\n    /* \"#utility.yul\":1429:1468   */\n  tag_38\n    /* \"#utility.yul\":1459:1467   */\n  dup7\n    /* \"#utility.yul\":1448:1457   */\n  dup4\n    /* \"#utility.yul\":1429:1468   */\n  tag_11\n  jump\t// in\ntag_38:\n    /* \"#utility.yul\":1417:1468   */\n  swap6\n  pop\n    /* \"#utility.yul\":1501:1505   */\n  dup1\n    /* \"#utility.yul\":1497:1506   */\n  not\n    /* \"#utility.yul\":1490:1495   */\n  dup5\n    /* \"#utility.yul\":1486:1507   */\n  and\n    /* \"#utility.yul\":1477:1507   */\n  swap4\n  pop\n    /* \"#utility.yul\":1550:1554   */\n  dup1\n    /* \"#utility.yul\":1540:1548   */\n  dup7\n    /* \"#utility.yul\":1536:1555   */\n  and\n    /* \"#utility.yul\":1529:1534   */\n  dup5\n    /* \"#utility.yul\":1526:1556   */\n  or\n    /* \"#utility.yul\":1516:1556   */\n  swap3\n  pop\n    /* \"#utility.yul\":1245:1562   */\n  pop\n  pop\n    /* \"#utility.yul\":1169:1562   */\n  swap4\n  swap3\n  pop\n  pop\n  pop\n  jump\t// out\n    /* \"#utility.yul\":1568:1645   */\ntag_13:\n    /* \"#utility.yul\":1605:1612   */\n  0x00\n    /* \"#utility.yul\":1634:1639   */\n  dup2\n    /* \"#utility.yul\":1623:1639   */\n  swap1\n  pop\n    /* \"#utility.yul\":1568:1645   */\n  swap2\n  swap1\n  pop\n  jump\t// out\n    /* \"#utility.yul\":1651:1711   */\ntag_14:\n    /* \"#utility.yul\":1679:1682   */\n  0x00\n    /* \"#utility.yul\":1700:1705   */\n  dup2\n    /* \"#utility.yul\":1693:1705   */\n  swap1\n  pop\n    /* \"#utility.yul\":1651:1711   */\n  swap2\n  swap1\n  pop\n  jump\t// out\n    /* \"#utility.yul\":1717:1859   */\ntag_15:\n    /* \"#utility.yul\":1767:1776   */\n  0x00\n    /* \"#utility.yul\":1800:1853   */\n  tag_42\n    /* \"#utility.yul\":1818:1852   */\n  tag_43\n    /* \"#utility.yul\":1827:1851   */\n  tag_44\n    /* \"#utility.yul\":1845:1850   */\n  dup5\n    /* \"#utility.yul\":1827:1851   */\n  tag_13\n  jump\t// in\ntag_44:\n    /* \"#utility.yul\":1818:1852   */\n  tag_14\n  jump\t// in\ntag_43:\n    /* \"#utility.yul\":1800:1853   */\n  tag_13\n  jump\t// in\ntag_42:\n    /* \"#utility.yul\":1787:1853   */\n  swap1\n  pop\n    /* \"#utility.yul\":1717:1859   */\n  swap2\n  swap1\n  pop\n  jump\t// out\n    /* \"#utility.yul\":1865:1940   */\ntag_16:\n    /* \"#utility.yul\":1908:1911   */\n  0x00\n    /* \"#utility.yul\":1929:1934   */\n  dup2\n    /* \"#utility.yul\":1922:1934   */\n  swap1\n  pop\n    /* \"#utility.yul\":1865:1940   */\n  swap2\n  swap1\n  pop\n  jump\t// out\n    /* \"#utility.yul\":1946:2215   */\ntag_17:\n    /* \"#utility.yul\":2056:2095   */\n  tag_47\n    /* \"#utility.yul\":2087:2094   */\n  dup4\n    /* \"#utility.yul\":2056:2095   */\n  tag_15\n  jump\t// in\ntag_47:\n    /* \"#utility.yul\":2117:2208   */\n  tag_48\n    /* \"#utility.yul\":2166:2207   */\n  tag_49\n    /* \"#utility.yul\":2190:2206   */\n  dup3\n    /* \"#utility.yul\":2166:2207   */\n  tag_16\n  jump\t// in\ntag_49:\n    /* \"#utility.yul\":2158:2164   */\n  dup5\n    /* \"#utility.yul\":2151:2155   */\n  dup5\n    /* \"#utility.yul\":2145:2156   */\n  sload\n    /* \"#utility.yul\":2117:2208   */\n  tag_12\n  jump\t// in\ntag_48:\n    /* \"#utility.yul\":2111:2115   */\n  dup3\n    /* \"#utility.yul\":2104:2209   */\n  sstore\n    /* \"#utility.yul\":2022:2215   */\n  pop\n    /* \"#utility.yul\":1946:2215   */\n  pop\n  pop\n  pop\n  jump\t// out\n    /* \"#utility.yul\":2221:2294   */\ntag_18:\n    /* \"#utility.yul\":2266:2269   */\n  0x00\n    /* \"#utility.yul\":2221:2294   */\n  swap1\n  jump\t// out\n    /* \"#utility.yul\":2300:2489   */\ntag_19:\n    /* \"#utility.yul\":2377:2409   */\n  tag_52\n  tag_18\n  jump\t// in\ntag_52:\n    /* \"#utility.yul\":2418:2483   */\n  tag_53\n    /* \"#utility.yul\":2476:2482   */\n  dup2\n    /* \"#utility.yul\":2468:2474   */\n  dup5\n    /* \"#utility.yul\":2462:2466   */\n  dup5\n    /* \"#utility.yul\":2418:2483   */\n  tag_17\n  jump\t// in\ntag_53:\n    /* \"#utility.yul\":2353:2489   */\n  pop\n    /* \"#utility.yul\":2300:2489   */\n  pop\n  pop\n  jump\t// out\n    /* \"#utility.yul\":2495:2681   */\ntag_20:\n    /* \"#utility.yul\":2555:2675   */\ntag_55:\n    /* \"#utility.yul\":2572:2575   */\n  dup2\n    /* \"#utility.yul\":2565:2570   */\n  dup2\n    /* \"#utility.yul\":2562:2576   */\n  lt\n    /* \"#utility.yul\":2555:2675   */\n  iszero\n  tag_57\n  jumpi\n    /* \"#utility.yul\":2626:2665   */\n  tag_58\n    /* \"#utility.yul\":2663:2664   */\n  0x00\n    /* \"#utility.yul\":2656:2661   */\n  dup3\n    /* \"#utility.yul\":2626:2665   */\n  tag_19\n  jump\t// in\ntag_58:\n    /* \"#utility.yul\":2599:2600   */\n  0x01\n    /* \"#utility.yul\":2592:2597   */\n  dup2\n    /* \"#utility.yul\":2588:2601   */\n  add\n    /* \"#utility.yul\":2579:2601   */\n  swap1\n  pop\n    /* \"#utility.yul\":2555:2675   */\n  jump(tag_55)\ntag_57:\n    /* \"#utility.yul\":2495:2681   */\n  pop\n  pop\n  jump\t// out\n    /* \"#utility.yul\":2687:3230   */\ntag_21:\n    /* \"#utility.yul\":2788:2790   */\n  0x1f\n    /* \"#utility.yul\":2783:2786   */\n  dup3\n    /* \"#utility.yul\":2780:2791   */\n  gt\n    /* \"#utility.yul\":2777:3223   */\n  iszero\n  tag_60\n  jumpi\n    /* \"#utility.yul\":2822:2860   */\n  tag_61\n    /* \"#utility.yul\":2854:2859   */\n  dup2\n    /* \"#utility.yul\":2822:2860   */\n  tag_9\n  jump\t// in\ntag_61:\n    /* \"#utility.yul\":2906:2935   */\n  tag_62\n    /* \"#utility.yul\":2924:2934   */\n  dup5\n    /* \"#utility.yul\":2906:2935   */\n  tag_10\n  jump\t// in\ntag_62:\n    /* \"#utility.yul\":2896:2904   */\n  dup2\n    /* \"#utility.yul\":2892:2936   */\n  add\n    /* \"#utility.yul\":3089:3091   */\n  0x20\n    /* \"#utility.yul\":3077:3087   */\n  dup6\n    /* \"#utility.yul\":3074:3092   */\n  lt\n    /* \"#utility.yul\":3071:3120   */\n  iszero\n  tag_63\n  jumpi\n    /* \"#utility.yul\":3110:3118   */\n  dup2\n    /* \"#utility.yul\":3095:3118   */\n  swap1\n  pop\n    /* \"#utility.yul\":3071:3120   */\ntag_63:\n    /* \"#utility.yul\":3133:3213   */\n  tag_64\n    /* \"#utility.yul\":3189:3211   */\n  tag_65\n    /* \"#utility.yul\":3207:3210   */\n  dup6\n    /* \"#utility.yul\":3189:3211   */\n  tag_10\n  jump\t// in\ntag_65:\n    /* \"#utility.yul\":3179:3187   */\n  dup4\n    /* \"#utility.yul\":3175:3212   */\n  add\n    /* \"#utility.yul\":3162:3173   */\n  dup3\n    /* \"#utility.yul\":3133:3213   */\n  tag_20\n  jump\t// in\ntag_64:\n    /* \"#utility.yul\":2792:3223   */\n  pop\n  pop\n    /* \"#utility.yul\":2777:3223   */\ntag_60:\n    /* \"#utility.yul\":2687:3230   */\n  pop\n  pop\n  pop\n  jump\t// out\n    /* \"#utility.yul\":3236:3353   */\ntag_22:\n    /* \"#utility.yul\":3290:3298   */\n  0x00\n    /* \"#utility.yul\":3340:3345   */\n  dup3\n    /* \"#utility.yul\":3334:3338   */\n  dup3\n    /* \"#utility.yul\":3330:3346   */\n  shr\n    /* \"#utility.yul\":3309:3346   */\n  swap1\n  pop\n    /* \"#utility.yul\":3236:3353   */\n  swap3\n  swap2\n  pop\n  pop\n  jump\t// out\n    /* \"#utility.yul\":3359:3528   */\ntag_23:\n    /* \"#utility.yul\":3403:3409   */\n  0x00\n    /* \"#utility.yul\":3436:3487   */\n  tag_68\n    /* \"#utility.yul\":3484:3485   */\n  0x00\n    /* \"#utility.yul\":3480:3486   */\n  not\n    /* \"#utility.yul\":3472:3477   */\n  dup5\n    /* \"#utility.yul\":3469:3470   */\n  0x08\n    /* \"#utility.yul\":3465:3478   */\n  mul\n    /* \"#utility.yul\":3436:3487   */\n  tag_22\n  jump\t// in\ntag_68:\n    /* \"#utility.yul\":3432:3488   */\n  not\n    /* \"#utility.yul\":3517:3521   */\n  dup1\n    /* \"#utility.yul\":3511:3515   */\n  dup4\n    /* \"#utility.yul\":3507:3522   */\n  and\n    /* \"#utility.yul\":3497:3522   */\n  swap2\n  pop\n    /* \"#utility.yul\":3410:3528   */\n  pop\n    /* \"#utility.yul\":3359:3528   */\n  swap3\n  swap2\n  pop\n  pop\n  jump\t// out\n    /* \"#utility.yul\":3533:3828   */\ntag_24:\n    /* \"#utility.yul\":3609:3613   */\n  0x00\n    /* \"#utility.yul\":3755:3784   */\n  tag_70\n    /* \"#utility.yul\":3780:3783   */\n  dup4\n    /* \"#utility.yul\":3774:3778   */\n  dup4\n    /* \"#utility.yul\":3755:3784   */\n  tag_23\n  jump\t// in\ntag_70:\n    /* \"#utility.yul\":3747:3784   */\n  swap2\n  pop\n    /* \"#utility.yul\":3817:3820   */\n  dup3\n    /* \"#utility.yul\":3814:3815   */\n  0x02\n    /* \"#utility.yul\":3810:3821   */\n  mul\n    /* \"#utility.yul\":3804:3808   */\n  dup3\n    /* \"#utility.yul\":3801:3822   */\n  or\n    /* \"#utility.yul\":3793:3822   */\n  swap1\n  pop\n    /* \"#utility.yul\":3533:3828   */\n  swap3\n  swap2\n  pop\n  pop\n  jump\t// out\n    /* \"#utility.yul\":3833:5228   */\ntag_2:\n    /* \"#utility.yul\":3950:3987   */\n  tag_72\n    /* \"#utility.yul\":3983:3986   */\n  dup3\n    /* \"#utility.yul\":3950:3987   */\n  tag_5\n  jump\t// in\ntag_72:\n    /* \"#utility.yul\":4052:4070   */\n  0xffffffffffffffff\n    /* \"#utility.yul\":4044:4050   */\n  dup2\n    /* \"#utility.yul\":4041:4071   */\n  gt\n    /* \"#utility.yul\":4038:4094   */\n  iszero\n  tag_73\n  jumpi\n    /* \"#utility.yul\":4074:4092   */\n  tag_74\n  tag_6\n  jump\t// in\ntag_74:\n    /* \"#utility.yul\":4038:4094   */\ntag_73:\n    /* \"#utility.yul\":4118:4156   */\n  tag_75\n    /* \"#utility.yul\":4150:4154   */\n  dup3\n    /* \"#utility.yul\":4144:4155   */\n  sload\n    /* \"#utility.yul\":4118:4156   */\n  tag_8\n  jump\t// in\ntag_75:\n    /* \"#utility.yul\":4203:4270   */\n  tag_76\n    /* \"#utility.yul\":4263:4269   */\n  dup3\n    /* \"#utility.yul\":4255:4261   */\n  dup3\n    /* \"#utility.yul\":4249:4253   */\n  dup6\n    /* \"#utility.yul\":4203:4270   */\n  tag_21\n  jump\t// in\ntag_76:\n    /* \"#utility.yul\":4297:4298   */\n  0x00\n    /* \"#utility.yul\":4321:4325   */\n  0x20\n    /* \"#utility.yul\":4308:4325   */\n  swap1\n  pop\n    /* \"#utility.yul\":4353:4355   */\n  0x1f\n    /* \"#utility.yul\":4345:4351   */\n  dup4\n    /* \"#utility.yul\":4342:4356   */\n  gt\n    /* \"#utility.yul\":4370:4371   */\n  0x01\n    /* \"#utility.yul\":4365:4983   */\n  dup2\n  eq\n  tag_78\n  jumpi\n    /* \"#utility.yul\":5027:5028   */\n  0x00\n    /* \"#utility.yul\":5044:5050   */\n  dup5\n    /* \"#utility.yul\":5041:5118   */\n  iszero\n  tag_79\n  jumpi\n    /* \"#utility.yul\":5093:5102   */\n  dup3\n    /* \"#utility.yul\":5088:5091   */\n  dup8\n    /* \"#utility.yul\":5084:5103   */\n  add\n    /* \"#utility.yul\":5078:5104   */\n  mload\n    /* \"#utility.yul\":5069:5104   */\n  swap1\n  pop\n    /* \"#utility.yul\":5041:5118   */\ntag_79:\n    /* \"#utility.yul\":5144:5211   */\n  tag_80\n    /* \"#utility.yul\":5204:5210   */\n  dup6\n    /* \"#utility.yul\":5197:5202   */\n  dup3\n    /* \"#utility.yul\":5144:5211   */\n  tag_24\n  jump\t// in\ntag_80:\n    /* \"#utility.yul\":5138:5142   */\n  dup7\n    /* \"#utility.yul\":5131:5212   */\n  sstore\n    /* \"#utility.yul\":5000:5222   */\n  pop\n    /* \"#utility.yul\":4335:5222   */\n  jump(tag_77)\n    /* \"#utility.yul\":4365:4983   */\ntag_78:\n    /* \"#utility.yul\":4417:4421   */\n  0x1f\n    /* \"#utility.yul\":4413:4422   */\n  not\n    /* \"#utility.yul\":4405:4411   */\n  dup5\n    /* \"#utility.yul\":4401:4423   */\n  and\n    /* \"#utility.yul\":4451:4488   */\n  tag_81\n    /* \"#utility.yul\":4483:4487   */\n  dup7\n    /* \"#utility.yul\":4451:4488   */\n  tag_9\n  jump\t// in\ntag_81:\n    /* \"#utility.yul\":4510:4511   */\n  0x00\n    /* \"#utility.yul\":4524:4732   */\ntag_82:\n    /* \"#utility.yul\":4538:4545   */\n  dup3\n    /* \"#utility.yul\":4535:4536   */\n  dup2\n    /* \"#utility.yul\":4532:4546   */\n  lt\n    /* \"#utility.yul\":4524:4732   */\n  iszero\n  tag_84\n  jumpi\n    /* \"#utility.yul\":4617:4626   */\n  dup5\n    /* \"#utility.yul\":4612:4615   */\n  dup10\n    /* \"#utility.yul\":4608:4627   */\n  add\n    /* \"#utility.yul\":4602:4628   */\n  mload\n    /* \"#utility.yul\":4594:4600   */\n  dup3\n    /* \"#utility.yul\":4587:4629   */\n  sstore\n    /* \"#utility.yul\":4668:4669   */\n  0x01\n    /* \"#utility.yul\":4660:4666   */\n  dup3\n    /* \"#utility.yul\":4656:4670   */\n  add\n    /* \"#utility.yul\":4646:4670   */\n  swap2\n  pop\n    /* \"#utility.yul\":4715:4717   */\n  0x20\n    /* \"#utility.yul\":4704:4713   */\n  dup6\n    /* \"#utility.yul\":4700:4718   */\n  add\n    /* \"#utility.yul\":4687:4718   */\n  swap5\n  pop\n    /* \"#utility.yul\":4561:4565   */\n  0x20\n    /* \"#utility.yul\":4558:4559   */\n  dup2\n    /* \"#utility.yul\":4554:4566   */\n  add\n    /* \"#utility.yul\":4549:4566   */\n  swap1\n  pop\n    /* \"#utility.yul\":4524:4732   */\n  jump(tag_82)\ntag_84:\n    /* \"#utility.yul\":4760:4766   */\n  dup7\n    /* \"#utility.yul\":4751:4758   */\n  dup4\n    /* \"#utility.yul\":4748:4767   */\n  lt\n    /* \"#utility.yul\":4745:4924   */\n  iszero\n  tag_85\n  jumpi\n    /* \"#utility.yul\":4818:4827   */\n  dup5\n    /* \"#utility.yul\":4813:4816   */\n  dup10\n    /* \"#utility.yul\":4809:4828   */\n  add\n    /* \"#utility.yul\":4803:4829   */\n  mload\n    /* \"#utility.yul\":4861:4909   */\n  tag_86\n    /* \"#utility.yul\":4903:4907   */\n  0x1f\n    /* \"#utility.yul\":4895:4901   */\n  dup10\n    /* \"#utility.yul\":4891:4908   */\n  and\n    /* \"#utility.yul\":4880:4889   */\n  dup3\n    /* \"#utility.yul\":4861:4909   */\n  tag_23\n  jump\t// in\ntag_86:\n    /* \"#utility.yul\":4853:4859   */\n  dup4\n    /* \"#utility.yul\":4846:4910   */\n  sstore\n    /* \"#utility.yul\":4768:4924   */\n  pop\n    /* \"#utility.yul\":4745:4924   */\ntag_85:\n    /* \"#utility.yul\":4970:4971   */\n  0x01\n    /* \"#utility.yul\":4966:4967   */\n  0x02\n    /* \"#utility.yul\":4958:4964   */\n  dup9\n    /* \"#utility.yul\":4954:4968   */\n  mul\n    /* \"#utility.yul\":4950:4972   */\n  add\n    /* \"#utility.yul\":4944:4948   */\n  dup9\n    /* \"#utility.yul\":4937:4973   */\n  sstore\n    /* \"#utility.yul\":4372:4983   */\n  pop\n  pop\n  pop\n    /* \"#utility.yul\":4335:5222   */\ntag_77:\n  pop\n    /* \"#utility.yul\":3925:5228   */\n  pop\n  pop\n  pop\n    /* \"#utility.yul\":3833:5228   */\n  pop\n  pop\n  jump\t// out\n    /* \"Contracts/PickEvenOrOdd.sol\":62:2003  contract PickEvenOrOdd{... */\ntag_4:\n  dataSize(sub_0)\n  dup1\n  dataOffset(sub_0)\n  0x00\n  codecopy\n  0x00\n  return\nstop\n\nsub_0: assembly {\n        /* \"Contracts/PickEvenOrOdd.sol\":62:2003  contract PickEvenOrOdd{... */\n      mstore(0x40, 0x80)\n      callvalue\n      dup1\n      iszero\n      tag_1\n      jumpi\n      0x00\n      dup1\n      revert\n    tag_1:\n      pop\n      jumpi(tag_2, lt(calldatasize, 0x04))\n      shr(0xe0, calldataload(0x00))\n      dup1\n      0x53a04b05\n      eq\n      tag_3\n      jumpi\n      dup1\n      0x98c8d81f\n      eq\n      tag_4\n      jumpi\n      dup1\n      0x98f42fe3\n      eq\n      tag_5\n      jumpi\n    tag_2:\n      0x00\n      dup1\n      revert\n        /* \"Contracts/PickEvenOrOdd.sol\":1264:2000  function play(uint8 number) public view returns(string memory) {... */\n    tag_3:\n      tag_6\n      0x04\n      dup1\n      calldatasize\n      sub\n      dup2\n      add\n      swap1\n      tag_7\n      swap2\n      swap1\n      tag_8\n      jump\t// in\n    tag_7:\n      tag_9\n      jump\t// in\n    tag_6:\n      mload(0x40)\n      tag_10\n      swap2\n      swap1\n      tag_11\n      jump\t// in\n    tag_10:\n      mload(0x40)\n      dup1\n      swap2\n      sub\n      swap1\n      return\n        /* \"Contracts/PickEvenOrOdd.sol\":623:941  function choose(string memory newChoice) public{... */\n    tag_4:\n      tag_12\n      0x04\n      dup1\n      calldatasize\n      sub\n      dup2\n      add\n      swap1\n      tag_13\n      swap2\n      swap1\n      tag_14\n      jump\t// in\n    tag_13:\n      tag_15\n      jump\t// in\n    tag_12:\n      stop\n        /* \"Contracts/PickEvenOrOdd.sol\":93:119  string public  choice = \"\" */\n    tag_5:\n      tag_16\n      tag_17\n      jump\t// in\n    tag_16:\n      mload(0x40)\n      tag_18\n      swap2\n      swap1\n      tag_11\n      jump\t// in\n    tag_18:\n      mload(0x40)\n      dup1\n      swap2\n      sub\n      swap1\n      return\n        /* \"Contracts/PickEvenOrOdd.sol\":1264:2000  function play(uint8 number) public view returns(string memory) {... */\n    tag_9:\n        /* \"Contracts/PickEvenOrOdd.sol\":1312:1325  string memory */\n      0x60\n        /* \"Contracts/PickEvenOrOdd.sol\":1387:1388  0 */\n      0x00\n        /* \"Contracts/PickEvenOrOdd.sol\":1377:1383  number */\n      dup3\n        /* \"Contracts/PickEvenOrOdd.sol\":1377:1388  number >= 0 */\n      0xff\n      and\n      lt\n      iszero\n        /* \"Contracts/PickEvenOrOdd.sol\":1377:1403  number >= 0 && number <= 2 */\n      dup1\n      iszero\n      tag_20\n      jumpi\n      pop\n        /* \"Contracts/PickEvenOrOdd.sol\":1402:1403  2 */\n      0x02\n        /* \"Contracts/PickEvenOrOdd.sol\":1392:1398  number */\n      dup3\n        /* \"Contracts/PickEvenOrOdd.sol\":1392:1403  number <= 2 */\n      0xff\n      and\n      gt\n      iszero\n        /* \"Contracts/PickEvenOrOdd.sol\":1377:1403  number >= 0 && number <= 2 */\n    tag_20:\n        /* \"Contracts/PickEvenOrOdd.sol\":1369:1428  require(number >= 0 && number <= 2, \"Play with: 0, 1 or 2\") */\n      tag_21\n      jumpi\n      mload(0x40)\n      0x08c379a000000000000000000000000000000000000000000000000000000000\n      dup2\n      mstore\n      0x04\n      add\n      tag_22\n      swap1\n      tag_23\n      jump\t// in\n    tag_22:\n      mload(0x40)\n      dup1\n      swap2\n      sub\n      swap1\n      revert\n    tag_21:\n        /* \"Contracts/PickEvenOrOdd.sol\":1480:1505  compareString(choice, \"\") */\n      tag_24\n        /* \"Contracts/PickEvenOrOdd.sol\":1494:1500  choice */\n      0x00\n        /* \"Contracts/PickEvenOrOdd.sol\":1480:1505  compareString(choice, \"\") */\n      dup1\n      sload\n      tag_25\n      swap1\n      tag_26\n      jump\t// in\n    tag_25:\n      dup1\n      0x1f\n      add\n      0x20\n      dup1\n      swap2\n      div\n      mul\n      0x20\n      add\n      mload(0x40)\n      swap1\n      dup2\n      add\n      0x40\n      mstore\n      dup1\n      swap3\n      swap2\n      swap1\n      dup2\n      dup2\n      mstore\n      0x20\n      add\n      dup3\n      dup1\n      sload\n      tag_27\n      swap1\n      tag_26\n      jump\t// in\n    tag_27:\n      dup1\n      iszero\n      tag_28\n      jumpi\n      dup1\n      0x1f\n      lt\n      tag_29\n      jumpi\n      0x0100\n      dup1\n      dup4\n      sload\n      div\n      mul\n      dup4\n      mstore\n      swap2\n      0x20\n      add\n      swap2\n      jump(tag_28)\n    tag_29:\n      dup3\n      add\n      swap2\n      swap1\n      0x00\n      mstore\n      keccak256(0x00, 0x20)\n      swap1\n    tag_30:\n      dup2\n      sload\n      dup2\n      mstore\n      swap1\n      0x01\n      add\n      swap1\n      0x20\n      add\n      dup1\n      dup4\n      gt\n      tag_30\n      jumpi\n      dup3\n      swap1\n      sub\n      0x1f\n      and\n      dup3\n      add\n      swap2\n    tag_28:\n      pop\n      pop\n      pop\n      pop\n      pop\n      mload(0x40)\n      dup1\n      0x20\n      add\n      0x40\n      mstore\n      dup1\n      0x00\n      dup2\n      mstore\n      pop\n        /* \"Contracts/PickEvenOrOdd.sol\":1480:1493  compareString */\n      tag_31\n        /* \"Contracts/PickEvenOrOdd.sol\":1480:1505  compareString(choice, \"\") */\n      jump\t// in\n    tag_24:\n        /* \"Contracts/PickEvenOrOdd.sol\":1479:1505  !compareString(choice, \"\") */\n      iszero\n        /* \"Contracts/PickEvenOrOdd.sol\":1471:1536  require(!compareString(choice, \"\"), \"First, choose: EVEN or ODD\") */\n      tag_32\n      jumpi\n      mload(0x40)\n      0x08c379a000000000000000000000000000000000000000000000000000000000\n      dup2\n      mstore\n      0x04\n      add\n      tag_33\n      swap1\n      tag_34\n      jump\t// in\n    tag_33:\n      mload(0x40)\n      dup1\n      swap2\n      sub\n      swap1\n      revert\n    tag_32:\n        /* \"Contracts/PickEvenOrOdd.sol\":1583:1597  uint cpuNumber */\n      0x00\n        /* \"Contracts/PickEvenOrOdd.sol\":1600:1608  random() */\n      tag_35\n        /* \"Contracts/PickEvenOrOdd.sol\":1600:1606  random */\n      tag_36\n        /* \"Contracts/PickEvenOrOdd.sol\":1600:1608  random() */\n      jump\t// in\n    tag_35:\n        /* \"Contracts/PickEvenOrOdd.sol\":1583:1608  uint cpuNumber = random() */\n      swap1\n      pop\n        /* \"Contracts/PickEvenOrOdd.sol\":1645:1656  bool isEven */\n      0x00\n        /* \"Contracts/PickEvenOrOdd.sol\":1686:1687  0 */\n      dup1\n        /* \"Contracts/PickEvenOrOdd.sol\":1681:1682  2 */\n      0x02\n        /* \"Contracts/PickEvenOrOdd.sol\":1672:1678  number */\n      dup6\n        /* \"Contracts/PickEvenOrOdd.sol\":1660:1678  cpuNumber + number */\n      0xff\n      and\n        /* \"Contracts/PickEvenOrOdd.sol\":1660:1669  cpuNumber */\n      dup5\n        /* \"Contracts/PickEvenOrOdd.sol\":1660:1678  cpuNumber + number */\n      tag_37\n      swap2\n      swap1\n      tag_38\n      jump\t// in\n    tag_37:\n        /* \"Contracts/PickEvenOrOdd.sol\":1659:1682  (cpuNumber + number) %2 */\n      tag_39\n      swap2\n      swap1\n      tag_40\n      jump\t// in\n    tag_39:\n        /* \"Contracts/PickEvenOrOdd.sol\":1659:1687  (cpuNumber + number) %2 == 0 */\n      eq\n        /* \"Contracts/PickEvenOrOdd.sol\":1645:1687  bool isEven = (cpuNumber + number) %2 == 0 */\n      swap1\n      pop\n        /* \"Contracts/PickEvenOrOdd.sol\":1723:1729  isEven */\n      dup1\n        /* \"Contracts/PickEvenOrOdd.sol\":1723:1762  isEven && compareString(choice, \"EVEN\") */\n      dup1\n      iszero\n      tag_41\n      jumpi\n      pop\n        /* \"Contracts/PickEvenOrOdd.sol\":1733:1762  compareString(choice, \"EVEN\") */\n      tag_42\n        /* \"Contracts/PickEvenOrOdd.sol\":1747:1753  choice */\n      0x00\n        /* \"Contracts/PickEvenOrOdd.sol\":1733:1762  compareString(choice, \"EVEN\") */\n      dup1\n      sload\n      tag_43\n      swap1\n      tag_26\n      jump\t// in\n    tag_43:\n      dup1\n      0x1f\n      add\n      0x20\n      dup1\n      swap2\n      div\n      mul\n      0x20\n      add\n      mload(0x40)\n      swap1\n      dup2\n      add\n      0x40\n      mstore\n      dup1\n      swap3\n      swap2\n      swap1\n      dup2\n      dup2\n      mstore\n      0x20\n      add\n      dup3\n      dup1\n      sload\n      tag_44\n      swap1\n      tag_26\n      jump\t// in\n    tag_44:\n      dup1\n      iszero\n      tag_45\n      jumpi\n      dup1\n      0x1f\n      lt\n      tag_46\n      jumpi\n      0x0100\n      dup1\n      dup4\n      sload\n      div\n      mul\n      dup4\n      mstore\n      swap2\n      0x20\n      add\n      swap2\n      jump(tag_45)\n    tag_46:\n      dup3\n      add\n      swap2\n      swap1\n      0x00\n      mstore\n      keccak256(0x00, 0x20)\n      swap1\n    tag_47:\n      dup2\n      sload\n      dup2\n      mstore\n      swap1\n      0x01\n      add\n      swap1\n      0x20\n      add\n      dup1\n      dup4\n      gt\n      tag_47\n      jumpi\n      dup3\n      swap1\n      sub\n      0x1f\n      and\n      dup3\n      add\n      swap2\n    tag_45:\n      pop\n      pop\n      pop\n      pop\n      pop\n      mload(0x40)\n      dup1\n      0x40\n      add\n      0x40\n      mstore\n      dup1\n      0x04\n      dup2\n      mstore\n      0x20\n      add\n      0x4556454e00000000000000000000000000000000000000000000000000000000\n      dup2\n      mstore\n      pop\n        /* \"Contracts/PickEvenOrOdd.sol\":1733:1746  compareString */\n      tag_31\n        /* \"Contracts/PickEvenOrOdd.sol\":1733:1762  compareString(choice, \"EVEN\") */\n      jump\t// in\n    tag_42:\n        /* \"Contracts/PickEvenOrOdd.sol\":1723:1762  isEven && compareString(choice, \"EVEN\") */\n    tag_41:\n        /* \"Contracts/PickEvenOrOdd.sol\":1720:1985  if(isEven && compareString(choice, \"EVEN\")){... */\n      iszero\n      tag_48\n      jumpi\n        /* \"Contracts/PickEvenOrOdd.sol\":1778:1828  return \"Player choose EVEN and plays. CPU choose:\" */\n      mload(0x40)\n      dup1\n      0x60\n      add\n      0x40\n      mstore\n      dup1\n      0x29\n      dup2\n      mstore\n      0x20\n      add\n      data_afea32b4f3cbdf530b5477cf697a1f01b8848602feb83ba9aca9c49f9bbf255c\n      0x29\n      swap2\n      codecopy\n      swap3\n      pop\n      pop\n      pop\n      jump(tag_19)\n        /* \"Contracts/PickEvenOrOdd.sol\":1720:1985  if(isEven && compareString(choice, \"EVEN\")){... */\n    tag_48:\n        /* \"Contracts/PickEvenOrOdd.sol\":1859:1865  isEven */\n      dup1\n        /* \"Contracts/PickEvenOrOdd.sol\":1858:1865  !isEven */\n      iszero\n        /* \"Contracts/PickEvenOrOdd.sol\":1858:1897  !isEven && compareString(choice, \"ODD\") */\n      dup1\n      iszero\n      tag_50\n      jumpi\n      pop\n        /* \"Contracts/PickEvenOrOdd.sol\":1869:1897  compareString(choice, \"ODD\") */\n      tag_51\n        /* \"Contracts/PickEvenOrOdd.sol\":1883:1889  choice */\n      0x00\n        /* \"Contracts/PickEvenOrOdd.sol\":1869:1897  compareString(choice, \"ODD\") */\n      dup1\n      sload\n      tag_52\n      swap1\n      tag_26\n      jump\t// in\n    tag_52:\n      dup1\n      0x1f\n      add\n      0x20\n      dup1\n      swap2\n      div\n      mul\n      0x20\n      add\n      mload(0x40)\n      swap1\n      dup2\n      add\n      0x40\n      mstore\n      dup1\n      swap3\n      swap2\n      swap1\n      dup2\n      dup2\n      mstore\n      0x20\n      add\n      dup3\n      dup1\n      sload\n      tag_53\n      swap1\n      tag_26\n      jump\t// in\n    tag_53:\n      dup1\n      iszero\n      tag_54\n      jumpi\n      dup1\n      0x1f\n      lt\n      tag_55\n      jumpi\n      0x0100\n      dup1\n      dup4\n      sload\n      div\n      mul\n      dup4\n      mstore\n      swap2\n      0x20\n      add\n      swap2\n      jump(tag_54)\n    tag_55:\n      dup3\n      add\n      swap2\n      swap1\n      0x00\n      mstore\n      keccak256(0x00, 0x20)\n      swap1\n    tag_56:\n      dup2\n      sload\n      dup2\n      mstore\n      swap1\n      0x01\n      add\n      swap1\n      0x20\n      add\n      dup1\n      dup4\n      gt\n      tag_56\n      jumpi\n      dup3\n      swap1\n      sub\n      0x1f\n      and\n      dup3\n      add\n      swap2\n    tag_54:\n      pop\n      pop\n      pop\n      pop\n      pop\n      mload(0x40)\n      dup1\n      0x40\n      add\n      0x40\n      mstore\n      dup1\n      0x03\n      dup2\n      mstore\n      0x20\n      add\n      0x4f44440000000000000000000000000000000000000000000000000000000000\n      dup2\n      mstore\n      pop\n        /* \"Contracts/PickEvenOrOdd.sol\":1869:1882  compareString */\n      tag_31\n        /* \"Contracts/PickEvenOrOdd.sol\":1869:1897  compareString(choice, \"ODD\") */\n      jump\t// in\n    tag_51:\n        /* \"Contracts/PickEvenOrOdd.sol\":1858:1897  !isEven && compareString(choice, \"ODD\") */\n    tag_50:\n        /* \"Contracts/PickEvenOrOdd.sol\":1855:1985  if(!isEven && compareString(choice, \"ODD\")) {... */\n      iszero\n      tag_57\n      jumpi\n        /* \"Contracts/PickEvenOrOdd.sol\":1914:1923  return \"\" */\n      mload(0x40)\n      dup1\n      0x20\n      add\n      0x40\n      mstore\n      dup1\n      0x00\n      dup2\n      mstore\n      pop\n      swap3\n      pop\n      pop\n      pop\n      jump(tag_19)\n        /* \"Contracts/PickEvenOrOdd.sol\":1855:1985  if(!isEven && compareString(choice, \"ODD\")) {... */\n    tag_57:\n        /* \"Contracts/PickEvenOrOdd.sol\":1964:1973  return \"\" */\n      mload(0x40)\n      dup1\n      0x20\n      add\n      0x40\n      mstore\n      dup1\n      0x00\n      dup2\n      mstore\n      pop\n      swap3\n      pop\n      pop\n      pop\n        /* \"Contracts/PickEvenOrOdd.sol\":1264:2000  function play(uint8 number) public view returns(string memory) {... */\n    tag_19:\n      swap2\n      swap1\n      pop\n      jump\t// out\n        /* \"Contracts/PickEvenOrOdd.sol\":623:941  function choose(string memory newChoice) public{... */\n    tag_15:\n        /* \"Contracts/PickEvenOrOdd.sol\":795:827  compareString(newChoice, \"EVEN\") */\n      tag_60\n        /* \"Contracts/PickEvenOrOdd.sol\":809:818  newChoice */\n      dup2\n        /* \"Contracts/PickEvenOrOdd.sol\":795:827  compareString(newChoice, \"EVEN\") */\n      mload(0x40)\n      dup1\n      0x40\n      add\n      0x40\n      mstore\n      dup1\n      0x04\n      dup2\n      mstore\n      0x20\n      add\n      0x4556454e00000000000000000000000000000000000000000000000000000000\n      dup2\n      mstore\n      pop\n        /* \"Contracts/PickEvenOrOdd.sol\":795:808  compareString */\n      tag_31\n        /* \"Contracts/PickEvenOrOdd.sol\":795:827  compareString(newChoice, \"EVEN\") */\n      jump\t// in\n    tag_60:\n        /* \"Contracts/PickEvenOrOdd.sol\":795:862  compareString(newChoice, \"EVEN\") || compareString(newChoice, \"ODD\") */\n      dup1\n      tag_61\n      jumpi\n      pop\n        /* \"Contracts/PickEvenOrOdd.sol\":831:862  compareString(newChoice, \"ODD\") */\n      tag_62\n        /* \"Contracts/PickEvenOrOdd.sol\":845:854  newChoice */\n      dup2\n        /* \"Contracts/PickEvenOrOdd.sol\":831:862  compareString(newChoice, \"ODD\") */\n      mload(0x40)\n      dup1\n      0x40\n      add\n      0x40\n      mstore\n      dup1\n      0x03\n      dup2\n      mstore\n      0x20\n      add\n      0x4f44440000000000000000000000000000000000000000000000000000000000\n      dup2\n      mstore\n      pop\n        /* \"Contracts/PickEvenOrOdd.sol\":831:844  compareString */\n      tag_31\n        /* \"Contracts/PickEvenOrOdd.sol\":831:862  compareString(newChoice, \"ODD\") */\n      jump\t// in\n    tag_62:\n        /* \"Contracts/PickEvenOrOdd.sol\":795:862  compareString(newChoice, \"EVEN\") || compareString(newChoice, \"ODD\") */\n    tag_61:\n        /* \"Contracts/PickEvenOrOdd.sol\":787:886  require(compareString(newChoice, \"EVEN\") || compareString(newChoice, \"ODD\"), \"Choose: EVEN or ODD\") */\n      tag_63\n      jumpi\n      mload(0x40)\n      0x08c379a000000000000000000000000000000000000000000000000000000000\n      dup2\n      mstore\n      0x04\n      add\n      tag_64\n      swap1\n      tag_65\n      jump\t// in\n    tag_64:\n      mload(0x40)\n      dup1\n      swap2\n      sub\n      swap1\n      revert\n    tag_63:\n        /* \"Contracts/PickEvenOrOdd.sol\":924:933  newChoice */\n      dup1\n        /* \"Contracts/PickEvenOrOdd.sol\":915:921  choice */\n      0x00\n        /* \"Contracts/PickEvenOrOdd.sol\":915:933  choice = newChoice */\n      swap1\n      dup2\n      tag_66\n      swap2\n      swap1\n      tag_67\n      jump\t// in\n    tag_66:\n      pop\n        /* \"Contracts/PickEvenOrOdd.sol\":623:941  function choose(string memory newChoice) public{... */\n      pop\n      jump\t// out\n        /* \"Contracts/PickEvenOrOdd.sol\":93:119  string public  choice = \"\" */\n    tag_17:\n      0x00\n      dup1\n      sload\n      tag_68\n      swap1\n      tag_26\n      jump\t// in\n    tag_68:\n      dup1\n      0x1f\n      add\n      0x20\n      dup1\n      swap2\n      div\n      mul\n      0x20\n      add\n      mload(0x40)\n      swap1\n      dup2\n      add\n      0x40\n      mstore\n      dup1\n      swap3\n      swap2\n      swap1\n      dup2\n      dup2\n      mstore\n      0x20\n      add\n      dup3\n      dup1\n      sload\n      tag_69\n      swap1\n      tag_26\n      jump\t// in\n    tag_69:\n      dup1\n      iszero\n      tag_70\n      jumpi\n      dup1\n      0x1f\n      lt\n      tag_71\n      jumpi\n      0x0100\n      dup1\n      dup4\n      sload\n      div\n      mul\n      dup4\n      mstore\n      swap2\n      0x20\n      add\n      swap2\n      jump(tag_70)\n    tag_71:\n      dup3\n      add\n      swap2\n      swap1\n      0x00\n      mstore\n      keccak256(0x00, 0x20)\n      swap1\n    tag_72:\n      dup2\n      sload\n      dup2\n      mstore\n      swap1\n      0x01\n      add\n      swap1\n      0x20\n      add\n      dup1\n      dup4\n      gt\n      tag_72\n      jumpi\n      dup3\n      swap1\n      sub\n      0x1f\n      and\n      dup3\n      add\n      swap2\n    tag_70:\n      pop\n      pop\n      pop\n      pop\n      pop\n      dup2\n      jump\t// out\n        /* \"Contracts/PickEvenOrOdd.sol\":301:565  function compareString(string memory str1, string memory str2) private pure returns(bool) {... */\n    tag_31:\n        /* \"Contracts/PickEvenOrOdd.sol\":385:389  bool */\n      0x00\n        /* \"Contracts/PickEvenOrOdd.sol\":402:419  bytes memory arrA */\n      dup1\n        /* \"Contracts/PickEvenOrOdd.sol\":428:432  str1 */\n      dup4\n        /* \"Contracts/PickEvenOrOdd.sol\":402:433  bytes memory arrA = bytes(str1) */\n      swap1\n      pop\n        /* \"Contracts/PickEvenOrOdd.sol\":444:461  bytes memory arrB */\n      0x00\n        /* \"Contracts/PickEvenOrOdd.sol\":470:474  str2 */\n      dup4\n        /* \"Contracts/PickEvenOrOdd.sol\":444:475  bytes memory arrB = bytes(str2) */\n      swap1\n      pop\n        /* \"Contracts/PickEvenOrOdd.sol\":508:512  arrB */\n      dup1\n        /* \"Contracts/PickEvenOrOdd.sol\":508:519  arrB.length */\n      mload\n        /* \"Contracts/PickEvenOrOdd.sol\":493:497  arrA */\n      dup3\n        /* \"Contracts/PickEvenOrOdd.sol\":493:504  arrA.length */\n      mload\n        /* \"Contracts/PickEvenOrOdd.sol\":493:519  arrA.length == arrB.length */\n      eq\n        /* \"Contracts/PickEvenOrOdd.sol\":493:557  arrA.length == arrB.length && keccak256(arrA) == keccak256(arrB) */\n      dup1\n      iszero\n      tag_74\n      jumpi\n      pop\n        /* \"Contracts/PickEvenOrOdd.sol\":552:556  arrB */\n      dup1\n        /* \"Contracts/PickEvenOrOdd.sol\":542:557  keccak256(arrB) */\n      dup1\n      mload\n      swap1\n      0x20\n      add\n      keccak256\n        /* \"Contracts/PickEvenOrOdd.sol\":533:537  arrA */\n      dup3\n        /* \"Contracts/PickEvenOrOdd.sol\":523:538  keccak256(arrA) */\n      dup1\n      mload\n      swap1\n      0x20\n      add\n      keccak256\n        /* \"Contracts/PickEvenOrOdd.sol\":523:557  keccak256(arrA) == keccak256(arrB) */\n      eq\n        /* \"Contracts/PickEvenOrOdd.sol\":493:557  arrA.length == arrB.length && keccak256(arrA) == keccak256(arrB) */\n    tag_74:\n        /* \"Contracts/PickEvenOrOdd.sol\":486:557  return arrA.length == arrB.length && keccak256(arrA) == keccak256(arrB) */\n      swap3\n      pop\n      pop\n      pop\n        /* \"Contracts/PickEvenOrOdd.sol\":301:565  function compareString(string memory str1, string memory str2) private pure returns(bool) {... */\n      swap3\n      swap2\n      pop\n      pop\n      jump\t// out\n        /* \"Contracts/PickEvenOrOdd.sol\":1121:1254  function random() private view returns(uint) {... */\n    tag_36:\n        /* \"Contracts/PickEvenOrOdd.sol\":1160:1164  uint */\n      0x00\n        /* \"Contracts/PickEvenOrOdd.sol\":1218:1233  block.timestamp */\n      timestamp\n        /* \"Contracts/PickEvenOrOdd.sol\":1235:1241  choice */\n      0x00\n        /* \"Contracts/PickEvenOrOdd.sol\":1201:1242  abi.encodePacked(block.timestamp, choice) */\n      add(0x20, mload(0x40))\n      tag_76\n      swap3\n      swap2\n      swap1\n      tag_77\n      jump\t// in\n    tag_76:\n      mload(0x40)\n      0x20\n      dup2\n      dup4\n      sub\n      sub\n      dup2\n      mstore\n      swap1\n      0x40\n      mstore\n        /* \"Contracts/PickEvenOrOdd.sol\":1190:1244  keccak256( abi.encodePacked(block.timestamp, choice) ) */\n      dup1\n      mload\n      swap1\n      0x20\n      add\n      keccak256\n        /* \"Contracts/PickEvenOrOdd.sol\":1184:1246  uint( keccak256( abi.encodePacked(block.timestamp, choice) ) ) */\n      0x00\n      shr\n        /* \"Contracts/PickEvenOrOdd.sol\":1177:1246  return uint( keccak256( abi.encodePacked(block.timestamp, choice) ) ) */\n      swap1\n      pop\n        /* \"Contracts/PickEvenOrOdd.sol\":1121:1254  function random() private view returns(uint) {... */\n      swap1\n      jump\t// out\n        /* \"#utility.yul\":7:82   */\n    tag_78:\n        /* \"#utility.yul\":40:46   */\n      0x00\n        /* \"#utility.yul\":73:75   */\n      0x40\n        /* \"#utility.yul\":67:76   */\n      mload\n        /* \"#utility.yul\":57:76   */\n      swap1\n      pop\n        /* \"#utility.yul\":7:82   */\n      swap1\n      jump\t// out\n        /* \"#utility.yul\":88:205   */\n    tag_79:\n        /* \"#utility.yul\":197:198   */\n      0x00\n        /* \"#utility.yul\":194:195   */\n      dup1\n        /* \"#utility.yul\":187:199   */\n      revert\n        /* \"#utility.yul\":211:328   */\n    tag_80:\n        /* \"#utility.yul\":320:321   */\n      0x00\n        /* \"#utility.yul\":317:318   */\n      dup1\n        /* \"#utility.yul\":310:322   */\n      revert\n        /* \"#utility.yul\":334:420   */\n    tag_81:\n        /* \"#utility.yul\":369:376   */\n      0x00\n        /* \"#utility.yul\":409:413   */\n      0xff\n        /* \"#utility.yul\":402:407   */\n      dup3\n        /* \"#utility.yul\":398:414   */\n      and\n        /* \"#utility.yul\":387:414   */\n      swap1\n      pop\n        /* \"#utility.yul\":334:420   */\n      swap2\n      swap1\n      pop\n      jump\t// out\n        /* \"#utility.yul\":426:544   */\n    tag_82:\n        /* \"#utility.yul\":497:519   */\n      tag_133\n        /* \"#utility.yul\":513:518   */\n      dup2\n        /* \"#utility.yul\":497:519   */\n      tag_81\n      jump\t// in\n    tag_133:\n        /* \"#utility.yul\":490:495   */\n      dup2\n        /* \"#utility.yul\":487:520   */\n      eq\n        /* \"#utility.yul\":477:538   */\n      tag_134\n      jumpi\n        /* \"#utility.yul\":534:535   */\n      0x00\n        /* \"#utility.yul\":531:532   */\n      dup1\n        /* \"#utility.yul\":524:536   */\n      revert\n        /* \"#utility.yul\":477:538   */\n    tag_134:\n        /* \"#utility.yul\":426:544   */\n      pop\n      jump\t// out\n        /* \"#utility.yul\":550:685   */\n    tag_83:\n        /* \"#utility.yul\":594:599   */\n      0x00\n        /* \"#utility.yul\":632:638   */\n      dup2\n        /* \"#utility.yul\":619:639   */\n      calldataload\n        /* \"#utility.yul\":610:639   */\n      swap1\n      pop\n        /* \"#utility.yul\":648:679   */\n      tag_136\n        /* \"#utility.yul\":673:678   */\n      dup2\n        /* \"#utility.yul\":648:679   */\n      tag_82\n      jump\t// in\n    tag_136:\n        /* \"#utility.yul\":550:685   */\n      swap3\n      swap2\n      pop\n      pop\n      jump\t// out\n        /* \"#utility.yul\":691:1016   */\n    tag_8:\n        /* \"#utility.yul\":748:754   */\n      0x00\n        /* \"#utility.yul\":797:799   */\n      0x20\n        /* \"#utility.yul\":785:794   */\n      dup3\n        /* \"#utility.yul\":776:783   */\n      dup5\n        /* \"#utility.yul\":772:795   */\n      sub\n        /* \"#utility.yul\":768:800   */\n      slt\n        /* \"#utility.yul\":765:884   */\n      iszero\n      tag_138\n      jumpi\n        /* \"#utility.yul\":803:882   */\n      tag_139\n      tag_79\n      jump\t// in\n    tag_139:\n        /* \"#utility.yul\":765:884   */\n    tag_138:\n        /* \"#utility.yul\":923:924   */\n      0x00\n        /* \"#utility.yul\":948:999   */\n      tag_140\n        /* \"#utility.yul\":991:998   */\n      dup5\n        /* \"#utility.yul\":982:988   */\n      dup3\n        /* \"#utility.yul\":971:980   */\n      dup6\n        /* \"#utility.yul\":967:989   */\n      add\n        /* \"#utility.yul\":948:999   */\n      tag_83\n      jump\t// in\n    tag_140:\n        /* \"#utility.yul\":938:999   */\n      swap2\n      pop\n        /* \"#utility.yul\":894:1009   */\n      pop\n        /* \"#utility.yul\":691:1016   */\n      swap3\n      swap2\n      pop\n      pop\n      jump\t// out\n        /* \"#utility.yul\":1022:1121   */\n    tag_84:\n        /* \"#utility.yul\":1074:1080   */\n      0x00\n        /* \"#utility.yul\":1108:1113   */\n      dup2\n        /* \"#utility.yul\":1102:1114   */\n      mload\n        /* \"#utility.yul\":1092:1114   */\n      swap1\n      pop\n        /* \"#utility.yul\":1022:1121   */\n      swap2\n      swap1\n      pop\n      jump\t// out\n        /* \"#utility.yul\":1127:1296   */\n    tag_85:\n        /* \"#utility.yul\":1211:1222   */\n      0x00\n        /* \"#utility.yul\":1245:1251   */\n      dup3\n        /* \"#utility.yul\":1240:1243   */\n      dup3\n        /* \"#utility.yul\":1233:1252   */\n      mstore\n        /* \"#utility.yul\":1285:1289   */\n      0x20\n        /* \"#utility.yul\":1280:1283   */\n      dup3\n        /* \"#utility.yul\":1276:1290   */\n      add\n        /* \"#utility.yul\":1261:1290   */\n      swap1\n      pop\n        /* \"#utility.yul\":1127:1296   */\n      swap3\n      swap2\n      pop\n      pop\n      jump\t// out\n        /* \"#utility.yul\":1302:1548   */\n    tag_86:\n        /* \"#utility.yul\":1383:1384   */\n      0x00\n        /* \"#utility.yul\":1393:1506   */\n    tag_144:\n        /* \"#utility.yul\":1407:1413   */\n      dup4\n        /* \"#utility.yul\":1404:1405   */\n      dup2\n        /* \"#utility.yul\":1401:1414   */\n      lt\n        /* \"#utility.yul\":1393:1506   */\n      iszero\n      tag_146\n      jumpi\n        /* \"#utility.yul\":1492:1493   */\n      dup1\n        /* \"#utility.yul\":1487:1490   */\n      dup3\n        /* \"#utility.yul\":1483:1494   */\n      add\n        /* \"#utility.yul\":1477:1495   */\n      mload\n        /* \"#utility.yul\":1473:1474   */\n      dup2\n        /* \"#utility.yul\":1468:1471   */\n      dup5\n        /* \"#utility.yul\":1464:1475   */\n      add\n        /* \"#utility.yul\":1457:1496   */\n      mstore\n        /* \"#utility.yul\":1429:1431   */\n      0x20\n        /* \"#utility.yul\":1426:1427   */\n      dup2\n        /* \"#utility.yul\":1422:1432   */\n      add\n        /* \"#utility.yul\":1417:1432   */\n      swap1\n      pop\n        /* \"#utility.yul\":1393:1506   */\n      jump(tag_144)\n    tag_146:\n        /* \"#utility.yul\":1540:1541   */\n      0x00\n        /* \"#utility.yul\":1531:1537   */\n      dup5\n        /* \"#utility.yul\":1526:1529   */\n      dup5\n        /* \"#utility.yul\":1522:1538   */\n      add\n        /* \"#utility.yul\":1515:1542   */\n      mstore\n        /* \"#utility.yul\":1364:1548   */\n      pop\n        /* \"#utility.yul\":1302:1548   */\n      pop\n      pop\n      pop\n      jump\t// out\n        /* \"#utility.yul\":1554:1656   */\n    tag_87:\n        /* \"#utility.yul\":1595:1601   */\n      0x00\n        /* \"#utility.yul\":1646:1648   */\n      0x1f\n        /* \"#utility.yul\":1642:1649   */\n      not\n        /* \"#utility.yul\":1637:1639   */\n      0x1f\n        /* \"#utility.yul\":1630:1635   */\n      dup4\n        /* \"#utility.yul\":1626:1640   */\n      add\n        /* \"#utility.yul\":1622:1650   */\n      and\n        /* \"#utility.yul\":1612:1650   */\n      swap1\n      pop\n        /* \"#utility.yul\":1554:1656   */\n      swap2\n      swap1\n      pop\n      jump\t// out\n        /* \"#utility.yul\":1662:2039   */\n    tag_88:\n        /* \"#utility.yul\":1750:1753   */\n      0x00\n        /* \"#utility.yul\":1778:1817   */\n      tag_149\n        /* \"#utility.yul\":1811:1816   */\n      dup3\n        /* \"#utility.yul\":1778:1817   */\n      tag_84\n      jump\t// in\n    tag_149:\n        /* \"#utility.yul\":1833:1904   */\n      tag_150\n        /* \"#utility.yul\":1897:1903   */\n      dup2\n        /* \"#utility.yul\":1892:1895   */\n      dup6\n        /* \"#utility.yul\":1833:1904   */\n      tag_85\n      jump\t// in\n    tag_150:\n        /* \"#utility.yul\":1826:1904   */\n      swap4\n      pop\n        /* \"#utility.yul\":1913:1978   */\n      tag_151\n        /* \"#utility.yul\":1971:1977   */\n      dup2\n        /* \"#utility.yul\":1966:1969   */\n      dup6\n        /* \"#utility.yul\":1959:1963   */\n      0x20\n        /* \"#utility.yul\":1952:1957   */\n      dup7\n        /* \"#utility.yul\":1948:1964   */\n      add\n        /* \"#utility.yul\":1913:1978   */\n      tag_86\n      jump\t// in\n    tag_151:\n        /* \"#utility.yul\":2003:2032   */\n      tag_152\n        /* \"#utility.yul\":2025:2031   */\n      dup2\n        /* \"#utility.yul\":2003:2032   */\n      tag_87\n      jump\t// in\n    tag_152:\n        /* \"#utility.yul\":1998:2001   */\n      dup5\n        /* \"#utility.yul\":1994:2033   */\n      add\n        /* \"#utility.yul\":1987:2033   */\n      swap2\n      pop\n        /* \"#utility.yul\":1754:2039   */\n      pop\n        /* \"#utility.yul\":1662:2039   */\n      swap3\n      swap2\n      pop\n      pop\n      jump\t// out\n        /* \"#utility.yul\":2045:2358   */\n    tag_11:\n        /* \"#utility.yul\":2158:2162   */\n      0x00\n        /* \"#utility.yul\":2196:2198   */\n      0x20\n        /* \"#utility.yul\":2185:2194   */\n      dup3\n        /* \"#utility.yul\":2181:2199   */\n      add\n        /* \"#utility.yul\":2173:2199   */\n      swap1\n      pop\n        /* \"#utility.yul\":2245:2254   */\n      dup2\n        /* \"#utility.yul\":2239:2243   */\n      dup2\n        /* \"#utility.yul\":2235:2255   */\n      sub\n        /* \"#utility.yul\":2231:2232   */\n      0x00\n        /* \"#utility.yul\":2220:2229   */\n      dup4\n        /* \"#utility.yul\":2216:2233   */\n      add\n        /* \"#utility.yul\":2209:2256   */\n      mstore\n        /* \"#utility.yul\":2273:2351   */\n      tag_154\n        /* \"#utility.yul\":2346:2350   */\n      dup2\n        /* \"#utility.yul\":2337:2343   */\n      dup5\n        /* \"#utility.yul\":2273:2351   */\n      tag_88\n      jump\t// in\n    tag_154:\n        /* \"#utility.yul\":2265:2351   */\n      swap1\n      pop\n        /* \"#utility.yul\":2045:2358   */\n      swap3\n      swap2\n      pop\n      pop\n      jump\t// out\n        /* \"#utility.yul\":2364:2481   */\n    tag_89:\n        /* \"#utility.yul\":2473:2474   */\n      0x00\n        /* \"#utility.yul\":2470:2471   */\n      dup1\n        /* \"#utility.yul\":2463:2475   */\n      revert\n        /* \"#utility.yul\":2487:2604   */\n    tag_90:\n        /* \"#utility.yul\":2596:2597   */\n      0x00\n        /* \"#utility.yul\":2593:2594   */\n      dup1\n        /* \"#utility.yul\":2586:2598   */\n      revert\n        /* \"#utility.yul\":2610:2790   */\n    tag_91:\n        /* \"#utility.yul\":2658:2735   */\n      0x4e487b7100000000000000000000000000000000000000000000000000000000\n        /* \"#utility.yul\":2655:2656   */\n      0x00\n        /* \"#utility.yul\":2648:2736   */\n      mstore\n        /* \"#utility.yul\":2755:2759   */\n      0x41\n        /* \"#utility.yul\":2752:2753   */\n      0x04\n        /* \"#utility.yul\":2745:2760   */\n      mstore\n        /* \"#utility.yul\":2779:2783   */\n      0x24\n        /* \"#utility.yul\":2776:2777   */\n      0x00\n        /* \"#utility.yul\":2769:2784   */\n      revert\n        /* \"#utility.yul\":2796:3077   */\n    tag_92:\n        /* \"#utility.yul\":2879:2906   */\n      tag_159\n        /* \"#utility.yul\":2901:2905   */\n      dup3\n        /* \"#utility.yul\":2879:2906   */\n      tag_87\n      jump\t// in\n    tag_159:\n        /* \"#utility.yul\":2871:2877   */\n      dup2\n        /* \"#utility.yul\":2867:2907   */\n      add\n        /* \"#utility.yul\":3009:3015   */\n      dup2\n        /* \"#utility.yul\":2997:3007   */\n      dup2\n        /* \"#utility.yul\":2994:3016   */\n      lt\n        /* \"#utility.yul\":2973:2991   */\n      0xffffffffffffffff\n        /* \"#utility.yul\":2961:2971   */\n      dup3\n        /* \"#utility.yul\":2958:2992   */\n      gt\n        /* \"#utility.yul\":2955:3017   */\n      or\n        /* \"#utility.yul\":2952:3040   */\n      iszero\n      tag_160\n      jumpi\n        /* \"#utility.yul\":3020:3038   */\n      tag_161\n      tag_91\n      jump\t// in\n    tag_161:\n        /* \"#utility.yul\":2952:3040   */\n    tag_160:\n        /* \"#utility.yul\":3060:3070   */\n      dup1\n        /* \"#utility.yul\":3056:3058   */\n      0x40\n        /* \"#utility.yul\":3049:3071   */\n      mstore\n        /* \"#utility.yul\":2839:3077   */\n      pop\n        /* \"#utility.yul\":2796:3077   */\n      pop\n      pop\n      jump\t// out\n        /* \"#utility.yul\":3083:3212   */\n    tag_93:\n        /* \"#utility.yul\":3117:3123   */\n      0x00\n        /* \"#utility.yul\":3144:3164   */\n      tag_163\n      tag_78\n      jump\t// in\n    tag_163:\n        /* \"#utility.yul\":3134:3164   */\n      swap1\n      pop\n        /* \"#utility.yul\":3173:3206   */\n      tag_164\n        /* \"#utility.yul\":3201:3205   */\n      dup3\n        /* \"#utility.yul\":3193:3199   */\n      dup3\n        /* \"#utility.yul\":3173:3206   */\n      tag_92\n      jump\t// in\n    tag_164:\n        /* \"#utility.yul\":3083:3212   */\n      swap2\n      swap1\n      pop\n      jump\t// out\n        /* \"#utility.yul\":3218:3526   */\n    tag_94:\n        /* \"#utility.yul\":3280:3284   */\n      0x00\n        /* \"#utility.yul\":3370:3388   */\n      0xffffffffffffffff\n        /* \"#utility.yul\":3362:3368   */\n      dup3\n        /* \"#utility.yul\":3359:3389   */\n      gt\n        /* \"#utility.yul\":3356:3412   */\n      iszero\n      tag_166\n      jumpi\n        /* \"#utility.yul\":3392:3410   */\n      tag_167\n      tag_91\n      jump\t// in\n    tag_167:\n        /* \"#utility.yul\":3356:3412   */\n    tag_166:\n        /* \"#utility.yul\":3430:3459   */\n      tag_168\n        /* \"#utility.yul\":3452:3458   */\n      dup3\n        /* \"#utility.yul\":3430:3459   */\n      tag_87\n      jump\t// in\n    tag_168:\n        /* \"#utility.yul\":3422:3459   */\n      swap1\n      pop\n        /* \"#utility.yul\":3514:3518   */\n      0x20\n        /* \"#utility.yul\":3508:3512   */\n      dup2\n        /* \"#utility.yul\":3504:3519   */\n      add\n        /* \"#utility.yul\":3496:3519   */\n      swap1\n      pop\n        /* \"#utility.yul\":3218:3526   */\n      swap2\n      swap1\n      pop\n      jump\t// out\n        /* \"#utility.yul\":3532:3678   */\n    tag_95:\n        /* \"#utility.yul\":3629:3635   */\n      dup3\n        /* \"#utility.yul\":3624:3627   */\n      dup2\n        /* \"#utility.yul\":3619:3622   */\n      dup4\n        /* \"#utility.yul\":3606:3636   */\n      calldatacopy\n        /* \"#utility.yul\":3670:3671   */\n      0x00\n        /* \"#utility.yul\":3661:3667   */\n      dup4\n        /* \"#utility.yul\":3656:3659   */\n      dup4\n        /* \"#utility.yul\":3652:3668   */\n      add\n        /* \"#utility.yul\":3645:3672   */\n      mstore\n        /* \"#utility.yul\":3532:3678   */\n      pop\n      pop\n      pop\n      jump\t// out\n        /* \"#utility.yul\":3684:4109   */\n    tag_96:\n        /* \"#utility.yul\":3762:3767   */\n      0x00\n        /* \"#utility.yul\":3787:3853   */\n      tag_171\n        /* \"#utility.yul\":3803:3852   */\n      tag_172\n        /* \"#utility.yul\":3845:3851   */\n      dup5\n        /* \"#utility.yul\":3803:3852   */\n      tag_94\n      jump\t// in\n    tag_172:\n        /* \"#utility.yul\":3787:3853   */\n      tag_93\n      jump\t// in\n    tag_171:\n        /* \"#utility.yul\":3778:3853   */\n      swap1\n      pop\n        /* \"#utility.yul\":3876:3882   */\n      dup3\n        /* \"#utility.yul\":3869:3874   */\n      dup2\n        /* \"#utility.yul\":3862:3883   */\n      mstore\n        /* \"#utility.yul\":3914:3918   */\n      0x20\n        /* \"#utility.yul\":3907:3912   */\n      dup2\n        /* \"#utility.yul\":3903:3919   */\n      add\n        /* \"#utility.yul\":3952:3955   */\n      dup5\n        /* \"#utility.yul\":3943:3949   */\n      dup5\n        /* \"#utility.yul\":3938:3941   */\n      dup5\n        /* \"#utility.yul\":3934:3950   */\n      add\n        /* \"#utility.yul\":3931:3956   */\n      gt\n        /* \"#utility.yul\":3928:4040   */\n      iszero\n      tag_173\n      jumpi\n        /* \"#utility.yul\":3959:4038   */\n      tag_174\n      tag_90\n      jump\t// in\n    tag_174:\n        /* \"#utility.yul\":3928:4040   */\n    tag_173:\n        /* \"#utility.yul\":4049:4103   */\n      tag_175\n        /* \"#utility.yul\":4096:4102   */\n      dup5\n        /* \"#utility.yul\":4091:4094   */\n      dup3\n        /* \"#utility.yul\":4086:4089   */\n      dup6\n        /* \"#utility.yul\":4049:4103   */\n      tag_95\n      jump\t// in\n    tag_175:\n        /* \"#utility.yul\":3768:4109   */\n      pop\n        /* \"#utility.yul\":3684:4109   */\n      swap4\n      swap3\n      pop\n      pop\n      pop\n      jump\t// out\n        /* \"#utility.yul\":4129:4469   */\n    tag_97:\n        /* \"#utility.yul\":4185:4190   */\n      0x00\n        /* \"#utility.yul\":4234:4237   */\n      dup3\n        /* \"#utility.yul\":4227:4231   */\n      0x1f\n        /* \"#utility.yul\":4219:4225   */\n      dup4\n        /* \"#utility.yul\":4215:4232   */\n      add\n        /* \"#utility.yul\":4211:4238   */\n      slt\n        /* \"#utility.yul\":4201:4323   */\n      tag_177\n      jumpi\n        /* \"#utility.yul\":4242:4321   */\n      tag_178\n      tag_89\n      jump\t// in\n    tag_178:\n        /* \"#utility.yul\":4201:4323   */\n    tag_177:\n        /* \"#utility.yul\":4359:4365   */\n      dup2\n        /* \"#utility.yul\":4346:4366   */\n      calldataload\n        /* \"#utility.yul\":4384:4463   */\n      tag_179\n        /* \"#utility.yul\":4459:4462   */\n      dup5\n        /* \"#utility.yul\":4451:4457   */\n      dup3\n        /* \"#utility.yul\":4444:4448   */\n      0x20\n        /* \"#utility.yul\":4436:4442   */\n      dup7\n        /* \"#utility.yul\":4432:4449   */\n      add\n        /* \"#utility.yul\":4384:4463   */\n      tag_96\n      jump\t// in\n    tag_179:\n        /* \"#utility.yul\":4375:4463   */\n      swap2\n      pop\n        /* \"#utility.yul\":4191:4469   */\n      pop\n        /* \"#utility.yul\":4129:4469   */\n      swap3\n      swap2\n      pop\n      pop\n      jump\t// out\n        /* \"#utility.yul\":4475:4984   */\n    tag_14:\n        /* \"#utility.yul\":4544:4550   */\n      0x00\n        /* \"#utility.yul\":4593:4595   */\n      0x20\n        /* \"#utility.yul\":4581:4590   */\n      dup3\n        /* \"#utility.yul\":4572:4579   */\n      dup5\n        /* \"#utility.yul\":4568:4591   */\n      sub\n        /* \"#utility.yul\":4564:4596   */\n      slt\n        /* \"#utility.yul\":4561:4680   */\n      iszero\n      tag_181\n      jumpi\n        /* \"#utility.yul\":4599:4678   */\n      tag_182\n      tag_79\n      jump\t// in\n    tag_182:\n        /* \"#utility.yul\":4561:4680   */\n    tag_181:\n        /* \"#utility.yul\":4747:4748   */\n      0x00\n        /* \"#utility.yul\":4736:4745   */\n      dup3\n        /* \"#utility.yul\":4732:4749   */\n      add\n        /* \"#utility.yul\":4719:4750   */\n      calldataload\n        /* \"#utility.yul\":4777:4795   */\n      0xffffffffffffffff\n        /* \"#utility.yul\":4769:4775   */\n      dup2\n        /* \"#utility.yul\":4766:4796   */\n      gt\n        /* \"#utility.yul\":4763:4880   */\n      iszero\n      tag_183\n      jumpi\n        /* \"#utility.yul\":4799:4878   */\n      tag_184\n      tag_80\n      jump\t// in\n    tag_184:\n        /* \"#utility.yul\":4763:4880   */\n    tag_183:\n        /* \"#utility.yul\":4904:4967   */\n      tag_185\n        /* \"#utility.yul\":4959:4966   */\n      dup5\n        /* \"#utility.yul\":4950:4956   */\n      dup3\n        /* \"#utility.yul\":4939:4948   */\n      dup6\n        /* \"#utility.yul\":4935:4957   */\n      add\n        /* \"#utility.yul\":4904:4967   */\n      tag_97\n      jump\t// in\n    tag_185:\n        /* \"#utility.yul\":4894:4967   */\n      swap2\n      pop\n        /* \"#utility.yul\":4690:4977   */\n      pop\n        /* \"#utility.yul\":4475:4984   */\n      swap3\n      swap2\n      pop\n      pop\n      jump\t// out\n        /* \"#utility.yul\":4990:5160   */\n    tag_98:\n        /* \"#utility.yul\":5130:5152   */\n      0x506c617920776974683a20302c2031206f722032000000000000000000000000\n        /* \"#utility.yul\":5126:5127   */\n      0x00\n        /* \"#utility.yul\":5118:5124   */\n      dup3\n        /* \"#utility.yul\":5114:5128   */\n      add\n        /* \"#utility.yul\":5107:5153   */\n      mstore\n        /* \"#utility.yul\":4990:5160   */\n      pop\n      jump\t// out\n        /* \"#utility.yul\":5166:5532   */\n    tag_99:\n        /* \"#utility.yul\":5308:5311   */\n      0x00\n        /* \"#utility.yul\":5329:5396   */\n      tag_188\n        /* \"#utility.yul\":5393:5395   */\n      0x14\n        /* \"#utility.yul\":5388:5391   */\n      dup4\n        /* \"#utility.yul\":5329:5396   */\n      tag_85\n      jump\t// in\n    tag_188:\n        /* \"#utility.yul\":5322:5396   */\n      swap2\n      pop\n        /* \"#utility.yul\":5405:5498   */\n      tag_189\n        /* \"#utility.yul\":5494:5497   */\n      dup3\n        /* \"#utility.yul\":5405:5498   */\n      tag_98\n      jump\t// in\n    tag_189:\n        /* \"#utility.yul\":5523:5525   */\n      0x20\n        /* \"#utility.yul\":5518:5521   */\n      dup3\n        /* \"#utility.yul\":5514:5526   */\n      add\n        /* \"#utility.yul\":5507:5526   */\n      swap1\n      pop\n        /* \"#utility.yul\":5166:5532   */\n      swap2\n      swap1\n      pop\n      jump\t// out\n        /* \"#utility.yul\":5538:5957   */\n    tag_23:\n        /* \"#utility.yul\":5704:5708   */\n      0x00\n        /* \"#utility.yul\":5742:5744   */\n      0x20\n        /* \"#utility.yul\":5731:5740   */\n      dup3\n        /* \"#utility.yul\":5727:5745   */\n      add\n        /* \"#utility.yul\":5719:5745   */\n      swap1\n      pop\n        /* \"#utility.yul\":5791:5800   */\n      dup2\n        /* \"#utility.yul\":5785:5789   */\n      dup2\n        /* \"#utility.yul\":5781:5801   */\n      sub\n        /* \"#utility.yul\":5777:5778   */\n      0x00\n        /* \"#utility.yul\":5766:5775   */\n      dup4\n        /* \"#utility.yul\":5762:5779   */\n      add\n        /* \"#utility.yul\":5755:5802   */\n      mstore\n        /* \"#utility.yul\":5819:5950   */\n      tag_191\n        /* \"#utility.yul\":5945:5949   */\n      dup2\n        /* \"#utility.yul\":5819:5950   */\n      tag_99\n      jump\t// in\n    tag_191:\n        /* \"#utility.yul\":5811:5950   */\n      swap1\n      pop\n        /* \"#utility.yul\":5538:5957   */\n      swap2\n      swap1\n      pop\n      jump\t// out\n        /* \"#utility.yul\":5963:6143   */\n    tag_100:\n        /* \"#utility.yul\":6011:6088   */\n      0x4e487b7100000000000000000000000000000000000000000000000000000000\n        /* \"#utility.yul\":6008:6009   */\n      0x00\n        /* \"#utility.yul\":6001:6089   */\n      mstore\n        /* \"#utility.yul\":6108:6112   */\n      0x22\n        /* \"#utility.yul\":6105:6106   */\n      0x04\n        /* \"#utility.yul\":6098:6113   */\n      mstore\n        /* \"#utility.yul\":6132:6136   */\n      0x24\n        /* \"#utility.yul\":6129:6130   */\n      0x00\n        /* \"#utility.yul\":6122:6137   */\n      revert\n        /* \"#utility.yul\":6149:6469   */\n    tag_26:\n        /* \"#utility.yul\":6193:6199   */\n      0x00\n        /* \"#utility.yul\":6230:6231   */\n      0x02\n        /* \"#utility.yul\":6224:6228   */\n      dup3\n        /* \"#utility.yul\":6220:6232   */\n      div\n        /* \"#utility.yul\":6210:6232   */\n      swap1\n      pop\n        /* \"#utility.yul\":6277:6278   */\n      0x01\n        /* \"#utility.yul\":6271:6275   */\n      dup3\n        /* \"#utility.yul\":6267:6279   */\n      and\n        /* \"#utility.yul\":6298:6316   */\n      dup1\n        /* \"#utility.yul\":6288:6369   */\n      tag_194\n      jumpi\n        /* \"#utility.yul\":6354:6358   */\n      0x7f\n        /* \"#utility.yul\":6346:6352   */\n      dup3\n        /* \"#utility.yul\":6342:6359   */\n      and\n        /* \"#utility.yul\":6332:6359   */\n      swap2\n      pop\n        /* \"#utility.yul\":6288:6369   */\n    tag_194:\n        /* \"#utility.yul\":6416:6418   */\n      0x20\n        /* \"#utility.yul\":6408:6414   */\n      dup3\n        /* \"#utility.yul\":6405:6419   */\n      lt\n        /* \"#utility.yul\":6385:6403   */\n      dup2\n        /* \"#utility.yul\":6382:6420   */\n      sub\n        /* \"#utility.yul\":6379:6463   */\n      tag_195\n      jumpi\n        /* \"#utility.yul\":6435:6453   */\n      tag_196\n      tag_100\n      jump\t// in\n    tag_196:\n        /* \"#utility.yul\":6379:6463   */\n    tag_195:\n        /* \"#utility.yul\":6200:6469   */\n      pop\n        /* \"#utility.yul\":6149:6469   */\n      swap2\n      swap1\n      pop\n      jump\t// out\n        /* \"#utility.yul\":6475:6651   */\n    tag_101:\n        /* \"#utility.yul\":6615:6643   */\n      0x46697273742c2063686f6f73653a204556454e206f72204f4444000000000000\n        /* \"#utility.yul\":6611:6612   */\n      0x00\n        /* \"#utility.yul\":6603:6609   */\n      dup3\n        /* \"#utility.yul\":6599:6613   */\n      add\n        /* \"#utility.yul\":6592:6644   */\n      mstore\n        /* \"#utility.yul\":6475:6651   */\n      pop\n      jump\t// out\n        /* \"#utility.yul\":6657:7023   */\n    tag_102:\n        /* \"#utility.yul\":6799:6802   */\n      0x00\n        /* \"#utility.yul\":6820:6887   */\n      tag_199\n        /* \"#utility.yul\":6884:6886   */\n      0x1a\n        /* \"#utility.yul\":6879:6882   */\n      dup4\n        /* \"#utility.yul\":6820:6887   */\n      tag_85\n      jump\t// in\n    tag_199:\n        /* \"#utility.yul\":6813:6887   */\n      swap2\n      pop\n        /* \"#utility.yul\":6896:6989   */\n      tag_200\n        /* \"#utility.yul\":6985:6988   */\n      dup3\n        /* \"#utility.yul\":6896:6989   */\n      tag_101\n      jump\t// in\n    tag_200:\n        /* \"#utility.yul\":7014:7016   */\n      0x20\n        /* \"#utility.yul\":7009:7012   */\n      dup3\n        /* \"#utility.yul\":7005:7017   */\n      add\n        /* \"#utility.yul\":6998:7017   */\n      swap1\n      pop\n        /* \"#utility.yul\":6657:7023   */\n      swap2\n      swap1\n      pop\n      jump\t// out\n        /* \"#utility.yul\":7029:7448   */\n    tag_34:\n        /* \"#utility.yul\":7195:7199   */\n      0x00\n        /* \"#utility.yul\":7233:7235   */\n      0x20\n        /* \"#utility.yul\":7222:7231   */\n      dup3\n        /* \"#utility.yul\":7218:7236   */\n      add\n        /* \"#utility.yul\":7210:7236   */\n      swap1\n      pop\n        /* \"#utility.yul\":7282:7291   */\n      dup2\n        /* \"#utility.yul\":7276:7280   */\n      dup2\n        /* \"#utility.yul\":7272:7292   */\n      sub\n        /* \"#utility.yul\":7268:7269   */\n      0x00\n        /* \"#utility.yul\":7257:7266   */\n      dup4\n        /* \"#utility.yul\":7253:7270   */\n      add\n        /* \"#utility.yul\":7246:7293   */\n      mstore\n        /* \"#utility.yul\":7310:7441   */\n      tag_202\n        /* \"#utility.yul\":7436:7440   */\n      dup2\n        /* \"#utility.yul\":7310:7441   */\n      tag_102\n      jump\t// in\n    tag_202:\n        /* \"#utility.yul\":7302:7441   */\n      swap1\n      pop\n        /* \"#utility.yul\":7029:7448   */\n      swap2\n      swap1\n      pop\n      jump\t// out\n        /* \"#utility.yul\":7454:7531   */\n    tag_103:\n        /* \"#utility.yul\":7491:7498   */\n      0x00\n        /* \"#utility.yul\":7520:7525   */\n      dup2\n        /* \"#utility.yul\":7509:7525   */\n      swap1\n      pop\n        /* \"#utility.yul\":7454:7531   */\n      swap2\n      swap1\n      pop\n      jump\t// out\n        /* \"#utility.yul\":7537:7717   */\n    tag_104:\n        /* \"#utility.yul\":7585:7662   */\n      0x4e487b7100000000000000000000000000000000000000000000000000000000\n        /* \"#utility.yul\":7582:7583   */\n      0x00\n        /* \"#utility.yul\":7575:7663   */\n      mstore\n        /* \"#utility.yul\":7682:7686   */\n      0x11\n        /* \"#utility.yul\":7679:7680   */\n      0x04\n        /* \"#utility.yul\":7672:7687   */\n      mstore\n        /* \"#utility.yul\":7706:7710   */\n      0x24\n        /* \"#utility.yul\":7703:7704   */\n      0x00\n        /* \"#utility.yul\":7696:7711   */\n      revert\n        /* \"#utility.yul\":7723:7914   */\n    tag_38:\n        /* \"#utility.yul\":7763:7766   */\n      0x00\n        /* \"#utility.yul\":7782:7802   */\n      tag_206\n        /* \"#utility.yul\":7800:7801   */\n      dup3\n        /* \"#utility.yul\":7782:7802   */\n      tag_103\n      jump\t// in\n    tag_206:\n        /* \"#utility.yul\":7777:7802   */\n      swap2\n      pop\n        /* \"#utility.yul\":7816:7836   */\n      tag_207\n        /* \"#utility.yul\":7834:7835   */\n      dup4\n        /* \"#utility.yul\":7816:7836   */\n      tag_103\n      jump\t// in\n    tag_207:\n        /* \"#utility.yul\":7811:7836   */\n      swap3\n      pop\n        /* \"#utility.yul\":7859:7860   */\n      dup3\n        /* \"#utility.yul\":7856:7857   */\n      dup3\n        /* \"#utility.yul\":7852:7861   */\n      add\n        /* \"#utility.yul\":7845:7861   */\n      swap1\n      pop\n        /* \"#utility.yul\":7880:7883   */\n      dup1\n        /* \"#utility.yul\":7877:7878   */\n      dup3\n        /* \"#utility.yul\":7874:7884   */\n      gt\n        /* \"#utility.yul\":7871:7907   */\n      iszero\n      tag_208\n      jumpi\n        /* \"#utility.yul\":7887:7905   */\n      tag_209\n      tag_104\n      jump\t// in\n    tag_209:\n        /* \"#utility.yul\":7871:7907   */\n    tag_208:\n        /* \"#utility.yul\":7723:7914   */\n      swap3\n      swap2\n      pop\n      pop\n      jump\t// out\n        /* \"#utility.yul\":7920:8100   */\n    tag_105:\n        /* \"#utility.yul\":7968:8045   */\n      0x4e487b7100000000000000000000000000000000000000000000000000000000\n        /* \"#utility.yul\":7965:7966   */\n      0x00\n        /* \"#utility.yul\":7958:8046   */\n      mstore\n        /* \"#utility.yul\":8065:8069   */\n      0x12\n        /* \"#utility.yul\":8062:8063   */\n      0x04\n        /* \"#utility.yul\":8055:8070   */\n      mstore\n        /* \"#utility.yul\":8089:8093   */\n      0x24\n        /* \"#utility.yul\":8086:8087   */\n      0x00\n        /* \"#utility.yul\":8079:8094   */\n      revert\n        /* \"#utility.yul\":8106:8282   */\n    tag_40:\n        /* \"#utility.yul\":8138:8139   */\n      0x00\n        /* \"#utility.yul\":8155:8175   */\n      tag_212\n        /* \"#utility.yul\":8173:8174   */\n      dup3\n        /* \"#utility.yul\":8155:8175   */\n      tag_103\n      jump\t// in\n    tag_212:\n        /* \"#utility.yul\":8150:8175   */\n      swap2\n      pop\n        /* \"#utility.yul\":8189:8209   */\n      tag_213\n        /* \"#utility.yul\":8207:8208   */\n      dup4\n        /* \"#utility.yul\":8189:8209   */\n      tag_103\n      jump\t// in\n    tag_213:\n        /* \"#utility.yul\":8184:8209   */\n      swap3\n      pop\n        /* \"#utility.yul\":8228:8229   */\n      dup3\n        /* \"#utility.yul\":8218:8253   */\n      tag_214\n      jumpi\n        /* \"#utility.yul\":8233:8251   */\n      tag_215\n      tag_105\n      jump\t// in\n    tag_215:\n        /* \"#utility.yul\":8218:8253   */\n    tag_214:\n        /* \"#utility.yul\":8274:8275   */\n      dup3\n        /* \"#utility.yul\":8271:8272   */\n      dup3\n        /* \"#utility.yul\":8267:8276   */\n      mod\n        /* \"#utility.yul\":8262:8276   */\n      swap1\n      pop\n        /* \"#utility.yul\":8106:8282   */\n      swap3\n      swap2\n      pop\n      pop\n      jump\t// out\n        /* \"#utility.yul\":8288:8457   */\n    tag_106:\n        /* \"#utility.yul\":8428:8449   */\n      0x43686f6f73653a204556454e206f72204f444400000000000000000000000000\n        /* \"#utility.yul\":8424:8425   */\n      0x00\n        /* \"#utility.yul\":8416:8422   */\n      dup3\n        /* \"#utility.yul\":8412:8426   */\n      add\n        /* \"#utility.yul\":8405:8450   */\n      mstore\n        /* \"#utility.yul\":8288:8457   */\n      pop\n      jump\t// out\n        /* \"#utility.yul\":8463:8829   */\n    tag_107:\n        /* \"#utility.yul\":8605:8608   */\n      0x00\n        /* \"#utility.yul\":8626:8693   */\n      tag_218\n        /* \"#utility.yul\":8690:8692   */\n      0x13\n        /* \"#utility.yul\":8685:8688   */\n      dup4\n        /* \"#utility.yul\":8626:8693   */\n      tag_85\n      jump\t// in\n    tag_218:\n        /* \"#utility.yul\":8619:8693   */\n      swap2\n      pop\n        /* \"#utility.yul\":8702:8795   */\n      tag_219\n        /* \"#utility.yul\":8791:8794   */\n      dup3\n        /* \"#utility.yul\":8702:8795   */\n      tag_106\n      jump\t// in\n    tag_219:\n        /* \"#utility.yul\":8820:8822   */\n      0x20\n        /* \"#utility.yul\":8815:8818   */\n      dup3\n        /* \"#utility.yul\":8811:8823   */\n      add\n        /* \"#utility.yul\":8804:8823   */\n      swap1\n      pop\n        /* \"#utility.yul\":8463:8829   */\n      swap2\n      swap1\n      pop\n      jump\t// out\n        /* \"#utility.yul\":8835:9254   */\n    tag_65:\n        /* \"#utility.yul\":9001:9005   */\n      0x00\n        /* \"#utility.yul\":9039:9041   */\n      0x20\n        /* \"#utility.yul\":9028:9037   */\n      dup3\n        /* \"#utility.yul\":9024:9042   */\n      add\n        /* \"#utility.yul\":9016:9042   */\n      swap1\n      pop\n        /* \"#utility.yul\":9088:9097   */\n      dup2\n        /* \"#utility.yul\":9082:9086   */\n      dup2\n        /* \"#utility.yul\":9078:9098   */\n      sub\n        /* \"#utility.yul\":9074:9075   */\n      0x00\n        /* \"#utility.yul\":9063:9072   */\n      dup4\n        /* \"#utility.yul\":9059:9076   */\n      add\n        /* \"#utility.yul\":9052:9099   */\n      mstore\n        /* \"#utility.yul\":9116:9247   */\n      tag_221\n        /* \"#utility.yul\":9242:9246   */\n      dup2\n        /* \"#utility.yul\":9116:9247   */\n      tag_107\n      jump\t// in\n    tag_221:\n        /* \"#utility.yul\":9108:9247   */\n      swap1\n      pop\n        /* \"#utility.yul\":8835:9254   */\n      swap2\n      swap1\n      pop\n      jump\t// out\n        /* \"#utility.yul\":9260:9401   */\n    tag_108:\n        /* \"#utility.yul\":9309:9313   */\n      0x00\n        /* \"#utility.yul\":9332:9335   */\n      dup2\n        /* \"#utility.yul\":9324:9335   */\n      swap1\n      pop\n        /* \"#utility.yul\":9355:9358   */\n      dup2\n        /* \"#utility.yul\":9352:9353   */\n      0x00\n        /* \"#utility.yul\":9345:9359   */\n      mstore\n        /* \"#utility.yul\":9389:9393   */\n      0x20\n        /* \"#utility.yul\":9386:9387   */\n      0x00\n        /* \"#utility.yul\":9376:9394   */\n      keccak256\n        /* \"#utility.yul\":9368:9394   */\n      swap1\n      pop\n        /* \"#utility.yul\":9260:9401   */\n      swap2\n      swap1\n      pop\n      jump\t// out\n        /* \"#utility.yul\":9407:9500   */\n    tag_109:\n        /* \"#utility.yul\":9444:9450   */\n      0x00\n        /* \"#utility.yul\":9491:9493   */\n      0x20\n        /* \"#utility.yul\":9486:9488   */\n      0x1f\n        /* \"#utility.yul\":9479:9484   */\n      dup4\n        /* \"#utility.yul\":9475:9489   */\n      add\n        /* \"#utility.yul\":9471:9494   */\n      div\n        /* \"#utility.yul\":9461:9494   */\n      swap1\n      pop\n        /* \"#utility.yul\":9407:9500   */\n      swap2\n      swap1\n      pop\n      jump\t// out\n        /* \"#utility.yul\":9506:9613   */\n    tag_110:\n        /* \"#utility.yul\":9550:9558   */\n      0x00\n        /* \"#utility.yul\":9600:9605   */\n      dup3\n        /* \"#utility.yul\":9594:9598   */\n      dup3\n        /* \"#utility.yul\":9590:9606   */\n      shl\n        /* \"#utility.yul\":9569:9606   */\n      swap1\n      pop\n        /* \"#utility.yul\":9506:9613   */\n      swap3\n      swap2\n      pop\n      pop\n      jump\t// out\n        /* \"#utility.yul\":9619:10012   */\n    tag_111:\n        /* \"#utility.yul\":9688:9694   */\n      0x00\n        /* \"#utility.yul\":9738:9739   */\n      0x08\n        /* \"#utility.yul\":9726:9736   */\n      dup4\n        /* \"#utility.yul\":9722:9740   */\n      mul\n        /* \"#utility.yul\":9761:9858   */\n      tag_226\n        /* \"#utility.yul\":9791:9857   */\n      0xffffffffffffffffffffffffffffffffffffffffffffffffffffffffffffffff\n        /* \"#utility.yul\":9780:9789   */\n      dup3\n        /* \"#utility.yul\":9761:9858   */\n      tag_110\n      jump\t// in\n    tag_226:\n        /* \"#utility.yul\":9879:9918   */\n      tag_227\n        /* \"#utility.yul\":9909:9917   */\n      dup7\n        /* \"#utility.yul\":9898:9907   */\n      dup4\n        /* \"#utility.yul\":9879:9918   */\n      tag_110\n      jump\t// in\n    tag_227:\n        /* \"#utility.yul\":9867:9918   */\n      swap6\n      pop\n        /* \"#utility.yul\":9951:9955   */\n      dup1\n        /* \"#utility.yul\":9947:9956   */\n      not\n        /* \"#utility.yul\":9940:9945   */\n      dup5\n        /* \"#utility.yul\":9936:9957   */\n      and\n        /* \"#utility.yul\":9927:9957   */\n      swap4\n      pop\n        /* \"#utility.yul\":10000:10004   */\n      dup1\n        /* \"#utility.yul\":9990:9998   */\n      dup7\n        /* \"#utility.yul\":9986:10005   */\n      and\n        /* \"#utility.yul\":9979:9984   */\n      dup5\n        /* \"#utility.yul\":9976:10006   */\n      or\n        /* \"#utility.yul\":9966:10006   */\n      swap3\n      pop\n        /* \"#utility.yul\":9695:10012   */\n      pop\n      pop\n        /* \"#utility.yul\":9619:10012   */\n      swap4\n      swap3\n      pop\n      pop\n      pop\n      jump\t// out\n        /* \"#utility.yul\":10018:10078   */\n    tag_112:\n        /* \"#utility.yul\":10046:10049   */\n      0x00\n        /* \"#utility.yul\":10067:10072   */\n      dup2\n        /* \"#utility.yul\":10060:10072   */\n      swap1\n      pop\n        /* \"#utility.yul\":10018:10078   */\n      swap2\n      swap1\n      pop\n      jump\t// out\n        /* \"#utility.yul\":10084:10226   */\n    tag_113:\n        /* \"#utility.yul\":10134:10143   */\n      0x00\n        /* \"#utility.yul\":10167:10220   */\n      tag_230\n        /* \"#utility.yul\":10185:10219   */\n      tag_231\n        /* \"#utility.yul\":10194:10218   */\n      tag_232\n        /* \"#utility.yul\":10212:10217   */\n      dup5\n        /* \"#utility.yul\":10194:10218   */\n      tag_103\n      jump\t// in\n    tag_232:\n        /* \"#utility.yul\":10185:10219   */\n      tag_112\n      jump\t// in\n    tag_231:\n        /* \"#utility.yul\":10167:10220   */\n      tag_103\n      jump\t// in\n    tag_230:\n        /* \"#utility.yul\":10154:10220   */\n      swap1\n      pop\n        /* \"#utility.yul\":10084:10226   */\n      swap2\n      swap1\n      pop\n      jump\t// out\n        /* \"#utility.yul\":10232:10307   */\n    tag_114:\n        /* \"#utility.yul\":10275:10278   */\n      0x00\n        /* \"#utility.yul\":10296:10301   */\n      dup2\n        /* \"#utility.yul\":10289:10301   */\n      swap1\n      pop\n        /* \"#utility.yul\":10232:10307   */\n      swap2\n      swap1\n      pop\n      jump\t// out\n        /* \"#utility.yul\":10313:10582   */\n    tag_115:\n        /* \"#utility.yul\":10423:10462   */\n      tag_235\n        /* \"#utility.yul\":10454:10461   */\n      dup4\n        /* \"#utility.yul\":10423:10462   */\n      tag_113\n      jump\t// in\n    tag_235:\n        /* \"#utility.yul\":10484:10575   */\n      tag_236\n        /* \"#utility.yul\":10533:10574   */\n      tag_237\n        /* \"#utility.yul\":10557:10573   */\n      dup3\n        /* \"#utility.yul\":10533:10574   */\n      tag_114\n      jump\t// in\n    tag_237:\n        /* \"#utility.yul\":10525:10531   */\n      dup5\n        /* \"#utility.yul\":10518:10522   */\n      dup5\n        /* \"#utility.yul\":10512:10523   */\n      sload\n        /* \"#utility.yul\":10484:10575   */\n      tag_111\n      jump\t// in\n    tag_236:\n        /* \"#utility.yul\":10478:10482   */\n      dup3\n        /* \"#utility.yul\":10471:10576   */\n      sstore\n        /* \"#utility.yul\":10389:10582   */\n      pop\n        /* \"#utility.yul\":10313:10582   */\n      pop\n      pop\n      pop\n      jump\t// out\n        /* \"#utility.yul\":10588:10661   */\n    tag_116:\n        /* \"#utility.yul\":10633:10636   */\n      0x00\n        /* \"#utility.yul\":10588:10661   */\n      swap1\n      jump\t// out\n        /* \"#utility.yul\":10667:10856   */\n    tag_117:\n        /* \"#utility.yul\":10744:10776   */\n      tag_240\n      tag_116\n      jump\t// in\n    tag_240:\n        /* \"#utility.yul\":10785:10850   */\n      tag_241\n        /* \"#utility.yul\":10843:10849   */\n      dup2\n        /* \"#utility.yul\":10835:10841   */\n      dup5\n        /* \"#utility.yul\":10829:10833   */\n      dup5\n        /* \"#utility.yul\":10785:10850   */\n      tag_115\n      jump\t// in\n    tag_241:\n        /* \"#utility.yul\":10720:10856   */\n      pop\n        /* \"#utility.yul\":10667:10856   */\n      pop\n      pop\n      jump\t// out\n        /* \"#utility.yul\":10862:11048   */\n    tag_118:\n        /* \"#utility.yul\":10922:11042   */\n    tag_243:\n        /* \"#utility.yul\":10939:10942   */\n      dup2\n        /* \"#utility.yul\":10932:10937   */\n      dup2\n        /* \"#utility.yul\":10929:10943   */\n      lt\n        /* \"#utility.yul\":10922:11042   */\n      iszero\n      tag_245\n      jumpi\n        /* \"#utility.yul\":10993:11032   */\n      tag_246\n        /* \"#utility.yul\":11030:11031   */\n      0x00\n        /* \"#utility.yul\":11023:11028   */\n      dup3\n        /* \"#utility.yul\":10993:11032   */\n      tag_117\n      jump\t// in\n    tag_246:\n        /* \"#utility.yul\":10966:10967   */\n      0x01\n        /* \"#utility.yul\":10959:10964   */\n      dup2\n        /* \"#utility.yul\":10955:10968   */\n      add\n        /* \"#utility.yul\":10946:10968   */\n      swap1\n      pop\n        /* \"#utility.yul\":10922:11042   */\n      jump(tag_243)\n    tag_245:\n        /* \"#utility.yul\":10862:11048   */\n      pop\n      pop\n      jump\t// out\n        /* \"#utility.yul\":11054:11597   */\n    tag_119:\n        /* \"#utility.yul\":11155:11157   */\n      0x1f\n        /* \"#utility.yul\":11150:11153   */\n      dup3\n        /* \"#utility.yul\":11147:11158   */\n      gt\n        /* \"#utility.yul\":11144:11590   */\n      iszero\n      tag_248\n      jumpi\n        /* \"#utility.yul\":11189:11227   */\n      tag_249\n        /* \"#utility.yul\":11221:11226   */\n      dup2\n        /* \"#utility.yul\":11189:11227   */\n      tag_108\n      jump\t// in\n    tag_249:\n        /* \"#utility.yul\":11273:11302   */\n      tag_250\n        /* \"#utility.yul\":11291:11301   */\n      dup5\n        /* \"#utility.yul\":11273:11302   */\n      tag_109\n      jump\t// in\n    tag_250:\n        /* \"#utility.yul\":11263:11271   */\n      dup2\n        /* \"#utility.yul\":11259:11303   */\n      add\n        /* \"#utility.yul\":11456:11458   */\n      0x20\n        /* \"#utility.yul\":11444:11454   */\n      dup6\n        /* \"#utility.yul\":11441:11459   */\n      lt\n        /* \"#utility.yul\":11438:11487   */\n      iszero\n      tag_251\n      jumpi\n        /* \"#utility.yul\":11477:11485   */\n      dup2\n        /* \"#utility.yul\":11462:11485   */\n      swap1\n      pop\n        /* \"#utility.yul\":11438:11487   */\n    tag_251:\n        /* \"#utility.yul\":11500:11580   */\n      tag_252\n        /* \"#utility.yul\":11556:11578   */\n      tag_253\n        /* \"#utility.yul\":11574:11577   */\n      dup6\n        /* \"#utility.yul\":11556:11578   */\n      tag_109\n      jump\t// in\n    tag_253:\n        /* \"#utility.yul\":11546:11554   */\n      dup4\n        /* \"#utility.yul\":11542:11579   */\n      add\n        /* \"#utility.yul\":11529:11540   */\n      dup3\n        /* \"#utility.yul\":11500:11580   */\n      tag_118\n      jump\t// in\n    tag_252:\n        /* \"#utility.yul\":11159:11590   */\n      pop\n      pop\n        /* \"#utility.yul\":11144:11590   */\n    tag_248:\n        /* \"#utility.yul\":11054:11597   */\n      pop\n      pop\n      pop\n      jump\t// out\n        /* \"#utility.yul\":11603:11720   */\n    tag_120:\n        /* \"#utility.yul\":11657:11665   */\n      0x00\n        /* \"#utility.yul\":11707:11712   */\n      dup3\n        /* \"#utility.yul\":11701:11705   */\n      dup3\n        /* \"#utility.yul\":11697:11713   */\n      shr\n        /* \"#utility.yul\":11676:11713   */\n      swap1\n      pop\n        /* \"#utility.yul\":11603:11720   */\n      swap3\n      swap2\n      pop\n      pop\n      jump\t// out\n        /* \"#utility.yul\":11726:11895   */\n    tag_121:\n        /* \"#utility.yul\":11770:11776   */\n      0x00\n        /* \"#utility.yul\":11803:11854   */\n      tag_256\n        /* \"#utility.yul\":11851:11852   */\n      0x00\n        /* \"#utility.yul\":11847:11853   */\n      not\n        /* \"#utility.yul\":11839:11844   */\n      dup5\n        /* \"#utility.yul\":11836:11837   */\n      0x08\n        /* \"#utility.yul\":11832:11845   */\n      mul\n        /* \"#utility.yul\":11803:11854   */\n      tag_120\n      jump\t// in\n    tag_256:\n        /* \"#utility.yul\":11799:11855   */\n      not\n        /* \"#utility.yul\":11884:11888   */\n      dup1\n        /* \"#utility.yul\":11878:11882   */\n      dup4\n        /* \"#utility.yul\":11874:11889   */\n      and\n        /* \"#utility.yul\":11864:11889   */\n      swap2\n      pop\n        /* \"#utility.yul\":11777:11895   */\n      pop\n        /* \"#utility.yul\":11726:11895   */\n      swap3\n      swap2\n      pop\n      pop\n      jump\t// out\n        /* \"#utility.yul\":11900:12195   */\n    tag_122:\n        /* \"#utility.yul\":11976:11980   */\n      0x00\n        /* \"#utility.yul\":12122:12151   */\n      tag_258\n        /* \"#utility.yul\":12147:12150   */\n      dup4\n        /* \"#utility.yul\":12141:12145   */\n      dup4\n        /* \"#utility.yul\":12122:12151   */\n      tag_121\n      jump\t// in\n    tag_258:\n        /* \"#utility.yul\":12114:12151   */\n      swap2\n      pop\n        /* \"#utility.yul\":12184:12187   */\n      dup3\n        /* \"#utility.yul\":12181:12182   */\n      0x02\n        /* \"#utility.yul\":12177:12188   */\n      mul\n        /* \"#utility.yul\":12171:12175   */\n      dup3\n        /* \"#utility.yul\":12168:12189   */\n      or\n        /* \"#utility.yul\":12160:12189   */\n      swap1\n      pop\n        /* \"#utility.yul\":11900:12195   */\n      swap3\n      swap2\n      pop\n      pop\n      jump\t// out\n        /* \"#utility.yul\":12200:13595   */\n    tag_67:\n        /* \"#utility.yul\":12317:12354   */\n      tag_260\n        /* \"#utility.yul\":12350:12353   */\n      dup3\n        /* \"#utility.yul\":12317:12354   */\n      tag_84\n      jump\t// in\n    tag_260:\n        /* \"#utility.yul\":12419:12437   */\n      0xffffffffffffffff\n        /* \"#utility.yul\":12411:12417   */\n      dup2\n        /* \"#utility.yul\":12408:12438   */\n      gt\n        /* \"#utility.yul\":12405:12461   */\n      iszero\n      tag_261\n      jumpi\n        /* \"#utility.yul\":12441:12459   */\n      tag_262\n      tag_91\n      jump\t// in\n    tag_262:\n        /* \"#utility.yul\":12405:12461   */\n    tag_261:\n        /* \"#utility.yul\":12485:12523   */\n      tag_263\n        /* \"#utility.yul\":12517:12521   */\n      dup3\n        /* \"#utility.yul\":12511:12522   */\n      sload\n        /* \"#utility.yul\":12485:12523   */\n      tag_26\n      jump\t// in\n    tag_263:\n        /* \"#utility.yul\":12570:12637   */\n      tag_264\n        /* \"#utility.yul\":12630:12636   */\n      dup3\n        /* \"#utility.yul\":12622:12628   */\n      dup3\n        /* \"#utility.yul\":12616:12620   */\n      dup6\n        /* \"#utility.yul\":12570:12637   */\n      tag_119\n      jump\t// in\n    tag_264:\n        /* \"#utility.yul\":12664:12665   */\n      0x00\n        /* \"#utility.yul\":12688:12692   */\n      0x20\n        /* \"#utility.yul\":12675:12692   */\n      swap1\n      pop\n        /* \"#utility.yul\":12720:12722   */\n      0x1f\n        /* \"#utility.yul\":12712:12718   */\n      dup4\n        /* \"#utility.yul\":12709:12723   */\n      gt\n        /* \"#utility.yul\":12737:12738   */\n      0x01\n        /* \"#utility.yul\":12732:13350   */\n      dup2\n      eq\n      tag_266\n      jumpi\n        /* \"#utility.yul\":13394:13395   */\n      0x00\n        /* \"#utility.yul\":13411:13417   */\n      dup5\n        /* \"#utility.yul\":13408:13485   */\n      iszero\n      tag_267\n      jumpi\n        /* \"#utility.yul\":13460:13469   */\n      dup3\n        /* \"#utility.yul\":13455:13458   */\n      dup8\n        /* \"#utility.yul\":13451:13470   */\n      add\n        /* \"#utility.yul\":13445:13471   */\n      mload\n        /* \"#utility.yul\":13436:13471   */\n      swap1\n      pop\n        /* \"#utility.yul\":13408:13485   */\n    tag_267:\n        /* \"#utility.yul\":13511:13578   */\n      tag_268\n        /* \"#utility.yul\":13571:13577   */\n      dup6\n        /* \"#utility.yul\":13564:13569   */\n      dup3\n        /* \"#utility.yul\":13511:13578   */\n      tag_122\n      jump\t// in\n    tag_268:\n        /* \"#utility.yul\":13505:13509   */\n      dup7\n        /* \"#utility.yul\":13498:13579   */\n      sstore\n        /* \"#utility.yul\":13367:13589   */\n      pop\n        /* \"#utility.yul\":12702:13589   */\n      jump(tag_265)\n        /* \"#utility.yul\":12732:13350   */\n    tag_266:\n        /* \"#utility.yul\":12784:12788   */\n      0x1f\n        /* \"#utility.yul\":12780:12789   */\n      not\n        /* \"#utility.yul\":12772:12778   */\n      dup5\n        /* \"#utility.yul\":12768:12790   */\n      and\n        /* \"#utility.yul\":12818:12855   */\n      tag_269\n        /* \"#utility.yul\":12850:12854   */\n      dup7\n        /* \"#utility.yul\":12818:12855   */\n      tag_108\n      jump\t// in\n    tag_269:\n        /* \"#utility.yul\":12877:12878   */\n      0x00\n        /* \"#utility.yul\":12891:13099   */\n    tag_270:\n        /* \"#utility.yul\":12905:12912   */\n      dup3\n        /* \"#utility.yul\":12902:12903   */\n      dup2\n        /* \"#utility.yul\":12899:12913   */\n      lt\n        /* \"#utility.yul\":12891:13099   */\n      iszero\n      tag_272\n      jumpi\n        /* \"#utility.yul\":12984:12993   */\n      dup5\n        /* \"#utility.yul\":12979:12982   */\n      dup10\n        /* \"#utility.yul\":12975:12994   */\n      add\n        /* \"#utility.yul\":12969:12995   */\n      mload\n        /* \"#utility.yul\":12961:12967   */\n      dup3\n        /* \"#utility.yul\":12954:12996   */\n      sstore\n        /* \"#utility.yul\":13035:13036   */\n      0x01\n        /* \"#utility.yul\":13027:13033   */\n      dup3\n        /* \"#utility.yul\":13023:13037   */\n      add\n        /* \"#utility.yul\":13013:13037   */\n      swap2\n      pop\n        /* \"#utility.yul\":13082:13084   */\n      0x20\n        /* \"#utility.yul\":13071:13080   */\n      dup6\n        /* \"#utility.yul\":13067:13085   */\n      add\n        /* \"#utility.yul\":13054:13085   */\n      swap5\n      pop\n        /* \"#utility.yul\":12928:12932   */\n      0x20\n        /* \"#utility.yul\":12925:12926   */\n      dup2\n        /* \"#utility.yul\":12921:12933   */\n      add\n        /* \"#utility.yul\":12916:12933   */\n      swap1\n      pop\n        /* \"#utility.yul\":12891:13099   */\n      jump(tag_270)\n    tag_272:\n        /* \"#utility.yul\":13127:13133   */\n      dup7\n        /* \"#utility.yul\":13118:13125   */\n      dup4\n        /* \"#utility.yul\":13115:13134   */\n      lt\n        /* \"#utility.yul\":13112:13291   */\n      iszero\n      tag_273\n      jumpi\n        /* \"#utility.yul\":13185:13194   */\n      dup5\n        /* \"#utility.yul\":13180:13183   */\n      dup10\n        /* \"#utility.yul\":13176:13195   */\n      add\n        /* \"#utility.yul\":13170:13196   */\n      mload\n        /* \"#utility.yul\":13228:13276   */\n      tag_274\n        /* \"#utility.yul\":13270:13274   */\n      0x1f\n        /* \"#utility.yul\":13262:13268   */\n      dup10\n        /* \"#utility.yul\":13258:13275   */\n      and\n        /* \"#utility.yul\":13247:13256   */\n      dup3\n        /* \"#utility.yul\":13228:13276   */\n      tag_121\n      jump\t// in\n    tag_274:\n        /* \"#utility.yul\":13220:13226   */\n      dup4\n        /* \"#utility.yul\":13213:13277   */\n      sstore\n        /* \"#utility.yul\":13135:13291   */\n      pop\n        /* \"#utility.yul\":13112:13291   */\n    tag_273:\n        /* \"#utility.yul\":13337:13338   */\n      0x01\n        /* \"#utility.yul\":13333:13334   */\n      0x02\n        /* \"#utility.yul\":13325:13331   */\n      dup9\n        /* \"#utility.yul\":13321:13335   */\n      mul\n        /* \"#utility.yul\":13317:13339   */\n      add\n        /* \"#utility.yul\":13311:13315   */\n      dup9\n        /* \"#utility.yul\":13304:13340   */\n      sstore\n        /* \"#utility.yul\":12739:13350   */\n      pop\n      pop\n      pop\n        /* \"#utility.yul\":12702:13589   */\n    tag_265:\n      pop\n        /* \"#utility.yul\":12292:13595   */\n      pop\n      pop\n      pop\n        /* \"#utility.yul\":12200:13595   */\n      pop\n      pop\n      jump\t// out\n        /* \"#utility.yul\":13601:13680   */\n    tag_123:\n        /* \"#utility.yul\":13640:13647   */\n      0x00\n        /* \"#utility.yul\":13669:13674   */\n      dup2\n        /* \"#utility.yul\":13658:13674   */\n      swap1\n      pop\n        /* \"#utility.yul\":13601:13680   */\n      swap2\n      swap1\n      pop\n      jump\t// out\n        /* \"#utility.yul\":13686:13843   */\n    tag_124:\n        /* \"#utility.yul\":13791:13836   */\n      tag_277\n        /* \"#utility.yul\":13811:13835   */\n      tag_278\n        /* \"#utility.yul\":13829:13834   */\n      dup3\n        /* \"#utility.yul\":13811:13835   */\n      tag_103\n      jump\t// in\n    tag_278:\n        /* \"#utility.yul\":13791:13836   */\n      tag_123\n      jump\t// in\n    tag_277:\n        /* \"#utility.yul\":13786:13789   */\n      dup3\n        /* \"#utility.yul\":13779:13837   */\n      mstore\n        /* \"#utility.yul\":13686:13843   */\n      pop\n      pop\n      jump\t// out\n        /* \"#utility.yul\":13849:13997   */\n    tag_125:\n        /* \"#utility.yul\":13951:13962   */\n      0x00\n        /* \"#utility.yul\":13988:13991   */\n      dup2\n        /* \"#utility.yul\":13973:13991   */\n      swap1\n      pop\n        /* \"#utility.yul\":13849:13997   */\n      swap3\n      swap2\n      pop\n      pop\n      jump\t// out\n        /* \"#utility.yul\":14027:14901   */\n    tag_126:\n        /* \"#utility.yul\":14130:14133   */\n      0x00\n        /* \"#utility.yul\":14167:14172   */\n      dup2\n        /* \"#utility.yul\":14161:14173   */\n      sload\n        /* \"#utility.yul\":14196:14232   */\n      tag_281\n        /* \"#utility.yul\":14222:14231   */\n      dup2\n        /* \"#utility.yul\":14196:14232   */\n      tag_26\n      jump\t// in\n    tag_281:\n        /* \"#utility.yul\":14248:14337   */\n      tag_282\n        /* \"#utility.yul\":14330:14336   */\n      dup2\n        /* \"#utility.yul\":14325:14328   */\n      dup7\n        /* \"#utility.yul\":14248:14337   */\n      tag_125\n      jump\t// in\n    tag_282:\n        /* \"#utility.yul\":14241:14337   */\n      swap5\n      pop\n        /* \"#utility.yul\":14368:14369   */\n      0x01\n        /* \"#utility.yul\":14357:14366   */\n      dup3\n        /* \"#utility.yul\":14353:14370   */\n      and\n        /* \"#utility.yul\":14384:14385   */\n      0x00\n        /* \"#utility.yul\":14379:14545   */\n      dup2\n      eq\n      tag_284\n      jumpi\n        /* \"#utility.yul\":14559:14560   */\n      0x01\n        /* \"#utility.yul\":14554:14895   */\n      dup2\n      eq\n      tag_285\n      jumpi\n        /* \"#utility.yul\":14346:14895   */\n      jump(tag_283)\n        /* \"#utility.yul\":14379:14545   */\n    tag_284:\n        /* \"#utility.yul\":14463:14467   */\n      0xff\n        /* \"#utility.yul\":14459:14468   */\n      not\n        /* \"#utility.yul\":14448:14457   */\n      dup4\n        /* \"#utility.yul\":14444:14469   */\n      and\n        /* \"#utility.yul\":14439:14442   */\n      dup7\n        /* \"#utility.yul\":14432:14470   */\n      mstore\n        /* \"#utility.yul\":14525:14531   */\n      dup2\n        /* \"#utility.yul\":14518:14532   */\n      iszero\n        /* \"#utility.yul\":14511:14533   */\n      iszero\n        /* \"#utility.yul\":14503:14509   */\n      dup3\n        /* \"#utility.yul\":14499:14534   */\n      mul\n        /* \"#utility.yul\":14494:14497   */\n      dup7\n        /* \"#utility.yul\":14490:14535   */\n      add\n        /* \"#utility.yul\":14483:14535   */\n      swap4\n      pop\n        /* \"#utility.yul\":14379:14545   */\n      jump(tag_283)\n        /* \"#utility.yul\":14554:14895   */\n    tag_285:\n        /* \"#utility.yul\":14621:14659   */\n      tag_286\n        /* \"#utility.yul\":14653:14658   */\n      dup6\n        /* \"#utility.yul\":14621:14659   */\n      tag_108\n      jump\t// in\n    tag_286:\n        /* \"#utility.yul\":14681:14682   */\n      0x00\n        /* \"#utility.yul\":14695:14849   */\n    tag_287:\n        /* \"#utility.yul\":14709:14715   */\n      dup4\n        /* \"#utility.yul\":14706:14707   */\n      dup2\n        /* \"#utility.yul\":14703:14716   */\n      lt\n        /* \"#utility.yul\":14695:14849   */\n      iszero\n      tag_289\n      jumpi\n        /* \"#utility.yul\":14783:14790   */\n      dup2\n        /* \"#utility.yul\":14777:14791   */\n      sload\n        /* \"#utility.yul\":14773:14774   */\n      dup2\n        /* \"#utility.yul\":14768:14771   */\n      dup10\n        /* \"#utility.yul\":14764:14775   */\n      add\n        /* \"#utility.yul\":14757:14792   */\n      mstore\n        /* \"#utility.yul\":14833:14834   */\n      0x01\n        /* \"#utility.yul\":14824:14831   */\n      dup3\n        /* \"#utility.yul\":14820:14835   */\n      add\n        /* \"#utility.yul\":14809:14835   */\n      swap2\n      pop\n        /* \"#utility.yul\":14731:14735   */\n      0x20\n        /* \"#utility.yul\":14728:14729   */\n      dup2\n        /* \"#utility.yul\":14724:14736   */\n      add\n        /* \"#utility.yul\":14719:14736   */\n      swap1\n      pop\n        /* \"#utility.yul\":14695:14849   */\n      jump(tag_287)\n    tag_289:\n        /* \"#utility.yul\":14878:14884   */\n      dup4\n        /* \"#utility.yul\":14873:14876   */\n      dup9\n        /* \"#utility.yul\":14869:14885   */\n      add\n        /* \"#utility.yul\":14862:14885   */\n      swap6\n      pop\n        /* \"#utility.yul\":14561:14895   */\n      pop\n      pop\n        /* \"#utility.yul\":14346:14895   */\n    tag_283:\n      pop\n        /* \"#utility.yul\":14134:14901   */\n      pop\n      pop\n        /* \"#utility.yul\":14027:14901   */\n      swap3\n      swap2\n      pop\n      pop\n      jump\t// out\n        /* \"#utility.yul\":14907:15317   */\n    tag_77:\n        /* \"#utility.yul\":15064:15067   */\n      0x00\n        /* \"#utility.yul\":15079:15154   */\n      tag_291\n        /* \"#utility.yul\":15150:15153   */\n      dup3\n        /* \"#utility.yul\":15141:15147   */\n      dup6\n        /* \"#utility.yul\":15079:15154   */\n      tag_124\n      jump\t// in\n    tag_291:\n        /* \"#utility.yul\":15179:15181   */\n      0x20\n        /* \"#utility.yul\":15174:15177   */\n      dup3\n        /* \"#utility.yul\":15170:15182   */\n      add\n        /* \"#utility.yul\":15163:15182   */\n      swap2\n      pop\n        /* \"#utility.yul\":15199:15291   */\n      tag_292\n        /* \"#utility.yul\":15287:15290   */\n      dup3\n        /* \"#utility.yul\":15278:15284   */\n      dup5\n        /* \"#utility.yul\":15199:15291   */\n      tag_126\n      jump\t// in\n    tag_292:\n        /* \"#utility.yul\":15192:15291   */\n      swap2\n      pop\n        /* \"#utility.yul\":15308:15311   */\n      dup2\n        /* \"#utility.yul\":15301:15311   */\n      swap1\n      pop\n        /* \"#utility.yul\":14907:15317   */\n      swap4\n      swap3\n      pop\n      pop\n      pop\n      jump\t// out\n    stop\n    data_afea32b4f3cbdf530b5477cf697a1f01b8848602feb83ba9aca9c49f9bbf255c 506c617965722063686f6f7365204556454e20616e6420706c6179732e204350552063686f6f73653a\n\n    auxdata: 0xa2646970667358221220285e3ec59826d426baa7358f09fd85cf20446088209a790f7b28e27ba018627e64736f6c63430008120033\n}\n",
				"bytecode": {
					"linkReferences": {},
					"object": "60806040526040518060200160405280600081525060009081620000249190620002b3565b503480156200003257600080fd5b506200039a565b600081519050919050565b7f4e487b7100000000000000000000000000000000000000000000000000000000600052604160045260246000fd5b7f4e487b7100000000000000000000000000000000000000000000000000000000600052602260045260246000fd5b60006002820490506001821680620000bb57607f821691505b602082108103620000d157620000d062000073565b5b50919050565b60008190508160005260206000209050919050565b60006020601f8301049050919050565b600082821b905092915050565b6000600883026200013b7fffffffffffffffffffffffffffffffffffffffffffffffffffffffffffffffff82620000fc565b620001478683620000fc565b95508019841693508086168417925050509392505050565b6000819050919050565b6000819050919050565b6000620001946200018e62000188846200015f565b62000169565b6200015f565b9050919050565b6000819050919050565b620001b08362000173565b620001c8620001bf826200019b565b84845462000109565b825550505050565b600090565b620001df620001d0565b620001ec818484620001a5565b505050565b5b81811015620002145762000208600082620001d5565b600181019050620001f2565b5050565b601f82111562000263576200022d81620000d7565b6200023884620000ec565b8101602085101562000248578190505b620002606200025785620000ec565b830182620001f1565b50505b505050565b600082821c905092915050565b6000620002886000198460080262000268565b1980831691505092915050565b6000620002a3838362000275565b9150826002028217905092915050565b620002be8262000039565b67ffffffffffffffff811115620002da57620002d962000044565b5b620002e68254620000a2565b620002f382828562000218565b600060209050601f8311600181146200032b576000841562000316578287015190505b62000322858262000295565b86555062000392565b601f1984166200033b86620000d7565b60005b8281101562000365578489015182556001820191506020850194506020810190506200033e565b8683101562000385578489015162000381601f89168262000275565b8355505b6001600288020188555050505b505050505050565b610eb880620003aa6000396000f3fe608060405234801561001057600080fd5b50600436106100415760003560e01c806353a04b051461004657806398c8d81f1461007657806398f42fe314610092575b600080fd5b610060600480360381019061005b9190610636565b6100b0565b60405161006d91906106f3565b60405180910390f35b610090600480360381019061008b919061084a565b61041d565b005b61009a6104f4565b6040516100a791906106f3565b60405180910390f35b606060008260ff16101580156100ca575060028260ff1611155b610109576040517f08c379a0000000000000000000000000000000000000000000000000000000008152600401610100906108df565b60405180910390fd5b6101ac600080546101199061092e565b80601f01602080910402602001604051908101604052809291908181526020018280546101459061092e565b80156101925780601f1061016757610100808354040283529160200191610192565b820191906000526020600020905b81548152906001019060200180831161017557829003601f168201915b505050505060405180602001604052806000815250610582565b156101ec576040517f08c379a00000000000000000000000000000000000000000000000000000000081526004016101e3906109ab565b60405180910390fd5b60006101f66105b5565b905060008060028560ff168461020c9190610a04565b6102169190610a67565b1490508080156102eb57506102ea600080546102319061092e565b80601f016020809104026020016040519081016040528092919081815260200182805461025d9061092e565b80156102aa5780601f1061027f576101008083540402835291602001916102aa565b820191906000526020600020905b81548152906001019060200180831161028d57829003601f168201915b50505050506040518060400160405280600481526020017f4556454e00000000000000000000000000000000000000000000000000000000815250610582565b5b1561031257604051806060016040528060298152602001610e5a6029913992505050610418565b801580156103e557506103e46000805461032b9061092e565b80601f01602080910402602001604051908101604052809291908181526020018280546103579061092e565b80156103a45780601f10610379576101008083540402835291602001916103a4565b820191906000526020600020905b81548152906001019060200180831161038757829003601f168201915b50505050506040518060400160405280600381526020017f4f44440000000000000000000000000000000000000000000000000000000000815250610582565b5b15610403576040518060200160405280600081525092505050610418565b60405180602001604052806000815250925050505b919050565b61045c816040518060400160405280600481526020017f4556454e00000000000000000000000000000000000000000000000000000000815250610582565b806104a257506104a1816040518060400160405280600381526020017f4f44440000000000000000000000000000000000000000000000000000000000815250610582565b5b6104e1576040517f08c379a00000000000000000000000000000000000000000000000000000000081526004016104d890610ae4565b60405180910390fd5b80600090816104f09190610cb0565b5050565b600080546105019061092e565b80601f016020809104026020016040519081016040528092919081815260200182805461052d9061092e565b801561057a5780601f1061054f5761010080835404028352916020019161057a565b820191906000526020600020905b81548152906001019060200180831161055d57829003601f168201915b505050505081565b6000808390506000839050805182511480156105ab575080805190602001208280519060200120145b9250505092915050565b60004260006040516020016105cb929190610e31565b6040516020818303038152906040528051906020012060001c905090565b6000604051905090565b600080fd5b600080fd5b600060ff82169050919050565b610613816105fd565b811461061e57600080fd5b50565b6000813590506106308161060a565b92915050565b60006020828403121561064c5761064b6105f3565b5b600061065a84828501610621565b91505092915050565b600081519050919050565b600082825260208201905092915050565b60005b8381101561069d578082015181840152602081019050610682565b60008484015250505050565b6000601f19601f8301169050919050565b60006106c582610663565b6106cf818561066e565b93506106df81856020860161067f565b6106e8816106a9565b840191505092915050565b6000602082019050818103600083015261070d81846106ba565b905092915050565b600080fd5b600080fd5b7f4e487b7100000000000000000000000000000000000000000000000000000000600052604160045260246000fd5b610757826106a9565b810181811067ffffffffffffffff821117156107765761077561071f565b5b80604052505050565b60006107896105e9565b9050610795828261074e565b919050565b600067ffffffffffffffff8211156107b5576107b461071f565b5b6107be826106a9565b9050602081019050919050565b82818337600083830152505050565b60006107ed6107e88461079a565b61077f565b9050828152602081018484840111156108095761080861071a565b5b6108148482856107cb565b509392505050565b600082601f83011261083157610830610715565b5b81356108418482602086016107da565b91505092915050565b6000602082840312156108605761085f6105f3565b5b600082013567ffffffffffffffff81111561087e5761087d6105f8565b5b61088a8482850161081c565b91505092915050565b7f506c617920776974683a20302c2031206f722032000000000000000000000000600082015250565b60006108c960148361066e565b91506108d482610893565b602082019050919050565b600060208201905081810360008301526108f8816108bc565b9050919050565b7f4e487b7100000000000000000000000000000000000000000000000000000000600052602260045260246000fd5b6000600282049050600182168061094657607f821691505b602082108103610959576109586108ff565b5b50919050565b7f46697273742c2063686f6f73653a204556454e206f72204f4444000000000000600082015250565b6000610995601a8361066e565b91506109a08261095f565b602082019050919050565b600060208201905081810360008301526109c481610988565b9050919050565b6000819050919050565b7f4e487b7100000000000000000000000000000000000000000000000000000000600052601160045260246000fd5b6000610a0f826109cb565b9150610a1a836109cb565b9250828201905080821115610a3257610a316109d5565b5b92915050565b7f4e487b7100000000000000000000000000000000000000000000000000000000600052601260045260246000fd5b6000610a72826109cb565b9150610a7d836109cb565b925082610a8d57610a8c610a38565b5b828206905092915050565b7f43686f6f73653a204556454e206f72204f444400000000000000000000000000600082015250565b6000610ace60138361066e565b9150610ad982610a98565b602082019050919050565b60006020820190508181036000830152610afd81610ac1565b9050919050565b60008190508160005260206000209050919050565b60006020601f8301049050919050565b600082821b905092915050565b600060088302610b667fffffffffffffffffffffffffffffffffffffffffffffffffffffffffffffffff82610b29565b610b708683610b29565b95508019841693508086168417925050509392505050565b6000819050919050565b6000610bad610ba8610ba3846109cb565b610b88565b6109cb565b9050919050565b6000819050919050565b610bc783610b92565b610bdb610bd382610bb4565b848454610b36565b825550505050565b600090565b610bf0610be3565b610bfb818484610bbe565b505050565b5b81811015610c1f57610c14600082610be8565b600181019050610c01565b5050565b601f821115610c6457610c3581610b04565b610c3e84610b19565b81016020851015610c4d578190505b610c61610c5985610b19565b830182610c00565b50505b505050565b600082821c905092915050565b6000610c8760001984600802610c69565b1980831691505092915050565b6000610ca08383610c76565b9150826002028217905092915050565b610cb982610663565b67ffffffffffffffff811115610cd257610cd161071f565b5b610cdc825461092e565b610ce7828285610c23565b600060209050601f831160018114610d1a5760008415610d08578287015190505b610d128582610c94565b865550610d7a565b601f198416610d2886610b04565b60005b82811015610d5057848901518255600182019150602085019450602081019050610d2b565b86831015610d6d5784890151610d69601f891682610c76565b8355505b6001600288020188555050505b505050505050565b6000819050919050565b610d9d610d98826109cb565b610d82565b82525050565b600081905092915050565b60008154610dbb8161092e565b610dc58186610da3565b94506001821660008114610de05760018114610df557610e28565b60ff1983168652811515820286019350610e28565b610dfe85610b04565b60005b83811015610e2057815481890152600182019150602081019050610e01565b838801955050505b50505092915050565b6000610e3d8285610d8c565b602082019150610e4d8284610dae565b9150819050939250505056fe506c617965722063686f6f7365204556454e20616e6420706c6179732e204350552063686f6f73653aa2646970667358221220285e3ec59826d426baa7358f09fd85cf20446088209a790f7b28e27ba018627e64736f6c63430008120033",
					"opcodes": "PUSH1 0x80 PUSH1 0x40 MSTORE PUSH1 0x40 MLOAD DUP1 PUSH1 0x20 ADD PUSH1 0x40 MSTORE DUP1 PUSH1 0x0 DUP2 MSTORE POP PUSH1 0x0 SWAP1 DUP2 PUSH3 0x24 SWAP2 SWAP1 PUSH3 0x2B3 JUMP JUMPDEST POP CALLVALUE DUP1 ISZERO PUSH3 0x32 JUMPI PUSH1 0x0 DUP1 REVERT JUMPDEST POP PUSH3 0x39A JUMP JUMPDEST PUSH1 0x0 DUP2 MLOAD SWAP1 POP SWAP2 SWAP1 POP JUMP JUMPDEST PUSH32 0x4E487B7100000000000000000000000000000000000000000000000000000000 PUSH1 0x0 MSTORE PUSH1 0x41 PUSH1 0x4 MSTORE PUSH1 0x24 PUSH1 0x0 REVERT JUMPDEST PUSH32 0x4E487B7100000000000000000000000000000000000000000000000000000000 PUSH1 0x0 MSTORE PUSH1 0x22 PUSH1 0x4 MSTORE PUSH1 0x24 PUSH1 0x0 REVERT JUMPDEST PUSH1 0x0 PUSH1 0x2 DUP3 DIV SWAP1 POP PUSH1 0x1 DUP3 AND DUP1 PUSH3 0xBB JUMPI PUSH1 0x7F DUP3 AND SWAP2 POP JUMPDEST PUSH1 0x20 DUP3 LT DUP2 SUB PUSH3 0xD1 JUMPI PUSH3 0xD0 PUSH3 0x73 JUMP JUMPDEST JUMPDEST POP SWAP2 SWAP1 POP JUMP JUMPDEST PUSH1 0x0 DUP2 SWAP1 POP DUP2 PUSH1 0x0 MSTORE PUSH1 0x20 PUSH1 0x0 KECCAK256 SWAP1 POP SWAP2 SWAP1 POP JUMP JUMPDEST PUSH1 0x0 PUSH1 0x20 PUSH1 0x1F DUP4 ADD DIV SWAP1 POP SWAP2 SWAP1 POP JUMP JUMPDEST PUSH1 0x0 DUP3 DUP3 SHL SWAP1 POP SWAP3 SWAP2 POP POP JUMP JUMPDEST PUSH1 0x0 PUSH1 0x8 DUP4 MUL PUSH3 0x13B PUSH32 0xFFFFFFFFFFFFFFFFFFFFFFFFFFFFFFFFFFFFFFFFFFFFFFFFFFFFFFFFFFFFFFFF DUP3 PUSH3 0xFC JUMP JUMPDEST PUSH3 0x147 DUP7 DUP4 PUSH3 0xFC JUMP JUMPDEST SWAP6 POP DUP1 NOT DUP5 AND SWAP4 POP DUP1 DUP7 AND DUP5 OR SWAP3 POP POP POP SWAP4 SWAP3 POP POP POP JUMP JUMPDEST PUSH1 0x0 DUP2 SWAP1 POP SWAP2 SWAP1 POP JUMP JUMPDEST PUSH1 0x0 DUP2 SWAP1 POP SWAP2 SWAP1 POP JUMP JUMPDEST PUSH1 0x0 PUSH3 0x194 PUSH3 0x18E PUSH3 0x188 DUP5 PUSH3 0x15F JUMP JUMPDEST PUSH3 0x169 JUMP JUMPDEST PUSH3 0x15F JUMP JUMPDEST SWAP1 POP SWAP2 SWAP1 POP JUMP JUMPDEST PUSH1 0x0 DUP2 SWAP1 POP SWAP2 SWAP1 POP JUMP JUMPDEST PUSH3 0x1B0 DUP4 PUSH3 0x173 JUMP JUMPDEST PUSH3 0x1C8 PUSH3 0x1BF DUP3 PUSH3 0x19B JUMP JUMPDEST DUP5 DUP5 SLOAD PUSH3 0x109 JUMP JUMPDEST DUP3 SSTORE POP POP POP POP JUMP JUMPDEST PUSH1 0x0 SWAP1 JUMP JUMPDEST PUSH3 0x1DF PUSH3 0x1D0 JUMP JUMPDEST PUSH3 0x1EC DUP2 DUP5 DUP5 PUSH3 0x1A5 JUMP JUMPDEST POP POP POP JUMP JUMPDEST JUMPDEST DUP2 DUP2 LT ISZERO PUSH3 0x214 JUMPI PUSH3 0x208 PUSH1 0x0 DUP3 PUSH3 0x1D5 JUMP JUMPDEST PUSH1 0x1 DUP2 ADD SWAP1 POP PUSH3 0x1F2 JUMP JUMPDEST POP POP JUMP JUMPDEST PUSH1 0x1F DUP3 GT ISZERO PUSH3 0x263 JUMPI PUSH3 0x22D DUP2 PUSH3 0xD7 JUMP JUMPDEST PUSH3 0x238 DUP5 PUSH3 0xEC JUMP JUMPDEST DUP2 ADD PUSH1 0x20 DUP6 LT ISZERO PUSH3 0x248 JUMPI DUP2 SWAP1 POP JUMPDEST PUSH3 0x260 PUSH3 0x257 DUP6 PUSH3 0xEC JUMP JUMPDEST DUP4 ADD DUP3 PUSH3 0x1F1 JUMP JUMPDEST POP POP JUMPDEST POP POP POP JUMP JUMPDEST PUSH1 0x0 DUP3 DUP3 SHR SWAP1 POP SWAP3 SWAP2 POP POP JUMP JUMPDEST PUSH1 0x0 PUSH3 0x288 PUSH1 0x0 NOT DUP5 PUSH1 0x8 MUL PUSH3 0x268 JUMP JUMPDEST NOT DUP1 DUP4 AND SWAP2 POP POP SWAP3 SWAP2 POP POP JUMP JUMPDEST PUSH1 0x0 PUSH3 0x2A3 DUP4 DUP4 PUSH3 0x275 JUMP JUMPDEST SWAP2 POP DUP3 PUSH1 0x2 MUL DUP3 OR SWAP1 POP SWAP3 SWAP2 POP POP JUMP JUMPDEST PUSH3 0x2BE DUP3 PUSH3 0x39 JUMP JUMPDEST PUSH8 0xFFFFFFFFFFFFFFFF DUP2 GT ISZERO PUSH3 0x2DA JUMPI PUSH3 0x2D9 PUSH3 0x44 JUMP JUMPDEST JUMPDEST PUSH3 0x2E6 DUP3 SLOAD PUSH3 0xA2 JUMP JUMPDEST PUSH3 0x2F3 DUP3 DUP3 DUP6 PUSH3 0x218 JUMP JUMPDEST PUSH1 0x0 PUSH1 0x20 SWAP1 POP PUSH1 0x1F DUP4 GT PUSH1 0x1 DUP2 EQ PUSH3 0x32B JUMPI PUSH1 0x0 DUP5 ISZERO PUSH3 0x316 JUMPI DUP3 DUP8 ADD MLOAD SWAP1 POP JUMPDEST PUSH3 0x322 DUP6 DUP3 PUSH3 0x295 JUMP JUMPDEST DUP7 SSTORE POP PUSH3 0x392 JUMP JUMPDEST PUSH1 0x1F NOT DUP5 AND PUSH3 0x33B DUP7 PUSH3 0xD7 JUMP JUMPDEST PUSH1 0x0 JUMPDEST DUP3 DUP2 LT ISZERO PUSH3 0x365 JUMPI DUP5 DUP10 ADD MLOAD DUP3 SSTORE PUSH1 0x1 DUP3 ADD SWAP2 POP PUSH1 0x20 DUP6 ADD SWAP5 POP PUSH1 0x20 DUP2 ADD SWAP1 POP PUSH3 0x33E JUMP JUMPDEST DUP7 DUP4 LT ISZERO PUSH3 0x385 JUMPI DUP5 DUP10 ADD MLOAD PUSH3 0x381 PUSH1 0x1F DUP10 AND DUP3 PUSH3 0x275 JUMP JUMPDEST DUP4 SSTORE POP JUMPDEST PUSH1 0x1 PUSH1 0x2 DUP9 MUL ADD DUP9 SSTORE POP POP POP JUMPDEST POP POP POP POP POP POP JUMP JUMPDEST PUSH2 0xEB8 DUP1 PUSH3 0x3AA PUSH1 0x0 CODECOPY PUSH1 0x0 RETURN INVALID PUSH1 0x80 PUSH1 0x40 MSTORE CALLVALUE DUP1 ISZERO PUSH2 0x10 JUMPI PUSH1 0x0 DUP1 REVERT JUMPDEST POP PUSH1 0x4 CALLDATASIZE LT PUSH2 0x41 JUMPI PUSH1 0x0 CALLDATALOAD PUSH1 0xE0 SHR DUP1 PUSH4 0x53A04B05 EQ PUSH2 0x46 JUMPI DUP1 PUSH4 0x98C8D81F EQ PUSH2 0x76 JUMPI DUP1 PUSH4 0x98F42FE3 EQ PUSH2 0x92 JUMPI JUMPDEST PUSH1 0x0 DUP1 REVERT JUMPDEST PUSH2 0x60 PUSH1 0x4 DUP1 CALLDATASIZE SUB DUP2 ADD SWAP1 PUSH2 0x5B SWAP2 SWAP1 PUSH2 0x636 JUMP JUMPDEST PUSH2 0xB0 JUMP JUMPDEST PUSH1 0x40 MLOAD PUSH2 0x6D SWAP2 SWAP1 PUSH2 0x6F3 JUMP JUMPDEST PUSH1 0x40 MLOAD DUP1 SWAP2 SUB SWAP1 RETURN JUMPDEST PUSH2 0x90 PUSH1 0x4 DUP1 CALLDATASIZE SUB DUP2 ADD SWAP1 PUSH2 0x8B SWAP2 SWAP1 PUSH2 0x84A JUMP JUMPDEST PUSH2 0x41D JUMP JUMPDEST STOP JUMPDEST PUSH2 0x9A PUSH2 0x4F4 JUMP JUMPDEST PUSH1 0x40 MLOAD PUSH2 0xA7 SWAP2 SWAP1 PUSH2 0x6F3 JUMP JUMPDEST PUSH1 0x40 MLOAD DUP1 SWAP2 SUB SWAP1 RETURN JUMPDEST PUSH1 0x60 PUSH1 0x0 DUP3 PUSH1 0xFF AND LT ISZERO DUP1 ISZERO PUSH2 0xCA JUMPI POP PUSH1 0x2 DUP3 PUSH1 0xFF AND GT ISZERO JUMPDEST PUSH2 0x109 JUMPI PUSH1 0x40 MLOAD PUSH32 0x8C379A000000000000000000000000000000000000000000000000000000000 DUP2 MSTORE PUSH1 0x4 ADD PUSH2 0x100 SWAP1 PUSH2 0x8DF JUMP JUMPDEST PUSH1 0x40 MLOAD DUP1 SWAP2 SUB SWAP1 REVERT JUMPDEST PUSH2 0x1AC PUSH1 0x0 DUP1 SLOAD PUSH2 0x119 SWAP1 PUSH2 0x92E JUMP JUMPDEST DUP1 PUSH1 0x1F ADD PUSH1 0x20 DUP1 SWAP2 DIV MUL PUSH1 0x20 ADD PUSH1 0x40 MLOAD SWAP1 DUP2 ADD PUSH1 0x40 MSTORE DUP1 SWAP3 SWAP2 SWAP1 DUP2 DUP2 MSTORE PUSH1 0x20 ADD DUP3 DUP1 SLOAD PUSH2 0x145 SWAP1 PUSH2 0x92E JUMP JUMPDEST DUP1 ISZERO PUSH2 0x192 JUMPI DUP1 PUSH1 0x1F LT PUSH2 0x167 JUMPI PUSH2 0x100 DUP1 DUP4 SLOAD DIV MUL DUP4 MSTORE SWAP2 PUSH1 0x20 ADD SWAP2 PUSH2 0x192 JUMP JUMPDEST DUP3 ADD SWAP2 SWAP1 PUSH1 0x0 MSTORE PUSH1 0x20 PUSH1 0x0 KECCAK256 SWAP1 JUMPDEST DUP2 SLOAD DUP2 MSTORE SWAP1 PUSH1 0x1 ADD SWAP1 PUSH1 0x20 ADD DUP1 DUP4 GT PUSH2 0x175 JUMPI DUP3 SWAP1 SUB PUSH1 0x1F AND DUP3 ADD SWAP2 JUMPDEST POP POP POP POP POP PUSH1 0x40 MLOAD DUP1 PUSH1 0x20 ADD PUSH1 0x40 MSTORE DUP1 PUSH1 0x0 DUP2 MSTORE POP PUSH2 0x582 JUMP JUMPDEST ISZERO PUSH2 0x1EC JUMPI PUSH1 0x40 MLOAD PUSH32 0x8C379A000000000000000000000000000000000000000000000000000000000 DUP2 MSTORE PUSH1 0x4 ADD PUSH2 0x1E3 SWAP1 PUSH2 0x9AB JUMP JUMPDEST PUSH1 0x40 MLOAD DUP1 SWAP2 SUB SWAP1 REVERT JUMPDEST PUSH1 0x0 PUSH2 0x1F6 PUSH2 0x5B5 JUMP JUMPDEST SWAP1 POP PUSH1 0x0 DUP1 PUSH1 0x2 DUP6 PUSH1 0xFF AND DUP5 PUSH2 0x20C SWAP2 SWAP1 PUSH2 0xA04 JUMP JUMPDEST PUSH2 0x216 SWAP2 SWAP1 PUSH2 0xA67 JUMP JUMPDEST EQ SWAP1 POP DUP1 DUP1 ISZERO PUSH2 0x2EB JUMPI POP PUSH2 0x2EA PUSH1 0x0 DUP1 SLOAD PUSH2 0x231 SWAP1 PUSH2 0x92E JUMP JUMPDEST DUP1 PUSH1 0x1F ADD PUSH1 0x20 DUP1 SWAP2 DIV MUL PUSH1 0x20 ADD PUSH1 0x40 MLOAD SWAP1 DUP2 ADD PUSH1 0x40 MSTORE DUP1 SWAP3 SWAP2 SWAP1 DUP2 DUP2 MSTORE PUSH1 0x20 ADD DUP3 DUP1 SLOAD PUSH2 0x25D SWAP1 PUSH2 0x92E JUMP JUMPDEST DUP1 ISZERO PUSH2 0x2AA JUMPI DUP1 PUSH1 0x1F LT PUSH2 0x27F JUMPI PUSH2 0x100 DUP1 DUP4 SLOAD DIV MUL DUP4 MSTORE SWAP2 PUSH1 0x20 ADD SWAP2 PUSH2 0x2AA JUMP JUMPDEST DUP3 ADD SWAP2 SWAP1 PUSH1 0x0 MSTORE PUSH1 0x20 PUSH1 0x0 KECCAK256 SWAP1 JUMPDEST DUP2 SLOAD DUP2 MSTORE SWAP1 PUSH1 0x1 ADD SWAP1 PUSH1 0x20 ADD DUP1 DUP4 GT PUSH2 0x28D JUMPI DUP3 SWAP1 SUB PUSH1 0x1F AND DUP3 ADD SWAP2 JUMPDEST POP POP POP POP POP PUSH1 0x40 MLOAD DUP1 PUSH1 0x40 ADD PUSH1 0x40 MSTORE DUP1 PUSH1 0x4 DUP2 MSTORE PUSH1 0x20 ADD PUSH32 0x4556454E00000000000000000000000000000000000000000000000000000000 DUP2 MSTORE POP PUSH2 0x582 JUMP JUMPDEST JUMPDEST ISZERO PUSH2 0x312 JUMPI PUSH1 0x40 MLOAD DUP1 PUSH1 0x60 ADD PUSH1 0x40 MSTORE DUP1 PUSH1 0x29 DUP2 MSTORE PUSH1 0x20 ADD PUSH2 0xE5A PUSH1 0x29 SWAP2 CODECOPY SWAP3 POP POP POP PUSH2 0x418 JUMP JUMPDEST DUP1 ISZERO DUP1 ISZERO PUSH2 0x3E5 JUMPI POP PUSH2 0x3E4 PUSH1 0x0 DUP1 SLOAD PUSH2 0x32B SWAP1 PUSH2 0x92E JUMP JUMPDEST DUP1 PUSH1 0x1F ADD PUSH1 0x20 DUP1 SWAP2 DIV MUL PUSH1 0x20 ADD PUSH1 0x40 MLOAD SWAP1 DUP2 ADD PUSH1 0x40 MSTORE DUP1 SWAP3 SWAP2 SWAP1 DUP2 DUP2 MSTORE PUSH1 0x20 ADD DUP3 DUP1 SLOAD PUSH2 0x357 SWAP1 PUSH2 0x92E JUMP JUMPDEST DUP1 ISZERO PUSH2 0x3A4 JUMPI DUP1 PUSH1 0x1F LT PUSH2 0x379 JUMPI PUSH2 0x100 DUP1 DUP4 SLOAD DIV MUL DUP4 MSTORE SWAP2 PUSH1 0x20 ADD SWAP2 PUSH2 0x3A4 JUMP JUMPDEST DUP3 ADD SWAP2 SWAP1 PUSH1 0x0 MSTORE PUSH1 0x20 PUSH1 0x0 KECCAK256 SWAP1 JUMPDEST DUP2 SLOAD DUP2 MSTORE SWAP1 PUSH1 0x1 ADD SWAP1 PUSH1 0x20 ADD DUP1 DUP4 GT PUSH2 0x387 JUMPI DUP3 SWAP1 SUB PUSH1 0x1F AND DUP3 ADD SWAP2 JUMPDEST POP POP POP POP POP PUSH1 0x40 MLOAD DUP1 PUSH1 0x40 ADD PUSH1 0x40 MSTORE DUP1 PUSH1 0x3 DUP2 MSTORE PUSH1 0x20 ADD PUSH32 0x4F44440000000000000000000000000000000000000000000000000000000000 DUP2 MSTORE POP PUSH2 0x582 JUMP JUMPDEST JUMPDEST ISZERO PUSH2 0x403 JUMPI PUSH1 0x40 MLOAD DUP1 PUSH1 0x20 ADD PUSH1 0x40 MSTORE DUP1 PUSH1 0x0 DUP2 MSTORE POP SWAP3 POP POP POP PUSH2 0x418 JUMP JUMPDEST PUSH1 0x40 MLOAD DUP1 PUSH1 0x20 ADD PUSH1 0x40 MSTORE DUP1 PUSH1 0x0 DUP2 MSTORE POP SWAP3 POP POP POP JUMPDEST SWAP2 SWAP1 POP JUMP JUMPDEST PUSH2 0x45C DUP2 PUSH1 0x40 MLOAD DUP1 PUSH1 0x40 ADD PUSH1 0x40 MSTORE DUP1 PUSH1 0x4 DUP2 MSTORE PUSH1 0x20 ADD PUSH32 0x4556454E00000000000000000000000000000000000000000000000000000000 DUP2 MSTORE POP PUSH2 0x582 JUMP JUMPDEST DUP1 PUSH2 0x4A2 JUMPI POP PUSH2 0x4A1 DUP2 PUSH1 0x40 MLOAD DUP1 PUSH1 0x40 ADD PUSH1 0x40 MSTORE DUP1 PUSH1 0x3 DUP2 MSTORE PUSH1 0x20 ADD PUSH32 0x4F44440000000000000000000000000000000000000000000000000000000000 DUP2 MSTORE POP PUSH2 0x582 JUMP JUMPDEST JUMPDEST PUSH2 0x4E1 JUMPI PUSH1 0x40 MLOAD PUSH32 0x8C379A000000000000000000000000000000000000000000000000000000000 DUP2 MSTORE PUSH1 0x4 ADD PUSH2 0x4D8 SWAP1 PUSH2 0xAE4 JUMP JUMPDEST PUSH1 0x40 MLOAD DUP1 SWAP2 SUB SWAP1 REVERT JUMPDEST DUP1 PUSH1 0x0 SWAP1 DUP2 PUSH2 0x4F0 SWAP2 SWAP1 PUSH2 0xCB0 JUMP JUMPDEST POP POP JUMP JUMPDEST PUSH1 0x0 DUP1 SLOAD PUSH2 0x501 SWAP1 PUSH2 0x92E JUMP JUMPDEST DUP1 PUSH1 0x1F ADD PUSH1 0x20 DUP1 SWAP2 DIV MUL PUSH1 0x20 ADD PUSH1 0x40 MLOAD SWAP1 DUP2 ADD PUSH1 0x40 MSTORE DUP1 SWAP3 SWAP2 SWAP1 DUP2 DUP2 MSTORE PUSH1 0x20 ADD DUP3 DUP1 SLOAD PUSH2 0x52D SWAP1 PUSH2 0x92E JUMP JUMPDEST DUP1 ISZERO PUSH2 0x57A JUMPI DUP1 PUSH1 0x1F LT PUSH2 0x54F JUMPI PUSH2 0x100 DUP1 DUP4 SLOAD DIV MUL DUP4 MSTORE SWAP2 PUSH1 0x20 ADD SWAP2 PUSH2 0x57A JUMP JUMPDEST DUP3 ADD SWAP2 SWAP1 PUSH1 0x0 MSTORE PUSH1 0x20 PUSH1 0x0 KECCAK256 SWAP1 JUMPDEST DUP2 SLOAD DUP2 MSTORE SWAP1 PUSH1 0x1 ADD SWAP1 PUSH1 0x20 ADD DUP1 DUP4 GT PUSH2 0x55D JUMPI DUP3 SWAP1 SUB PUSH1 0x1F AND DUP3 ADD SWAP2 JUMPDEST POP POP POP POP POP DUP2 JUMP JUMPDEST PUSH1 0x0 DUP1 DUP4 SWAP1 POP PUSH1 0x0 DUP4 SWAP1 POP DUP1 MLOAD DUP3 MLOAD EQ DUP1 ISZERO PUSH2 0x5AB JUMPI POP DUP1 DUP1 MLOAD SWAP1 PUSH1 0x20 ADD KECCAK256 DUP3 DUP1 MLOAD SWAP1 PUSH1 0x20 ADD KECCAK256 EQ JUMPDEST SWAP3 POP POP POP SWAP3 SWAP2 POP POP JUMP JUMPDEST PUSH1 0x0 TIMESTAMP PUSH1 0x0 PUSH1 0x40 MLOAD PUSH1 0x20 ADD PUSH2 0x5CB SWAP3 SWAP2 SWAP1 PUSH2 0xE31 JUMP JUMPDEST PUSH1 0x40 MLOAD PUSH1 0x20 DUP2 DUP4 SUB SUB DUP2 MSTORE SWAP1 PUSH1 0x40 MSTORE DUP1 MLOAD SWAP1 PUSH1 0x20 ADD KECCAK256 PUSH1 0x0 SHR SWAP1 POP SWAP1 JUMP JUMPDEST PUSH1 0x0 PUSH1 0x40 MLOAD SWAP1 POP SWAP1 JUMP JUMPDEST PUSH1 0x0 DUP1 REVERT JUMPDEST PUSH1 0x0 DUP1 REVERT JUMPDEST PUSH1 0x0 PUSH1 0xFF DUP3 AND SWAP1 POP SWAP2 SWAP1 POP JUMP JUMPDEST PUSH2 0x613 DUP2 PUSH2 0x5FD JUMP JUMPDEST DUP2 EQ PUSH2 0x61E JUMPI PUSH1 0x0 DUP1 REVERT JUMPDEST POP JUMP JUMPDEST PUSH1 0x0 DUP2 CALLDATALOAD SWAP1 POP PUSH2 0x630 DUP2 PUSH2 0x60A JUMP JUMPDEST SWAP3 SWAP2 POP POP JUMP JUMPDEST PUSH1 0x0 PUSH1 0x20 DUP3 DUP5 SUB SLT ISZERO PUSH2 0x64C JUMPI PUSH2 0x64B PUSH2 0x5F3 JUMP JUMPDEST JUMPDEST PUSH1 0x0 PUSH2 0x65A DUP5 DUP3 DUP6 ADD PUSH2 0x621 JUMP JUMPDEST SWAP2 POP POP SWAP3 SWAP2 POP POP JUMP JUMPDEST PUSH1 0x0 DUP2 MLOAD SWAP1 POP SWAP2 SWAP1 POP JUMP JUMPDEST PUSH1 0x0 DUP3 DUP3 MSTORE PUSH1 0x20 DUP3 ADD SWAP1 POP SWAP3 SWAP2 POP POP JUMP JUMPDEST PUSH1 0x0 JUMPDEST DUP4 DUP2 LT ISZERO PUSH2 0x69D JUMPI DUP1 DUP3 ADD MLOAD DUP2 DUP5 ADD MSTORE PUSH1 0x20 DUP2 ADD SWAP1 POP PUSH2 0x682 JUMP JUMPDEST PUSH1 0x0 DUP5 DUP5 ADD MSTORE POP POP POP POP JUMP JUMPDEST PUSH1 0x0 PUSH1 0x1F NOT PUSH1 0x1F DUP4 ADD AND SWAP1 POP SWAP2 SWAP1 POP JUMP JUMPDEST PUSH1 0x0 PUSH2 0x6C5 DUP3 PUSH2 0x663 JUMP JUMPDEST PUSH2 0x6CF DUP2 DUP6 PUSH2 0x66E JUMP JUMPDEST SWAP4 POP PUSH2 0x6DF DUP2 DUP6 PUSH1 0x20 DUP7 ADD PUSH2 0x67F JUMP JUMPDEST PUSH2 0x6E8 DUP2 PUSH2 0x6A9 JUMP JUMPDEST DUP5 ADD SWAP2 POP POP SWAP3 SWAP2 POP POP JUMP JUMPDEST PUSH1 0x0 PUSH1 0x20 DUP3 ADD SWAP1 POP DUP2 DUP2 SUB PUSH1 0x0 DUP4 ADD MSTORE PUSH2 0x70D DUP2 DUP5 PUSH2 0x6BA JUMP JUMPDEST SWAP1 POP SWAP3 SWAP2 POP POP JUMP JUMPDEST PUSH1 0x0 DUP1 REVERT JUMPDEST PUSH1 0x0 DUP1 REVERT JUMPDEST PUSH32 0x4E487B7100000000000000000000000000000000000000000000000000000000 PUSH1 0x0 MSTORE PUSH1 0x41 PUSH1 0x4 MSTORE PUSH1 0x24 PUSH1 0x0 REVERT JUMPDEST PUSH2 0x757 DUP3 PUSH2 0x6A9 JUMP JUMPDEST DUP2 ADD DUP2 DUP2 LT PUSH8 0xFFFFFFFFFFFFFFFF DUP3 GT OR ISZERO PUSH2 0x776 JUMPI PUSH2 0x775 PUSH2 0x71F JUMP JUMPDEST JUMPDEST DUP1 PUSH1 0x40 MSTORE POP POP POP JUMP JUMPDEST PUSH1 0x0 PUSH2 0x789 PUSH2 0x5E9 JUMP JUMPDEST SWAP1 POP PUSH2 0x795 DUP3 DUP3 PUSH2 0x74E JUMP JUMPDEST SWAP2 SWAP1 POP JUMP JUMPDEST PUSH1 0x0 PUSH8 0xFFFFFFFFFFFFFFFF DUP3 GT ISZERO PUSH2 0x7B5 JUMPI PUSH2 0x7B4 PUSH2 0x71F JUMP JUMPDEST JUMPDEST PUSH2 0x7BE DUP3 PUSH2 0x6A9 JUMP JUMPDEST SWAP1 POP PUSH1 0x20 DUP2 ADD SWAP1 POP SWAP2 SWAP1 POP JUMP JUMPDEST DUP3 DUP2 DUP4 CALLDATACOPY PUSH1 0x0 DUP4 DUP4 ADD MSTORE POP POP POP JUMP JUMPDEST PUSH1 0x0 PUSH2 0x7ED PUSH2 0x7E8 DUP5 PUSH2 0x79A JUMP JUMPDEST PUSH2 0x77F JUMP JUMPDEST SWAP1 POP DUP3 DUP2 MSTORE PUSH1 0x20 DUP2 ADD DUP5 DUP5 DUP5 ADD GT ISZERO PUSH2 0x809 JUMPI PUSH2 0x808 PUSH2 0x71A JUMP JUMPDEST JUMPDEST PUSH2 0x814 DUP5 DUP3 DUP6 PUSH2 0x7CB JUMP JUMPDEST POP SWAP4 SWAP3 POP POP POP JUMP JUMPDEST PUSH1 0x0 DUP3 PUSH1 0x1F DUP4 ADD SLT PUSH2 0x831 JUMPI PUSH2 0x830 PUSH2 0x715 JUMP JUMPDEST JUMPDEST DUP2 CALLDATALOAD PUSH2 0x841 DUP5 DUP3 PUSH1 0x20 DUP7 ADD PUSH2 0x7DA JUMP JUMPDEST SWAP2 POP POP SWAP3 SWAP2 POP POP JUMP JUMPDEST PUSH1 0x0 PUSH1 0x20 DUP3 DUP5 SUB SLT ISZERO PUSH2 0x860 JUMPI PUSH2 0x85F PUSH2 0x5F3 JUMP JUMPDEST JUMPDEST PUSH1 0x0 DUP3 ADD CALLDATALOAD PUSH8 0xFFFFFFFFFFFFFFFF DUP2 GT ISZERO PUSH2 0x87E JUMPI PUSH2 0x87D PUSH2 0x5F8 JUMP JUMPDEST JUMPDEST PUSH2 0x88A DUP5 DUP3 DUP6 ADD PUSH2 0x81C JUMP JUMPDEST SWAP2 POP POP SWAP3 SWAP2 POP POP JUMP JUMPDEST PUSH32 0x506C617920776974683A20302C2031206F722032000000000000000000000000 PUSH1 0x0 DUP3 ADD MSTORE POP JUMP JUMPDEST PUSH1 0x0 PUSH2 0x8C9 PUSH1 0x14 DUP4 PUSH2 0x66E JUMP JUMPDEST SWAP2 POP PUSH2 0x8D4 DUP3 PUSH2 0x893 JUMP JUMPDEST PUSH1 0x20 DUP3 ADD SWAP1 POP SWAP2 SWAP1 POP JUMP JUMPDEST PUSH1 0x0 PUSH1 0x20 DUP3 ADD SWAP1 POP DUP2 DUP2 SUB PUSH1 0x0 DUP4 ADD MSTORE PUSH2 0x8F8 DUP2 PUSH2 0x8BC JUMP JUMPDEST SWAP1 POP SWAP2 SWAP1 POP JUMP JUMPDEST PUSH32 0x4E487B7100000000000000000000000000000000000000000000000000000000 PUSH1 0x0 MSTORE PUSH1 0x22 PUSH1 0x4 MSTORE PUSH1 0x24 PUSH1 0x0 REVERT JUMPDEST PUSH1 0x0 PUSH1 0x2 DUP3 DIV SWAP1 POP PUSH1 0x1 DUP3 AND DUP1 PUSH2 0x946 JUMPI PUSH1 0x7F DUP3 AND SWAP2 POP JUMPDEST PUSH1 0x20 DUP3 LT DUP2 SUB PUSH2 0x959 JUMPI PUSH2 0x958 PUSH2 0x8FF JUMP JUMPDEST JUMPDEST POP SWAP2 SWAP1 POP JUMP JUMPDEST PUSH32 0x46697273742C2063686F6F73653A204556454E206F72204F4444000000000000 PUSH1 0x0 DUP3 ADD MSTORE POP JUMP JUMPDEST PUSH1 0x0 PUSH2 0x995 PUSH1 0x1A DUP4 PUSH2 0x66E JUMP JUMPDEST SWAP2 POP PUSH2 0x9A0 DUP3 PUSH2 0x95F JUMP JUMPDEST PUSH1 0x20 DUP3 ADD SWAP1 POP SWAP2 SWAP1 POP JUMP JUMPDEST PUSH1 0x0 PUSH1 0x20 DUP3 ADD SWAP1 POP DUP2 DUP2 SUB PUSH1 0x0 DUP4 ADD MSTORE PUSH2 0x9C4 DUP2 PUSH2 0x988 JUMP JUMPDEST SWAP1 POP SWAP2 SWAP1 POP JUMP JUMPDEST PUSH1 0x0 DUP2 SWAP1 POP SWAP2 SWAP1 POP JUMP JUMPDEST PUSH32 0x4E487B7100000000000000000000000000000000000000000000000000000000 PUSH1 0x0 MSTORE PUSH1 0x11 PUSH1 0x4 MSTORE PUSH1 0x24 PUSH1 0x0 REVERT JUMPDEST PUSH1 0x0 PUSH2 0xA0F DUP3 PUSH2 0x9CB JUMP JUMPDEST SWAP2 POP PUSH2 0xA1A DUP4 PUSH2 0x9CB JUMP JUMPDEST SWAP3 POP DUP3 DUP3 ADD SWAP1 POP DUP1 DUP3 GT ISZERO PUSH2 0xA32 JUMPI PUSH2 0xA31 PUSH2 0x9D5 JUMP JUMPDEST JUMPDEST SWAP3 SWAP2 POP POP JUMP JUMPDEST PUSH32 0x4E487B7100000000000000000000000000000000000000000000000000000000 PUSH1 0x0 MSTORE PUSH1 0x12 PUSH1 0x4 MSTORE PUSH1 0x24 PUSH1 0x0 REVERT JUMPDEST PUSH1 0x0 PUSH2 0xA72 DUP3 PUSH2 0x9CB JUMP JUMPDEST SWAP2 POP PUSH2 0xA7D DUP4 PUSH2 0x9CB JUMP JUMPDEST SWAP3 POP DUP3 PUSH2 0xA8D JUMPI PUSH2 0xA8C PUSH2 0xA38 JUMP JUMPDEST JUMPDEST DUP3 DUP3 MOD SWAP1 POP SWAP3 SWAP2 POP POP JUMP JUMPDEST PUSH32 0x43686F6F73653A204556454E206F72204F444400000000000000000000000000 PUSH1 0x0 DUP3 ADD MSTORE POP JUMP JUMPDEST PUSH1 0x0 PUSH2 0xACE PUSH1 0x13 DUP4 PUSH2 0x66E JUMP JUMPDEST SWAP2 POP PUSH2 0xAD9 DUP3 PUSH2 0xA98 JUMP JUMPDEST PUSH1 0x20 DUP3 ADD SWAP1 POP SWAP2 SWAP1 POP JUMP JUMPDEST PUSH1 0x0 PUSH1 0x20 DUP3 ADD SWAP1 POP DUP2 DUP2 SUB PUSH1 0x0 DUP4 ADD MSTORE PUSH2 0xAFD DUP2 PUSH2 0xAC1 JUMP JUMPDEST SWAP1 POP SWAP2 SWAP1 POP JUMP JUMPDEST PUSH1 0x0 DUP2 SWAP1 POP DUP2 PUSH1 0x0 MSTORE PUSH1 0x20 PUSH1 0x0 KECCAK256 SWAP1 POP SWAP2 SWAP1 POP JUMP JUMPDEST PUSH1 0x0 PUSH1 0x20 PUSH1 0x1F DUP4 ADD DIV SWAP1 POP SWAP2 SWAP1 POP JUMP JUMPDEST PUSH1 0x0 DUP3 DUP3 SHL SWAP1 POP SWAP3 SWAP2 POP POP JUMP JUMPDEST PUSH1 0x0 PUSH1 0x8 DUP4 MUL PUSH2 0xB66 PUSH32 0xFFFFFFFFFFFFFFFFFFFFFFFFFFFFFFFFFFFFFFFFFFFFFFFFFFFFFFFFFFFFFFFF DUP3 PUSH2 0xB29 JUMP JUMPDEST PUSH2 0xB70 DUP7 DUP4 PUSH2 0xB29 JUMP JUMPDEST SWAP6 POP DUP1 NOT DUP5 AND SWAP4 POP DUP1 DUP7 AND DUP5 OR SWAP3 POP POP POP SWAP4 SWAP3 POP POP POP JUMP JUMPDEST PUSH1 0x0 DUP2 SWAP1 POP SWAP2 SWAP1 POP JUMP JUMPDEST PUSH1 0x0 PUSH2 0xBAD PUSH2 0xBA8 PUSH2 0xBA3 DUP5 PUSH2 0x9CB JUMP JUMPDEST PUSH2 0xB88 JUMP JUMPDEST PUSH2 0x9CB JUMP JUMPDEST SWAP1 POP SWAP2 SWAP1 POP JUMP JUMPDEST PUSH1 0x0 DUP2 SWAP1 POP SWAP2 SWAP1 POP JUMP JUMPDEST PUSH2 0xBC7 DUP4 PUSH2 0xB92 JUMP JUMPDEST PUSH2 0xBDB PUSH2 0xBD3 DUP3 PUSH2 0xBB4 JUMP JUMPDEST DUP5 DUP5 SLOAD PUSH2 0xB36 JUMP JUMPDEST DUP3 SSTORE POP POP POP POP JUMP JUMPDEST PUSH1 0x0 SWAP1 JUMP JUMPDEST PUSH2 0xBF0 PUSH2 0xBE3 JUMP JUMPDEST PUSH2 0xBFB DUP2 DUP5 DUP5 PUSH2 0xBBE JUMP JUMPDEST POP POP POP JUMP JUMPDEST JUMPDEST DUP2 DUP2 LT ISZERO PUSH2 0xC1F JUMPI PUSH2 0xC14 PUSH1 0x0 DUP3 PUSH2 0xBE8 JUMP JUMPDEST PUSH1 0x1 DUP2 ADD SWAP1 POP PUSH2 0xC01 JUMP JUMPDEST POP POP JUMP JUMPDEST PUSH1 0x1F DUP3 GT ISZERO PUSH2 0xC64 JUMPI PUSH2 0xC35 DUP2 PUSH2 0xB04 JUMP JUMPDEST PUSH2 0xC3E DUP5 PUSH2 0xB19 JUMP JUMPDEST DUP2 ADD PUSH1 0x20 DUP6 LT ISZERO PUSH2 0xC4D JUMPI DUP2 SWAP1 POP JUMPDEST PUSH2 0xC61 PUSH2 0xC59 DUP6 PUSH2 0xB19 JUMP JUMPDEST DUP4 ADD DUP3 PUSH2 0xC00 JUMP JUMPDEST POP POP JUMPDEST POP POP POP JUMP JUMPDEST PUSH1 0x0 DUP3 DUP3 SHR SWAP1 POP SWAP3 SWAP2 POP POP JUMP JUMPDEST PUSH1 0x0 PUSH2 0xC87 PUSH1 0x0 NOT DUP5 PUSH1 0x8 MUL PUSH2 0xC69 JUMP JUMPDEST NOT DUP1 DUP4 AND SWAP2 POP POP SWAP3 SWAP2 POP POP JUMP JUMPDEST PUSH1 0x0 PUSH2 0xCA0 DUP4 DUP4 PUSH2 0xC76 JUMP JUMPDEST SWAP2 POP DUP3 PUSH1 0x2 MUL DUP3 OR SWAP1 POP SWAP3 SWAP2 POP POP JUMP JUMPDEST PUSH2 0xCB9 DUP3 PUSH2 0x663 JUMP JUMPDEST PUSH8 0xFFFFFFFFFFFFFFFF DUP2 GT ISZERO PUSH2 0xCD2 JUMPI PUSH2 0xCD1 PUSH2 0x71F JUMP JUMPDEST JUMPDEST PUSH2 0xCDC DUP3 SLOAD PUSH2 0x92E JUMP JUMPDEST PUSH2 0xCE7 DUP3 DUP3 DUP6 PUSH2 0xC23 JUMP JUMPDEST PUSH1 0x0 PUSH1 0x20 SWAP1 POP PUSH1 0x1F DUP4 GT PUSH1 0x1 DUP2 EQ PUSH2 0xD1A JUMPI PUSH1 0x0 DUP5 ISZERO PUSH2 0xD08 JUMPI DUP3 DUP8 ADD MLOAD SWAP1 POP JUMPDEST PUSH2 0xD12 DUP6 DUP3 PUSH2 0xC94 JUMP JUMPDEST DUP7 SSTORE POP PUSH2 0xD7A JUMP JUMPDEST PUSH1 0x1F NOT DUP5 AND PUSH2 0xD28 DUP7 PUSH2 0xB04 JUMP JUMPDEST PUSH1 0x0 JUMPDEST DUP3 DUP2 LT ISZERO PUSH2 0xD50 JUMPI DUP5 DUP10 ADD MLOAD DUP3 SSTORE PUSH1 0x1 DUP3 ADD SWAP2 POP PUSH1 0x20 DUP6 ADD SWAP5 POP PUSH1 0x20 DUP2 ADD SWAP1 POP PUSH2 0xD2B JUMP JUMPDEST DUP7 DUP4 LT ISZERO PUSH2 0xD6D JUMPI DUP5 DUP10 ADD MLOAD PUSH2 0xD69 PUSH1 0x1F DUP10 AND DUP3 PUSH2 0xC76 JUMP JUMPDEST DUP4 SSTORE POP JUMPDEST PUSH1 0x1 PUSH1 0x2 DUP9 MUL ADD DUP9 SSTORE POP POP POP JUMPDEST POP POP POP POP POP POP JUMP JUMPDEST PUSH1 0x0 DUP2 SWAP1 POP SWAP2 SWAP1 POP JUMP JUMPDEST PUSH2 0xD9D PUSH2 0xD98 DUP3 PUSH2 0x9CB JUMP JUMPDEST PUSH2 0xD82 JUMP JUMPDEST DUP3 MSTORE POP POP JUMP JUMPDEST PUSH1 0x0 DUP2 SWAP1 POP SWAP3 SWAP2 POP POP JUMP JUMPDEST PUSH1 0x0 DUP2 SLOAD PUSH2 0xDBB DUP2 PUSH2 0x92E JUMP JUMPDEST PUSH2 0xDC5 DUP2 DUP7 PUSH2 0xDA3 JUMP JUMPDEST SWAP5 POP PUSH1 0x1 DUP3 AND PUSH1 0x0 DUP2 EQ PUSH2 0xDE0 JUMPI PUSH1 0x1 DUP2 EQ PUSH2 0xDF5 JUMPI PUSH2 0xE28 JUMP JUMPDEST PUSH1 0xFF NOT DUP4 AND DUP7 MSTORE DUP2 ISZERO ISZERO DUP3 MUL DUP7 ADD SWAP4 POP PUSH2 0xE28 JUMP JUMPDEST PUSH2 0xDFE DUP6 PUSH2 0xB04 JUMP JUMPDEST PUSH1 0x0 JUMPDEST DUP4 DUP2 LT ISZERO PUSH2 0xE20 JUMPI DUP2 SLOAD DUP2 DUP10 ADD MSTORE PUSH1 0x1 DUP3 ADD SWAP2 POP PUSH1 0x20 DUP2 ADD SWAP1 POP PUSH2 0xE01 JUMP JUMPDEST DUP4 DUP9 ADD SWAP6 POP POP POP JUMPDEST POP POP POP SWAP3 SWAP2 POP POP JUMP JUMPDEST PUSH1 0x0 PUSH2 0xE3D DUP3 DUP6 PUSH2 0xD8C JUMP JUMPDEST PUSH1 0x20 DUP3 ADD SWAP2 POP PUSH2 0xE4D DUP3 DUP5 PUSH2 0xDAE JUMP JUMPDEST SWAP2 POP DUP2 SWAP1 POP SWAP4 SWAP3 POP POP POP JUMP INVALID POP PUSH13 0x617965722063686F6F73652045 JUMP GASLIMIT 0x4E KECCAK256 PUSH2 0x6E64 KECCAK256 PUSH17 0x6C6179732E204350552063686F6F73653A LOG2 PUSH5 0x6970667358 0x22 SLT KECCAK256 0x28 0x5E RETURNDATACOPY 0xC5 SWAP9 0x26 0xD4 0x26 0xBA 0xA7 CALLDATALOAD DUP16 MULMOD REVERT DUP6 0xCF KECCAK256 PREVRANDAO PUSH1 0x88 KECCAK256 SWAP11 PUSH26 0xF7B28E27BA018627E64736F6C63430008120033000000000000 "
				},
				"gasEstimates": {
					"creation": {
						"codeDepositCost": "753600",
						"executionCost": "infinite",
						"totalCost": "infinite"
					},
					"external": {
						"choice()": "infinite",
						"choose(string)": "infinite",
						"play(uint8)": "infinite"
					},
					"internal": {
						"compareString(string memory,string memory)": "infinite",
						"random()": "infinite"
					}
				},
				"methodIdentifiers": {
					"choice()": "98f42fe3",
					"choose(string)": "98c8d81f",
					"play(uint8)": "53a04b05"
				}
			},
			"storageLayout": {
				"storage": [
					{
						"astId": 4,
						"contract": "Contracts/PickEvenOrOdd.sol:PickEvenOrOdd",
						"label": "choice",
						"offset": 0,
						"slot": "0",
						"type": "t_string_storage"
					}
				],
				"types": {
					"t_string_storage": {
						"encoding": "bytes",
						"label": "string",
						"numberOfBytes": "32"
					}
				}
			},
			"userdoc": {
				"kind": "user",
				"methods": {
					"choose(string)": {
						"notice": "newChoice EVEN or ODD"
					}
				},
				"version": 1
			}
		}
	}
}