{
	"Contracts/PickEvenOrOdd.sol": {
		"PickEvenOrOdd": {
			"abi": [
				{
					"inputs": [],
					"name": "choice",
					"outputs": [
						{
							"internalType": "uint8",
							"name": "",
							"type": "uint8"
						}
					],
					"stateMutability": "view",
					"type": "function"
				},
				{
					"inputs": [
						{
							"internalType": "uint8",
							"name": "newChoice",
							"type": "uint8"
						}
					],
					"name": "choose",
					"outputs": [],
					"stateMutability": "nonpayable",
					"type": "function"
				},
				{
					"inputs": [
						{
							"internalType": "uint8",
							"name": "number",
							"type": "uint8"
						}
					],
					"name": "play",
					"outputs": [
						{
							"internalType": "bool",
							"name": "",
							"type": "bool"
						}
					],
					"stateMutability": "view",
					"type": "function"
				}
			],
			"devdoc": {
				"kind": "dev",
				"methods": {},
				"version": 1
			},
			"evm": {
				"assembly": "    /* \"Contracts/PickEvenOrOdd.sol\":62:1410  contract PickEvenOrOdd{... */\n  mstore(0x40, 0x80)\n    /* \"Contracts/PickEvenOrOdd.sol\":116:117  0 */\n  0x00\n    /* \"Contracts/PickEvenOrOdd.sol\":93:117  uint8 public  choice = 0 */\n  dup1\n  exp(0x0100, 0x00)\n  dup2\n  sload\n  dup2\n  0xff\n  mul\n  not\n  and\n  swap1\n  dup4\n  0xff\n  and\n  mul\n  or\n  swap1\n  sstore\n  pop\n    /* \"Contracts/PickEvenOrOdd.sol\":62:1410  contract PickEvenOrOdd{... */\n  callvalue\n  dup1\n  iszero\n  tag_1\n  jumpi\n  0x00\n  dup1\n  revert\ntag_1:\n  pop\n  dataSize(sub_0)\n  dup1\n  dataOffset(sub_0)\n  0x00\n  codecopy\n  0x00\n  return\nstop\n\nsub_0: assembly {\n        /* \"Contracts/PickEvenOrOdd.sol\":62:1410  contract PickEvenOrOdd{... */\n      mstore(0x40, 0x80)\n      callvalue\n      dup1\n      iszero\n      tag_1\n      jumpi\n      0x00\n      dup1\n      revert\n    tag_1:\n      pop\n      jumpi(tag_2, lt(calldatasize, 0x04))\n      shr(0xe0, calldataload(0x00))\n      dup1\n      0x53a04b05\n      eq\n      tag_3\n      jumpi\n      dup1\n      0x98f42fe3\n      eq\n      tag_4\n      jumpi\n      dup1\n      0xf94e349d\n      eq\n      tag_5\n      jumpi\n    tag_2:\n      0x00\n      dup1\n      revert\n        /* \"Contracts/PickEvenOrOdd.sol\":790:1407  function play(uint8 number) public view returns(bool) {... */\n    tag_3:\n      tag_6\n      0x04\n      dup1\n      calldatasize\n      sub\n      dup2\n      add\n      swap1\n      tag_7\n      swap2\n      swap1\n      tag_8\n      jump\t// in\n    tag_7:\n      tag_9\n      jump\t// in\n    tag_6:\n      mload(0x40)\n      tag_10\n      swap2\n      swap1\n      tag_11\n      jump\t// in\n    tag_10:\n      mload(0x40)\n      dup1\n      swap2\n      sub\n      swap1\n      return\n        /* \"Contracts/PickEvenOrOdd.sol\":93:117  uint8 public  choice = 0 */\n    tag_4:\n      tag_12\n      tag_13\n      jump\t// in\n    tag_12:\n      mload(0x40)\n      tag_14\n      swap2\n      swap1\n      tag_15\n      jump\t// in\n    tag_14:\n      mload(0x40)\n      dup1\n      swap2\n      sub\n      swap1\n      return\n        /* \"Contracts/PickEvenOrOdd.sol\":184:467  function choose(uint8 newChoice) public{... */\n    tag_5:\n      tag_16\n      0x04\n      dup1\n      calldatasize\n      sub\n      dup2\n      add\n      swap1\n      tag_17\n      swap2\n      swap1\n      tag_8\n      jump\t// in\n    tag_17:\n      tag_18\n      jump\t// in\n    tag_16:\n      stop\n        /* \"Contracts/PickEvenOrOdd.sol\":790:1407  function play(uint8 number) public view returns(bool) {... */\n    tag_9:\n        /* \"Contracts/PickEvenOrOdd.sol\":838:842  bool */\n      0x00\n        /* \"Contracts/PickEvenOrOdd.sol\":904:905  0 */\n      dup1\n        /* \"Contracts/PickEvenOrOdd.sol\":894:900  number */\n      dup3\n        /* \"Contracts/PickEvenOrOdd.sol\":894:905  number >= 0 */\n      0xff\n      and\n      lt\n      iszero\n        /* \"Contracts/PickEvenOrOdd.sol\":894:920  number >= 0 && number <= 2 */\n      dup1\n      iszero\n      tag_20\n      jumpi\n      pop\n        /* \"Contracts/PickEvenOrOdd.sol\":919:920  2 */\n      0x02\n        /* \"Contracts/PickEvenOrOdd.sol\":909:915  number */\n      dup3\n        /* \"Contracts/PickEvenOrOdd.sol\":909:920  number <= 2 */\n      0xff\n      and\n      gt\n      iszero\n        /* \"Contracts/PickEvenOrOdd.sol\":894:920  number >= 0 && number <= 2 */\n    tag_20:\n        /* \"Contracts/PickEvenOrOdd.sol\":886:945  require(number >= 0 && number <= 2, \"Play with: 0, 1 or 2\") */\n      tag_21\n      jumpi\n      mload(0x40)\n      0x08c379a000000000000000000000000000000000000000000000000000000000\n      dup2\n      mstore\n      0x04\n      add\n      tag_22\n      swap1\n      tag_23\n      jump\t// in\n    tag_22:\n      mload(0x40)\n      dup1\n      swap2\n      sub\n      swap1\n      revert\n    tag_21:\n        /* \"Contracts/PickEvenOrOdd.sol\":1006:1007  0 */\n      0x00\n        /* \"Contracts/PickEvenOrOdd.sol\":996:1002  choice */\n      dup1\n      0x00\n      swap1\n      sload\n      swap1\n      0x0100\n      exp\n      swap1\n      div\n      0xff\n      and\n        /* \"Contracts/PickEvenOrOdd.sol\":996:1007  choice != 0 */\n      0xff\n      and\n      sub\n        /* \"Contracts/PickEvenOrOdd.sol\":988:1046  require(choice != 0, \"First, choose: 1 = odd or 2 = even\") */\n      tag_24\n      jumpi\n      mload(0x40)\n      0x08c379a000000000000000000000000000000000000000000000000000000000\n      dup2\n      mstore\n      0x04\n      add\n      tag_25\n      swap1\n      tag_26\n      jump\t// in\n    tag_25:\n      mload(0x40)\n      dup1\n      swap2\n      sub\n      swap1\n      revert\n    tag_24:\n        /* \"Contracts/PickEvenOrOdd.sol\":1059:1073  uint cpuNumber */\n      0x00\n        /* \"Contracts/PickEvenOrOdd.sol\":1076:1084  random() */\n      tag_27\n        /* \"Contracts/PickEvenOrOdd.sol\":1076:1082  random */\n      tag_28\n        /* \"Contracts/PickEvenOrOdd.sol\":1076:1084  random() */\n      jump\t// in\n    tag_27:\n        /* \"Contracts/PickEvenOrOdd.sol\":1059:1084  uint cpuNumber = random() */\n      swap1\n      pop\n        /* \"Contracts/PickEvenOrOdd.sol\":1121:1132  bool isEven */\n      0x00\n        /* \"Contracts/PickEvenOrOdd.sol\":1162:1163  0 */\n      dup1\n        /* \"Contracts/PickEvenOrOdd.sol\":1157:1158  2 */\n      0x02\n        /* \"Contracts/PickEvenOrOdd.sol\":1148:1154  number */\n      dup6\n        /* \"Contracts/PickEvenOrOdd.sol\":1136:1154  cpuNumber + number */\n      0xff\n      and\n        /* \"Contracts/PickEvenOrOdd.sol\":1136:1145  cpuNumber */\n      dup5\n        /* \"Contracts/PickEvenOrOdd.sol\":1136:1154  cpuNumber + number */\n      tag_29\n      swap2\n      swap1\n      tag_30\n      jump\t// in\n    tag_29:\n        /* \"Contracts/PickEvenOrOdd.sol\":1135:1158  (cpuNumber + number) %2 */\n      tag_31\n      swap2\n      swap1\n      tag_32\n      jump\t// in\n    tag_31:\n        /* \"Contracts/PickEvenOrOdd.sol\":1135:1163  (cpuNumber + number) %2 == 0 */\n      eq\n        /* \"Contracts/PickEvenOrOdd.sol\":1121:1163  bool isEven = (cpuNumber + number) %2 == 0 */\n      swap1\n      pop\n        /* \"Contracts/PickEvenOrOdd.sol\":1199:1205  isEven */\n      dup1\n        /* \"Contracts/PickEvenOrOdd.sol\":1199:1220  isEven && choice == 1 */\n      dup1\n      iszero\n      tag_33\n      jumpi\n      pop\n        /* \"Contracts/PickEvenOrOdd.sol\":1219:1220  1 */\n      0x01\n        /* \"Contracts/PickEvenOrOdd.sol\":1209:1215  choice */\n      0x00\n      dup1\n      sload\n      swap1\n      0x0100\n      exp\n      swap1\n      div\n      0xff\n      and\n        /* \"Contracts/PickEvenOrOdd.sol\":1209:1220  choice == 1 */\n      0xff\n      and\n      eq\n        /* \"Contracts/PickEvenOrOdd.sol\":1199:1220  isEven && choice == 1 */\n    tag_33:\n        /* \"Contracts/PickEvenOrOdd.sol\":1196:1392  if(isEven && choice == 1){... */\n      iszero\n      tag_34\n      jumpi\n        /* \"Contracts/PickEvenOrOdd.sol\":1243:1247  true */\n      0x01\n        /* \"Contracts/PickEvenOrOdd.sol\":1236:1247  return true */\n      swap3\n      pop\n      pop\n      pop\n      jump(tag_19)\n        /* \"Contracts/PickEvenOrOdd.sol\":1196:1392  if(isEven && choice == 1){... */\n    tag_34:\n        /* \"Contracts/PickEvenOrOdd.sol\":1278:1284  isEven */\n      dup1\n        /* \"Contracts/PickEvenOrOdd.sol\":1277:1284  !isEven */\n      iszero\n        /* \"Contracts/PickEvenOrOdd.sol\":1277:1299  !isEven && choice == 2 */\n      dup1\n      iszero\n      tag_36\n      jumpi\n      pop\n        /* \"Contracts/PickEvenOrOdd.sol\":1298:1299  2 */\n      0x02\n        /* \"Contracts/PickEvenOrOdd.sol\":1288:1294  choice */\n      0x00\n      dup1\n      sload\n      swap1\n      0x0100\n      exp\n      swap1\n      div\n      0xff\n      and\n        /* \"Contracts/PickEvenOrOdd.sol\":1288:1299  choice == 2 */\n      0xff\n      and\n      eq\n        /* \"Contracts/PickEvenOrOdd.sol\":1277:1299  !isEven && choice == 2 */\n    tag_36:\n        /* \"Contracts/PickEvenOrOdd.sol\":1274:1392  if(!isEven && choice == 2) {... */\n      iszero\n      tag_37\n      jumpi\n        /* \"Contracts/PickEvenOrOdd.sol\":1323:1327  true */\n      0x01\n        /* \"Contracts/PickEvenOrOdd.sol\":1316:1327  return true */\n      swap3\n      pop\n      pop\n      pop\n      jump(tag_19)\n        /* \"Contracts/PickEvenOrOdd.sol\":1274:1392  if(!isEven && choice == 2) {... */\n    tag_37:\n        /* \"Contracts/PickEvenOrOdd.sol\":1375:1380  false */\n      0x00\n        /* \"Contracts/PickEvenOrOdd.sol\":1368:1380  return false */\n      swap3\n      pop\n      pop\n      pop\n        /* \"Contracts/PickEvenOrOdd.sol\":790:1407  function play(uint8 number) public view returns(bool) {... */\n    tag_19:\n      swap2\n      swap1\n      pop\n      jump\t// out\n        /* \"Contracts/PickEvenOrOdd.sol\":93:117  uint8 public  choice = 0 */\n    tag_13:\n      0x00\n      dup1\n      sload\n      swap1\n      0x0100\n      exp\n      swap1\n      div\n      0xff\n      and\n      dup2\n      jump\t// out\n        /* \"Contracts/PickEvenOrOdd.sol\":184:467  function choose(uint8 newChoice) public{... */\n    tag_18:\n        /* \"Contracts/PickEvenOrOdd.sol\":361:362  1 */\n      0x01\n        /* \"Contracts/PickEvenOrOdd.sol\":348:357  newChoice */\n      dup2\n        /* \"Contracts/PickEvenOrOdd.sol\":348:362  newChoice == 1 */\n      0xff\n      and\n      eq\n        /* \"Contracts/PickEvenOrOdd.sol\":348:380  newChoice == 1 || newChoice == 2 */\n      dup1\n      tag_40\n      jumpi\n      pop\n        /* \"Contracts/PickEvenOrOdd.sol\":379:380  2 */\n      0x02\n        /* \"Contracts/PickEvenOrOdd.sol\":366:375  newChoice */\n      dup2\n        /* \"Contracts/PickEvenOrOdd.sol\":366:380  newChoice == 2 */\n      0xff\n      and\n      eq\n        /* \"Contracts/PickEvenOrOdd.sol\":348:380  newChoice == 1 || newChoice == 2 */\n    tag_40:\n        /* \"Contracts/PickEvenOrOdd.sol\":340:412  require(newChoice == 1 || newChoice == 2, \"Choose: 1 = odd or 2 = even\") */\n      tag_41\n      jumpi\n      mload(0x40)\n      0x08c379a000000000000000000000000000000000000000000000000000000000\n      dup2\n      mstore\n      0x04\n      add\n      tag_42\n      swap1\n      tag_43\n      jump\t// in\n    tag_42:\n      mload(0x40)\n      dup1\n      swap2\n      sub\n      swap1\n      revert\n    tag_41:\n        /* \"Contracts/PickEvenOrOdd.sol\":450:459  newChoice */\n      dup1\n        /* \"Contracts/PickEvenOrOdd.sol\":441:447  choice */\n      0x00\n      dup1\n        /* \"Contracts/PickEvenOrOdd.sol\":441:459  choice = newChoice */\n      0x0100\n      exp\n      dup2\n      sload\n      dup2\n      0xff\n      mul\n      not\n      and\n      swap1\n      dup4\n      0xff\n      and\n      mul\n      or\n      swap1\n      sstore\n      pop\n        /* \"Contracts/PickEvenOrOdd.sol\":184:467  function choose(uint8 newChoice) public{... */\n      pop\n      jump\t// out\n        /* \"Contracts/PickEvenOrOdd.sol\":647:780  function random() private view returns(uint) {... */\n    tag_28:\n        /* \"Contracts/PickEvenOrOdd.sol\":686:690  uint */\n      0x00\n        /* \"Contracts/PickEvenOrOdd.sol\":744:759  block.timestamp */\n      timestamp\n        /* \"Contracts/PickEvenOrOdd.sol\":761:767  choice */\n      0x00\n      dup1\n      sload\n      swap1\n      0x0100\n      exp\n      swap1\n      div\n      0xff\n      and\n        /* \"Contracts/PickEvenOrOdd.sol\":727:768  abi.encodePacked(block.timestamp, choice) */\n      add(0x20, mload(0x40))\n      tag_45\n      swap3\n      swap2\n      swap1\n      tag_46\n      jump\t// in\n    tag_45:\n      mload(0x40)\n      0x20\n      dup2\n      dup4\n      sub\n      sub\n      dup2\n      mstore\n      swap1\n      0x40\n      mstore\n        /* \"Contracts/PickEvenOrOdd.sol\":716:770  keccak256( abi.encodePacked(block.timestamp, choice) ) */\n      dup1\n      mload\n      swap1\n      0x20\n      add\n      keccak256\n        /* \"Contracts/PickEvenOrOdd.sol\":710:772  uint( keccak256( abi.encodePacked(block.timestamp, choice) ) ) */\n      0x00\n      shr\n        /* \"Contracts/PickEvenOrOdd.sol\":703:772  return uint( keccak256( abi.encodePacked(block.timestamp, choice) ) ) */\n      swap1\n      pop\n        /* \"Contracts/PickEvenOrOdd.sol\":647:780  function random() private view returns(uint) {... */\n      swap1\n      jump\t// out\n        /* \"#utility.yul\":88:205   */\n    tag_48:\n        /* \"#utility.yul\":197:198   */\n      0x00\n        /* \"#utility.yul\":194:195   */\n      dup1\n        /* \"#utility.yul\":187:199   */\n      revert\n        /* \"#utility.yul\":334:420   */\n    tag_50:\n        /* \"#utility.yul\":369:376   */\n      0x00\n        /* \"#utility.yul\":409:413   */\n      0xff\n        /* \"#utility.yul\":402:407   */\n      dup3\n        /* \"#utility.yul\":398:414   */\n      and\n        /* \"#utility.yul\":387:414   */\n      swap1\n      pop\n        /* \"#utility.yul\":334:420   */\n      swap2\n      swap1\n      pop\n      jump\t// out\n        /* \"#utility.yul\":426:544   */\n    tag_51:\n        /* \"#utility.yul\":497:519   */\n      tag_77\n        /* \"#utility.yul\":513:518   */\n      dup2\n        /* \"#utility.yul\":497:519   */\n      tag_50\n      jump\t// in\n    tag_77:\n        /* \"#utility.yul\":490:495   */\n      dup2\n        /* \"#utility.yul\":487:520   */\n      eq\n        /* \"#utility.yul\":477:538   */\n      tag_78\n      jumpi\n        /* \"#utility.yul\":534:535   */\n      0x00\n        /* \"#utility.yul\":531:532   */\n      dup1\n        /* \"#utility.yul\":524:536   */\n      revert\n        /* \"#utility.yul\":477:538   */\n    tag_78:\n        /* \"#utility.yul\":426:544   */\n      pop\n      jump\t// out\n        /* \"#utility.yul\":550:685   */\n    tag_52:\n        /* \"#utility.yul\":594:599   */\n      0x00\n        /* \"#utility.yul\":632:638   */\n      dup2\n        /* \"#utility.yul\":619:639   */\n      calldataload\n        /* \"#utility.yul\":610:639   */\n      swap1\n      pop\n        /* \"#utility.yul\":648:679   */\n      tag_80\n        /* \"#utility.yul\":673:678   */\n      dup2\n        /* \"#utility.yul\":648:679   */\n      tag_51\n      jump\t// in\n    tag_80:\n        /* \"#utility.yul\":550:685   */\n      swap3\n      swap2\n      pop\n      pop\n      jump\t// out\n        /* \"#utility.yul\":691:1016   */\n    tag_8:\n        /* \"#utility.yul\":748:754   */\n      0x00\n        /* \"#utility.yul\":797:799   */\n      0x20\n        /* \"#utility.yul\":785:794   */\n      dup3\n        /* \"#utility.yul\":776:783   */\n      dup5\n        /* \"#utility.yul\":772:795   */\n      sub\n        /* \"#utility.yul\":768:800   */\n      slt\n        /* \"#utility.yul\":765:884   */\n      iszero\n      tag_82\n      jumpi\n        /* \"#utility.yul\":803:882   */\n      tag_83\n      tag_48\n      jump\t// in\n    tag_83:\n        /* \"#utility.yul\":765:884   */\n    tag_82:\n        /* \"#utility.yul\":923:924   */\n      0x00\n        /* \"#utility.yul\":948:999   */\n      tag_84\n        /* \"#utility.yul\":991:998   */\n      dup5\n        /* \"#utility.yul\":982:988   */\n      dup3\n        /* \"#utility.yul\":971:980   */\n      dup6\n        /* \"#utility.yul\":967:989   */\n      add\n        /* \"#utility.yul\":948:999   */\n      tag_52\n      jump\t// in\n    tag_84:\n        /* \"#utility.yul\":938:999   */\n      swap2\n      pop\n        /* \"#utility.yul\":894:1009   */\n      pop\n        /* \"#utility.yul\":691:1016   */\n      swap3\n      swap2\n      pop\n      pop\n      jump\t// out\n        /* \"#utility.yul\":1022:1112   */\n    tag_53:\n        /* \"#utility.yul\":1056:1063   */\n      0x00\n        /* \"#utility.yul\":1099:1104   */\n      dup2\n        /* \"#utility.yul\":1092:1105   */\n      iszero\n        /* \"#utility.yul\":1085:1106   */\n      iszero\n        /* \"#utility.yul\":1074:1106   */\n      swap1\n      pop\n        /* \"#utility.yul\":1022:1112   */\n      swap2\n      swap1\n      pop\n      jump\t// out\n        /* \"#utility.yul\":1118:1227   */\n    tag_54:\n        /* \"#utility.yul\":1199:1220   */\n      tag_87\n        /* \"#utility.yul\":1214:1219   */\n      dup2\n        /* \"#utility.yul\":1199:1220   */\n      tag_53\n      jump\t// in\n    tag_87:\n        /* \"#utility.yul\":1194:1197   */\n      dup3\n        /* \"#utility.yul\":1187:1221   */\n      mstore\n        /* \"#utility.yul\":1118:1227   */\n      pop\n      pop\n      jump\t// out\n        /* \"#utility.yul\":1233:1443   */\n    tag_11:\n        /* \"#utility.yul\":1320:1324   */\n      0x00\n        /* \"#utility.yul\":1358:1360   */\n      0x20\n        /* \"#utility.yul\":1347:1356   */\n      dup3\n        /* \"#utility.yul\":1343:1361   */\n      add\n        /* \"#utility.yul\":1335:1361   */\n      swap1\n      pop\n        /* \"#utility.yul\":1371:1436   */\n      tag_89\n        /* \"#utility.yul\":1433:1434   */\n      0x00\n        /* \"#utility.yul\":1422:1431   */\n      dup4\n        /* \"#utility.yul\":1418:1435   */\n      add\n        /* \"#utility.yul\":1409:1415   */\n      dup5\n        /* \"#utility.yul\":1371:1436   */\n      tag_54\n      jump\t// in\n    tag_89:\n        /* \"#utility.yul\":1233:1443   */\n      swap3\n      swap2\n      pop\n      pop\n      jump\t// out\n        /* \"#utility.yul\":1449:1561   */\n    tag_55:\n        /* \"#utility.yul\":1532:1554   */\n      tag_91\n        /* \"#utility.yul\":1548:1553   */\n      dup2\n        /* \"#utility.yul\":1532:1554   */\n      tag_50\n      jump\t// in\n    tag_91:\n        /* \"#utility.yul\":1527:1530   */\n      dup3\n        /* \"#utility.yul\":1520:1555   */\n      mstore\n        /* \"#utility.yul\":1449:1561   */\n      pop\n      pop\n      jump\t// out\n        /* \"#utility.yul\":1567:1781   */\n    tag_15:\n        /* \"#utility.yul\":1656:1660   */\n      0x00\n        /* \"#utility.yul\":1694:1696   */\n      0x20\n        /* \"#utility.yul\":1683:1692   */\n      dup3\n        /* \"#utility.yul\":1679:1697   */\n      add\n        /* \"#utility.yul\":1671:1697   */\n      swap1\n      pop\n        /* \"#utility.yul\":1707:1774   */\n      tag_93\n        /* \"#utility.yul\":1771:1772   */\n      0x00\n        /* \"#utility.yul\":1760:1769   */\n      dup4\n        /* \"#utility.yul\":1756:1773   */\n      add\n        /* \"#utility.yul\":1747:1753   */\n      dup5\n        /* \"#utility.yul\":1707:1774   */\n      tag_55\n      jump\t// in\n    tag_93:\n        /* \"#utility.yul\":1567:1781   */\n      swap3\n      swap2\n      pop\n      pop\n      jump\t// out\n        /* \"#utility.yul\":1787:1956   */\n    tag_56:\n        /* \"#utility.yul\":1871:1882   */\n      0x00\n        /* \"#utility.yul\":1905:1911   */\n      dup3\n        /* \"#utility.yul\":1900:1903   */\n      dup3\n        /* \"#utility.yul\":1893:1912   */\n      mstore\n        /* \"#utility.yul\":1945:1949   */\n      0x20\n        /* \"#utility.yul\":1940:1943   */\n      dup3\n        /* \"#utility.yul\":1936:1950   */\n      add\n        /* \"#utility.yul\":1921:1950   */\n      swap1\n      pop\n        /* \"#utility.yul\":1787:1956   */\n      swap3\n      swap2\n      pop\n      pop\n      jump\t// out\n        /* \"#utility.yul\":1962:2132   */\n    tag_57:\n        /* \"#utility.yul\":2102:2124   */\n      0x506c617920776974683a20302c2031206f722032000000000000000000000000\n        /* \"#utility.yul\":2098:2099   */\n      0x00\n        /* \"#utility.yul\":2090:2096   */\n      dup3\n        /* \"#utility.yul\":2086:2100   */\n      add\n        /* \"#utility.yul\":2079:2125   */\n      mstore\n        /* \"#utility.yul\":1962:2132   */\n      pop\n      jump\t// out\n        /* \"#utility.yul\":2138:2504   */\n    tag_58:\n        /* \"#utility.yul\":2280:2283   */\n      0x00\n        /* \"#utility.yul\":2301:2368   */\n      tag_97\n        /* \"#utility.yul\":2365:2367   */\n      0x14\n        /* \"#utility.yul\":2360:2363   */\n      dup4\n        /* \"#utility.yul\":2301:2368   */\n      tag_56\n      jump\t// in\n    tag_97:\n        /* \"#utility.yul\":2294:2368   */\n      swap2\n      pop\n        /* \"#utility.yul\":2377:2470   */\n      tag_98\n        /* \"#utility.yul\":2466:2469   */\n      dup3\n        /* \"#utility.yul\":2377:2470   */\n      tag_57\n      jump\t// in\n    tag_98:\n        /* \"#utility.yul\":2495:2497   */\n      0x20\n        /* \"#utility.yul\":2490:2493   */\n      dup3\n        /* \"#utility.yul\":2486:2498   */\n      add\n        /* \"#utility.yul\":2479:2498   */\n      swap1\n      pop\n        /* \"#utility.yul\":2138:2504   */\n      swap2\n      swap1\n      pop\n      jump\t// out\n        /* \"#utility.yul\":2510:2929   */\n    tag_23:\n        /* \"#utility.yul\":2676:2680   */\n      0x00\n        /* \"#utility.yul\":2714:2716   */\n      0x20\n        /* \"#utility.yul\":2703:2712   */\n      dup3\n        /* \"#utility.yul\":2699:2717   */\n      add\n        /* \"#utility.yul\":2691:2717   */\n      swap1\n      pop\n        /* \"#utility.yul\":2763:2772   */\n      dup2\n        /* \"#utility.yul\":2757:2761   */\n      dup2\n        /* \"#utility.yul\":2753:2773   */\n      sub\n        /* \"#utility.yul\":2749:2750   */\n      0x00\n        /* \"#utility.yul\":2738:2747   */\n      dup4\n        /* \"#utility.yul\":2734:2751   */\n      add\n        /* \"#utility.yul\":2727:2774   */\n      mstore\n        /* \"#utility.yul\":2791:2922   */\n      tag_100\n        /* \"#utility.yul\":2917:2921   */\n      dup2\n        /* \"#utility.yul\":2791:2922   */\n      tag_58\n      jump\t// in\n    tag_100:\n        /* \"#utility.yul\":2783:2922   */\n      swap1\n      pop\n        /* \"#utility.yul\":2510:2929   */\n      swap2\n      swap1\n      pop\n      jump\t// out\n        /* \"#utility.yul\":2935:3156   */\n    tag_59:\n        /* \"#utility.yul\":3075:3109   */\n      0x46697273742c2063686f6f73653a2031203d206f6464206f722032203d206576\n        /* \"#utility.yul\":3071:3072   */\n      0x00\n        /* \"#utility.yul\":3063:3069   */\n      dup3\n        /* \"#utility.yul\":3059:3073   */\n      add\n        /* \"#utility.yul\":3052:3110   */\n      mstore\n        /* \"#utility.yul\":3144:3148   */\n      0x656e000000000000000000000000000000000000000000000000000000000000\n        /* \"#utility.yul\":3139:3141   */\n      0x20\n        /* \"#utility.yul\":3131:3137   */\n      dup3\n        /* \"#utility.yul\":3127:3142   */\n      add\n        /* \"#utility.yul\":3120:3149   */\n      mstore\n        /* \"#utility.yul\":2935:3156   */\n      pop\n      jump\t// out\n        /* \"#utility.yul\":3162:3528   */\n    tag_60:\n        /* \"#utility.yul\":3304:3307   */\n      0x00\n        /* \"#utility.yul\":3325:3392   */\n      tag_103\n        /* \"#utility.yul\":3389:3391   */\n      0x22\n        /* \"#utility.yul\":3384:3387   */\n      dup4\n        /* \"#utility.yul\":3325:3392   */\n      tag_56\n      jump\t// in\n    tag_103:\n        /* \"#utility.yul\":3318:3392   */\n      swap2\n      pop\n        /* \"#utility.yul\":3401:3494   */\n      tag_104\n        /* \"#utility.yul\":3490:3493   */\n      dup3\n        /* \"#utility.yul\":3401:3494   */\n      tag_59\n      jump\t// in\n    tag_104:\n        /* \"#utility.yul\":3519:3521   */\n      0x40\n        /* \"#utility.yul\":3514:3517   */\n      dup3\n        /* \"#utility.yul\":3510:3522   */\n      add\n        /* \"#utility.yul\":3503:3522   */\n      swap1\n      pop\n        /* \"#utility.yul\":3162:3528   */\n      swap2\n      swap1\n      pop\n      jump\t// out\n        /* \"#utility.yul\":3534:3953   */\n    tag_26:\n        /* \"#utility.yul\":3700:3704   */\n      0x00\n        /* \"#utility.yul\":3738:3740   */\n      0x20\n        /* \"#utility.yul\":3727:3736   */\n      dup3\n        /* \"#utility.yul\":3723:3741   */\n      add\n        /* \"#utility.yul\":3715:3741   */\n      swap1\n      pop\n        /* \"#utility.yul\":3787:3796   */\n      dup2\n        /* \"#utility.yul\":3781:3785   */\n      dup2\n        /* \"#utility.yul\":3777:3797   */\n      sub\n        /* \"#utility.yul\":3773:3774   */\n      0x00\n        /* \"#utility.yul\":3762:3771   */\n      dup4\n        /* \"#utility.yul\":3758:3775   */\n      add\n        /* \"#utility.yul\":3751:3798   */\n      mstore\n        /* \"#utility.yul\":3815:3946   */\n      tag_106\n        /* \"#utility.yul\":3941:3945   */\n      dup2\n        /* \"#utility.yul\":3815:3946   */\n      tag_60\n      jump\t// in\n    tag_106:\n        /* \"#utility.yul\":3807:3946   */\n      swap1\n      pop\n        /* \"#utility.yul\":3534:3953   */\n      swap2\n      swap1\n      pop\n      jump\t// out\n        /* \"#utility.yul\":3959:4036   */\n    tag_61:\n        /* \"#utility.yul\":3996:4003   */\n      0x00\n        /* \"#utility.yul\":4025:4030   */\n      dup2\n        /* \"#utility.yul\":4014:4030   */\n      swap1\n      pop\n        /* \"#utility.yul\":3959:4036   */\n      swap2\n      swap1\n      pop\n      jump\t// out\n        /* \"#utility.yul\":4042:4222   */\n    tag_62:\n        /* \"#utility.yul\":4090:4167   */\n      0x4e487b7100000000000000000000000000000000000000000000000000000000\n        /* \"#utility.yul\":4087:4088   */\n      0x00\n        /* \"#utility.yul\":4080:4168   */\n      mstore\n        /* \"#utility.yul\":4187:4191   */\n      0x11\n        /* \"#utility.yul\":4184:4185   */\n      0x04\n        /* \"#utility.yul\":4177:4192   */\n      mstore\n        /* \"#utility.yul\":4211:4215   */\n      0x24\n        /* \"#utility.yul\":4208:4209   */\n      0x00\n        /* \"#utility.yul\":4201:4216   */\n      revert\n        /* \"#utility.yul\":4228:4419   */\n    tag_30:\n        /* \"#utility.yul\":4268:4271   */\n      0x00\n        /* \"#utility.yul\":4287:4307   */\n      tag_110\n        /* \"#utility.yul\":4305:4306   */\n      dup3\n        /* \"#utility.yul\":4287:4307   */\n      tag_61\n      jump\t// in\n    tag_110:\n        /* \"#utility.yul\":4282:4307   */\n      swap2\n      pop\n        /* \"#utility.yul\":4321:4341   */\n      tag_111\n        /* \"#utility.yul\":4339:4340   */\n      dup4\n        /* \"#utility.yul\":4321:4341   */\n      tag_61\n      jump\t// in\n    tag_111:\n        /* \"#utility.yul\":4316:4341   */\n      swap3\n      pop\n        /* \"#utility.yul\":4364:4365   */\n      dup3\n        /* \"#utility.yul\":4361:4362   */\n      dup3\n        /* \"#utility.yul\":4357:4366   */\n      add\n        /* \"#utility.yul\":4350:4366   */\n      swap1\n      pop\n        /* \"#utility.yul\":4385:4388   */\n      dup1\n        /* \"#utility.yul\":4382:4383   */\n      dup3\n        /* \"#utility.yul\":4379:4389   */\n      gt\n        /* \"#utility.yul\":4376:4412   */\n      iszero\n      tag_112\n      jumpi\n        /* \"#utility.yul\":4392:4410   */\n      tag_113\n      tag_62\n      jump\t// in\n    tag_113:\n        /* \"#utility.yul\":4376:4412   */\n    tag_112:\n        /* \"#utility.yul\":4228:4419   */\n      swap3\n      swap2\n      pop\n      pop\n      jump\t// out\n        /* \"#utility.yul\":4425:4605   */\n    tag_63:\n        /* \"#utility.yul\":4473:4550   */\n      0x4e487b7100000000000000000000000000000000000000000000000000000000\n        /* \"#utility.yul\":4470:4471   */\n      0x00\n        /* \"#utility.yul\":4463:4551   */\n      mstore\n        /* \"#utility.yul\":4570:4574   */\n      0x12\n        /* \"#utility.yul\":4567:4568   */\n      0x04\n        /* \"#utility.yul\":4560:4575   */\n      mstore\n        /* \"#utility.yul\":4594:4598   */\n      0x24\n        /* \"#utility.yul\":4591:4592   */\n      0x00\n        /* \"#utility.yul\":4584:4599   */\n      revert\n        /* \"#utility.yul\":4611:4787   */\n    tag_32:\n        /* \"#utility.yul\":4643:4644   */\n      0x00\n        /* \"#utility.yul\":4660:4680   */\n      tag_116\n        /* \"#utility.yul\":4678:4679   */\n      dup3\n        /* \"#utility.yul\":4660:4680   */\n      tag_61\n      jump\t// in\n    tag_116:\n        /* \"#utility.yul\":4655:4680   */\n      swap2\n      pop\n        /* \"#utility.yul\":4694:4714   */\n      tag_117\n        /* \"#utility.yul\":4712:4713   */\n      dup4\n        /* \"#utility.yul\":4694:4714   */\n      tag_61\n      jump\t// in\n    tag_117:\n        /* \"#utility.yul\":4689:4714   */\n      swap3\n      pop\n        /* \"#utility.yul\":4733:4734   */\n      dup3\n        /* \"#utility.yul\":4723:4758   */\n      tag_118\n      jumpi\n        /* \"#utility.yul\":4738:4756   */\n      tag_119\n      tag_63\n      jump\t// in\n    tag_119:\n        /* \"#utility.yul\":4723:4758   */\n    tag_118:\n        /* \"#utility.yul\":4779:4780   */\n      dup3\n        /* \"#utility.yul\":4776:4777   */\n      dup3\n        /* \"#utility.yul\":4772:4781   */\n      mod\n        /* \"#utility.yul\":4767:4781   */\n      swap1\n      pop\n        /* \"#utility.yul\":4611:4787   */\n      swap3\n      swap2\n      pop\n      pop\n      jump\t// out\n        /* \"#utility.yul\":4793:4970   */\n    tag_64:\n        /* \"#utility.yul\":4933:4962   */\n      0x43686f6f73653a2031203d206f6464206f722032203d206576656e0000000000\n        /* \"#utility.yul\":4929:4930   */\n      0x00\n        /* \"#utility.yul\":4921:4927   */\n      dup3\n        /* \"#utility.yul\":4917:4931   */\n      add\n        /* \"#utility.yul\":4910:4963   */\n      mstore\n        /* \"#utility.yul\":4793:4970   */\n      pop\n      jump\t// out\n        /* \"#utility.yul\":4976:5342   */\n    tag_65:\n        /* \"#utility.yul\":5118:5121   */\n      0x00\n        /* \"#utility.yul\":5139:5206   */\n      tag_122\n        /* \"#utility.yul\":5203:5205   */\n      0x1b\n        /* \"#utility.yul\":5198:5201   */\n      dup4\n        /* \"#utility.yul\":5139:5206   */\n      tag_56\n      jump\t// in\n    tag_122:\n        /* \"#utility.yul\":5132:5206   */\n      swap2\n      pop\n        /* \"#utility.yul\":5215:5308   */\n      tag_123\n        /* \"#utility.yul\":5304:5307   */\n      dup3\n        /* \"#utility.yul\":5215:5308   */\n      tag_64\n      jump\t// in\n    tag_123:\n        /* \"#utility.yul\":5333:5335   */\n      0x20\n        /* \"#utility.yul\":5328:5331   */\n      dup3\n        /* \"#utility.yul\":5324:5336   */\n      add\n        /* \"#utility.yul\":5317:5336   */\n      swap1\n      pop\n        /* \"#utility.yul\":4976:5342   */\n      swap2\n      swap1\n      pop\n      jump\t// out\n        /* \"#utility.yul\":5348:5767   */\n    tag_43:\n        /* \"#utility.yul\":5514:5518   */\n      0x00\n        /* \"#utility.yul\":5552:5554   */\n      0x20\n        /* \"#utility.yul\":5541:5550   */\n      dup3\n        /* \"#utility.yul\":5537:5555   */\n      add\n        /* \"#utility.yul\":5529:5555   */\n      swap1\n      pop\n        /* \"#utility.yul\":5601:5610   */\n      dup2\n        /* \"#utility.yul\":5595:5599   */\n      dup2\n        /* \"#utility.yul\":5591:5611   */\n      sub\n        /* \"#utility.yul\":5587:5588   */\n      0x00\n        /* \"#utility.yul\":5576:5585   */\n      dup4\n        /* \"#utility.yul\":5572:5589   */\n      add\n        /* \"#utility.yul\":5565:5612   */\n      mstore\n        /* \"#utility.yul\":5629:5760   */\n      tag_125\n        /* \"#utility.yul\":5755:5759   */\n      dup2\n        /* \"#utility.yul\":5629:5760   */\n      tag_65\n      jump\t// in\n    tag_125:\n        /* \"#utility.yul\":5621:5760   */\n      swap1\n      pop\n        /* \"#utility.yul\":5348:5767   */\n      swap2\n      swap1\n      pop\n      jump\t// out\n        /* \"#utility.yul\":5773:5852   */\n    tag_66:\n        /* \"#utility.yul\":5812:5819   */\n      0x00\n        /* \"#utility.yul\":5841:5846   */\n      dup2\n        /* \"#utility.yul\":5830:5846   */\n      swap1\n      pop\n        /* \"#utility.yul\":5773:5852   */\n      swap2\n      swap1\n      pop\n      jump\t// out\n        /* \"#utility.yul\":5858:6015   */\n    tag_67:\n        /* \"#utility.yul\":5963:6008   */\n      tag_128\n        /* \"#utility.yul\":5983:6007   */\n      tag_129\n        /* \"#utility.yul\":6001:6006   */\n      dup3\n        /* \"#utility.yul\":5983:6007   */\n      tag_61\n      jump\t// in\n    tag_129:\n        /* \"#utility.yul\":5963:6008   */\n      tag_66\n      jump\t// in\n    tag_128:\n        /* \"#utility.yul\":5958:5961   */\n      dup3\n        /* \"#utility.yul\":5951:6009   */\n      mstore\n        /* \"#utility.yul\":5858:6015   */\n      pop\n      pop\n      jump\t// out\n        /* \"#utility.yul\":6021:6117   */\n    tag_68:\n        /* \"#utility.yul\":6055:6063   */\n      0x00\n        /* \"#utility.yul\":6104:6109   */\n      dup2\n        /* \"#utility.yul\":6099:6102   */\n      0xf8\n        /* \"#utility.yul\":6095:6110   */\n      shl\n        /* \"#utility.yul\":6074:6110   */\n      swap1\n      pop\n        /* \"#utility.yul\":6021:6117   */\n      swap2\n      swap1\n      pop\n      jump\t// out\n        /* \"#utility.yul\":6123:6216   */\n    tag_69:\n        /* \"#utility.yul\":6160:6167   */\n      0x00\n        /* \"#utility.yul\":6189:6210   */\n      tag_132\n        /* \"#utility.yul\":6204:6209   */\n      dup3\n        /* \"#utility.yul\":6189:6210   */\n      tag_68\n      jump\t// in\n    tag_132:\n        /* \"#utility.yul\":6178:6210   */\n      swap1\n      pop\n        /* \"#utility.yul\":6123:6216   */\n      swap2\n      swap1\n      pop\n      jump\t// out\n        /* \"#utility.yul\":6222:6371   */\n    tag_70:\n        /* \"#utility.yul\":6323:6364   */\n      tag_134\n        /* \"#utility.yul\":6341:6363   */\n      tag_135\n        /* \"#utility.yul\":6357:6362   */\n      dup3\n        /* \"#utility.yul\":6341:6363   */\n      tag_50\n      jump\t// in\n    tag_135:\n        /* \"#utility.yul\":6323:6364   */\n      tag_69\n      jump\t// in\n    tag_134:\n        /* \"#utility.yul\":6318:6321   */\n      dup3\n        /* \"#utility.yul\":6311:6365   */\n      mstore\n        /* \"#utility.yul\":6222:6371   */\n      pop\n      pop\n      jump\t// out\n        /* \"#utility.yul\":6377:6765   */\n    tag_46:\n        /* \"#utility.yul\":6513:6516   */\n      0x00\n        /* \"#utility.yul\":6528:6603   */\n      tag_137\n        /* \"#utility.yul\":6599:6602   */\n      dup3\n        /* \"#utility.yul\":6590:6596   */\n      dup6\n        /* \"#utility.yul\":6528:6603   */\n      tag_67\n      jump\t// in\n    tag_137:\n        /* \"#utility.yul\":6628:6630   */\n      0x20\n        /* \"#utility.yul\":6623:6626   */\n      dup3\n        /* \"#utility.yul\":6619:6631   */\n      add\n        /* \"#utility.yul\":6612:6631   */\n      swap2\n      pop\n        /* \"#utility.yul\":6641:6712   */\n      tag_138\n        /* \"#utility.yul\":6708:6711   */\n      dup3\n        /* \"#utility.yul\":6699:6705   */\n      dup5\n        /* \"#utility.yul\":6641:6712   */\n      tag_70\n      jump\t// in\n    tag_138:\n        /* \"#utility.yul\":6737:6738   */\n      0x01\n        /* \"#utility.yul\":6732:6735   */\n      dup3\n        /* \"#utility.yul\":6728:6739   */\n      add\n        /* \"#utility.yul\":6721:6739   */\n      swap2\n      pop\n        /* \"#utility.yul\":6756:6759   */\n      dup2\n        /* \"#utility.yul\":6749:6759   */\n      swap1\n      pop\n        /* \"#utility.yul\":6377:6765   */\n      swap4\n      swap3\n      pop\n      pop\n      pop\n      jump\t// out\n\n    auxdata: 0xa26469706673582212200bb6091b67116ad2d3161f41a22886c548d0712f50ca6a73eb42f4c98ddb141f64736f6c63430008120033\n}\n",
				"bytecode": {
					"linkReferences": {},
					"object": "608060405260008060006101000a81548160ff021916908360ff16021790555034801561002b57600080fd5b5061067e8061003b6000396000f3fe608060405234801561001057600080fd5b50600436106100415760003560e01c806353a04b051461004657806398f42fe314610076578063f94e349d14610094575b600080fd5b610060600480360381019061005b91906102f0565b6100b0565b60405161006d9190610338565b60405180910390f35b61007e6101f0565b60405161008b9190610362565b60405180910390f35b6100ae60048036038101906100a991906102f0565b610201565b005b6000808260ff16101580156100c9575060028260ff1611155b610108576040517f08c379a00000000000000000000000000000000000000000000000000000000081526004016100ff906103da565b60405180910390fd5b60008060009054906101000a900460ff1660ff160361015c576040517f08c379a00000000000000000000000000000000000000000000000000000000081526004016101539061046c565b60405180910390fd5b6000610166610272565b905060008060028560ff168461017c91906104c5565b6101869190610528565b1490508080156101a65750600160008054906101000a900460ff1660ff16145b156101b6576001925050506101eb565b801580156101d45750600260008054906101000a900460ff1660ff16145b156101e4576001925050506101eb565b6000925050505b919050565b60008054906101000a900460ff1681565b60018160ff161480610216575060028160ff16145b610255576040517f08c379a000000000000000000000000000000000000000000000000000000000815260040161024c906105a5565b60405180910390fd5b806000806101000a81548160ff021916908360ff16021790555050565b60004260008054906101000a900460ff1660405160200161029492919061061c565b6040516020818303038152906040528051906020012060001c905090565b600080fd5b600060ff82169050919050565b6102cd816102b7565b81146102d857600080fd5b50565b6000813590506102ea816102c4565b92915050565b600060208284031215610306576103056102b2565b5b6000610314848285016102db565b91505092915050565b60008115159050919050565b6103328161031d565b82525050565b600060208201905061034d6000830184610329565b92915050565b61035c816102b7565b82525050565b60006020820190506103776000830184610353565b92915050565b600082825260208201905092915050565b7f506c617920776974683a20302c2031206f722032000000000000000000000000600082015250565b60006103c460148361037d565b91506103cf8261038e565b602082019050919050565b600060208201905081810360008301526103f3816103b7565b9050919050565b7f46697273742c2063686f6f73653a2031203d206f6464206f722032203d20657660008201527f656e000000000000000000000000000000000000000000000000000000000000602082015250565b600061045660228361037d565b9150610461826103fa565b604082019050919050565b6000602082019050818103600083015261048581610449565b9050919050565b6000819050919050565b7f4e487b7100000000000000000000000000000000000000000000000000000000600052601160045260246000fd5b60006104d08261048c565b91506104db8361048c565b92508282019050808211156104f3576104f2610496565b5b92915050565b7f4e487b7100000000000000000000000000000000000000000000000000000000600052601260045260246000fd5b60006105338261048c565b915061053e8361048c565b92508261054e5761054d6104f9565b5b828206905092915050565b7f43686f6f73653a2031203d206f6464206f722032203d206576656e0000000000600082015250565b600061058f601b8361037d565b915061059a82610559565b602082019050919050565b600060208201905081810360008301526105be81610582565b9050919050565b6000819050919050565b6105e06105db8261048c565b6105c5565b82525050565b60008160f81b9050919050565b60006105fe826105e6565b9050919050565b610616610611826102b7565b6105f3565b82525050565b600061062882856105cf565b6020820191506106388284610605565b600182019150819050939250505056fea26469706673582212200bb6091b67116ad2d3161f41a22886c548d0712f50ca6a73eb42f4c98ddb141f64736f6c63430008120033",
					"opcodes": "PUSH1 0x80 PUSH1 0x40 MSTORE PUSH1 0x0 DUP1 PUSH1 0x0 PUSH2 0x100 EXP DUP2 SLOAD DUP2 PUSH1 0xFF MUL NOT AND SWAP1 DUP4 PUSH1 0xFF AND MUL OR SWAP1 SSTORE POP CALLVALUE DUP1 ISZERO PUSH2 0x2B JUMPI PUSH1 0x0 DUP1 REVERT JUMPDEST POP PUSH2 0x67E DUP1 PUSH2 0x3B PUSH1 0x0 CODECOPY PUSH1 0x0 RETURN INVALID PUSH1 0x80 PUSH1 0x40 MSTORE CALLVALUE DUP1 ISZERO PUSH2 0x10 JUMPI PUSH1 0x0 DUP1 REVERT JUMPDEST POP PUSH1 0x4 CALLDATASIZE LT PUSH2 0x41 JUMPI PUSH1 0x0 CALLDATALOAD PUSH1 0xE0 SHR DUP1 PUSH4 0x53A04B05 EQ PUSH2 0x46 JUMPI DUP1 PUSH4 0x98F42FE3 EQ PUSH2 0x76 JUMPI DUP1 PUSH4 0xF94E349D EQ PUSH2 0x94 JUMPI JUMPDEST PUSH1 0x0 DUP1 REVERT JUMPDEST PUSH2 0x60 PUSH1 0x4 DUP1 CALLDATASIZE SUB DUP2 ADD SWAP1 PUSH2 0x5B SWAP2 SWAP1 PUSH2 0x2F0 JUMP JUMPDEST PUSH2 0xB0 JUMP JUMPDEST PUSH1 0x40 MLOAD PUSH2 0x6D SWAP2 SWAP1 PUSH2 0x338 JUMP JUMPDEST PUSH1 0x40 MLOAD DUP1 SWAP2 SUB SWAP1 RETURN JUMPDEST PUSH2 0x7E PUSH2 0x1F0 JUMP JUMPDEST PUSH1 0x40 MLOAD PUSH2 0x8B SWAP2 SWAP1 PUSH2 0x362 JUMP JUMPDEST PUSH1 0x40 MLOAD DUP1 SWAP2 SUB SWAP1 RETURN JUMPDEST PUSH2 0xAE PUSH1 0x4 DUP1 CALLDATASIZE SUB DUP2 ADD SWAP1 PUSH2 0xA9 SWAP2 SWAP1 PUSH2 0x2F0 JUMP JUMPDEST PUSH2 0x201 JUMP JUMPDEST STOP JUMPDEST PUSH1 0x0 DUP1 DUP3 PUSH1 0xFF AND LT ISZERO DUP1 ISZERO PUSH2 0xC9 JUMPI POP PUSH1 0x2 DUP3 PUSH1 0xFF AND GT ISZERO JUMPDEST PUSH2 0x108 JUMPI PUSH1 0x40 MLOAD PUSH32 0x8C379A000000000000000000000000000000000000000000000000000000000 DUP2 MSTORE PUSH1 0x4 ADD PUSH2 0xFF SWAP1 PUSH2 0x3DA JUMP JUMPDEST PUSH1 0x40 MLOAD DUP1 SWAP2 SUB SWAP1 REVERT JUMPDEST PUSH1 0x0 DUP1 PUSH1 0x0 SWAP1 SLOAD SWAP1 PUSH2 0x100 EXP SWAP1 DIV PUSH1 0xFF AND PUSH1 0xFF AND SUB PUSH2 0x15C JUMPI PUSH1 0x40 MLOAD PUSH32 0x8C379A000000000000000000000000000000000000000000000000000000000 DUP2 MSTORE PUSH1 0x4 ADD PUSH2 0x153 SWAP1 PUSH2 0x46C JUMP JUMPDEST PUSH1 0x40 MLOAD DUP1 SWAP2 SUB SWAP1 REVERT JUMPDEST PUSH1 0x0 PUSH2 0x166 PUSH2 0x272 JUMP JUMPDEST SWAP1 POP PUSH1 0x0 DUP1 PUSH1 0x2 DUP6 PUSH1 0xFF AND DUP5 PUSH2 0x17C SWAP2 SWAP1 PUSH2 0x4C5 JUMP JUMPDEST PUSH2 0x186 SWAP2 SWAP1 PUSH2 0x528 JUMP JUMPDEST EQ SWAP1 POP DUP1 DUP1 ISZERO PUSH2 0x1A6 JUMPI POP PUSH1 0x1 PUSH1 0x0 DUP1 SLOAD SWAP1 PUSH2 0x100 EXP SWAP1 DIV PUSH1 0xFF AND PUSH1 0xFF AND EQ JUMPDEST ISZERO PUSH2 0x1B6 JUMPI PUSH1 0x1 SWAP3 POP POP POP PUSH2 0x1EB JUMP JUMPDEST DUP1 ISZERO DUP1 ISZERO PUSH2 0x1D4 JUMPI POP PUSH1 0x2 PUSH1 0x0 DUP1 SLOAD SWAP1 PUSH2 0x100 EXP SWAP1 DIV PUSH1 0xFF AND PUSH1 0xFF AND EQ JUMPDEST ISZERO PUSH2 0x1E4 JUMPI PUSH1 0x1 SWAP3 POP POP POP PUSH2 0x1EB JUMP JUMPDEST PUSH1 0x0 SWAP3 POP POP POP JUMPDEST SWAP2 SWAP1 POP JUMP JUMPDEST PUSH1 0x0 DUP1 SLOAD SWAP1 PUSH2 0x100 EXP SWAP1 DIV PUSH1 0xFF AND DUP2 JUMP JUMPDEST PUSH1 0x1 DUP2 PUSH1 0xFF AND EQ DUP1 PUSH2 0x216 JUMPI POP PUSH1 0x2 DUP2 PUSH1 0xFF AND EQ JUMPDEST PUSH2 0x255 JUMPI PUSH1 0x40 MLOAD PUSH32 0x8C379A000000000000000000000000000000000000000000000000000000000 DUP2 MSTORE PUSH1 0x4 ADD PUSH2 0x24C SWAP1 PUSH2 0x5A5 JUMP JUMPDEST PUSH1 0x40 MLOAD DUP1 SWAP2 SUB SWAP1 REVERT JUMPDEST DUP1 PUSH1 0x0 DUP1 PUSH2 0x100 EXP DUP2 SLOAD DUP2 PUSH1 0xFF MUL NOT AND SWAP1 DUP4 PUSH1 0xFF AND MUL OR SWAP1 SSTORE POP POP JUMP JUMPDEST PUSH1 0x0 TIMESTAMP PUSH1 0x0 DUP1 SLOAD SWAP1 PUSH2 0x100 EXP SWAP1 DIV PUSH1 0xFF AND PUSH1 0x40 MLOAD PUSH1 0x20 ADD PUSH2 0x294 SWAP3 SWAP2 SWAP1 PUSH2 0x61C JUMP JUMPDEST PUSH1 0x40 MLOAD PUSH1 0x20 DUP2 DUP4 SUB SUB DUP2 MSTORE SWAP1 PUSH1 0x40 MSTORE DUP1 MLOAD SWAP1 PUSH1 0x20 ADD KECCAK256 PUSH1 0x0 SHR SWAP1 POP SWAP1 JUMP JUMPDEST PUSH1 0x0 DUP1 REVERT JUMPDEST PUSH1 0x0 PUSH1 0xFF DUP3 AND SWAP1 POP SWAP2 SWAP1 POP JUMP JUMPDEST PUSH2 0x2CD DUP2 PUSH2 0x2B7 JUMP JUMPDEST DUP2 EQ PUSH2 0x2D8 JUMPI PUSH1 0x0 DUP1 REVERT JUMPDEST POP JUMP JUMPDEST PUSH1 0x0 DUP2 CALLDATALOAD SWAP1 POP PUSH2 0x2EA DUP2 PUSH2 0x2C4 JUMP JUMPDEST SWAP3 SWAP2 POP POP JUMP JUMPDEST PUSH1 0x0 PUSH1 0x20 DUP3 DUP5 SUB SLT ISZERO PUSH2 0x306 JUMPI PUSH2 0x305 PUSH2 0x2B2 JUMP JUMPDEST JUMPDEST PUSH1 0x0 PUSH2 0x314 DUP5 DUP3 DUP6 ADD PUSH2 0x2DB JUMP JUMPDEST SWAP2 POP POP SWAP3 SWAP2 POP POP JUMP JUMPDEST PUSH1 0x0 DUP2 ISZERO ISZERO SWAP1 POP SWAP2 SWAP1 POP JUMP JUMPDEST PUSH2 0x332 DUP2 PUSH2 0x31D JUMP JUMPDEST DUP3 MSTORE POP POP JUMP JUMPDEST PUSH1 0x0 PUSH1 0x20 DUP3 ADD SWAP1 POP PUSH2 0x34D PUSH1 0x0 DUP4 ADD DUP5 PUSH2 0x329 JUMP JUMPDEST SWAP3 SWAP2 POP POP JUMP JUMPDEST PUSH2 0x35C DUP2 PUSH2 0x2B7 JUMP JUMPDEST DUP3 MSTORE POP POP JUMP JUMPDEST PUSH1 0x0 PUSH1 0x20 DUP3 ADD SWAP1 POP PUSH2 0x377 PUSH1 0x0 DUP4 ADD DUP5 PUSH2 0x353 JUMP JUMPDEST SWAP3 SWAP2 POP POP JUMP JUMPDEST PUSH1 0x0 DUP3 DUP3 MSTORE PUSH1 0x20 DUP3 ADD SWAP1 POP SWAP3 SWAP2 POP POP JUMP JUMPDEST PUSH32 0x506C617920776974683A20302C2031206F722032000000000000000000000000 PUSH1 0x0 DUP3 ADD MSTORE POP JUMP JUMPDEST PUSH1 0x0 PUSH2 0x3C4 PUSH1 0x14 DUP4 PUSH2 0x37D JUMP JUMPDEST SWAP2 POP PUSH2 0x3CF DUP3 PUSH2 0x38E JUMP JUMPDEST PUSH1 0x20 DUP3 ADD SWAP1 POP SWAP2 SWAP1 POP JUMP JUMPDEST PUSH1 0x0 PUSH1 0x20 DUP3 ADD SWAP1 POP DUP2 DUP2 SUB PUSH1 0x0 DUP4 ADD MSTORE PUSH2 0x3F3 DUP2 PUSH2 0x3B7 JUMP JUMPDEST SWAP1 POP SWAP2 SWAP1 POP JUMP JUMPDEST PUSH32 0x46697273742C2063686F6F73653A2031203D206F6464206F722032203D206576 PUSH1 0x0 DUP3 ADD MSTORE PUSH32 0x656E000000000000000000000000000000000000000000000000000000000000 PUSH1 0x20 DUP3 ADD MSTORE POP JUMP JUMPDEST PUSH1 0x0 PUSH2 0x456 PUSH1 0x22 DUP4 PUSH2 0x37D JUMP JUMPDEST SWAP2 POP PUSH2 0x461 DUP3 PUSH2 0x3FA JUMP JUMPDEST PUSH1 0x40 DUP3 ADD SWAP1 POP SWAP2 SWAP1 POP JUMP JUMPDEST PUSH1 0x0 PUSH1 0x20 DUP3 ADD SWAP1 POP DUP2 DUP2 SUB PUSH1 0x0 DUP4 ADD MSTORE PUSH2 0x485 DUP2 PUSH2 0x449 JUMP JUMPDEST SWAP1 POP SWAP2 SWAP1 POP JUMP JUMPDEST PUSH1 0x0 DUP2 SWAP1 POP SWAP2 SWAP1 POP JUMP JUMPDEST PUSH32 0x4E487B7100000000000000000000000000000000000000000000000000000000 PUSH1 0x0 MSTORE PUSH1 0x11 PUSH1 0x4 MSTORE PUSH1 0x24 PUSH1 0x0 REVERT JUMPDEST PUSH1 0x0 PUSH2 0x4D0 DUP3 PUSH2 0x48C JUMP JUMPDEST SWAP2 POP PUSH2 0x4DB DUP4 PUSH2 0x48C JUMP JUMPDEST SWAP3 POP DUP3 DUP3 ADD SWAP1 POP DUP1 DUP3 GT ISZERO PUSH2 0x4F3 JUMPI PUSH2 0x4F2 PUSH2 0x496 JUMP JUMPDEST JUMPDEST SWAP3 SWAP2 POP POP JUMP JUMPDEST PUSH32 0x4E487B7100000000000000000000000000000000000000000000000000000000 PUSH1 0x0 MSTORE PUSH1 0x12 PUSH1 0x4 MSTORE PUSH1 0x24 PUSH1 0x0 REVERT JUMPDEST PUSH1 0x0 PUSH2 0x533 DUP3 PUSH2 0x48C JUMP JUMPDEST SWAP2 POP PUSH2 0x53E DUP4 PUSH2 0x48C JUMP JUMPDEST SWAP3 POP DUP3 PUSH2 0x54E JUMPI PUSH2 0x54D PUSH2 0x4F9 JUMP JUMPDEST JUMPDEST DUP3 DUP3 MOD SWAP1 POP SWAP3 SWAP2 POP POP JUMP JUMPDEST PUSH32 0x43686F6F73653A2031203D206F6464206F722032203D206576656E0000000000 PUSH1 0x0 DUP3 ADD MSTORE POP JUMP JUMPDEST PUSH1 0x0 PUSH2 0x58F PUSH1 0x1B DUP4 PUSH2 0x37D JUMP JUMPDEST SWAP2 POP PUSH2 0x59A DUP3 PUSH2 0x559 JUMP JUMPDEST PUSH1 0x20 DUP3 ADD SWAP1 POP SWAP2 SWAP1 POP JUMP JUMPDEST PUSH1 0x0 PUSH1 0x20 DUP3 ADD SWAP1 POP DUP2 DUP2 SUB PUSH1 0x0 DUP4 ADD MSTORE PUSH2 0x5BE DUP2 PUSH2 0x582 JUMP JUMPDEST SWAP1 POP SWAP2 SWAP1 POP JUMP JUMPDEST PUSH1 0x0 DUP2 SWAP1 POP SWAP2 SWAP1 POP JUMP JUMPDEST PUSH2 0x5E0 PUSH2 0x5DB DUP3 PUSH2 0x48C JUMP JUMPDEST PUSH2 0x5C5 JUMP JUMPDEST DUP3 MSTORE POP POP JUMP JUMPDEST PUSH1 0x0 DUP2 PUSH1 0xF8 SHL SWAP1 POP SWAP2 SWAP1 POP JUMP JUMPDEST PUSH1 0x0 PUSH2 0x5FE DUP3 PUSH2 0x5E6 JUMP JUMPDEST SWAP1 POP SWAP2 SWAP1 POP JUMP JUMPDEST PUSH2 0x616 PUSH2 0x611 DUP3 PUSH2 0x2B7 JUMP JUMPDEST PUSH2 0x5F3 JUMP JUMPDEST DUP3 MSTORE POP POP JUMP JUMPDEST PUSH1 0x0 PUSH2 0x628 DUP3 DUP6 PUSH2 0x5CF JUMP JUMPDEST PUSH1 0x20 DUP3 ADD SWAP2 POP PUSH2 0x638 DUP3 DUP5 PUSH2 0x605 JUMP JUMPDEST PUSH1 0x1 DUP3 ADD SWAP2 POP DUP2 SWAP1 POP SWAP4 SWAP3 POP POP POP JUMP INVALID LOG2 PUSH5 0x6970667358 0x22 SLT KECCAK256 SIGNEXTEND 0xB6 MULMOD SHL PUSH8 0x116AD2D3161F41A2 0x28 DUP7 0xC5 BASEFEE 0xD0 PUSH18 0x2F50CA6A73EB42F4C98DDB141F64736F6C63 NUMBER STOP ADDMOD SLT STOP CALLER "
				},
				"gasEstimates": {
					"creation": {
						"codeDepositCost": "332400",
						"executionCost": "24635",
						"totalCost": "357035"
					},
					"external": {
						"choice()": "2468",
						"choose(uint8)": "24764",
						"play(uint8)": "infinite"
					},
					"internal": {
						"random()": "infinite"
					}
				},
				"methodIdentifiers": {
					"choice()": "98f42fe3",
					"choose(uint8)": "f94e349d",
					"play(uint8)": "53a04b05"
				}
			},
			"storageLayout": {
				"storage": [
					{
						"astId": 4,
						"contract": "Contracts/PickEvenOrOdd.sol:PickEvenOrOdd",
						"label": "choice",
						"offset": 0,
						"slot": "0",
						"type": "t_uint8"
					}
				],
				"types": {
					"t_uint8": {
						"encoding": "inplace",
						"label": "uint8",
						"numberOfBytes": "1"
					}
				}
			},
			"userdoc": {
				"kind": "user",
				"methods": {
					"choose(uint8)": {
						"notice": "newChoice 1 = odd or 2 = even"
					}
				},
				"version": 1
			}
		}
	}
}