{
	"Contracts/JoKenPo.sol": {
		"JoKenPo": {
			"abi": [
				{
					"inputs": [],
					"stateMutability": "nonpayable",
					"type": "constructor"
				},
				{
					"inputs": [],
					"name": "getBalance",
					"outputs": [
						{
							"internalType": "uint256",
							"name": "",
							"type": "uint256"
						}
					],
					"stateMutability": "view",
					"type": "function"
				},
				{
					"inputs": [
						{
							"internalType": "enum JoKenPo.Options",
							"name": "newChoice",
							"type": "uint8"
						}
					],
					"name": "play",
					"outputs": [],
					"stateMutability": "payable",
					"type": "function"
				},
				{
					"inputs": [],
					"name": "status",
					"outputs": [
						{
							"internalType": "string",
							"name": "",
							"type": "string"
						}
					],
					"stateMutability": "view",
					"type": "function"
				}
			],
			"devdoc": {
				"kind": "dev",
				"methods": {},
				"version": 1
			},
			"evm": {
				"assembly": "    /* \"Contracts/JoKenPo.sol\":62:3433  contract JoKenPo {... */\n  mstore(0x40, 0xa0)\n    /* \"Contracts/JoKenPo.sol\":220:232  Options.NONE */\n  0x00\n    /* \"Contracts/JoKenPo.sol\":194:232  Options private choice1 = Options.NONE */\n  dup1\n  exp(0x0100, 0x00)\n  dup2\n  sload\n  dup2\n  0xff\n  mul\n  not\n  and\n  swap1\n  dup4\n  0x03\n  dup2\n  gt\n  iszero\n  tag_1\n  jumpi\n  tag_2\n  tag_3\n  jump\t// in\ntag_2:\ntag_1:\n  mul\n  or\n  swap1\n  sstore\n  pop\n    /* \"Contracts/JoKenPo.sol\":275:285  msg.sender */\n  caller\n    /* \"Contracts/JoKenPo.sol\":249:285  address private player1 = msg.sender */\n  0x00\n  exp(0x0100, 0x01)\n  dup2\n  sload\n  dup2\n  0xffffffffffffffffffffffffffffffffffffffff\n  mul\n  not\n  and\n  swap1\n  dup4\n  0xffffffffffffffffffffffffffffffffffffffff\n  and\n  mul\n  or\n  swap1\n  sstore\n  pop\n    /* \"Contracts/JoKenPo.sol\":343:368  string public status = \"\" */\n  mload(0x40)\n  dup1\n  0x20\n  add\n  0x40\n  mstore\n  dup1\n  0x00\n  dup2\n  mstore\n  pop\n  0x01\n  swap1\n  dup2\n  tag_4\n  swap2\n  swap1\n  tag_5\n  jump\t// in\ntag_4:\n  pop\n    /* \"Contracts/JoKenPo.sol\":497:610  constructor(){... */\n  callvalue\n  dup1\n  iszero\n  tag_6\n  jumpi\n  0x00\n  dup1\n  revert\ntag_6:\n  pop\n    /* \"Contracts/JoKenPo.sol\":591:601  msg.sender */\n  caller\n    /* \"Contracts/JoKenPo.sol\":575:602  owner = payable(msg.sender) */\n  0xffffffffffffffffffffffffffffffffffffffff\n  and\n  0x80\n  dup2\n  0xffffffffffffffffffffffffffffffffffffffff\n  and\n  dup2\n  mstore\n  pop\n  pop\n    /* \"Contracts/JoKenPo.sol\":62:3433  contract JoKenPo {... */\n  jump(tag_9)\n    /* \"#utility.yul\":7:187   */\ntag_3:\n    /* \"#utility.yul\":55:132   */\n  0x4e487b7100000000000000000000000000000000000000000000000000000000\n    /* \"#utility.yul\":52:53   */\n  0x00\n    /* \"#utility.yul\":45:133   */\n  mstore\n    /* \"#utility.yul\":152:156   */\n  0x21\n    /* \"#utility.yul\":149:150   */\n  0x04\n    /* \"#utility.yul\":142:157   */\n  mstore\n    /* \"#utility.yul\":176:180   */\n  0x24\n    /* \"#utility.yul\":173:174   */\n  0x00\n    /* \"#utility.yul\":166:181   */\n  revert\n    /* \"#utility.yul\":193:292   */\ntag_10:\n    /* \"#utility.yul\":245:251   */\n  0x00\n    /* \"#utility.yul\":279:284   */\n  dup2\n    /* \"#utility.yul\":273:285   */\n  mload\n    /* \"#utility.yul\":263:285   */\n  swap1\n  pop\n    /* \"#utility.yul\":193:292   */\n  swap2\n  swap1\n  pop\n  jump\t// out\n    /* \"#utility.yul\":298:478   */\ntag_11:\n    /* \"#utility.yul\":346:423   */\n  0x4e487b7100000000000000000000000000000000000000000000000000000000\n    /* \"#utility.yul\":343:344   */\n  0x00\n    /* \"#utility.yul\":336:424   */\n  mstore\n    /* \"#utility.yul\":443:447   */\n  0x41\n    /* \"#utility.yul\":440:441   */\n  0x04\n    /* \"#utility.yul\":433:448   */\n  mstore\n    /* \"#utility.yul\":467:471   */\n  0x24\n    /* \"#utility.yul\":464:465   */\n  0x00\n    /* \"#utility.yul\":457:472   */\n  revert\n    /* \"#utility.yul\":484:664   */\ntag_12:\n    /* \"#utility.yul\":532:609   */\n  0x4e487b7100000000000000000000000000000000000000000000000000000000\n    /* \"#utility.yul\":529:530   */\n  0x00\n    /* \"#utility.yul\":522:610   */\n  mstore\n    /* \"#utility.yul\":629:633   */\n  0x22\n    /* \"#utility.yul\":626:627   */\n  0x04\n    /* \"#utility.yul\":619:634   */\n  mstore\n    /* \"#utility.yul\":653:657   */\n  0x24\n    /* \"#utility.yul\":650:651   */\n  0x00\n    /* \"#utility.yul\":643:658   */\n  revert\n    /* \"#utility.yul\":670:990   */\ntag_13:\n    /* \"#utility.yul\":714:720   */\n  0x00\n    /* \"#utility.yul\":751:752   */\n  0x02\n    /* \"#utility.yul\":745:749   */\n  dup3\n    /* \"#utility.yul\":741:753   */\n  div\n    /* \"#utility.yul\":731:753   */\n  swap1\n  pop\n    /* \"#utility.yul\":798:799   */\n  0x01\n    /* \"#utility.yul\":792:796   */\n  dup3\n    /* \"#utility.yul\":788:800   */\n  and\n    /* \"#utility.yul\":819:837   */\n  dup1\n    /* \"#utility.yul\":809:890   */\n  tag_36\n  jumpi\n    /* \"#utility.yul\":875:879   */\n  0x7f\n    /* \"#utility.yul\":867:873   */\n  dup3\n    /* \"#utility.yul\":863:880   */\n  and\n    /* \"#utility.yul\":853:880   */\n  swap2\n  pop\n    /* \"#utility.yul\":809:890   */\ntag_36:\n    /* \"#utility.yul\":937:939   */\n  0x20\n    /* \"#utility.yul\":929:935   */\n  dup3\n    /* \"#utility.yul\":926:940   */\n  lt\n    /* \"#utility.yul\":906:924   */\n  dup2\n    /* \"#utility.yul\":903:941   */\n  sub\n    /* \"#utility.yul\":900:984   */\n  tag_37\n  jumpi\n    /* \"#utility.yul\":956:974   */\n  tag_38\n  tag_12\n  jump\t// in\ntag_38:\n    /* \"#utility.yul\":900:984   */\ntag_37:\n    /* \"#utility.yul\":721:990   */\n  pop\n    /* \"#utility.yul\":670:990   */\n  swap2\n  swap1\n  pop\n  jump\t// out\n    /* \"#utility.yul\":996:1137   */\ntag_14:\n    /* \"#utility.yul\":1045:1049   */\n  0x00\n    /* \"#utility.yul\":1068:1071   */\n  dup2\n    /* \"#utility.yul\":1060:1071   */\n  swap1\n  pop\n    /* \"#utility.yul\":1091:1094   */\n  dup2\n    /* \"#utility.yul\":1088:1089   */\n  0x00\n    /* \"#utility.yul\":1081:1095   */\n  mstore\n    /* \"#utility.yul\":1125:1129   */\n  0x20\n    /* \"#utility.yul\":1122:1123   */\n  0x00\n    /* \"#utility.yul\":1112:1130   */\n  keccak256\n    /* \"#utility.yul\":1104:1130   */\n  swap1\n  pop\n    /* \"#utility.yul\":996:1137   */\n  swap2\n  swap1\n  pop\n  jump\t// out\n    /* \"#utility.yul\":1143:1236   */\ntag_15:\n    /* \"#utility.yul\":1180:1186   */\n  0x00\n    /* \"#utility.yul\":1227:1229   */\n  0x20\n    /* \"#utility.yul\":1222:1224   */\n  0x1f\n    /* \"#utility.yul\":1215:1220   */\n  dup4\n    /* \"#utility.yul\":1211:1225   */\n  add\n    /* \"#utility.yul\":1207:1230   */\n  div\n    /* \"#utility.yul\":1197:1230   */\n  swap1\n  pop\n    /* \"#utility.yul\":1143:1236   */\n  swap2\n  swap1\n  pop\n  jump\t// out\n    /* \"#utility.yul\":1242:1349   */\ntag_16:\n    /* \"#utility.yul\":1286:1294   */\n  0x00\n    /* \"#utility.yul\":1336:1341   */\n  dup3\n    /* \"#utility.yul\":1330:1334   */\n  dup3\n    /* \"#utility.yul\":1326:1342   */\n  shl\n    /* \"#utility.yul\":1305:1342   */\n  swap1\n  pop\n    /* \"#utility.yul\":1242:1349   */\n  swap3\n  swap2\n  pop\n  pop\n  jump\t// out\n    /* \"#utility.yul\":1355:1748   */\ntag_17:\n    /* \"#utility.yul\":1424:1430   */\n  0x00\n    /* \"#utility.yul\":1474:1475   */\n  0x08\n    /* \"#utility.yul\":1462:1472   */\n  dup4\n    /* \"#utility.yul\":1458:1476   */\n  mul\n    /* \"#utility.yul\":1497:1594   */\n  tag_43\n    /* \"#utility.yul\":1527:1593   */\n  0xffffffffffffffffffffffffffffffffffffffffffffffffffffffffffffffff\n    /* \"#utility.yul\":1516:1525   */\n  dup3\n    /* \"#utility.yul\":1497:1594   */\n  tag_16\n  jump\t// in\ntag_43:\n    /* \"#utility.yul\":1615:1654   */\n  tag_44\n    /* \"#utility.yul\":1645:1653   */\n  dup7\n    /* \"#utility.yul\":1634:1643   */\n  dup4\n    /* \"#utility.yul\":1615:1654   */\n  tag_16\n  jump\t// in\ntag_44:\n    /* \"#utility.yul\":1603:1654   */\n  swap6\n  pop\n    /* \"#utility.yul\":1687:1691   */\n  dup1\n    /* \"#utility.yul\":1683:1692   */\n  not\n    /* \"#utility.yul\":1676:1681   */\n  dup5\n    /* \"#utility.yul\":1672:1693   */\n  and\n    /* \"#utility.yul\":1663:1693   */\n  swap4\n  pop\n    /* \"#utility.yul\":1736:1740   */\n  dup1\n    /* \"#utility.yul\":1726:1734   */\n  dup7\n    /* \"#utility.yul\":1722:1741   */\n  and\n    /* \"#utility.yul\":1715:1720   */\n  dup5\n    /* \"#utility.yul\":1712:1742   */\n  or\n    /* \"#utility.yul\":1702:1742   */\n  swap3\n  pop\n    /* \"#utility.yul\":1431:1748   */\n  pop\n  pop\n    /* \"#utility.yul\":1355:1748   */\n  swap4\n  swap3\n  pop\n  pop\n  pop\n  jump\t// out\n    /* \"#utility.yul\":1754:1831   */\ntag_18:\n    /* \"#utility.yul\":1791:1798   */\n  0x00\n    /* \"#utility.yul\":1820:1825   */\n  dup2\n    /* \"#utility.yul\":1809:1825   */\n  swap1\n  pop\n    /* \"#utility.yul\":1754:1831   */\n  swap2\n  swap1\n  pop\n  jump\t// out\n    /* \"#utility.yul\":1837:1897   */\ntag_19:\n    /* \"#utility.yul\":1865:1868   */\n  0x00\n    /* \"#utility.yul\":1886:1891   */\n  dup2\n    /* \"#utility.yul\":1879:1891   */\n  swap1\n  pop\n    /* \"#utility.yul\":1837:1897   */\n  swap2\n  swap1\n  pop\n  jump\t// out\n    /* \"#utility.yul\":1903:2045   */\ntag_20:\n    /* \"#utility.yul\":1953:1962   */\n  0x00\n    /* \"#utility.yul\":1986:2039   */\n  tag_48\n    /* \"#utility.yul\":2004:2038   */\n  tag_49\n    /* \"#utility.yul\":2013:2037   */\n  tag_50\n    /* \"#utility.yul\":2031:2036   */\n  dup5\n    /* \"#utility.yul\":2013:2037   */\n  tag_18\n  jump\t// in\ntag_50:\n    /* \"#utility.yul\":2004:2038   */\n  tag_19\n  jump\t// in\ntag_49:\n    /* \"#utility.yul\":1986:2039   */\n  tag_18\n  jump\t// in\ntag_48:\n    /* \"#utility.yul\":1973:2039   */\n  swap1\n  pop\n    /* \"#utility.yul\":1903:2045   */\n  swap2\n  swap1\n  pop\n  jump\t// out\n    /* \"#utility.yul\":2051:2126   */\ntag_21:\n    /* \"#utility.yul\":2094:2097   */\n  0x00\n    /* \"#utility.yul\":2115:2120   */\n  dup2\n    /* \"#utility.yul\":2108:2120   */\n  swap1\n  pop\n    /* \"#utility.yul\":2051:2126   */\n  swap2\n  swap1\n  pop\n  jump\t// out\n    /* \"#utility.yul\":2132:2401   */\ntag_22:\n    /* \"#utility.yul\":2242:2281   */\n  tag_53\n    /* \"#utility.yul\":2273:2280   */\n  dup4\n    /* \"#utility.yul\":2242:2281   */\n  tag_20\n  jump\t// in\ntag_53:\n    /* \"#utility.yul\":2303:2394   */\n  tag_54\n    /* \"#utility.yul\":2352:2393   */\n  tag_55\n    /* \"#utility.yul\":2376:2392   */\n  dup3\n    /* \"#utility.yul\":2352:2393   */\n  tag_21\n  jump\t// in\ntag_55:\n    /* \"#utility.yul\":2344:2350   */\n  dup5\n    /* \"#utility.yul\":2337:2341   */\n  dup5\n    /* \"#utility.yul\":2331:2342   */\n  sload\n    /* \"#utility.yul\":2303:2394   */\n  tag_17\n  jump\t// in\ntag_54:\n    /* \"#utility.yul\":2297:2301   */\n  dup3\n    /* \"#utility.yul\":2290:2395   */\n  sstore\n    /* \"#utility.yul\":2208:2401   */\n  pop\n    /* \"#utility.yul\":2132:2401   */\n  pop\n  pop\n  pop\n  jump\t// out\n    /* \"#utility.yul\":2407:2480   */\ntag_23:\n    /* \"#utility.yul\":2452:2455   */\n  0x00\n    /* \"#utility.yul\":2407:2480   */\n  swap1\n  jump\t// out\n    /* \"#utility.yul\":2486:2675   */\ntag_24:\n    /* \"#utility.yul\":2563:2595   */\n  tag_58\n  tag_23\n  jump\t// in\ntag_58:\n    /* \"#utility.yul\":2604:2669   */\n  tag_59\n    /* \"#utility.yul\":2662:2668   */\n  dup2\n    /* \"#utility.yul\":2654:2660   */\n  dup5\n    /* \"#utility.yul\":2648:2652   */\n  dup5\n    /* \"#utility.yul\":2604:2669   */\n  tag_22\n  jump\t// in\ntag_59:\n    /* \"#utility.yul\":2539:2675   */\n  pop\n    /* \"#utility.yul\":2486:2675   */\n  pop\n  pop\n  jump\t// out\n    /* \"#utility.yul\":2681:2867   */\ntag_25:\n    /* \"#utility.yul\":2741:2861   */\ntag_61:\n    /* \"#utility.yul\":2758:2761   */\n  dup2\n    /* \"#utility.yul\":2751:2756   */\n  dup2\n    /* \"#utility.yul\":2748:2762   */\n  lt\n    /* \"#utility.yul\":2741:2861   */\n  iszero\n  tag_63\n  jumpi\n    /* \"#utility.yul\":2812:2851   */\n  tag_64\n    /* \"#utility.yul\":2849:2850   */\n  0x00\n    /* \"#utility.yul\":2842:2847   */\n  dup3\n    /* \"#utility.yul\":2812:2851   */\n  tag_24\n  jump\t// in\ntag_64:\n    /* \"#utility.yul\":2785:2786   */\n  0x01\n    /* \"#utility.yul\":2778:2783   */\n  dup2\n    /* \"#utility.yul\":2774:2787   */\n  add\n    /* \"#utility.yul\":2765:2787   */\n  swap1\n  pop\n    /* \"#utility.yul\":2741:2861   */\n  jump(tag_61)\ntag_63:\n    /* \"#utility.yul\":2681:2867   */\n  pop\n  pop\n  jump\t// out\n    /* \"#utility.yul\":2873:3416   */\ntag_26:\n    /* \"#utility.yul\":2974:2976   */\n  0x1f\n    /* \"#utility.yul\":2969:2972   */\n  dup3\n    /* \"#utility.yul\":2966:2977   */\n  gt\n    /* \"#utility.yul\":2963:3409   */\n  iszero\n  tag_66\n  jumpi\n    /* \"#utility.yul\":3008:3046   */\n  tag_67\n    /* \"#utility.yul\":3040:3045   */\n  dup2\n    /* \"#utility.yul\":3008:3046   */\n  tag_14\n  jump\t// in\ntag_67:\n    /* \"#utility.yul\":3092:3121   */\n  tag_68\n    /* \"#utility.yul\":3110:3120   */\n  dup5\n    /* \"#utility.yul\":3092:3121   */\n  tag_15\n  jump\t// in\ntag_68:\n    /* \"#utility.yul\":3082:3090   */\n  dup2\n    /* \"#utility.yul\":3078:3122   */\n  add\n    /* \"#utility.yul\":3275:3277   */\n  0x20\n    /* \"#utility.yul\":3263:3273   */\n  dup6\n    /* \"#utility.yul\":3260:3278   */\n  lt\n    /* \"#utility.yul\":3257:3306   */\n  iszero\n  tag_69\n  jumpi\n    /* \"#utility.yul\":3296:3304   */\n  dup2\n    /* \"#utility.yul\":3281:3304   */\n  swap1\n  pop\n    /* \"#utility.yul\":3257:3306   */\ntag_69:\n    /* \"#utility.yul\":3319:3399   */\n  tag_70\n    /* \"#utility.yul\":3375:3397   */\n  tag_71\n    /* \"#utility.yul\":3393:3396   */\n  dup6\n    /* \"#utility.yul\":3375:3397   */\n  tag_15\n  jump\t// in\ntag_71:\n    /* \"#utility.yul\":3365:3373   */\n  dup4\n    /* \"#utility.yul\":3361:3398   */\n  add\n    /* \"#utility.yul\":3348:3359   */\n  dup3\n    /* \"#utility.yul\":3319:3399   */\n  tag_25\n  jump\t// in\ntag_70:\n    /* \"#utility.yul\":2978:3409   */\n  pop\n  pop\n    /* \"#utility.yul\":2963:3409   */\ntag_66:\n    /* \"#utility.yul\":2873:3416   */\n  pop\n  pop\n  pop\n  jump\t// out\n    /* \"#utility.yul\":3422:3539   */\ntag_27:\n    /* \"#utility.yul\":3476:3484   */\n  0x00\n    /* \"#utility.yul\":3526:3531   */\n  dup3\n    /* \"#utility.yul\":3520:3524   */\n  dup3\n    /* \"#utility.yul\":3516:3532   */\n  shr\n    /* \"#utility.yul\":3495:3532   */\n  swap1\n  pop\n    /* \"#utility.yul\":3422:3539   */\n  swap3\n  swap2\n  pop\n  pop\n  jump\t// out\n    /* \"#utility.yul\":3545:3714   */\ntag_28:\n    /* \"#utility.yul\":3589:3595   */\n  0x00\n    /* \"#utility.yul\":3622:3673   */\n  tag_74\n    /* \"#utility.yul\":3670:3671   */\n  0x00\n    /* \"#utility.yul\":3666:3672   */\n  not\n    /* \"#utility.yul\":3658:3663   */\n  dup5\n    /* \"#utility.yul\":3655:3656   */\n  0x08\n    /* \"#utility.yul\":3651:3664   */\n  mul\n    /* \"#utility.yul\":3622:3673   */\n  tag_27\n  jump\t// in\ntag_74:\n    /* \"#utility.yul\":3618:3674   */\n  not\n    /* \"#utility.yul\":3703:3707   */\n  dup1\n    /* \"#utility.yul\":3697:3701   */\n  dup4\n    /* \"#utility.yul\":3693:3708   */\n  and\n    /* \"#utility.yul\":3683:3708   */\n  swap2\n  pop\n    /* \"#utility.yul\":3596:3714   */\n  pop\n    /* \"#utility.yul\":3545:3714   */\n  swap3\n  swap2\n  pop\n  pop\n  jump\t// out\n    /* \"#utility.yul\":3719:4014   */\ntag_29:\n    /* \"#utility.yul\":3795:3799   */\n  0x00\n    /* \"#utility.yul\":3941:3970   */\n  tag_76\n    /* \"#utility.yul\":3966:3969   */\n  dup4\n    /* \"#utility.yul\":3960:3964   */\n  dup4\n    /* \"#utility.yul\":3941:3970   */\n  tag_28\n  jump\t// in\ntag_76:\n    /* \"#utility.yul\":3933:3970   */\n  swap2\n  pop\n    /* \"#utility.yul\":4003:4006   */\n  dup3\n    /* \"#utility.yul\":4000:4001   */\n  0x02\n    /* \"#utility.yul\":3996:4007   */\n  mul\n    /* \"#utility.yul\":3990:3994   */\n  dup3\n    /* \"#utility.yul\":3987:4008   */\n  or\n    /* \"#utility.yul\":3979:4008   */\n  swap1\n  pop\n    /* \"#utility.yul\":3719:4014   */\n  swap3\n  swap2\n  pop\n  pop\n  jump\t// out\n    /* \"#utility.yul\":4019:5414   */\ntag_5:\n    /* \"#utility.yul\":4136:4173   */\n  tag_78\n    /* \"#utility.yul\":4169:4172   */\n  dup3\n    /* \"#utility.yul\":4136:4173   */\n  tag_10\n  jump\t// in\ntag_78:\n    /* \"#utility.yul\":4238:4256   */\n  0xffffffffffffffff\n    /* \"#utility.yul\":4230:4236   */\n  dup2\n    /* \"#utility.yul\":4227:4257   */\n  gt\n    /* \"#utility.yul\":4224:4280   */\n  iszero\n  tag_79\n  jumpi\n    /* \"#utility.yul\":4260:4278   */\n  tag_80\n  tag_11\n  jump\t// in\ntag_80:\n    /* \"#utility.yul\":4224:4280   */\ntag_79:\n    /* \"#utility.yul\":4304:4342   */\n  tag_81\n    /* \"#utility.yul\":4336:4340   */\n  dup3\n    /* \"#utility.yul\":4330:4341   */\n  sload\n    /* \"#utility.yul\":4304:4342   */\n  tag_13\n  jump\t// in\ntag_81:\n    /* \"#utility.yul\":4389:4456   */\n  tag_82\n    /* \"#utility.yul\":4449:4455   */\n  dup3\n    /* \"#utility.yul\":4441:4447   */\n  dup3\n    /* \"#utility.yul\":4435:4439   */\n  dup6\n    /* \"#utility.yul\":4389:4456   */\n  tag_26\n  jump\t// in\ntag_82:\n    /* \"#utility.yul\":4483:4484   */\n  0x00\n    /* \"#utility.yul\":4507:4511   */\n  0x20\n    /* \"#utility.yul\":4494:4511   */\n  swap1\n  pop\n    /* \"#utility.yul\":4539:4541   */\n  0x1f\n    /* \"#utility.yul\":4531:4537   */\n  dup4\n    /* \"#utility.yul\":4528:4542   */\n  gt\n    /* \"#utility.yul\":4556:4557   */\n  0x01\n    /* \"#utility.yul\":4551:5169   */\n  dup2\n  eq\n  tag_84\n  jumpi\n    /* \"#utility.yul\":5213:5214   */\n  0x00\n    /* \"#utility.yul\":5230:5236   */\n  dup5\n    /* \"#utility.yul\":5227:5304   */\n  iszero\n  tag_85\n  jumpi\n    /* \"#utility.yul\":5279:5288   */\n  dup3\n    /* \"#utility.yul\":5274:5277   */\n  dup8\n    /* \"#utility.yul\":5270:5289   */\n  add\n    /* \"#utility.yul\":5264:5290   */\n  mload\n    /* \"#utility.yul\":5255:5290   */\n  swap1\n  pop\n    /* \"#utility.yul\":5227:5304   */\ntag_85:\n    /* \"#utility.yul\":5330:5397   */\n  tag_86\n    /* \"#utility.yul\":5390:5396   */\n  dup6\n    /* \"#utility.yul\":5383:5388   */\n  dup3\n    /* \"#utility.yul\":5330:5397   */\n  tag_29\n  jump\t// in\ntag_86:\n    /* \"#utility.yul\":5324:5328   */\n  dup7\n    /* \"#utility.yul\":5317:5398   */\n  sstore\n    /* \"#utility.yul\":5186:5408   */\n  pop\n    /* \"#utility.yul\":4521:5408   */\n  jump(tag_83)\n    /* \"#utility.yul\":4551:5169   */\ntag_84:\n    /* \"#utility.yul\":4603:4607   */\n  0x1f\n    /* \"#utility.yul\":4599:4608   */\n  not\n    /* \"#utility.yul\":4591:4597   */\n  dup5\n    /* \"#utility.yul\":4587:4609   */\n  and\n    /* \"#utility.yul\":4637:4674   */\n  tag_87\n    /* \"#utility.yul\":4669:4673   */\n  dup7\n    /* \"#utility.yul\":4637:4674   */\n  tag_14\n  jump\t// in\ntag_87:\n    /* \"#utility.yul\":4696:4697   */\n  0x00\n    /* \"#utility.yul\":4710:4918   */\ntag_88:\n    /* \"#utility.yul\":4724:4731   */\n  dup3\n    /* \"#utility.yul\":4721:4722   */\n  dup2\n    /* \"#utility.yul\":4718:4732   */\n  lt\n    /* \"#utility.yul\":4710:4918   */\n  iszero\n  tag_90\n  jumpi\n    /* \"#utility.yul\":4803:4812   */\n  dup5\n    /* \"#utility.yul\":4798:4801   */\n  dup10\n    /* \"#utility.yul\":4794:4813   */\n  add\n    /* \"#utility.yul\":4788:4814   */\n  mload\n    /* \"#utility.yul\":4780:4786   */\n  dup3\n    /* \"#utility.yul\":4773:4815   */\n  sstore\n    /* \"#utility.yul\":4854:4855   */\n  0x01\n    /* \"#utility.yul\":4846:4852   */\n  dup3\n    /* \"#utility.yul\":4842:4856   */\n  add\n    /* \"#utility.yul\":4832:4856   */\n  swap2\n  pop\n    /* \"#utility.yul\":4901:4903   */\n  0x20\n    /* \"#utility.yul\":4890:4899   */\n  dup6\n    /* \"#utility.yul\":4886:4904   */\n  add\n    /* \"#utility.yul\":4873:4904   */\n  swap5\n  pop\n    /* \"#utility.yul\":4747:4751   */\n  0x20\n    /* \"#utility.yul\":4744:4745   */\n  dup2\n    /* \"#utility.yul\":4740:4752   */\n  add\n    /* \"#utility.yul\":4735:4752   */\n  swap1\n  pop\n    /* \"#utility.yul\":4710:4918   */\n  jump(tag_88)\ntag_90:\n    /* \"#utility.yul\":4946:4952   */\n  dup7\n    /* \"#utility.yul\":4937:4944   */\n  dup4\n    /* \"#utility.yul\":4934:4953   */\n  lt\n    /* \"#utility.yul\":4931:5110   */\n  iszero\n  tag_91\n  jumpi\n    /* \"#utility.yul\":5004:5013   */\n  dup5\n    /* \"#utility.yul\":4999:5002   */\n  dup10\n    /* \"#utility.yul\":4995:5014   */\n  add\n    /* \"#utility.yul\":4989:5015   */\n  mload\n    /* \"#utility.yul\":5047:5095   */\n  tag_92\n    /* \"#utility.yul\":5089:5093   */\n  0x1f\n    /* \"#utility.yul\":5081:5087   */\n  dup10\n    /* \"#utility.yul\":5077:5094   */\n  and\n    /* \"#utility.yul\":5066:5075   */\n  dup3\n    /* \"#utility.yul\":5047:5095   */\n  tag_28\n  jump\t// in\ntag_92:\n    /* \"#utility.yul\":5039:5045   */\n  dup4\n    /* \"#utility.yul\":5032:5096   */\n  sstore\n    /* \"#utility.yul\":4954:5110   */\n  pop\n    /* \"#utility.yul\":4931:5110   */\ntag_91:\n    /* \"#utility.yul\":5156:5157   */\n  0x01\n    /* \"#utility.yul\":5152:5153   */\n  0x02\n    /* \"#utility.yul\":5144:5150   */\n  dup9\n    /* \"#utility.yul\":5140:5154   */\n  mul\n    /* \"#utility.yul\":5136:5158   */\n  add\n    /* \"#utility.yul\":5130:5134   */\n  dup9\n    /* \"#utility.yul\":5123:5159   */\n  sstore\n    /* \"#utility.yul\":4558:5169   */\n  pop\n  pop\n  pop\n    /* \"#utility.yul\":4521:5408   */\ntag_83:\n  pop\n    /* \"#utility.yul\":4111:5414   */\n  pop\n  pop\n  pop\n    /* \"#utility.yul\":4019:5414   */\n  pop\n  pop\n  jump\t// out\n    /* \"Contracts/JoKenPo.sol\":62:3433  contract JoKenPo {... */\ntag_9:\n  mload(0x80)\n  codecopy(0x00, dataOffset(sub_0), dataSize(sub_0))\n  0x00\n  assignImmutable(\"0x731dc163f73d31d8c68f9917ce4ff967753939f70432973c04fd2c2a48148607\")\n  return(0x00, dataSize(sub_0))\nstop\n\nsub_0: assembly {\n        /* \"Contracts/JoKenPo.sol\":62:3433  contract JoKenPo {... */\n      mstore(0x40, 0x80)\n      jumpi(tag_1, lt(calldatasize, 0x04))\n      shr(0xe0, calldataload(0x00))\n      dup1\n      0x12065fe0\n      eq\n      tag_2\n      jumpi\n      dup1\n      0x200d2ed2\n      eq\n      tag_3\n      jumpi\n      dup1\n      0x53a04b05\n      eq\n      tag_4\n      jumpi\n    tag_1:\n      0x00\n      dup1\n      revert\n        /* \"Contracts/JoKenPo.sol\":687:983  function getBalance() public view returns (uint){... */\n    tag_2:\n      callvalue\n      dup1\n      iszero\n      tag_5\n      jumpi\n      0x00\n      dup1\n      revert\n    tag_5:\n      pop\n      tag_6\n      tag_7\n      jump\t// in\n    tag_6:\n      mload(0x40)\n      tag_8\n      swap2\n      swap1\n      tag_9\n      jump\t// in\n    tag_8:\n      mload(0x40)\n      dup1\n      swap2\n      sub\n      swap1\n      return\n        /* \"Contracts/JoKenPo.sol\":343:368  string public status = \"\" */\n    tag_3:\n      callvalue\n      dup1\n      iszero\n      tag_10\n      jumpi\n      0x00\n      dup1\n      revert\n    tag_10:\n      pop\n      tag_11\n      tag_12\n      jump\t// in\n    tag_11:\n      mload(0x40)\n      tag_13\n      swap2\n      swap1\n      tag_14\n      jump\t// in\n    tag_13:\n      mload(0x40)\n      dup1\n      swap2\n      sub\n      swap1\n      return\n        /* \"Contracts/JoKenPo.sol\":1733:3430  function play(Options newChoice) public payable {... */\n    tag_4:\n      tag_15\n      0x04\n      dup1\n      calldatasize\n      sub\n      dup2\n      add\n      swap1\n      tag_16\n      swap2\n      swap1\n      tag_17\n      jump\t// in\n    tag_16:\n      tag_18\n      jump\t// in\n    tag_15:\n      stop\n        /* \"Contracts/JoKenPo.sol\":687:983  function getBalance() public view returns (uint){... */\n    tag_7:\n        /* \"Contracts/JoKenPo.sol\":730:734  uint */\n      0x00\n        /* \"Contracts/JoKenPo.sol\":838:848  msg.sender */\n      caller\n        /* \"Contracts/JoKenPo.sol\":829:848  owner == msg.sender */\n      0xffffffffffffffffffffffffffffffffffffffff\n      and\n        /* \"Contracts/JoKenPo.sol\":829:834  owner */\n      immutable(\"0x731dc163f73d31d8c68f9917ce4ff967753939f70432973c04fd2c2a48148607\")\n        /* \"Contracts/JoKenPo.sol\":829:848  owner == msg.sender */\n      0xffffffffffffffffffffffffffffffffffffffff\n      and\n      eq\n        /* \"Contracts/JoKenPo.sol\":821:895  require(owner == msg.sender, \"You don't have permissions to access this.\") */\n      tag_20\n      jumpi\n      mload(0x40)\n      0x08c379a000000000000000000000000000000000000000000000000000000000\n      dup2\n      mstore\n      0x04\n      add\n      tag_21\n      swap1\n      tag_22\n      jump\t// in\n    tag_21:\n      mload(0x40)\n      dup1\n      swap2\n      sub\n      swap1\n      revert\n    tag_20:\n        /* \"Contracts/JoKenPo.sol\":954:975  address(this).balance */\n      selfbalance\n        /* \"Contracts/JoKenPo.sol\":947:975  return address(this).balance */\n      swap1\n      pop\n        /* \"Contracts/JoKenPo.sol\":687:983  function getBalance() public view returns (uint){... */\n      swap1\n      jump\t// out\n        /* \"Contracts/JoKenPo.sol\":343:368  string public status = \"\" */\n    tag_12:\n      0x01\n      dup1\n      sload\n      tag_23\n      swap1\n      tag_24\n      jump\t// in\n    tag_23:\n      dup1\n      0x1f\n      add\n      0x20\n      dup1\n      swap2\n      div\n      mul\n      0x20\n      add\n      mload(0x40)\n      swap1\n      dup2\n      add\n      0x40\n      mstore\n      dup1\n      swap3\n      swap2\n      swap1\n      dup2\n      dup2\n      mstore\n      0x20\n      add\n      dup3\n      dup1\n      sload\n      tag_25\n      swap1\n      tag_24\n      jump\t// in\n    tag_25:\n      dup1\n      iszero\n      tag_26\n      jumpi\n      dup1\n      0x1f\n      lt\n      tag_27\n      jumpi\n      0x0100\n      dup1\n      dup4\n      sload\n      div\n      mul\n      dup4\n      mstore\n      swap2\n      0x20\n      add\n      swap2\n      jump(tag_26)\n    tag_27:\n      dup3\n      add\n      swap2\n      swap1\n      0x00\n      mstore\n      keccak256(0x00, 0x20)\n      swap1\n    tag_28:\n      dup2\n      sload\n      dup2\n      mstore\n      swap1\n      0x01\n      add\n      swap1\n      0x20\n      add\n      dup1\n      dup4\n      gt\n      tag_28\n      jumpi\n      dup3\n      swap1\n      sub\n      0x1f\n      and\n      dup3\n      add\n      swap2\n    tag_26:\n      pop\n      pop\n      pop\n      pop\n      pop\n      dup2\n      jump\t// out\n        /* \"Contracts/JoKenPo.sol\":1733:3430  function play(Options newChoice) public payable {... */\n    tag_18:\n        /* \"Contracts/JoKenPo.sol\":1838:1850  Options.NONE */\n      0x00\n        /* \"Contracts/JoKenPo.sol\":1825:1850  newChoice != Options.NONE */\n      0x03\n      dup2\n      gt\n      iszero\n      tag_30\n      jumpi\n      tag_31\n      tag_32\n      jump\t// in\n    tag_31:\n    tag_30:\n        /* \"Contracts/JoKenPo.sol\":1825:1834  newChoice */\n      dup2\n        /* \"Contracts/JoKenPo.sol\":1825:1850  newChoice != Options.NONE */\n      0x03\n      dup2\n      gt\n      iszero\n      tag_33\n      jumpi\n      tag_34\n      tag_32\n      jump\t// in\n    tag_34:\n    tag_33:\n      sub\n        /* \"Contracts/JoKenPo.sol\":1817:1870  require(newChoice != Options.NONE, \"Invalid choice!\") */\n      tag_35\n      jumpi\n      mload(0x40)\n      0x08c379a000000000000000000000000000000000000000000000000000000000\n      dup2\n      mstore\n      0x04\n      add\n      tag_36\n      swap1\n      tag_37\n      jump\t// in\n    tag_36:\n      mload(0x40)\n      dup1\n      swap2\n      sub\n      swap1\n      revert\n    tag_35:\n        /* \"Contracts/JoKenPo.sol\":1900:1910  msg.sender */\n      caller\n        /* \"Contracts/JoKenPo.sol\":1889:1910  player1 != msg.sender */\n      0xffffffffffffffffffffffffffffffffffffffff\n      and\n        /* \"Contracts/JoKenPo.sol\":1889:1896  player1 */\n      0x00\n      0x01\n      swap1\n      sload\n      swap1\n      0x0100\n      exp\n      swap1\n      div\n      0xffffffffffffffffffffffffffffffffffffffff\n      and\n        /* \"Contracts/JoKenPo.sol\":1889:1910  player1 != msg.sender */\n      0xffffffffffffffffffffffffffffffffffffffff\n      and\n      sub\n        /* \"Contracts/JoKenPo.sol\":1881:1936  require(player1 != msg.sender, \"Await another player.\") */\n      tag_38\n      jumpi\n      mload(0x40)\n      0x08c379a000000000000000000000000000000000000000000000000000000000\n      dup2\n      mstore\n      0x04\n      add\n      tag_39\n      swap1\n      tag_40\n      jump\t// in\n    tag_39:\n      mload(0x40)\n      dup1\n      swap2\n      sub\n      swap1\n      revert\n    tag_38:\n        /* \"Contracts/JoKenPo.sol\":1997:2007  0.01 ether */\n      0x2386f26fc10000\n        /* \"Contracts/JoKenPo.sol\":1984:1993  msg.value */\n      callvalue\n        /* \"Contracts/JoKenPo.sol\":1984:2007  msg.value >= 0.01 ether */\n      lt\n      iszero\n        /* \"Contracts/JoKenPo.sol\":1976:2025  require(msg.value >= 0.01 ether , \"Invalid bid.\") */\n      tag_41\n      jumpi\n      mload(0x40)\n      0x08c379a000000000000000000000000000000000000000000000000000000000\n      dup2\n      mstore\n      0x04\n      add\n      tag_42\n      swap1\n      tag_43\n      jump\t// in\n    tag_42:\n      mload(0x40)\n      dup1\n      swap2\n      sub\n      swap1\n      revert\n    tag_41:\n        /* \"Contracts/JoKenPo.sol\":2103:2115  Options.NONE */\n      0x00\n        /* \"Contracts/JoKenPo.sol\":2092:2115  choice1 == Options.NONE */\n      0x03\n      dup2\n      gt\n      iszero\n      tag_44\n      jumpi\n      tag_45\n      tag_32\n      jump\t// in\n    tag_45:\n    tag_44:\n        /* \"Contracts/JoKenPo.sol\":2092:2099  choice1 */\n      0x00\n      dup1\n      sload\n      swap1\n      0x0100\n      exp\n      swap1\n      div\n      0xff\n      and\n        /* \"Contracts/JoKenPo.sol\":2092:2115  choice1 == Options.NONE */\n      0x03\n      dup2\n      gt\n      iszero\n      tag_46\n      jumpi\n      tag_47\n      tag_32\n      jump\t// in\n    tag_47:\n    tag_46:\n      sub\n        /* \"Contracts/JoKenPo.sol\":2089:3423  if(choice1 == Options.NONE){... */\n      tag_48\n      jumpi\n        /* \"Contracts/JoKenPo.sol\":2141:2151  msg.sender */\n      caller\n        /* \"Contracts/JoKenPo.sol\":2131:2138  player1 */\n      0x00\n      0x01\n        /* \"Contracts/JoKenPo.sol\":2131:2151  player1 = msg.sender */\n      0x0100\n      exp\n      dup2\n      sload\n      dup2\n      0xffffffffffffffffffffffffffffffffffffffff\n      mul\n      not\n      and\n      swap1\n      dup4\n      0xffffffffffffffffffffffffffffffffffffffff\n      and\n      mul\n      or\n      swap1\n      sstore\n      pop\n        /* \"Contracts/JoKenPo.sol\":2176:2185  newChoice */\n      dup1\n        /* \"Contracts/JoKenPo.sol\":2166:2173  choice1 */\n      0x00\n      dup1\n        /* \"Contracts/JoKenPo.sol\":2166:2185  choice1 = newChoice */\n      0x0100\n      exp\n      dup2\n      sload\n      dup2\n      0xff\n      mul\n      not\n      and\n      swap1\n      dup4\n      0x03\n      dup2\n      gt\n      iszero\n      tag_49\n      jumpi\n      tag_50\n      tag_32\n      jump\t// in\n    tag_50:\n    tag_49:\n      mul\n      or\n      swap1\n      sstore\n      pop\n        /* \"Contracts/JoKenPo.sol\":2200:2259  status = \"Player 1 chose his option. Waiting for player 2.\" */\n      mload(0x40)\n      dup1\n      0x60\n      add\n      0x40\n      mstore\n      dup1\n      0x30\n      dup2\n      mstore\n      0x20\n      add\n      data_891c3d6e5adde30875c07acfcca8d06d5be6cf84c2f0053d1a896b105617b25d\n      0x30\n      swap2\n      codecopy\n        /* \"Contracts/JoKenPo.sol\":2200:2206  status */\n      0x01\n        /* \"Contracts/JoKenPo.sol\":2200:2259  status = \"Player 1 chose his option. Waiting for player 2.\" */\n      swap1\n      dup2\n      tag_51\n      swap2\n      swap1\n      tag_52\n      jump\t// in\n    tag_51:\n      pop\n        /* \"Contracts/JoKenPo.sol\":2089:3423  if(choice1 == Options.NONE){... */\n      jump(tag_53)\n    tag_48:\n        /* \"Contracts/JoKenPo.sol\":2328:2340  Options.ROCK */\n      0x01\n        /* \"Contracts/JoKenPo.sol\":2317:2340  choice1 == Options.ROCK */\n      0x03\n      dup2\n      gt\n      iszero\n      tag_54\n      jumpi\n      tag_55\n      tag_32\n      jump\t// in\n    tag_55:\n    tag_54:\n        /* \"Contracts/JoKenPo.sol\":2317:2324  choice1 */\n      0x00\n      dup1\n      sload\n      swap1\n      0x0100\n      exp\n      swap1\n      div\n      0xff\n      and\n        /* \"Contracts/JoKenPo.sol\":2317:2340  choice1 == Options.ROCK */\n      0x03\n      dup2\n      gt\n      iszero\n      tag_56\n      jumpi\n      tag_57\n      tag_32\n      jump\t// in\n    tag_57:\n    tag_56:\n      eq\n        /* \"Contracts/JoKenPo.sol\":2317:2373  choice1 == Options.ROCK && newChoice == Options.SCISSORS */\n      dup1\n      iszero\n      tag_58\n      jumpi\n      pop\n        /* \"Contracts/JoKenPo.sol\":2357:2373  Options.SCISSORS */\n      0x03\n        /* \"Contracts/JoKenPo.sol\":2344:2373  newChoice == Options.SCISSORS */\n      dup1\n      dup2\n      gt\n      iszero\n      tag_59\n      jumpi\n      tag_60\n      tag_32\n      jump\t// in\n    tag_60:\n    tag_59:\n        /* \"Contracts/JoKenPo.sol\":2344:2353  newChoice */\n      dup2\n        /* \"Contracts/JoKenPo.sol\":2344:2373  newChoice == Options.SCISSORS */\n      0x03\n      dup2\n      gt\n      iszero\n      tag_61\n      jumpi\n      tag_62\n      tag_32\n      jump\t// in\n    tag_62:\n    tag_61:\n      eq\n        /* \"Contracts/JoKenPo.sol\":2317:2373  choice1 == Options.ROCK && newChoice == Options.SCISSORS */\n    tag_58:\n        /* \"Contracts/JoKenPo.sol\":2314:3423  if(choice1 == Options.ROCK && newChoice == Options.SCISSORS){ ... */\n      iszero\n      tag_63\n      jumpi\n        /* \"Contracts/JoKenPo.sol\":2390:2448  finishGame(player1, \"Rock breaks Scissors. Player 1 WON!\") */\n      tag_64\n        /* \"Contracts/JoKenPo.sol\":2401:2408  player1 */\n      0x00\n      0x01\n      swap1\n      sload\n      swap1\n      0x0100\n      exp\n      swap1\n      div\n      0xffffffffffffffffffffffffffffffffffffffff\n      and\n        /* \"Contracts/JoKenPo.sol\":2390:2448  finishGame(player1, \"Rock breaks Scissors. Player 1 WON!\") */\n      mload(0x40)\n      dup1\n      0x60\n      add\n      0x40\n      mstore\n      dup1\n      0x23\n      dup2\n      mstore\n      0x20\n      add\n      data_9056477a8043385bd4eedf29b3b65eaa4f879760f1d1dac4e0b1e2f1c5a5e34c\n      0x23\n      swap2\n      codecopy\n        /* \"Contracts/JoKenPo.sol\":2390:2400  finishGame */\n      tag_65\n        /* \"Contracts/JoKenPo.sol\":2390:2448  finishGame(player1, \"Rock breaks Scissors. Player 1 WON!\") */\n      jump\t// in\n    tag_64:\n        /* \"Contracts/JoKenPo.sol\":2314:3423  if(choice1 == Options.ROCK && newChoice == Options.SCISSORS){ ... */\n      jump(tag_66)\n    tag_63:\n        /* \"Contracts/JoKenPo.sol\":2489:2502  Options.PAPER */\n      0x02\n        /* \"Contracts/JoKenPo.sol\":2478:2502  choice1 == Options.PAPER */\n      0x03\n      dup2\n      gt\n      iszero\n      tag_67\n      jumpi\n      tag_68\n      tag_32\n      jump\t// in\n    tag_68:\n    tag_67:\n        /* \"Contracts/JoKenPo.sol\":2478:2485  choice1 */\n      0x00\n      dup1\n      sload\n      swap1\n      0x0100\n      exp\n      swap1\n      div\n      0xff\n      and\n        /* \"Contracts/JoKenPo.sol\":2478:2502  choice1 == Options.PAPER */\n      0x03\n      dup2\n      gt\n      iszero\n      tag_69\n      jumpi\n      tag_70\n      tag_32\n      jump\t// in\n    tag_70:\n    tag_69:\n      eq\n        /* \"Contracts/JoKenPo.sol\":2478:2531  choice1 == Options.PAPER && newChoice == Options.ROCK */\n      dup1\n      iszero\n      tag_71\n      jumpi\n      pop\n        /* \"Contracts/JoKenPo.sol\":2519:2531  Options.ROCK */\n      0x01\n        /* \"Contracts/JoKenPo.sol\":2506:2531  newChoice == Options.ROCK */\n      0x03\n      dup2\n      gt\n      iszero\n      tag_72\n      jumpi\n      tag_73\n      tag_32\n      jump\t// in\n    tag_73:\n    tag_72:\n        /* \"Contracts/JoKenPo.sol\":2506:2515  newChoice */\n      dup2\n        /* \"Contracts/JoKenPo.sol\":2506:2531  newChoice == Options.ROCK */\n      0x03\n      dup2\n      gt\n      iszero\n      tag_74\n      jumpi\n      tag_75\n      tag_32\n      jump\t// in\n    tag_75:\n    tag_74:\n      eq\n        /* \"Contracts/JoKenPo.sol\":2478:2531  choice1 == Options.PAPER && newChoice == Options.ROCK */\n    tag_71:\n        /* \"Contracts/JoKenPo.sol\":2475:3423  if(choice1 == Options.PAPER && newChoice == Options.ROCK){ ... */\n      iszero\n      tag_76\n      jumpi\n        /* \"Contracts/JoKenPo.sol\":2548:2602  finishGame(player1, \"Paper wraps Rock. Player 1 WON!\") */\n      tag_77\n        /* \"Contracts/JoKenPo.sol\":2559:2566  player1 */\n      0x00\n      0x01\n      swap1\n      sload\n      swap1\n      0x0100\n      exp\n      swap1\n      div\n      0xffffffffffffffffffffffffffffffffffffffff\n      and\n        /* \"Contracts/JoKenPo.sol\":2548:2602  finishGame(player1, \"Paper wraps Rock. Player 1 WON!\") */\n      mload(0x40)\n      dup1\n      0x40\n      add\n      0x40\n      mstore\n      dup1\n      0x1f\n      dup2\n      mstore\n      0x20\n      add\n      0x506170657220777261707320526f636b2e20506c61796572203120574f4e2100\n      dup2\n      mstore\n      pop\n        /* \"Contracts/JoKenPo.sol\":2548:2558  finishGame */\n      tag_65\n        /* \"Contracts/JoKenPo.sol\":2548:2602  finishGame(player1, \"Paper wraps Rock. Player 1 WON!\") */\n      jump\t// in\n    tag_77:\n        /* \"Contracts/JoKenPo.sol\":2475:3423  if(choice1 == Options.PAPER && newChoice == Options.ROCK){ ... */\n      jump(tag_78)\n    tag_76:\n        /* \"Contracts/JoKenPo.sol\":2643:2659  Options.SCISSORS */\n      0x03\n        /* \"Contracts/JoKenPo.sol\":2632:2659  choice1 == Options.SCISSORS */\n      dup1\n      dup2\n      gt\n      iszero\n      tag_79\n      jumpi\n      tag_80\n      tag_32\n      jump\t// in\n    tag_80:\n    tag_79:\n        /* \"Contracts/JoKenPo.sol\":2632:2639  choice1 */\n      0x00\n      dup1\n      sload\n      swap1\n      0x0100\n      exp\n      swap1\n      div\n      0xff\n      and\n        /* \"Contracts/JoKenPo.sol\":2632:2659  choice1 == Options.SCISSORS */\n      0x03\n      dup2\n      gt\n      iszero\n      tag_81\n      jumpi\n      tag_82\n      tag_32\n      jump\t// in\n    tag_82:\n    tag_81:\n      eq\n        /* \"Contracts/JoKenPo.sol\":2632:2689  choice1 == Options.SCISSORS && newChoice == Options.PAPER */\n      dup1\n      iszero\n      tag_83\n      jumpi\n      pop\n        /* \"Contracts/JoKenPo.sol\":2676:2689  Options.PAPER */\n      0x02\n        /* \"Contracts/JoKenPo.sol\":2663:2689  newChoice == Options.PAPER */\n      0x03\n      dup2\n      gt\n      iszero\n      tag_84\n      jumpi\n      tag_85\n      tag_32\n      jump\t// in\n    tag_85:\n    tag_84:\n        /* \"Contracts/JoKenPo.sol\":2663:2672  newChoice */\n      dup2\n        /* \"Contracts/JoKenPo.sol\":2663:2689  newChoice == Options.PAPER */\n      0x03\n      dup2\n      gt\n      iszero\n      tag_86\n      jumpi\n      tag_87\n      tag_32\n      jump\t// in\n    tag_87:\n    tag_86:\n      eq\n        /* \"Contracts/JoKenPo.sol\":2632:2689  choice1 == Options.SCISSORS && newChoice == Options.PAPER */\n    tag_83:\n        /* \"Contracts/JoKenPo.sol\":2629:3423  if(choice1 == Options.SCISSORS && newChoice == Options.PAPER){ ... */\n      iszero\n      tag_88\n      jumpi\n        /* \"Contracts/JoKenPo.sol\":2706:2763  finishGame(player1, \"Scissors cuts Paper. Player 1 WON!\") */\n      tag_89\n        /* \"Contracts/JoKenPo.sol\":2717:2724  player1 */\n      0x00\n      0x01\n      swap1\n      sload\n      swap1\n      0x0100\n      exp\n      swap1\n      div\n      0xffffffffffffffffffffffffffffffffffffffff\n      and\n        /* \"Contracts/JoKenPo.sol\":2706:2763  finishGame(player1, \"Scissors cuts Paper. Player 1 WON!\") */\n      mload(0x40)\n      dup1\n      0x60\n      add\n      0x40\n      mstore\n      dup1\n      0x22\n      dup2\n      mstore\n      0x20\n      add\n      data_91015f70aacd548b1cf82057021b45f79e16ba2ae54c369de1244ab075c90b63\n      0x22\n      swap2\n      codecopy\n        /* \"Contracts/JoKenPo.sol\":2706:2716  finishGame */\n      tag_65\n        /* \"Contracts/JoKenPo.sol\":2706:2763  finishGame(player1, \"Scissors cuts Paper. Player 1 WON!\") */\n      jump\t// in\n    tag_89:\n        /* \"Contracts/JoKenPo.sol\":2629:3423  if(choice1 == Options.SCISSORS && newChoice == Options.PAPER){ ... */\n      jump(tag_90)\n    tag_88:\n        /* \"Contracts/JoKenPo.sol\":2832:2848  Options.SCISSORS */\n      0x03\n        /* \"Contracts/JoKenPo.sol\":2821:2848  choice1 == Options.SCISSORS */\n      dup1\n      dup2\n      gt\n      iszero\n      tag_91\n      jumpi\n      tag_92\n      tag_32\n      jump\t// in\n    tag_92:\n    tag_91:\n        /* \"Contracts/JoKenPo.sol\":2821:2828  choice1 */\n      0x00\n      dup1\n      sload\n      swap1\n      0x0100\n      exp\n      swap1\n      div\n      0xff\n      and\n        /* \"Contracts/JoKenPo.sol\":2821:2848  choice1 == Options.SCISSORS */\n      0x03\n      dup2\n      gt\n      iszero\n      tag_93\n      jumpi\n      tag_94\n      tag_32\n      jump\t// in\n    tag_94:\n    tag_93:\n      eq\n        /* \"Contracts/JoKenPo.sol\":2821:2877  choice1 == Options.SCISSORS && newChoice == Options.ROCK */\n      dup1\n      iszero\n      tag_95\n      jumpi\n      pop\n        /* \"Contracts/JoKenPo.sol\":2865:2877  Options.ROCK */\n      0x01\n        /* \"Contracts/JoKenPo.sol\":2852:2877  newChoice == Options.ROCK */\n      0x03\n      dup2\n      gt\n      iszero\n      tag_96\n      jumpi\n      tag_97\n      tag_32\n      jump\t// in\n    tag_97:\n    tag_96:\n        /* \"Contracts/JoKenPo.sol\":2852:2861  newChoice */\n      dup2\n        /* \"Contracts/JoKenPo.sol\":2852:2877  newChoice == Options.ROCK */\n      0x03\n      dup2\n      gt\n      iszero\n      tag_98\n      jumpi\n      tag_99\n      tag_32\n      jump\t// in\n    tag_99:\n    tag_98:\n      eq\n        /* \"Contracts/JoKenPo.sol\":2821:2877  choice1 == Options.SCISSORS && newChoice == Options.ROCK */\n    tag_95:\n        /* \"Contracts/JoKenPo.sol\":2818:3423  if(choice1 == Options.SCISSORS && newChoice == Options.ROCK){ ... */\n      iszero\n      tag_100\n      jumpi\n        /* \"Contracts/JoKenPo.sol\":2894:2955  finishGame(msg.sender, \"Rock breaks Scissors. Player 2 WON!\") */\n      tag_101\n        /* \"Contracts/JoKenPo.sol\":2905:2915  msg.sender */\n      caller\n        /* \"Contracts/JoKenPo.sol\":2894:2955  finishGame(msg.sender, \"Rock breaks Scissors. Player 2 WON!\") */\n      mload(0x40)\n      dup1\n      0x60\n      add\n      0x40\n      mstore\n      dup1\n      0x23\n      dup2\n      mstore\n      0x20\n      add\n      data_578a9428a54c800af9c02139d74432994ad47bb29704d23f809566a331855d2f\n      0x23\n      swap2\n      codecopy\n        /* \"Contracts/JoKenPo.sol\":2894:2904  finishGame */\n      tag_65\n        /* \"Contracts/JoKenPo.sol\":2894:2955  finishGame(msg.sender, \"Rock breaks Scissors. Player 2 WON!\") */\n      jump\t// in\n    tag_101:\n        /* \"Contracts/JoKenPo.sol\":2818:3423  if(choice1 == Options.SCISSORS && newChoice == Options.ROCK){ ... */\n      jump(tag_102)\n    tag_100:\n        /* \"Contracts/JoKenPo.sol\":2996:3008  Options.ROCK */\n      0x01\n        /* \"Contracts/JoKenPo.sol\":2985:3008  choice1 == Options.ROCK */\n      0x03\n      dup2\n      gt\n      iszero\n      tag_103\n      jumpi\n      tag_104\n      tag_32\n      jump\t// in\n    tag_104:\n    tag_103:\n        /* \"Contracts/JoKenPo.sol\":2985:2992  choice1 */\n      0x00\n      dup1\n      sload\n      swap1\n      0x0100\n      exp\n      swap1\n      div\n      0xff\n      and\n        /* \"Contracts/JoKenPo.sol\":2985:3008  choice1 == Options.ROCK */\n      0x03\n      dup2\n      gt\n      iszero\n      tag_105\n      jumpi\n      tag_106\n      tag_32\n      jump\t// in\n    tag_106:\n    tag_105:\n      eq\n        /* \"Contracts/JoKenPo.sol\":2985:3038  choice1 == Options.ROCK && newChoice == Options.PAPER */\n      dup1\n      iszero\n      tag_107\n      jumpi\n      pop\n        /* \"Contracts/JoKenPo.sol\":3025:3038  Options.PAPER */\n      0x02\n        /* \"Contracts/JoKenPo.sol\":3012:3038  newChoice == Options.PAPER */\n      0x03\n      dup2\n      gt\n      iszero\n      tag_108\n      jumpi\n      tag_109\n      tag_32\n      jump\t// in\n    tag_109:\n    tag_108:\n        /* \"Contracts/JoKenPo.sol\":3012:3021  newChoice */\n      dup2\n        /* \"Contracts/JoKenPo.sol\":3012:3038  newChoice == Options.PAPER */\n      0x03\n      dup2\n      gt\n      iszero\n      tag_110\n      jumpi\n      tag_111\n      tag_32\n      jump\t// in\n    tag_111:\n    tag_110:\n      eq\n        /* \"Contracts/JoKenPo.sol\":2985:3038  choice1 == Options.ROCK && newChoice == Options.PAPER */\n    tag_107:\n        /* \"Contracts/JoKenPo.sol\":2982:3423  if(choice1 == Options.ROCK && newChoice == Options.PAPER){ ... */\n      iszero\n      tag_112\n      jumpi\n        /* \"Contracts/JoKenPo.sol\":3055:3112  finishGame(msg.sender, \"Paper wraps Rock. Player 2 WON!\") */\n      tag_113\n        /* \"Contracts/JoKenPo.sol\":3066:3076  msg.sender */\n      caller\n        /* \"Contracts/JoKenPo.sol\":3055:3112  finishGame(msg.sender, \"Paper wraps Rock. Player 2 WON!\") */\n      mload(0x40)\n      dup1\n      0x40\n      add\n      0x40\n      mstore\n      dup1\n      0x1f\n      dup2\n      mstore\n      0x20\n      add\n      0x506170657220777261707320526f636b2e20506c61796572203220574f4e2100\n      dup2\n      mstore\n      pop\n        /* \"Contracts/JoKenPo.sol\":3055:3065  finishGame */\n      tag_65\n        /* \"Contracts/JoKenPo.sol\":3055:3112  finishGame(msg.sender, \"Paper wraps Rock. Player 2 WON!\") */\n      jump\t// in\n    tag_113:\n        /* \"Contracts/JoKenPo.sol\":2982:3423  if(choice1 == Options.ROCK && newChoice == Options.PAPER){ ... */\n      jump(tag_114)\n    tag_112:\n        /* \"Contracts/JoKenPo.sol\":3153:3166  Options.PAPER */\n      0x02\n        /* \"Contracts/JoKenPo.sol\":3142:3166  choice1 == Options.PAPER */\n      0x03\n      dup2\n      gt\n      iszero\n      tag_115\n      jumpi\n      tag_116\n      tag_32\n      jump\t// in\n    tag_116:\n    tag_115:\n        /* \"Contracts/JoKenPo.sol\":3142:3149  choice1 */\n      0x00\n      dup1\n      sload\n      swap1\n      0x0100\n      exp\n      swap1\n      div\n      0xff\n      and\n        /* \"Contracts/JoKenPo.sol\":3142:3166  choice1 == Options.PAPER */\n      0x03\n      dup2\n      gt\n      iszero\n      tag_117\n      jumpi\n      tag_118\n      tag_32\n      jump\t// in\n    tag_118:\n    tag_117:\n      eq\n        /* \"Contracts/JoKenPo.sol\":3142:3199  choice1 == Options.PAPER && newChoice == Options.SCISSORS */\n      dup1\n      iszero\n      tag_119\n      jumpi\n      pop\n        /* \"Contracts/JoKenPo.sol\":3183:3199  Options.SCISSORS */\n      0x03\n        /* \"Contracts/JoKenPo.sol\":3170:3199  newChoice == Options.SCISSORS */\n      dup1\n      dup2\n      gt\n      iszero\n      tag_120\n      jumpi\n      tag_121\n      tag_32\n      jump\t// in\n    tag_121:\n    tag_120:\n        /* \"Contracts/JoKenPo.sol\":3170:3179  newChoice */\n      dup2\n        /* \"Contracts/JoKenPo.sol\":3170:3199  newChoice == Options.SCISSORS */\n      0x03\n      dup2\n      gt\n      iszero\n      tag_122\n      jumpi\n      tag_123\n      tag_32\n      jump\t// in\n    tag_123:\n    tag_122:\n      eq\n        /* \"Contracts/JoKenPo.sol\":3142:3199  choice1 == Options.PAPER && newChoice == Options.SCISSORS */\n    tag_119:\n        /* \"Contracts/JoKenPo.sol\":3139:3423  if(choice1 == Options.PAPER && newChoice == Options.SCISSORS){ ... */\n      iszero\n      tag_124\n      jumpi\n        /* \"Contracts/JoKenPo.sol\":3216:3276  finishGame(msg.sender, \"Scissors cuts Paper. Player 2 WON!\") */\n      tag_125\n        /* \"Contracts/JoKenPo.sol\":3227:3237  msg.sender */\n      caller\n        /* \"Contracts/JoKenPo.sol\":3216:3276  finishGame(msg.sender, \"Scissors cuts Paper. Player 2 WON!\") */\n      mload(0x40)\n      dup1\n      0x60\n      add\n      0x40\n      mstore\n      dup1\n      0x22\n      dup2\n      mstore\n      0x20\n      add\n      data_933bdbc870e421c751aaa16e694cd13fd9fe7932556621cc4aca333dcc976580\n      0x22\n      swap2\n      codecopy\n        /* \"Contracts/JoKenPo.sol\":3216:3226  finishGame */\n      tag_65\n        /* \"Contracts/JoKenPo.sol\":3216:3276  finishGame(msg.sender, \"Scissors cuts Paper. Player 2 WON!\") */\n      jump\t// in\n    tag_125:\n        /* \"Contracts/JoKenPo.sol\":3139:3423  if(choice1 == Options.PAPER && newChoice == Options.SCISSORS){ ... */\n      jump(tag_126)\n    tag_124:\n        /* \"Contracts/JoKenPo.sol\":3375:3411  finishGame(address(0), \"Draw game!\") */\n      tag_127\n        /* \"Contracts/JoKenPo.sol\":3394:3395  0 */\n      0x00\n        /* \"Contracts/JoKenPo.sol\":3375:3411  finishGame(address(0), \"Draw game!\") */\n      mload(0x40)\n      dup1\n      0x40\n      add\n      0x40\n      mstore\n      dup1\n      0x0a\n      dup2\n      mstore\n      0x20\n      add\n      0x447261772067616d652100000000000000000000000000000000000000000000\n      dup2\n      mstore\n      pop\n        /* \"Contracts/JoKenPo.sol\":3375:3385  finishGame */\n      tag_65\n        /* \"Contracts/JoKenPo.sol\":3375:3411  finishGame(address(0), \"Draw game!\") */\n      jump\t// in\n    tag_127:\n        /* \"Contracts/JoKenPo.sol\":3139:3423  if(choice1 == Options.PAPER && newChoice == Options.SCISSORS){ ... */\n    tag_126:\n        /* \"Contracts/JoKenPo.sol\":2982:3423  if(choice1 == Options.ROCK && newChoice == Options.PAPER){ ... */\n    tag_114:\n        /* \"Contracts/JoKenPo.sol\":2818:3423  if(choice1 == Options.SCISSORS && newChoice == Options.ROCK){ ... */\n    tag_102:\n        /* \"Contracts/JoKenPo.sol\":2629:3423  if(choice1 == Options.SCISSORS && newChoice == Options.PAPER){ ... */\n    tag_90:\n        /* \"Contracts/JoKenPo.sol\":2475:3423  if(choice1 == Options.PAPER && newChoice == Options.ROCK){ ... */\n    tag_78:\n        /* \"Contracts/JoKenPo.sol\":2314:3423  if(choice1 == Options.ROCK && newChoice == Options.SCISSORS){ ... */\n    tag_66:\n        /* \"Contracts/JoKenPo.sol\":2089:3423  if(choice1 == Options.NONE){... */\n    tag_53:\n        /* \"Contracts/JoKenPo.sol\":1733:3430  function play(Options newChoice) public payable {... */\n      pop\n      jump\t// out\n        /* \"Contracts/JoKenPo.sol\":1062:1650  function finishGame(address winner, string memory newStatus) private {... */\n    tag_65:\n        /* \"Contracts/JoKenPo.sol\":1195:1196  0 */\n      0x00\n        /* \"Contracts/JoKenPo.sol\":1177:1197  winner != address(0) */\n      0xffffffffffffffffffffffffffffffffffffffff\n      and\n        /* \"Contracts/JoKenPo.sol\":1177:1183  winner */\n      dup3\n        /* \"Contracts/JoKenPo.sol\":1177:1197  winner != address(0) */\n      0xffffffffffffffffffffffffffffffffffffffff\n      and\n      eq\n        /* \"Contracts/JoKenPo.sol\":1174:1513  if(winner != address(0)){... */\n      tag_129\n      jumpi\n        /* \"Contracts/JoKenPo.sol\":1250:1270  address contractAddr */\n      0x00\n        /* \"Contracts/JoKenPo.sol\":1281:1285  this */\n      address\n        /* \"Contracts/JoKenPo.sol\":1250:1286  address contractAddr = address(this) */\n      swap1\n      pop\n        /* \"Contracts/JoKenPo.sol\":1339:1344  owner */\n      immutable(\"0x731dc163f73d31d8c68f9917ce4ff967753939f70432973c04fd2c2a48148607\")\n        /* \"Contracts/JoKenPo.sol\":1339:1353  owner.transfer */\n      0xffffffffffffffffffffffffffffffffffffffff\n      and\n        /* \"Contracts/JoKenPo.sol\":1339:1388  owner.transfer((contractAddr.balance / 100) * 10) */\n      0x08fc\n        /* \"Contracts/JoKenPo.sol\":1385:1387  10 */\n      0x0a\n        /* \"Contracts/JoKenPo.sol\":1378:1381  100 */\n      0x64\n        /* \"Contracts/JoKenPo.sol\":1355:1367  contractAddr */\n      dup5\n        /* \"Contracts/JoKenPo.sol\":1355:1375  contractAddr.balance */\n      0xffffffffffffffffffffffffffffffffffffffff\n      and\n      balance\n        /* \"Contracts/JoKenPo.sol\":1355:1381  contractAddr.balance / 100 */\n      tag_130\n      swap2\n      swap1\n      tag_131\n      jump\t// in\n    tag_130:\n        /* \"Contracts/JoKenPo.sol\":1354:1387  (contractAddr.balance / 100) * 10 */\n      tag_132\n      swap2\n      swap1\n      tag_133\n      jump\t// in\n    tag_132:\n        /* \"Contracts/JoKenPo.sol\":1339:1388  owner.transfer((contractAddr.balance / 100) * 10) */\n      swap1\n      dup2\n      iszero\n      mul\n      swap1\n      mload(0x40)\n      0x00\n      mload(0x40)\n      dup1\n      dup4\n      sub\n      dup2\n      dup6\n      dup9\n      dup9\n      call\n      swap4\n      pop\n      pop\n      pop\n      pop\n      iszero\n      dup1\n      iszero\n      tag_135\n      jumpi\n      returndatasize\n      0x00\n      dup1\n      returndatacopy\n      revert(0x00, returndatasize)\n    tag_135:\n      pop\n        /* \"Contracts/JoKenPo.sol\":1450:1456  winner */\n      dup3\n        /* \"Contracts/JoKenPo.sol\":1442:1466  payable(winner).transfer */\n      0xffffffffffffffffffffffffffffffffffffffff\n      and\n        /* \"Contracts/JoKenPo.sol\":1442:1501  payable(winner).transfer((contractAddr.balance / 100) * 90) */\n      0x08fc\n        /* \"Contracts/JoKenPo.sol\":1498:1500  90 */\n      0x5a\n        /* \"Contracts/JoKenPo.sol\":1491:1494  100 */\n      0x64\n        /* \"Contracts/JoKenPo.sol\":1468:1480  contractAddr */\n      dup5\n        /* \"Contracts/JoKenPo.sol\":1468:1488  contractAddr.balance */\n      0xffffffffffffffffffffffffffffffffffffffff\n      and\n      balance\n        /* \"Contracts/JoKenPo.sol\":1468:1494  contractAddr.balance / 100 */\n      tag_136\n      swap2\n      swap1\n      tag_131\n      jump\t// in\n    tag_136:\n        /* \"Contracts/JoKenPo.sol\":1467:1500  (contractAddr.balance / 100) * 90 */\n      tag_137\n      swap2\n      swap1\n      tag_133\n      jump\t// in\n    tag_137:\n        /* \"Contracts/JoKenPo.sol\":1442:1501  payable(winner).transfer((contractAddr.balance / 100) * 90) */\n      swap1\n      dup2\n      iszero\n      mul\n      swap1\n      mload(0x40)\n      0x00\n      mload(0x40)\n      dup1\n      dup4\n      sub\n      dup2\n      dup6\n      dup9\n      dup9\n      call\n      swap4\n      pop\n      pop\n      pop\n      pop\n      iszero\n      dup1\n      iszero\n      tag_139\n      jumpi\n      returndatasize\n      0x00\n      dup1\n      returndatacopy\n      revert(0x00, returndatasize)\n    tag_139:\n      pop\n        /* \"Contracts/JoKenPo.sol\":1198:1513  {... */\n      pop\n        /* \"Contracts/JoKenPo.sol\":1174:1513  if(winner != address(0)){... */\n    tag_129:\n        /* \"Contracts/JoKenPo.sol\":1551:1560  newStatus */\n      dup1\n        /* \"Contracts/JoKenPo.sol\":1542:1548  status */\n      0x01\n        /* \"Contracts/JoKenPo.sol\":1542:1560  status = newStatus */\n      swap1\n      dup2\n      tag_140\n      swap2\n      swap1\n      tag_52\n      jump\t// in\n    tag_140:\n      pop\n        /* \"Contracts/JoKenPo.sol\":1607:1608  0 */\n      0x00\n        /* \"Contracts/JoKenPo.sol\":1589:1596  player1 */\n      dup1\n      0x01\n        /* \"Contracts/JoKenPo.sol\":1589:1609  player1 = address(0) */\n      0x0100\n      exp\n      dup2\n      sload\n      dup2\n      0xffffffffffffffffffffffffffffffffffffffff\n      mul\n      not\n      and\n      swap1\n      dup4\n      0xffffffffffffffffffffffffffffffffffffffff\n      and\n      mul\n      or\n      swap1\n      sstore\n      pop\n        /* \"Contracts/JoKenPo.sol\":1630:1642  Options.NONE */\n      0x00\n        /* \"Contracts/JoKenPo.sol\":1620:1627  choice1 */\n      dup1\n      0x00\n        /* \"Contracts/JoKenPo.sol\":1620:1642  choice1 = Options.NONE */\n      0x0100\n      exp\n      dup2\n      sload\n      dup2\n      0xff\n      mul\n      not\n      and\n      swap1\n      dup4\n      0x03\n      dup2\n      gt\n      iszero\n      tag_141\n      jumpi\n      tag_142\n      tag_32\n      jump\t// in\n    tag_142:\n    tag_141:\n      mul\n      or\n      swap1\n      sstore\n      pop\n        /* \"Contracts/JoKenPo.sol\":1062:1650  function finishGame(address winner, string memory newStatus) private {... */\n      pop\n      pop\n      jump\t// out\n        /* \"#utility.yul\":7:84   */\n    tag_143:\n        /* \"#utility.yul\":44:51   */\n      0x00\n        /* \"#utility.yul\":73:78   */\n      dup2\n        /* \"#utility.yul\":62:78   */\n      swap1\n      pop\n        /* \"#utility.yul\":7:84   */\n      swap2\n      swap1\n      pop\n      jump\t// out\n        /* \"#utility.yul\":90:208   */\n    tag_144:\n        /* \"#utility.yul\":177:201   */\n      tag_185\n        /* \"#utility.yul\":195:200   */\n      dup2\n        /* \"#utility.yul\":177:201   */\n      tag_143\n      jump\t// in\n    tag_185:\n        /* \"#utility.yul\":172:175   */\n      dup3\n        /* \"#utility.yul\":165:202   */\n      mstore\n        /* \"#utility.yul\":90:208   */\n      pop\n      pop\n      jump\t// out\n        /* \"#utility.yul\":214:436   */\n    tag_9:\n        /* \"#utility.yul\":307:311   */\n      0x00\n        /* \"#utility.yul\":345:347   */\n      0x20\n        /* \"#utility.yul\":334:343   */\n      dup3\n        /* \"#utility.yul\":330:348   */\n      add\n        /* \"#utility.yul\":322:348   */\n      swap1\n      pop\n        /* \"#utility.yul\":358:429   */\n      tag_187\n        /* \"#utility.yul\":426:427   */\n      0x00\n        /* \"#utility.yul\":415:424   */\n      dup4\n        /* \"#utility.yul\":411:428   */\n      add\n        /* \"#utility.yul\":402:408   */\n      dup5\n        /* \"#utility.yul\":358:429   */\n      tag_144\n      jump\t// in\n    tag_187:\n        /* \"#utility.yul\":214:436   */\n      swap3\n      swap2\n      pop\n      pop\n      jump\t// out\n        /* \"#utility.yul\":442:541   */\n    tag_145:\n        /* \"#utility.yul\":494:500   */\n      0x00\n        /* \"#utility.yul\":528:533   */\n      dup2\n        /* \"#utility.yul\":522:534   */\n      mload\n        /* \"#utility.yul\":512:534   */\n      swap1\n      pop\n        /* \"#utility.yul\":442:541   */\n      swap2\n      swap1\n      pop\n      jump\t// out\n        /* \"#utility.yul\":547:716   */\n    tag_146:\n        /* \"#utility.yul\":631:642   */\n      0x00\n        /* \"#utility.yul\":665:671   */\n      dup3\n        /* \"#utility.yul\":660:663   */\n      dup3\n        /* \"#utility.yul\":653:672   */\n      mstore\n        /* \"#utility.yul\":705:709   */\n      0x20\n        /* \"#utility.yul\":700:703   */\n      dup3\n        /* \"#utility.yul\":696:710   */\n      add\n        /* \"#utility.yul\":681:710   */\n      swap1\n      pop\n        /* \"#utility.yul\":547:716   */\n      swap3\n      swap2\n      pop\n      pop\n      jump\t// out\n        /* \"#utility.yul\":722:968   */\n    tag_147:\n        /* \"#utility.yul\":803:804   */\n      0x00\n        /* \"#utility.yul\":813:926   */\n    tag_191:\n        /* \"#utility.yul\":827:833   */\n      dup4\n        /* \"#utility.yul\":824:825   */\n      dup2\n        /* \"#utility.yul\":821:834   */\n      lt\n        /* \"#utility.yul\":813:926   */\n      iszero\n      tag_193\n      jumpi\n        /* \"#utility.yul\":912:913   */\n      dup1\n        /* \"#utility.yul\":907:910   */\n      dup3\n        /* \"#utility.yul\":903:914   */\n      add\n        /* \"#utility.yul\":897:915   */\n      mload\n        /* \"#utility.yul\":893:894   */\n      dup2\n        /* \"#utility.yul\":888:891   */\n      dup5\n        /* \"#utility.yul\":884:895   */\n      add\n        /* \"#utility.yul\":877:916   */\n      mstore\n        /* \"#utility.yul\":849:851   */\n      0x20\n        /* \"#utility.yul\":846:847   */\n      dup2\n        /* \"#utility.yul\":842:852   */\n      add\n        /* \"#utility.yul\":837:852   */\n      swap1\n      pop\n        /* \"#utility.yul\":813:926   */\n      jump(tag_191)\n    tag_193:\n        /* \"#utility.yul\":960:961   */\n      0x00\n        /* \"#utility.yul\":951:957   */\n      dup5\n        /* \"#utility.yul\":946:949   */\n      dup5\n        /* \"#utility.yul\":942:958   */\n      add\n        /* \"#utility.yul\":935:962   */\n      mstore\n        /* \"#utility.yul\":784:968   */\n      pop\n        /* \"#utility.yul\":722:968   */\n      pop\n      pop\n      pop\n      jump\t// out\n        /* \"#utility.yul\":974:1076   */\n    tag_148:\n        /* \"#utility.yul\":1015:1021   */\n      0x00\n        /* \"#utility.yul\":1066:1068   */\n      0x1f\n        /* \"#utility.yul\":1062:1069   */\n      not\n        /* \"#utility.yul\":1057:1059   */\n      0x1f\n        /* \"#utility.yul\":1050:1055   */\n      dup4\n        /* \"#utility.yul\":1046:1060   */\n      add\n        /* \"#utility.yul\":1042:1070   */\n      and\n        /* \"#utility.yul\":1032:1070   */\n      swap1\n      pop\n        /* \"#utility.yul\":974:1076   */\n      swap2\n      swap1\n      pop\n      jump\t// out\n        /* \"#utility.yul\":1082:1459   */\n    tag_149:\n        /* \"#utility.yul\":1170:1173   */\n      0x00\n        /* \"#utility.yul\":1198:1237   */\n      tag_196\n        /* \"#utility.yul\":1231:1236   */\n      dup3\n        /* \"#utility.yul\":1198:1237   */\n      tag_145\n      jump\t// in\n    tag_196:\n        /* \"#utility.yul\":1253:1324   */\n      tag_197\n        /* \"#utility.yul\":1317:1323   */\n      dup2\n        /* \"#utility.yul\":1312:1315   */\n      dup6\n        /* \"#utility.yul\":1253:1324   */\n      tag_146\n      jump\t// in\n    tag_197:\n        /* \"#utility.yul\":1246:1324   */\n      swap4\n      pop\n        /* \"#utility.yul\":1333:1398   */\n      tag_198\n        /* \"#utility.yul\":1391:1397   */\n      dup2\n        /* \"#utility.yul\":1386:1389   */\n      dup6\n        /* \"#utility.yul\":1379:1383   */\n      0x20\n        /* \"#utility.yul\":1372:1377   */\n      dup7\n        /* \"#utility.yul\":1368:1384   */\n      add\n        /* \"#utility.yul\":1333:1398   */\n      tag_147\n      jump\t// in\n    tag_198:\n        /* \"#utility.yul\":1423:1452   */\n      tag_199\n        /* \"#utility.yul\":1445:1451   */\n      dup2\n        /* \"#utility.yul\":1423:1452   */\n      tag_148\n      jump\t// in\n    tag_199:\n        /* \"#utility.yul\":1418:1421   */\n      dup5\n        /* \"#utility.yul\":1414:1453   */\n      add\n        /* \"#utility.yul\":1407:1453   */\n      swap2\n      pop\n        /* \"#utility.yul\":1174:1459   */\n      pop\n        /* \"#utility.yul\":1082:1459   */\n      swap3\n      swap2\n      pop\n      pop\n      jump\t// out\n        /* \"#utility.yul\":1465:1778   */\n    tag_14:\n        /* \"#utility.yul\":1578:1582   */\n      0x00\n        /* \"#utility.yul\":1616:1618   */\n      0x20\n        /* \"#utility.yul\":1605:1614   */\n      dup3\n        /* \"#utility.yul\":1601:1619   */\n      add\n        /* \"#utility.yul\":1593:1619   */\n      swap1\n      pop\n        /* \"#utility.yul\":1665:1674   */\n      dup2\n        /* \"#utility.yul\":1659:1663   */\n      dup2\n        /* \"#utility.yul\":1655:1675   */\n      sub\n        /* \"#utility.yul\":1651:1652   */\n      0x00\n        /* \"#utility.yul\":1640:1649   */\n      dup4\n        /* \"#utility.yul\":1636:1653   */\n      add\n        /* \"#utility.yul\":1629:1676   */\n      mstore\n        /* \"#utility.yul\":1693:1771   */\n      tag_201\n        /* \"#utility.yul\":1766:1770   */\n      dup2\n        /* \"#utility.yul\":1757:1763   */\n      dup5\n        /* \"#utility.yul\":1693:1771   */\n      tag_149\n      jump\t// in\n    tag_201:\n        /* \"#utility.yul\":1685:1771   */\n      swap1\n      pop\n        /* \"#utility.yul\":1465:1778   */\n      swap3\n      swap2\n      pop\n      pop\n      jump\t// out\n        /* \"#utility.yul\":1865:1982   */\n    tag_151:\n        /* \"#utility.yul\":1974:1975   */\n      0x00\n        /* \"#utility.yul\":1971:1972   */\n      dup1\n        /* \"#utility.yul\":1964:1976   */\n      revert\n        /* \"#utility.yul\":2111:2219   */\n    tag_153:\n        /* \"#utility.yul\":2193:2194   */\n      0x04\n        /* \"#utility.yul\":2186:2191   */\n      dup2\n        /* \"#utility.yul\":2183:2195   */\n      lt\n        /* \"#utility.yul\":2173:2213   */\n      tag_206\n      jumpi\n        /* \"#utility.yul\":2209:2210   */\n      0x00\n        /* \"#utility.yul\":2206:2207   */\n      dup1\n        /* \"#utility.yul\":2199:2211   */\n      revert\n        /* \"#utility.yul\":2173:2213   */\n    tag_206:\n        /* \"#utility.yul\":2111:2219   */\n      pop\n      jump\t// out\n        /* \"#utility.yul\":2225:2382   */\n    tag_154:\n        /* \"#utility.yul\":2280:2285   */\n      0x00\n        /* \"#utility.yul\":2318:2324   */\n      dup2\n        /* \"#utility.yul\":2305:2325   */\n      calldataload\n        /* \"#utility.yul\":2296:2325   */\n      swap1\n      pop\n        /* \"#utility.yul\":2334:2376   */\n      tag_208\n        /* \"#utility.yul\":2370:2375   */\n      dup2\n        /* \"#utility.yul\":2334:2376   */\n      tag_153\n      jump\t// in\n    tag_208:\n        /* \"#utility.yul\":2225:2382   */\n      swap3\n      swap2\n      pop\n      pop\n      jump\t// out\n        /* \"#utility.yul\":2388:2735   */\n    tag_17:\n        /* \"#utility.yul\":2456:2462   */\n      0x00\n        /* \"#utility.yul\":2505:2507   */\n      0x20\n        /* \"#utility.yul\":2493:2502   */\n      dup3\n        /* \"#utility.yul\":2484:2491   */\n      dup5\n        /* \"#utility.yul\":2480:2503   */\n      sub\n        /* \"#utility.yul\":2476:2508   */\n      slt\n        /* \"#utility.yul\":2473:2592   */\n      iszero\n      tag_210\n      jumpi\n        /* \"#utility.yul\":2511:2590   */\n      tag_211\n      tag_151\n      jump\t// in\n    tag_211:\n        /* \"#utility.yul\":2473:2592   */\n    tag_210:\n        /* \"#utility.yul\":2631:2632   */\n      0x00\n        /* \"#utility.yul\":2656:2718   */\n      tag_212\n        /* \"#utility.yul\":2710:2717   */\n      dup5\n        /* \"#utility.yul\":2701:2707   */\n      dup3\n        /* \"#utility.yul\":2690:2699   */\n      dup6\n        /* \"#utility.yul\":2686:2708   */\n      add\n        /* \"#utility.yul\":2656:2718   */\n      tag_154\n      jump\t// in\n    tag_212:\n        /* \"#utility.yul\":2646:2718   */\n      swap2\n      pop\n        /* \"#utility.yul\":2602:2728   */\n      pop\n        /* \"#utility.yul\":2388:2735   */\n      swap3\n      swap2\n      pop\n      pop\n      jump\t// out\n        /* \"#utility.yul\":2741:2970   */\n    tag_155:\n        /* \"#utility.yul\":2881:2915   */\n      0x596f7520646f6e27742068617665207065726d697373696f6e7320746f206163\n        /* \"#utility.yul\":2877:2878   */\n      0x00\n        /* \"#utility.yul\":2869:2875   */\n      dup3\n        /* \"#utility.yul\":2865:2879   */\n      add\n        /* \"#utility.yul\":2858:2916   */\n      mstore\n        /* \"#utility.yul\":2950:2962   */\n      0x6365737320746869732e00000000000000000000000000000000000000000000\n        /* \"#utility.yul\":2945:2947   */\n      0x20\n        /* \"#utility.yul\":2937:2943   */\n      dup3\n        /* \"#utility.yul\":2933:2948   */\n      add\n        /* \"#utility.yul\":2926:2963   */\n      mstore\n        /* \"#utility.yul\":2741:2970   */\n      pop\n      jump\t// out\n        /* \"#utility.yul\":2976:3342   */\n    tag_156:\n        /* \"#utility.yul\":3118:3121   */\n      0x00\n        /* \"#utility.yul\":3139:3206   */\n      tag_215\n        /* \"#utility.yul\":3203:3205   */\n      0x2a\n        /* \"#utility.yul\":3198:3201   */\n      dup4\n        /* \"#utility.yul\":3139:3206   */\n      tag_146\n      jump\t// in\n    tag_215:\n        /* \"#utility.yul\":3132:3206   */\n      swap2\n      pop\n        /* \"#utility.yul\":3215:3308   */\n      tag_216\n        /* \"#utility.yul\":3304:3307   */\n      dup3\n        /* \"#utility.yul\":3215:3308   */\n      tag_155\n      jump\t// in\n    tag_216:\n        /* \"#utility.yul\":3333:3335   */\n      0x40\n        /* \"#utility.yul\":3328:3331   */\n      dup3\n        /* \"#utility.yul\":3324:3336   */\n      add\n        /* \"#utility.yul\":3317:3336   */\n      swap1\n      pop\n        /* \"#utility.yul\":2976:3342   */\n      swap2\n      swap1\n      pop\n      jump\t// out\n        /* \"#utility.yul\":3348:3767   */\n    tag_22:\n        /* \"#utility.yul\":3514:3518   */\n      0x00\n        /* \"#utility.yul\":3552:3554   */\n      0x20\n        /* \"#utility.yul\":3541:3550   */\n      dup3\n        /* \"#utility.yul\":3537:3555   */\n      add\n        /* \"#utility.yul\":3529:3555   */\n      swap1\n      pop\n        /* \"#utility.yul\":3601:3610   */\n      dup2\n        /* \"#utility.yul\":3595:3599   */\n      dup2\n        /* \"#utility.yul\":3591:3611   */\n      sub\n        /* \"#utility.yul\":3587:3588   */\n      0x00\n        /* \"#utility.yul\":3576:3585   */\n      dup4\n        /* \"#utility.yul\":3572:3589   */\n      add\n        /* \"#utility.yul\":3565:3612   */\n      mstore\n        /* \"#utility.yul\":3629:3760   */\n      tag_218\n        /* \"#utility.yul\":3755:3759   */\n      dup2\n        /* \"#utility.yul\":3629:3760   */\n      tag_156\n      jump\t// in\n    tag_218:\n        /* \"#utility.yul\":3621:3760   */\n      swap1\n      pop\n        /* \"#utility.yul\":3348:3767   */\n      swap2\n      swap1\n      pop\n      jump\t// out\n        /* \"#utility.yul\":3773:3953   */\n    tag_157:\n        /* \"#utility.yul\":3821:3898   */\n      0x4e487b7100000000000000000000000000000000000000000000000000000000\n        /* \"#utility.yul\":3818:3819   */\n      0x00\n        /* \"#utility.yul\":3811:3899   */\n      mstore\n        /* \"#utility.yul\":3918:3922   */\n      0x22\n        /* \"#utility.yul\":3915:3916   */\n      0x04\n        /* \"#utility.yul\":3908:3923   */\n      mstore\n        /* \"#utility.yul\":3942:3946   */\n      0x24\n        /* \"#utility.yul\":3939:3940   */\n      0x00\n        /* \"#utility.yul\":3932:3947   */\n      revert\n        /* \"#utility.yul\":3959:4279   */\n    tag_24:\n        /* \"#utility.yul\":4003:4009   */\n      0x00\n        /* \"#utility.yul\":4040:4041   */\n      0x02\n        /* \"#utility.yul\":4034:4038   */\n      dup3\n        /* \"#utility.yul\":4030:4042   */\n      div\n        /* \"#utility.yul\":4020:4042   */\n      swap1\n      pop\n        /* \"#utility.yul\":4087:4088   */\n      0x01\n        /* \"#utility.yul\":4081:4085   */\n      dup3\n        /* \"#utility.yul\":4077:4089   */\n      and\n        /* \"#utility.yul\":4108:4126   */\n      dup1\n        /* \"#utility.yul\":4098:4179   */\n      tag_221\n      jumpi\n        /* \"#utility.yul\":4164:4168   */\n      0x7f\n        /* \"#utility.yul\":4156:4162   */\n      dup3\n        /* \"#utility.yul\":4152:4169   */\n      and\n        /* \"#utility.yul\":4142:4169   */\n      swap2\n      pop\n        /* \"#utility.yul\":4098:4179   */\n    tag_221:\n        /* \"#utility.yul\":4226:4228   */\n      0x20\n        /* \"#utility.yul\":4218:4224   */\n      dup3\n        /* \"#utility.yul\":4215:4229   */\n      lt\n        /* \"#utility.yul\":4195:4213   */\n      dup2\n        /* \"#utility.yul\":4192:4230   */\n      sub\n        /* \"#utility.yul\":4189:4273   */\n      tag_222\n      jumpi\n        /* \"#utility.yul\":4245:4263   */\n      tag_223\n      tag_157\n      jump\t// in\n    tag_223:\n        /* \"#utility.yul\":4189:4273   */\n    tag_222:\n        /* \"#utility.yul\":4010:4279   */\n      pop\n        /* \"#utility.yul\":3959:4279   */\n      swap2\n      swap1\n      pop\n      jump\t// out\n        /* \"#utility.yul\":4285:4465   */\n    tag_32:\n        /* \"#utility.yul\":4333:4410   */\n      0x4e487b7100000000000000000000000000000000000000000000000000000000\n        /* \"#utility.yul\":4330:4331   */\n      0x00\n        /* \"#utility.yul\":4323:4411   */\n      mstore\n        /* \"#utility.yul\":4430:4434   */\n      0x21\n        /* \"#utility.yul\":4427:4428   */\n      0x04\n        /* \"#utility.yul\":4420:4435   */\n      mstore\n        /* \"#utility.yul\":4454:4458   */\n      0x24\n        /* \"#utility.yul\":4451:4452   */\n      0x00\n        /* \"#utility.yul\":4444:4459   */\n      revert\n        /* \"#utility.yul\":4471:4636   */\n    tag_158:\n        /* \"#utility.yul\":4611:4628   */\n      0x496e76616c69642063686f696365210000000000000000000000000000000000\n        /* \"#utility.yul\":4607:4608   */\n      0x00\n        /* \"#utility.yul\":4599:4605   */\n      dup3\n        /* \"#utility.yul\":4595:4609   */\n      add\n        /* \"#utility.yul\":4588:4629   */\n      mstore\n        /* \"#utility.yul\":4471:4636   */\n      pop\n      jump\t// out\n        /* \"#utility.yul\":4642:5008   */\n    tag_159:\n        /* \"#utility.yul\":4784:4787   */\n      0x00\n        /* \"#utility.yul\":4805:4872   */\n      tag_227\n        /* \"#utility.yul\":4869:4871   */\n      0x0f\n        /* \"#utility.yul\":4864:4867   */\n      dup4\n        /* \"#utility.yul\":4805:4872   */\n      tag_146\n      jump\t// in\n    tag_227:\n        /* \"#utility.yul\":4798:4872   */\n      swap2\n      pop\n        /* \"#utility.yul\":4881:4974   */\n      tag_228\n        /* \"#utility.yul\":4970:4973   */\n      dup3\n        /* \"#utility.yul\":4881:4974   */\n      tag_158\n      jump\t// in\n    tag_228:\n        /* \"#utility.yul\":4999:5001   */\n      0x20\n        /* \"#utility.yul\":4994:4997   */\n      dup3\n        /* \"#utility.yul\":4990:5002   */\n      add\n        /* \"#utility.yul\":4983:5002   */\n      swap1\n      pop\n        /* \"#utility.yul\":4642:5008   */\n      swap2\n      swap1\n      pop\n      jump\t// out\n        /* \"#utility.yul\":5014:5433   */\n    tag_37:\n        /* \"#utility.yul\":5180:5184   */\n      0x00\n        /* \"#utility.yul\":5218:5220   */\n      0x20\n        /* \"#utility.yul\":5207:5216   */\n      dup3\n        /* \"#utility.yul\":5203:5221   */\n      add\n        /* \"#utility.yul\":5195:5221   */\n      swap1\n      pop\n        /* \"#utility.yul\":5267:5276   */\n      dup2\n        /* \"#utility.yul\":5261:5265   */\n      dup2\n        /* \"#utility.yul\":5257:5277   */\n      sub\n        /* \"#utility.yul\":5253:5254   */\n      0x00\n        /* \"#utility.yul\":5242:5251   */\n      dup4\n        /* \"#utility.yul\":5238:5255   */\n      add\n        /* \"#utility.yul\":5231:5278   */\n      mstore\n        /* \"#utility.yul\":5295:5426   */\n      tag_230\n        /* \"#utility.yul\":5421:5425   */\n      dup2\n        /* \"#utility.yul\":5295:5426   */\n      tag_159\n      jump\t// in\n    tag_230:\n        /* \"#utility.yul\":5287:5426   */\n      swap1\n      pop\n        /* \"#utility.yul\":5014:5433   */\n      swap2\n      swap1\n      pop\n      jump\t// out\n        /* \"#utility.yul\":5439:5610   */\n    tag_160:\n        /* \"#utility.yul\":5579:5602   */\n      0x417761697420616e6f7468657220706c617965722e0000000000000000000000\n        /* \"#utility.yul\":5575:5576   */\n      0x00\n        /* \"#utility.yul\":5567:5573   */\n      dup3\n        /* \"#utility.yul\":5563:5577   */\n      add\n        /* \"#utility.yul\":5556:5603   */\n      mstore\n        /* \"#utility.yul\":5439:5610   */\n      pop\n      jump\t// out\n        /* \"#utility.yul\":5616:5982   */\n    tag_161:\n        /* \"#utility.yul\":5758:5761   */\n      0x00\n        /* \"#utility.yul\":5779:5846   */\n      tag_233\n        /* \"#utility.yul\":5843:5845   */\n      0x15\n        /* \"#utility.yul\":5838:5841   */\n      dup4\n        /* \"#utility.yul\":5779:5846   */\n      tag_146\n      jump\t// in\n    tag_233:\n        /* \"#utility.yul\":5772:5846   */\n      swap2\n      pop\n        /* \"#utility.yul\":5855:5948   */\n      tag_234\n        /* \"#utility.yul\":5944:5947   */\n      dup3\n        /* \"#utility.yul\":5855:5948   */\n      tag_160\n      jump\t// in\n    tag_234:\n        /* \"#utility.yul\":5973:5975   */\n      0x20\n        /* \"#utility.yul\":5968:5971   */\n      dup3\n        /* \"#utility.yul\":5964:5976   */\n      add\n        /* \"#utility.yul\":5957:5976   */\n      swap1\n      pop\n        /* \"#utility.yul\":5616:5982   */\n      swap2\n      swap1\n      pop\n      jump\t// out\n        /* \"#utility.yul\":5988:6407   */\n    tag_40:\n        /* \"#utility.yul\":6154:6158   */\n      0x00\n        /* \"#utility.yul\":6192:6194   */\n      0x20\n        /* \"#utility.yul\":6181:6190   */\n      dup3\n        /* \"#utility.yul\":6177:6195   */\n      add\n        /* \"#utility.yul\":6169:6195   */\n      swap1\n      pop\n        /* \"#utility.yul\":6241:6250   */\n      dup2\n        /* \"#utility.yul\":6235:6239   */\n      dup2\n        /* \"#utility.yul\":6231:6251   */\n      sub\n        /* \"#utility.yul\":6227:6228   */\n      0x00\n        /* \"#utility.yul\":6216:6225   */\n      dup4\n        /* \"#utility.yul\":6212:6229   */\n      add\n        /* \"#utility.yul\":6205:6252   */\n      mstore\n        /* \"#utility.yul\":6269:6400   */\n      tag_236\n        /* \"#utility.yul\":6395:6399   */\n      dup2\n        /* \"#utility.yul\":6269:6400   */\n      tag_161\n      jump\t// in\n    tag_236:\n        /* \"#utility.yul\":6261:6400   */\n      swap1\n      pop\n        /* \"#utility.yul\":5988:6407   */\n      swap2\n      swap1\n      pop\n      jump\t// out\n        /* \"#utility.yul\":6413:6575   */\n    tag_162:\n        /* \"#utility.yul\":6553:6567   */\n      0x496e76616c6964206269642e0000000000000000000000000000000000000000\n        /* \"#utility.yul\":6549:6550   */\n      0x00\n        /* \"#utility.yul\":6541:6547   */\n      dup3\n        /* \"#utility.yul\":6537:6551   */\n      add\n        /* \"#utility.yul\":6530:6568   */\n      mstore\n        /* \"#utility.yul\":6413:6575   */\n      pop\n      jump\t// out\n        /* \"#utility.yul\":6581:6947   */\n    tag_163:\n        /* \"#utility.yul\":6723:6726   */\n      0x00\n        /* \"#utility.yul\":6744:6811   */\n      tag_239\n        /* \"#utility.yul\":6808:6810   */\n      0x0c\n        /* \"#utility.yul\":6803:6806   */\n      dup4\n        /* \"#utility.yul\":6744:6811   */\n      tag_146\n      jump\t// in\n    tag_239:\n        /* \"#utility.yul\":6737:6811   */\n      swap2\n      pop\n        /* \"#utility.yul\":6820:6913   */\n      tag_240\n        /* \"#utility.yul\":6909:6912   */\n      dup3\n        /* \"#utility.yul\":6820:6913   */\n      tag_162\n      jump\t// in\n    tag_240:\n        /* \"#utility.yul\":6938:6940   */\n      0x20\n        /* \"#utility.yul\":6933:6936   */\n      dup3\n        /* \"#utility.yul\":6929:6941   */\n      add\n        /* \"#utility.yul\":6922:6941   */\n      swap1\n      pop\n        /* \"#utility.yul\":6581:6947   */\n      swap2\n      swap1\n      pop\n      jump\t// out\n        /* \"#utility.yul\":6953:7372   */\n    tag_43:\n        /* \"#utility.yul\":7119:7123   */\n      0x00\n        /* \"#utility.yul\":7157:7159   */\n      0x20\n        /* \"#utility.yul\":7146:7155   */\n      dup3\n        /* \"#utility.yul\":7142:7160   */\n      add\n        /* \"#utility.yul\":7134:7160   */\n      swap1\n      pop\n        /* \"#utility.yul\":7206:7215   */\n      dup2\n        /* \"#utility.yul\":7200:7204   */\n      dup2\n        /* \"#utility.yul\":7196:7216   */\n      sub\n        /* \"#utility.yul\":7192:7193   */\n      0x00\n        /* \"#utility.yul\":7181:7190   */\n      dup4\n        /* \"#utility.yul\":7177:7194   */\n      add\n        /* \"#utility.yul\":7170:7217   */\n      mstore\n        /* \"#utility.yul\":7234:7365   */\n      tag_242\n        /* \"#utility.yul\":7360:7364   */\n      dup2\n        /* \"#utility.yul\":7234:7365   */\n      tag_163\n      jump\t// in\n    tag_242:\n        /* \"#utility.yul\":7226:7365   */\n      swap1\n      pop\n        /* \"#utility.yul\":6953:7372   */\n      swap2\n      swap1\n      pop\n      jump\t// out\n        /* \"#utility.yul\":7378:7558   */\n    tag_164:\n        /* \"#utility.yul\":7426:7503   */\n      0x4e487b7100000000000000000000000000000000000000000000000000000000\n        /* \"#utility.yul\":7423:7424   */\n      0x00\n        /* \"#utility.yul\":7416:7504   */\n      mstore\n        /* \"#utility.yul\":7523:7527   */\n      0x41\n        /* \"#utility.yul\":7520:7521   */\n      0x04\n        /* \"#utility.yul\":7513:7528   */\n      mstore\n        /* \"#utility.yul\":7547:7551   */\n      0x24\n        /* \"#utility.yul\":7544:7545   */\n      0x00\n        /* \"#utility.yul\":7537:7552   */\n      revert\n        /* \"#utility.yul\":7564:7705   */\n    tag_165:\n        /* \"#utility.yul\":7613:7617   */\n      0x00\n        /* \"#utility.yul\":7636:7639   */\n      dup2\n        /* \"#utility.yul\":7628:7639   */\n      swap1\n      pop\n        /* \"#utility.yul\":7659:7662   */\n      dup2\n        /* \"#utility.yul\":7656:7657   */\n      0x00\n        /* \"#utility.yul\":7649:7663   */\n      mstore\n        /* \"#utility.yul\":7693:7697   */\n      0x20\n        /* \"#utility.yul\":7690:7691   */\n      0x00\n        /* \"#utility.yul\":7680:7698   */\n      keccak256\n        /* \"#utility.yul\":7672:7698   */\n      swap1\n      pop\n        /* \"#utility.yul\":7564:7705   */\n      swap2\n      swap1\n      pop\n      jump\t// out\n        /* \"#utility.yul\":7711:7804   */\n    tag_166:\n        /* \"#utility.yul\":7748:7754   */\n      0x00\n        /* \"#utility.yul\":7795:7797   */\n      0x20\n        /* \"#utility.yul\":7790:7792   */\n      0x1f\n        /* \"#utility.yul\":7783:7788   */\n      dup4\n        /* \"#utility.yul\":7779:7793   */\n      add\n        /* \"#utility.yul\":7775:7798   */\n      div\n        /* \"#utility.yul\":7765:7798   */\n      swap1\n      pop\n        /* \"#utility.yul\":7711:7804   */\n      swap2\n      swap1\n      pop\n      jump\t// out\n        /* \"#utility.yul\":7810:7917   */\n    tag_167:\n        /* \"#utility.yul\":7854:7862   */\n      0x00\n        /* \"#utility.yul\":7904:7909   */\n      dup3\n        /* \"#utility.yul\":7898:7902   */\n      dup3\n        /* \"#utility.yul\":7894:7910   */\n      shl\n        /* \"#utility.yul\":7873:7910   */\n      swap1\n      pop\n        /* \"#utility.yul\":7810:7917   */\n      swap3\n      swap2\n      pop\n      pop\n      jump\t// out\n        /* \"#utility.yul\":7923:8316   */\n    tag_168:\n        /* \"#utility.yul\":7992:7998   */\n      0x00\n        /* \"#utility.yul\":8042:8043   */\n      0x08\n        /* \"#utility.yul\":8030:8040   */\n      dup4\n        /* \"#utility.yul\":8026:8044   */\n      mul\n        /* \"#utility.yul\":8065:8162   */\n      tag_248\n        /* \"#utility.yul\":8095:8161   */\n      0xffffffffffffffffffffffffffffffffffffffffffffffffffffffffffffffff\n        /* \"#utility.yul\":8084:8093   */\n      dup3\n        /* \"#utility.yul\":8065:8162   */\n      tag_167\n      jump\t// in\n    tag_248:\n        /* \"#utility.yul\":8183:8222   */\n      tag_249\n        /* \"#utility.yul\":8213:8221   */\n      dup7\n        /* \"#utility.yul\":8202:8211   */\n      dup4\n        /* \"#utility.yul\":8183:8222   */\n      tag_167\n      jump\t// in\n    tag_249:\n        /* \"#utility.yul\":8171:8222   */\n      swap6\n      pop\n        /* \"#utility.yul\":8255:8259   */\n      dup1\n        /* \"#utility.yul\":8251:8260   */\n      not\n        /* \"#utility.yul\":8244:8249   */\n      dup5\n        /* \"#utility.yul\":8240:8261   */\n      and\n        /* \"#utility.yul\":8231:8261   */\n      swap4\n      pop\n        /* \"#utility.yul\":8304:8308   */\n      dup1\n        /* \"#utility.yul\":8294:8302   */\n      dup7\n        /* \"#utility.yul\":8290:8309   */\n      and\n        /* \"#utility.yul\":8283:8288   */\n      dup5\n        /* \"#utility.yul\":8280:8310   */\n      or\n        /* \"#utility.yul\":8270:8310   */\n      swap3\n      pop\n        /* \"#utility.yul\":7999:8316   */\n      pop\n      pop\n        /* \"#utility.yul\":7923:8316   */\n      swap4\n      swap3\n      pop\n      pop\n      pop\n      jump\t// out\n        /* \"#utility.yul\":8322:8382   */\n    tag_169:\n        /* \"#utility.yul\":8350:8353   */\n      0x00\n        /* \"#utility.yul\":8371:8376   */\n      dup2\n        /* \"#utility.yul\":8364:8376   */\n      swap1\n      pop\n        /* \"#utility.yul\":8322:8382   */\n      swap2\n      swap1\n      pop\n      jump\t// out\n        /* \"#utility.yul\":8388:8530   */\n    tag_170:\n        /* \"#utility.yul\":8438:8447   */\n      0x00\n        /* \"#utility.yul\":8471:8524   */\n      tag_252\n        /* \"#utility.yul\":8489:8523   */\n      tag_253\n        /* \"#utility.yul\":8498:8522   */\n      tag_254\n        /* \"#utility.yul\":8516:8521   */\n      dup5\n        /* \"#utility.yul\":8498:8522   */\n      tag_143\n      jump\t// in\n    tag_254:\n        /* \"#utility.yul\":8489:8523   */\n      tag_169\n      jump\t// in\n    tag_253:\n        /* \"#utility.yul\":8471:8524   */\n      tag_143\n      jump\t// in\n    tag_252:\n        /* \"#utility.yul\":8458:8524   */\n      swap1\n      pop\n        /* \"#utility.yul\":8388:8530   */\n      swap2\n      swap1\n      pop\n      jump\t// out\n        /* \"#utility.yul\":8536:8611   */\n    tag_171:\n        /* \"#utility.yul\":8579:8582   */\n      0x00\n        /* \"#utility.yul\":8600:8605   */\n      dup2\n        /* \"#utility.yul\":8593:8605   */\n      swap1\n      pop\n        /* \"#utility.yul\":8536:8611   */\n      swap2\n      swap1\n      pop\n      jump\t// out\n        /* \"#utility.yul\":8617:8886   */\n    tag_172:\n        /* \"#utility.yul\":8727:8766   */\n      tag_257\n        /* \"#utility.yul\":8758:8765   */\n      dup4\n        /* \"#utility.yul\":8727:8766   */\n      tag_170\n      jump\t// in\n    tag_257:\n        /* \"#utility.yul\":8788:8879   */\n      tag_258\n        /* \"#utility.yul\":8837:8878   */\n      tag_259\n        /* \"#utility.yul\":8861:8877   */\n      dup3\n        /* \"#utility.yul\":8837:8878   */\n      tag_171\n      jump\t// in\n    tag_259:\n        /* \"#utility.yul\":8829:8835   */\n      dup5\n        /* \"#utility.yul\":8822:8826   */\n      dup5\n        /* \"#utility.yul\":8816:8827   */\n      sload\n        /* \"#utility.yul\":8788:8879   */\n      tag_168\n      jump\t// in\n    tag_258:\n        /* \"#utility.yul\":8782:8786   */\n      dup3\n        /* \"#utility.yul\":8775:8880   */\n      sstore\n        /* \"#utility.yul\":8693:8886   */\n      pop\n        /* \"#utility.yul\":8617:8886   */\n      pop\n      pop\n      pop\n      jump\t// out\n        /* \"#utility.yul\":8892:8965   */\n    tag_173:\n        /* \"#utility.yul\":8937:8940   */\n      0x00\n        /* \"#utility.yul\":8892:8965   */\n      swap1\n      jump\t// out\n        /* \"#utility.yul\":8971:9160   */\n    tag_174:\n        /* \"#utility.yul\":9048:9080   */\n      tag_262\n      tag_173\n      jump\t// in\n    tag_262:\n        /* \"#utility.yul\":9089:9154   */\n      tag_263\n        /* \"#utility.yul\":9147:9153   */\n      dup2\n        /* \"#utility.yul\":9139:9145   */\n      dup5\n        /* \"#utility.yul\":9133:9137   */\n      dup5\n        /* \"#utility.yul\":9089:9154   */\n      tag_172\n      jump\t// in\n    tag_263:\n        /* \"#utility.yul\":9024:9160   */\n      pop\n        /* \"#utility.yul\":8971:9160   */\n      pop\n      pop\n      jump\t// out\n        /* \"#utility.yul\":9166:9352   */\n    tag_175:\n        /* \"#utility.yul\":9226:9346   */\n    tag_265:\n        /* \"#utility.yul\":9243:9246   */\n      dup2\n        /* \"#utility.yul\":9236:9241   */\n      dup2\n        /* \"#utility.yul\":9233:9247   */\n      lt\n        /* \"#utility.yul\":9226:9346   */\n      iszero\n      tag_267\n      jumpi\n        /* \"#utility.yul\":9297:9336   */\n      tag_268\n        /* \"#utility.yul\":9334:9335   */\n      0x00\n        /* \"#utility.yul\":9327:9332   */\n      dup3\n        /* \"#utility.yul\":9297:9336   */\n      tag_174\n      jump\t// in\n    tag_268:\n        /* \"#utility.yul\":9270:9271   */\n      0x01\n        /* \"#utility.yul\":9263:9268   */\n      dup2\n        /* \"#utility.yul\":9259:9272   */\n      add\n        /* \"#utility.yul\":9250:9272   */\n      swap1\n      pop\n        /* \"#utility.yul\":9226:9346   */\n      jump(tag_265)\n    tag_267:\n        /* \"#utility.yul\":9166:9352   */\n      pop\n      pop\n      jump\t// out\n        /* \"#utility.yul\":9358:9901   */\n    tag_176:\n        /* \"#utility.yul\":9459:9461   */\n      0x1f\n        /* \"#utility.yul\":9454:9457   */\n      dup3\n        /* \"#utility.yul\":9451:9462   */\n      gt\n        /* \"#utility.yul\":9448:9894   */\n      iszero\n      tag_270\n      jumpi\n        /* \"#utility.yul\":9493:9531   */\n      tag_271\n        /* \"#utility.yul\":9525:9530   */\n      dup2\n        /* \"#utility.yul\":9493:9531   */\n      tag_165\n      jump\t// in\n    tag_271:\n        /* \"#utility.yul\":9577:9606   */\n      tag_272\n        /* \"#utility.yul\":9595:9605   */\n      dup5\n        /* \"#utility.yul\":9577:9606   */\n      tag_166\n      jump\t// in\n    tag_272:\n        /* \"#utility.yul\":9567:9575   */\n      dup2\n        /* \"#utility.yul\":9563:9607   */\n      add\n        /* \"#utility.yul\":9760:9762   */\n      0x20\n        /* \"#utility.yul\":9748:9758   */\n      dup6\n        /* \"#utility.yul\":9745:9763   */\n      lt\n        /* \"#utility.yul\":9742:9791   */\n      iszero\n      tag_273\n      jumpi\n        /* \"#utility.yul\":9781:9789   */\n      dup2\n        /* \"#utility.yul\":9766:9789   */\n      swap1\n      pop\n        /* \"#utility.yul\":9742:9791   */\n    tag_273:\n        /* \"#utility.yul\":9804:9884   */\n      tag_274\n        /* \"#utility.yul\":9860:9882   */\n      tag_275\n        /* \"#utility.yul\":9878:9881   */\n      dup6\n        /* \"#utility.yul\":9860:9882   */\n      tag_166\n      jump\t// in\n    tag_275:\n        /* \"#utility.yul\":9850:9858   */\n      dup4\n        /* \"#utility.yul\":9846:9883   */\n      add\n        /* \"#utility.yul\":9833:9844   */\n      dup3\n        /* \"#utility.yul\":9804:9884   */\n      tag_175\n      jump\t// in\n    tag_274:\n        /* \"#utility.yul\":9463:9894   */\n      pop\n      pop\n        /* \"#utility.yul\":9448:9894   */\n    tag_270:\n        /* \"#utility.yul\":9358:9901   */\n      pop\n      pop\n      pop\n      jump\t// out\n        /* \"#utility.yul\":9907:10024   */\n    tag_177:\n        /* \"#utility.yul\":9961:9969   */\n      0x00\n        /* \"#utility.yul\":10011:10016   */\n      dup3\n        /* \"#utility.yul\":10005:10009   */\n      dup3\n        /* \"#utility.yul\":10001:10017   */\n      shr\n        /* \"#utility.yul\":9980:10017   */\n      swap1\n      pop\n        /* \"#utility.yul\":9907:10024   */\n      swap3\n      swap2\n      pop\n      pop\n      jump\t// out\n        /* \"#utility.yul\":10030:10199   */\n    tag_178:\n        /* \"#utility.yul\":10074:10080   */\n      0x00\n        /* \"#utility.yul\":10107:10158   */\n      tag_278\n        /* \"#utility.yul\":10155:10156   */\n      0x00\n        /* \"#utility.yul\":10151:10157   */\n      not\n        /* \"#utility.yul\":10143:10148   */\n      dup5\n        /* \"#utility.yul\":10140:10141   */\n      0x08\n        /* \"#utility.yul\":10136:10149   */\n      mul\n        /* \"#utility.yul\":10107:10158   */\n      tag_177\n      jump\t// in\n    tag_278:\n        /* \"#utility.yul\":10103:10159   */\n      not\n        /* \"#utility.yul\":10188:10192   */\n      dup1\n        /* \"#utility.yul\":10182:10186   */\n      dup4\n        /* \"#utility.yul\":10178:10193   */\n      and\n        /* \"#utility.yul\":10168:10193   */\n      swap2\n      pop\n        /* \"#utility.yul\":10081:10199   */\n      pop\n        /* \"#utility.yul\":10030:10199   */\n      swap3\n      swap2\n      pop\n      pop\n      jump\t// out\n        /* \"#utility.yul\":10204:10499   */\n    tag_179:\n        /* \"#utility.yul\":10280:10284   */\n      0x00\n        /* \"#utility.yul\":10426:10455   */\n      tag_280\n        /* \"#utility.yul\":10451:10454   */\n      dup4\n        /* \"#utility.yul\":10445:10449   */\n      dup4\n        /* \"#utility.yul\":10426:10455   */\n      tag_178\n      jump\t// in\n    tag_280:\n        /* \"#utility.yul\":10418:10455   */\n      swap2\n      pop\n        /* \"#utility.yul\":10488:10491   */\n      dup3\n        /* \"#utility.yul\":10485:10486   */\n      0x02\n        /* \"#utility.yul\":10481:10492   */\n      mul\n        /* \"#utility.yul\":10475:10479   */\n      dup3\n        /* \"#utility.yul\":10472:10493   */\n      or\n        /* \"#utility.yul\":10464:10493   */\n      swap1\n      pop\n        /* \"#utility.yul\":10204:10499   */\n      swap3\n      swap2\n      pop\n      pop\n      jump\t// out\n        /* \"#utility.yul\":10504:11899   */\n    tag_52:\n        /* \"#utility.yul\":10621:10658   */\n      tag_282\n        /* \"#utility.yul\":10654:10657   */\n      dup3\n        /* \"#utility.yul\":10621:10658   */\n      tag_145\n      jump\t// in\n    tag_282:\n        /* \"#utility.yul\":10723:10741   */\n      0xffffffffffffffff\n        /* \"#utility.yul\":10715:10721   */\n      dup2\n        /* \"#utility.yul\":10712:10742   */\n      gt\n        /* \"#utility.yul\":10709:10765   */\n      iszero\n      tag_283\n      jumpi\n        /* \"#utility.yul\":10745:10763   */\n      tag_284\n      tag_164\n      jump\t// in\n    tag_284:\n        /* \"#utility.yul\":10709:10765   */\n    tag_283:\n        /* \"#utility.yul\":10789:10827   */\n      tag_285\n        /* \"#utility.yul\":10821:10825   */\n      dup3\n        /* \"#utility.yul\":10815:10826   */\n      sload\n        /* \"#utility.yul\":10789:10827   */\n      tag_24\n      jump\t// in\n    tag_285:\n        /* \"#utility.yul\":10874:10941   */\n      tag_286\n        /* \"#utility.yul\":10934:10940   */\n      dup3\n        /* \"#utility.yul\":10926:10932   */\n      dup3\n        /* \"#utility.yul\":10920:10924   */\n      dup6\n        /* \"#utility.yul\":10874:10941   */\n      tag_176\n      jump\t// in\n    tag_286:\n        /* \"#utility.yul\":10968:10969   */\n      0x00\n        /* \"#utility.yul\":10992:10996   */\n      0x20\n        /* \"#utility.yul\":10979:10996   */\n      swap1\n      pop\n        /* \"#utility.yul\":11024:11026   */\n      0x1f\n        /* \"#utility.yul\":11016:11022   */\n      dup4\n        /* \"#utility.yul\":11013:11027   */\n      gt\n        /* \"#utility.yul\":11041:11042   */\n      0x01\n        /* \"#utility.yul\":11036:11654   */\n      dup2\n      eq\n      tag_288\n      jumpi\n        /* \"#utility.yul\":11698:11699   */\n      0x00\n        /* \"#utility.yul\":11715:11721   */\n      dup5\n        /* \"#utility.yul\":11712:11789   */\n      iszero\n      tag_289\n      jumpi\n        /* \"#utility.yul\":11764:11773   */\n      dup3\n        /* \"#utility.yul\":11759:11762   */\n      dup8\n        /* \"#utility.yul\":11755:11774   */\n      add\n        /* \"#utility.yul\":11749:11775   */\n      mload\n        /* \"#utility.yul\":11740:11775   */\n      swap1\n      pop\n        /* \"#utility.yul\":11712:11789   */\n    tag_289:\n        /* \"#utility.yul\":11815:11882   */\n      tag_290\n        /* \"#utility.yul\":11875:11881   */\n      dup6\n        /* \"#utility.yul\":11868:11873   */\n      dup3\n        /* \"#utility.yul\":11815:11882   */\n      tag_179\n      jump\t// in\n    tag_290:\n        /* \"#utility.yul\":11809:11813   */\n      dup7\n        /* \"#utility.yul\":11802:11883   */\n      sstore\n        /* \"#utility.yul\":11671:11893   */\n      pop\n        /* \"#utility.yul\":11006:11893   */\n      jump(tag_287)\n        /* \"#utility.yul\":11036:11654   */\n    tag_288:\n        /* \"#utility.yul\":11088:11092   */\n      0x1f\n        /* \"#utility.yul\":11084:11093   */\n      not\n        /* \"#utility.yul\":11076:11082   */\n      dup5\n        /* \"#utility.yul\":11072:11094   */\n      and\n        /* \"#utility.yul\":11122:11159   */\n      tag_291\n        /* \"#utility.yul\":11154:11158   */\n      dup7\n        /* \"#utility.yul\":11122:11159   */\n      tag_165\n      jump\t// in\n    tag_291:\n        /* \"#utility.yul\":11181:11182   */\n      0x00\n        /* \"#utility.yul\":11195:11403   */\n    tag_292:\n        /* \"#utility.yul\":11209:11216   */\n      dup3\n        /* \"#utility.yul\":11206:11207   */\n      dup2\n        /* \"#utility.yul\":11203:11217   */\n      lt\n        /* \"#utility.yul\":11195:11403   */\n      iszero\n      tag_294\n      jumpi\n        /* \"#utility.yul\":11288:11297   */\n      dup5\n        /* \"#utility.yul\":11283:11286   */\n      dup10\n        /* \"#utility.yul\":11279:11298   */\n      add\n        /* \"#utility.yul\":11273:11299   */\n      mload\n        /* \"#utility.yul\":11265:11271   */\n      dup3\n        /* \"#utility.yul\":11258:11300   */\n      sstore\n        /* \"#utility.yul\":11339:11340   */\n      0x01\n        /* \"#utility.yul\":11331:11337   */\n      dup3\n        /* \"#utility.yul\":11327:11341   */\n      add\n        /* \"#utility.yul\":11317:11341   */\n      swap2\n      pop\n        /* \"#utility.yul\":11386:11388   */\n      0x20\n        /* \"#utility.yul\":11375:11384   */\n      dup6\n        /* \"#utility.yul\":11371:11389   */\n      add\n        /* \"#utility.yul\":11358:11389   */\n      swap5\n      pop\n        /* \"#utility.yul\":11232:11236   */\n      0x20\n        /* \"#utility.yul\":11229:11230   */\n      dup2\n        /* \"#utility.yul\":11225:11237   */\n      add\n        /* \"#utility.yul\":11220:11237   */\n      swap1\n      pop\n        /* \"#utility.yul\":11195:11403   */\n      jump(tag_292)\n    tag_294:\n        /* \"#utility.yul\":11431:11437   */\n      dup7\n        /* \"#utility.yul\":11422:11429   */\n      dup4\n        /* \"#utility.yul\":11419:11438   */\n      lt\n        /* \"#utility.yul\":11416:11595   */\n      iszero\n      tag_295\n      jumpi\n        /* \"#utility.yul\":11489:11498   */\n      dup5\n        /* \"#utility.yul\":11484:11487   */\n      dup10\n        /* \"#utility.yul\":11480:11499   */\n      add\n        /* \"#utility.yul\":11474:11500   */\n      mload\n        /* \"#utility.yul\":11532:11580   */\n      tag_296\n        /* \"#utility.yul\":11574:11578   */\n      0x1f\n        /* \"#utility.yul\":11566:11572   */\n      dup10\n        /* \"#utility.yul\":11562:11579   */\n      and\n        /* \"#utility.yul\":11551:11560   */\n      dup3\n        /* \"#utility.yul\":11532:11580   */\n      tag_178\n      jump\t// in\n    tag_296:\n        /* \"#utility.yul\":11524:11530   */\n      dup4\n        /* \"#utility.yul\":11517:11581   */\n      sstore\n        /* \"#utility.yul\":11439:11595   */\n      pop\n        /* \"#utility.yul\":11416:11595   */\n    tag_295:\n        /* \"#utility.yul\":11641:11642   */\n      0x01\n        /* \"#utility.yul\":11637:11638   */\n      0x02\n        /* \"#utility.yul\":11629:11635   */\n      dup9\n        /* \"#utility.yul\":11625:11639   */\n      mul\n        /* \"#utility.yul\":11621:11643   */\n      add\n        /* \"#utility.yul\":11615:11619   */\n      dup9\n        /* \"#utility.yul\":11608:11644   */\n      sstore\n        /* \"#utility.yul\":11043:11654   */\n      pop\n      pop\n      pop\n        /* \"#utility.yul\":11006:11893   */\n    tag_287:\n      pop\n        /* \"#utility.yul\":10596:11899   */\n      pop\n      pop\n      pop\n        /* \"#utility.yul\":10504:11899   */\n      pop\n      pop\n      jump\t// out\n        /* \"#utility.yul\":11905:12085   */\n    tag_180:\n        /* \"#utility.yul\":11953:12030   */\n      0x4e487b7100000000000000000000000000000000000000000000000000000000\n        /* \"#utility.yul\":11950:11951   */\n      0x00\n        /* \"#utility.yul\":11943:12031   */\n      mstore\n        /* \"#utility.yul\":12050:12054   */\n      0x12\n        /* \"#utility.yul\":12047:12048   */\n      0x04\n        /* \"#utility.yul\":12040:12055   */\n      mstore\n        /* \"#utility.yul\":12074:12078   */\n      0x24\n        /* \"#utility.yul\":12071:12072   */\n      0x00\n        /* \"#utility.yul\":12064:12079   */\n      revert\n        /* \"#utility.yul\":12091:12271   */\n    tag_181:\n        /* \"#utility.yul\":12139:12216   */\n      0x4e487b7100000000000000000000000000000000000000000000000000000000\n        /* \"#utility.yul\":12136:12137   */\n      0x00\n        /* \"#utility.yul\":12129:12217   */\n      mstore\n        /* \"#utility.yul\":12236:12240   */\n      0x11\n        /* \"#utility.yul\":12233:12234   */\n      0x04\n        /* \"#utility.yul\":12226:12241   */\n      mstore\n        /* \"#utility.yul\":12260:12264   */\n      0x24\n        /* \"#utility.yul\":12257:12258   */\n      0x00\n        /* \"#utility.yul\":12250:12265   */\n      revert\n        /* \"#utility.yul\":12277:12462   */\n    tag_131:\n        /* \"#utility.yul\":12317:12318   */\n      0x00\n        /* \"#utility.yul\":12334:12354   */\n      tag_300\n        /* \"#utility.yul\":12352:12353   */\n      dup3\n        /* \"#utility.yul\":12334:12354   */\n      tag_143\n      jump\t// in\n    tag_300:\n        /* \"#utility.yul\":12329:12354   */\n      swap2\n      pop\n        /* \"#utility.yul\":12368:12388   */\n      tag_301\n        /* \"#utility.yul\":12386:12387   */\n      dup4\n        /* \"#utility.yul\":12368:12388   */\n      tag_143\n      jump\t// in\n    tag_301:\n        /* \"#utility.yul\":12363:12388   */\n      swap3\n      pop\n        /* \"#utility.yul\":12407:12408   */\n      dup3\n        /* \"#utility.yul\":12397:12432   */\n      tag_302\n      jumpi\n        /* \"#utility.yul\":12412:12430   */\n      tag_303\n      tag_180\n      jump\t// in\n    tag_303:\n        /* \"#utility.yul\":12397:12432   */\n    tag_302:\n        /* \"#utility.yul\":12454:12455   */\n      dup3\n        /* \"#utility.yul\":12451:12452   */\n      dup3\n        /* \"#utility.yul\":12447:12456   */\n      div\n        /* \"#utility.yul\":12442:12456   */\n      swap1\n      pop\n        /* \"#utility.yul\":12277:12462   */\n      swap3\n      swap2\n      pop\n      pop\n      jump\t// out\n        /* \"#utility.yul\":12468:12878   */\n    tag_133:\n        /* \"#utility.yul\":12508:12515   */\n      0x00\n        /* \"#utility.yul\":12531:12551   */\n      tag_305\n        /* \"#utility.yul\":12549:12550   */\n      dup3\n        /* \"#utility.yul\":12531:12551   */\n      tag_143\n      jump\t// in\n    tag_305:\n        /* \"#utility.yul\":12526:12551   */\n      swap2\n      pop\n        /* \"#utility.yul\":12565:12585   */\n      tag_306\n        /* \"#utility.yul\":12583:12584   */\n      dup4\n        /* \"#utility.yul\":12565:12585   */\n      tag_143\n      jump\t// in\n    tag_306:\n        /* \"#utility.yul\":12560:12585   */\n      swap3\n      pop\n        /* \"#utility.yul\":12620:12621   */\n      dup3\n        /* \"#utility.yul\":12617:12618   */\n      dup3\n        /* \"#utility.yul\":12613:12622   */\n      mul\n        /* \"#utility.yul\":12642:12672   */\n      tag_307\n        /* \"#utility.yul\":12660:12671   */\n      dup2\n        /* \"#utility.yul\":12642:12672   */\n      tag_143\n      jump\t// in\n    tag_307:\n        /* \"#utility.yul\":12631:12672   */\n      swap2\n      pop\n        /* \"#utility.yul\":12821:12822   */\n      dup3\n        /* \"#utility.yul\":12812:12819   */\n      dup3\n        /* \"#utility.yul\":12808:12823   */\n      div\n        /* \"#utility.yul\":12805:12806   */\n      dup5\n        /* \"#utility.yul\":12802:12824   */\n      eq\n        /* \"#utility.yul\":12782:12783   */\n      dup4\n        /* \"#utility.yul\":12775:12784   */\n      iszero\n        /* \"#utility.yul\":12755:12838   */\n      or\n        /* \"#utility.yul\":12732:12871   */\n      tag_308\n      jumpi\n        /* \"#utility.yul\":12851:12869   */\n      tag_309\n      tag_181\n      jump\t// in\n    tag_309:\n        /* \"#utility.yul\":12732:12871   */\n    tag_308:\n        /* \"#utility.yul\":12516:12878   */\n      pop\n        /* \"#utility.yul\":12468:12878   */\n      swap3\n      swap2\n      pop\n      pop\n      jump\t// out\n    stop\n    data_578a9428a54c800af9c02139d74432994ad47bb29704d23f809566a331855d2f 526f636b20627265616b732053636973736f72732e20506c61796572203220574f4e21\n    data_891c3d6e5adde30875c07acfcca8d06d5be6cf84c2f0053d1a896b105617b25d 506c6179657220312063686f736520686973206f7074696f6e2e2057616974696e6720666f7220706c6179657220322e\n    data_9056477a8043385bd4eedf29b3b65eaa4f879760f1d1dac4e0b1e2f1c5a5e34c 526f636b20627265616b732053636973736f72732e20506c61796572203120574f4e21\n    data_91015f70aacd548b1cf82057021b45f79e16ba2ae54c369de1244ab075c90b63 53636973736f727320637574732050617065722e20506c61796572203120574f4e21\n    data_933bdbc870e421c751aaa16e694cd13fd9fe7932556621cc4aca333dcc976580 53636973736f727320637574732050617065722e20506c61796572203220574f4e21\n\n    auxdata: 0xa2646970667358221220ac29bcb8ab9d467447e8e7a5f06169df4d488e012b74646b0704f30d6435fdc564736f6c63430008120033\n}\n",
				"bytecode": {
					"linkReferences": {},
					"object": "60a060405260008060006101000a81548160ff021916908360038111156200002c576200002b620000db565b5b021790555033600060016101000a81548173ffffffffffffffffffffffffffffffffffffffff021916908373ffffffffffffffffffffffffffffffffffffffff160217905550604051806020016040528060008152506001908162000092919062000384565b50348015620000a057600080fd5b503373ffffffffffffffffffffffffffffffffffffffff1660808173ffffffffffffffffffffffffffffffffffffffff16815250506200046b565b7f4e487b7100000000000000000000000000000000000000000000000000000000600052602160045260246000fd5b600081519050919050565b7f4e487b7100000000000000000000000000000000000000000000000000000000600052604160045260246000fd5b7f4e487b7100000000000000000000000000000000000000000000000000000000600052602260045260246000fd5b600060028204905060018216806200018c57607f821691505b602082108103620001a257620001a162000144565b5b50919050565b60008190508160005260206000209050919050565b60006020601f8301049050919050565b600082821b905092915050565b6000600883026200020c7fffffffffffffffffffffffffffffffffffffffffffffffffffffffffffffffff82620001cd565b620002188683620001cd565b95508019841693508086168417925050509392505050565b6000819050919050565b6000819050919050565b6000620002656200025f620002598462000230565b6200023a565b62000230565b9050919050565b6000819050919050565b620002818362000244565b6200029962000290826200026c565b848454620001da565b825550505050565b600090565b620002b0620002a1565b620002bd81848462000276565b505050565b5b81811015620002e557620002d9600082620002a6565b600181019050620002c3565b5050565b601f8211156200033457620002fe81620001a8565b6200030984620001bd565b8101602085101562000319578190505b620003316200032885620001bd565b830182620002c2565b50505b505050565b600082821c905092915050565b6000620003596000198460080262000339565b1980831691505092915050565b600062000374838362000346565b9150826002028217905092915050565b6200038f826200010a565b67ffffffffffffffff811115620003ab57620003aa62000115565b5b620003b7825462000173565b620003c4828285620002e9565b600060209050601f831160018114620003fc5760008415620003e7578287015190505b620003f3858262000366565b86555062000463565b601f1984166200040c86620001a8565b60005b8281101562000436578489015182556001820191506020850194506020810190506200040f565b8683101562000456578489015162000452601f89168262000346565b8355505b6001600288020188555050505b505050505050565b6080516112026200048d6000396000818160c6015261086701526112026000f3fe6080604052600436106100345760003560e01c806312065fe014610039578063200d2ed21461006457806353a04b051461008f575b600080fd5b34801561004557600080fd5b5061004e6100ab565b60405161005b9190610a0b565b60405180910390f35b34801561007057600080fd5b50610079610141565b6040516100869190610ab6565b60405180910390f35b6100a960048036038101906100a49190610b02565b6101cf565b005b60003373ffffffffffffffffffffffffffffffffffffffff167f000000000000000000000000000000000000000000000000000000000000000073ffffffffffffffffffffffffffffffffffffffff161461013b576040517f08c379a000000000000000000000000000000000000000000000000000000000815260040161013290610ba1565b60405180910390fd5b47905090565b6001805461014e90610bf0565b80601f016020809104026020016040519081016040528092919081815260200182805461017a90610bf0565b80156101c75780601f1061019c576101008083540402835291602001916101c7565b820191906000526020600020905b8154815290600101906020018083116101aa57829003601f168201915b505050505081565b600060038111156101e3576101e2610c21565b5b8160038111156101f6576101f5610c21565b5b03610236576040517f08c379a000000000000000000000000000000000000000000000000000000000815260040161022d90610c9c565b60405180910390fd5b3373ffffffffffffffffffffffffffffffffffffffff16600060019054906101000a900473ffffffffffffffffffffffffffffffffffffffff1673ffffffffffffffffffffffffffffffffffffffff16036102c6576040517f08c379a00000000000000000000000000000000000000000000000000000000081526004016102bd90610d08565b60405180910390fd5b662386f26fc10000341015610310576040517f08c379a000000000000000000000000000000000000000000000000000000000815260040161030790610d74565b60405180910390fd5b6000600381111561032457610323610c21565b5b60008054906101000a900460ff16600381111561034457610343610c21565b5b036103e05733600060016101000a81548173ffffffffffffffffffffffffffffffffffffffff021916908373ffffffffffffffffffffffffffffffffffffffff160217905550806000806101000a81548160ff021916908360038111156103ae576103ad610c21565b5b021790555060405180606001604052806030815260200161113660309139600190816103da9190610f6f565b50610829565b600160038111156103f4576103f3610c21565b5b60008054906101000a900460ff16600381111561041457610413610c21565b5b148015610444575060038081111561042f5761042e610c21565b5b81600381111561044257610441610c21565b5b145b156104925761048d600060019054906101000a900473ffffffffffffffffffffffffffffffffffffffff166040518060600160405280602381526020016111666023913961082c565b610828565b600260038111156104a6576104a5610c21565b5b60008054906101000a900460ff1660038111156104c6576104c5610c21565b5b1480156104f75750600160038111156104e2576104e1610c21565b5b8160038111156104f5576104f4610c21565b5b145b156105625761055d600060019054906101000a900473ffffffffffffffffffffffffffffffffffffffff166040518060400160405280601f81526020017f506170657220777261707320526f636b2e20506c61796572203120574f4e210081525061082c565b610827565b60038081111561057557610574610c21565b5b60008054906101000a900460ff16600381111561059557610594610c21565b5b1480156105c65750600260038111156105b1576105b0610c21565b5b8160038111156105c4576105c3610c21565b5b145b156106145761060f600060019054906101000a900473ffffffffffffffffffffffffffffffffffffffff166040518060600160405280602281526020016111896022913961082c565b610826565b60038081111561062757610626610c21565b5b60008054906101000a900460ff16600381111561064757610646610c21565b5b14801561067857506001600381111561066357610662610c21565b5b81600381111561067657610675610c21565b5b145b156106a45761069f336040518060600160405280602381526020016111136023913961082c565b610825565b600160038111156106b8576106b7610c21565b5b60008054906101000a900460ff1660038111156106d8576106d7610c21565b5b1480156107095750600260038111156106f4576106f3610c21565b5b81600381111561070757610706610c21565b5b145b156107525761074d336040518060400160405280601f81526020017f506170657220777261707320526f636b2e20506c61796572203220574f4e210081525061082c565b610824565b6002600381111561076657610765610c21565b5b60008054906101000a900460ff16600381111561078657610785610c21565b5b1480156107b657506003808111156107a1576107a0610c21565b5b8160038111156107b4576107b3610c21565b5b145b156107e2576107dd336040518060600160405280602281526020016111ab6022913961082c565b610823565b61082260006040518060400160405280600a81526020017f447261772067616d65210000000000000000000000000000000000000000000081525061082c565b5b5b5b5b5b5b5b50565b600073ffffffffffffffffffffffffffffffffffffffff168273ffffffffffffffffffffffffffffffffffffffff16146109735760003090507f000000000000000000000000000000000000000000000000000000000000000073ffffffffffffffffffffffffffffffffffffffff166108fc600a60648473ffffffffffffffffffffffffffffffffffffffff16316108c5919061109f565b6108cf91906110d0565b9081150290604051600060405180830381858888f193505050501580156108fa573d6000803e3d6000fd5b508273ffffffffffffffffffffffffffffffffffffffff166108fc605a60648473ffffffffffffffffffffffffffffffffffffffff163161093b919061109f565b61094591906110d0565b9081150290604051600060405180830381858888f19350505050158015610970573d6000803e3d6000fd5b50505b80600190816109829190610f6f565b5060008060016101000a81548173ffffffffffffffffffffffffffffffffffffffff021916908373ffffffffffffffffffffffffffffffffffffffff16021790555060008060006101000a81548160ff021916908360038111156109e9576109e8610c21565b5b02179055505050565b6000819050919050565b610a05816109f2565b82525050565b6000602082019050610a2060008301846109fc565b92915050565b600081519050919050565b600082825260208201905092915050565b60005b83811015610a60578082015181840152602081019050610a45565b60008484015250505050565b6000601f19601f8301169050919050565b6000610a8882610a26565b610a928185610a31565b9350610aa2818560208601610a42565b610aab81610a6c565b840191505092915050565b60006020820190508181036000830152610ad08184610a7d565b905092915050565b600080fd5b60048110610aea57600080fd5b50565b600081359050610afc81610add565b92915050565b600060208284031215610b1857610b17610ad8565b5b6000610b2684828501610aed565b91505092915050565b7f596f7520646f6e27742068617665207065726d697373696f6e7320746f20616360008201527f6365737320746869732e00000000000000000000000000000000000000000000602082015250565b6000610b8b602a83610a31565b9150610b9682610b2f565b604082019050919050565b60006020820190508181036000830152610bba81610b7e565b9050919050565b7f4e487b7100000000000000000000000000000000000000000000000000000000600052602260045260246000fd5b60006002820490506001821680610c0857607f821691505b602082108103610c1b57610c1a610bc1565b5b50919050565b7f4e487b7100000000000000000000000000000000000000000000000000000000600052602160045260246000fd5b7f496e76616c69642063686f696365210000000000000000000000000000000000600082015250565b6000610c86600f83610a31565b9150610c9182610c50565b602082019050919050565b60006020820190508181036000830152610cb581610c79565b9050919050565b7f417761697420616e6f7468657220706c617965722e0000000000000000000000600082015250565b6000610cf2601583610a31565b9150610cfd82610cbc565b602082019050919050565b60006020820190508181036000830152610d2181610ce5565b9050919050565b7f496e76616c6964206269642e0000000000000000000000000000000000000000600082015250565b6000610d5e600c83610a31565b9150610d6982610d28565b602082019050919050565b60006020820190508181036000830152610d8d81610d51565b9050919050565b7f4e487b7100000000000000000000000000000000000000000000000000000000600052604160045260246000fd5b60008190508160005260206000209050919050565b60006020601f8301049050919050565b600082821b905092915050565b600060088302610e257fffffffffffffffffffffffffffffffffffffffffffffffffffffffffffffffff82610de8565b610e2f8683610de8565b95508019841693508086168417925050509392505050565b6000819050919050565b6000610e6c610e67610e62846109f2565b610e47565b6109f2565b9050919050565b6000819050919050565b610e8683610e51565b610e9a610e9282610e73565b848454610df5565b825550505050565b600090565b610eaf610ea2565b610eba818484610e7d565b505050565b5b81811015610ede57610ed3600082610ea7565b600181019050610ec0565b5050565b601f821115610f2357610ef481610dc3565b610efd84610dd8565b81016020851015610f0c578190505b610f20610f1885610dd8565b830182610ebf565b50505b505050565b600082821c905092915050565b6000610f4660001984600802610f28565b1980831691505092915050565b6000610f5f8383610f35565b9150826002028217905092915050565b610f7882610a26565b67ffffffffffffffff811115610f9157610f90610d94565b5b610f9b8254610bf0565b610fa6828285610ee2565b600060209050601f831160018114610fd95760008415610fc7578287015190505b610fd18582610f53565b865550611039565b601f198416610fe786610dc3565b60005b8281101561100f57848901518255600182019150602085019450602081019050610fea565b8683101561102c5784890151611028601f891682610f35565b8355505b6001600288020188555050505b505050505050565b7f4e487b7100000000000000000000000000000000000000000000000000000000600052601260045260246000fd5b7f4e487b7100000000000000000000000000000000000000000000000000000000600052601160045260246000fd5b60006110aa826109f2565b91506110b5836109f2565b9250826110c5576110c4611041565b5b828204905092915050565b60006110db826109f2565b91506110e6836109f2565b92508282026110f4816109f2565b9150828204841483151761110b5761110a611070565b5b509291505056fe526f636b20627265616b732053636973736f72732e20506c61796572203220574f4e21506c6179657220312063686f736520686973206f7074696f6e2e2057616974696e6720666f7220706c6179657220322e526f636b20627265616b732053636973736f72732e20506c61796572203120574f4e2153636973736f727320637574732050617065722e20506c61796572203120574f4e2153636973736f727320637574732050617065722e20506c61796572203220574f4e21a2646970667358221220ac29bcb8ab9d467447e8e7a5f06169df4d488e012b74646b0704f30d6435fdc564736f6c63430008120033",
					"opcodes": "PUSH1 0xA0 PUSH1 0x40 MSTORE PUSH1 0x0 DUP1 PUSH1 0x0 PUSH2 0x100 EXP DUP2 SLOAD DUP2 PUSH1 0xFF MUL NOT AND SWAP1 DUP4 PUSH1 0x3 DUP2 GT ISZERO PUSH3 0x2C JUMPI PUSH3 0x2B PUSH3 0xDB JUMP JUMPDEST JUMPDEST MUL OR SWAP1 SSTORE POP CALLER PUSH1 0x0 PUSH1 0x1 PUSH2 0x100 EXP DUP2 SLOAD DUP2 PUSH20 0xFFFFFFFFFFFFFFFFFFFFFFFFFFFFFFFFFFFFFFFF MUL NOT AND SWAP1 DUP4 PUSH20 0xFFFFFFFFFFFFFFFFFFFFFFFFFFFFFFFFFFFFFFFF AND MUL OR SWAP1 SSTORE POP PUSH1 0x40 MLOAD DUP1 PUSH1 0x20 ADD PUSH1 0x40 MSTORE DUP1 PUSH1 0x0 DUP2 MSTORE POP PUSH1 0x1 SWAP1 DUP2 PUSH3 0x92 SWAP2 SWAP1 PUSH3 0x384 JUMP JUMPDEST POP CALLVALUE DUP1 ISZERO PUSH3 0xA0 JUMPI PUSH1 0x0 DUP1 REVERT JUMPDEST POP CALLER PUSH20 0xFFFFFFFFFFFFFFFFFFFFFFFFFFFFFFFFFFFFFFFF AND PUSH1 0x80 DUP2 PUSH20 0xFFFFFFFFFFFFFFFFFFFFFFFFFFFFFFFFFFFFFFFF AND DUP2 MSTORE POP POP PUSH3 0x46B JUMP JUMPDEST PUSH32 0x4E487B7100000000000000000000000000000000000000000000000000000000 PUSH1 0x0 MSTORE PUSH1 0x21 PUSH1 0x4 MSTORE PUSH1 0x24 PUSH1 0x0 REVERT JUMPDEST PUSH1 0x0 DUP2 MLOAD SWAP1 POP SWAP2 SWAP1 POP JUMP JUMPDEST PUSH32 0x4E487B7100000000000000000000000000000000000000000000000000000000 PUSH1 0x0 MSTORE PUSH1 0x41 PUSH1 0x4 MSTORE PUSH1 0x24 PUSH1 0x0 REVERT JUMPDEST PUSH32 0x4E487B7100000000000000000000000000000000000000000000000000000000 PUSH1 0x0 MSTORE PUSH1 0x22 PUSH1 0x4 MSTORE PUSH1 0x24 PUSH1 0x0 REVERT JUMPDEST PUSH1 0x0 PUSH1 0x2 DUP3 DIV SWAP1 POP PUSH1 0x1 DUP3 AND DUP1 PUSH3 0x18C JUMPI PUSH1 0x7F DUP3 AND SWAP2 POP JUMPDEST PUSH1 0x20 DUP3 LT DUP2 SUB PUSH3 0x1A2 JUMPI PUSH3 0x1A1 PUSH3 0x144 JUMP JUMPDEST JUMPDEST POP SWAP2 SWAP1 POP JUMP JUMPDEST PUSH1 0x0 DUP2 SWAP1 POP DUP2 PUSH1 0x0 MSTORE PUSH1 0x20 PUSH1 0x0 KECCAK256 SWAP1 POP SWAP2 SWAP1 POP JUMP JUMPDEST PUSH1 0x0 PUSH1 0x20 PUSH1 0x1F DUP4 ADD DIV SWAP1 POP SWAP2 SWAP1 POP JUMP JUMPDEST PUSH1 0x0 DUP3 DUP3 SHL SWAP1 POP SWAP3 SWAP2 POP POP JUMP JUMPDEST PUSH1 0x0 PUSH1 0x8 DUP4 MUL PUSH3 0x20C PUSH32 0xFFFFFFFFFFFFFFFFFFFFFFFFFFFFFFFFFFFFFFFFFFFFFFFFFFFFFFFFFFFFFFFF DUP3 PUSH3 0x1CD JUMP JUMPDEST PUSH3 0x218 DUP7 DUP4 PUSH3 0x1CD JUMP JUMPDEST SWAP6 POP DUP1 NOT DUP5 AND SWAP4 POP DUP1 DUP7 AND DUP5 OR SWAP3 POP POP POP SWAP4 SWAP3 POP POP POP JUMP JUMPDEST PUSH1 0x0 DUP2 SWAP1 POP SWAP2 SWAP1 POP JUMP JUMPDEST PUSH1 0x0 DUP2 SWAP1 POP SWAP2 SWAP1 POP JUMP JUMPDEST PUSH1 0x0 PUSH3 0x265 PUSH3 0x25F PUSH3 0x259 DUP5 PUSH3 0x230 JUMP JUMPDEST PUSH3 0x23A JUMP JUMPDEST PUSH3 0x230 JUMP JUMPDEST SWAP1 POP SWAP2 SWAP1 POP JUMP JUMPDEST PUSH1 0x0 DUP2 SWAP1 POP SWAP2 SWAP1 POP JUMP JUMPDEST PUSH3 0x281 DUP4 PUSH3 0x244 JUMP JUMPDEST PUSH3 0x299 PUSH3 0x290 DUP3 PUSH3 0x26C JUMP JUMPDEST DUP5 DUP5 SLOAD PUSH3 0x1DA JUMP JUMPDEST DUP3 SSTORE POP POP POP POP JUMP JUMPDEST PUSH1 0x0 SWAP1 JUMP JUMPDEST PUSH3 0x2B0 PUSH3 0x2A1 JUMP JUMPDEST PUSH3 0x2BD DUP2 DUP5 DUP5 PUSH3 0x276 JUMP JUMPDEST POP POP POP JUMP JUMPDEST JUMPDEST DUP2 DUP2 LT ISZERO PUSH3 0x2E5 JUMPI PUSH3 0x2D9 PUSH1 0x0 DUP3 PUSH3 0x2A6 JUMP JUMPDEST PUSH1 0x1 DUP2 ADD SWAP1 POP PUSH3 0x2C3 JUMP JUMPDEST POP POP JUMP JUMPDEST PUSH1 0x1F DUP3 GT ISZERO PUSH3 0x334 JUMPI PUSH3 0x2FE DUP2 PUSH3 0x1A8 JUMP JUMPDEST PUSH3 0x309 DUP5 PUSH3 0x1BD JUMP JUMPDEST DUP2 ADD PUSH1 0x20 DUP6 LT ISZERO PUSH3 0x319 JUMPI DUP2 SWAP1 POP JUMPDEST PUSH3 0x331 PUSH3 0x328 DUP6 PUSH3 0x1BD JUMP JUMPDEST DUP4 ADD DUP3 PUSH3 0x2C2 JUMP JUMPDEST POP POP JUMPDEST POP POP POP JUMP JUMPDEST PUSH1 0x0 DUP3 DUP3 SHR SWAP1 POP SWAP3 SWAP2 POP POP JUMP JUMPDEST PUSH1 0x0 PUSH3 0x359 PUSH1 0x0 NOT DUP5 PUSH1 0x8 MUL PUSH3 0x339 JUMP JUMPDEST NOT DUP1 DUP4 AND SWAP2 POP POP SWAP3 SWAP2 POP POP JUMP JUMPDEST PUSH1 0x0 PUSH3 0x374 DUP4 DUP4 PUSH3 0x346 JUMP JUMPDEST SWAP2 POP DUP3 PUSH1 0x2 MUL DUP3 OR SWAP1 POP SWAP3 SWAP2 POP POP JUMP JUMPDEST PUSH3 0x38F DUP3 PUSH3 0x10A JUMP JUMPDEST PUSH8 0xFFFFFFFFFFFFFFFF DUP2 GT ISZERO PUSH3 0x3AB JUMPI PUSH3 0x3AA PUSH3 0x115 JUMP JUMPDEST JUMPDEST PUSH3 0x3B7 DUP3 SLOAD PUSH3 0x173 JUMP JUMPDEST PUSH3 0x3C4 DUP3 DUP3 DUP6 PUSH3 0x2E9 JUMP JUMPDEST PUSH1 0x0 PUSH1 0x20 SWAP1 POP PUSH1 0x1F DUP4 GT PUSH1 0x1 DUP2 EQ PUSH3 0x3FC JUMPI PUSH1 0x0 DUP5 ISZERO PUSH3 0x3E7 JUMPI DUP3 DUP8 ADD MLOAD SWAP1 POP JUMPDEST PUSH3 0x3F3 DUP6 DUP3 PUSH3 0x366 JUMP JUMPDEST DUP7 SSTORE POP PUSH3 0x463 JUMP JUMPDEST PUSH1 0x1F NOT DUP5 AND PUSH3 0x40C DUP7 PUSH3 0x1A8 JUMP JUMPDEST PUSH1 0x0 JUMPDEST DUP3 DUP2 LT ISZERO PUSH3 0x436 JUMPI DUP5 DUP10 ADD MLOAD DUP3 SSTORE PUSH1 0x1 DUP3 ADD SWAP2 POP PUSH1 0x20 DUP6 ADD SWAP5 POP PUSH1 0x20 DUP2 ADD SWAP1 POP PUSH3 0x40F JUMP JUMPDEST DUP7 DUP4 LT ISZERO PUSH3 0x456 JUMPI DUP5 DUP10 ADD MLOAD PUSH3 0x452 PUSH1 0x1F DUP10 AND DUP3 PUSH3 0x346 JUMP JUMPDEST DUP4 SSTORE POP JUMPDEST PUSH1 0x1 PUSH1 0x2 DUP9 MUL ADD DUP9 SSTORE POP POP POP JUMPDEST POP POP POP POP POP POP JUMP JUMPDEST PUSH1 0x80 MLOAD PUSH2 0x1202 PUSH3 0x48D PUSH1 0x0 CODECOPY PUSH1 0x0 DUP2 DUP2 PUSH1 0xC6 ADD MSTORE PUSH2 0x867 ADD MSTORE PUSH2 0x1202 PUSH1 0x0 RETURN INVALID PUSH1 0x80 PUSH1 0x40 MSTORE PUSH1 0x4 CALLDATASIZE LT PUSH2 0x34 JUMPI PUSH1 0x0 CALLDATALOAD PUSH1 0xE0 SHR DUP1 PUSH4 0x12065FE0 EQ PUSH2 0x39 JUMPI DUP1 PUSH4 0x200D2ED2 EQ PUSH2 0x64 JUMPI DUP1 PUSH4 0x53A04B05 EQ PUSH2 0x8F JUMPI JUMPDEST PUSH1 0x0 DUP1 REVERT JUMPDEST CALLVALUE DUP1 ISZERO PUSH2 0x45 JUMPI PUSH1 0x0 DUP1 REVERT JUMPDEST POP PUSH2 0x4E PUSH2 0xAB JUMP JUMPDEST PUSH1 0x40 MLOAD PUSH2 0x5B SWAP2 SWAP1 PUSH2 0xA0B JUMP JUMPDEST PUSH1 0x40 MLOAD DUP1 SWAP2 SUB SWAP1 RETURN JUMPDEST CALLVALUE DUP1 ISZERO PUSH2 0x70 JUMPI PUSH1 0x0 DUP1 REVERT JUMPDEST POP PUSH2 0x79 PUSH2 0x141 JUMP JUMPDEST PUSH1 0x40 MLOAD PUSH2 0x86 SWAP2 SWAP1 PUSH2 0xAB6 JUMP JUMPDEST PUSH1 0x40 MLOAD DUP1 SWAP2 SUB SWAP1 RETURN JUMPDEST PUSH2 0xA9 PUSH1 0x4 DUP1 CALLDATASIZE SUB DUP2 ADD SWAP1 PUSH2 0xA4 SWAP2 SWAP1 PUSH2 0xB02 JUMP JUMPDEST PUSH2 0x1CF JUMP JUMPDEST STOP JUMPDEST PUSH1 0x0 CALLER PUSH20 0xFFFFFFFFFFFFFFFFFFFFFFFFFFFFFFFFFFFFFFFF AND PUSH32 0x0 PUSH20 0xFFFFFFFFFFFFFFFFFFFFFFFFFFFFFFFFFFFFFFFF AND EQ PUSH2 0x13B JUMPI PUSH1 0x40 MLOAD PUSH32 0x8C379A000000000000000000000000000000000000000000000000000000000 DUP2 MSTORE PUSH1 0x4 ADD PUSH2 0x132 SWAP1 PUSH2 0xBA1 JUMP JUMPDEST PUSH1 0x40 MLOAD DUP1 SWAP2 SUB SWAP1 REVERT JUMPDEST SELFBALANCE SWAP1 POP SWAP1 JUMP JUMPDEST PUSH1 0x1 DUP1 SLOAD PUSH2 0x14E SWAP1 PUSH2 0xBF0 JUMP JUMPDEST DUP1 PUSH1 0x1F ADD PUSH1 0x20 DUP1 SWAP2 DIV MUL PUSH1 0x20 ADD PUSH1 0x40 MLOAD SWAP1 DUP2 ADD PUSH1 0x40 MSTORE DUP1 SWAP3 SWAP2 SWAP1 DUP2 DUP2 MSTORE PUSH1 0x20 ADD DUP3 DUP1 SLOAD PUSH2 0x17A SWAP1 PUSH2 0xBF0 JUMP JUMPDEST DUP1 ISZERO PUSH2 0x1C7 JUMPI DUP1 PUSH1 0x1F LT PUSH2 0x19C JUMPI PUSH2 0x100 DUP1 DUP4 SLOAD DIV MUL DUP4 MSTORE SWAP2 PUSH1 0x20 ADD SWAP2 PUSH2 0x1C7 JUMP JUMPDEST DUP3 ADD SWAP2 SWAP1 PUSH1 0x0 MSTORE PUSH1 0x20 PUSH1 0x0 KECCAK256 SWAP1 JUMPDEST DUP2 SLOAD DUP2 MSTORE SWAP1 PUSH1 0x1 ADD SWAP1 PUSH1 0x20 ADD DUP1 DUP4 GT PUSH2 0x1AA JUMPI DUP3 SWAP1 SUB PUSH1 0x1F AND DUP3 ADD SWAP2 JUMPDEST POP POP POP POP POP DUP2 JUMP JUMPDEST PUSH1 0x0 PUSH1 0x3 DUP2 GT ISZERO PUSH2 0x1E3 JUMPI PUSH2 0x1E2 PUSH2 0xC21 JUMP JUMPDEST JUMPDEST DUP2 PUSH1 0x3 DUP2 GT ISZERO PUSH2 0x1F6 JUMPI PUSH2 0x1F5 PUSH2 0xC21 JUMP JUMPDEST JUMPDEST SUB PUSH2 0x236 JUMPI PUSH1 0x40 MLOAD PUSH32 0x8C379A000000000000000000000000000000000000000000000000000000000 DUP2 MSTORE PUSH1 0x4 ADD PUSH2 0x22D SWAP1 PUSH2 0xC9C JUMP JUMPDEST PUSH1 0x40 MLOAD DUP1 SWAP2 SUB SWAP1 REVERT JUMPDEST CALLER PUSH20 0xFFFFFFFFFFFFFFFFFFFFFFFFFFFFFFFFFFFFFFFF AND PUSH1 0x0 PUSH1 0x1 SWAP1 SLOAD SWAP1 PUSH2 0x100 EXP SWAP1 DIV PUSH20 0xFFFFFFFFFFFFFFFFFFFFFFFFFFFFFFFFFFFFFFFF AND PUSH20 0xFFFFFFFFFFFFFFFFFFFFFFFFFFFFFFFFFFFFFFFF AND SUB PUSH2 0x2C6 JUMPI PUSH1 0x40 MLOAD PUSH32 0x8C379A000000000000000000000000000000000000000000000000000000000 DUP2 MSTORE PUSH1 0x4 ADD PUSH2 0x2BD SWAP1 PUSH2 0xD08 JUMP JUMPDEST PUSH1 0x40 MLOAD DUP1 SWAP2 SUB SWAP1 REVERT JUMPDEST PUSH7 0x2386F26FC10000 CALLVALUE LT ISZERO PUSH2 0x310 JUMPI PUSH1 0x40 MLOAD PUSH32 0x8C379A000000000000000000000000000000000000000000000000000000000 DUP2 MSTORE PUSH1 0x4 ADD PUSH2 0x307 SWAP1 PUSH2 0xD74 JUMP JUMPDEST PUSH1 0x40 MLOAD DUP1 SWAP2 SUB SWAP1 REVERT JUMPDEST PUSH1 0x0 PUSH1 0x3 DUP2 GT ISZERO PUSH2 0x324 JUMPI PUSH2 0x323 PUSH2 0xC21 JUMP JUMPDEST JUMPDEST PUSH1 0x0 DUP1 SLOAD SWAP1 PUSH2 0x100 EXP SWAP1 DIV PUSH1 0xFF AND PUSH1 0x3 DUP2 GT ISZERO PUSH2 0x344 JUMPI PUSH2 0x343 PUSH2 0xC21 JUMP JUMPDEST JUMPDEST SUB PUSH2 0x3E0 JUMPI CALLER PUSH1 0x0 PUSH1 0x1 PUSH2 0x100 EXP DUP2 SLOAD DUP2 PUSH20 0xFFFFFFFFFFFFFFFFFFFFFFFFFFFFFFFFFFFFFFFF MUL NOT AND SWAP1 DUP4 PUSH20 0xFFFFFFFFFFFFFFFFFFFFFFFFFFFFFFFFFFFFFFFF AND MUL OR SWAP1 SSTORE POP DUP1 PUSH1 0x0 DUP1 PUSH2 0x100 EXP DUP2 SLOAD DUP2 PUSH1 0xFF MUL NOT AND SWAP1 DUP4 PUSH1 0x3 DUP2 GT ISZERO PUSH2 0x3AE JUMPI PUSH2 0x3AD PUSH2 0xC21 JUMP JUMPDEST JUMPDEST MUL OR SWAP1 SSTORE POP PUSH1 0x40 MLOAD DUP1 PUSH1 0x60 ADD PUSH1 0x40 MSTORE DUP1 PUSH1 0x30 DUP2 MSTORE PUSH1 0x20 ADD PUSH2 0x1136 PUSH1 0x30 SWAP2 CODECOPY PUSH1 0x1 SWAP1 DUP2 PUSH2 0x3DA SWAP2 SWAP1 PUSH2 0xF6F JUMP JUMPDEST POP PUSH2 0x829 JUMP JUMPDEST PUSH1 0x1 PUSH1 0x3 DUP2 GT ISZERO PUSH2 0x3F4 JUMPI PUSH2 0x3F3 PUSH2 0xC21 JUMP JUMPDEST JUMPDEST PUSH1 0x0 DUP1 SLOAD SWAP1 PUSH2 0x100 EXP SWAP1 DIV PUSH1 0xFF AND PUSH1 0x3 DUP2 GT ISZERO PUSH2 0x414 JUMPI PUSH2 0x413 PUSH2 0xC21 JUMP JUMPDEST JUMPDEST EQ DUP1 ISZERO PUSH2 0x444 JUMPI POP PUSH1 0x3 DUP1 DUP2 GT ISZERO PUSH2 0x42F JUMPI PUSH2 0x42E PUSH2 0xC21 JUMP JUMPDEST JUMPDEST DUP2 PUSH1 0x3 DUP2 GT ISZERO PUSH2 0x442 JUMPI PUSH2 0x441 PUSH2 0xC21 JUMP JUMPDEST JUMPDEST EQ JUMPDEST ISZERO PUSH2 0x492 JUMPI PUSH2 0x48D PUSH1 0x0 PUSH1 0x1 SWAP1 SLOAD SWAP1 PUSH2 0x100 EXP SWAP1 DIV PUSH20 0xFFFFFFFFFFFFFFFFFFFFFFFFFFFFFFFFFFFFFFFF AND PUSH1 0x40 MLOAD DUP1 PUSH1 0x60 ADD PUSH1 0x40 MSTORE DUP1 PUSH1 0x23 DUP2 MSTORE PUSH1 0x20 ADD PUSH2 0x1166 PUSH1 0x23 SWAP2 CODECOPY PUSH2 0x82C JUMP JUMPDEST PUSH2 0x828 JUMP JUMPDEST PUSH1 0x2 PUSH1 0x3 DUP2 GT ISZERO PUSH2 0x4A6 JUMPI PUSH2 0x4A5 PUSH2 0xC21 JUMP JUMPDEST JUMPDEST PUSH1 0x0 DUP1 SLOAD SWAP1 PUSH2 0x100 EXP SWAP1 DIV PUSH1 0xFF AND PUSH1 0x3 DUP2 GT ISZERO PUSH2 0x4C6 JUMPI PUSH2 0x4C5 PUSH2 0xC21 JUMP JUMPDEST JUMPDEST EQ DUP1 ISZERO PUSH2 0x4F7 JUMPI POP PUSH1 0x1 PUSH1 0x3 DUP2 GT ISZERO PUSH2 0x4E2 JUMPI PUSH2 0x4E1 PUSH2 0xC21 JUMP JUMPDEST JUMPDEST DUP2 PUSH1 0x3 DUP2 GT ISZERO PUSH2 0x4F5 JUMPI PUSH2 0x4F4 PUSH2 0xC21 JUMP JUMPDEST JUMPDEST EQ JUMPDEST ISZERO PUSH2 0x562 JUMPI PUSH2 0x55D PUSH1 0x0 PUSH1 0x1 SWAP1 SLOAD SWAP1 PUSH2 0x100 EXP SWAP1 DIV PUSH20 0xFFFFFFFFFFFFFFFFFFFFFFFFFFFFFFFFFFFFFFFF AND PUSH1 0x40 MLOAD DUP1 PUSH1 0x40 ADD PUSH1 0x40 MSTORE DUP1 PUSH1 0x1F DUP2 MSTORE PUSH1 0x20 ADD PUSH32 0x506170657220777261707320526F636B2E20506C61796572203120574F4E2100 DUP2 MSTORE POP PUSH2 0x82C JUMP JUMPDEST PUSH2 0x827 JUMP JUMPDEST PUSH1 0x3 DUP1 DUP2 GT ISZERO PUSH2 0x575 JUMPI PUSH2 0x574 PUSH2 0xC21 JUMP JUMPDEST JUMPDEST PUSH1 0x0 DUP1 SLOAD SWAP1 PUSH2 0x100 EXP SWAP1 DIV PUSH1 0xFF AND PUSH1 0x3 DUP2 GT ISZERO PUSH2 0x595 JUMPI PUSH2 0x594 PUSH2 0xC21 JUMP JUMPDEST JUMPDEST EQ DUP1 ISZERO PUSH2 0x5C6 JUMPI POP PUSH1 0x2 PUSH1 0x3 DUP2 GT ISZERO PUSH2 0x5B1 JUMPI PUSH2 0x5B0 PUSH2 0xC21 JUMP JUMPDEST JUMPDEST DUP2 PUSH1 0x3 DUP2 GT ISZERO PUSH2 0x5C4 JUMPI PUSH2 0x5C3 PUSH2 0xC21 JUMP JUMPDEST JUMPDEST EQ JUMPDEST ISZERO PUSH2 0x614 JUMPI PUSH2 0x60F PUSH1 0x0 PUSH1 0x1 SWAP1 SLOAD SWAP1 PUSH2 0x100 EXP SWAP1 DIV PUSH20 0xFFFFFFFFFFFFFFFFFFFFFFFFFFFFFFFFFFFFFFFF AND PUSH1 0x40 MLOAD DUP1 PUSH1 0x60 ADD PUSH1 0x40 MSTORE DUP1 PUSH1 0x22 DUP2 MSTORE PUSH1 0x20 ADD PUSH2 0x1189 PUSH1 0x22 SWAP2 CODECOPY PUSH2 0x82C JUMP JUMPDEST PUSH2 0x826 JUMP JUMPDEST PUSH1 0x3 DUP1 DUP2 GT ISZERO PUSH2 0x627 JUMPI PUSH2 0x626 PUSH2 0xC21 JUMP JUMPDEST JUMPDEST PUSH1 0x0 DUP1 SLOAD SWAP1 PUSH2 0x100 EXP SWAP1 DIV PUSH1 0xFF AND PUSH1 0x3 DUP2 GT ISZERO PUSH2 0x647 JUMPI PUSH2 0x646 PUSH2 0xC21 JUMP JUMPDEST JUMPDEST EQ DUP1 ISZERO PUSH2 0x678 JUMPI POP PUSH1 0x1 PUSH1 0x3 DUP2 GT ISZERO PUSH2 0x663 JUMPI PUSH2 0x662 PUSH2 0xC21 JUMP JUMPDEST JUMPDEST DUP2 PUSH1 0x3 DUP2 GT ISZERO PUSH2 0x676 JUMPI PUSH2 0x675 PUSH2 0xC21 JUMP JUMPDEST JUMPDEST EQ JUMPDEST ISZERO PUSH2 0x6A4 JUMPI PUSH2 0x69F CALLER PUSH1 0x40 MLOAD DUP1 PUSH1 0x60 ADD PUSH1 0x40 MSTORE DUP1 PUSH1 0x23 DUP2 MSTORE PUSH1 0x20 ADD PUSH2 0x1113 PUSH1 0x23 SWAP2 CODECOPY PUSH2 0x82C JUMP JUMPDEST PUSH2 0x825 JUMP JUMPDEST PUSH1 0x1 PUSH1 0x3 DUP2 GT ISZERO PUSH2 0x6B8 JUMPI PUSH2 0x6B7 PUSH2 0xC21 JUMP JUMPDEST JUMPDEST PUSH1 0x0 DUP1 SLOAD SWAP1 PUSH2 0x100 EXP SWAP1 DIV PUSH1 0xFF AND PUSH1 0x3 DUP2 GT ISZERO PUSH2 0x6D8 JUMPI PUSH2 0x6D7 PUSH2 0xC21 JUMP JUMPDEST JUMPDEST EQ DUP1 ISZERO PUSH2 0x709 JUMPI POP PUSH1 0x2 PUSH1 0x3 DUP2 GT ISZERO PUSH2 0x6F4 JUMPI PUSH2 0x6F3 PUSH2 0xC21 JUMP JUMPDEST JUMPDEST DUP2 PUSH1 0x3 DUP2 GT ISZERO PUSH2 0x707 JUMPI PUSH2 0x706 PUSH2 0xC21 JUMP JUMPDEST JUMPDEST EQ JUMPDEST ISZERO PUSH2 0x752 JUMPI PUSH2 0x74D CALLER PUSH1 0x40 MLOAD DUP1 PUSH1 0x40 ADD PUSH1 0x40 MSTORE DUP1 PUSH1 0x1F DUP2 MSTORE PUSH1 0x20 ADD PUSH32 0x506170657220777261707320526F636B2E20506C61796572203220574F4E2100 DUP2 MSTORE POP PUSH2 0x82C JUMP JUMPDEST PUSH2 0x824 JUMP JUMPDEST PUSH1 0x2 PUSH1 0x3 DUP2 GT ISZERO PUSH2 0x766 JUMPI PUSH2 0x765 PUSH2 0xC21 JUMP JUMPDEST JUMPDEST PUSH1 0x0 DUP1 SLOAD SWAP1 PUSH2 0x100 EXP SWAP1 DIV PUSH1 0xFF AND PUSH1 0x3 DUP2 GT ISZERO PUSH2 0x786 JUMPI PUSH2 0x785 PUSH2 0xC21 JUMP JUMPDEST JUMPDEST EQ DUP1 ISZERO PUSH2 0x7B6 JUMPI POP PUSH1 0x3 DUP1 DUP2 GT ISZERO PUSH2 0x7A1 JUMPI PUSH2 0x7A0 PUSH2 0xC21 JUMP JUMPDEST JUMPDEST DUP2 PUSH1 0x3 DUP2 GT ISZERO PUSH2 0x7B4 JUMPI PUSH2 0x7B3 PUSH2 0xC21 JUMP JUMPDEST JUMPDEST EQ JUMPDEST ISZERO PUSH2 0x7E2 JUMPI PUSH2 0x7DD CALLER PUSH1 0x40 MLOAD DUP1 PUSH1 0x60 ADD PUSH1 0x40 MSTORE DUP1 PUSH1 0x22 DUP2 MSTORE PUSH1 0x20 ADD PUSH2 0x11AB PUSH1 0x22 SWAP2 CODECOPY PUSH2 0x82C JUMP JUMPDEST PUSH2 0x823 JUMP JUMPDEST PUSH2 0x822 PUSH1 0x0 PUSH1 0x40 MLOAD DUP1 PUSH1 0x40 ADD PUSH1 0x40 MSTORE DUP1 PUSH1 0xA DUP2 MSTORE PUSH1 0x20 ADD PUSH32 0x447261772067616D652100000000000000000000000000000000000000000000 DUP2 MSTORE POP PUSH2 0x82C JUMP JUMPDEST JUMPDEST JUMPDEST JUMPDEST JUMPDEST JUMPDEST JUMPDEST JUMPDEST POP JUMP JUMPDEST PUSH1 0x0 PUSH20 0xFFFFFFFFFFFFFFFFFFFFFFFFFFFFFFFFFFFFFFFF AND DUP3 PUSH20 0xFFFFFFFFFFFFFFFFFFFFFFFFFFFFFFFFFFFFFFFF AND EQ PUSH2 0x973 JUMPI PUSH1 0x0 ADDRESS SWAP1 POP PUSH32 0x0 PUSH20 0xFFFFFFFFFFFFFFFFFFFFFFFFFFFFFFFFFFFFFFFF AND PUSH2 0x8FC PUSH1 0xA PUSH1 0x64 DUP5 PUSH20 0xFFFFFFFFFFFFFFFFFFFFFFFFFFFFFFFFFFFFFFFF AND BALANCE PUSH2 0x8C5 SWAP2 SWAP1 PUSH2 0x109F JUMP JUMPDEST PUSH2 0x8CF SWAP2 SWAP1 PUSH2 0x10D0 JUMP JUMPDEST SWAP1 DUP2 ISZERO MUL SWAP1 PUSH1 0x40 MLOAD PUSH1 0x0 PUSH1 0x40 MLOAD DUP1 DUP4 SUB DUP2 DUP6 DUP9 DUP9 CALL SWAP4 POP POP POP POP ISZERO DUP1 ISZERO PUSH2 0x8FA JUMPI RETURNDATASIZE PUSH1 0x0 DUP1 RETURNDATACOPY RETURNDATASIZE PUSH1 0x0 REVERT JUMPDEST POP DUP3 PUSH20 0xFFFFFFFFFFFFFFFFFFFFFFFFFFFFFFFFFFFFFFFF AND PUSH2 0x8FC PUSH1 0x5A PUSH1 0x64 DUP5 PUSH20 0xFFFFFFFFFFFFFFFFFFFFFFFFFFFFFFFFFFFFFFFF AND BALANCE PUSH2 0x93B SWAP2 SWAP1 PUSH2 0x109F JUMP JUMPDEST PUSH2 0x945 SWAP2 SWAP1 PUSH2 0x10D0 JUMP JUMPDEST SWAP1 DUP2 ISZERO MUL SWAP1 PUSH1 0x40 MLOAD PUSH1 0x0 PUSH1 0x40 MLOAD DUP1 DUP4 SUB DUP2 DUP6 DUP9 DUP9 CALL SWAP4 POP POP POP POP ISZERO DUP1 ISZERO PUSH2 0x970 JUMPI RETURNDATASIZE PUSH1 0x0 DUP1 RETURNDATACOPY RETURNDATASIZE PUSH1 0x0 REVERT JUMPDEST POP POP JUMPDEST DUP1 PUSH1 0x1 SWAP1 DUP2 PUSH2 0x982 SWAP2 SWAP1 PUSH2 0xF6F JUMP JUMPDEST POP PUSH1 0x0 DUP1 PUSH1 0x1 PUSH2 0x100 EXP DUP2 SLOAD DUP2 PUSH20 0xFFFFFFFFFFFFFFFFFFFFFFFFFFFFFFFFFFFFFFFF MUL NOT AND SWAP1 DUP4 PUSH20 0xFFFFFFFFFFFFFFFFFFFFFFFFFFFFFFFFFFFFFFFF AND MUL OR SWAP1 SSTORE POP PUSH1 0x0 DUP1 PUSH1 0x0 PUSH2 0x100 EXP DUP2 SLOAD DUP2 PUSH1 0xFF MUL NOT AND SWAP1 DUP4 PUSH1 0x3 DUP2 GT ISZERO PUSH2 0x9E9 JUMPI PUSH2 0x9E8 PUSH2 0xC21 JUMP JUMPDEST JUMPDEST MUL OR SWAP1 SSTORE POP POP POP JUMP JUMPDEST PUSH1 0x0 DUP2 SWAP1 POP SWAP2 SWAP1 POP JUMP JUMPDEST PUSH2 0xA05 DUP2 PUSH2 0x9F2 JUMP JUMPDEST DUP3 MSTORE POP POP JUMP JUMPDEST PUSH1 0x0 PUSH1 0x20 DUP3 ADD SWAP1 POP PUSH2 0xA20 PUSH1 0x0 DUP4 ADD DUP5 PUSH2 0x9FC JUMP JUMPDEST SWAP3 SWAP2 POP POP JUMP JUMPDEST PUSH1 0x0 DUP2 MLOAD SWAP1 POP SWAP2 SWAP1 POP JUMP JUMPDEST PUSH1 0x0 DUP3 DUP3 MSTORE PUSH1 0x20 DUP3 ADD SWAP1 POP SWAP3 SWAP2 POP POP JUMP JUMPDEST PUSH1 0x0 JUMPDEST DUP4 DUP2 LT ISZERO PUSH2 0xA60 JUMPI DUP1 DUP3 ADD MLOAD DUP2 DUP5 ADD MSTORE PUSH1 0x20 DUP2 ADD SWAP1 POP PUSH2 0xA45 JUMP JUMPDEST PUSH1 0x0 DUP5 DUP5 ADD MSTORE POP POP POP POP JUMP JUMPDEST PUSH1 0x0 PUSH1 0x1F NOT PUSH1 0x1F DUP4 ADD AND SWAP1 POP SWAP2 SWAP1 POP JUMP JUMPDEST PUSH1 0x0 PUSH2 0xA88 DUP3 PUSH2 0xA26 JUMP JUMPDEST PUSH2 0xA92 DUP2 DUP6 PUSH2 0xA31 JUMP JUMPDEST SWAP4 POP PUSH2 0xAA2 DUP2 DUP6 PUSH1 0x20 DUP7 ADD PUSH2 0xA42 JUMP JUMPDEST PUSH2 0xAAB DUP2 PUSH2 0xA6C JUMP JUMPDEST DUP5 ADD SWAP2 POP POP SWAP3 SWAP2 POP POP JUMP JUMPDEST PUSH1 0x0 PUSH1 0x20 DUP3 ADD SWAP1 POP DUP2 DUP2 SUB PUSH1 0x0 DUP4 ADD MSTORE PUSH2 0xAD0 DUP2 DUP5 PUSH2 0xA7D JUMP JUMPDEST SWAP1 POP SWAP3 SWAP2 POP POP JUMP JUMPDEST PUSH1 0x0 DUP1 REVERT JUMPDEST PUSH1 0x4 DUP2 LT PUSH2 0xAEA JUMPI PUSH1 0x0 DUP1 REVERT JUMPDEST POP JUMP JUMPDEST PUSH1 0x0 DUP2 CALLDATALOAD SWAP1 POP PUSH2 0xAFC DUP2 PUSH2 0xADD JUMP JUMPDEST SWAP3 SWAP2 POP POP JUMP JUMPDEST PUSH1 0x0 PUSH1 0x20 DUP3 DUP5 SUB SLT ISZERO PUSH2 0xB18 JUMPI PUSH2 0xB17 PUSH2 0xAD8 JUMP JUMPDEST JUMPDEST PUSH1 0x0 PUSH2 0xB26 DUP5 DUP3 DUP6 ADD PUSH2 0xAED JUMP JUMPDEST SWAP2 POP POP SWAP3 SWAP2 POP POP JUMP JUMPDEST PUSH32 0x596F7520646F6E27742068617665207065726D697373696F6E7320746F206163 PUSH1 0x0 DUP3 ADD MSTORE PUSH32 0x6365737320746869732E00000000000000000000000000000000000000000000 PUSH1 0x20 DUP3 ADD MSTORE POP JUMP JUMPDEST PUSH1 0x0 PUSH2 0xB8B PUSH1 0x2A DUP4 PUSH2 0xA31 JUMP JUMPDEST SWAP2 POP PUSH2 0xB96 DUP3 PUSH2 0xB2F JUMP JUMPDEST PUSH1 0x40 DUP3 ADD SWAP1 POP SWAP2 SWAP1 POP JUMP JUMPDEST PUSH1 0x0 PUSH1 0x20 DUP3 ADD SWAP1 POP DUP2 DUP2 SUB PUSH1 0x0 DUP4 ADD MSTORE PUSH2 0xBBA DUP2 PUSH2 0xB7E JUMP JUMPDEST SWAP1 POP SWAP2 SWAP1 POP JUMP JUMPDEST PUSH32 0x4E487B7100000000000000000000000000000000000000000000000000000000 PUSH1 0x0 MSTORE PUSH1 0x22 PUSH1 0x4 MSTORE PUSH1 0x24 PUSH1 0x0 REVERT JUMPDEST PUSH1 0x0 PUSH1 0x2 DUP3 DIV SWAP1 POP PUSH1 0x1 DUP3 AND DUP1 PUSH2 0xC08 JUMPI PUSH1 0x7F DUP3 AND SWAP2 POP JUMPDEST PUSH1 0x20 DUP3 LT DUP2 SUB PUSH2 0xC1B JUMPI PUSH2 0xC1A PUSH2 0xBC1 JUMP JUMPDEST JUMPDEST POP SWAP2 SWAP1 POP JUMP JUMPDEST PUSH32 0x4E487B7100000000000000000000000000000000000000000000000000000000 PUSH1 0x0 MSTORE PUSH1 0x21 PUSH1 0x4 MSTORE PUSH1 0x24 PUSH1 0x0 REVERT JUMPDEST PUSH32 0x496E76616C69642063686F696365210000000000000000000000000000000000 PUSH1 0x0 DUP3 ADD MSTORE POP JUMP JUMPDEST PUSH1 0x0 PUSH2 0xC86 PUSH1 0xF DUP4 PUSH2 0xA31 JUMP JUMPDEST SWAP2 POP PUSH2 0xC91 DUP3 PUSH2 0xC50 JUMP JUMPDEST PUSH1 0x20 DUP3 ADD SWAP1 POP SWAP2 SWAP1 POP JUMP JUMPDEST PUSH1 0x0 PUSH1 0x20 DUP3 ADD SWAP1 POP DUP2 DUP2 SUB PUSH1 0x0 DUP4 ADD MSTORE PUSH2 0xCB5 DUP2 PUSH2 0xC79 JUMP JUMPDEST SWAP1 POP SWAP2 SWAP1 POP JUMP JUMPDEST PUSH32 0x417761697420616E6F7468657220706C617965722E0000000000000000000000 PUSH1 0x0 DUP3 ADD MSTORE POP JUMP JUMPDEST PUSH1 0x0 PUSH2 0xCF2 PUSH1 0x15 DUP4 PUSH2 0xA31 JUMP JUMPDEST SWAP2 POP PUSH2 0xCFD DUP3 PUSH2 0xCBC JUMP JUMPDEST PUSH1 0x20 DUP3 ADD SWAP1 POP SWAP2 SWAP1 POP JUMP JUMPDEST PUSH1 0x0 PUSH1 0x20 DUP3 ADD SWAP1 POP DUP2 DUP2 SUB PUSH1 0x0 DUP4 ADD MSTORE PUSH2 0xD21 DUP2 PUSH2 0xCE5 JUMP JUMPDEST SWAP1 POP SWAP2 SWAP1 POP JUMP JUMPDEST PUSH32 0x496E76616C6964206269642E0000000000000000000000000000000000000000 PUSH1 0x0 DUP3 ADD MSTORE POP JUMP JUMPDEST PUSH1 0x0 PUSH2 0xD5E PUSH1 0xC DUP4 PUSH2 0xA31 JUMP JUMPDEST SWAP2 POP PUSH2 0xD69 DUP3 PUSH2 0xD28 JUMP JUMPDEST PUSH1 0x20 DUP3 ADD SWAP1 POP SWAP2 SWAP1 POP JUMP JUMPDEST PUSH1 0x0 PUSH1 0x20 DUP3 ADD SWAP1 POP DUP2 DUP2 SUB PUSH1 0x0 DUP4 ADD MSTORE PUSH2 0xD8D DUP2 PUSH2 0xD51 JUMP JUMPDEST SWAP1 POP SWAP2 SWAP1 POP JUMP JUMPDEST PUSH32 0x4E487B7100000000000000000000000000000000000000000000000000000000 PUSH1 0x0 MSTORE PUSH1 0x41 PUSH1 0x4 MSTORE PUSH1 0x24 PUSH1 0x0 REVERT JUMPDEST PUSH1 0x0 DUP2 SWAP1 POP DUP2 PUSH1 0x0 MSTORE PUSH1 0x20 PUSH1 0x0 KECCAK256 SWAP1 POP SWAP2 SWAP1 POP JUMP JUMPDEST PUSH1 0x0 PUSH1 0x20 PUSH1 0x1F DUP4 ADD DIV SWAP1 POP SWAP2 SWAP1 POP JUMP JUMPDEST PUSH1 0x0 DUP3 DUP3 SHL SWAP1 POP SWAP3 SWAP2 POP POP JUMP JUMPDEST PUSH1 0x0 PUSH1 0x8 DUP4 MUL PUSH2 0xE25 PUSH32 0xFFFFFFFFFFFFFFFFFFFFFFFFFFFFFFFFFFFFFFFFFFFFFFFFFFFFFFFFFFFFFFFF DUP3 PUSH2 0xDE8 JUMP JUMPDEST PUSH2 0xE2F DUP7 DUP4 PUSH2 0xDE8 JUMP JUMPDEST SWAP6 POP DUP1 NOT DUP5 AND SWAP4 POP DUP1 DUP7 AND DUP5 OR SWAP3 POP POP POP SWAP4 SWAP3 POP POP POP JUMP JUMPDEST PUSH1 0x0 DUP2 SWAP1 POP SWAP2 SWAP1 POP JUMP JUMPDEST PUSH1 0x0 PUSH2 0xE6C PUSH2 0xE67 PUSH2 0xE62 DUP5 PUSH2 0x9F2 JUMP JUMPDEST PUSH2 0xE47 JUMP JUMPDEST PUSH2 0x9F2 JUMP JUMPDEST SWAP1 POP SWAP2 SWAP1 POP JUMP JUMPDEST PUSH1 0x0 DUP2 SWAP1 POP SWAP2 SWAP1 POP JUMP JUMPDEST PUSH2 0xE86 DUP4 PUSH2 0xE51 JUMP JUMPDEST PUSH2 0xE9A PUSH2 0xE92 DUP3 PUSH2 0xE73 JUMP JUMPDEST DUP5 DUP5 SLOAD PUSH2 0xDF5 JUMP JUMPDEST DUP3 SSTORE POP POP POP POP JUMP JUMPDEST PUSH1 0x0 SWAP1 JUMP JUMPDEST PUSH2 0xEAF PUSH2 0xEA2 JUMP JUMPDEST PUSH2 0xEBA DUP2 DUP5 DUP5 PUSH2 0xE7D JUMP JUMPDEST POP POP POP JUMP JUMPDEST JUMPDEST DUP2 DUP2 LT ISZERO PUSH2 0xEDE JUMPI PUSH2 0xED3 PUSH1 0x0 DUP3 PUSH2 0xEA7 JUMP JUMPDEST PUSH1 0x1 DUP2 ADD SWAP1 POP PUSH2 0xEC0 JUMP JUMPDEST POP POP JUMP JUMPDEST PUSH1 0x1F DUP3 GT ISZERO PUSH2 0xF23 JUMPI PUSH2 0xEF4 DUP2 PUSH2 0xDC3 JUMP JUMPDEST PUSH2 0xEFD DUP5 PUSH2 0xDD8 JUMP JUMPDEST DUP2 ADD PUSH1 0x20 DUP6 LT ISZERO PUSH2 0xF0C JUMPI DUP2 SWAP1 POP JUMPDEST PUSH2 0xF20 PUSH2 0xF18 DUP6 PUSH2 0xDD8 JUMP JUMPDEST DUP4 ADD DUP3 PUSH2 0xEBF JUMP JUMPDEST POP POP JUMPDEST POP POP POP JUMP JUMPDEST PUSH1 0x0 DUP3 DUP3 SHR SWAP1 POP SWAP3 SWAP2 POP POP JUMP JUMPDEST PUSH1 0x0 PUSH2 0xF46 PUSH1 0x0 NOT DUP5 PUSH1 0x8 MUL PUSH2 0xF28 JUMP JUMPDEST NOT DUP1 DUP4 AND SWAP2 POP POP SWAP3 SWAP2 POP POP JUMP JUMPDEST PUSH1 0x0 PUSH2 0xF5F DUP4 DUP4 PUSH2 0xF35 JUMP JUMPDEST SWAP2 POP DUP3 PUSH1 0x2 MUL DUP3 OR SWAP1 POP SWAP3 SWAP2 POP POP JUMP JUMPDEST PUSH2 0xF78 DUP3 PUSH2 0xA26 JUMP JUMPDEST PUSH8 0xFFFFFFFFFFFFFFFF DUP2 GT ISZERO PUSH2 0xF91 JUMPI PUSH2 0xF90 PUSH2 0xD94 JUMP JUMPDEST JUMPDEST PUSH2 0xF9B DUP3 SLOAD PUSH2 0xBF0 JUMP JUMPDEST PUSH2 0xFA6 DUP3 DUP3 DUP6 PUSH2 0xEE2 JUMP JUMPDEST PUSH1 0x0 PUSH1 0x20 SWAP1 POP PUSH1 0x1F DUP4 GT PUSH1 0x1 DUP2 EQ PUSH2 0xFD9 JUMPI PUSH1 0x0 DUP5 ISZERO PUSH2 0xFC7 JUMPI DUP3 DUP8 ADD MLOAD SWAP1 POP JUMPDEST PUSH2 0xFD1 DUP6 DUP3 PUSH2 0xF53 JUMP JUMPDEST DUP7 SSTORE POP PUSH2 0x1039 JUMP JUMPDEST PUSH1 0x1F NOT DUP5 AND PUSH2 0xFE7 DUP7 PUSH2 0xDC3 JUMP JUMPDEST PUSH1 0x0 JUMPDEST DUP3 DUP2 LT ISZERO PUSH2 0x100F JUMPI DUP5 DUP10 ADD MLOAD DUP3 SSTORE PUSH1 0x1 DUP3 ADD SWAP2 POP PUSH1 0x20 DUP6 ADD SWAP5 POP PUSH1 0x20 DUP2 ADD SWAP1 POP PUSH2 0xFEA JUMP JUMPDEST DUP7 DUP4 LT ISZERO PUSH2 0x102C JUMPI DUP5 DUP10 ADD MLOAD PUSH2 0x1028 PUSH1 0x1F DUP10 AND DUP3 PUSH2 0xF35 JUMP JUMPDEST DUP4 SSTORE POP JUMPDEST PUSH1 0x1 PUSH1 0x2 DUP9 MUL ADD DUP9 SSTORE POP POP POP JUMPDEST POP POP POP POP POP POP JUMP JUMPDEST PUSH32 0x4E487B7100000000000000000000000000000000000000000000000000000000 PUSH1 0x0 MSTORE PUSH1 0x12 PUSH1 0x4 MSTORE PUSH1 0x24 PUSH1 0x0 REVERT JUMPDEST PUSH32 0x4E487B7100000000000000000000000000000000000000000000000000000000 PUSH1 0x0 MSTORE PUSH1 0x11 PUSH1 0x4 MSTORE PUSH1 0x24 PUSH1 0x0 REVERT JUMPDEST PUSH1 0x0 PUSH2 0x10AA DUP3 PUSH2 0x9F2 JUMP JUMPDEST SWAP2 POP PUSH2 0x10B5 DUP4 PUSH2 0x9F2 JUMP JUMPDEST SWAP3 POP DUP3 PUSH2 0x10C5 JUMPI PUSH2 0x10C4 PUSH2 0x1041 JUMP JUMPDEST JUMPDEST DUP3 DUP3 DIV SWAP1 POP SWAP3 SWAP2 POP POP JUMP JUMPDEST PUSH1 0x0 PUSH2 0x10DB DUP3 PUSH2 0x9F2 JUMP JUMPDEST SWAP2 POP PUSH2 0x10E6 DUP4 PUSH2 0x9F2 JUMP JUMPDEST SWAP3 POP DUP3 DUP3 MUL PUSH2 0x10F4 DUP2 PUSH2 0x9F2 JUMP JUMPDEST SWAP2 POP DUP3 DUP3 DIV DUP5 EQ DUP4 ISZERO OR PUSH2 0x110B JUMPI PUSH2 0x110A PUSH2 0x1070 JUMP JUMPDEST JUMPDEST POP SWAP3 SWAP2 POP POP JUMP INVALID MSTORE PUSH16 0x636B20627265616B732053636973736F PUSH19 0x732E20506C61796572203220574F4E21506C61 PUSH26 0x657220312063686F736520686973206F7074696F6E2E20576169 PUSH21 0x696E6720666F7220706C6179657220322E526F636B KECCAK256 PUSH3 0x726561 PUSH12 0x732053636973736F72732E20 POP PUSH13 0x61796572203120574F4E215363 PUSH10 0x73736F72732063757473 KECCAK256 POP PUSH2 0x7065 PUSH19 0x2E20506C61796572203120574F4E2153636973 PUSH20 0x6F727320637574732050617065722E20506C6179 PUSH6 0x72203220574F 0x4E 0x21 LOG2 PUSH5 0x6970667358 0x22 SLT KECCAK256 0xAC 0x29 0xBC 0xB8 0xAB SWAP14 CHAINID PUSH21 0x47E8E7A5F06169DF4D488E012B74646B0704F30D64 CALLDATALOAD REVERT 0xC5 PUSH5 0x736F6C6343 STOP ADDMOD SLT STOP CALLER "
				},
				"gasEstimates": {
					"creation": {
						"codeDepositCost": "922000",
						"executionCost": "infinite",
						"totalCost": "infinite"
					},
					"external": {
						"getBalance()": "infinite",
						"play(uint8)": "infinite",
						"status()": "infinite"
					},
					"internal": {
						"finishGame(address,string memory)": "infinite"
					}
				},
				"methodIdentifiers": {
					"getBalance()": "12065fe0",
					"play(uint8)": "53a04b05",
					"status()": "200d2ed2"
				}
			},
			"storageLayout": {
				"storage": [
					{
						"astId": 11,
						"contract": "Contracts/JoKenPo.sol:JoKenPo",
						"label": "choice1",
						"offset": 0,
						"slot": "0",
						"type": "t_enum(Options)6"
					},
					{
						"astId": 15,
						"contract": "Contracts/JoKenPo.sol:JoKenPo",
						"label": "player1",
						"offset": 1,
						"slot": "0",
						"type": "t_address"
					},
					{
						"astId": 18,
						"contract": "Contracts/JoKenPo.sol:JoKenPo",
						"label": "status",
						"offset": 0,
						"slot": "1",
						"type": "t_string_storage"
					}
				],
				"types": {
					"t_address": {
						"encoding": "inplace",
						"label": "address",
						"numberOfBytes": "20"
					},
					"t_enum(Options)6": {
						"encoding": "inplace",
						"label": "enum JoKenPo.Options",
						"numberOfBytes": "1"
					},
					"t_string_storage": {
						"encoding": "bytes",
						"label": "string",
						"numberOfBytes": "32"
					}
				}
			},
			"userdoc": {
				"kind": "user",
				"methods": {
					"constructor": {
						"notice": "Contract constructor"
					},
					"getBalance()": {
						"notice": "Get Balance - only contract owner access"
					},
					"play(uint8)": {
						"notice": "The game param newChoice = 0, 1, 2 or 3 "
					}
				},
				"version": 1
			}
		}
	}
}